{
  "contractName": "BurnVerifier",
  "abi": [
    {
      "inputs": [
        {
          "name": "_ip",
          "type": "address"
        }
      ],
      "payable": false,
      "stateMutability": "nonpayable",
      "type": "constructor"
    },
    {
      "constant": true,
      "inputs": [
        {
          "components": [
            {
              "name": "x",
              "type": "bytes32"
            },
            {
              "name": "y",
              "type": "bytes32"
            }
          ],
          "name": "CLn",
          "type": "tuple"
        },
        {
          "components": [
            {
              "name": "x",
              "type": "bytes32"
            },
            {
              "name": "y",
              "type": "bytes32"
            }
          ],
          "name": "CRn",
          "type": "tuple"
        },
        {
          "components": [
            {
              "name": "x",
              "type": "bytes32"
            },
            {
              "name": "y",
              "type": "bytes32"
            }
          ],
          "name": "y",
          "type": "tuple"
        },
        {
          "name": "bTransfer",
          "type": "uint256"
        },
        {
          "name": "epoch",
          "type": "uint256"
        },
        {
          "components": [
            {
              "name": "x",
              "type": "bytes32"
            },
            {
              "name": "y",
              "type": "bytes32"
            }
          ],
          "name": "u",
          "type": "tuple"
        },
        {
          "name": "sender",
          "type": "address"
        },
        {
          "name": "proof",
          "type": "bytes"
        }
      ],
      "name": "verifyBurn",
      "outputs": [
        {
          "name": "",
          "type": "bool"
        }
      ],
      "payable": false,
      "stateMutability": "view",
      "type": "function"
    }
  ],
  "bytecode": "0x60806040523480156200001157600080fd5b5060405160208062002528833981018060405262000033919081019062000090565b806000806101000a81548173ffffffffffffffffffffffffffffffffffffffff021916908373ffffffffffffffffffffffffffffffffffffffff16021790555050620000f0565b6000620000888251620000bc565b905092915050565b600060208284031215620000a357600080fd5b6000620000b3848285016200007a565b91505092915050565b6000620000c982620000d0565b9050919050565b600073ffffffffffffffffffffffffffffffffffffffff82169050919050565b61242880620001006000396000f3fe608060405234801561001057600080fd5b5060043610610048576000357c010000000000000000000000000000000000000000000000000000000090048063eb0fbcc01461004d575b600080fd5b61006760048036036100629190810190611bb5565b61007d565b6040516100749190612051565b60405180910390f35b60006100876116f1565b8981600001819052508881602001819052508781604001819052508681606001818152505085816080018181525050848160c00181905250838160a0019073ffffffffffffffffffffffffffffffffffffffff16908173ffffffffffffffffffffffffffffffffffffffff16815250506100ff61175e565b61010884610124565b905061011482826104b4565b9250505098975050505050505050565b61012c61175e565b6040805190810160405280610142846000611195565b8152602001610152846020611195565b81525081600001819052506040805190810160405280610173846040611195565b8152602001610183846060611195565b815250816020018190525060408051908101604052806101a4846080611195565b81526020016101b48460a0611195565b815250816040018190525060408051908101604052806101d58460c0611195565b81526020016101e58460e0611195565b81525081606001819052506040805190810160405280604080519081016040528061021286610100611195565b815260200161022386610120611195565b8152508152602001604080519081016040528061024286610140611195565b815260200161025386610160611195565b815250815250816080018190525061026d82610180611195565b600190048160a0018181525050610286826101a0611195565b600190048160c001818152505061029f826101c0611195565b600190048160e00181815250506102b8826101e0611195565b60019004816101000181815250506102d282610200611195565b60019004816101200181815250506102ec82610220611195565b600190048161014001818152505061030682610240611195565b600190048161016001818152505061031c6117eb565b600560405190808252806020026020018201604052801561035757816020015b610344611814565b81526020019060019003908161033c5790505b508160000181905250600560405190808252806020026020018201604052801561039b57816020015b610388611814565b8152602001906001900390816103805790505b50816020018190525060008090505b600581101561046e5760408051908101604052806103cf866040850261026001611195565b81526020016103e5866040850261028001611195565b8152508260000151828151811015156103fa57fe5b906020019060200201819052506040805190810160405280610426866040856005010261026001611195565b815260200161043f866040856005010261028001611195565b81525082602001518281518110151561045457fe5b9060200190602002018190525080806001019150506103aa565b5061047b836104e0611195565b6001900481604001818152505061049483610500611195565b600190048160600181815250508082610180018190525081915050919050565b60008061050c846000015185602001518660400151876060015188608001518960a001516040516020016104ed969594939291906120ac565b60405160208183030381529060405280519060200120600190046111ae565b9050610516611834565b610561828560000151866020015187604001518860600151604051602001610542959493929190612153565b60405160208183030381529060405280519060200120600190046111ae565b81600001818152505060018160200151600060208110151561057f57fe5b6020020181815250506001816101000181815250506000600190505b6020811015610634576105d482600001518360200151600184036020811015156105c157fe5b60200201516111e390919063ffffffff16565b8260200151826020811015156105e657fe5b60200201818152505061061d82602001518260208110151561060457fe5b602002015183610100015161121a90919063ffffffff16565b82610100018181525050808060010191505061059b565b5061066c816000015160405160200161064d919061210f565b60405160208183030381529060405280519060200120600190046111ae565b8160400181815250506020604051908101604052806106996002846040015161125190919063ffffffff16565b81525081606001819052506106d28160400151826060015160006001811015156106bf57fe5b60200201516111e390919063ffffffff16565b816080018181525050610763610710826080015161070264010000000085608001516111e390919063ffffffff16565b6112be90919063ffffffff16565b6107556107418460600151600060018110151561072957fe5b602002015185604001516112be90919063ffffffff16565b8461010001516111e390919063ffffffff16565b6112be90919063ffffffff16565b816101000181815250506107898161010001518560a001516112be90919063ffffffff16565b8160e001818152505060008090505b60208110156107f6576107ce8160020a836060015160006001811015156107bb57fe5b60200201516111e390919063ffffffff16565b8260a00151826020811015156107e057fe5b6020020181815250508080600101915050610798565b506108348160400151856080015160405160200161081592919061212a565b60405160208183030381529060405280519060200120600190046111ae565b8160c00181815250506108c061088461085e8360c001518460c001516111e390919063ffffffff16565b8660800151600160028110151561087157fe5b60200201516112fe90919063ffffffff16565b6108b28360c001518760800151600060028110151561089f57fe5b60200201516112fe90919063ffffffff16565b61133990919063ffffffff16565b8161012001819052506108d16118a0565b6109256108f86108e587610100015161137f565b88604001516112fe90919063ffffffff16565b6109178761012001516109096113ab565b6112fe90919063ffffffff16565b61133990919063ffffffff16565b81602001819052506109706040805190810160405280600681526020017f5a657468657200000000000000000000000000000000000000000000000000008152508760800151611413565b81604001819052506109c961099f61098c87610100015161137f565b8860c001516112fe90919063ffffffff16565b6109bb87610120015184604001516112fe90919063ffffffff16565b61133990919063ffffffff16565b8160600181905250610a77826060015160006001811015156109e757fe5b6020020151610a69610a29610a0089610100015161137f565b610a1b8a604001518c6000015161133990919063ffffffff16565b6112fe90919063ffffffff16565b610a5b896101200151610a4d8b606001518d6020015161133990919063ffffffff16565b6112fe90919063ffffffff16565b61133990919063ffffffff16565b6112fe90919063ffffffff16565b8160800181905250610b188160800151610b0a876101000151610afc610aa1876101200151611483565b610aee610ac28c60c00151610ab46114d8565b6112fe90919063ffffffff16565b610ae08a60e00151610ad26113ab565b6112fe90919063ffffffff16565b61133990919063ffffffff16565b61133990919063ffffffff16565b6112fe90919063ffffffff16565b61133990919063ffffffff16565b8160a00181905250610ba1610b74610b4a610b3788610100015161137f565b89600001516112fe90919063ffffffff16565b610b668861012001518a602001516112fe90919063ffffffff16565b61133990919063ffffffff16565b610b93876101400151610b856113ab565b6112fe90919063ffffffff16565b61133990919063ffffffff16565b8160c00181905250610c2a610bfd610bd3610bc088610100015161137f565b88604001516112fe90919063ffffffff16565b610bef88610120015189606001516112fe90919063ffffffff16565b61133990919063ffffffff16565b610c1c876101600151610c0e6114d8565b6112fe90919063ffffffff16565b61133990919063ffffffff16565b8160e00181905250610c878260c00151826020015183606001518460a001518560c001518660e00151604051602001610c68969594939291906121a7565b60405160208183030381529060405280519060200120600190046111ae565b8160000181815250508461010001518160000151141515610cdd576040517f08c379a0000000000000000000000000000000000000000000000000000000008152600401610cd49061206c565b60405180910390fd5b610ce5611910565b610d1c8260000151604051602001610cfd919061210f565b60405160208183030381529060405280519060200120600190046111ae565b816080018181525050610d438160800151610d356113ab565b6112fe90919063ffffffff16565b81602001819052506020604051908082528060200260200182016040528015610d8657816020015b610d73611814565b815260200190600190039081610d6b5790505b50816040018190525060008090505b6020811015610f5f57610e93610dc0856020015183602081101515610db657fe5b6020020151611540565b6000809054906101000a900473ffffffffffffffffffffffffffffffffffffffff1673ffffffffffffffffffffffffffffffffffffffff16633844923b846040518263ffffffff167c0100000000000000000000000000000000000000000000000000000000028152600401610e36919061210f565b604080518083038186803b158015610e4d57600080fd5b505afa158015610e61573d6000803e3d6000fd5b505050506040513d601f19601f82011682018060405250610e859190810190611b8c565b6112fe90919063ffffffff16565b826040015182815181101515610ea557fe5b90602001906020020181905250610f4a610f37610f0d8660a0015184602081101515610ecd57fe5b6020020151610eff8860400151896020015187602081101515610eec57fe5b60200201516111e390919063ffffffff16565b61121a90919063ffffffff16565b846040015184815181101515610f1f57fe5b906020019060200201516112fe90919063ffffffff16565b836060015161133990919063ffffffff16565b82606001819052508080600101915050610d95565b50610fde8160600151610fd0610f91610f7b876040015161137f565b610f83611576565b6112fe90919063ffffffff16565b610fc2610faf8860c001518c602001516112fe90919063ffffffff16565b8b6000015161133990919063ffffffff16565b61133990919063ffffffff16565b61133990919063ffffffff16565b816000018190525061102261100f610ff98860e0015161137f565b6110016114d8565b6112fe90919063ffffffff16565b826000015161133990919063ffffffff16565b816000018190525061105b6110488760a0015183602001516112fe90919063ffffffff16565b826000015161133990919063ffffffff16565b81600001819052506000809054906101000a900473ffffffffffffffffffffffffffffffffffffffff1673ffffffffffffffffffffffffffffffffffffffff166397fa72ae8260400151836020015184600001518a610180015186608001516040518663ffffffff167c01000000000000000000000000000000000000000000000000000000000281526004016110f6959493929190611ff0565b60206040518083038186803b15801561110e57600080fd5b505afa158015611122573d6000803e3d6000fd5b505050506040513d601f19601f820116820180604052506111469190810190611b63565b1515611187576040517f08c379a000000000000000000000000000000000000000000000000000000000815260040161117e9061208c565b60405180910390fd5b600194505050505092915050565b6000604051826020850101518152805191505092915050565b60007f30644e72e131a029b85045b68181585d2833e84879b9709143e1f593f0000001828115156111db57fe5b069050919050565b60007f30644e72e131a029b85045b68181585d2833e84879b9709143e1f593f000000180151561120f57fe5b828409905092915050565b60007f30644e72e131a029b85045b68181585d2833e84879b9709143e1f593f000000180151561124657fe5b828408905092915050565b6000807f30644e72e131a029b85045b68181585d2833e84879b9709143e1f593f0000001905060405160208152602080820152602060408201528460608201528360808201528160a082015260208160c08360055afa15156112b257600080fd5b80519250505092915050565b6000818310156112f25782827f30644e72e131a029b85045b68181585d2833e84879b9709143e1f593f000000103016112f6565b8183035b905092915050565b611306611953565b604051835181526020840151602082015282604082015260408260608360075afa151561133257600080fd5b5092915050565b611341611953565b6040518351815260208401516020820152825160408201526020830151606082015260408260808360065afa151561137857600080fd5b5092915050565b6000817f30644e72e131a029b85045b68181585d2833e84879b9709143e1f593f0000001039050919050565b6113b3611953565b60408051908101604052807f077da99d806abd13c9f15ece5398525119d11e11e9836b2ee7d23f6159ad87d460010281526020017f01485efa927f2ad41bff567eec88f32fb0a0f706588b4e41a8d587d008b7f875600102815250905090565b61141b611953565b61147b7f30644e72e131a029b85045b68181585d97816a916871ca8d3c208c16d87cfd478484604051602001611452929190611fc8565b604051602081830303815290604052805190602001206001900481151561147557fe5b066115de565b905092915050565b61148b611953565b6040805190810160405280836000015181526020018360200151600190047f30644e72e131a029b85045b68181585d97816a916871ca8d3c208c16d87cfd47036001028152509050919050565b6114e0611953565b60408051908101604052807f01b7de3dcf359928dd19f643d54dc487478b68a5b2634f9f1903c9fb78331aef60010281526020017f2bda7d3ae6a557c716477c108be0d0f94abc6c4dc6b1bd93caccbcceaaa71d6b600102815250905090565b600061156f8260027f30644e72e131a029b85045b68181585d2833e84879b9709143e1f593f000000103611251565b9050919050565b61157e611953565b60408051908101604052807f2257118d30fe5064dda298b2fac15cf96fd51f0e7e3df342d0aed40b8d7bb15160010281526020017f0d4250e7509c99370e6b15ebfe4f1aa5e65a691133357901aa4b0641f96c80a8600102815250905090565b6115e6611953565b60005b60011561166157600060036115ff856003611684565b01905061163b81600460017f30644e72e131a029b85045b68181585d97816a916871ca8d3c208c16d87cfd470181151561163557fe5b04611684565b915080611649836002611684565b14156116555750611661565b600184019350506115e9565b604080519081016040528084600102815260200182600102815250915050919050565b6000807f30644e72e131a029b85045b68181585d97816a916871ca8d3c208c16d87cfd47905060405160208152602080820152602060408201528460608201528360808201528160a082015260208160c08360055afa15156116e557600080fd5b80519250505092915050565b61016060405190810160405280611706611814565b8152602001611713611814565b8152602001611720611814565b81526020016000815260200160008152602001600073ffffffffffffffffffffffffffffffffffffffff168152602001611758611814565b81525090565b6102e060405190810160405280611773611814565b8152602001611780611814565b815260200161178d611814565b815260200161179a611814565b81526020016117a7611973565b8152602001600081526020016000815260200160008152602001600081526020016000815260200160008152602001600081526020016117e56119a1565b81525090565b608060405190810160405280606081526020016060815260200160008152602001600081525090565b604080519081016040528060008019168152602001600080191681525090565b61092060405190810160405280600081526020016118506119ca565b8152602001600081526020016118646119ee565b8152602001600081526020016118786119ca565b815260200160008152602001600081526020016000815260200161189a611814565b81525090565b6101e060405190810160405280600081526020016118bc611814565b81526020016118c9611814565b81526020016118d6611814565b81526020016118e3611814565b81526020016118f0611814565b81526020016118fd611814565b815260200161190a611814565b81525090565b61010060405190810160405280611925611814565b8152602001611932611814565b815260200160608152602001611946611814565b8152602001600081525090565b604080519081016040528060008019168152602001600080191681525090565b6080604051908101604052806002905b61198b611814565b8152602001906001900390816119835790505090565b608060405190810160405280606081526020016060815260200160008152602001600081525090565b61040060405190810160405280602090602082028038833980820191505090505090565b602060405190810160405280600190602082028038833980820191505090505090565b6000611a1d8235612350565b905092915050565b6000611a318251612362565b905092915050565b6000611a45823561236e565b905092915050565b6000611a59825161236e565b905092915050565b600082601f8301121515611a7457600080fd5b8135611a87611a8282612237565b61220a565b91508082526020830160208301858383011115611aa357600080fd5b611aae8382846123a2565b50505092915050565b600060408284031215611ac957600080fd5b611ad3604061220a565b90506000611ae384828501611a39565b6000830152506020611af784828501611a39565b60208301525092915050565b600060408284031215611b1557600080fd5b611b1f604061220a565b90506000611b2f84828501611a4d565b6000830152506020611b4384828501611a4d565b60208301525092915050565b6000611b5b8235612398565b905092915050565b600060208284031215611b7557600080fd5b6000611b8384828501611a25565b91505092915050565b600060408284031215611b9e57600080fd5b6000611bac84828501611b03565b91505092915050565b600080600080600080600080610180898b031215611bd257600080fd5b6000611be08b828c01611ab7565b9850506040611bf18b828c01611ab7565b9750506080611c028b828c01611ab7565b96505060c0611c138b828c01611b4f565b95505060e0611c248b828c01611b4f565b945050610100611c368b828c01611ab7565b935050610140611c488b828c01611a11565b92505061016089013567ffffffffffffffff811115611c6657600080fd5b611c728b828c01611a61565b9150509295985092959890939650565b6000611c8e8383611ecb565b60408301905092915050565b611ca3816122fe565b82525050565b611cb28161227a565b611cbc81846122b5565b9250611cc782612263565b60005b82811015611cf557611cdd858351611c82565b9450611ce88261229b565b9150600181019050611cca565b5050505050565b6000611d0782612285565b611d1181856122c0565b9350611d1c8361226d565b60005b82811015611d4a57611d32868351611c82565b9550611d3d826122a8565b9150600181019050611d1f565b50849250505092915050565b6000611d6182612285565b611d6b81856122d1565b9350611d768361226d565b60005b82811015611da457611d8c868351611c82565b9550611d97826122a8565b9150600181019050611d79565b50849250505092915050565b611db981612310565b82525050565b611dc88161231c565b82525050565b6000611dd982612290565b611de381856122f3565b9350611df38185602086016123b1565b80840191505092915050565b6000611e0c602a836122e2565b91507f5369676d612070726f746f636f6c206368616c6c656e676520657175616c697460008301527f79206661696c7572652e000000000000000000000000000000000000000000006020830152604082019050919050565b6000611e726028836122e2565b91507f496e6e65722070726f647563742070726f6f6620766572696669636174696f6e60008301527f206661696c65642e0000000000000000000000000000000000000000000000006020830152604082019050919050565b604082016000820151611ee16000850182611dbf565b506020820151611ef46020850182611dbf565b50505050565b604082016000820151611f106000850182611dbf565b506020820151611f236020850182611dbf565b50505050565b60006080830160008301518482036000860152611f468282611cfc565b91505060208301518482036020860152611f608282611cfc565b9150506040830151611f756040860182611f93565b506060830151611f886060860182611f93565b508091505092915050565b611f9c81612346565b82525050565b611fab81612346565b82525050565b611fc2611fbd82612346565b6123e4565b82525050565b6000611fd48285611dce565b9150611fe08284611fb1565b6020820191508190509392505050565b600060e082019050818103600083015261200a8188611d56565b90506120196020830187611efa565b6120266060830186611efa565b81810360a08301526120388185611f29565b905061204760c0830184611fa2565b9695505050505050565b60006020820190506120666000830184611db0565b92915050565b6000602082019050818103600083015261208581611dff565b9050919050565b600060208201905081810360008301526120a581611e65565b9050919050565b6000610120820190506120c26000830189611efa565b6120cf6040830188611efa565b6120dc6080830187611efa565b6120e960c0830186611fa2565b6120f660e0830185611fa2565b612104610100830184611c9a565b979650505050505050565b60006020820190506121246000830184611fa2565b92915050565b600060a08201905061213f6000830185611fa2565b61214c6020830184611ca9565b9392505050565b6000610120820190506121696000830188611fa2565b6121766020830187611efa565b6121836060830186611efa565b61219060a0830185611efa565b61219d60e0830184611efa565b9695505050505050565b6000610160820190506121bd6000830189611fa2565b6121ca6020830188611efa565b6121d76060830187611efa565b6121e460a0830186611efa565b6121f160e0830185611efa565b6121ff610120830184611efa565b979650505050505050565b6000604051905081810181811067ffffffffffffffff8211171561222d57600080fd5b8060405250919050565b600067ffffffffffffffff82111561224e57600080fd5b601f19601f8301169050602081019050919050565b6000819050919050565b6000602082019050919050565b600060029050919050565b600081519050919050565b600081519050919050565b6000602082019050919050565b6000602082019050919050565b600081905092915050565b600082825260208201905092915050565b600082825260208201905092915050565b600082825260208201905092915050565b600081905092915050565b600061230982612326565b9050919050565b60008115159050919050565b6000819050919050565b600073ffffffffffffffffffffffffffffffffffffffff82169050919050565b6000819050919050565b600061235b82612378565b9050919050565b60008115159050919050565b6000819050919050565b600073ffffffffffffffffffffffffffffffffffffffff82169050919050565b6000819050919050565b82818337600083830152505050565b60005b838110156123cf5780820151818401526020810190506123b4565b838111156123de576000848401525b50505050565b600081905091905056fea265627a7a72305820a2d551608ebb51cad71ecad6ea5fa1f36045ac4985b2e2010a43ab6539209dee6c6578706572696d656e74616cf50037",
  "source": "pragma solidity 0.5.4;\npragma experimental ABIEncoderV2;\n\nimport \"./Utils.sol\";\nimport \"./InnerProductVerifier.sol\";\n\ncontract BurnVerifier {\n    using Utils for uint256;\n    using Utils for Utils.G1Point;\n\n    InnerProductVerifier ip;\n\n    struct BurnStatement {\n        Utils.G1Point CLn;\n        Utils.G1Point CRn;\n        Utils.G1Point y;\n        uint256 bTransfer;\n        uint256 epoch; // or uint8?\n        address sender;\n        Utils.G1Point u;\n    }\n\n    struct BurnProof {\n        Utils.G1Point BA;\n        Utils.G1Point BS;\n\n        Utils.G1Point CLnPrime;\n        Utils.G1Point CRnPrime;\n\n        Utils.G1Point[2] tCommits;\n        uint256 tHat;\n        uint256 tauX;\n        uint256 mu;\n\n        uint256 c;\n        uint256 s_sk;\n        uint256 s_vDiff;\n        uint256 s_nuDiff;\n\n        InnerProductVerifier.InnerProductProof ipProof;\n    }\n\n    constructor(address _ip) public {\n        ip = InnerProductVerifier(_ip);\n    }\n\n    function verifyBurn(Utils.G1Point memory CLn, Utils.G1Point memory CRn, Utils.G1Point memory y, uint256 bTransfer, uint256 epoch, Utils.G1Point memory u, address sender, bytes memory proof) public view returns (bool) {\n        BurnStatement memory statement; // WARNING: if this is called directly in the console,\n        // and your strings are less than 64 characters, they will be padded on the right, not the left. should hopefully not be an issue,\n        // as this will typically be called simply by the other contract. still though, beware\n        statement.CLn = CLn;\n        statement.CRn = CRn;\n        statement.y = y;\n        statement.bTransfer = bTransfer;\n        statement.epoch = epoch;\n        statement.u = u;\n        statement.sender = sender;\n        BurnProof memory burnProof = unserialize(proof);\n        return verify(statement, burnProof);\n    }\n\n    struct BurnAuxiliaries {\n        uint256 y;\n        uint256[32] ys;\n        uint256 z;\n        uint256[1] zs; // silly. just to match zether.\n        uint256 zSum;\n        uint256[32] twoTimesZSquared;\n        uint256 x;\n        uint256 t;\n        uint256 k;\n        Utils.G1Point tEval;\n    }\n\n    struct SigmaAuxiliaries {\n        uint256 c;\n        Utils.G1Point A_y;\n        Utils.G1Point gEpoch;\n        Utils.G1Point A_u;\n        Utils.G1Point c_commit;\n        Utils.G1Point A_t;\n        Utils.G1Point A_CLn;\n        Utils.G1Point A_CLnPrime;\n    }\n\n    struct IPAuxiliaries {\n        Utils.G1Point P;\n        Utils.G1Point u_x;\n        Utils.G1Point[] hPrimes;\n        Utils.G1Point hPrimeSum;\n        uint256 o;\n    }\n\n    function gSum() internal pure returns (Utils.G1Point memory) {\n        return Utils.G1Point(0x2257118d30fe5064dda298b2fac15cf96fd51f0e7e3df342d0aed40b8d7bb151, 0x0d4250e7509c99370e6b15ebfe4f1aa5e65a691133357901aa4b0641f96c80a8);\n    }\n\n    function verify(BurnStatement memory statement, BurnProof memory proof) internal view returns (bool) {\n        uint256 statementHash = uint256(keccak256(abi.encode(statement.CLn, statement.CRn, statement.y, statement.bTransfer, statement.epoch, statement.sender))).mod(); // stacktoodeep?\n\n        BurnAuxiliaries memory burnAuxiliaries;\n        burnAuxiliaries.y = uint256(keccak256(abi.encode(statementHash, proof.BA, proof.BS, proof.CLnPrime, proof.CRnPrime))).mod();\n        burnAuxiliaries.ys[0] = 1;\n        burnAuxiliaries.k = 1;\n        for (uint256 i = 1; i < 32; i++) {\n            burnAuxiliaries.ys[i] = burnAuxiliaries.ys[i - 1].mul(burnAuxiliaries.y);\n            burnAuxiliaries.k = burnAuxiliaries.k.add(burnAuxiliaries.ys[i]);\n        }\n        burnAuxiliaries.z = uint256(keccak256(abi.encode(burnAuxiliaries.y))).mod();\n        burnAuxiliaries.zs = [burnAuxiliaries.z.exp(2)];\n        burnAuxiliaries.zSum = burnAuxiliaries.zs[0].mul(burnAuxiliaries.z); // trivial sum\n        burnAuxiliaries.k = burnAuxiliaries.k.mul(burnAuxiliaries.z.sub(burnAuxiliaries.zs[0])).sub(burnAuxiliaries.zSum.mul(2 ** 32).sub(burnAuxiliaries.zSum));\n        burnAuxiliaries.t = proof.tHat.sub(burnAuxiliaries.k);\n        for (uint256 i = 0; i < 32; i++) {\n            burnAuxiliaries.twoTimesZSquared[i] = burnAuxiliaries.zs[0].mul(2 ** i);\n        }\n\n        burnAuxiliaries.x = uint256(keccak256(abi.encode(burnAuxiliaries.z, proof.tCommits))).mod();\n        burnAuxiliaries.tEval = proof.tCommits[0].mul(burnAuxiliaries.x).add(proof.tCommits[1].mul(burnAuxiliaries.x.mul(burnAuxiliaries.x))); // replace with \"commit\"?\n\n        SigmaAuxiliaries memory sigmaAuxiliaries;\n        sigmaAuxiliaries.A_y = Utils.g().mul(proof.s_sk).add(statement.y.mul(proof.c.neg()));\n        sigmaAuxiliaries.gEpoch = Utils.mapInto(\"Zether\", statement.epoch);\n        sigmaAuxiliaries.A_u = sigmaAuxiliaries.gEpoch.mul(proof.s_sk).add(statement.u.mul(proof.c.neg()));\n        sigmaAuxiliaries.c_commit = statement.CRn.add(proof.CRnPrime).mul(proof.s_sk).add(statement.CLn.add(proof.CLnPrime).mul(proof.c.neg())).mul(burnAuxiliaries.zs[0]);\n        sigmaAuxiliaries.A_t = Utils.g().mul(burnAuxiliaries.t).add(Utils.h().mul(proof.tauX)).add(burnAuxiliaries.tEval.neg()).mul(proof.c).add(sigmaAuxiliaries.c_commit);\n        sigmaAuxiliaries.A_CLn = Utils.g().mul(proof.s_vDiff).add(statement.CRn.mul(proof.s_sk).add(statement.CLn.mul(proof.c.neg())));\n        sigmaAuxiliaries.A_CLnPrime = Utils.h().mul(proof.s_nuDiff).add(proof.CRnPrime.mul(proof.s_sk).add(proof.CLnPrime.mul(proof.c.neg())));\n\n        sigmaAuxiliaries.c = uint256(keccak256(abi.encode(burnAuxiliaries.x, sigmaAuxiliaries.A_y, sigmaAuxiliaries.A_u, sigmaAuxiliaries.A_t, sigmaAuxiliaries.A_CLn, sigmaAuxiliaries.A_CLnPrime))).mod();\n        require(sigmaAuxiliaries.c == proof.c, \"Sigma protocol challenge equality failure.\");\n\n        IPAuxiliaries memory ipAuxiliaries;\n        ipAuxiliaries.o = uint256(keccak256(abi.encode(sigmaAuxiliaries.c))).mod();\n        ipAuxiliaries.u_x = Utils.g().mul(ipAuxiliaries.o);\n        ipAuxiliaries.hPrimes = new Utils.G1Point[](32);\n        for (uint256 i = 0; i < 32; i++) {\n            ipAuxiliaries.hPrimes[i] = ip.hs(i).mul(burnAuxiliaries.ys[i].inv());\n            ipAuxiliaries.hPrimeSum = ipAuxiliaries.hPrimeSum.add(ipAuxiliaries.hPrimes[i].mul(burnAuxiliaries.ys[i].mul(burnAuxiliaries.z).add(burnAuxiliaries.twoTimesZSquared[i])));\n        }\n        ipAuxiliaries.P = proof.BA.add(proof.BS.mul(burnAuxiliaries.x)).add(gSum().mul(burnAuxiliaries.z.neg())).add(ipAuxiliaries.hPrimeSum);\n        ipAuxiliaries.P = ipAuxiliaries.P.add(Utils.h().mul(proof.mu.neg()));\n        ipAuxiliaries.P = ipAuxiliaries.P.add(ipAuxiliaries.u_x.mul(proof.tHat));\n        require(ip.verifyInnerProduct(ipAuxiliaries.hPrimes, ipAuxiliaries.u_x, ipAuxiliaries.P, proof.ipProof, ipAuxiliaries.o), \"Inner product proof verification failed.\");\n\n        return true;\n    }\n\n    function unserialize(bytes memory arr) internal pure returns (BurnProof memory proof) {\n        proof.BA = Utils.G1Point(Utils.slice(arr, 0), Utils.slice(arr, 32));\n        proof.BS = Utils.G1Point(Utils.slice(arr, 64), Utils.slice(arr, 96));\n\n        proof.CLnPrime = Utils.G1Point(Utils.slice(arr, 128), Utils.slice(arr, 160));\n        proof.CRnPrime = Utils.G1Point(Utils.slice(arr, 192), Utils.slice(arr, 224));\n\n        proof.tCommits = [Utils.G1Point(Utils.slice(arr, 256), Utils.slice(arr, 288)), Utils.G1Point(Utils.slice(arr, 320), Utils.slice(arr, 352))];\n        proof.tHat = uint256(Utils.slice(arr, 384));\n        proof.tauX = uint256(Utils.slice(arr, 416));\n        proof.mu = uint256(Utils.slice(arr, 448));\n\n        proof.c = uint256(Utils.slice(arr, 480));\n        proof.s_sk = uint256(Utils.slice(arr, 512));\n        proof.s_vDiff = uint256(Utils.slice(arr, 544));\n        proof.s_nuDiff = uint256(Utils.slice(arr, 576));\n\n        InnerProductVerifier.InnerProductProof memory ipProof;\n        ipProof.ls = new Utils.G1Point[](5);\n        ipProof.rs = new Utils.G1Point[](5);\n        for (uint256 i = 0; i < 5; i++) { // 2^5 = 32.\n            ipProof.ls[i] = Utils.G1Point(Utils.slice(arr, 608 + i * 64), Utils.slice(arr, 640 + i * 64));\n            ipProof.rs[i] = Utils.G1Point(Utils.slice(arr, 608 + (5 + i) * 64), Utils.slice(arr, 640 + (5 + i) * 64));\n        }\n        ipProof.a = uint256(Utils.slice(arr, 608 + 5 * 128));\n        ipProof.b = uint256(Utils.slice(arr, 640 + 5 * 128));\n        proof.ipProof = ipProof;\n\n        return proof;\n    }\n}\n",
  "sourcePath": "/Users/benediamond/anonymous-zether/packages/protocol/contracts/BurnVerifier.sol",
  "compiler": {
    "name": "solc",
    "version": "0.5.4+commit.9549d8ff.Emscripten.clang"
  },
  "schemaVersion": "3.0.19",
  "updatedAt": "2020-01-15T21:52:55.130Z",
  "devdoc": {
    "methods": {}
  },
  "userdoc": {
    "methods": {}
  }
}