{
  "contractName": "BurnVerifier",
  "abi": [
    {
      "inputs": [
        {
          "name": "_ip",
          "type": "address"
        }
      ],
      "payable": false,
      "stateMutability": "nonpayable",
      "type": "constructor"
    },
    {
      "constant": true,
      "inputs": [
        {
          "name": "CLn",
          "type": "bytes32[2]"
        },
        {
          "name": "CRn",
          "type": "bytes32[2]"
        },
        {
          "name": "y",
          "type": "bytes32[2]"
        },
        {
          "name": "bTransfer",
          "type": "uint256"
        },
        {
          "name": "epoch",
          "type": "uint256"
        },
        {
          "name": "u",
          "type": "bytes32[2]"
        },
        {
          "name": "sender",
          "type": "address"
        },
        {
          "name": "proof",
          "type": "bytes"
        }
      ],
      "name": "verifyBurn",
      "outputs": [
        {
          "name": "",
          "type": "bool"
        }
      ],
      "payable": false,
      "stateMutability": "view",
      "type": "function"
    }
  ],
  "bytecode": "0x60806040523480156200001157600080fd5b5060405160208062002a59833981018060405262000033919081019062000090565b806000806101000a81548173ffffffffffffffffffffffffffffffffffffffff021916908373ffffffffffffffffffffffffffffffffffffffff16021790555050620000f0565b6000620000888251620000bc565b905092915050565b600060208284031215620000a357600080fd5b6000620000b3848285016200007a565b91505092915050565b6000620000c982620000d0565b9050919050565b600073ffffffffffffffffffffffffffffffffffffffff82169050919050565b61295980620001006000396000f3fe608060405234801561001057600080fd5b5060043610610048576000357c0100000000000000000000000000000000000000000000000000000000900480636e1a999e1461004d575b600080fd5b6100676004803603610062919081019061208b565b61007d565b604051610074919061256a565b60405180910390f35b6000610087611bfb565b60408051908101604052808b60006002811015156100a157fe5b60200201516001900481526020018b60016002811015156100be57fe5b602002015160019004815250816000018190525060408051908101604052808a60006002811015156100ec57fe5b60200201516001900481526020018a600160028110151561010957fe5b6020020151600190048152508160200181905250604080519081016040528089600060028110151561013757fe5b602002015160019004815260200189600160028110151561015457fe5b60200201516001900481525081604001819052508681606001818152505085816080018181525050604080519081016040528086600060028110151561019657fe5b60200201516001900481526020018660016002811015156101b357fe5b6020020151600190048152508160c00181905250838160a0019073ffffffffffffffffffffffffffffffffffffffff16908173ffffffffffffffffffffffffffffffffffffffff1681525050610207611c68565b6102108461022c565b905061021c8282610598565b9250505098975050505050505050565b610234611c68565b604080519081016040528061024a846000611757565b815260200161025a846020611757565b8152508160000181905250604080519081016040528061027b846040611757565b815260200161028b846060611757565b815250816020018190525060408051908101604052806102ac846080611757565b81526020016102bc8460a0611757565b815250816040018190525060408051908101604052806102dd8460c0611757565b81526020016102ed8460e0611757565b81525081606001819052506040805190810160405280604080519081016040528061031a86610100611757565b815260200161032b86610120611757565b8152508152602001604080519081016040528061034a86610140611757565b815260200161035b86610160611757565b815250815250816080018190525061037582610180611757565b8160a001818152505061038a826101a0611757565b8160c001818152505061039f826101c0611757565b8160e00181815250506103b4826101e0611757565b816101000181815250506103ca82610200611757565b816101200181815250506103e082610220611757565b816101400181815250506103f682610240611757565b81610160018181525050610408611cf5565b600560405190808252806020026020018201604052801561044357816020015b610430611d1e565b8152602001906001900390816104285790505b508160000181905250600560405190808252806020026020018201604052801561048757816020015b610474611d1e565b81526020019060019003908161046c5790505b50816020018190525060008090505b600581101561055a5760408051908101604052806104bb866040850261026001611757565b81526020016104d1866040850261028001611757565b8152508260000151828151811015156104e657fe5b906020019060200201819052506040805190810160405280610512866040856005010261026001611757565b815260200161052b866040856005010261028001611757565b81525082602001518281518110151561054057fe5b906020019060200201819052508080600101915050610496565b50610567836104e0611757565b81604001818152505061057c83610500611757565b8160600181815250508082610180018190525081915050919050565b6000806105f0846000015185602001518660400151876060015188608001518960a001516040516020016105d1969594939291906125c5565b6040516020818303038152906040528051906020012060019004611770565b90506105fa611d38565b61064582856000015186602001518760400151886060015160405160200161062695949392919061266c565b6040516020818303038152906040528051906020012060019004611770565b81600001818152505060018160200151600060208110151561066357fe5b6020020181815250506001816101000181815250506000600190505b6020811015610718576106b882600001518360200151600184036020811015156106a557fe5b60200201516117a590919063ffffffff16565b8260200151826020811015156106ca57fe5b6020020181815250506107018260200151826020811015156106e857fe5b60200201518361010001516117dc90919063ffffffff16565b82610100018181525050808060010191505061067f565b5061075081600001516040516020016107319190612628565b6040516020818303038152906040528051906020012060019004611770565b81604001818152505060206040519081016040528061077d6002846040015161181390919063ffffffff16565b81525081606001819052506107b68160400151826060015160006001811015156107a357fe5b60200201516117a590919063ffffffff16565b8160800181815250506108476107f482608001516107e664010000000085608001516117a590919063ffffffff16565b61188090919063ffffffff16565b6108396108258460600151600060018110151561080d57fe5b6020020151856040015161188090919063ffffffff16565b8461010001516117a590919063ffffffff16565b61188090919063ffffffff16565b8161010001818152505061086d8161010001518560a0015161188090919063ffffffff16565b8160e001818152505060008090505b60208110156108da576108b28160020a8360600151600060018110151561089f57fe5b60200201516117a590919063ffffffff16565b8260a00151826020811015156108c457fe5b602002018181525050808060010191505061087c565b50610918816040015185608001516040516020016108f9929190612643565b6040516020818303038152906040528051906020012060019004611770565b8160c00181815250506109a46109686109428360c001518460c001516117a590919063ffffffff16565b8660800151600160028110151561095557fe5b60200201516118c090919063ffffffff16565b6109968360c001518760800151600060028110151561098357fe5b60200201516118c090919063ffffffff16565b6118fb90919063ffffffff16565b8161012001819052506109b5611da4565b610abb6109dc6109c9876101000151611941565b88604001516118c090919063ffffffff16565b610aad8761012001516000809054906101000a900473ffffffffffffffffffffffffffffffffffffffff1673ffffffffffffffffffffffffffffffffffffffff1663e2179b8e6040518163ffffffff167c0100000000000000000000000000000000000000000000000000000000028152600401604080518083038186803b158015610a6757600080fd5b505afa158015610a7b573d6000803e3d6000fd5b505050506040513d601f19601f82011682018060405250610a9f9190810190612181565b6118c090919063ffffffff16565b6118fb90919063ffffffff16565b8160200181905250610b066040805190810160405280600681526020017f5a65746865720000000000000000000000000000000000000000000000000000815250876080015161196d565b8160400181905250610b5f610b35610b22876101000151611941565b8860c001516118c090919063ffffffff16565b610b5187610120015184604001516118c090919063ffffffff16565b6118fb90919063ffffffff16565b8160600181905250610c0d82606001516000600181101515610b7d57fe5b6020020151610bff610bbf610b96896101000151611941565b610bb18a604001518c600001516118fb90919063ffffffff16565b6118c090919063ffffffff16565b610bf1896101200151610be38b606001518d602001516118fb90919063ffffffff16565b6118c090919063ffffffff16565b6118fb90919063ffffffff16565b6118c090919063ffffffff16565b8160800181905250610e128160800151610e04876101000151610df6610c378761012001516119dd565b610de8610d0a8c60c001516000809054906101000a900473ffffffffffffffffffffffffffffffffffffffff1673ffffffffffffffffffffffffffffffffffffffff1663b8c9d3656040518163ffffffff167c0100000000000000000000000000000000000000000000000000000000028152600401604080518083038186803b158015610cc457600080fd5b505afa158015610cd8573d6000803e3d6000fd5b505050506040513d601f19601f82011682018060405250610cfc9190810190612181565b6118c090919063ffffffff16565b610dda8a60e001516000809054906101000a900473ffffffffffffffffffffffffffffffffffffffff1673ffffffffffffffffffffffffffffffffffffffff1663e2179b8e6040518163ffffffff167c0100000000000000000000000000000000000000000000000000000000028152600401604080518083038186803b158015610d9457600080fd5b505afa158015610da8573d6000803e3d6000fd5b505050506040513d601f19601f82011682018060405250610dcc9190810190612181565b6118c090919063ffffffff16565b6118fb90919063ffffffff16565b6118fb90919063ffffffff16565b6118c090919063ffffffff16565b6118fb90919063ffffffff16565b8160a00181905250610f4d610e6e610e44610e31886101000151611941565b89600001516118c090919063ffffffff16565b610e608861012001518a602001516118c090919063ffffffff16565b6118fb90919063ffffffff16565b610f3f8761014001516000809054906101000a900473ffffffffffffffffffffffffffffffffffffffff1673ffffffffffffffffffffffffffffffffffffffff1663e2179b8e6040518163ffffffff167c0100000000000000000000000000000000000000000000000000000000028152600401604080518083038186803b158015610ef957600080fd5b505afa158015610f0d573d6000803e3d6000fd5b505050506040513d601f19601f82011682018060405250610f319190810190612181565b6118c090919063ffffffff16565b6118fb90919063ffffffff16565b8160c00181905250611088610fa9610f7f610f6c886101000151611941565b88604001516118c090919063ffffffff16565b610f9b88610120015189606001516118c090919063ffffffff16565b6118fb90919063ffffffff16565b61107a8761016001516000809054906101000a900473ffffffffffffffffffffffffffffffffffffffff1673ffffffffffffffffffffffffffffffffffffffff1663b8c9d3656040518163ffffffff167c0100000000000000000000000000000000000000000000000000000000028152600401604080518083038186803b15801561103457600080fd5b505afa158015611048573d6000803e3d6000fd5b505050506040513d601f19601f8201168201806040525061106c9190810190612181565b6118c090919063ffffffff16565b6118fb90919063ffffffff16565b8160e001819052506110e58260c00151826020015183606001518460a001518560c001518660e001516040516020016110c6969594939291906126c0565b6040516020818303038152906040528051906020012060019004611770565b816000018181525050846101000151816000015114151561113b576040517f08c379a000000000000000000000000000000000000000000000000000000000815260040161113290612585565b60405180910390fd5b611143611e14565b61117a826000015160405160200161115b9190612628565b6040516020818303038152906040528051906020012060019004611770565b81608001818152505061125381608001516000809054906101000a900473ffffffffffffffffffffffffffffffffffffffff1673ffffffffffffffffffffffffffffffffffffffff1663e2179b8e6040518163ffffffff167c0100000000000000000000000000000000000000000000000000000000028152600401604080518083038186803b15801561120d57600080fd5b505afa158015611221573d6000803e3d6000fd5b505050506040513d601f19601f820116820180604052506112459190810190612181565b6118c090919063ffffffff16565b8160200181905250602060405190808252806020026020018201604052801561129657816020015b611283611d1e565b81526020019060019003908161127b5790505b50816040018190525060008090505b602081101561146f576113a36112d08560200151836020811015156112c657fe5b6020020151611a56565b6000809054906101000a900473ffffffffffffffffffffffffffffffffffffffff1673ffffffffffffffffffffffffffffffffffffffff16633844923b846040518263ffffffff167c01000000000000000000000000000000000000000000000000000000000281526004016113469190612628565b604080518083038186803b15801561135d57600080fd5b505afa158015611371573d6000803e3d6000fd5b505050506040513d601f19601f820116820180604052506113959190810190612181565b6118c090919063ffffffff16565b8260400151828151811015156113b557fe5b9060200190602002018190525061145a61144761141d8660a00151846020811015156113dd57fe5b602002015161140f88604001518960200151876020811015156113fc57fe5b60200201516117a590919063ffffffff16565b6117dc90919063ffffffff16565b84604001518481518110151561142f57fe5b906020019060200201516118c090919063ffffffff16565b83606001516118fb90919063ffffffff16565b826060018190525080806001019150506112a5565b506114ee81606001516114e06114a161148b8760400151611941565b611493611a8c565b6118c090919063ffffffff16565b6114d26114bf8860c001518c602001516118c090919063ffffffff16565b8b600001516118fb90919063ffffffff16565b6118fb90919063ffffffff16565b6118fb90919063ffffffff16565b81600001819052506115e46115d16115098860e00151611941565b6000809054906101000a900473ffffffffffffffffffffffffffffffffffffffff1673ffffffffffffffffffffffffffffffffffffffff1663b8c9d3656040518163ffffffff167c0100000000000000000000000000000000000000000000000000000000028152600401604080518083038186803b15801561158b57600080fd5b505afa15801561159f573d6000803e3d6000fd5b505050506040513d601f19601f820116820180604052506115c39190810190612181565b6118c090919063ffffffff16565b82600001516118fb90919063ffffffff16565b816000018190525061161d61160a8760a0015183602001516118c090919063ffffffff16565b82600001516118fb90919063ffffffff16565b81600001819052506000809054906101000a900473ffffffffffffffffffffffffffffffffffffffff1673ffffffffffffffffffffffffffffffffffffffff1663986ddfa98260400151836020015184600001518a610180015186608001516040518663ffffffff167c01000000000000000000000000000000000000000000000000000000000281526004016116b8959493929190612509565b60206040518083038186803b1580156116d057600080fd5b505afa1580156116e4573d6000803e3d6000fd5b505050506040513d601f19601f820116820180604052506117089190810190612158565b1515611749576040517f08c379a0000000000000000000000000000000000000000000000000000000008152600401611740906125a5565b60405180910390fd5b600194505050505092915050565b6000604051826020850101518152805191505092915050565b60007f30644e72e131a029b85045b68181585d2833e84879b9709143e1f593f00000018281151561179d57fe5b069050919050565b60007f30644e72e131a029b85045b68181585d2833e84879b9709143e1f593f00000018015156117d157fe5b828409905092915050565b60007f30644e72e131a029b85045b68181585d2833e84879b9709143e1f593f000000180151561180857fe5b828408905092915050565b6000807f30644e72e131a029b85045b68181585d2833e84879b9709143e1f593f0000001905060405160208152602080820152602060408201528460608201528360808201528160a082015260208160c08360055afa151561187457600080fd5b80519250505092915050565b6000818310156118b45782827f30644e72e131a029b85045b68181585d2833e84879b9709143e1f593f000000103016118b8565b8183035b905092915050565b6118c8611e57565b604051835181526020840151602082015282604082015260408260608360075afa15156118f457600080fd5b5092915050565b611903611e57565b6040518351815260208401516020820152825160408201526020830151606082015260408260808360065afa151561193a57600080fd5b5092915050565b6000817f30644e72e131a029b85045b68181585d2833e84879b9709143e1f593f0000001039050919050565b611975611e57565b6119d57f30644e72e131a029b85045b68181585d97816a916871ca8d3c208c16d87cfd4784846040516020016119ac9291906124e1565b60405160208183030381529060405280519060200120600190048115156119cf57fe5b06611aee565b905092915050565b6119e5611e57565b6040805190810160405280836000015181526020017f30644e72e131a029b85045b68181585d97816a916871ca8d3c208c16d87cfd478460200151811515611a2957fe5b067f30644e72e131a029b85045b68181585d97816a916871ca8d3c208c16d87cfd47038152509050919050565b6000611a858260027f30644e72e131a029b85045b68181585d2833e84879b9709143e1f593f000000103611813565b9050919050565b611a94611e57565b60408051908101604052807f2257118d30fe5064dda298b2fac15cf96fd51f0e7e3df342d0aed40b8d7bb15181526020017f0d4250e7509c99370e6b15ebfe4f1aa5e65a691133357901aa4b0641f96c80a8815250905090565b611af6611e57565b60005b600115611b715760006003611b0f856003611b8e565b019050611b4b81600460017f30644e72e131a029b85045b68181585d97816a916871ca8d3c208c16d87cfd4701811515611b4557fe5b04611b8e565b915080611b59836002611b8e565b1415611b655750611b71565b60018401935050611af9565b604080519081016040528084815260200182815250915050919050565b6000807f30644e72e131a029b85045b68181585d97816a916871ca8d3c208c16d87cfd47905060405160208152602080820152602060408201528460608201528360808201528160a082015260208160c08360055afa1515611bef57600080fd5b80519250505092915050565b61016060405190810160405280611c10611d1e565b8152602001611c1d611d1e565b8152602001611c2a611d1e565b81526020016000815260200160008152602001600073ffffffffffffffffffffffffffffffffffffffff168152602001611c62611d1e565b81525090565b6102e060405190810160405280611c7d611d1e565b8152602001611c8a611d1e565b8152602001611c97611d1e565b8152602001611ca4611d1e565b8152602001611cb1611e71565b815260200160008152602001600081526020016000815260200160008152602001600081526020016000815260200160008152602001611cef611e9f565b81525090565b608060405190810160405280606081526020016060815260200160008152602001600081525090565b604080519081016040528060008152602001600081525090565b6109206040519081016040528060008152602001611d54611ec8565b815260200160008152602001611d68611eec565b815260200160008152602001611d7c611ec8565b8152602001600081526020016000815260200160008152602001611d9e611d1e565b81525090565b6101e06040519081016040528060008152602001611dc0611d1e565b8152602001611dcd611d1e565b8152602001611dda611d1e565b8152602001611de7611d1e565b8152602001611df4611d1e565b8152602001611e01611d1e565b8152602001611e0e611d1e565b81525090565b61010060405190810160405280611e29611d1e565b8152602001611e36611d1e565b815260200160608152602001611e4a611d1e565b8152602001600081525090565b604080519081016040528060008152602001600081525090565b6080604051908101604052806002905b611e89611d1e565b815260200190600190039081611e815790505090565b608060405190810160405280606081526020016060815260200160008152602001600081525090565b61040060405190810160405280602090602082028038833980820191505090505090565b602060405190810160405280600190602082028038833980820191505090505090565b6000611f1b8235612881565b905092915050565b600082601f8301121515611f3657600080fd5b6002611f49611f4482612750565b612723565b91508183856020840282011115611f5f57600080fd5b60005b83811015611f8f5781611f758882611fad565b845260208401935060208301925050600181019050611f62565b5050505092915050565b6000611fa58251612893565b905092915050565b6000611fb9823561289f565b905092915050565b600082601f8301121515611fd457600080fd5b8135611fe7611fe282612772565b612723565b9150808252602083016020830185838301111561200357600080fd5b61200e8382846128d3565b50505092915050565b60006040828403121561202957600080fd5b6120336040612723565b9050600061204384828501612077565b600083015250602061205784828501612077565b60208301525092915050565b600061206f82356128c9565b905092915050565b600061208382516128c9565b905092915050565b600080600080600080600080610180898b0312156120a857600080fd5b60006120b68b828c01611f23565b98505060406120c78b828c01611f23565b97505060806120d88b828c01611f23565b96505060c06120e98b828c01612063565b95505060e06120fa8b828c01612063565b94505061010061210c8b828c01611f23565b93505061014061211e8b828c01611f0f565b92505061016089013567ffffffffffffffff81111561213c57600080fd5b6121488b828c01611fc1565b9150509295985092959890939650565b60006020828403121561216a57600080fd5b600061217884828501611f99565b91505092915050565b60006040828403121561219357600080fd5b60006121a184828501612017565b91505092915050565b60006121b683836123e4565b60408301905092915050565b6121cb81612839565b82525050565b6121da816127b5565b6121e481846127f0565b92506121ef8261279e565b60005b8281101561221d576122058583516121aa565b9450612210826127d6565b91506001810190506121f2565b5050505050565b600061222f826127c0565b61223981856127fb565b9350612244836127a8565b60005b828110156122725761225a8683516121aa565b9550612265826127e3565b9150600181019050612247565b50849250505092915050565b6000612289826127c0565b612293818561280c565b935061229e836127a8565b60005b828110156122cc576122b48683516121aa565b95506122bf826127e3565b91506001810190506122a1565b50849250505092915050565b6122e18161284b565b82525050565b60006122f2826127cb565b6122fc818561282e565b935061230c8185602086016128e2565b80840191505092915050565b6000612325602a8361281d565b91507f5369676d612070726f746f636f6c206368616c6c656e676520657175616c697460008301527f79206661696c7572652e000000000000000000000000000000000000000000006020830152604082019050919050565b600061238b60288361281d565b91507f496e6e65722070726f647563742070726f6f6620766572696669636174696f6e60008301527f206661696c65642e0000000000000000000000000000000000000000000000006020830152604082019050919050565b6040820160008201516123fa60008501826124ac565b50602082015161240d60208501826124ac565b50505050565b60408201600082015161242960008501826124ac565b50602082015161243c60208501826124ac565b50505050565b6000608083016000830151848203600086015261245f8282612224565b915050602083015184820360208601526124798282612224565b915050604083015161248e60408601826124ac565b5060608301516124a160608601826124ac565b508091505092915050565b6124b581612877565b82525050565b6124c481612877565b82525050565b6124db6124d682612877565b612915565b82525050565b60006124ed82856122e7565b91506124f982846124ca565b6020820191508190509392505050565b600060e0820190508181036000830152612523818861227e565b90506125326020830187612413565b61253f6060830186612413565b81810360a08301526125518185612442565b905061256060c08301846124bb565b9695505050505050565b600060208201905061257f60008301846122d8565b92915050565b6000602082019050818103600083015261259e81612318565b9050919050565b600060208201905081810360008301526125be8161237e565b9050919050565b6000610120820190506125db6000830189612413565b6125e86040830188612413565b6125f56080830187612413565b61260260c08301866124bb565b61260f60e08301856124bb565b61261d6101008301846121c2565b979650505050505050565b600060208201905061263d60008301846124bb565b92915050565b600060a08201905061265860008301856124bb565b61266560208301846121d1565b9392505050565b60006101208201905061268260008301886124bb565b61268f6020830187612413565b61269c6060830186612413565b6126a960a0830185612413565b6126b660e0830184612413565b9695505050505050565b6000610160820190506126d660008301896124bb565b6126e36020830188612413565b6126f06060830187612413565b6126fd60a0830186612413565b61270a60e0830185612413565b612718610120830184612413565b979650505050505050565b6000604051905081810181811067ffffffffffffffff8211171561274657600080fd5b8060405250919050565b600067ffffffffffffffff82111561276757600080fd5b602082029050919050565b600067ffffffffffffffff82111561278957600080fd5b601f19601f8301169050602081019050919050565b6000819050919050565b6000602082019050919050565b600060029050919050565b600081519050919050565b600081519050919050565b6000602082019050919050565b6000602082019050919050565b600081905092915050565b600082825260208201905092915050565b600082825260208201905092915050565b600082825260208201905092915050565b600081905092915050565b600061284482612857565b9050919050565b60008115159050919050565b600073ffffffffffffffffffffffffffffffffffffffff82169050919050565b6000819050919050565b600061288c826128a9565b9050919050565b60008115159050919050565b6000819050919050565b600073ffffffffffffffffffffffffffffffffffffffff82169050919050565b6000819050919050565b82818337600083830152505050565b60005b838110156129005780820151818401526020810190506128e5565b8381111561290f576000848401525b50505050565b600081905091905056fea265627a7a723058206f0791992c0767950fb215a6145c0eae6a9e33816f36a509c745093bda1de4966c6578706572696d656e74616cf50037",
  "source": "pragma solidity 0.5.4;\npragma experimental ABIEncoderV2;\n\nimport \"./Utils.sol\";\nimport \"./InnerProductVerifier.sol\";\n\ncontract BurnVerifier {\n    using Utils for uint256;\n    using Utils for Utils.G1Point;\n\n    uint256 constant FIELD_ORDER = 21888242871839275222246405745257275088696311157297823662689037894645226208583;\n\n    InnerProductVerifier ip;\n\n    struct BurnStatement {\n        Utils.G1Point CLn;\n        Utils.G1Point CRn;\n        Utils.G1Point y;\n        uint256 bTransfer;\n        uint256 epoch; // or uint8?\n        address sender;\n        Utils.G1Point u;\n    }\n\n    struct BurnProof {\n        Utils.G1Point BA;\n        Utils.G1Point BS;\n\n        Utils.G1Point CLnPrime;\n        Utils.G1Point CRnPrime;\n\n        Utils.G1Point[2] tCommits;\n        uint256 tHat;\n        uint256 tauX;\n        uint256 mu;\n\n        uint256 c;\n        uint256 s_sk;\n        uint256 s_vDiff;\n        uint256 s_nuDiff;\n\n        InnerProductVerifier.InnerProductProof ipProof;\n    }\n\n    constructor(address _ip) public {\n        ip = InnerProductVerifier(_ip);\n    }\n\n    function verifyBurn(bytes32[2] memory CLn, bytes32[2] memory CRn, bytes32[2] memory y, uint256 bTransfer, uint256 epoch, bytes32[2] memory u, address sender, bytes memory proof) public view returns (bool) {\n        BurnStatement memory statement; // WARNING: if this is called directly in the console,\n        // and your strings are less than 64 characters, they will be padded on the right, not the left. should hopefully not be an issue,\n        // as this will typically be called simply by the other contract. still though, beware\n        statement.CLn = Utils.G1Point(uint256(CLn[0]), uint256(CLn[1]));\n        statement.CRn = Utils.G1Point(uint256(CRn[0]), uint256(CRn[1]));\n        statement.y = Utils.G1Point(uint256(y[0]), uint256(y[1]));\n        statement.bTransfer = bTransfer;\n        statement.epoch = epoch;\n        statement.u = Utils.G1Point(uint256(u[0]), uint256(u[1]));\n        statement.sender = sender;\n        BurnProof memory burnProof = unserialize(proof);\n        return verify(statement, burnProof);\n    }\n\n    struct BurnAuxiliaries {\n        uint256 y;\n        uint256[32] ys;\n        uint256 z;\n        uint256[1] zs; // silly. just to match zether.\n        uint256 zSum;\n        uint256[32] twoTimesZSquared;\n        uint256 x;\n        uint256 t;\n        uint256 k;\n        Utils.G1Point tEval;\n    }\n\n    struct SigmaAuxiliaries {\n        uint256 c;\n        Utils.G1Point A_y;\n        Utils.G1Point gEpoch;\n        Utils.G1Point A_u;\n        Utils.G1Point c_commit;\n        Utils.G1Point A_t;\n        Utils.G1Point A_CLn;\n        Utils.G1Point A_CLnPrime;\n    }\n\n    struct IPAuxiliaries {\n        Utils.G1Point P;\n        Utils.G1Point u_x;\n        Utils.G1Point[] hPrimes;\n        Utils.G1Point hPrimeSum;\n        uint256 o;\n    }\n\n    function gSum() internal pure returns (Utils.G1Point memory) {\n        return Utils.G1Point(0x2257118d30fe5064dda298b2fac15cf96fd51f0e7e3df342d0aed40b8d7bb151, 0x0d4250e7509c99370e6b15ebfe4f1aa5e65a691133357901aa4b0641f96c80a8);\n    }\n\n    function verify(BurnStatement memory statement, BurnProof memory proof) internal view returns (bool) {\n        uint256 statementHash = uint256(keccak256(abi.encode(statement.CLn, statement.CRn, statement.y, statement.bTransfer, statement.epoch, statement.sender))).mod(); // stacktoodeep?\n\n        BurnAuxiliaries memory burnAuxiliaries;\n        burnAuxiliaries.y = uint256(keccak256(abi.encode(statementHash, proof.BA, proof.BS, proof.CLnPrime, proof.CRnPrime))).mod();\n        burnAuxiliaries.ys[0] = 1;\n        burnAuxiliaries.k = 1;\n        for (uint256 i = 1; i < 32; i++) {\n            burnAuxiliaries.ys[i] = burnAuxiliaries.ys[i - 1].mul(burnAuxiliaries.y);\n            burnAuxiliaries.k = burnAuxiliaries.k.add(burnAuxiliaries.ys[i]);\n        }\n        burnAuxiliaries.z = uint256(keccak256(abi.encode(burnAuxiliaries.y))).mod();\n        burnAuxiliaries.zs = [burnAuxiliaries.z.exp(2)];\n        burnAuxiliaries.zSum = burnAuxiliaries.zs[0].mul(burnAuxiliaries.z); // trivial sum\n        burnAuxiliaries.k = burnAuxiliaries.k.mul(burnAuxiliaries.z.sub(burnAuxiliaries.zs[0])).sub(burnAuxiliaries.zSum.mul(2 ** 32).sub(burnAuxiliaries.zSum));\n        burnAuxiliaries.t = proof.tHat.sub(burnAuxiliaries.k);\n        for (uint256 i = 0; i < 32; i++) {\n            burnAuxiliaries.twoTimesZSquared[i] = burnAuxiliaries.zs[0].mul(2 ** i);\n        }\n\n        burnAuxiliaries.x = uint256(keccak256(abi.encode(burnAuxiliaries.z, proof.tCommits))).mod();\n        burnAuxiliaries.tEval = proof.tCommits[0].mul(burnAuxiliaries.x).add(proof.tCommits[1].mul(burnAuxiliaries.x.mul(burnAuxiliaries.x))); // replace with \"commit\"?\n\n        SigmaAuxiliaries memory sigmaAuxiliaries;\n        sigmaAuxiliaries.A_y = ip.g().mul(proof.s_sk).add(statement.y.mul(proof.c.neg()));\n        sigmaAuxiliaries.gEpoch = Utils.mapInto(\"Zether\", statement.epoch);\n        sigmaAuxiliaries.A_u = sigmaAuxiliaries.gEpoch.mul(proof.s_sk).add(statement.u.mul(proof.c.neg()));\n        sigmaAuxiliaries.c_commit = statement.CRn.add(proof.CRnPrime).mul(proof.s_sk).add(statement.CLn.add(proof.CLnPrime).mul(proof.c.neg())).mul(burnAuxiliaries.zs[0]);\n        sigmaAuxiliaries.A_t = ip.g().mul(burnAuxiliaries.t).add(ip.h().mul(proof.tauX)).add(burnAuxiliaries.tEval.neg()).mul(proof.c).add(sigmaAuxiliaries.c_commit);\n        sigmaAuxiliaries.A_CLn = ip.g().mul(proof.s_vDiff).add(statement.CRn.mul(proof.s_sk).add(statement.CLn.mul(proof.c.neg())));\n        sigmaAuxiliaries.A_CLnPrime = ip.h().mul(proof.s_nuDiff).add(proof.CRnPrime.mul(proof.s_sk).add(proof.CLnPrime.mul(proof.c.neg())));\n\n        sigmaAuxiliaries.c = uint256(keccak256(abi.encode(burnAuxiliaries.x, sigmaAuxiliaries.A_y, sigmaAuxiliaries.A_u, sigmaAuxiliaries.A_t, sigmaAuxiliaries.A_CLn, sigmaAuxiliaries.A_CLnPrime))).mod();\n        require(sigmaAuxiliaries.c == proof.c, \"Sigma protocol challenge equality failure.\");\n\n        IPAuxiliaries memory ipAuxiliaries;\n        ipAuxiliaries.o = uint256(keccak256(abi.encode(sigmaAuxiliaries.c))).mod();\n        ipAuxiliaries.u_x = ip.g().mul(ipAuxiliaries.o);\n        ipAuxiliaries.hPrimes = new Utils.G1Point[](32);\n        for (uint256 i = 0; i < 32; i++) {\n            ipAuxiliaries.hPrimes[i] = ip.hs(i).mul(burnAuxiliaries.ys[i].inv());\n            ipAuxiliaries.hPrimeSum = ipAuxiliaries.hPrimeSum.add(ipAuxiliaries.hPrimes[i].mul(burnAuxiliaries.ys[i].mul(burnAuxiliaries.z).add(burnAuxiliaries.twoTimesZSquared[i])));\n        }\n        ipAuxiliaries.P = proof.BA.add(proof.BS.mul(burnAuxiliaries.x)).add(gSum().mul(burnAuxiliaries.z.neg())).add(ipAuxiliaries.hPrimeSum);\n        ipAuxiliaries.P = ipAuxiliaries.P.add(ip.h().mul(proof.mu.neg()));\n        ipAuxiliaries.P = ipAuxiliaries.P.add(ipAuxiliaries.u_x.mul(proof.tHat));\n        require(ip.verifyInnerProduct(ipAuxiliaries.hPrimes, ipAuxiliaries.u_x, ipAuxiliaries.P, proof.ipProof, ipAuxiliaries.o), \"Inner product proof verification failed.\");\n\n        return true;\n    }\n\n    function unserialize(bytes memory arr) internal pure returns (BurnProof memory proof) {\n        proof.BA = Utils.G1Point(Utils.slice(arr, 0), Utils.slice(arr, 32));\n        proof.BS = Utils.G1Point(Utils.slice(arr, 64), Utils.slice(arr, 96));\n\n        proof.CLnPrime = Utils.G1Point(Utils.slice(arr, 128), Utils.slice(arr, 160));\n        proof.CRnPrime = Utils.G1Point(Utils.slice(arr, 192), Utils.slice(arr, 224));\n\n        proof.tCommits = [Utils.G1Point(Utils.slice(arr, 256), Utils.slice(arr, 288)), Utils.G1Point(Utils.slice(arr, 320), Utils.slice(arr, 352))];\n        proof.tHat = Utils.slice(arr, 384);\n        proof.tauX = Utils.slice(arr, 416);\n        proof.mu = Utils.slice(arr, 448);\n\n        proof.c = Utils.slice(arr, 480);\n        proof.s_sk = Utils.slice(arr, 512);\n        proof.s_vDiff = Utils.slice(arr, 544);\n        proof.s_nuDiff = Utils.slice(arr, 576);\n\n        InnerProductVerifier.InnerProductProof memory ipProof;\n        ipProof.ls = new Utils.G1Point[](5);\n        ipProof.rs = new Utils.G1Point[](5);\n        for (uint256 i = 0; i < 5; i++) { // 2^5 = 32.\n            ipProof.ls[i] = Utils.G1Point(Utils.slice(arr, 608 + i * 64), Utils.slice(arr, 640 + i * 64));\n            ipProof.rs[i] = Utils.G1Point(Utils.slice(arr, 608 + (5 + i) * 64), Utils.slice(arr, 640 + (5 + i) * 64));\n        }\n        ipProof.a = Utils.slice(arr, 608 + 5 * 128);\n        ipProof.b = Utils.slice(arr, 640 + 5 * 128);\n        proof.ipProof = ipProof;\n\n        return proof;\n    }\n}\n",
  "sourcePath": "/Users/benediamond/anonymous-zether/packages/protocol/contracts/BurnVerifier.sol",
  "schemaVersion": "3.0.19",
  "updatedAt": "2020-01-11T00:58:17.512Z",
  "devdoc": {
    "methods": {}
  },
  "userdoc": {
    "methods": {}
  }
}