{
  "contractName": "BurnVerifier",
  "abi": [
    {
      "inputs": [],
      "payable": false,
      "stateMutability": "nonpayable",
      "type": "constructor"
    },
    {
      "constant": true,
      "inputs": [
        {
          "name": "CLn",
          "type": "bytes32[2]"
        },
        {
          "name": "CRn",
          "type": "bytes32[2]"
        },
        {
          "name": "y",
          "type": "bytes32[2]"
        },
        {
          "name": "bTransfer",
          "type": "uint256"
        },
        {
          "name": "epoch",
          "type": "uint256"
        },
        {
          "name": "u",
          "type": "bytes32[2]"
        },
        {
          "name": "sender",
          "type": "address"
        },
        {
          "name": "proof",
          "type": "bytes"
        }
      ],
      "name": "verifyBurn",
      "outputs": [
        {
          "name": "",
          "type": "bool"
        }
      ],
      "payable": false,
      "stateMutability": "view",
      "type": "function"
    },
    {
      "constant": true,
      "inputs": [
        {
          "components": [
            {
              "name": "x",
              "type": "uint256"
            },
            {
              "name": "y",
              "type": "uint256"
            }
          ],
          "name": "p1",
          "type": "tuple"
        },
        {
          "components": [
            {
              "name": "x",
              "type": "uint256"
            },
            {
              "name": "y",
              "type": "uint256"
            }
          ],
          "name": "p2",
          "type": "tuple"
        }
      ],
      "name": "add",
      "outputs": [
        {
          "components": [
            {
              "name": "x",
              "type": "uint256"
            },
            {
              "name": "y",
              "type": "uint256"
            }
          ],
          "name": "r",
          "type": "tuple"
        }
      ],
      "payable": false,
      "stateMutability": "view",
      "type": "function"
    }
  ],
  "bytecode": "0x60806040526200001f60026200022b640100000000026401000000009004565b60849060206200003192919062000569565b503480156200003f57600080fd5b506200008f6040805190810160405280600181526020017f4700000000000000000000000000000000000000000000000000000000000000815250620002e0640100000000026401000000009004565b60806000820151816000015560208201518160010155905050620000f76040805190810160405280600181526020017f5600000000000000000000000000000000000000000000000000000000000000815250620002e0640100000000026401000000009004565b6082600082015181600001556020820151816001015590505060008090505b60208110156200022457620001706040805190810160405280600181526020017f47000000000000000000000000000000000000000000000000000000000000008152508262000363640100000000026401000000009004565b6000826020811015156200018057fe5b600202016000820151816000015560208201518160010155905050620001eb6040805190810160405280600181526020017f48000000000000000000000000000000000000000000000000000000000000008152508262000363640100000000026401000000009004565b604082602081101515620001fb57fe5b600202016000820151816000015560208201518160010155905050808060010191505062000116565b506200070b565b62000235620005ae565b60018160006020811015156200024757fe5b602002018181525050818160016020811015156200026157fe5b6020020181815250506000600290505b6020811015620002da57620002b48383600184036020811015156200029257fe5b6020020151620003e964010000000002620011fc179091906401000000009004565b8282602081101515620002c357fe5b602002018181525050808060010191505062000271565b50919050565b620002ea620005d2565b6200035c7f30644e72e131a029b85045b68181585d97816a916871ca8d3c208c16d87cfd478360405160200162000322919062000666565b60405160208183030381529060405280519060200120600190048115156200034657fe5b0662000421640100000000026401000000009004565b9050919050565b6200036d620005d2565b620003e17f30644e72e131a029b85045b68181585d97816a916871ca8d3c208c16d87cfd478484604051602001620003a79291906200067f565b6040516020818303038152906040528051906020012060019004811515620003cb57fe5b0662000421640100000000026401000000009004565b905092915050565b60007f30644e72e131a029b85045b68181585d2833e84879b9709143e1f593f00000018015156200041657fe5b828409905092915050565b6200042b620005d2565b60005b600115620004de576000600362000456856003620004fb640100000000026401000000009004565b019050620004a481600460017f30644e72e131a029b85045b68181585d97816a916871ca8d3c208c16d87cfd47018115156200048e57fe5b04620004fb640100000000026401000000009004565b915080620004c3836002620004fb640100000000026401000000009004565b1415620004d15750620004de565b600184019350506200042e565b604080519081016040528084815260200182815250915050919050565b6000807f30644e72e131a029b85045b68181585d97816a916871ca8d3c208c16d87cfd47905060405160208152602080820152602060408201528460608201528360808201528160a082015260208160c08360055afa15156200055d57600080fd5b80519250505092915050565b82602081019282156200059b579160200282015b828111156200059a5782518255916020019190600101906200057d565b5b509050620005aa9190620005ec565b5090565b61040060405190810160405280602090602082028038833980820191505090505090565b604080519081016040528060008152602001600081525090565b6200061191905b808211156200060d576000816000905550600101620005f3565b5090565b90565b60006200062182620006ab565b6200062d8185620006b6565b93506200063f818560208601620006cb565b80840191505092915050565b620006606200065a82620006c1565b62000701565b82525050565b600062000674828462000614565b915081905092915050565b60006200068d828562000614565b91506200069b82846200064b565b6020820191508190509392505050565b600081519050919050565b600081905092915050565b6000819050919050565b60005b83811015620006eb578082015181840152602081019050620006ce565b83811115620006fb576000848401525b50505050565b6000819050919050565b612516806200071b6000396000f3fe608060405234801561001057600080fd5b5060043610610053576000357c0100000000000000000000000000000000000000000000000000000000900480636e1a999e1461005857806382d23b8a14610088575b600080fd5b610072600480360361006d9190810190611ddc565b6100b8565b60405161007f9190612155565b60405180910390f35b6100a2600480360361009d9190810190611ea9565b610267565b6040516100af91906121b0565b60405180910390f35b60006100c261190c565b60408051908101604052808b60006002811015156100dc57fe5b60200201516001900481526020018b60016002811015156100f957fe5b602002015160019004815250816000018190525060408051908101604052808a600060028110151561012757fe5b60200201516001900481526020018a600160028110151561014457fe5b6020020151600190048152508160200181905250604080519081016040528089600060028110151561017257fe5b602002015160019004815260200189600160028110151561018f57fe5b6020020151600190048152508160400181905250868160600181815250508581608001818152505060408051908101604052808660006002811015156101d157fe5b60200201516001900481526020018660016002811015156101ee57fe5b6020020151600190048152508160c00181905250838160a0019073ffffffffffffffffffffffffffffffffffffffff16908173ffffffffffffffffffffffffffffffffffffffff1681525050610242611979565b61024b846102ad565b90506102578282610510565b9250505098975050505050505050565b61026f6119dd565b6040518351815260208401516020820152825160408201526020830151606082015260408260808360065afa15156102a657600080fd5b5092915050565b6102b5611979565b60408051908101604052806102cb846000611111565b81526020016102db846020611111565b815250816000018190525060408051908101604052806102fc846040611111565b815260200161030c846060611111565b815250816020018190525060408051908101604052806040805190810160405280610338866080611111565b81526020016103488660a0611111565b815250815260200160408051908101604052806103668660c0611111565b81526020016103768660e0611111565b815250815250816040018190525061039082610100611111565b8160a00181815250506103a582610120611111565b8160600181815250506103ba82610140611111565b8160800181815250506103cb6119f7565b6103d783610160611111565b8160000181815250506103ec83610180611111565b816020018181525050808260c00181905250610406611a11565b60008090505b60058110156104c657604080519081016040528061043187604085026101a001611111565b815260200161044787604085026101c001611111565b81525082600001518260058110151561045c57fe5b6020020181905250604080519081016040528061048387604085600501026101a001611111565b815260200161049c87604085600501026101c001611111565b8152508260200151826005811015156104b157fe5b6020020181905250808060010191505061040c565b506104d98460806005026101a001611111565b8160400181815250506104f48460806005026101c001611111565b816060018181525050808360e001819052508292505050919050565b600061051a611a47565b6105a761056c8560600151866080015187604001518860000151896020015160405160200161054d95949392919061229a565b604051602081830303815290604052805190602001206001900461112a565b846000015185602001516040516020016105889392919061220f565b604051602081830303815290604052805190602001206001900461112a565b8160000181815250506105bd816000015161115f565b81602001819052506105fc81600001516040516020016105dd91906121cb565b604051602081830303815290604052805190602001206001900461112a565b816040018181525050610620816040015182604001516111fc90919063ffffffff16565b816060018181525050610644816040015182606001516111fc90919063ffffffff16565b8160800181815250506106986084602080602002604051908101604052809291908260208015610689576020028201915b815481526020019060010190808311610675575b50505050508260600151611233565b8160a001819052506106dd816040015184604001516040516020016106be9291906121e6565b604051602081830303815290604052805190602001206001900461112a565b8161012001818152505061076261071b826080015161070d602060020a85608001516111fc90919063ffffffff16565b61129a90919063ffffffff16565b6107546107398460600151856040015161129a90919063ffffffff16565b61074685602001516112da565b6111fc90919063ffffffff16565b61129a90919063ffffffff16565b8160c00181815250506107d66107948460400151600060028110151561078457fe5b6020020151836101200151611325565b6107d1856040015160016002811015156107aa57fe5b60200201516107cc8561012001518661012001516111fc90919063ffffffff16565b611325565b610267565b8160e001819052506107f98160c001518460a0015161129a90919063ffffffff16565b8161010001818152505061080b611aad565b61081c8460c0015160000151611360565b81600001818152505061087161085a6080604080519081016040529081600082015481526020016001820154815250508660c0015160200151611325565b61086c87604001518460000151611325565b610267565b81602001819052506108bc6040805190810160405280600681526020017f5a65746865720000000000000000000000000000000000000000000000000000815250866080015161138c565b81604001819052506108f46108dd82604001518660c0015160200151611325565b6108ef8760c001518460000151611325565b610267565b816060018190525061096461092b866000015161092685606001518860c00151600001516111fc90919063ffffffff16565b611325565b61095f876020015161095a61095587606001518a60c00151602001516111fc90919063ffffffff16565b611360565b611325565b610267565b8160800181905250610a38610a086109bb6080604080519081016040529081600082015481526020016001820154815250506109b68860c00151600001518761010001516111fc90919063ffffffff16565b611325565b610a036082604080519081016040529081600082015481526020016001820154815250506109fe8960c00151600001518a606001516111fc90919063ffffffff16565b611325565b610267565b610a33610a2e8460800151610a298760e001518a60c0015160000151611325565b610267565b6113fc565b610267565b8160a001819052506000610a92836101200151836020015184606001518560a001518a60a00151604051602001610a73959493929190612246565b604051602081830303815290604052805190602001206001900461112a565b90508460c001516000015181141515610ae0576040517f08c379a0000000000000000000000000000000000000000000000000000000008152600401610ad790612170565b60405180910390fd5b6000610b2f8660c00151600001518760a0015188606001518960800151604051602001610b1094939291906122ee565b604051602081830303815290604052805190602001206001900461112a565b9050610b396119dd565b610b6360806040805190810160405290816000820154815260200160018201548152505083611325565b9050610b6d611b03565b610bd36040602080602002604051908101604052809291906000905b82821015610bc5578382600202016040805190810160405290816000820154815260200160018201548152505081526020019060010190610b89565b505050508760200151611475565b9050610bdd611b32565b610bfc610bf288602001518960400151611233565b8860a001516114ec565b9050610c066119dd565b610ca4610c298b60000151610c248d602001518c6101200151611325565b610267565b610c9f610c8d6000602080602002604051908101604052809291906000905b82821015610c84578382600202016040805190810160405290816000820154815260200160018201548152505081526020019060010190610c48565b50505050611565565b610c9a8c60400151611360565b611325565b610267565b9050610cf7610cdf610cda6082604080519081016040529081600082015481526020016001820154815250508d60800151611325565b6113fc565b610cf283610ced87876115ad565b610267565b610267565b9050610d1081610d0b868d60a00151611325565b610267565b9050610d1a611a11565b8a60e001519050610d29611b56565b60008090505b6005811015610e4957610d9b88846000015183600581101515610d4e57fe5b6020020151856020015184600581101515610d6557fe5b6020020151604051602001610d7c9392919061220f565b604051602081830303815290604052805190602001206001900461112a565b9750878282600581101515610dac57fe5b6020020181815250506000610dc089611611565b9050610e39610e33610dfb866000015185600581101515610ddd57fe5b6020020151610df660028e61164790919063ffffffff16565b611325565b610e2e876020015186600581101515610e1057fe5b6020020151610e2960028761164790919063ffffffff16565b611325565b610267565b86610267565b9450508080600101915050610d2f565b50610e52611b32565b6001816000602081101515610e6357fe5b60200201818152505060008090505b6005811015610ed857610eb38382600581101515610e8c57fe5b6020020151836000602081101515610ea057fe5b60200201516111fc90919063ffffffff16565b826000602081101515610ec257fe5b6020020181815250508080600101915050610e72565b50610ee1611b79565b610efd826000602081101515610ef357fe5b6020020151611611565b826000602081101515610f0c57fe5b60200201818152505060008090505b60026020811515610f2857fe5b0481101561102b5760008090505b6020828260019060020a0201101561101f5760008160019060020a02830190508381602081101515610f6457fe5b60200201511515611013576000610fb48784600160050303600581101515610f8857fe5b60200201518885600160050303600581101515610fa157fe5b60200201516111fc90919063ffffffff16565b9050610fdb818786602081101515610fc857fe5b60200201516111fc90919063ffffffff16565b8683602081101515610fe957fe5b6020020181815250506001858360208110151561100257fe5b602002019015159081151581525050505b50806001019050610f36565b50806001019050610f1b565b506110346119dd565b61103d836116b4565b90506110476119dd565b611051848a611736565b905061105b6119dd565b6110ab61108261106f858a60400151611325565b61107d858b60600151611325565b610267565b6110a68d6110a18b606001518c604001516111fc90919063ffffffff16565b611325565b610267565b90506110b788826117a0565b15156110f8576040517f08c379a00000000000000000000000000000000000000000000000000000000081526004016110ef90612190565b60405180910390fd5b60019f5050505050505050505050505050505092915050565b6000604051826020850101518152805191505092915050565b60007f30644e72e131a029b85045b68181585d2833e84879b9709143e1f593f00000018281151561115757fe5b069050919050565b611167611b32565b600181600060208110151561117857fe5b6020020181815250508181600160208110151561119157fe5b6020020181815250506000600290505b60208110156111f6576111d28383600184036020811015156111bf57fe5b60200201516111fc90919063ffffffff16565b82826020811015156111e057fe5b60200201818152505080806001019150506111a1565b50919050565b60007f30644e72e131a029b85045b68181585d2833e84879b9709143e1f593f000000180151561122857fe5b828409905092915050565b61123b611b32565b60008090505b60208110156112935761126f83858360208110151561125c57fe5b60200201516111fc90919063ffffffff16565b828260208110151561127d57fe5b6020020181815250508080600101915050611241565b5092915050565b6000818310156112ce5782827f30644e72e131a029b85045b68181585d2833e84879b9709143e1f593f000000103016112d2565b8183035b905092915050565b600080600090505b602081101561131f5761131083826020811015156112fc57fe5b6020020151836117c890919063ffffffff16565b915080806001019150506112e2565b50919050565b61132d6119dd565b604051835181526020840151602082015282604082015260408260608360075afa151561135957600080fd5b5092915050565b6000817f30644e72e131a029b85045b68181585d2833e84879b9709143e1f593f0000001039050919050565b6113946119dd565b6113f47f30644e72e131a029b85045b68181585d97816a916871ca8d3c208c16d87cfd4784846040516020016113cb92919061212d565b60405160208183030381529060405280519060200120600190048115156113ee57fe5b066117ff565b905092915050565b6114046119dd565b6040805190810160405280836000015181526020017f30644e72e131a029b85045b68181585d97816a916871ca8d3c208c16d87cfd47846020015181151561144857fe5b067f30644e72e131a029b85045b68181585d97816a916871ca8d3c208c16d87cfd47038152509050919050565b61147d611b03565b60008090505b60208110156114e5576114c2848260208110151561149d57fe5b60200201516114bd85846020811015156114b357fe5b6020020151611611565b611325565b82826020811015156114d057fe5b60200201819052508080600101915050611483565b5092915050565b6114f4611b32565b60008090505b602081101561155e5761153a838260208110151561151457fe5b6020020151858360208110151561152757fe5b60200201516117c890919063ffffffff16565b828260208110151561154857fe5b60200201818152505080806001019150506114fa565b5092915050565b61156d6119dd565b60008090505b60208110156115a75761159882848360208110151561158e57fe5b6020020151610267565b91508080600101915050611573565b50919050565b6115b56119dd565b60008090505b602081101561160a576115fb826115f686846020811015156115d957fe5b602002015186856020811015156115ec57fe5b6020020151611325565b610267565b915080806001019150506115bb565b5092915050565b60006116408260027f30644e72e131a029b85045b68181585d2833e84879b9709143e1f593f000000103611647565b9050919050565b6000807f30644e72e131a029b85045b68181585d2833e84879b9709143e1f593f0000001905060405160208152602080820152602060408201528460608201528360808201528160a082015260208160c08360055afa15156116a857600080fd5b80519250505092915050565b6116bc6119dd565b60008090505b6020811015611730576117218261171c6000846020811015156116e157fe5b6002020160408051908101604052908160008201548152602001600182015481525050868560208110151561171257fe5b6020020151611325565b610267565b915080806001019150506116c2565b50919050565b61173e6119dd565b60008090505b60208110156117995761178a82611785858460208110151561176257fe5b6020020151878560016020030360208110151561177b57fe5b6020020151611325565b610267565b91508080600101915050611744565b5092915050565b6000816000015183600001511480156117c0575081602001518360200151145b905092915050565b60007f30644e72e131a029b85045b68181585d2833e84879b9709143e1f593f00000018015156117f457fe5b828408905092915050565b6118076119dd565b60005b600115611882576000600361182085600361189f565b01905061185c81600460017f30644e72e131a029b85045b68181585d97816a916871ca8d3c208c16d87cfd470181151561185657fe5b0461189f565b91508061186a83600261189f565b14156118765750611882565b6001840193505061180a565b604080519081016040528084815260200182815250915050919050565b6000807f30644e72e131a029b85045b68181585d97816a916871ca8d3c208c16d87cfd47905060405160208152602080820152602060408201528460608201528360808201528160a082015260208160c08360055afa151561190057600080fd5b80519250505092915050565b61016060405190810160405280611921611b9d565b815260200161192e611b9d565b815260200161193b611b9d565b81526020016000815260200160008152602001600073ffffffffffffffffffffffffffffffffffffffff168152602001611973611b9d565b81525090565b6104606040519081016040528061198e611b9d565b815260200161199b611b9d565b81526020016119a8611bb7565b81526020016000815260200160008152602001600081526020016119ca611be5565b81526020016119d7611bff565b81525090565b604080519081016040528060008152602001600081525090565b604080519081016040528060008152602001600081525090565b6102c060405190810160405280611a26611c35565b8152602001611a33611c35565b815260200160008152602001600081525090565b6109206040519081016040528060008152602001611a63611c64565b8152602001600081526020016000815260200160008152602001611a85611c64565b815260200160008152602001611a99611b9d565b815260200160008152602001600081525090565b6101606040519081016040528060008152602001611ac9611b9d565b8152602001611ad6611b9d565b8152602001611ae3611b9d565b8152602001611af0611b9d565b8152602001611afd611b9d565b81525090565b610800604051908101604052806020905b611b1c611b9d565b815260200190600190039081611b145790505090565b61040060405190810160405280602090602082028038833980820191505090505090565b60a060405190810160405280600590602082028038833980820191505090505090565b61040060405190810160405280602090602082028038833980820191505090505090565b604080519081016040528060008152602001600081525090565b6080604051908101604052806002905b611bcf611b9d565b815260200190600190039081611bc75790505090565b604080519081016040528060008152602001600081525090565b6102c060405190810160405280611c14611c35565b8152602001611c21611c35565b815260200160008152602001600081525090565b610140604051908101604052806005905b611c4e611b9d565b815260200190600190039081611c465790505090565b61040060405190810160405280602090602082028038833980820191505090505090565b6000611c94823561244a565b905092915050565b600082601f8301121515611caf57600080fd5b6002611cc2611cbd82612360565b612333565b91508183856020840282011115611cd857600080fd5b60005b83811015611d085781611cee8882611d12565b845260208401935060208301925050600181019050611cdb565b5050505092915050565b6000611d1e823561245c565b905092915050565b600082601f8301121515611d3957600080fd5b8135611d4c611d4782612382565b612333565b91508082526020830160208301858383011115611d6857600080fd5b611d73838284612490565b50505092915050565b600060408284031215611d8e57600080fd5b611d986040612333565b90506000611da884828501611dc8565b6000830152506020611dbc84828501611dc8565b60208301525092915050565b6000611dd48235612486565b905092915050565b600080600080600080600080610180898b031215611df957600080fd5b6000611e078b828c01611c9c565b9850506040611e188b828c01611c9c565b9750506080611e298b828c01611c9c565b96505060c0611e3a8b828c01611dc8565b95505060e0611e4b8b828c01611dc8565b945050610100611e5d8b828c01611c9c565b935050610140611e6f8b828c01611c88565b92505061016089013567ffffffffffffffff811115611e8d57600080fd5b611e998b828c01611d26565b9150509295985092959890939650565b60008060808385031215611ebc57600080fd5b6000611eca85828601611d7c565b9250506040611edb85828601611d7c565b9150509250929050565b6000611ef1838361209a565b60408301905092915050565b611f0681612402565b82525050565b611f15816123b8565b611f1f81846123db565b9250611f2a826123ae565b60005b82811015611f5857611f40858351611ee5565b9450611f4b826123ce565b9150600181019050611f2d565b5050505050565b611f6881612414565b82525050565b6000611f79826123c3565b611f8381856123f7565b9350611f9381856020860161249f565b80840191505092915050565b6000611fac602a836123e6565b91507f5369676d612070726f746f636f6c206368616c6c656e676520657175616c697460008301527f79206661696c7572652e000000000000000000000000000000000000000000006020830152604082019050919050565b60006120126025836123e6565b91507f496e6e65722070726f6475637420657175616c69747920636865636b2066616960008301527f6c7572652e0000000000000000000000000000000000000000000000000000006020830152604082019050919050565b60408201600082015161208160008501826120f8565b50602082015161209460208501826120f8565b50505050565b6040820160008201516120b060008501826120f8565b5060208201516120c360208501826120f8565b50505050565b6040820160008201516120df60008501826120f8565b5060208201516120f260208501826120f8565b50505050565b61210181612440565b82525050565b61211081612440565b82525050565b61212761212282612440565b6124d2565b82525050565b60006121398285611f6e565b91506121458284612116565b6020820191508190509392505050565b600060208201905061216a6000830184611f5f565b92915050565b6000602082019050818103600083015261218981611f9f565b9050919050565b600060208201905081810360008301526121a981612005565b9050919050565b60006040820190506121c5600083018461206b565b92915050565b60006020820190506121e06000830184612107565b92915050565b600060a0820190506121fb6000830185612107565b6122086020830184611f0c565b9392505050565b600060a0820190506122246000830186612107565b61223160208301856120c9565b61223e60608301846120c9565b949350505050565b60006101008201905061225c6000830188612107565b61226960208301876120c9565b61227660608301866120c9565b61228360a08301856120c9565b61229060e0830184611efd565b9695505050505050565b6000610100820190506122b06000830188612107565b6122bd6020830187612107565b6122ca60408301866120c9565b6122d760808301856120c9565b6122e460c08301846120c9565b9695505050505050565b60006080820190506123036000830187612107565b6123106020830186612107565b61231d6040830185612107565b61232a6060830184612107565b95945050505050565b6000604051905081810181811067ffffffffffffffff8211171561235657600080fd5b8060405250919050565b600067ffffffffffffffff82111561237757600080fd5b602082029050919050565b600067ffffffffffffffff82111561239957600080fd5b601f19601f8301169050602081019050919050565b6000819050919050565b600060029050919050565b600081519050919050565b6000602082019050919050565b600081905092915050565b600082825260208201905092915050565b600081905092915050565b600061240d82612420565b9050919050565b60008115159050919050565b600073ffffffffffffffffffffffffffffffffffffffff82169050919050565b6000819050919050565b600061245582612466565b9050919050565b6000819050919050565b600073ffffffffffffffffffffffffffffffffffffffff82169050919050565b6000819050919050565b82818337600083830152505050565b60005b838110156124bd5780820151818401526020810190506124a2565b838111156124cc576000848401525b50505050565b600081905091905056fea265627a7a72305820ee03ec8e940f6699588f40a044487b19dc5ea3576be0bf65e1115b4260b7bbc56c6578706572696d656e74616cf50037",
  "source": "pragma solidity 0.5.4;\npragma experimental ABIEncoderV2;\n\nimport \"./Utils.sol\";\n\ncontract BurnVerifier {\n    using Utils for uint256;\n\n    uint256 constant m = 32;\n    uint256 constant n = 5;\n    uint256 constant FIELD_ORDER = 21888242871839275222246405745257275088696311157297823662689037894645226208583;\n\n    G1Point[m] gs;\n    G1Point[m] hs;\n    G1Point g;\n    G1Point h;\n\n    uint256[m] twos = powers(2); // how much is this actually used?\n\n    struct BurnStatement {\n        G1Point balanceCommitNewL;\n        G1Point balanceCommitNewR;\n        G1Point y;\n        uint256 bTransfer;\n        uint256 epoch; // or uint8?\n        address sender;\n        G1Point u;\n    }\n\n    struct BurnProof {\n        G1Point A;\n        G1Point S;\n        G1Point[2] commits;\n        uint256 tauX;\n        uint256 mu;\n        uint256 t;\n        SigmaProof sigmaProof;\n        InnerProductProof ipProof;\n    }\n\n    struct SigmaProof {\n        uint256 c;\n        uint256 sX;\n    }\n\n    struct InnerProductProof {\n        G1Point[n] ls;\n        G1Point[n] rs;\n        uint256 a;\n        uint256 b;\n    }\n\n    constructor() public {\n        g = mapInto(\"G\");\n        h = mapInto(\"V\");\n        for (uint256 i = 0; i < m; i++) {\n            gs[i] = mapInto(\"G\", i);\n            hs[i] = mapInto(\"H\", i);\n        }\n    } // will it be more expensive later on to sload these than to recompute them?\n\n    function verifyBurn(bytes32[2] memory CLn, bytes32[2] memory CRn, bytes32[2] memory y, uint256 bTransfer, uint256 epoch, bytes32[2] memory u, address sender, bytes memory proof) view public returns (bool) {\n        BurnStatement memory statement; // WARNING: if this is called directly in the console,\n        // and your strings are less than 64 characters, they will be padded on the right, not the left. should hopefully not be an issue,\n        // as this will typically be called simply by the other contract, which will get its arguments using precompiles. still though, beware\n        statement.balanceCommitNewL = G1Point(uint256(CLn[0]), uint256(CLn[1]));\n        statement.balanceCommitNewR = G1Point(uint256(CRn[0]), uint256(CRn[1]));\n        statement.y = G1Point(uint256(y[0]), uint256(y[1]));\n        statement.bTransfer = bTransfer;\n        statement.epoch = epoch;\n        statement.u = G1Point(uint256(u[0]), uint256(u[1]));\n        statement.sender = sender;\n        BurnProof memory burnProof = unserialize(proof);\n        return verify(statement, burnProof);\n    }\n\n    struct BurnAuxiliaries {\n        uint256 y;\n        uint256[m] ys;\n        uint256 z;\n        uint256 zSquared;\n        uint256 zCubed;\n        uint256[m] twoTimesZSquared;\n        uint256 k;\n        G1Point tEval;\n        uint256 t;\n        uint256 x;\n    }\n\n    struct SigmaAuxiliaries {\n        uint256 minusC;\n        G1Point Ay;\n        G1Point gEpoch;\n        G1Point Au;\n        G1Point cCommit;\n        G1Point At;\n    }\n\n    function verify(BurnStatement memory statement, BurnProof memory proof) view internal returns (bool) {\n        BurnAuxiliaries memory burnAuxiliaries;\n        burnAuxiliaries.y = uint256(keccak256(abi.encode(uint256(keccak256(abi.encode(statement.bTransfer, statement.epoch, statement.y, statement.balanceCommitNewL, statement.balanceCommitNewR))).mod(), proof.A, proof.S))).mod();\n        burnAuxiliaries.ys = powers(burnAuxiliaries.y);\n        burnAuxiliaries.z = uint256(keccak256(abi.encode(burnAuxiliaries.y))).mod();\n        burnAuxiliaries.zSquared = burnAuxiliaries.z.mul(burnAuxiliaries.z);\n        burnAuxiliaries.zCubed = burnAuxiliaries.zSquared.mul(burnAuxiliaries.z);\n        burnAuxiliaries.twoTimesZSquared = times(twos, burnAuxiliaries.zSquared);\n        burnAuxiliaries.x = uint256(keccak256(abi.encode(burnAuxiliaries.z, proof.commits))).mod();\n\n        // begin verification of sigma proof. is it worth passing to a different method?\n        burnAuxiliaries.k = sumScalars(burnAuxiliaries.ys).mul(burnAuxiliaries.z.sub(burnAuxiliaries.zSquared)).sub(burnAuxiliaries.zCubed.mul(2 ** m).sub(burnAuxiliaries.zCubed)); // really care about t - k\n        burnAuxiliaries.tEval = add(mul(proof.commits[0], burnAuxiliaries.x), mul(proof.commits[1], burnAuxiliaries.x.mul(burnAuxiliaries.x))); // replace with \"commit\"?\n        burnAuxiliaries.t = proof.t.sub(burnAuxiliaries.k);\n\n        SigmaAuxiliaries memory sigmaAuxiliaries;\n        sigmaAuxiliaries.minusC = proof.sigmaProof.c.neg();\n        sigmaAuxiliaries.Ay = add(mul(g, proof.sigmaProof.sX), mul(statement.y, sigmaAuxiliaries.minusC));\n        sigmaAuxiliaries.gEpoch = mapInto(\"Zether\", statement.epoch);\n        sigmaAuxiliaries.Au = add(mul(sigmaAuxiliaries.gEpoch, proof.sigmaProof.sX), mul(statement.u, sigmaAuxiliaries.minusC));\n        sigmaAuxiliaries.cCommit = add(mul(statement.balanceCommitNewL, proof.sigmaProof.c.mul(burnAuxiliaries.zSquared)), mul(statement.balanceCommitNewR, proof.sigmaProof.sX.mul(burnAuxiliaries.zSquared).neg()));\n        sigmaAuxiliaries.At = add(add(mul(g, burnAuxiliaries.t.mul(proof.sigmaProof.c)), mul(h, proof.tauX.mul(proof.sigmaProof.c))), neg(add(sigmaAuxiliaries.cCommit, mul(burnAuxiliaries.tEval, proof.sigmaProof.c))));\n\n        uint256 challenge = uint256(keccak256(abi.encode(burnAuxiliaries.x, sigmaAuxiliaries.Ay, sigmaAuxiliaries.Au, sigmaAuxiliaries.At, statement.sender))).mod();\n        require(challenge == proof.sigmaProof.c, \"Sigma protocol challenge equality failure.\");\n\n        uint256 uChallenge = uint256(keccak256(abi.encode(proof.sigmaProof.c, proof.t, proof.tauX, proof.mu))).mod();\n        G1Point memory u = mul(g, uChallenge);\n        G1Point[m] memory hPrimes = hadamardInv(hs, burnAuxiliaries.ys);\n        uint256[m] memory hExp = addVectors(times(burnAuxiliaries.ys, burnAuxiliaries.z), burnAuxiliaries.twoTimesZSquared);\n        G1Point memory P = add(add(proof.A, mul(proof.S, burnAuxiliaries.x)), mul(sumPoints(gs), burnAuxiliaries.z.neg()));\n        P = add(neg(mul(h, proof.mu)), add(P, commit(hPrimes, hExp)));\n        P = add(P, mul(u, proof.t));\n\n\n        // begin inner product verification\n        InnerProductProof memory ipProof = proof.ipProof;\n        uint256[n] memory challenges;\n        for (uint256 i = 0; i < n; i++) {\n            uChallenge = uint256(keccak256(abi.encode(uChallenge, ipProof.ls[i], ipProof.rs[i]))).mod();\n            challenges[i] = uChallenge;\n            uint256 xInv = uChallenge.inv();\n            P = add(add(mul(ipProof.ls[i], uChallenge.exp(2)), mul(ipProof.rs[i], xInv.exp(2))), P);\n        }\n\n        uint256[m] memory otherExponents;\n        otherExponents[0] = 1;\n        for (uint256 i = 0; i < n; i++) {\n            otherExponents[0] = otherExponents[0].mul(challenges[i]);\n        }\n        bool[m] memory bitSet;\n        otherExponents[0] = otherExponents[0].inv();\n        for (uint256 i = 0; i < m/2; ++i) {\n            for (uint256 j = 0; (1 << j) + i < m; ++j) {\n                uint256 i1 = i + (1 << j);\n                if (!bitSet[i1]) {\n                    uint256 temp = challenges[n - 1 - j].mul(challenges[n - 1 - j]);\n                    otherExponents[i1] = otherExponents[i].mul(temp);\n                    bitSet[i1] = true;\n                }\n            }\n        }\n\n        G1Point memory gTemp = multiExpGs(otherExponents);\n        G1Point memory hTemp = multiExpHsInversed(otherExponents, hPrimes);\n        G1Point memory cProof = add(add(mul(gTemp, ipProof.a), mul(hTemp, ipProof.b)), mul(u, ipProof.a.mul(ipProof.b)));\n        require(eq(P, cProof), \"Inner product equality check failure.\");\n        return true;\n    }\n\n    function multiExpGs(uint256[m] memory ss) internal view returns (G1Point memory result) {\n        for (uint256 i = 0; i < m; i++) {\n            result = add(result, mul(gs[i], ss[i]));\n        }\n    }\n\n    function multiExpHsInversed(uint256[m] memory ss, G1Point[m] memory hs) internal view returns (G1Point memory result) {\n        for (uint256 i = 0; i < m; i++) {\n            result = add(result, mul(hs[i], ss[m - 1 - i]));\n        }\n    }\n\n    // begin util functions\n    function unserialize(bytes memory arr) internal pure returns (BurnProof memory proof) {\n        proof.A = G1Point(slice(arr, 0), slice(arr, 32));\n        proof.S = G1Point(slice(arr, 64), slice(arr, 96));\n        proof.commits = [G1Point(slice(arr, 128), slice(arr, 160)), G1Point(slice(arr, 192), slice(arr, 224))];\n        proof.t = slice(arr, 256);\n        proof.tauX = slice(arr, 288);\n        proof.mu = slice(arr, 320);\n\n        SigmaProof memory sigmaProof;\n        sigmaProof.c = slice(arr, 352);\n        sigmaProof.sX = slice(arr, 384);\n        proof.sigmaProof = sigmaProof;\n\n        InnerProductProof memory ipProof;\n        for (uint256 i = 0; i < n; i++) {\n            ipProof.ls[i] = G1Point(slice(arr, 416 + i * 64), slice(arr, 448 + i * 64));\n            ipProof.rs[i] = G1Point(slice(arr, 416 + (n + i) * 64), slice(arr, 448 + (n + i) * 64));\n        }\n        ipProof.a = slice(arr, 416 + n * 128);\n        ipProof.b = slice(arr, 448 + n * 128);\n        proof.ipProof = ipProof;\n        return proof;\n    }\n\n    function addVectors(uint256[m] memory a, uint256[m] memory b) internal pure returns (uint256[m] memory result) {\n        for (uint256 i = 0; i < m; i++) {\n            result[i] = a[i].add(b[i]);\n        }\n    }\n\n    function hadamardInv(G1Point[m] memory ps, uint256[m] memory ss) internal view returns (G1Point[m] memory result) {\n        for (uint256 i = 0; i < m; i++) {\n            result[i] = mul(ps[i], ss[i].inv());\n        }\n    }\n\n    function sumScalars(uint256[m] memory ys) internal pure returns (uint256 result) {\n        for (uint256 i = 0; i < m; i++) {\n            result = result.add(ys[i]);\n        }\n    }\n\n    function sumPoints(G1Point[m] memory ps) internal view returns (G1Point memory sum) {\n        for (uint256 i = 0; i < m; i++) {\n            sum = add(sum, ps[i]);\n        }\n    }\n\n    function commit(G1Point[m] memory ps, uint256[m] memory ss) internal view returns (G1Point memory result) {\n        for (uint256 i = 0; i < m; i++) {\n            result = add(result, mul(ps[i], ss[i]));\n        }\n    }\n\n    function powers(uint256 base) internal pure returns (uint256[m] memory powers) {\n        powers[0] = 1;\n        powers[1] = base;\n        for (uint256 i = 2; i < m; i++) {\n            powers[i] = powers[i - 1].mul(base);\n        }\n    }\n\n    function times(uint256[m] memory v, uint256 x) internal pure returns (uint256[m] memory result) {\n        for (uint256 i = 0; i < m; i++) {\n            result[i] = v[i].mul(x);\n        }\n    }\n\n    function slice(bytes memory input, uint256 start) internal pure returns (uint256 result) { // extracts exactly 32 bytes\n        assembly {\n            let m := mload(0x40)\n            mstore(m, mload(add(add(input, 0x20), start))) // why only 0x20?\n            result := mload(m)\n        }\n    }\n\n    struct G1Point {\n        uint256 x;\n        uint256 y;\n    }\n\n    function add(G1Point memory p1, G1Point memory p2) public view returns (G1Point memory r) {\n        assembly {\n            let m := mload(0x40)\n            mstore(m, mload(p1))\n            mstore(add(m, 0x20), mload(add(p1, 0x20)))\n            mstore(add(m, 0x40), mload(p2))\n            mstore(add(m, 0x60), mload(add(p2, 0x20)))\n            if iszero(staticcall(gas, 0x06, m, 0x80, r, 0x40)) {\n                revert(0, 0)\n            }\n        }\n    }\n\n    function mul(G1Point memory p, uint256 s) internal view returns (G1Point memory r) {\n        assembly {\n            let m := mload(0x40)\n            mstore(m, mload(p))\n            mstore(add(m, 0x20), mload(add(p, 0x20)))\n            mstore(add(m, 0x40), s)\n            if iszero(staticcall(gas, 0x07, m, 0x60, r, 0x40)) {\n                revert(0, 0)\n            }\n        }\n    }\n\n    function neg(G1Point memory p) internal pure returns (G1Point memory) {\n        return G1Point(p.x, FIELD_ORDER - (p.y % FIELD_ORDER)); // p.y should already be reduced mod P?\n    }\n\n    function eq(G1Point memory p1, G1Point memory p2) internal pure returns (bool) {\n        return p1.x == p2.x && p1.y == p2.y;\n    }\n\n    function fieldExp(uint256 base, uint256 exponent) internal view returns (uint256 output) { // warning: mod p, not q\n        uint256 order = FIELD_ORDER;\n        assembly {\n            let m := mload(0x40)\n            mstore(m, 0x20)\n            mstore(add(m, 0x20), 0x20)\n            mstore(add(m, 0x40), 0x20)\n            mstore(add(m, 0x60), base)\n            mstore(add(m, 0x80), exponent)\n            mstore(add(m, 0xa0), order)\n            if iszero(staticcall(gas, 0x05, m, 0xc0, m, 0x20)) { // staticcall or call?\n                revert(0, 0)\n            }\n            output := mload(m)\n        }\n    }\n\n    function mapInto(uint256 seed) internal view returns (G1Point memory) { // warning: function totally untested!\n        uint256 y;\n        while (true) {\n            uint256 ySquared = fieldExp(seed, 3) + 3; // addmod instead of add: waste of gas, plus function overhead cost\n            y = fieldExp(ySquared, (FIELD_ORDER + 1) / 4);\n            if (fieldExp(y, 2) == ySquared) {\n                break;\n            }\n            seed += 1;\n        }\n        return G1Point(seed, y);\n    }\n\n    function mapInto(string memory input) internal view returns (G1Point memory) { // warning: function totally untested!\n        return mapInto(uint256(keccak256(abi.encodePacked(input))) % FIELD_ORDER);\n    }\n\n    function mapInto(string memory input, uint256 i) internal view returns (G1Point memory) { // warning: function totally untested!\n        return mapInto(uint256(keccak256(abi.encodePacked(input, i))) % FIELD_ORDER);\n        // ^^^ important: i haven't tested this, i.e. whether it agrees with ProofUtils.paddedHash(input, i) (cf. also the go version)\n    }\n}\n",
  "sourcePath": "/Users/benediamond/anonymous-zether/packages/protocol/contracts/BurnVerifier.sol",
  "compiler": {
    "name": "solc",
    "version": "0.5.4+commit.9549d8ff.Emscripten.clang"
  },
  "schemaVersion": "3.0.9",
  "updatedAt": "2019-08-22T17:18:26.306Z",
  "devdoc": {
    "methods": {}
  },
  "userdoc": {
    "methods": {}
  }
}