{
  "contractName": "BurnVerifier",
  "abi": [
    {
      "inputs": [],
      "payable": false,
      "stateMutability": "nonpayable",
      "type": "constructor"
    },
    {
      "constant": true,
      "inputs": [
        {
          "name": "CLn",
          "type": "bytes32[2]"
        },
        {
          "name": "CRn",
          "type": "bytes32[2]"
        },
        {
          "name": "y",
          "type": "bytes32[2]"
        },
        {
          "name": "bTransfer",
          "type": "uint256"
        },
        {
          "name": "epoch",
          "type": "uint256"
        },
        {
          "name": "u",
          "type": "bytes32[2]"
        },
        {
          "name": "proof",
          "type": "bytes"
        }
      ],
      "name": "verifyBurn",
      "outputs": [
        {
          "name": "",
          "type": "bool"
        }
      ],
      "payable": false,
      "stateMutability": "view",
      "type": "function"
    },
    {
      "constant": true,
      "inputs": [
        {
          "components": [
            {
              "name": "x",
              "type": "uint256"
            },
            {
              "name": "y",
              "type": "uint256"
            }
          ],
          "name": "p1",
          "type": "tuple"
        },
        {
          "components": [
            {
              "name": "x",
              "type": "uint256"
            },
            {
              "name": "y",
              "type": "uint256"
            }
          ],
          "name": "p2",
          "type": "tuple"
        }
      ],
      "name": "add",
      "outputs": [
        {
          "components": [
            {
              "name": "x",
              "type": "uint256"
            },
            {
              "name": "y",
              "type": "uint256"
            }
          ],
          "name": "r",
          "type": "tuple"
        }
      ],
      "payable": false,
      "stateMutability": "view",
      "type": "function"
    }
  ],
  "bytecode": "0x60806040526200001f60026200022b640100000000026401000000009004565b60849060206200003192919062000569565b503480156200003f57600080fd5b506200008f6040805190810160405280600181526020017f4700000000000000000000000000000000000000000000000000000000000000815250620002e0640100000000026401000000009004565b60806000820151816000015560208201518160010155905050620000f76040805190810160405280600181526020017f5600000000000000000000000000000000000000000000000000000000000000815250620002e0640100000000026401000000009004565b6082600082015181600001556020820151816001015590505060008090505b60208110156200022457620001706040805190810160405280600181526020017f47000000000000000000000000000000000000000000000000000000000000008152508262000363640100000000026401000000009004565b6000826020811015156200018057fe5b600202016000820151816000015560208201518160010155905050620001eb6040805190810160405280600181526020017f48000000000000000000000000000000000000000000000000000000000000008152508262000363640100000000026401000000009004565b604082602081101515620001fb57fe5b600202016000820151816000015560208201518160010155905050808060010191505062000116565b506200070b565b62000235620005ae565b60018160006020811015156200024757fe5b602002018181525050818160016020811015156200026157fe5b6020020181815250506000600290505b6020811015620002da57620002b48383600184036020811015156200029257fe5b6020020151620003e964010000000002620011bd179091906401000000009004565b8282602081101515620002c357fe5b602002018181525050808060010191505062000271565b50919050565b620002ea620005d2565b6200035c7f30644e72e131a029b85045b68181585d97816a916871ca8d3c208c16d87cfd478360405160200162000322919062000666565b60405160208183030381529060405280519060200120600190048115156200034657fe5b0662000421640100000000026401000000009004565b9050919050565b6200036d620005d2565b620003e17f30644e72e131a029b85045b68181585d97816a916871ca8d3c208c16d87cfd478484604051602001620003a79291906200067f565b6040516020818303038152906040528051906020012060019004811515620003cb57fe5b0662000421640100000000026401000000009004565b905092915050565b60007f30644e72e131a029b85045b68181585d2833e84879b9709143e1f593f00000018015156200041657fe5b828409905092915050565b6200042b620005d2565b60005b600115620004de576000600362000456856003620004fb640100000000026401000000009004565b019050620004a481600460017f30644e72e131a029b85045b68181585d97816a916871ca8d3c208c16d87cfd47018115156200048e57fe5b04620004fb640100000000026401000000009004565b915080620004c3836002620004fb640100000000026401000000009004565b1415620004d15750620004de565b600184019350506200042e565b604080519081016040528084815260200182815250915050919050565b6000807f30644e72e131a029b85045b68181585d97816a916871ca8d3c208c16d87cfd47905060405160208152602080820152602060408201528460608201528360808201528160a082015260208160c08360055afa15156200055d57600080fd5b80519250505092915050565b82602081019282156200059b579160200282015b828111156200059a5782518255916020019190600101906200057d565b5b509050620005aa9190620005ec565b5090565b61040060405190810160405280602090602082028038833980820191505090505090565b604080519081016040528060008152602001600081525090565b6200061191905b808211156200060d576000816000905550600101620005f3565b5090565b90565b60006200062182620006ab565b6200062d8185620006b6565b93506200063f818560208601620006cb565b80840191505092915050565b620006606200065a82620006c1565b62000701565b82525050565b600062000674828462000614565b915081905092915050565b60006200068d828562000614565b91506200069b82846200064b565b6020820191508190509392505050565b600081519050919050565b600081905092915050565b6000819050919050565b60005b83811015620006eb578082015181840152602081019050620006ce565b83811115620006fb576000848401525b50505050565b6000819050919050565b612410806200071b6000396000f3fe608060405234801561001057600080fd5b5060043610610053576000357c01000000000000000000000000000000000000000000000000000000009004806382d23b8a14610058578063d79e841314610088575b600080fd5b610072600480360361006d9190810190611e25565b6100b8565b60405161007f919061211d565b60405180910390f35b6100a2600480360361009d9190810190611d6c565b6100fe565b6040516100af91906120c2565b60405180910390f35b6100c06118cd565b6040518351815260208401516020820152825160408201526020830151606082015260408260808360065afa15156100f757600080fd5b5092915050565b60006101086118e7565b60408051908101604052808a600060028110151561012257fe5b60200201516001900481526020018a600160028110151561013f57fe5b6020020151600190048152508160000181905250604080519081016040528089600060028110151561016d57fe5b602002015160019004815260200189600160028110151561018a57fe5b602002015160019004815250816020018190525060408051908101604052808860006002811015156101b857fe5b60200201516001900481526020018860016002811015156101d557fe5b60200201516001900481525081604001819052508581606001818152505084816080018181525050604080519081016040528085600060028110151561021757fe5b602002015160019004815260200185600160028110151561023457fe5b6020020151600190048152508160a00181905250610250611937565b61025984610274565b905061026582826104d7565b92505050979650505050505050565b61027c611937565b60408051908101604052806102928460006110d2565b81526020016102a28460206110d2565b815250816000018190525060408051908101604052806102c38460406110d2565b81526020016102d38460606110d2565b8152508160200181905250604080519081016040528060408051908101604052806102ff8660806110d2565b815260200161030f8660a06110d2565b8152508152602001604080519081016040528061032d8660c06110d2565b815260200161033d8660e06110d2565b8152508152508160400181905250610357826101006110d2565b8160a001818152505061036c826101206110d2565b816060018181525050610381826101406110d2565b81608001818152505061039261199b565b61039e836101606110d2565b8160000181815250506103b3836101806110d2565b816020018181525050808260c001819052506103cd6119b5565b60008090505b600581101561048d5760408051908101604052806103f887604085026101a0016110d2565b815260200161040e87604085026101c0016110d2565b81525082600001518260058110151561042357fe5b6020020181905250604080519081016040528061044a87604085600501026101a0016110d2565b815260200161046387604085600501026101c0016110d2565b81525082602001518260058110151561047857fe5b602002018190525080806001019150506103d3565b506104a08460806005026101a0016110d2565b8160400181815250506104bb8460806005026101c0016110d2565b816060018181525050808360e001819052508292505050919050565b60006104e16119eb565b61056e610533856060015186608001518760400151886000015189602001516040516020016105149594939291906121f8565b60405160208183030381529060405280519060200120600190046110eb565b8460000151856020015160405160200161054f9392919061217c565b60405160208183030381529060405280519060200120600190046110eb565b8160000181815250506105848160000151611120565b81602001819052506105c381600001516040516020016105a49190612138565b60405160208183030381529060405280519060200120600190046110eb565b8160400181815250506105e7816040015182604001516111bd90919063ffffffff16565b81606001818152505061060b816040015182606001516111bd90919063ffffffff16565b81608001818152505061065f6084602080602002604051908101604052809291908260208015610650576020028201915b81548152602001906001019080831161063c575b505050505082606001516111f4565b8160a001819052506106a481604001518460400151604051602001610685929190612153565b60405160208183030381529060405280519060200120600190046110eb565b816101200181815250506107296106e282608001516106d4602060020a85608001516111bd90919063ffffffff16565b61125b90919063ffffffff16565b61071b6107008460600151856040015161125b90919063ffffffff16565b61070d856020015161129b565b6111bd90919063ffffffff16565b61125b90919063ffffffff16565b8160c001818152505061079d61075b8460400151600060028110151561074b57fe5b60200201518361012001516112e6565b6107988560400151600160028110151561077157fe5b60200201516107938561012001518661012001516111bd90919063ffffffff16565b6112e6565b6100b8565b8160e001819052506107c08160c001518460a0015161125b90919063ffffffff16565b816101000181815250506107d2611a51565b6107e38460c0015160000151611321565b8160000181815250506108386108216080604080519081016040529081600082015481526020016001820154815250508660c00151602001516112e6565b610833876040015184600001516112e6565b6100b8565b81602001819052506108836040805190810160405280600681526020017f5a65746865720000000000000000000000000000000000000000000000000000815250866080015161134d565b81604001819052506108bb6108a482604001518660c00151602001516112e6565b6108b68760a0015184600001516112e6565b6100b8565b816060018190525061092b6108f286600001516108ed85606001518860c00151600001516111bd90919063ffffffff16565b6112e6565b610926876020015161092161091c87606001518a60c00151602001516111bd90919063ffffffff16565b611321565b6112e6565b6100b8565b81608001819052506109ff6109cf61098260806040805190810160405290816000820154815260200160018201548152505061097d8860c00151600001518761010001516111bd90919063ffffffff16565b6112e6565b6109ca6082604080519081016040529081600082015481526020016001820154815250506109c58960c00151600001518a606001516111bd90919063ffffffff16565b6112e6565b6100b8565b6109fa6109f584608001516109f08760e001518a60c00151600001516112e6565b6100b8565b6113bd565b6100b8565b8160a001819052506000610a53836101200151836020015184606001518560a00151604051602001610a3494939291906121b3565b60405160208183030381529060405280519060200120600190046110eb565b90508460c001516000015181141515610aa1576040517f08c379a0000000000000000000000000000000000000000000000000000000008152600401610a98906120dd565b60405180910390fd5b6000610af08660c00151600001518760a0015188606001518960800151604051602001610ad1949392919061224c565b60405160208183030381529060405280519060200120600190046110eb565b9050610afa6118cd565b610b24608060408051908101604052908160008201548152602001600182015481525050836112e6565b9050610b2e611aa7565b610b946040602080602002604051908101604052809291906000905b82821015610b86578382600202016040805190810160405290816000820154815260200160018201548152505081526020019060010190610b4a565b505050508760200151611436565b9050610b9e611ad6565b610bbd610bb3886020015189604001516111f4565b8860a001516114ad565b9050610bc76118cd565b610c65610bea8b60000151610be58d602001518c61012001516112e6565b6100b8565b610c60610c4e6000602080602002604051908101604052809291906000905b82821015610c45578382600202016040805190810160405290816000820154815260200160018201548152505081526020019060010190610c09565b50505050611526565b610c5b8c60400151611321565b6112e6565b6100b8565b9050610cb8610ca0610c9b6082604080519081016040529081600082015481526020016001820154815250508d608001516112e6565b6113bd565b610cb383610cae878761156e565b6100b8565b6100b8565b9050610cd181610ccc868d60a001516112e6565b6100b8565b9050610cdb6119b5565b8a60e001519050610cea611afa565b60008090505b6005811015610e0a57610d5c88846000015183600581101515610d0f57fe5b6020020151856020015184600581101515610d2657fe5b6020020151604051602001610d3d9392919061217c565b60405160208183030381529060405280519060200120600190046110eb565b9750878282600581101515610d6d57fe5b6020020181815250506000610d81896115d2565b9050610dfa610df4610dbc866000015185600581101515610d9e57fe5b6020020151610db760028e61160890919063ffffffff16565b6112e6565b610def876020015186600581101515610dd157fe5b6020020151610dea60028761160890919063ffffffff16565b6112e6565b6100b8565b866100b8565b9450508080600101915050610cf0565b50610e13611ad6565b6001816000602081101515610e2457fe5b60200201818152505060008090505b6005811015610e9957610e748382600581101515610e4d57fe5b6020020151836000602081101515610e6157fe5b60200201516111bd90919063ffffffff16565b826000602081101515610e8357fe5b6020020181815250508080600101915050610e33565b50610ea2611b1d565b610ebe826000602081101515610eb457fe5b60200201516115d2565b826000602081101515610ecd57fe5b60200201818152505060008090505b60026020811515610ee957fe5b04811015610fec5760008090505b6020828260019060020a02011015610fe05760008160019060020a02830190508381602081101515610f2557fe5b60200201511515610fd4576000610f758784600160050303600581101515610f4957fe5b60200201518885600160050303600581101515610f6257fe5b60200201516111bd90919063ffffffff16565b9050610f9c818786602081101515610f8957fe5b60200201516111bd90919063ffffffff16565b8683602081101515610faa57fe5b60200201818152505060018583602081101515610fc357fe5b602002019015159081151581525050505b50806001019050610ef7565b50806001019050610edc565b50610ff56118cd565b610ffe83611675565b90506110086118cd565b611012848a6116f7565b905061101c6118cd565b61106c611043611030858a604001516112e6565b61103e858b606001516112e6565b6100b8565b6110678d6110628b606001518c604001516111bd90919063ffffffff16565b6112e6565b6100b8565b90506110788882611761565b15156110b9576040517f08c379a00000000000000000000000000000000000000000000000000000000081526004016110b0906120fd565b60405180910390fd5b60019f5050505050505050505050505050505092915050565b6000604051826020850101518152805191505092915050565b60007f30644e72e131a029b85045b68181585d2833e84879b9709143e1f593f00000018281151561111857fe5b069050919050565b611128611ad6565b600181600060208110151561113957fe5b6020020181815250508181600160208110151561115257fe5b6020020181815250506000600290505b60208110156111b75761119383836001840360208110151561118057fe5b60200201516111bd90919063ffffffff16565b82826020811015156111a157fe5b6020020181815250508080600101915050611162565b50919050565b60007f30644e72e131a029b85045b68181585d2833e84879b9709143e1f593f00000018015156111e957fe5b828409905092915050565b6111fc611ad6565b60008090505b60208110156112545761123083858360208110151561121d57fe5b60200201516111bd90919063ffffffff16565b828260208110151561123e57fe5b6020020181815250508080600101915050611202565b5092915050565b60008183101561128f5782827f30644e72e131a029b85045b68181585d2833e84879b9709143e1f593f00000010301611293565b8183035b905092915050565b600080600090505b60208110156112e0576112d183826020811015156112bd57fe5b60200201518361178990919063ffffffff16565b915080806001019150506112a3565b50919050565b6112ee6118cd565b604051835181526020840151602082015282604082015260408260608360075afa151561131a57600080fd5b5092915050565b6000817f30644e72e131a029b85045b68181585d2833e84879b9709143e1f593f0000001039050919050565b6113556118cd565b6113b57f30644e72e131a029b85045b68181585d97816a916871ca8d3c208c16d87cfd47848460405160200161138c92919061209a565b60405160208183030381529060405280519060200120600190048115156113af57fe5b066117c0565b905092915050565b6113c56118cd565b6040805190810160405280836000015181526020017f30644e72e131a029b85045b68181585d97816a916871ca8d3c208c16d87cfd47846020015181151561140957fe5b067f30644e72e131a029b85045b68181585d97816a916871ca8d3c208c16d87cfd47038152509050919050565b61143e611aa7565b60008090505b60208110156114a657611483848260208110151561145e57fe5b602002015161147e858460208110151561147457fe5b60200201516115d2565b6112e6565b828260208110151561149157fe5b60200201819052508080600101915050611444565b5092915050565b6114b5611ad6565b60008090505b602081101561151f576114fb83826020811015156114d557fe5b602002015185836020811015156114e857fe5b602002015161178990919063ffffffff16565b828260208110151561150957fe5b60200201818152505080806001019150506114bb565b5092915050565b61152e6118cd565b60008090505b60208110156115685761155982848360208110151561154f57fe5b60200201516100b8565b91508080600101915050611534565b50919050565b6115766118cd565b60008090505b60208110156115cb576115bc826115b7868460208110151561159a57fe5b602002015186856020811015156115ad57fe5b60200201516112e6565b6100b8565b9150808060010191505061157c565b5092915050565b60006116018260027f30644e72e131a029b85045b68181585d2833e84879b9709143e1f593f000000103611608565b9050919050565b6000807f30644e72e131a029b85045b68181585d2833e84879b9709143e1f593f0000001905060405160208152602080820152602060408201528460608201528360808201528160a082015260208160c08360055afa151561166957600080fd5b80519250505092915050565b61167d6118cd565b60008090505b60208110156116f1576116e2826116dd6000846020811015156116a257fe5b600202016040805190810160405290816000820154815260200160018201548152505086856020811015156116d357fe5b60200201516112e6565b6100b8565b91508080600101915050611683565b50919050565b6116ff6118cd565b60008090505b602081101561175a5761174b82611746858460208110151561172357fe5b6020020151878560016020030360208110151561173c57fe5b60200201516112e6565b6100b8565b91508080600101915050611705565b5092915050565b600081600001518360000151148015611781575081602001518360200151145b905092915050565b60007f30644e72e131a029b85045b68181585d2833e84879b9709143e1f593f00000018015156117b557fe5b828408905092915050565b6117c86118cd565b60005b60011561184357600060036117e1856003611860565b01905061181d81600460017f30644e72e131a029b85045b68181585d97816a916871ca8d3c208c16d87cfd470181151561181757fe5b04611860565b91508061182b836002611860565b14156118375750611843565b600184019350506117cb565b604080519081016040528084815260200182815250915050919050565b6000807f30644e72e131a029b85045b68181585d97816a916871ca8d3c208c16d87cfd47905060405160208152602080820152602060408201528460608201528360808201528160a082015260208160c08360055afa15156118c157600080fd5b80519250505092915050565b604080519081016040528060008152602001600081525090565b610140604051908101604052806118fc611b41565b8152602001611909611b41565b8152602001611916611b41565b81526020016000815260200160008152602001611931611b41565b81525090565b6104606040519081016040528061194c611b41565b8152602001611959611b41565b8152602001611966611b5b565b8152602001600081526020016000815260200160008152602001611988611b89565b8152602001611995611ba3565b81525090565b604080519081016040528060008152602001600081525090565b6102c0604051908101604052806119ca611bd9565b81526020016119d7611bd9565b815260200160008152602001600081525090565b6109206040519081016040528060008152602001611a07611c08565b8152602001600081526020016000815260200160008152602001611a29611c08565b815260200160008152602001611a3d611b41565b815260200160008152602001600081525090565b6101606040519081016040528060008152602001611a6d611b41565b8152602001611a7a611b41565b8152602001611a87611b41565b8152602001611a94611b41565b8152602001611aa1611b41565b81525090565b610800604051908101604052806020905b611ac0611b41565b815260200190600190039081611ab85790505090565b61040060405190810160405280602090602082028038833980820191505090505090565b60a060405190810160405280600590602082028038833980820191505090505090565b61040060405190810160405280602090602082028038833980820191505090505090565b604080519081016040528060008152602001600081525090565b6080604051908101604052806002905b611b73611b41565b815260200190600190039081611b6b5790505090565b604080519081016040528060008152602001600081525090565b6102c060405190810160405280611bb8611bd9565b8152602001611bc5611bd9565b815260200160008152602001600081525090565b610140604051908101604052806005905b611bf2611b41565b815260200190600190039081611bea5790505090565b61040060405190810160405280602090602082028038833980820191505090505090565b600082601f8301121515611c3f57600080fd5b6002611c52611c4d826122be565b612291565b91508183856020840282011115611c6857600080fd5b60005b83811015611c985781611c7e8882611ca2565b845260208401935060208301925050600181019050611c6b565b5050505092915050565b6000611cae8235612376565b905092915050565b600082601f8301121515611cc957600080fd5b8135611cdc611cd7826122e0565b612291565b91508082526020830160208301858383011115611cf857600080fd5b611d0383828461238a565b50505092915050565b600060408284031215611d1e57600080fd5b611d286040612291565b90506000611d3884828501611d58565b6000830152506020611d4c84828501611d58565b60208301525092915050565b6000611d648235612380565b905092915050565b6000806000806000806000610160888a031215611d8857600080fd5b6000611d968a828b01611c2c565b9750506040611da78a828b01611c2c565b9650506080611db88a828b01611c2c565b95505060c0611dc98a828b01611d58565b94505060e0611dda8a828b01611d58565b935050610100611dec8a828b01611c2c565b92505061014088013567ffffffffffffffff811115611e0a57600080fd5b611e168a828b01611cb6565b91505092959891949750929550565b60008060808385031215611e3857600080fd5b6000611e4685828601611d0c565b9250506040611e5785828601611d0c565b9150509250929050565b6000611e6d8383612007565b60408301905092915050565b611e8281612316565b611e8c8184612339565b9250611e978261230c565b60005b82811015611ec557611ead858351611e61565b9450611eb88261232c565b9150600181019050611e9a565b5050505050565b611ed581612360565b82525050565b6000611ee682612321565b611ef08185612355565b9350611f00818560208601612399565b80840191505092915050565b6000611f19602a83612344565b91507f5369676d612070726f746f636f6c206368616c6c656e676520657175616c697460008301527f79206661696c7572652e000000000000000000000000000000000000000000006020830152604082019050919050565b6000611f7f602583612344565b91507f496e6e65722070726f6475637420657175616c69747920636865636b2066616960008301527f6c7572652e0000000000000000000000000000000000000000000000000000006020830152604082019050919050565b604082016000820151611fee6000850182612065565b5060208201516120016020850182612065565b50505050565b60408201600082015161201d6000850182612065565b5060208201516120306020850182612065565b50505050565b60408201600082015161204c6000850182612065565b50602082015161205f6020850182612065565b50505050565b61206e8161236c565b82525050565b61207d8161236c565b82525050565b61209461208f8261236c565b6123cc565b82525050565b60006120a68285611edb565b91506120b28284612083565b6020820191508190509392505050565b60006020820190506120d76000830184611ecc565b92915050565b600060208201905081810360008301526120f681611f0c565b9050919050565b6000602082019050818103600083015261211681611f72565b9050919050565b60006040820190506121326000830184611fd8565b92915050565b600060208201905061214d6000830184612074565b92915050565b600060a0820190506121686000830185612074565b6121756020830184611e79565b9392505050565b600060a0820190506121916000830186612074565b61219e6020830185612036565b6121ab6060830184612036565b949350505050565b600060e0820190506121c86000830187612074565b6121d56020830186612036565b6121e26060830185612036565b6121ef60a0830184612036565b95945050505050565b60006101008201905061220e6000830188612074565b61221b6020830187612074565b6122286040830186612036565b6122356080830185612036565b61224260c0830184612036565b9695505050505050565b60006080820190506122616000830187612074565b61226e6020830186612074565b61227b6040830185612074565b6122886060830184612074565b95945050505050565b6000604051905081810181811067ffffffffffffffff821117156122b457600080fd5b8060405250919050565b600067ffffffffffffffff8211156122d557600080fd5b602082029050919050565b600067ffffffffffffffff8211156122f757600080fd5b601f19601f8301169050602081019050919050565b6000819050919050565b600060029050919050565b600081519050919050565b6000602082019050919050565b600081905092915050565b600082825260208201905092915050565b600081905092915050565b60008115159050919050565b6000819050919050565b6000819050919050565b6000819050919050565b82818337600083830152505050565b60005b838110156123b757808201518184015260208101905061239c565b838111156123c6576000848401525b50505050565b600081905091905056fea265627a7a72305820d6b2ff04af42eac20a6aad04654e7822dafb210fdb5c89cadca2b22bc29c474f6c6578706572696d656e74616cf50037",
  "source": "pragma solidity 0.5.4;\npragma experimental ABIEncoderV2;\n\nimport \"./Utils.sol\";\n\ncontract BurnVerifier {\n    using Utils for uint256;\n\n    uint256 constant m = 32;\n    uint256 constant n = 5;\n    uint256 constant FIELD_ORDER = 21888242871839275222246405745257275088696311157297823662689037894645226208583;\n\n    G1Point[m] gs;\n    G1Point[m] hs;\n    G1Point g;\n    G1Point h;\n\n    uint256[m] twos = powers(2); // how much is this actually used?\n\n    struct BurnStatement {\n        G1Point balanceCommitNewL;\n        G1Point balanceCommitNewR;\n        G1Point y;\n        uint256 bTransfer;\n        uint256 epoch; // or uint8?\n        G1Point u;\n    }\n\n    struct BurnProof {\n        G1Point A;\n        G1Point S;\n        G1Point[2] commits;\n        uint256 tauX;\n        uint256 mu;\n        uint256 t;\n        SigmaProof sigmaProof;\n        InnerProductProof ipProof;\n    }\n\n    struct SigmaProof {\n        uint256 c;\n        uint256 sX;\n    }\n\n    struct InnerProductProof {\n        G1Point[n] ls;\n        G1Point[n] rs;\n        uint256 a;\n        uint256 b;\n    }\n\n    constructor() public {\n        g = mapInto(\"G\");\n        h = mapInto(\"V\");\n        for (uint256 i = 0; i < m; i++) {\n            gs[i] = mapInto(\"G\", i);\n            hs[i] = mapInto(\"H\", i);\n        }\n    } // will it be more expensive later on to sload these than to recompute them?\n\n    function verifyBurn(bytes32[2] memory CLn, bytes32[2] memory CRn, bytes32[2] memory y, uint256 bTransfer, uint256 epoch, bytes32[2] memory u, bytes memory proof) view public returns (bool) {\n        BurnStatement memory statement; // WARNING: if this is called directly in the console,\n        // and your strings are less than 64 characters, they will be padded on the right, not the left. should hopefully not be an issue,\n        // as this will typically be called simply by the other contract, which will get its arguments using precompiles. still though, beware\n        statement.balanceCommitNewL = G1Point(uint256(CLn[0]), uint256(CLn[1]));\n        statement.balanceCommitNewR = G1Point(uint256(CRn[0]), uint256(CRn[1]));\n        statement.y = G1Point(uint256(y[0]), uint256(y[1]));\n        statement.bTransfer = bTransfer;\n        statement.epoch = epoch;\n        statement.u = G1Point(uint256(u[0]), uint256(u[1]));\n        BurnProof memory burnProof = unserialize(proof);\n        return verify(statement, burnProof);\n    }\n\n    struct BurnAuxiliaries {\n        uint256 y;\n        uint256[m] ys;\n        uint256 z;\n        uint256 zSquared;\n        uint256 zCubed;\n        uint256[m] twoTimesZSquared;\n        uint256 k;\n        G1Point tEval;\n        uint256 t;\n        uint256 x;\n    }\n\n    struct SigmaAuxiliaries {\n        uint256 minusC;\n        G1Point Ay;\n        G1Point gEpoch;\n        G1Point Au;\n        G1Point cCommit;\n        G1Point At;\n    }\n\n    function verify(BurnStatement memory statement, BurnProof memory proof) view internal returns (bool) {\n        BurnAuxiliaries memory burnAuxiliaries;\n        burnAuxiliaries.y = uint256(keccak256(abi.encode(uint256(keccak256(abi.encode(statement.bTransfer, statement.epoch, statement.y, statement.balanceCommitNewL, statement.balanceCommitNewR))).mod(), proof.A, proof.S))).mod();\n        burnAuxiliaries.ys = powers(burnAuxiliaries.y);\n        burnAuxiliaries.z = uint256(keccak256(abi.encode(burnAuxiliaries.y))).mod();\n        burnAuxiliaries.zSquared = burnAuxiliaries.z.mul(burnAuxiliaries.z);\n        burnAuxiliaries.zCubed = burnAuxiliaries.zSquared.mul(burnAuxiliaries.z);\n        burnAuxiliaries.twoTimesZSquared = times(twos, burnAuxiliaries.zSquared);\n        burnAuxiliaries.x = uint256(keccak256(abi.encode(burnAuxiliaries.z, proof.commits))).mod();\n\n        // begin verification of sigma proof. is it worth passing to a different method?\n        burnAuxiliaries.k = sumScalars(burnAuxiliaries.ys).mul(burnAuxiliaries.z.sub(burnAuxiliaries.zSquared)).sub(burnAuxiliaries.zCubed.mul(2 ** m).sub(burnAuxiliaries.zCubed)); // really care about t - k\n        burnAuxiliaries.tEval = add(mul(proof.commits[0], burnAuxiliaries.x), mul(proof.commits[1], burnAuxiliaries.x.mul(burnAuxiliaries.x))); // replace with \"commit\"?\n        burnAuxiliaries.t = proof.t.sub(burnAuxiliaries.k);\n\n        SigmaAuxiliaries memory sigmaAuxiliaries;\n        sigmaAuxiliaries.minusC = proof.sigmaProof.c.neg();\n        sigmaAuxiliaries.Ay = add(mul(g, proof.sigmaProof.sX), mul(statement.y, sigmaAuxiliaries.minusC));\n        sigmaAuxiliaries.gEpoch = mapInto(\"Zether\", statement.epoch);\n        sigmaAuxiliaries.Au = add(mul(sigmaAuxiliaries.gEpoch, proof.sigmaProof.sX), mul(statement.u, sigmaAuxiliaries.minusC));\n        sigmaAuxiliaries.cCommit = add(mul(statement.balanceCommitNewL, proof.sigmaProof.c.mul(burnAuxiliaries.zSquared)), mul(statement.balanceCommitNewR, proof.sigmaProof.sX.mul(burnAuxiliaries.zSquared).neg()));\n        sigmaAuxiliaries.At = add(add(mul(g, burnAuxiliaries.t.mul(proof.sigmaProof.c)), mul(h, proof.tauX.mul(proof.sigmaProof.c))), neg(add(sigmaAuxiliaries.cCommit, mul(burnAuxiliaries.tEval, proof.sigmaProof.c))));\n\n        uint256 challenge = uint256(keccak256(abi.encode(burnAuxiliaries.x, sigmaAuxiliaries.Ay, sigmaAuxiliaries.Au, sigmaAuxiliaries.At))).mod();\n        require(challenge == proof.sigmaProof.c, \"Sigma protocol challenge equality failure.\");\n\n        uint256 uChallenge = uint256(keccak256(abi.encode(proof.sigmaProof.c, proof.t, proof.tauX, proof.mu))).mod();\n        G1Point memory u = mul(g, uChallenge);\n        G1Point[m] memory hPrimes = hadamardInv(hs, burnAuxiliaries.ys);\n        uint256[m] memory hExp = addVectors(times(burnAuxiliaries.ys, burnAuxiliaries.z), burnAuxiliaries.twoTimesZSquared);\n        G1Point memory P = add(add(proof.A, mul(proof.S, burnAuxiliaries.x)), mul(sumPoints(gs), burnAuxiliaries.z.neg()));\n        P = add(neg(mul(h, proof.mu)), add(P, commit(hPrimes, hExp)));\n        P = add(P, mul(u, proof.t));\n\n\n        // begin inner product verification\n        InnerProductProof memory ipProof = proof.ipProof;\n        uint256[n] memory challenges;\n        for (uint256 i = 0; i < n; i++) {\n            uChallenge = uint256(keccak256(abi.encode(uChallenge, ipProof.ls[i], ipProof.rs[i]))).mod();\n            challenges[i] = uChallenge;\n            uint256 xInv = uChallenge.inv();\n            P = add(add(mul(ipProof.ls[i], uChallenge.exp(2)), mul(ipProof.rs[i], xInv.exp(2))), P);\n        }\n\n        uint256[m] memory otherExponents;\n        otherExponents[0] = 1;\n        for (uint256 i = 0; i < n; i++) {\n            otherExponents[0] = otherExponents[0].mul(challenges[i]);\n        }\n        bool[m] memory bitSet;\n        otherExponents[0] = otherExponents[0].inv();\n        for (uint256 i = 0; i < m/2; ++i) {\n            for (uint256 j = 0; (1 << j) + i < m; ++j) {\n                uint256 i1 = i + (1 << j);\n                if (!bitSet[i1]) {\n                    uint256 temp = challenges[n - 1 - j].mul(challenges[n - 1 - j]);\n                    otherExponents[i1] = otherExponents[i].mul(temp);\n                    bitSet[i1] = true;\n                }\n            }\n        }\n\n        G1Point memory gTemp = multiExpGs(otherExponents);\n        G1Point memory hTemp = multiExpHsInversed(otherExponents, hPrimes);\n        G1Point memory cProof = add(add(mul(gTemp, ipProof.a), mul(hTemp, ipProof.b)), mul(u, ipProof.a.mul(ipProof.b)));\n        require(eq(P, cProof), \"Inner product equality check failure.\");\n        return true;\n    }\n\n    function multiExpGs(uint256[m] memory ss) internal view returns (G1Point memory result) {\n        for (uint256 i = 0; i < m; i++) {\n            result = add(result, mul(gs[i], ss[i]));\n        }\n    }\n\n    function multiExpHsInversed(uint256[m] memory ss, G1Point[m] memory hs) internal view returns (G1Point memory result) {\n        for (uint256 i = 0; i < m; i++) {\n            result = add(result, mul(hs[i], ss[m - 1 - i]));\n        }\n    }\n\n    // begin util functions\n    function unserialize(bytes memory arr) internal pure returns (BurnProof memory proof) {\n        proof.A = G1Point(slice(arr, 0), slice(arr, 32));\n        proof.S = G1Point(slice(arr, 64), slice(arr, 96));\n        proof.commits = [G1Point(slice(arr, 128), slice(arr, 160)), G1Point(slice(arr, 192), slice(arr, 224))];\n        proof.t = slice(arr, 256);\n        proof.tauX = slice(arr, 288);\n        proof.mu = slice(arr, 320);\n\n        SigmaProof memory sigmaProof;\n        sigmaProof.c = slice(arr, 352);\n        sigmaProof.sX = slice(arr, 384);\n        proof.sigmaProof = sigmaProof;\n\n        InnerProductProof memory ipProof;\n        for (uint256 i = 0; i < n; i++) {\n            ipProof.ls[i] = G1Point(slice(arr, 416 + i * 64), slice(arr, 448 + i * 64));\n            ipProof.rs[i] = G1Point(slice(arr, 416 + (n + i) * 64), slice(arr, 448 + (n + i) * 64));\n        }\n        ipProof.a = slice(arr, 416 + n * 128);\n        ipProof.b = slice(arr, 448 + n * 128);\n        proof.ipProof = ipProof;\n        return proof;\n    }\n\n    function addVectors(uint256[m] memory a, uint256[m] memory b) internal pure returns (uint256[m] memory result) {\n        for (uint256 i = 0; i < m; i++) {\n            result[i] = a[i].add(b[i]);\n        }\n    }\n\n    function hadamardInv(G1Point[m] memory ps, uint256[m] memory ss) internal view returns (G1Point[m] memory result) {\n        for (uint256 i = 0; i < m; i++) {\n            result[i] = mul(ps[i], ss[i].inv());\n        }\n    }\n\n    function sumScalars(uint256[m] memory ys) internal pure returns (uint256 result) {\n        for (uint256 i = 0; i < m; i++) {\n            result = result.add(ys[i]);\n        }\n    }\n\n    function sumPoints(G1Point[m] memory ps) internal view returns (G1Point memory sum) {\n        for (uint256 i = 0; i < m; i++) {\n            sum = add(sum, ps[i]);\n        }\n    }\n\n    function commit(G1Point[m] memory ps, uint256[m] memory ss) internal view returns (G1Point memory result) {\n        for (uint256 i = 0; i < m; i++) {\n            result = add(result, mul(ps[i], ss[i]));\n        }\n    }\n\n    function powers(uint256 base) internal pure returns (uint256[m] memory powers) {\n        powers[0] = 1;\n        powers[1] = base;\n        for (uint256 i = 2; i < m; i++) {\n            powers[i] = powers[i - 1].mul(base);\n        }\n    }\n\n    function times(uint256[m] memory v, uint256 x) internal pure returns (uint256[m] memory result) {\n        for (uint256 i = 0; i < m; i++) {\n            result[i] = v[i].mul(x);\n        }\n    }\n\n    function slice(bytes memory input, uint256 start) internal pure returns (uint256 result) { // extracts exactly 32 bytes\n        assembly {\n            let m := mload(0x40)\n            mstore(m, mload(add(add(input, 0x20), start))) // why only 0x20?\n            result := mload(m)\n        }\n    }\n\n    struct G1Point {\n        uint256 x;\n        uint256 y;\n    }\n\n    function add(G1Point memory p1, G1Point memory p2) public view returns (G1Point memory r) {\n        assembly {\n            let m := mload(0x40)\n            mstore(m, mload(p1))\n            mstore(add(m, 0x20), mload(add(p1, 0x20)))\n            mstore(add(m, 0x40), mload(p2))\n            mstore(add(m, 0x60), mload(add(p2, 0x20)))\n            if iszero(staticcall(gas, 0x06, m, 0x80, r, 0x40)) {\n                revert(0, 0)\n            }\n        }\n    }\n\n    function mul(G1Point memory p, uint256 s) internal view returns (G1Point memory r) {\n        assembly {\n            let m := mload(0x40)\n            mstore(m, mload(p))\n            mstore(add(m, 0x20), mload(add(p, 0x20)))\n            mstore(add(m, 0x40), s)\n            if iszero(staticcall(gas, 0x07, m, 0x60, r, 0x40)) {\n                revert(0, 0)\n            }\n        }\n    }\n\n    function neg(G1Point memory p) internal pure returns (G1Point memory) {\n        return G1Point(p.x, FIELD_ORDER - (p.y % FIELD_ORDER)); // p.y should already be reduced mod P?\n    }\n\n    function eq(G1Point memory p1, G1Point memory p2) internal pure returns (bool) {\n        return p1.x == p2.x && p1.y == p2.y;\n    }\n\n    function fieldExp(uint256 base, uint256 exponent) internal view returns (uint256 output) { // warning: mod p, not q\n        uint256 order = FIELD_ORDER;\n        assembly {\n            let m := mload(0x40)\n            mstore(m, 0x20)\n            mstore(add(m, 0x20), 0x20)\n            mstore(add(m, 0x40), 0x20)\n            mstore(add(m, 0x60), base)\n            mstore(add(m, 0x80), exponent)\n            mstore(add(m, 0xa0), order)\n            if iszero(staticcall(gas, 0x05, m, 0xc0, m, 0x20)) { // staticcall or call?\n                revert(0, 0)\n            }\n            output := mload(m)\n        }\n    }\n\n    function mapInto(uint256 seed) internal view returns (G1Point memory) { // warning: function totally untested!\n        uint256 y;\n        while (true) {\n            uint256 ySquared = fieldExp(seed, 3) + 3; // addmod instead of add: waste of gas, plus function overhead cost\n            y = fieldExp(ySquared, (FIELD_ORDER + 1) / 4);\n            if (fieldExp(y, 2) == ySquared) {\n                break;\n            }\n            seed += 1;\n        }\n        return G1Point(seed, y);\n    }\n\n    function mapInto(string memory input) internal view returns (G1Point memory) { // warning: function totally untested!\n        return mapInto(uint256(keccak256(abi.encodePacked(input))) % FIELD_ORDER);\n    }\n\n    function mapInto(string memory input, uint256 i) internal view returns (G1Point memory) { // warning: function totally untested!\n        return mapInto(uint256(keccak256(abi.encodePacked(input, i))) % FIELD_ORDER);\n        // ^^^ important: i haven't tested this, i.e. whether it agrees with ProofUtils.paddedHash(input, i) (cf. also the go version)\n    }\n}\n",
  "sourcePath": "/Users/benediamond/anonymous-zether/packages/protocol/contracts/BurnVerifier.sol",
  "compiler": {
    "name": "solc",
    "version": "0.5.4+commit.9549d8ff.Emscripten.clang"
  },
  "schemaVersion": "3.0.9",
  "updatedAt": "2019-08-05T16:44:14.123Z",
  "devdoc": {
    "methods": {}
  },
  "userdoc": {
    "methods": {}
  }
}