{
  "contractName": "BurnVerifier",
  "abi": [
    {
      "inputs": [
        {
          "name": "_ip",
          "type": "address"
        }
      ],
      "payable": false,
      "stateMutability": "nonpayable",
      "type": "constructor"
    },
    {
      "constant": true,
      "inputs": [
        {
          "components": [
            {
              "name": "x",
              "type": "bytes32"
            },
            {
              "name": "y",
              "type": "bytes32"
            }
          ],
          "name": "CLn",
          "type": "tuple"
        },
        {
          "components": [
            {
              "name": "x",
              "type": "bytes32"
            },
            {
              "name": "y",
              "type": "bytes32"
            }
          ],
          "name": "CRn",
          "type": "tuple"
        },
        {
          "components": [
            {
              "name": "x",
              "type": "bytes32"
            },
            {
              "name": "y",
              "type": "bytes32"
            }
          ],
          "name": "y",
          "type": "tuple"
        },
        {
          "name": "epoch",
          "type": "uint256"
        },
        {
          "components": [
            {
              "name": "x",
              "type": "bytes32"
            },
            {
              "name": "y",
              "type": "bytes32"
            }
          ],
          "name": "u",
          "type": "tuple"
        },
        {
          "name": "sender",
          "type": "address"
        },
        {
          "name": "proof",
          "type": "bytes"
        }
      ],
      "name": "verifyBurn",
      "outputs": [
        {
          "name": "",
          "type": "bool"
        }
      ],
      "payable": false,
      "stateMutability": "view",
      "type": "function"
    }
  ],
  "bytecode": "0x60806040523480156200001157600080fd5b50604051602080620022fd833981018060405262000033919081019062000090565b806000806101000a81548173ffffffffffffffffffffffffffffffffffffffff021916908373ffffffffffffffffffffffffffffffffffffffff16021790555050620000f0565b6000620000888251620000bc565b905092915050565b600060208284031215620000a357600080fd5b6000620000b3848285016200007a565b91505092915050565b6000620000c982620000d0565b9050919050565b600073ffffffffffffffffffffffffffffffffffffffff82169050919050565b6121fd80620001006000396000f3fe608060405234801561001057600080fd5b5060043610610048576000357c01000000000000000000000000000000000000000000000000000000009004806391d16ac81461004d575b600080fd5b610067600480360361006291908101906119d9565b61007d565b6040516100749190611e61565b60405180910390f35b6000610087611557565b88816000018190525087816020018190525086816040018190525085816060018181525050848160a0018190525083816080019073ffffffffffffffffffffffffffffffffffffffff16908173ffffffffffffffffffffffffffffffffffffffff16815250506100f56115bd565b6100fe84610119565b905061010a8282610427565b92505050979650505050505050565b6101216115bd565b6040805190810160405280610137846000610ffb565b8152602001610147846020610ffb565b81525081600001819052506040805190810160405280610168846040610ffb565b8152602001610178846060610ffb565b8152508160200181905250604080519081016040528060408051908101604052806101a4866080610ffb565b81526020016101b48660a0610ffb565b815250815260200160408051908101604052806101d28660c0610ffb565b81526020016101e28660e0610ffb565b81525081525081604001819052506101fc82610100610ffb565b6001900481606001818152505061021582610120610ffb565b6001900481608001818152505061022e82610140610ffb565b600190048160a001818152505061024782610160610ffb565b600190048160c001818152505061026082610180610ffb565b600190048160e0018181525050610279826101a0610ffb565b600190048161010001818152505061028f611629565b60056040519080825280602002602001820160405280156102ca57816020015b6102b7611652565b8152602001906001900390816102af5790505b508160000181905250600560405190808252806020026020018201604052801561030e57816020015b6102fb611652565b8152602001906001900390816102f35790505b50816020018190525060008090505b60058110156103e157604080519081016040528061034286604085026101c001610ffb565b815260200161035886604085026101e001610ffb565b81525082600001518281518110151561036d57fe5b90602001906020020181905250604080519081016040528061039986604085600501026101c001610ffb565b81526020016103b286604085600501026101e001610ffb565b8152508260200151828151811015156103c757fe5b90602001906020020181905250808060010191505061031d565b506103ee83610440610ffb565b6001900481604001818152505061040783610460610ffb565b600190048160600181815250508082610120018190525081915050919050565b6000806104798460000151856020015186604001518760600151886080015160405160200161045a959493929190611ebc565b6040516020818303038152906040528051906020012060019004611014565b9050610483611672565b6104c282856000015186602001516040516020016104a393929190611f54565b6040516020818303038152906040528051906020012060019004611014565b8160000181815250506001816020015160006020811015156104e057fe5b6020020181815250506001816101000181815250506000600190505b602081101561059557610535826000015183602001516001840360208110151561052257fe5b602002015161104990919063ffffffff16565b82602001518260208110151561054757fe5b60200201818152505061057e82602001518260208110151561056557fe5b602002015183610100015161108090919063ffffffff16565b8261010001818152505080806001019150506104fc565b506105cd81600001516040516020016105ae9190611f10565b6040516020818303038152906040528051906020012060019004611014565b8160400181815250506020604051908101604052806105fa600284604001516110b790919063ffffffff16565b815250816060018190525061063381604001518260600151600060018110151561062057fe5b602002015161104990919063ffffffff16565b8160800181815250506106c46106718260800151610663640100000000856080015161104990919063ffffffff16565b61112490919063ffffffff16565b6106b66106a28460600151600060018110151561068a57fe5b6020020151856040015161112490919063ffffffff16565b84610100015161104990919063ffffffff16565b61112490919063ffffffff16565b816101000181815250506106ea816101000151856060015161112490919063ffffffff16565b8160e001818152505060008090505b60208110156107575761072f8160020a8360600151600060018110151561071c57fe5b602002015161104990919063ffffffff16565b8260a001518260208110151561074157fe5b60200201818152505080806001019150506106f9565b5061079581604001518560400151604051602001610776929190611f2b565b6040516020818303038152906040528051906020012060019004611014565b8160c00181815250506108216107e56107bf8360c001518460c0015161104990919063ffffffff16565b866040015160016002811015156107d257fe5b602002015161116490919063ffffffff16565b6108138360c001518760400151600060028110151561080057fe5b602002015161116490919063ffffffff16565b61119f90919063ffffffff16565b8161012001819052506108326116de565b6108846108586108458760a001516111e5565b886040015161116490919063ffffffff16565b6108768760c00151610868611211565b61116490919063ffffffff16565b61119f90919063ffffffff16565b8160200181905250610933610907836060015160006001811015156108a557fe5b60200201516108f96108d06108bd8a60a001516111e5565b8b6000015161116490919063ffffffff16565b6108eb8a60c001518c6020015161116490919063ffffffff16565b61119f90919063ffffffff16565b61116490919063ffffffff16565b6109258760e00151610917611211565b61116490919063ffffffff16565b61119f90919063ffffffff16565b81604001819052506109f561096461094e8760e001516111e5565b610956611211565b61116490919063ffffffff16565b6109e7610986886101000151610978611279565b61116490919063ffffffff16565b6109d98960a001516109cb61099f8961012001516112e1565b6109bd8a60e001516109af611211565b61116490919063ffffffff16565b61119f90919063ffffffff16565b61116490919063ffffffff16565b61119f90919063ffffffff16565b61119f90919063ffffffff16565b8160600181905250610a406040805190810160405280600681526020017f5a657468657200000000000000000000000000000000000000000000000000008152508760600151611336565b8160800181905250610a97610a6e610a5b8760a001516111e5565b8860a0015161116490919063ffffffff16565b610a898760c00151846080015161116490919063ffffffff16565b61119f90919063ffffffff16565b8160a00181905250610aee8260c001518260200151836040015184606001518560a00151604051602001610acf959493929190611f8b565b6040516020818303038152906040528051906020012060019004611014565b8160000181815250508460a001518160000151141515610b43576040517f08c379a0000000000000000000000000000000000000000000000000000000008152600401610b3a90611e7c565b60405180910390fd5b610b4b611734565b610b828260000151604051602001610b639190611f10565b6040516020818303038152906040528051906020012060019004611014565b816080018181525050610ba98160800151610b9b611279565b61116490919063ffffffff16565b81602001819052506020604051908082528060200260200182016040528015610bec57816020015b610bd9611652565b815260200190600190039081610bd15790505b50816040018190525060008090505b6020811015610dc557610cf9610c26856020015183602081101515610c1c57fe5b60200201516113a6565b6000809054906101000a900473ffffffffffffffffffffffffffffffffffffffff1673ffffffffffffffffffffffffffffffffffffffff16633844923b846040518263ffffffff167c0100000000000000000000000000000000000000000000000000000000028152600401610c9c9190611f10565b604080518083038186803b158015610cb357600080fd5b505afa158015610cc7573d6000803e3d6000fd5b505050506040513d601f19601f82011682018060405250610ceb91908101906119b0565b61116490919063ffffffff16565b826040015182815181101515610d0b57fe5b90602001906020020181905250610db0610d9d610d738660a0015184602081101515610d3357fe5b6020020151610d658860400151896020015187602081101515610d5257fe5b602002015161104990919063ffffffff16565b61108090919063ffffffff16565b846040015184815181101515610d8557fe5b9060200190602002015161116490919063ffffffff16565b836060015161119f90919063ffffffff16565b82606001819052508080600101915050610bfb565b50610e448160600151610e36610df7610de187604001516111e5565b610de96113dc565b61116490919063ffffffff16565b610e28610e158860c001518c6020015161116490919063ffffffff16565b8b6000015161119f90919063ffffffff16565b61119f90919063ffffffff16565b61119f90919063ffffffff16565b8160000181905250610e88610e75610e5f88608001516111e5565b610e67611279565b61116490919063ffffffff16565b826000015161119f90919063ffffffff16565b8160000181905250610ec1610eae8760600151836020015161116490919063ffffffff16565b826000015161119f90919063ffffffff16565b81600001819052506000809054906101000a900473ffffffffffffffffffffffffffffffffffffffff1673ffffffffffffffffffffffffffffffffffffffff166397fa72ae8260400151836020015184600001518a610120015186608001516040518663ffffffff167c0100000000000000000000000000000000000000000000000000000000028152600401610f5c959493929190611e00565b60206040518083038186803b158015610f7457600080fd5b505afa158015610f88573d6000803e3d6000fd5b505050506040513d601f19601f82011682018060405250610fac9190810190611987565b1515610fed576040517f08c379a0000000000000000000000000000000000000000000000000000000008152600401610fe490611e9c565b60405180910390fd5b600194505050505092915050565b6000604051826020850101518152805191505092915050565b60007f30644e72e131a029b85045b68181585d2833e84879b9709143e1f593f00000018281151561104157fe5b069050919050565b60007f30644e72e131a029b85045b68181585d2833e84879b9709143e1f593f000000180151561107557fe5b828409905092915050565b60007f30644e72e131a029b85045b68181585d2833e84879b9709143e1f593f00000018015156110ac57fe5b828408905092915050565b6000807f30644e72e131a029b85045b68181585d2833e84879b9709143e1f593f0000001905060405160208152602080820152602060408201528460608201528360808201528160a082015260208160c08360055afa151561111857600080fd5b80519250505092915050565b6000818310156111585782827f30644e72e131a029b85045b68181585d2833e84879b9709143e1f593f0000001030161115c565b8183035b905092915050565b61116c611777565b604051835181526020840151602082015282604082015260408260608360075afa151561119857600080fd5b5092915050565b6111a7611777565b6040518351815260208401516020820152825160408201526020830151606082015260408260808360065afa15156111de57600080fd5b5092915050565b6000817f30644e72e131a029b85045b68181585d2833e84879b9709143e1f593f0000001039050919050565b611219611777565b60408051908101604052807f077da99d806abd13c9f15ece5398525119d11e11e9836b2ee7d23f6159ad87d460010281526020017f01485efa927f2ad41bff567eec88f32fb0a0f706588b4e41a8d587d008b7f875600102815250905090565b611281611777565b60408051908101604052807f01b7de3dcf359928dd19f643d54dc487478b68a5b2634f9f1903c9fb78331aef60010281526020017f2bda7d3ae6a557c716477c108be0d0f94abc6c4dc6b1bd93caccbcceaaa71d6b600102815250905090565b6112e9611777565b6040805190810160405280836000015181526020018360200151600190047f30644e72e131a029b85045b68181585d97816a916871ca8d3c208c16d87cfd47036001028152509050919050565b61133e611777565b61139e7f30644e72e131a029b85045b68181585d97816a916871ca8d3c208c16d87cfd478484604051602001611375929190611dd8565b604051602081830303815290604052805190602001206001900481151561139857fe5b06611444565b905092915050565b60006113d58260027f30644e72e131a029b85045b68181585d2833e84879b9709143e1f593f0000001036110b7565b9050919050565b6113e4611777565b60408051908101604052807f2257118d30fe5064dda298b2fac15cf96fd51f0e7e3df342d0aed40b8d7bb15160010281526020017f0d4250e7509c99370e6b15ebfe4f1aa5e65a691133357901aa4b0641f96c80a8600102815250905090565b61144c611777565b60005b6001156114c757600060036114658560036114ea565b0190506114a181600460017f30644e72e131a029b85045b68181585d97816a916871ca8d3c208c16d87cfd470181151561149b57fe5b046114ea565b9150806114af8360026114ea565b14156114bb57506114c7565b6001840193505061144f565b604080519081016040528084600102815260200182600102815250915050919050565b6000807f30644e72e131a029b85045b68181585d97816a916871ca8d3c208c16d87cfd47905060405160208152602080820152602060408201528460608201528360808201528160a082015260208160c08360055afa151561154b57600080fd5b80519250505092915050565b6101406040519081016040528061156c611652565b8152602001611579611652565b8152602001611586611652565b815260200160008152602001600073ffffffffffffffffffffffffffffffffffffffff1681526020016115b7611652565b81525090565b610240604051908101604052806115d2611652565b81526020016115df611652565b81526020016115ec611797565b81526020016000815260200160008152602001600081526020016000815260200160008152602001600081526020016116236117c5565b81525090565b608060405190810160405280606081526020016060815260200160008152602001600081525090565b604080519081016040528060008019168152602001600080191681525090565b610920604051908101604052806000815260200161168e6117ee565b8152602001600081526020016116a2611812565b8152602001600081526020016116b66117ee565b81526020016000815260200160008152602001600081526020016116d8611652565b81525090565b61016060405190810160405280600081526020016116fa611652565b8152602001611707611652565b8152602001611714611652565b8152602001611721611652565b815260200161172e611652565b81525090565b61010060405190810160405280611749611652565b8152602001611756611652565b81526020016060815260200161176a611652565b8152602001600081525090565b604080519081016040528060008019168152602001600080191681525090565b6080604051908101604052806002905b6117af611652565b8152602001906001900390816117a75790505090565b608060405190810160405280606081526020016060815260200160008152602001600081525090565b61040060405190810160405280602090602082028038833980820191505090505090565b602060405190810160405280600190602082028038833980820191505090505090565b60006118418235612125565b905092915050565b60006118558251612137565b905092915050565b60006118698235612143565b905092915050565b600061187d8251612143565b905092915050565b600082601f830112151561189857600080fd5b81356118ab6118a68261200c565b611fdf565b915080825260208301602083018583830111156118c757600080fd5b6118d2838284612177565b50505092915050565b6000604082840312156118ed57600080fd5b6118f76040611fdf565b905060006119078482850161185d565b600083015250602061191b8482850161185d565b60208301525092915050565b60006040828403121561193957600080fd5b6119436040611fdf565b9050600061195384828501611871565b600083015250602061196784828501611871565b60208301525092915050565b600061197f823561216d565b905092915050565b60006020828403121561199957600080fd5b60006119a784828501611849565b91505092915050565b6000604082840312156119c257600080fd5b60006119d084828501611927565b91505092915050565b6000806000806000806000610160888a0312156119f557600080fd5b6000611a038a828b016118db565b9750506040611a148a828b016118db565b9650506080611a258a828b016118db565b95505060c0611a368a828b01611973565b94505060e0611a478a828b016118db565b935050610120611a598a828b01611835565b92505061014088013567ffffffffffffffff811115611a7757600080fd5b611a838a828b01611885565b91505092959891949750929550565b6000611a9e8383611cdb565b60408301905092915050565b611ab3816120d3565b82525050565b611ac28161204f565b611acc818461208a565b9250611ad782612038565b60005b82811015611b0557611aed858351611a92565b9450611af882612070565b9150600181019050611ada565b5050505050565b6000611b178261205a565b611b218185612095565b9350611b2c83612042565b60005b82811015611b5a57611b42868351611a92565b9550611b4d8261207d565b9150600181019050611b2f565b50849250505092915050565b6000611b718261205a565b611b7b81856120a6565b9350611b8683612042565b60005b82811015611bb457611b9c868351611a92565b9550611ba78261207d565b9150600181019050611b89565b50849250505092915050565b611bc9816120e5565b82525050565b611bd8816120f1565b82525050565b6000611be982612065565b611bf381856120c8565b9350611c03818560208601612186565b80840191505092915050565b6000611c1c602a836120b7565b91507f5369676d612070726f746f636f6c206368616c6c656e676520657175616c697460008301527f79206661696c7572652e000000000000000000000000000000000000000000006020830152604082019050919050565b6000611c826028836120b7565b91507f496e6e65722070726f647563742070726f6f6620766572696669636174696f6e60008301527f206661696c65642e0000000000000000000000000000000000000000000000006020830152604082019050919050565b604082016000820151611cf16000850182611bcf565b506020820151611d046020850182611bcf565b50505050565b604082016000820151611d206000850182611bcf565b506020820151611d336020850182611bcf565b50505050565b60006080830160008301518482036000860152611d568282611b0c565b91505060208301518482036020860152611d708282611b0c565b9150506040830151611d856040860182611da3565b506060830151611d986060860182611da3565b508091505092915050565b611dac8161211b565b82525050565b611dbb8161211b565b82525050565b611dd2611dcd8261211b565b6121b9565b82525050565b6000611de48285611bde565b9150611df08284611dc1565b6020820191508190509392505050565b600060e0820190508181036000830152611e1a8188611b66565b9050611e296020830187611d0a565b611e366060830186611d0a565b81810360a0830152611e488185611d39565b9050611e5760c0830184611db2565b9695505050505050565b6000602082019050611e766000830184611bc0565b92915050565b60006020820190508181036000830152611e9581611c0f565b9050919050565b60006020820190508181036000830152611eb581611c75565b9050919050565b600061010082019050611ed26000830188611d0a565b611edf6040830187611d0a565b611eec6080830186611d0a565b611ef960c0830185611db2565b611f0660e0830184611aaa565b9695505050505050565b6000602082019050611f256000830184611db2565b92915050565b600060a082019050611f406000830185611db2565b611f4d6020830184611ab9565b9392505050565b600060a082019050611f696000830186611db2565b611f766020830185611d0a565b611f836060830184611d0a565b949350505050565b600061012082019050611fa16000830188611db2565b611fae6020830187611d0a565b611fbb6060830186611d0a565b611fc860a0830185611d0a565b611fd560e0830184611d0a565b9695505050505050565b6000604051905081810181811067ffffffffffffffff8211171561200257600080fd5b8060405250919050565b600067ffffffffffffffff82111561202357600080fd5b601f19601f8301169050602081019050919050565b6000819050919050565b6000602082019050919050565b600060029050919050565b600081519050919050565b600081519050919050565b6000602082019050919050565b6000602082019050919050565b600081905092915050565b600082825260208201905092915050565b600082825260208201905092915050565b600082825260208201905092915050565b600081905092915050565b60006120de826120fb565b9050919050565b60008115159050919050565b6000819050919050565b600073ffffffffffffffffffffffffffffffffffffffff82169050919050565b6000819050919050565b60006121308261214d565b9050919050565b60008115159050919050565b6000819050919050565b600073ffffffffffffffffffffffffffffffffffffffff82169050919050565b6000819050919050565b82818337600083830152505050565b60005b838110156121a4578082015181840152602081019050612189565b838111156121b3576000848401525b50505050565b600081905091905056fea265627a7a72305820d67e9c09d48c3ac0e209e376db63aef21a32ea6256a2fd332207c0b25506accf6c6578706572696d656e74616cf50037",
  "source": "pragma solidity 0.5.4;\npragma experimental ABIEncoderV2;\n\nimport \"./Utils.sol\";\nimport \"./InnerProductVerifier.sol\";\n\ncontract BurnVerifier {\n    using Utils for uint256;\n    using Utils for Utils.G1Point;\n\n    InnerProductVerifier ip;\n\n    struct BurnStatement {\n        Utils.G1Point CLn;\n        Utils.G1Point CRn;\n        Utils.G1Point y;\n        uint256 epoch; // or uint8?\n        address sender;\n        Utils.G1Point u;\n    }\n\n    struct BurnProof {\n        Utils.G1Point BA;\n        Utils.G1Point BS;\n\n        Utils.G1Point[2] tCommits;\n        uint256 tHat;\n        uint256 mu;\n\n        uint256 c;\n        uint256 s_sk;\n        uint256 s_b;\n        uint256 s_tau;\n\n        InnerProductVerifier.InnerProductProof ipProof;\n    }\n\n    constructor(address _ip) public {\n        ip = InnerProductVerifier(_ip);\n    }\n\n    function verifyBurn(Utils.G1Point memory CLn, Utils.G1Point memory CRn, Utils.G1Point memory y, uint256 epoch, Utils.G1Point memory u, address sender, bytes memory proof) public view returns (bool) {\n        BurnStatement memory statement; // WARNING: if this is called directly in the console,\n        // and your strings are less than 64 characters, they will be padded on the right, not the left. should hopefully not be an issue,\n        // as this will typically be called simply by the other contract. still though, beware\n        statement.CLn = CLn;\n        statement.CRn = CRn;\n        statement.y = y;\n        statement.epoch = epoch;\n        statement.u = u;\n        statement.sender = sender;\n        BurnProof memory burnProof = unserialize(proof);\n        return verify(statement, burnProof);\n    }\n\n    struct BurnAuxiliaries {\n        uint256 y;\n        uint256[32] ys;\n        uint256 z;\n        uint256[1] zs; // silly. just to match zether.\n        uint256 zSum;\n        uint256[32] twoTimesZSquared;\n        uint256 x;\n        uint256 t;\n        uint256 k;\n        Utils.G1Point tEval;\n    }\n\n    struct SigmaAuxiliaries {\n        uint256 c;\n        Utils.G1Point A_y;\n        Utils.G1Point A_b;\n        Utils.G1Point A_t;\n        Utils.G1Point gEpoch;\n        Utils.G1Point A_u;\n    }\n\n    struct IPAuxiliaries {\n        Utils.G1Point P;\n        Utils.G1Point u_x;\n        Utils.G1Point[] hPrimes;\n        Utils.G1Point hPrimeSum;\n        uint256 o;\n    }\n\n    function gSum() internal pure returns (Utils.G1Point memory) {\n        return Utils.G1Point(0x2257118d30fe5064dda298b2fac15cf96fd51f0e7e3df342d0aed40b8d7bb151, 0x0d4250e7509c99370e6b15ebfe4f1aa5e65a691133357901aa4b0641f96c80a8);\n    }\n\n    function verify(BurnStatement memory statement, BurnProof memory proof) internal view returns (bool) {\n        uint256 statementHash = uint256(keccak256(abi.encode(statement.CLn, statement.CRn, statement.y, statement.epoch, statement.sender))).mod(); // stacktoodeep?\n\n        BurnAuxiliaries memory burnAuxiliaries;\n        burnAuxiliaries.y = uint256(keccak256(abi.encode(statementHash, proof.BA, proof.BS))).mod();\n        burnAuxiliaries.ys[0] = 1;\n        burnAuxiliaries.k = 1;\n        for (uint256 i = 1; i < 32; i++) {\n            burnAuxiliaries.ys[i] = burnAuxiliaries.ys[i - 1].mul(burnAuxiliaries.y);\n            burnAuxiliaries.k = burnAuxiliaries.k.add(burnAuxiliaries.ys[i]);\n        }\n        burnAuxiliaries.z = uint256(keccak256(abi.encode(burnAuxiliaries.y))).mod();\n        burnAuxiliaries.zs = [burnAuxiliaries.z.exp(2)];\n        burnAuxiliaries.zSum = burnAuxiliaries.zs[0].mul(burnAuxiliaries.z); // trivial sum\n        burnAuxiliaries.k = burnAuxiliaries.k.mul(burnAuxiliaries.z.sub(burnAuxiliaries.zs[0])).sub(burnAuxiliaries.zSum.mul(2 ** 32).sub(burnAuxiliaries.zSum));\n        burnAuxiliaries.t = proof.tHat.sub(burnAuxiliaries.k);\n        for (uint256 i = 0; i < 32; i++) {\n            burnAuxiliaries.twoTimesZSquared[i] = burnAuxiliaries.zs[0].mul(2 ** i);\n        }\n\n        burnAuxiliaries.x = uint256(keccak256(abi.encode(burnAuxiliaries.z, proof.tCommits))).mod();\n        burnAuxiliaries.tEval = proof.tCommits[0].mul(burnAuxiliaries.x).add(proof.tCommits[1].mul(burnAuxiliaries.x.mul(burnAuxiliaries.x))); // replace with \"commit\"?\n\n        SigmaAuxiliaries memory sigmaAuxiliaries;\n        sigmaAuxiliaries.A_y = Utils.g().mul(proof.s_sk).add(statement.y.mul(proof.c.neg()));\n        sigmaAuxiliaries.A_b = Utils.g().mul(proof.s_b).add(statement.CRn.mul(proof.s_sk).add(statement.CLn.mul(proof.c.neg())).mul(burnAuxiliaries.zs[0]));\n        sigmaAuxiliaries.A_t = Utils.g().mul(burnAuxiliaries.t).add(burnAuxiliaries.tEval.neg()).mul(proof.c).add(Utils.h().mul(proof.s_tau)).add(Utils.g().mul(proof.s_b.neg()));\n        sigmaAuxiliaries.gEpoch = Utils.mapInto(\"Zether\", statement.epoch);\n        sigmaAuxiliaries.A_u = sigmaAuxiliaries.gEpoch.mul(proof.s_sk).add(statement.u.mul(proof.c.neg()));\n\n        sigmaAuxiliaries.c = uint256(keccak256(abi.encode(burnAuxiliaries.x, sigmaAuxiliaries.A_y, sigmaAuxiliaries.A_b, sigmaAuxiliaries.A_t, sigmaAuxiliaries.A_u))).mod();\n        require(sigmaAuxiliaries.c == proof.c, \"Sigma protocol challenge equality failure.\");\n\n        IPAuxiliaries memory ipAuxiliaries;\n        ipAuxiliaries.o = uint256(keccak256(abi.encode(sigmaAuxiliaries.c))).mod();\n        ipAuxiliaries.u_x = Utils.h().mul(ipAuxiliaries.o);\n        ipAuxiliaries.hPrimes = new Utils.G1Point[](32);\n        for (uint256 i = 0; i < 32; i++) {\n            ipAuxiliaries.hPrimes[i] = ip.hs(i).mul(burnAuxiliaries.ys[i].inv());\n            ipAuxiliaries.hPrimeSum = ipAuxiliaries.hPrimeSum.add(ipAuxiliaries.hPrimes[i].mul(burnAuxiliaries.ys[i].mul(burnAuxiliaries.z).add(burnAuxiliaries.twoTimesZSquared[i])));\n        }\n        ipAuxiliaries.P = proof.BA.add(proof.BS.mul(burnAuxiliaries.x)).add(gSum().mul(burnAuxiliaries.z.neg())).add(ipAuxiliaries.hPrimeSum);\n        ipAuxiliaries.P = ipAuxiliaries.P.add(Utils.h().mul(proof.mu.neg()));\n        ipAuxiliaries.P = ipAuxiliaries.P.add(ipAuxiliaries.u_x.mul(proof.tHat));\n        require(ip.verifyInnerProduct(ipAuxiliaries.hPrimes, ipAuxiliaries.u_x, ipAuxiliaries.P, proof.ipProof, ipAuxiliaries.o), \"Inner product proof verification failed.\");\n\n        return true;\n    }\n\n    function unserialize(bytes memory arr) internal pure returns (BurnProof memory proof) {\n        proof.BA = Utils.G1Point(Utils.slice(arr, 0), Utils.slice(arr, 32));\n        proof.BS = Utils.G1Point(Utils.slice(arr, 64), Utils.slice(arr, 96));\n\n        proof.tCommits = [Utils.G1Point(Utils.slice(arr, 128), Utils.slice(arr, 160)), Utils.G1Point(Utils.slice(arr, 192), Utils.slice(arr, 224))];\n        proof.tHat = uint256(Utils.slice(arr, 256));\n        proof.mu = uint256(Utils.slice(arr, 288));\n\n        proof.c = uint256(Utils.slice(arr, 320));\n        proof.s_sk = uint256(Utils.slice(arr, 352));\n        proof.s_b = uint256(Utils.slice(arr, 384));\n        proof.s_tau = uint256(Utils.slice(arr, 416));\n\n        InnerProductVerifier.InnerProductProof memory ipProof;\n        ipProof.ls = new Utils.G1Point[](5);\n        ipProof.rs = new Utils.G1Point[](5);\n        for (uint256 i = 0; i < 5; i++) { // 2^5 = 32.\n            ipProof.ls[i] = Utils.G1Point(Utils.slice(arr, 448 + i * 64), Utils.slice(arr, 480 + i * 64));\n            ipProof.rs[i] = Utils.G1Point(Utils.slice(arr, 448 + (5 + i) * 64), Utils.slice(arr, 480 + (5 + i) * 64));\n        }\n        ipProof.a = uint256(Utils.slice(arr, 448 + 5 * 128));\n        ipProof.b = uint256(Utils.slice(arr, 480 + 5 * 128));\n        proof.ipProof = ipProof;\n\n        return proof;\n    }\n}\n",
  "sourcePath": "/Users/benediamond/anonymous-zether/packages/protocol/contracts/BurnVerifier.sol",
  "compiler": {
    "name": "solc",
    "version": "0.5.4+commit.9549d8ff.Emscripten.clang"
  },
  "schemaVersion": "3.2.3",
  "updatedAt": "2020-08-28T00:57:52.284Z",
  "devdoc": {
    "methods": {}
  },
  "userdoc": {
    "methods": {}
  }
}