{
  "contractName": "BurnVerifier",
  "abi": [
    {
      "inputs": [],
      "payable": false,
      "stateMutability": "nonpayable",
      "type": "constructor"
    },
    {
      "constant": true,
      "inputs": [
        {
          "name": "CLn",
          "type": "bytes32[2]"
        },
        {
          "name": "CRn",
          "type": "bytes32[2]"
        },
        {
          "name": "y",
          "type": "bytes32[2]"
        },
        {
          "name": "bTransfer",
          "type": "uint256"
        },
        {
          "name": "epoch",
          "type": "uint256"
        },
        {
          "name": "u",
          "type": "bytes32[2]"
        },
        {
          "name": "sender",
          "type": "address"
        },
        {
          "name": "proof",
          "type": "bytes"
        }
      ],
      "name": "verifyBurn",
      "outputs": [
        {
          "name": "",
          "type": "bool"
        }
      ],
      "payable": false,
      "stateMutability": "view",
      "type": "function"
    },
    {
      "constant": true,
      "inputs": [
        {
          "components": [
            {
              "name": "x",
              "type": "uint256"
            },
            {
              "name": "y",
              "type": "uint256"
            }
          ],
          "name": "p1",
          "type": "tuple"
        },
        {
          "components": [
            {
              "name": "x",
              "type": "uint256"
            },
            {
              "name": "y",
              "type": "uint256"
            }
          ],
          "name": "p2",
          "type": "tuple"
        }
      ],
      "name": "add",
      "outputs": [
        {
          "components": [
            {
              "name": "x",
              "type": "uint256"
            },
            {
              "name": "y",
              "type": "uint256"
            }
          ],
          "name": "r",
          "type": "tuple"
        }
      ],
      "payable": false,
      "stateMutability": "view",
      "type": "function"
    }
  ],
  "bytecode": "0x60806040526200001f60026200022b640100000000026401000000009004565b60849060206200003192919062000569565b503480156200003f57600080fd5b506200008f6040805190810160405280600181526020017f4700000000000000000000000000000000000000000000000000000000000000815250620002e0640100000000026401000000009004565b60806000820151816000015560208201518160010155905050620000f76040805190810160405280600181526020017f5600000000000000000000000000000000000000000000000000000000000000815250620002e0640100000000026401000000009004565b6082600082015181600001556020820151816001015590505060008090505b60208110156200022457620001706040805190810160405280600181526020017f47000000000000000000000000000000000000000000000000000000000000008152508262000363640100000000026401000000009004565b6000826020811015156200018057fe5b600202016000820151816000015560208201518160010155905050620001eb6040805190810160405280600181526020017f48000000000000000000000000000000000000000000000000000000000000008152508262000363640100000000026401000000009004565b604082602081101515620001fb57fe5b600202016000820151816000015560208201518160010155905050808060010191505062000116565b506200070b565b62000235620005ae565b60018160006020811015156200024757fe5b602002018181525050818160016020811015156200026157fe5b6020020181815250506000600290505b6020811015620002da57620002b48383600184036020811015156200029257fe5b6020020151620003e964010000000002620014f7179091906401000000009004565b8282602081101515620002c357fe5b602002018181525050808060010191505062000271565b50919050565b620002ea620005d2565b6200035c7f30644e72e131a029b85045b68181585d97816a916871ca8d3c208c16d87cfd478360405160200162000322919062000666565b60405160208183030381529060405280519060200120600190048115156200034657fe5b0662000421640100000000026401000000009004565b9050919050565b6200036d620005d2565b620003e17f30644e72e131a029b85045b68181585d97816a916871ca8d3c208c16d87cfd478484604051602001620003a79291906200067f565b6040516020818303038152906040528051906020012060019004811515620003cb57fe5b0662000421640100000000026401000000009004565b905092915050565b60007f30644e72e131a029b85045b68181585d2833e84879b9709143e1f593f00000018015156200041657fe5b828409905092915050565b6200042b620005d2565b60005b600115620004de576000600362000456856003620004fb640100000000026401000000009004565b019050620004a481600460017f30644e72e131a029b85045b68181585d97816a916871ca8d3c208c16d87cfd47018115156200048e57fe5b04620004fb640100000000026401000000009004565b915080620004c3836002620004fb640100000000026401000000009004565b1415620004d15750620004de565b600184019350506200042e565b604080519081016040528084815260200182815250915050919050565b6000807f30644e72e131a029b85045b68181585d97816a916871ca8d3c208c16d87cfd47905060405160208152602080820152602060408201528460608201528360808201528160a082015260208160c08360055afa15156200055d57600080fd5b80519250505092915050565b82602081019282156200059b579160200282015b828111156200059a5782518255916020019190600101906200057d565b5b509050620005aa9190620005ec565b5090565b61040060405190810160405280602090602082028038833980820191505090505090565b604080519081016040528060008152602001600081525090565b6200061191905b808211156200060d576000816000905550600101620005f3565b5090565b90565b60006200062182620006ab565b6200062d8185620006b6565b93506200063f818560208601620006cb565b80840191505092915050565b620006606200065a82620006c1565b62000701565b82525050565b600062000674828462000614565b915081905092915050565b60006200068d828562000614565b91506200069b82846200064b565b6020820191508190509392505050565b600081519050919050565b600081905092915050565b6000819050919050565b60005b83811015620006eb578082015181840152602081019050620006ce565b83811115620006fb576000848401525b50505050565b6000819050919050565b6127af806200071b6000396000f3fe608060405234801561001057600080fd5b5060043610610053576000357c0100000000000000000000000000000000000000000000000000000000900480636e1a999e1461005857806382d23b8a14610088575b600080fd5b610072600480360361006d9190810190612048565b6100b8565b60405161007f91906123c1565b60405180910390f35b6100a2600480360361009d9190810190612115565b610267565b6040516100af919061241c565b60405180910390f35b60006100c2611aae565b60408051908101604052808b60006002811015156100dc57fe5b60200201516001900481526020018b60016002811015156100f957fe5b602002015160019004815250816000018190525060408051908101604052808a600060028110151561012757fe5b60200201516001900481526020018a600160028110151561014457fe5b6020020151600190048152508160200181905250604080519081016040528089600060028110151561017257fe5b602002015160019004815260200189600160028110151561018f57fe5b6020020151600190048152508160400181905250868160600181815250508581608001818152505060408051908101604052808660006002811015156101d157fe5b60200201516001900481526020018660016002811015156101ee57fe5b6020020151600190048152508160c00181905250838160a0019073ffffffffffffffffffffffffffffffffffffffff16908173ffffffffffffffffffffffffffffffffffffffff1681525050610242611b1b565b61024b846102ad565b90506102578282610593565b9250505098975050505050505050565b61026f611ba8565b6040518351815260208401516020820152825160408201526020830151606082015260408260808360065afa15156102a657600080fd5b5092915050565b6102b5611b1b565b60408051908101604052806102cb84600061139f565b81526020016102db84602061139f565b815250816000018190525060408051908101604052806102fc84604061139f565b815260200161030c84606061139f565b8152508160200181905250604080519081016040528061032d84608061139f565b815260200161033d8460a061139f565b8152508160400181905250604080519081016040528061035e8460c061139f565b815260200161036e8460e061139f565b81525081606001819052506040805190810160405280604080519081016040528061039b8661010061139f565b81526020016103ac8661012061139f565b815250815260200160408051908101604052806103cb8661014061139f565b81526020016103dc8661016061139f565b81525081525081608001819052506103f68261018061139f565b8160a001818152505061040b826101a061139f565b8160c0018181525050610420826101c061139f565b8160e0018181525050610435826101e061139f565b8161010001818152505061044b8261020061139f565b816101200181815250506104618261022061139f565b816101400181815250506104778261024061139f565b81610160018181525050610489611bc2565b60008090505b60058110156105495760408051908101604052806104b486604085026102600161139f565b81526020016104ca86604085026102800161139f565b8152508260000151826005811015156104df57fe5b6020020181905250604080519081016040528061050686604085600501026102600161139f565b815260200161051f86604085600501026102800161139f565b81525082602001518260058110151561053457fe5b6020020181905250808060010191505061048f565b5061055c8360806005026102600161139f565b8160400181815250506105778360806005026102800161139f565b8160600181815250508082610180018190525081915050919050565b6000806105eb846000015185602001518660400151876060015188608001518960a001516040516020016105cc96959493929190612437565b60405160208183030381529060405280519060200120600190046113b8565b90506105f5611bf8565b610640828560000151866020015187604001518860600151604051602001610621959493929190612515565b60405160208183030381529060405280519060200120600190046113b8565b81600001818152505061065681600001516113ed565b81602001819052506106958160000151604051602001610676919061249a565b60405160208183030381529060405280519060200120600190046113b8565b8160400181815250506020604051908101604052806106c26002846040015161148a90919063ffffffff16565b81525081606001819052506106fb8160400151826060015160006001811015156106e857fe5b60200201516114f790919063ffffffff16565b816080018181525050610792610738826080015161072a602060020a85608001516114f790919063ffffffff16565b61152e90919063ffffffff16565b6107846107698460600151600060018110151561075157fe5b6020020151856040015161152e90919063ffffffff16565b610776856020015161156e565b6114f790919063ffffffff16565b61152e90919063ffffffff16565b816101000181815250506107b88161010001518560a0015161152e90919063ffffffff16565b8160e001818152505061081f60846020806020026040519081016040528092919082602080156107fd576020028201915b8154815260200190600101908083116107e9575b50505050508260600151600060018110151561081557fe5b60200201516115b9565b8160a00181905250610864816040015185608001516040516020016108459291906124b5565b60405160208183030381529060405280519060200120600190046113b8565b8160c00181815250506108d56108958560800151600060028110151561088657fe5b60200201518360c00151611620565b6108d0866080015160016002811015156108ab57fe5b60200201516108cb8560c001518660c001516114f790919063ffffffff16565b611620565b610267565b8161012001819052506108e6611c64565b610938610918608060408051908101604052908160008201548152602001600182015481525050876101200151611620565b610933886040015161092e89610100015161165b565b611620565b610267565b81602001819052506109836040805190810160405280600681526020017f5a657468657200000000000000000000000000000000000000000000000000008152508760800151611687565b81604001819052506109c16109a18260400151876101200151611620565b6109bc8860c001516109b789610100015161165b565b611620565b610267565b8160600181905250610a39610a1c6109ef6109e489602001518960600151610267565b886101200151611620565b610a17610a048a600001518a60400151610267565b610a128a610100015161165b565b611620565b610267565b83606001516000600181101515610a2f57fe5b6020020151611620565b8160800181905250610ad6610acc610ac1610aae610a7b6080604080519081016040529081600082015481526020016001820154815250508760e00151611620565b610aa96082604080519081016040529081600082015481526020016001820154815250508b60c00151611620565b610267565b610abc8661012001516116f7565b610267565b876101000151611620565b8260800151610267565b8160a00181905250610b4b610b10608060408051908101604052908160008201548152602001600182015481525050876101400151611620565b610b46610b268960200151896101200151611620565b610b418a60000151610b3c8b610100015161165b565b611620565b610267565b610267565b8160c00181905250610bc0610b85608260408051908101604052908160008201548152602001600182015481525050876101600151611620565b610bbb610b9b8860600151896101200151611620565b610bb68960400151610bb18b610100015161165b565b611620565b610267565b610267565b8160e00181905250610c1d8260c00151826020015183606001518460a001518560c001518660e00151604051602001610bfe96959493929190612569565b60405160208183030381529060405280519060200120600190046113b8565b8160000181815250508461010001518160000151141515610c73576040517f08c379a0000000000000000000000000000000000000000000000000000000008152600401610c6a906123dc565b60405180910390fd5b610c7b611cd4565b610cb28260000151604051602001610c93919061249a565b60405160208183030381529060405280519060200120600190046113b8565b816080018181525050610ce96080604080519081016040529081600082015481526020016001820154815250508260800151611620565b8160000181905250610d576040602080602002604051908101604052809291906000905b82821015610d49578382600202016040805190810160405290816000820154815260200160018201548152505081526020019060010190610d0d565b505050508460200151611770565b8160200181905250610d7e610d74846020015185604001516115b9565b8460a001516117e7565b8160400181905250610e3d610e26610dab8860000151610da68a602001518860c00151611620565b610267565b610e21610e0f6000602080602002604051908101604052809291906000905b82821015610e06578382600202016040805190810160405290816000820154815260200160018201548152505081526020019060010190610dca565b50505050611860565b610e1c886040015161165b565b611620565b610267565b610e38836020015184604001516118a8565b610267565b8160600181905250610e888160600151610e83608260408051908101604052908160008201548152602001600182015481525050610e7e8a60e0015161165b565b611620565b610267565b8160600181905250610eaf8160600151610eaa83600001518960a00151611620565b610267565b8160600181905250610ebf611bc2565b866101800151905060008090505b600581101561100c57610f3d8360800151836000015183600581101515610ef057fe5b6020020151846020015184600581101515610f0757fe5b6020020151604051602001610f1e939291906124de565b60405160208183030381529060405280519060200120600190046113b8565b83608001818152505082608001518360a0015182600581101515610f5d57fe5b6020020181815250506000610f75846080015161190c565b9050610ff68460600151610ff1610fb9866000015186600581101515610f9757fe5b6020020151610fb460028a6080015161148a90919063ffffffff16565b611620565b610fec876020015187600581101515610fce57fe5b6020020151610fe760028861148a90919063ffffffff16565b611620565b610267565b610267565b8460600181905250508080600101915050610ecd565b5060018260c00151600060208110151561102257fe5b60200201818152505060008090505b60058110156110a35761107a8360a001518260058110151561104f57fe5b60200201518460c00151600060208110151561106757fe5b60200201516114f790919063ffffffff16565b8360c00151600060208110151561108d57fe5b6020020181815250508080600101915050611031565b506110ac611d37565b6110cc8360c0015160006020811015156110c257fe5b602002015161190c565b8360c0015160006020811015156110df57fe5b60200201818152505060008090505b600260208115156110fb57fe5b0481101561120e5760008090505b6020828260019060020a020110156112025760008160019060020a0283019050838160208110151561113757fe5b602002015115156111f657600061118f8760a001518460016005030360058110151561115f57fe5b60200201518860a001518560016005030360058110151561117c57fe5b60200201516114f790919063ffffffff16565b90506111ba818860c00151866020811015156111a757fe5b60200201516114f790919063ffffffff16565b8760c00151836020811015156111cc57fe5b602002018181525050600185836020811015156111e557fe5b602002019015159081151581525050505b50806001019050611109565b508060010190506110ee565b50611217611ba8565b61121f611ba8565b60008090505b60208110156112de576112888361128360008460208110151561124457fe5b60020201604080519081016040529081600082015481526020016001820154815250508960c001518560208110151561127957fe5b6020020151611620565b610267565b92506112cf826112ca8860200151846020811015156112a357fe5b60200201518960c00151856001602003036020811015156112c057fe5b6020020151611620565b610267565b91508080600101915050611225565b506112e7611ba8565b61133b61130e6112fb858860400151611620565b611309858960600151611620565b610267565b611336886000015161133189606001518a604001516114f790919063ffffffff16565b611620565b610267565b905061134b866060015182611942565b151561138c576040517f08c379a0000000000000000000000000000000000000000000000000000000008152600401611383906123fc565b60405180910390fd5b6001995050505050505050505092915050565b6000604051826020850101518152805191505092915050565b60007f30644e72e131a029b85045b68181585d2833e84879b9709143e1f593f0000001828115156113e557fe5b069050919050565b6113f5611d5b565b600181600060208110151561140657fe5b6020020181815250508181600160208110151561141f57fe5b6020020181815250506000600290505b60208110156114845761146083836001840360208110151561144d57fe5b60200201516114f790919063ffffffff16565b828260208110151561146e57fe5b602002018181525050808060010191505061142f565b50919050565b6000807f30644e72e131a029b85045b68181585d2833e84879b9709143e1f593f0000001905060405160208152602080820152602060408201528460608201528360808201528160a082015260208160c08360055afa15156114eb57600080fd5b80519250505092915050565b60007f30644e72e131a029b85045b68181585d2833e84879b9709143e1f593f000000180151561152357fe5b828409905092915050565b6000818310156115625782827f30644e72e131a029b85045b68181585d2833e84879b9709143e1f593f00000010301611566565b8183035b905092915050565b600080600090505b60208110156115b3576115a4838260208110151561159057fe5b60200201518361196a90919063ffffffff16565b91508080600101915050611576565b50919050565b6115c1611d5b565b60008090505b6020811015611619576115f58385836020811015156115e257fe5b60200201516114f790919063ffffffff16565b828260208110151561160357fe5b60200201818152505080806001019150506115c7565b5092915050565b611628611ba8565b604051835181526020840151602082015282604082015260408260608360075afa151561165457600080fd5b5092915050565b6000817f30644e72e131a029b85045b68181585d2833e84879b9709143e1f593f0000001039050919050565b61168f611ba8565b6116ef7f30644e72e131a029b85045b68181585d97816a916871ca8d3c208c16d87cfd4784846040516020016116c6929190612399565b60405160208183030381529060405280519060200120600190048115156116e957fe5b066119a1565b905092915050565b6116ff611ba8565b6040805190810160405280836000015181526020017f30644e72e131a029b85045b68181585d97816a916871ca8d3c208c16d87cfd47846020015181151561174357fe5b067f30644e72e131a029b85045b68181585d97816a916871ca8d3c208c16d87cfd47038152509050919050565b611778611d7f565b60008090505b60208110156117e0576117bd848260208110151561179857fe5b60200201516117b885846020811015156117ae57fe5b602002015161190c565b611620565b82826020811015156117cb57fe5b6020020181905250808060010191505061177e565b5092915050565b6117ef611d5b565b60008090505b602081101561185957611835838260208110151561180f57fe5b6020020151858360208110151561182257fe5b602002015161196a90919063ffffffff16565b828260208110151561184357fe5b60200201818152505080806001019150506117f5565b5092915050565b611868611ba8565b60008090505b60208110156118a25761189382848360208110151561188957fe5b6020020151610267565b9150808060010191505061186e565b50919050565b6118b0611ba8565b60008090505b6020811015611905576118f6826118f186846020811015156118d457fe5b602002015186856020811015156118e757fe5b6020020151611620565b610267565b915080806001019150506118b6565b5092915050565b600061193b8260027f30644e72e131a029b85045b68181585d2833e84879b9709143e1f593f00000010361148a565b9050919050565b600081600001518360000151148015611962575081602001518360200151145b905092915050565b60007f30644e72e131a029b85045b68181585d2833e84879b9709143e1f593f000000180151561199657fe5b828408905092915050565b6119a9611ba8565b60005b600115611a2457600060036119c2856003611a41565b0190506119fe81600460017f30644e72e131a029b85045b68181585d97816a916871ca8d3c208c16d87cfd47018115156119f857fe5b04611a41565b915080611a0c836002611a41565b1415611a185750611a24565b600184019350506119ac565b604080519081016040528084815260200182815250915050919050565b6000807f30644e72e131a029b85045b68181585d97816a916871ca8d3c208c16d87cfd47905060405160208152602080820152602060408201528460608201528360808201528160a082015260208160c08360055afa1515611aa257600080fd5b80519250505092915050565b61016060405190810160405280611ac3611dae565b8152602001611ad0611dae565b8152602001611add611dae565b81526020016000815260200160008152602001600073ffffffffffffffffffffffffffffffffffffffff168152602001611b15611dae565b81525090565b61052060405190810160405280611b30611dae565b8152602001611b3d611dae565b8152602001611b4a611dae565b8152602001611b57611dae565b8152602001611b64611dc8565b815260200160008152602001600081526020016000815260200160008152602001600081526020016000815260200160008152602001611ba2611df6565b81525090565b604080519081016040528060008152602001600081525090565b6102c060405190810160405280611bd7611e2c565b8152602001611be4611e2c565b815260200160008152602001600081525090565b6109206040519081016040528060008152602001611c14611e5b565b815260200160008152602001611c28611e7f565b815260200160008152602001611c3c611e5b565b8152602001600081526020016000815260200160008152602001611c5e611dae565b81525090565b6101e06040519081016040528060008152602001611c80611dae565b8152602001611c8d611dae565b8152602001611c9a611dae565b8152602001611ca7611dae565b8152602001611cb4611dae565b8152602001611cc1611dae565b8152602001611cce611dae565b81525090565b61114060405190810160405280611ce9611dae565b8152602001611cf6611ea2565b8152602001611d03611e5b565b8152602001611d10611dae565b815260200160008152602001611d24611ed1565b8152602001611d31611e5b565b81525090565b61040060405190810160405280602090602082028038833980820191505090505090565b61040060405190810160405280602090602082028038833980820191505090505090565b610800604051908101604052806020905b611d98611dae565b815260200190600190039081611d905790505090565b604080519081016040528060008152602001600081525090565b6080604051908101604052806002905b611de0611dae565b815260200190600190039081611dd85790505090565b6102c060405190810160405280611e0b611e2c565b8152602001611e18611e2c565b815260200160008152602001600081525090565b610140604051908101604052806005905b611e45611dae565b815260200190600190039081611e3d5790505090565b61040060405190810160405280602090602082028038833980820191505090505090565b602060405190810160405280600190602082028038833980820191505090505090565b610800604051908101604052806020905b611ebb611dae565b815260200190600190039081611eb35790505090565b60a060405190810160405280600590602082028038833980820191505090505090565b6000611f0082356126e3565b905092915050565b600082601f8301121515611f1b57600080fd5b6002611f2e611f29826125f9565b6125cc565b91508183856020840282011115611f4457600080fd5b60005b83811015611f745781611f5a8882611f7e565b845260208401935060208301925050600181019050611f47565b5050505092915050565b6000611f8a82356126f5565b905092915050565b600082601f8301121515611fa557600080fd5b8135611fb8611fb38261261b565b6125cc565b91508082526020830160208301858383011115611fd457600080fd5b611fdf838284612729565b50505092915050565b600060408284031215611ffa57600080fd5b61200460406125cc565b9050600061201484828501612034565b600083015250602061202884828501612034565b60208301525092915050565b6000612040823561271f565b905092915050565b600080600080600080600080610180898b03121561206557600080fd5b60006120738b828c01611f08565b98505060406120848b828c01611f08565b97505060806120958b828c01611f08565b96505060c06120a68b828c01612034565b95505060e06120b78b828c01612034565b9450506101006120c98b828c01611f08565b9350506101406120db8b828c01611ef4565b92505061016089013567ffffffffffffffff8111156120f957600080fd5b6121058b828c01611f92565b9150509295985092959890939650565b6000806080838503121561212857600080fd5b600061213685828601611fe8565b925050604061214785828601611fe8565b9150509250929050565b600061215d8383612306565b60408301905092915050565b6121728161269b565b82525050565b61218181612651565b61218b8184612674565b925061219682612647565b60005b828110156121c4576121ac858351612151565b94506121b782612667565b9150600181019050612199565b5050505050565b6121d4816126ad565b82525050565b60006121e58261265c565b6121ef8185612690565b93506121ff818560208601612738565b80840191505092915050565b6000612218602a8361267f565b91507f5369676d612070726f746f636f6c206368616c6c656e676520657175616c697460008301527f79206661696c7572652e000000000000000000000000000000000000000000006020830152604082019050919050565b600061227e60258361267f565b91507f496e6e65722070726f6475637420657175616c69747920636865636b2066616960008301527f6c7572652e0000000000000000000000000000000000000000000000000000006020830152604082019050919050565b6040820160008201516122ed6000850182612364565b5060208201516123006020850182612364565b50505050565b60408201600082015161231c6000850182612364565b50602082015161232f6020850182612364565b50505050565b60408201600082015161234b6000850182612364565b50602082015161235e6020850182612364565b50505050565b61236d816126d9565b82525050565b61237c816126d9565b82525050565b61239361238e826126d9565b61276b565b82525050565b60006123a582856121da565b91506123b18284612382565b6020820191508190509392505050565b60006020820190506123d660008301846121cb565b92915050565b600060208201905081810360008301526123f58161220b565b9050919050565b6000602082019050818103600083015261241581612271565b9050919050565b600060408201905061243160008301846122d7565b92915050565b60006101208201905061244d6000830189612335565b61245a6040830188612335565b6124676080830187612335565b61247460c0830186612373565b61248160e0830185612373565b61248f610100830184612169565b979650505050505050565b60006020820190506124af6000830184612373565b92915050565b600060a0820190506124ca6000830185612373565b6124d76020830184612178565b9392505050565b600060a0820190506124f36000830186612373565b6125006020830185612335565b61250d6060830184612335565b949350505050565b60006101208201905061252b6000830188612373565b6125386020830187612335565b6125456060830186612335565b61255260a0830185612335565b61255f60e0830184612335565b9695505050505050565b60006101608201905061257f6000830189612373565b61258c6020830188612335565b6125996060830187612335565b6125a660a0830186612335565b6125b360e0830185612335565b6125c1610120830184612335565b979650505050505050565b6000604051905081810181811067ffffffffffffffff821117156125ef57600080fd5b8060405250919050565b600067ffffffffffffffff82111561261057600080fd5b602082029050919050565b600067ffffffffffffffff82111561263257600080fd5b601f19601f8301169050602081019050919050565b6000819050919050565b600060029050919050565b600081519050919050565b6000602082019050919050565b600081905092915050565b600082825260208201905092915050565b600081905092915050565b60006126a6826126b9565b9050919050565b60008115159050919050565b600073ffffffffffffffffffffffffffffffffffffffff82169050919050565b6000819050919050565b60006126ee826126ff565b9050919050565b6000819050919050565b600073ffffffffffffffffffffffffffffffffffffffff82169050919050565b6000819050919050565b82818337600083830152505050565b60005b8381101561275657808201518184015260208101905061273b565b83811115612765576000848401525b50505050565b600081905091905056fea265627a7a7230582019a752fcb4f5e72789fbfff4cf7097fdd99bc671775cb02fe4a813530d64f2306c6578706572696d656e74616cf50037",
  "source": "pragma solidity 0.5.4;\npragma experimental ABIEncoderV2;\n\nimport \"./Utils.sol\";\n\ncontract BurnVerifier {\n    using Utils for uint256;\n\n    uint256 constant m = 32;\n    uint256 constant n = 5;\n    uint256 constant FIELD_ORDER = 21888242871839275222246405745257275088696311157297823662689037894645226208583;\n\n    G1Point[m] gs;\n    G1Point[m] hs;\n    G1Point g;\n    G1Point h;\n\n    uint256[m] twos = powers(2); // how much is this actually used?\n\n    struct BurnStatement {\n        G1Point CLn;\n        G1Point CRn;\n        G1Point y;\n        uint256 bTransfer;\n        uint256 epoch; // or uint8?\n        address sender;\n        G1Point u;\n    }\n\n    struct BurnProof {\n        G1Point A;\n        G1Point S;\n\n        G1Point CLnPrime;\n        G1Point CRnPrime;\n\n        G1Point[2] tCommits;\n        uint256 tHat;\n        uint256 tauX;\n        uint256 mu;\n\n        uint256 c;\n        uint256 s_sk;\n        uint256 s_vDiff;\n        uint256 s_nuDiff;\n\n        InnerProductProof ipProof;\n    }\n\n    struct InnerProductProof {\n        G1Point[n] ls;\n        G1Point[n] rs;\n        uint256 a;\n        uint256 b;\n    }\n\n    constructor() public {\n        g = mapInto(\"G\");\n        h = mapInto(\"V\");\n        for (uint256 i = 0; i < m; i++) {\n            gs[i] = mapInto(\"G\", i);\n            hs[i] = mapInto(\"H\", i);\n        }\n    } // will it be more expensive later on to sload these than to recompute them?\n\n    function verifyBurn(bytes32[2] memory CLn, bytes32[2] memory CRn, bytes32[2] memory y, uint256 bTransfer, uint256 epoch, bytes32[2] memory u, address sender, bytes memory proof) view public returns (bool) {\n        BurnStatement memory statement; // WARNING: if this is called directly in the console,\n        // and your strings are less than 64 characters, they will be padded on the right, not the left. should hopefully not be an issue,\n        // as this will typically be called simply by the other contract. still though, beware\n        statement.CLn = G1Point(uint256(CLn[0]), uint256(CLn[1]));\n        statement.CRn = G1Point(uint256(CRn[0]), uint256(CRn[1]));\n        statement.y = G1Point(uint256(y[0]), uint256(y[1]));\n        statement.bTransfer = bTransfer;\n        statement.epoch = epoch;\n        statement.u = G1Point(uint256(u[0]), uint256(u[1]));\n        statement.sender = sender;\n        BurnProof memory burnProof = unserialize(proof);\n        return verify(statement, burnProof);\n    }\n\n    struct BurnAuxiliaries {\n        uint256 y;\n        uint256[m] ys;\n        uint256 z;\n        uint256[1] zs; // silly. just to match zether.\n        uint256 zSum;\n        uint256[m] twoTimesZSquared;\n        uint256 x;\n        uint256 t;\n        uint256 k;\n        G1Point tEval;\n    }\n\n    struct SigmaAuxiliaries {\n        uint256 c;\n        G1Point A_y;\n        G1Point gEpoch;\n        G1Point A_u;\n        G1Point c_commit;\n        G1Point A_t;\n        G1Point A_CLn;\n        G1Point A_CLnPrime;\n    }\n\n    struct IPAuxiliaries {\n        G1Point u_x;\n        G1Point[m] hPrimes;\n        uint256[m] hExp;\n        G1Point P;\n        uint256 o;\n        uint256[n] challenges;\n        uint256[m] otherExponents;\n    }\n\n    function verify(BurnStatement memory statement, BurnProof memory proof) view internal returns (bool) {\n        uint256 statementHash = uint256(keccak256(abi.encode(statement.CLn, statement.CRn, statement.y, statement.bTransfer, statement.epoch, statement.sender))).mod(); // stacktoodeep?\n\n        BurnAuxiliaries memory burnAuxiliaries;\n        burnAuxiliaries.y = uint256(keccak256(abi.encode(statementHash, proof.A, proof.S, proof.CLnPrime, proof.CRnPrime))).mod();\n        burnAuxiliaries.ys = powers(burnAuxiliaries.y);\n        burnAuxiliaries.z = uint256(keccak256(abi.encode(burnAuxiliaries.y))).mod();\n        burnAuxiliaries.zs = [burnAuxiliaries.z.exp(2)];\n        burnAuxiliaries.zSum = burnAuxiliaries.zs[0].mul(burnAuxiliaries.z); // trivial sum\n        burnAuxiliaries.k = sumScalars(burnAuxiliaries.ys).mul(burnAuxiliaries.z.sub(burnAuxiliaries.zs[0])).sub(burnAuxiliaries.zSum.mul(2 ** m).sub(burnAuxiliaries.zSum));\n        burnAuxiliaries.t = proof.tHat.sub(burnAuxiliaries.k);\n        burnAuxiliaries.twoTimesZSquared = times(twos, burnAuxiliaries.zs[0]);\n\n        burnAuxiliaries.x = uint256(keccak256(abi.encode(burnAuxiliaries.z, proof.tCommits))).mod();\n        burnAuxiliaries.tEval = add(mul(proof.tCommits[0], burnAuxiliaries.x), mul(proof.tCommits[1], burnAuxiliaries.x.mul(burnAuxiliaries.x))); // replace with \"commit\"?\n\n        SigmaAuxiliaries memory sigmaAuxiliaries;\n        sigmaAuxiliaries.A_y = add(mul(g, proof.s_sk), mul(statement.y, proof.c.neg()));\n        sigmaAuxiliaries.gEpoch = mapInto(\"Zether\", statement.epoch);\n        sigmaAuxiliaries.A_u = add(mul(sigmaAuxiliaries.gEpoch, proof.s_sk), mul(statement.u, proof.c.neg()));\n        sigmaAuxiliaries.c_commit = mul(add(mul(add(statement.CRn, proof.CRnPrime), proof.s_sk), mul(add(statement.CLn, proof.CLnPrime), proof.c.neg())), burnAuxiliaries.zs[0]);\n        sigmaAuxiliaries.A_t = add(mul(add(add(mul(g, burnAuxiliaries.t), mul(h, proof.tauX)), neg(burnAuxiliaries.tEval)), proof.c), sigmaAuxiliaries.c_commit);\n        sigmaAuxiliaries.A_CLn = add(mul(g, proof.s_vDiff), add(mul(statement.CRn, proof.s_sk), mul(statement.CLn, proof.c.neg())));\n        sigmaAuxiliaries.A_CLnPrime = add(mul(h, proof.s_nuDiff), add(mul(proof.CRnPrime, proof.s_sk), mul(proof.CLnPrime, proof.c.neg())));\n\n        sigmaAuxiliaries.c = uint256(keccak256(abi.encode(burnAuxiliaries.x, sigmaAuxiliaries.A_y, sigmaAuxiliaries.A_u, sigmaAuxiliaries.A_t, sigmaAuxiliaries.A_CLn, sigmaAuxiliaries.A_CLnPrime))).mod();\n        require(sigmaAuxiliaries.c == proof.c, \"Sigma protocol challenge equality failure.\");\n\n        IPAuxiliaries memory ipAuxiliaries;\n        ipAuxiliaries.o = uint256(keccak256(abi.encode(sigmaAuxiliaries.c))).mod();\n        ipAuxiliaries.u_x = mul(g, ipAuxiliaries.o);\n        ipAuxiliaries.hPrimes = hadamardInv(hs, burnAuxiliaries.ys);\n        ipAuxiliaries.hExp = addVectors(times(burnAuxiliaries.ys, burnAuxiliaries.z), burnAuxiliaries.twoTimesZSquared);\n        ipAuxiliaries.P = add(add(add(proof.A, mul(proof.S, burnAuxiliaries.x)), mul(sumPoints(gs), burnAuxiliaries.z.neg())), commit(ipAuxiliaries.hPrimes, ipAuxiliaries.hExp));\n        ipAuxiliaries.P = add(ipAuxiliaries.P, mul(h, proof.mu.neg()));\n        ipAuxiliaries.P = add(ipAuxiliaries.P, mul(ipAuxiliaries.u_x, proof.tHat));\n\n        // begin inner product verification\n        InnerProductProof memory ipProof = proof.ipProof;\n        for (uint256 i = 0; i < n; i++) {\n            ipAuxiliaries.o = uint256(keccak256(abi.encode(ipAuxiliaries.o, ipProof.ls[i], ipProof.rs[i]))).mod();\n            ipAuxiliaries.challenges[i] = ipAuxiliaries.o; // overwrites value\n            uint256 xInv = ipAuxiliaries.o.inv();\n            ipAuxiliaries.P = add(ipAuxiliaries.P, add(mul(ipProof.ls[i], ipAuxiliaries.o.exp(2)), mul(ipProof.rs[i], xInv.exp(2))));\n        }\n\n        ipAuxiliaries.otherExponents[0] = 1;\n        for (uint256 i = 0; i < n; i++) {\n            ipAuxiliaries.otherExponents[0] = ipAuxiliaries.otherExponents[0].mul(ipAuxiliaries.challenges[i]);\n        }\n        bool[m] memory bitSet;\n        ipAuxiliaries.otherExponents[0] = ipAuxiliaries.otherExponents[0].inv();\n        for (uint256 i = 0; i < m/2; ++i) {\n            for (uint256 j = 0; (1 << j) + i < m; ++j) {\n                uint256 i1 = i + (1 << j);\n                if (!bitSet[i1]) {\n                    uint256 temp = ipAuxiliaries.challenges[n - 1 - j].mul(ipAuxiliaries.challenges[n - 1 - j]);\n                    ipAuxiliaries.otherExponents[i1] = ipAuxiliaries.otherExponents[i].mul(temp);\n                    bitSet[i1] = true;\n                }\n            }\n        }\n\n        G1Point memory gTemp;\n        G1Point memory hTemp;\n        for (uint256 i = 0; i < m; i++) {\n            gTemp = add(gTemp, mul(gs[i], ipAuxiliaries.otherExponents[i]));\n            hTemp = add(hTemp, mul(ipAuxiliaries.hPrimes[i], ipAuxiliaries.otherExponents[m - 1 - i]));\n        }\n        G1Point memory cProof = add(add(mul(gTemp, ipProof.a), mul(hTemp, ipProof.b)), mul(ipAuxiliaries.u_x, ipProof.a.mul(ipProof.b)));\n        require(eq(ipAuxiliaries.P, cProof), \"Inner product equality check failure.\");\n\n        return true;\n    }\n\n    function multiExpGs(uint256[m] memory ss) internal view returns (G1Point memory result) {\n        for (uint256 i = 0; i < m; i++) {\n            result = add(result, mul(gs[i], ss[i]));\n        }\n    }\n\n    function multiExpHsInversed(uint256[m] memory ss, G1Point[m] memory hs) internal view returns (G1Point memory result) {\n        for (uint256 i = 0; i < m; i++) {\n            result = add(result, mul(hs[i], ss[m - 1 - i]));\n        }\n    }\n\n    function unserialize(bytes memory arr) internal pure returns (BurnProof memory proof) {\n        proof.A = G1Point(slice(arr, 0), slice(arr, 32));\n        proof.S = G1Point(slice(arr, 64), slice(arr, 96));\n\n        proof.CLnPrime = G1Point(slice(arr, 128), slice(arr, 160));\n        proof.CRnPrime = G1Point(slice(arr, 192), slice(arr, 224));\n\n        proof.tCommits = [G1Point(slice(arr, 256), slice(arr, 288)), G1Point(slice(arr, 320), slice(arr, 352))];\n        proof.tHat = slice(arr, 384);\n        proof.tauX = slice(arr, 416);\n        proof.mu = slice(arr, 448);\n\n        proof.c = slice(arr, 480);\n        proof.s_sk = slice(arr, 512);\n        proof.s_vDiff = slice(arr, 544);\n        proof.s_nuDiff = slice(arr, 576);\n\n        InnerProductProof memory ipProof;\n        for (uint256 i = 0; i < n; i++) {\n            ipProof.ls[i] = G1Point(slice(arr, 608 + i * 64), slice(arr, 640 + i * 64));\n            ipProof.rs[i] = G1Point(slice(arr, 608 + (n + i) * 64), slice(arr, 640 + (n + i) * 64));\n        }\n        ipProof.a = slice(arr, 608 + n * 128);\n        ipProof.b = slice(arr, 640 + n * 128);\n        proof.ipProof = ipProof;\n\n        return proof;\n    }\n\n    function addVectors(uint256[m] memory a, uint256[m] memory b) internal pure returns (uint256[m] memory result) {\n        for (uint256 i = 0; i < m; i++) {\n            result[i] = a[i].add(b[i]);\n        }\n    }\n\n    function hadamardInv(G1Point[m] memory ps, uint256[m] memory ss) internal view returns (G1Point[m] memory result) {\n        for (uint256 i = 0; i < m; i++) {\n            result[i] = mul(ps[i], ss[i].inv());\n        }\n    }\n\n    function sumScalars(uint256[m] memory ys) internal pure returns (uint256 result) {\n        for (uint256 i = 0; i < m; i++) {\n            result = result.add(ys[i]);\n        }\n    }\n\n    function sumPoints(G1Point[m] memory ps) internal view returns (G1Point memory sum) {\n        for (uint256 i = 0; i < m; i++) {\n            sum = add(sum, ps[i]);\n        }\n    }\n\n    function commit(G1Point[m] memory ps, uint256[m] memory ss) internal view returns (G1Point memory result) {\n        for (uint256 i = 0; i < m; i++) {\n            result = add(result, mul(ps[i], ss[i]));\n        }\n    }\n\n    function powers(uint256 base) internal pure returns (uint256[m] memory powers) {\n        powers[0] = 1;\n        powers[1] = base;\n        for (uint256 i = 2; i < m; i++) {\n            powers[i] = powers[i - 1].mul(base);\n        }\n    }\n\n    function times(uint256[m] memory v, uint256 x) internal pure returns (uint256[m] memory result) {\n        for (uint256 i = 0; i < m; i++) {\n            result[i] = v[i].mul(x);\n        }\n    }\n\n    function slice(bytes memory input, uint256 start) internal pure returns (uint256 result) { // extracts exactly 32 bytes\n        assembly {\n            let m := mload(0x40)\n            mstore(m, mload(add(add(input, 0x20), start))) // why only 0x20?\n            result := mload(m)\n        }\n    }\n\n    struct G1Point {\n        uint256 x;\n        uint256 y;\n    }\n\n    function add(G1Point memory p1, G1Point memory p2) public view returns (G1Point memory r) {\n        assembly {\n            let m := mload(0x40)\n            mstore(m, mload(p1))\n            mstore(add(m, 0x20), mload(add(p1, 0x20)))\n            mstore(add(m, 0x40), mload(p2))\n            mstore(add(m, 0x60), mload(add(p2, 0x20)))\n            if iszero(staticcall(gas, 0x06, m, 0x80, r, 0x40)) {\n                revert(0, 0)\n            }\n        }\n    }\n\n    function mul(G1Point memory p, uint256 s) internal view returns (G1Point memory r) {\n        assembly {\n            let m := mload(0x40)\n            mstore(m, mload(p))\n            mstore(add(m, 0x20), mload(add(p, 0x20)))\n            mstore(add(m, 0x40), s)\n            if iszero(staticcall(gas, 0x07, m, 0x60, r, 0x40)) {\n                revert(0, 0)\n            }\n        }\n    }\n\n    function neg(G1Point memory p) internal pure returns (G1Point memory) {\n        return G1Point(p.x, FIELD_ORDER - (p.y % FIELD_ORDER)); // p.y should already be reduced mod P?\n    }\n\n    function eq(G1Point memory p1, G1Point memory p2) internal pure returns (bool) {\n        return p1.x == p2.x && p1.y == p2.y;\n    }\n\n    function fieldExp(uint256 base, uint256 exponent) internal view returns (uint256 output) { // warning: mod p, not q\n        uint256 order = FIELD_ORDER;\n        assembly {\n            let m := mload(0x40)\n            mstore(m, 0x20)\n            mstore(add(m, 0x20), 0x20)\n            mstore(add(m, 0x40), 0x20)\n            mstore(add(m, 0x60), base)\n            mstore(add(m, 0x80), exponent)\n            mstore(add(m, 0xa0), order)\n            if iszero(staticcall(gas, 0x05, m, 0xc0, m, 0x20)) { // staticcall or call?\n                revert(0, 0)\n            }\n            output := mload(m)\n        }\n    }\n\n    function mapInto(uint256 seed) internal view returns (G1Point memory) {\n        uint256 y;\n        while (true) {\n            uint256 ySquared = fieldExp(seed, 3) + 3; // addmod instead of add: waste of gas, plus function overhead cost\n            y = fieldExp(ySquared, (FIELD_ORDER + 1) / 4);\n            if (fieldExp(y, 2) == ySquared) {\n                break;\n            }\n            seed += 1;\n        }\n        return G1Point(seed, y);\n    }\n\n    function mapInto(string memory input) internal view returns (G1Point memory) {\n        return mapInto(uint256(keccak256(abi.encodePacked(input))) % FIELD_ORDER);\n    }\n\n    function mapInto(string memory input, uint256 i) internal view returns (G1Point memory) {\n        return mapInto(uint256(keccak256(abi.encodePacked(input, i))) % FIELD_ORDER);\n    }\n}\n",
  "sourcePath": "/Users/benediamond/anonymous-zether/packages/protocol/contracts/BurnVerifier.sol",
  "compiler": {
    "name": "solc",
    "version": "0.5.4+commit.9549d8ff.Emscripten.clang"
  },
  "schemaVersion": "3.0.9",
  "updatedAt": "2019-11-06T18:42:34.478Z",
  "devdoc": {
    "methods": {}
  },
  "userdoc": {
    "methods": {}
  }
}