{
  "contractName": "BurnVerifier",
  "abi": [
    {
      "inputs": [],
      "payable": false,
      "stateMutability": "nonpayable",
      "type": "constructor"
    },
    {
      "constant": true,
      "inputs": [
        {
          "name": "CLn",
          "type": "bytes32[2]"
        },
        {
          "name": "CRn",
          "type": "bytes32[2]"
        },
        {
          "name": "y",
          "type": "bytes32[2]"
        },
        {
          "name": "bTransfer",
          "type": "uint256"
        },
        {
          "name": "epoch",
          "type": "uint256"
        },
        {
          "name": "u",
          "type": "bytes32[2]"
        },
        {
          "name": "sender",
          "type": "address"
        },
        {
          "name": "proof",
          "type": "bytes"
        }
      ],
      "name": "verifyBurn",
      "outputs": [
        {
          "name": "",
          "type": "bool"
        }
      ],
      "payable": false,
      "stateMutability": "view",
      "type": "function"
    }
  ],
  "bytecode": "0x60806040523480156200001157600080fd5b50620000616040805190810160405280600181526020017f4700000000000000000000000000000000000000000000000000000000000000815250620001fd640100000000026401000000009004565b60806000820151816000015560208201518160010155905050620000c96040805190810160405280600181526020017f5600000000000000000000000000000000000000000000000000000000000000815250620001fd640100000000026401000000009004565b6082600082015181600001556020820151816001015590505060008090505b6020811015620001f657620001426040805190810160405280600181526020017f47000000000000000000000000000000000000000000000000000000000000008152508262000280640100000000026401000000009004565b6000826020811015156200015257fe5b600202016000820151816000015560208201518160010155905050620001bd6040805190810160405280600181526020017f48000000000000000000000000000000000000000000000000000000000000008152508262000280640100000000026401000000009004565b604082602081101515620001cd57fe5b6002020160008201518160000155602082015181600101559050508080600101915050620000e8565b506200055f565b620002076200044e565b620002797f30644e72e131a029b85045b68181585d97816a916871ca8d3c208c16d87cfd47836040516020016200023f9190620004ba565b60405160208183030381529060405280519060200120600190048115156200026357fe5b0662000306640100000000026401000000009004565b9050919050565b6200028a6200044e565b620002fe7f30644e72e131a029b85045b68181585d97816a916871ca8d3c208c16d87cfd478484604051602001620002c4929190620004d3565b6040516020818303038152906040528051906020012060019004811515620002e857fe5b0662000306640100000000026401000000009004565b905092915050565b620003106200044e565b60005b600115620003c357600060036200033b856003620003e0640100000000026401000000009004565b0190506200038981600460017f30644e72e131a029b85045b68181585d97816a916871ca8d3c208c16d87cfd47018115156200037357fe5b04620003e0640100000000026401000000009004565b915080620003a8836002620003e0640100000000026401000000009004565b1415620003b65750620003c3565b6001840193505062000313565b604080519081016040528084815260200182815250915050919050565b6000807f30644e72e131a029b85045b68181585d97816a916871ca8d3c208c16d87cfd47905060405160208152602080820152602060408201528460608201528360808201528160a082015260208160c08360055afa15156200044257600080fd5b80519250505092915050565b604080519081016040528060008152602001600081525090565b60006200047582620004ff565b6200048181856200050a565b9350620004938185602086016200051f565b80840191505092915050565b620004b4620004ae8262000515565b62000555565b82525050565b6000620004c8828462000468565b915081905092915050565b6000620004e1828562000468565b9150620004ef82846200049f565b6020820191508190509392505050565b600081519050919050565b600081905092915050565b6000819050919050565b60005b838110156200053f57808201518184015260208101905062000522565b838111156200054f576000848401525b50505050565b6000819050919050565b6126a1806200056f6000396000f3fe608060405234801561001057600080fd5b5060043610610048576000357c0100000000000000000000000000000000000000000000000000000000900480636e1a999e1461004d575b600080fd5b61006760048036036100629190810190611fc0565b61007d565b60405161007491906122ce565b60405180910390f35b6000610087611a72565b60408051908101604052808b60006002811015156100a157fe5b60200201516001900481526020018b60016002811015156100be57fe5b602002015160019004815250816000018190525060408051908101604052808a60006002811015156100ec57fe5b60200201516001900481526020018a600160028110151561010957fe5b6020020151600190048152508160200181905250604080519081016040528089600060028110151561013757fe5b602002015160019004815260200189600160028110151561015457fe5b60200201516001900481525081604001819052508681606001818152505085816080018181525050604080519081016040528086600060028110151561019657fe5b60200201516001900481526020018660016002811015156101b357fe5b6020020151600190048152508160c00181905250838160a0019073ffffffffffffffffffffffffffffffffffffffff16908173ffffffffffffffffffffffffffffffffffffffff1681525050610207611adf565b6102108461022c565b905061021c8282610512565b9250505098975050505050505050565b610234611adf565b604080519081016040528061024a84600061131d565b815260200161025a84602061131d565b8152508160000181905250604080519081016040528061027b84604061131d565b815260200161028b84606061131d565b815250816020018190525060408051908101604052806102ac84608061131d565b81526020016102bc8460a061131d565b815250816040018190525060408051908101604052806102dd8460c061131d565b81526020016102ed8460e061131d565b81525081606001819052506040805190810160405280604080519081016040528061031a8661010061131d565b815260200161032b8661012061131d565b8152508152602001604080519081016040528061034a8661014061131d565b815260200161035b8661016061131d565b81525081525081608001819052506103758261018061131d565b8160a001818152505061038a826101a061131d565b8160c001818152505061039f826101c061131d565b8160e00181815250506103b4826101e061131d565b816101000181815250506103ca8261020061131d565b816101200181815250506103e08261022061131d565b816101400181815250506103f68261024061131d565b81610160018181525050610408611b6c565b60008090505b60058110156104c857604080519081016040528061043386604085026102600161131d565b815260200161044986604085026102800161131d565b81525082600001518260058110151561045e57fe5b6020020181905250604080519081016040528061048586604085600501026102600161131d565b815260200161049e86604085600501026102800161131d565b8152508260200151826005811015156104b357fe5b6020020181905250808060010191505061040e565b506104db8360806005026102600161131d565b8160400181815250506104f68360806005026102800161131d565b8160600181815250508082610180018190525081915050919050565b60008061056a846000015185602001518660400151876060015188608001518960a0015160405160200161054b96959493929190612329565b6040516020818303038152906040528051906020012060019004611336565b9050610574611ba2565b6105bf8285600001518660200151876040015188606001516040516020016105a0959493929190612407565b6040516020818303038152906040528051906020012060019004611336565b8160000181815250506105d5816000015161136b565b816020018190525061061481600001516040516020016105f5919061238c565b6040516020818303038152906040528051906020012060019004611336565b8160400181815250506020604051908101604052806106416002846040015161140890919063ffffffff16565b815250816060018190525061067a81604001518260600151600060018110151561066757fe5b602002015161147590919063ffffffff16565b8160800181815250506107116106b782608001516106a9602060020a856080015161147590919063ffffffff16565b6114ac90919063ffffffff16565b6107036106e8846060015160006001811015156106d057fe5b602002015185604001516114ac90919063ffffffff16565b6106f585602001516114ec565b61147590919063ffffffff16565b6114ac90919063ffffffff16565b816101000181815250506107378161010001518560a001516114ac90919063ffffffff16565b8160e001818152505060008090505b60208110156107a45761077c8160020a8360600151600060018110151561076957fe5b602002015161147590919063ffffffff16565b8260a001518260208110151561078e57fe5b6020020181815250508080600101915050610746565b506107e2816040015185608001516040516020016107c39291906123a7565b6040516020818303038152906040528051906020012060019004611336565b8160c00181815250506108536108138560800151600060028110151561080457fe5b60200201518360c00151611537565b61084e8660800151600160028110151561082957fe5b60200201516108498560c001518660c0015161147590919063ffffffff16565b611537565b611572565b816101200181905250610864611c0e565b6108b6610896608060408051908101604052908160008201548152602001600182015481525050876101200151611537565b6108b188604001516108ac8961010001516115b8565b611537565b611572565b81602001819052506109016040805190810160405280600681526020017f5a6574686572000000000000000000000000000000000000000000000000000081525087608001516115e4565b816040018190525061093f61091f8260400151876101200151611537565b61093a8860c001516109358961010001516115b8565b611537565b611572565b81606001819052506109b761099a61096d61096289602001518960600151611572565b886101200151611537565b6109956109828a600001518a60400151611572565b6109908a61010001516115b8565b611537565b611572565b836060015160006001811015156109ad57fe5b6020020151611537565b8160800181905250610a54610a4a610a3f610a2c6109f96080604080519081016040529081600082015481526020016001820154815250508760e00151611537565b610a276082604080519081016040529081600082015481526020016001820154815250508b60c00151611537565b611572565b610a3a866101200151611654565b611572565b876101000151611537565b8260800151611572565b8160a00181905250610ac9610a8e608060408051908101604052908160008201548152602001600182015481525050876101400151611537565b610ac4610aa48960200151896101200151611537565b610abf8a60000151610aba8b61010001516115b8565b611537565b611572565b611572565b8160c00181905250610b3e610b03608260408051908101604052908160008201548152602001600182015481525050876101600151611537565b610b39610b198860600151896101200151611537565b610b348960400151610b2f8b61010001516115b8565b611537565b611572565b611572565b8160e00181905250610b9b8260c00151826020015183606001518460a001518560c001518660e00151604051602001610b7c9695949392919061245b565b6040516020818303038152906040528051906020012060019004611336565b8160000181815250508461010001518160000151141515610bf1576040517f08c379a0000000000000000000000000000000000000000000000000000000008152600401610be8906122e9565b60405180910390fd5b610bf9611c7e565b610c308260000151604051602001610c11919061238c565b6040516020818303038152906040528051906020012060019004611336565b816080018181525050610c676080604080519081016040529081600082015481526020016001820154815250508260800151611537565b8160000181905250610cd56040602080602002604051908101604052809291906000905b82821015610cc7578382600202016040805190810160405290816000820154815260200160018201548152505081526020019060010190610c8b565b5050505084602001516116cd565b8160200181905250610cfc610cf284602001518560400151611744565b8460a001516117ab565b8160400181905250610dbb610da4610d298860000151610d248a602001518860c00151611537565b611572565b610d9f610d8d6000602080602002604051908101604052809291906000905b82821015610d84578382600202016040805190810160405290816000820154815260200160018201548152505081526020019060010190610d48565b50505050611824565b610d9a88604001516115b8565b611537565b611572565b610db68360200151846040015161186c565b611572565b8160600181905250610e068160600151610e01608260408051908101604052908160008201548152602001600182015481525050610dfc8a60e001516115b8565b611537565b611572565b8160600181905250610e2d8160600151610e2883600001518960a00151611537565b611572565b8160600181905250610e3d611b6c565b866101800151905060008090505b6005811015610f8a57610ebb8360800151836000015183600581101515610e6e57fe5b6020020151846020015184600581101515610e8557fe5b6020020151604051602001610e9c939291906123d0565b6040516020818303038152906040528051906020012060019004611336565b83608001818152505082608001518360a0015182600581101515610edb57fe5b6020020181815250506000610ef384608001516118d0565b9050610f748460600151610f6f610f37866000015186600581101515610f1557fe5b6020020151610f3260028a6080015161140890919063ffffffff16565b611537565b610f6a876020015187600581101515610f4c57fe5b6020020151610f6560028861140890919063ffffffff16565b611537565b611572565b611572565b8460600181905250508080600101915050610e4b565b5060018260c001516000602081101515610fa057fe5b60200201818152505060008090505b600581101561102157610ff88360a0015182600581101515610fcd57fe5b60200201518460c001516000602081101515610fe557fe5b602002015161147590919063ffffffff16565b8360c00151600060208110151561100b57fe5b6020020181815250508080600101915050610faf565b5061102a611ce1565b61104a8360c00151600060208110151561104057fe5b60200201516118d0565b8360c00151600060208110151561105d57fe5b60200201818152505060008090505b6002602081151561107957fe5b0481101561118c5760008090505b6020828260019060020a020110156111805760008160019060020a028301905083816020811015156110b557fe5b6020020151151561117457600061110d8760a00151846001600503036005811015156110dd57fe5b60200201518860a00151856001600503036005811015156110fa57fe5b602002015161147590919063ffffffff16565b9050611138818860c001518660208110151561112557fe5b602002015161147590919063ffffffff16565b8760c001518360208110151561114a57fe5b6020020181815250506001858360208110151561116357fe5b602002019015159081151581525050505b50806001019050611087565b5080600101905061106c565b50611195611d05565b61119d611d05565b60008090505b602081101561125c57611206836112016000846020811015156111c257fe5b60020201604080519081016040529081600082015481526020016001820154815250508960c00151856020811015156111f757fe5b6020020151611537565b611572565b925061124d8261124888602001518460208110151561122157fe5b60200201518960c001518560016020030360208110151561123e57fe5b6020020151611537565b611572565b915080806001019150506111a3565b50611265611d05565b6112b961128c611279858860400151611537565b611287858960600151611537565b611572565b6112b488600001516112af89606001518a6040015161147590919063ffffffff16565b611537565b611572565b90506112c9866060015182611906565b151561130a576040517f08c379a000000000000000000000000000000000000000000000000000000000815260040161130190612309565b60405180910390fd5b6001995050505050505050505092915050565b6000604051826020850101518152805191505092915050565b60007f30644e72e131a029b85045b68181585d2833e84879b9709143e1f593f00000018281151561136357fe5b069050919050565b611373611d1f565b600181600060208110151561138457fe5b6020020181815250508181600160208110151561139d57fe5b6020020181815250506000600290505b6020811015611402576113de8383600184036020811015156113cb57fe5b602002015161147590919063ffffffff16565b82826020811015156113ec57fe5b60200201818152505080806001019150506113ad565b50919050565b6000807f30644e72e131a029b85045b68181585d2833e84879b9709143e1f593f0000001905060405160208152602080820152602060408201528460608201528360808201528160a082015260208160c08360055afa151561146957600080fd5b80519250505092915050565b60007f30644e72e131a029b85045b68181585d2833e84879b9709143e1f593f00000018015156114a157fe5b828409905092915050565b6000818310156114e05782827f30644e72e131a029b85045b68181585d2833e84879b9709143e1f593f000000103016114e4565b8183035b905092915050565b600080600090505b602081101561153157611522838260208110151561150e57fe5b60200201518361192e90919063ffffffff16565b915080806001019150506114f4565b50919050565b61153f611d05565b604051835181526020840151602082015282604082015260408260608360075afa151561156b57600080fd5b5092915050565b61157a611d05565b6040518351815260208401516020820152825160408201526020830151606082015260408260808360065afa15156115b157600080fd5b5092915050565b6000817f30644e72e131a029b85045b68181585d2833e84879b9709143e1f593f0000001039050919050565b6115ec611d05565b61164c7f30644e72e131a029b85045b68181585d97816a916871ca8d3c208c16d87cfd4784846040516020016116239291906122a6565b604051602081830303815290604052805190602001206001900481151561164657fe5b06611965565b905092915050565b61165c611d05565b6040805190810160405280836000015181526020017f30644e72e131a029b85045b68181585d97816a916871ca8d3c208c16d87cfd4784602001518115156116a057fe5b067f30644e72e131a029b85045b68181585d97816a916871ca8d3c208c16d87cfd47038152509050919050565b6116d5611d43565b60008090505b602081101561173d5761171a84826020811015156116f557fe5b6020020151611715858460208110151561170b57fe5b60200201516118d0565b611537565b828260208110151561172857fe5b602002018190525080806001019150506116db565b5092915050565b61174c611d1f565b60008090505b60208110156117a45761178083858360208110151561176d57fe5b602002015161147590919063ffffffff16565b828260208110151561178e57fe5b6020020181815250508080600101915050611752565b5092915050565b6117b3611d1f565b60008090505b602081101561181d576117f983826020811015156117d357fe5b602002015185836020811015156117e657fe5b602002015161192e90919063ffffffff16565b828260208110151561180757fe5b60200201818152505080806001019150506117b9565b5092915050565b61182c611d05565b60008090505b60208110156118665761185782848360208110151561184d57fe5b6020020151611572565b91508080600101915050611832565b50919050565b611874611d05565b60008090505b60208110156118c9576118ba826118b5868460208110151561189857fe5b602002015186856020811015156118ab57fe5b6020020151611537565b611572565b9150808060010191505061187a565b5092915050565b60006118ff8260027f30644e72e131a029b85045b68181585d2833e84879b9709143e1f593f000000103611408565b9050919050565b600081600001518360000151148015611926575081602001518360200151145b905092915050565b60007f30644e72e131a029b85045b68181585d2833e84879b9709143e1f593f000000180151561195a57fe5b828408905092915050565b61196d611d05565b60005b6001156119e85760006003611986856003611a05565b0190506119c281600460017f30644e72e131a029b85045b68181585d97816a916871ca8d3c208c16d87cfd47018115156119bc57fe5b04611a05565b9150806119d0836002611a05565b14156119dc57506119e8565b60018401935050611970565b604080519081016040528084815260200182815250915050919050565b6000807f30644e72e131a029b85045b68181585d97816a916871ca8d3c208c16d87cfd47905060405160208152602080820152602060408201528460608201528360808201528160a082015260208160c08360055afa1515611a6657600080fd5b80519250505092915050565b61016060405190810160405280611a87611d72565b8152602001611a94611d72565b8152602001611aa1611d72565b81526020016000815260200160008152602001600073ffffffffffffffffffffffffffffffffffffffff168152602001611ad9611d72565b81525090565b61052060405190810160405280611af4611d72565b8152602001611b01611d72565b8152602001611b0e611d72565b8152602001611b1b611d72565b8152602001611b28611d8c565b815260200160008152602001600081526020016000815260200160008152602001600081526020016000815260200160008152602001611b66611dba565b81525090565b6102c060405190810160405280611b81611df0565b8152602001611b8e611df0565b815260200160008152602001600081525090565b6109206040519081016040528060008152602001611bbe611e1f565b815260200160008152602001611bd2611e43565b815260200160008152602001611be6611e1f565b8152602001600081526020016000815260200160008152602001611c08611d72565b81525090565b6101e06040519081016040528060008152602001611c2a611d72565b8152602001611c37611d72565b8152602001611c44611d72565b8152602001611c51611d72565b8152602001611c5e611d72565b8152602001611c6b611d72565b8152602001611c78611d72565b81525090565b61114060405190810160405280611c93611d72565b8152602001611ca0611e66565b8152602001611cad611e1f565b8152602001611cba611d72565b815260200160008152602001611cce611e95565b8152602001611cdb611e1f565b81525090565b61040060405190810160405280602090602082028038833980820191505090505090565b604080519081016040528060008152602001600081525090565b61040060405190810160405280602090602082028038833980820191505090505090565b610800604051908101604052806020905b611d5c611d72565b815260200190600190039081611d545790505090565b604080519081016040528060008152602001600081525090565b6080604051908101604052806002905b611da4611d72565b815260200190600190039081611d9c5790505090565b6102c060405190810160405280611dcf611df0565b8152602001611ddc611df0565b815260200160008152602001600081525090565b610140604051908101604052806005905b611e09611d72565b815260200190600190039081611e015790505090565b61040060405190810160405280602090602082028038833980820191505090505090565b602060405190810160405280600190602082028038833980820191505090505090565b610800604051908101604052806020905b611e7f611d72565b815260200190600190039081611e775790505090565b60a060405190810160405280600590602082028038833980820191505090505090565b6000611ec482356125d5565b905092915050565b600082601f8301121515611edf57600080fd5b6002611ef2611eed826124eb565b6124be565b91508183856020840282011115611f0857600080fd5b60005b83811015611f385781611f1e8882611f42565b845260208401935060208301925050600181019050611f0b565b5050505092915050565b6000611f4e82356125e7565b905092915050565b600082601f8301121515611f6957600080fd5b8135611f7c611f778261250d565b6124be565b91508082526020830160208301858383011115611f9857600080fd5b611fa383828461261b565b50505092915050565b6000611fb88235612611565b905092915050565b600080600080600080600080610180898b031215611fdd57600080fd5b6000611feb8b828c01611ecc565b9850506040611ffc8b828c01611ecc565b975050608061200d8b828c01611ecc565b96505060c061201e8b828c01611fac565b95505060e061202f8b828c01611fac565b9450506101006120418b828c01611ecc565b9350506101406120538b828c01611eb8565b92505061016089013567ffffffffffffffff81111561207157600080fd5b61207d8b828c01611f56565b9150509295985092959890939650565b60006120998383612213565b60408301905092915050565b6120ae8161258d565b82525050565b6120bd81612543565b6120c78184612566565b92506120d282612539565b60005b82811015612100576120e885835161208d565b94506120f382612559565b91506001810190506120d5565b5050505050565b6121108161259f565b82525050565b60006121218261254e565b61212b8185612582565b935061213b81856020860161262a565b80840191505092915050565b6000612154602a83612571565b91507f5369676d612070726f746f636f6c206368616c6c656e676520657175616c697460008301527f79206661696c7572652e000000000000000000000000000000000000000000006020830152604082019050919050565b60006121ba602583612571565b91507f496e6e65722070726f6475637420657175616c69747920636865636b2066616960008301527f6c7572652e0000000000000000000000000000000000000000000000000000006020830152604082019050919050565b6040820160008201516122296000850182612271565b50602082015161223c6020850182612271565b50505050565b6040820160008201516122586000850182612271565b50602082015161226b6020850182612271565b50505050565b61227a816125cb565b82525050565b612289816125cb565b82525050565b6122a061229b826125cb565b61265d565b82525050565b60006122b28285612116565b91506122be828461228f565b6020820191508190509392505050565b60006020820190506122e36000830184612107565b92915050565b6000602082019050818103600083015261230281612147565b9050919050565b60006020820190508181036000830152612322816121ad565b9050919050565b60006101208201905061233f6000830189612242565b61234c6040830188612242565b6123596080830187612242565b61236660c0830186612280565b61237360e0830185612280565b6123816101008301846120a5565b979650505050505050565b60006020820190506123a16000830184612280565b92915050565b600060a0820190506123bc6000830185612280565b6123c960208301846120b4565b9392505050565b600060a0820190506123e56000830186612280565b6123f26020830185612242565b6123ff6060830184612242565b949350505050565b60006101208201905061241d6000830188612280565b61242a6020830187612242565b6124376060830186612242565b61244460a0830185612242565b61245160e0830184612242565b9695505050505050565b6000610160820190506124716000830189612280565b61247e6020830188612242565b61248b6060830187612242565b61249860a0830186612242565b6124a560e0830185612242565b6124b3610120830184612242565b979650505050505050565b6000604051905081810181811067ffffffffffffffff821117156124e157600080fd5b8060405250919050565b600067ffffffffffffffff82111561250257600080fd5b602082029050919050565b600067ffffffffffffffff82111561252457600080fd5b601f19601f8301169050602081019050919050565b6000819050919050565b600060029050919050565b600081519050919050565b6000602082019050919050565b600081905092915050565b600082825260208201905092915050565b600081905092915050565b6000612598826125ab565b9050919050565b60008115159050919050565b600073ffffffffffffffffffffffffffffffffffffffff82169050919050565b6000819050919050565b60006125e0826125f1565b9050919050565b6000819050919050565b600073ffffffffffffffffffffffffffffffffffffffff82169050919050565b6000819050919050565b82818337600083830152505050565b60005b8381101561264857808201518184015260208101905061262d565b83811115612657576000848401525b50505050565b600081905091905056fea265627a7a723058208e2d4bcdcb6060ca0c6000ea1006cceb2c2ba54aa9a8fc4a134197d09fdb35346c6578706572696d656e74616cf50037",
  "source": "pragma solidity 0.5.4;\npragma experimental ABIEncoderV2;\n\nimport \"./Utils.sol\";\n\ncontract BurnVerifier {\n    using Utils for uint256;\n\n    uint256 constant m = 32;\n    uint256 constant n = 5;\n    uint256 constant FIELD_ORDER = 21888242871839275222246405745257275088696311157297823662689037894645226208583;\n\n    G1Point[m] gs;\n    G1Point[m] hs;\n    G1Point g;\n    G1Point h;\n\n    struct BurnStatement {\n        G1Point CLn;\n        G1Point CRn;\n        G1Point y;\n        uint256 bTransfer;\n        uint256 epoch; // or uint8?\n        address sender;\n        G1Point u;\n    }\n\n    struct BurnProof {\n        G1Point A;\n        G1Point S;\n\n        G1Point CLnPrime;\n        G1Point CRnPrime;\n\n        G1Point[2] tCommits;\n        uint256 tHat;\n        uint256 tauX;\n        uint256 mu;\n\n        uint256 c;\n        uint256 s_sk;\n        uint256 s_vDiff;\n        uint256 s_nuDiff;\n\n        InnerProductProof ipProof;\n    }\n\n    struct InnerProductProof {\n        G1Point[n] ls;\n        G1Point[n] rs;\n        uint256 a;\n        uint256 b;\n    }\n\n    constructor() public {\n        g = mapInto(\"G\");\n        h = mapInto(\"V\");\n        for (uint256 i = 0; i < m; i++) {\n            gs[i] = mapInto(\"G\", i);\n            hs[i] = mapInto(\"H\", i);\n        }\n    } // will it be more expensive later on to sload these than to recompute them?\n\n    function verifyBurn(bytes32[2] memory CLn, bytes32[2] memory CRn, bytes32[2] memory y, uint256 bTransfer, uint256 epoch, bytes32[2] memory u, address sender, bytes memory proof) view public returns (bool) {\n        BurnStatement memory statement; // WARNING: if this is called directly in the console,\n        // and your strings are less than 64 characters, they will be padded on the right, not the left. should hopefully not be an issue,\n        // as this will typically be called simply by the other contract. still though, beware\n        statement.CLn = G1Point(uint256(CLn[0]), uint256(CLn[1]));\n        statement.CRn = G1Point(uint256(CRn[0]), uint256(CRn[1]));\n        statement.y = G1Point(uint256(y[0]), uint256(y[1]));\n        statement.bTransfer = bTransfer;\n        statement.epoch = epoch;\n        statement.u = G1Point(uint256(u[0]), uint256(u[1]));\n        statement.sender = sender;\n        BurnProof memory burnProof = unserialize(proof);\n        return verify(statement, burnProof);\n    }\n\n    struct BurnAuxiliaries {\n        uint256 y;\n        uint256[m] ys;\n        uint256 z;\n        uint256[1] zs; // silly. just to match zether.\n        uint256 zSum;\n        uint256[m] twoTimesZSquared;\n        uint256 x;\n        uint256 t;\n        uint256 k;\n        G1Point tEval;\n    }\n\n    struct SigmaAuxiliaries {\n        uint256 c;\n        G1Point A_y;\n        G1Point gEpoch;\n        G1Point A_u;\n        G1Point c_commit;\n        G1Point A_t;\n        G1Point A_CLn;\n        G1Point A_CLnPrime;\n    }\n\n    struct IPAuxiliaries {\n        G1Point u_x;\n        G1Point[m] hPrimes;\n        uint256[m] hExp;\n        G1Point P;\n        uint256 o;\n        uint256[n] challenges;\n        uint256[m] otherExponents;\n    }\n\n    function verify(BurnStatement memory statement, BurnProof memory proof) view internal returns (bool) {\n        uint256 statementHash = uint256(keccak256(abi.encode(statement.CLn, statement.CRn, statement.y, statement.bTransfer, statement.epoch, statement.sender))).mod(); // stacktoodeep?\n\n        BurnAuxiliaries memory burnAuxiliaries;\n        burnAuxiliaries.y = uint256(keccak256(abi.encode(statementHash, proof.A, proof.S, proof.CLnPrime, proof.CRnPrime))).mod();\n        burnAuxiliaries.ys = powers(burnAuxiliaries.y);\n        burnAuxiliaries.z = uint256(keccak256(abi.encode(burnAuxiliaries.y))).mod();\n        burnAuxiliaries.zs = [burnAuxiliaries.z.exp(2)];\n        burnAuxiliaries.zSum = burnAuxiliaries.zs[0].mul(burnAuxiliaries.z); // trivial sum\n        burnAuxiliaries.k = sumScalars(burnAuxiliaries.ys).mul(burnAuxiliaries.z.sub(burnAuxiliaries.zs[0])).sub(burnAuxiliaries.zSum.mul(2 ** m).sub(burnAuxiliaries.zSum));\n        burnAuxiliaries.t = proof.tHat.sub(burnAuxiliaries.k);\n        for (uint256 i = 0; i < m; i++) {\n            burnAuxiliaries.twoTimesZSquared[i] = burnAuxiliaries.zs[0].mul(2 ** i);\n        }\n\n        burnAuxiliaries.x = uint256(keccak256(abi.encode(burnAuxiliaries.z, proof.tCommits))).mod();\n        burnAuxiliaries.tEval = add(mul(proof.tCommits[0], burnAuxiliaries.x), mul(proof.tCommits[1], burnAuxiliaries.x.mul(burnAuxiliaries.x))); // replace with \"commit\"?\n\n        SigmaAuxiliaries memory sigmaAuxiliaries;\n        sigmaAuxiliaries.A_y = add(mul(g, proof.s_sk), mul(statement.y, proof.c.neg()));\n        sigmaAuxiliaries.gEpoch = mapInto(\"Zether\", statement.epoch);\n        sigmaAuxiliaries.A_u = add(mul(sigmaAuxiliaries.gEpoch, proof.s_sk), mul(statement.u, proof.c.neg()));\n        sigmaAuxiliaries.c_commit = mul(add(mul(add(statement.CRn, proof.CRnPrime), proof.s_sk), mul(add(statement.CLn, proof.CLnPrime), proof.c.neg())), burnAuxiliaries.zs[0]);\n        sigmaAuxiliaries.A_t = add(mul(add(add(mul(g, burnAuxiliaries.t), mul(h, proof.tauX)), neg(burnAuxiliaries.tEval)), proof.c), sigmaAuxiliaries.c_commit);\n        sigmaAuxiliaries.A_CLn = add(mul(g, proof.s_vDiff), add(mul(statement.CRn, proof.s_sk), mul(statement.CLn, proof.c.neg())));\n        sigmaAuxiliaries.A_CLnPrime = add(mul(h, proof.s_nuDiff), add(mul(proof.CRnPrime, proof.s_sk), mul(proof.CLnPrime, proof.c.neg())));\n\n        sigmaAuxiliaries.c = uint256(keccak256(abi.encode(burnAuxiliaries.x, sigmaAuxiliaries.A_y, sigmaAuxiliaries.A_u, sigmaAuxiliaries.A_t, sigmaAuxiliaries.A_CLn, sigmaAuxiliaries.A_CLnPrime))).mod();\n        require(sigmaAuxiliaries.c == proof.c, \"Sigma protocol challenge equality failure.\");\n\n        IPAuxiliaries memory ipAuxiliaries;\n        ipAuxiliaries.o = uint256(keccak256(abi.encode(sigmaAuxiliaries.c))).mod();\n        ipAuxiliaries.u_x = mul(g, ipAuxiliaries.o);\n        ipAuxiliaries.hPrimes = hadamardInv(hs, burnAuxiliaries.ys);\n        ipAuxiliaries.hExp = addVectors(times(burnAuxiliaries.ys, burnAuxiliaries.z), burnAuxiliaries.twoTimesZSquared);\n        ipAuxiliaries.P = add(add(add(proof.A, mul(proof.S, burnAuxiliaries.x)), mul(sumPoints(gs), burnAuxiliaries.z.neg())), commit(ipAuxiliaries.hPrimes, ipAuxiliaries.hExp));\n        ipAuxiliaries.P = add(ipAuxiliaries.P, mul(h, proof.mu.neg()));\n        ipAuxiliaries.P = add(ipAuxiliaries.P, mul(ipAuxiliaries.u_x, proof.tHat));\n\n        // begin inner product verification\n        InnerProductProof memory ipProof = proof.ipProof;\n        for (uint256 i = 0; i < n; i++) {\n            ipAuxiliaries.o = uint256(keccak256(abi.encode(ipAuxiliaries.o, ipProof.ls[i], ipProof.rs[i]))).mod();\n            ipAuxiliaries.challenges[i] = ipAuxiliaries.o; // overwrites value\n            uint256 xInv = ipAuxiliaries.o.inv();\n            ipAuxiliaries.P = add(ipAuxiliaries.P, add(mul(ipProof.ls[i], ipAuxiliaries.o.exp(2)), mul(ipProof.rs[i], xInv.exp(2))));\n        }\n\n        ipAuxiliaries.otherExponents[0] = 1;\n        for (uint256 i = 0; i < n; i++) {\n            ipAuxiliaries.otherExponents[0] = ipAuxiliaries.otherExponents[0].mul(ipAuxiliaries.challenges[i]);\n        }\n        bool[m] memory bitSet;\n        ipAuxiliaries.otherExponents[0] = ipAuxiliaries.otherExponents[0].inv();\n        for (uint256 i = 0; i < m/2; ++i) {\n            for (uint256 j = 0; (1 << j) + i < m; ++j) {\n                uint256 i1 = i + (1 << j);\n                if (!bitSet[i1]) {\n                    uint256 temp = ipAuxiliaries.challenges[n - 1 - j].mul(ipAuxiliaries.challenges[n - 1 - j]);\n                    ipAuxiliaries.otherExponents[i1] = ipAuxiliaries.otherExponents[i].mul(temp);\n                    bitSet[i1] = true;\n                }\n            }\n        }\n\n        G1Point memory gTemp;\n        G1Point memory hTemp;\n        for (uint256 i = 0; i < m; i++) {\n            gTemp = add(gTemp, mul(gs[i], ipAuxiliaries.otherExponents[i]));\n            hTemp = add(hTemp, mul(ipAuxiliaries.hPrimes[i], ipAuxiliaries.otherExponents[m - 1 - i]));\n        }\n        G1Point memory cProof = add(add(mul(gTemp, ipProof.a), mul(hTemp, ipProof.b)), mul(ipAuxiliaries.u_x, ipProof.a.mul(ipProof.b)));\n        require(eq(ipAuxiliaries.P, cProof), \"Inner product equality check failure.\");\n\n        return true;\n    }\n\n    function multiExpGs(uint256[m] memory ss) internal view returns (G1Point memory result) {\n        for (uint256 i = 0; i < m; i++) {\n            result = add(result, mul(gs[i], ss[i]));\n        }\n    }\n\n    function multiExpHsInversed(uint256[m] memory ss, G1Point[m] memory hs) internal view returns (G1Point memory result) {\n        for (uint256 i = 0; i < m; i++) {\n            result = add(result, mul(hs[i], ss[m - 1 - i]));\n        }\n    }\n\n    function unserialize(bytes memory arr) internal pure returns (BurnProof memory proof) {\n        proof.A = G1Point(slice(arr, 0), slice(arr, 32));\n        proof.S = G1Point(slice(arr, 64), slice(arr, 96));\n\n        proof.CLnPrime = G1Point(slice(arr, 128), slice(arr, 160));\n        proof.CRnPrime = G1Point(slice(arr, 192), slice(arr, 224));\n\n        proof.tCommits = [G1Point(slice(arr, 256), slice(arr, 288)), G1Point(slice(arr, 320), slice(arr, 352))];\n        proof.tHat = slice(arr, 384);\n        proof.tauX = slice(arr, 416);\n        proof.mu = slice(arr, 448);\n\n        proof.c = slice(arr, 480);\n        proof.s_sk = slice(arr, 512);\n        proof.s_vDiff = slice(arr, 544);\n        proof.s_nuDiff = slice(arr, 576);\n\n        InnerProductProof memory ipProof;\n        for (uint256 i = 0; i < n; i++) {\n            ipProof.ls[i] = G1Point(slice(arr, 608 + i * 64), slice(arr, 640 + i * 64));\n            ipProof.rs[i] = G1Point(slice(arr, 608 + (n + i) * 64), slice(arr, 640 + (n + i) * 64));\n        }\n        ipProof.a = slice(arr, 608 + n * 128);\n        ipProof.b = slice(arr, 640 + n * 128);\n        proof.ipProof = ipProof;\n\n        return proof;\n    }\n\n    function addVectors(uint256[m] memory a, uint256[m] memory b) internal pure returns (uint256[m] memory result) {\n        for (uint256 i = 0; i < m; i++) {\n            result[i] = a[i].add(b[i]);\n        }\n    }\n\n    function hadamardInv(G1Point[m] memory ps, uint256[m] memory ss) internal view returns (G1Point[m] memory result) {\n        for (uint256 i = 0; i < m; i++) {\n            result[i] = mul(ps[i], ss[i].inv());\n        }\n    }\n\n    function sumScalars(uint256[m] memory ys) internal pure returns (uint256 result) {\n        for (uint256 i = 0; i < m; i++) {\n            result = result.add(ys[i]);\n        }\n    }\n\n    function sumPoints(G1Point[m] memory ps) internal view returns (G1Point memory sum) {\n        for (uint256 i = 0; i < m; i++) {\n            sum = add(sum, ps[i]);\n        }\n    }\n\n    function commit(G1Point[m] memory ps, uint256[m] memory ss) internal view returns (G1Point memory result) {\n        for (uint256 i = 0; i < m; i++) {\n            result = add(result, mul(ps[i], ss[i]));\n        }\n    }\n\n    function powers(uint256 base) internal pure returns (uint256[m] memory powers) {\n        powers[0] = 1;\n        powers[1] = base;\n        for (uint256 i = 2; i < m; i++) {\n            powers[i] = powers[i - 1].mul(base);\n        }\n    }\n\n    function times(uint256[m] memory v, uint256 x) internal pure returns (uint256[m] memory result) {\n        for (uint256 i = 0; i < m; i++) {\n            result[i] = v[i].mul(x);\n        }\n    }\n\n    function slice(bytes memory input, uint256 start) internal pure returns (uint256 result) { // extracts exactly 32 bytes\n        assembly {\n            let m := mload(0x40)\n            mstore(m, mload(add(add(input, 0x20), start))) // why only 0x20?\n            result := mload(m)\n        }\n    }\n\n    struct G1Point {\n        uint256 x;\n        uint256 y;\n    }\n\n    function add(G1Point memory p1, G1Point memory p2) internal view returns (G1Point memory r) {\n        assembly {\n            let m := mload(0x40)\n            mstore(m, mload(p1))\n            mstore(add(m, 0x20), mload(add(p1, 0x20)))\n            mstore(add(m, 0x40), mload(p2))\n            mstore(add(m, 0x60), mload(add(p2, 0x20)))\n            if iszero(staticcall(gas, 0x06, m, 0x80, r, 0x40)) {\n                revert(0, 0)\n            }\n        }\n    }\n\n    function mul(G1Point memory p, uint256 s) internal view returns (G1Point memory r) {\n        assembly {\n            let m := mload(0x40)\n            mstore(m, mload(p))\n            mstore(add(m, 0x20), mload(add(p, 0x20)))\n            mstore(add(m, 0x40), s)\n            if iszero(staticcall(gas, 0x07, m, 0x60, r, 0x40)) {\n                revert(0, 0)\n            }\n        }\n    }\n\n    function neg(G1Point memory p) internal pure returns (G1Point memory) {\n        return G1Point(p.x, FIELD_ORDER - (p.y % FIELD_ORDER)); // p.y should already be reduced mod P?\n    }\n\n    function eq(G1Point memory p1, G1Point memory p2) internal pure returns (bool) {\n        return p1.x == p2.x && p1.y == p2.y;\n    }\n\n    function fieldExp(uint256 base, uint256 exponent) internal view returns (uint256 output) { // warning: mod p, not q\n        uint256 order = FIELD_ORDER;\n        assembly {\n            let m := mload(0x40)\n            mstore(m, 0x20)\n            mstore(add(m, 0x20), 0x20)\n            mstore(add(m, 0x40), 0x20)\n            mstore(add(m, 0x60), base)\n            mstore(add(m, 0x80), exponent)\n            mstore(add(m, 0xa0), order)\n            if iszero(staticcall(gas, 0x05, m, 0xc0, m, 0x20)) { // staticcall or call?\n                revert(0, 0)\n            }\n            output := mload(m)\n        }\n    }\n\n    function mapInto(uint256 seed) internal view returns (G1Point memory) {\n        uint256 y;\n        while (true) {\n            uint256 ySquared = fieldExp(seed, 3) + 3; // addmod instead of add: waste of gas, plus function overhead cost\n            y = fieldExp(ySquared, (FIELD_ORDER + 1) / 4);\n            if (fieldExp(y, 2) == ySquared) {\n                break;\n            }\n            seed += 1;\n        }\n        return G1Point(seed, y);\n    }\n\n    function mapInto(string memory input) internal view returns (G1Point memory) {\n        return mapInto(uint256(keccak256(abi.encodePacked(input))) % FIELD_ORDER);\n    }\n\n    function mapInto(string memory input, uint256 i) internal view returns (G1Point memory) {\n        return mapInto(uint256(keccak256(abi.encodePacked(input, i))) % FIELD_ORDER);\n    }\n}\n",
  "sourcePath": "/Users/benediamond/anonymous-zether/packages/protocol/contracts/BurnVerifier.sol",
  "compiler": {
    "name": "solc",
    "version": "0.5.4+commit.9549d8ff.Emscripten.clang"
  },
  "schemaVersion": "3.0.9",
  "updatedAt": "2019-11-19T00:39:27.130Z",
  "devdoc": {
    "methods": {}
  },
  "userdoc": {
    "methods": {}
  }
}