{
  "contractName": "BurnVerifier",
  "abi": [
    {
      "inputs": [
        {
          "name": "_ip",
          "type": "address"
        }
      ],
      "payable": false,
      "stateMutability": "nonpayable",
      "type": "constructor"
    },
    {
      "constant": true,
      "inputs": [
        {
          "components": [
            {
              "name": "x",
              "type": "bytes32"
            },
            {
              "name": "y",
              "type": "bytes32"
            }
          ],
          "name": "CLn",
          "type": "tuple"
        },
        {
          "components": [
            {
              "name": "x",
              "type": "bytes32"
            },
            {
              "name": "y",
              "type": "bytes32"
            }
          ],
          "name": "CRn",
          "type": "tuple"
        },
        {
          "components": [
            {
              "name": "x",
              "type": "bytes32"
            },
            {
              "name": "y",
              "type": "bytes32"
            }
          ],
          "name": "y",
          "type": "tuple"
        },
        {
          "name": "bTransfer",
          "type": "uint256"
        },
        {
          "name": "epoch",
          "type": "uint256"
        },
        {
          "components": [
            {
              "name": "x",
              "type": "bytes32"
            },
            {
              "name": "y",
              "type": "bytes32"
            }
          ],
          "name": "u",
          "type": "tuple"
        },
        {
          "name": "sender",
          "type": "address"
        },
        {
          "name": "proof",
          "type": "bytes"
        }
      ],
      "name": "verifyBurn",
      "outputs": [
        {
          "name": "",
          "type": "bool"
        }
      ],
      "payable": false,
      "stateMutability": "view",
      "type": "function"
    }
  ],
  "bytecode": "0x60806040523480156200001157600080fd5b5060405160208062002338833981018060405262000033919081019062000090565b806000806101000a81548173ffffffffffffffffffffffffffffffffffffffff021916908373ffffffffffffffffffffffffffffffffffffffff16021790555050620000f0565b6000620000888251620000bc565b905092915050565b600060208284031215620000a357600080fd5b6000620000b3848285016200007a565b91505092915050565b6000620000c982620000d0565b9050919050565b600073ffffffffffffffffffffffffffffffffffffffff82169050919050565b61223880620001006000396000f3fe608060405234801561001057600080fd5b5060043610610048576000357c010000000000000000000000000000000000000000000000000000000090048063eb0fbcc01461004d575b600080fd5b610067600480360361006291908101906119f1565b61007d565b6040516100749190611e8d565b60405180910390f35b6000610087611568565b8981600001819052508881602001819052508781604001819052508681606001818152505085816080018181525050848160c00181905250838160a0019073ffffffffffffffffffffffffffffffffffffffff16908173ffffffffffffffffffffffffffffffffffffffff16815250506100ff6115d5565b61010884610124565b90506101148282610432565b9250505098975050505050505050565b61012c6115d5565b604080519081016040528061014284600061100c565b815260200161015284602061100c565b8152508160000181905250604080519081016040528061017384604061100c565b815260200161018384606061100c565b8152508160200181905250604080519081016040528060408051908101604052806101af86608061100c565b81526020016101bf8660a061100c565b815250815260200160408051908101604052806101dd8660c061100c565b81526020016101ed8660e061100c565b81525081525081604001819052506102078261010061100c565b600190048160600181815250506102208261012061100c565b600190048160800181815250506102398261014061100c565b600190048160a00181815250506102528261016061100c565b600190048160c001818152505061026b8261018061100c565b600190048160e0018181525050610284826101a061100c565b600190048161010001818152505061029a611641565b60056040519080825280602002602001820160405280156102d557816020015b6102c261166a565b8152602001906001900390816102ba5790505b508160000181905250600560405190808252806020026020018201604052801561031957816020015b61030661166a565b8152602001906001900390816102fe5790505b50816020018190525060008090505b60058110156103ec57604080519081016040528061034d86604085026101c00161100c565b815260200161036386604085026101e00161100c565b81525082600001518281518110151561037857fe5b9060200190602002018190525060408051908101604052806103a486604085600501026101c00161100c565b81526020016103bd86604085600501026101e00161100c565b8152508260200151828151811015156103d257fe5b906020019060200201819052508080600101915050610328565b506103f98361044061100c565b600190048160400181815250506104128361046061100c565b600190048160600181815250508082610120018190525081915050919050565b60008061048a846000015185602001518660400151876060015188608001518960a0015160405160200161046b96959493929190611ee8565b6040516020818303038152906040528051906020012060019004611025565b905061049461168a565b6104d382856000015186602001516040516020016104b493929190611f8f565b6040516020818303038152906040528051906020012060019004611025565b8160000181815250506001816020015160006020811015156104f157fe5b6020020181815250506001816101000181815250506000600190505b60208110156105a657610546826000015183602001516001840360208110151561053357fe5b602002015161105a90919063ffffffff16565b82602001518260208110151561055857fe5b60200201818152505061058f82602001518260208110151561057657fe5b602002015183610100015161109190919063ffffffff16565b82610100018181525050808060010191505061050d565b506105de81600001516040516020016105bf9190611f4b565b6040516020818303038152906040528051906020012060019004611025565b81604001818152505060206040519081016040528061060b600284604001516110c890919063ffffffff16565b815250816060018190525061064481604001518260600151600060018110151561063157fe5b602002015161105a90919063ffffffff16565b8160800181815250506106d56106828260800151610674640100000000856080015161105a90919063ffffffff16565b61113590919063ffffffff16565b6106c76106b38460600151600060018110151561069b57fe5b6020020151856040015161113590919063ffffffff16565b84610100015161105a90919063ffffffff16565b61113590919063ffffffff16565b816101000181815250506106fb816101000151856060015161113590919063ffffffff16565b8160e001818152505060008090505b6020811015610768576107408160020a8360600151600060018110151561072d57fe5b602002015161105a90919063ffffffff16565b8260a001518260208110151561075257fe5b602002018181525050808060010191505061070a565b506107a681604001518560400151604051602001610787929190611f66565b6040516020818303038152906040528051906020012060019004611025565b8160c00181815250506108326107f66107d08360c001518460c0015161105a90919063ffffffff16565b866040015160016002811015156107e357fe5b602002015161117590919063ffffffff16565b6108248360c001518760400151600060028110151561081157fe5b602002015161117590919063ffffffff16565b6111b090919063ffffffff16565b8161012001819052506108436116f6565b6108956108696108568760a001516111f6565b886040015161117590919063ffffffff16565b6108878760c00151610879611222565b61117590919063ffffffff16565b6111b090919063ffffffff16565b8160200181905250610944610918836060015160006001811015156108b657fe5b602002015161090a6108e16108ce8a60a001516111f6565b8b6000015161117590919063ffffffff16565b6108fc8a60c001518c6020015161117590919063ffffffff16565b6111b090919063ffffffff16565b61117590919063ffffffff16565b6109368760e00151610928611222565b61117590919063ffffffff16565b6111b090919063ffffffff16565b8160400181905250610a0661097561095f8760e001516111f6565b610967611222565b61117590919063ffffffff16565b6109f861099788610100015161098961128a565b61117590919063ffffffff16565b6109ea8960a001516109dc6109b08961012001516112f2565b6109ce8a60e001516109c0611222565b61117590919063ffffffff16565b6111b090919063ffffffff16565b61117590919063ffffffff16565b6111b090919063ffffffff16565b6111b090919063ffffffff16565b8160600181905250610a516040805190810160405280600681526020017f5a657468657200000000000000000000000000000000000000000000000000008152508760800151611347565b8160800181905250610aa8610a7f610a6c8760a001516111f6565b8860c0015161117590919063ffffffff16565b610a9a8760c00151846080015161117590919063ffffffff16565b6111b090919063ffffffff16565b8160a00181905250610aff8260c001518260200151836040015184606001518560a00151604051602001610ae0959493929190611fc6565b6040516020818303038152906040528051906020012060019004611025565b8160000181815250508460a001518160000151141515610b54576040517f08c379a0000000000000000000000000000000000000000000000000000000008152600401610b4b90611ea8565b60405180910390fd5b610b5c61174c565b610b938260000151604051602001610b749190611f4b565b6040516020818303038152906040528051906020012060019004611025565b816080018181525050610bba8160800151610bac611222565b61117590919063ffffffff16565b81602001819052506020604051908082528060200260200182016040528015610bfd57816020015b610bea61166a565b815260200190600190039081610be25790505b50816040018190525060008090505b6020811015610dd657610d0a610c37856020015183602081101515610c2d57fe5b60200201516113b7565b6000809054906101000a900473ffffffffffffffffffffffffffffffffffffffff1673ffffffffffffffffffffffffffffffffffffffff16633844923b846040518263ffffffff167c0100000000000000000000000000000000000000000000000000000000028152600401610cad9190611f4b565b604080518083038186803b158015610cc457600080fd5b505afa158015610cd8573d6000803e3d6000fd5b505050506040513d601f19601f82011682018060405250610cfc91908101906119c8565b61117590919063ffffffff16565b826040015182815181101515610d1c57fe5b90602001906020020181905250610dc1610dae610d848660a0015184602081101515610d4457fe5b6020020151610d768860400151896020015187602081101515610d6357fe5b602002015161105a90919063ffffffff16565b61109190919063ffffffff16565b846040015184815181101515610d9657fe5b9060200190602002015161117590919063ffffffff16565b83606001516111b090919063ffffffff16565b82606001819052508080600101915050610c0c565b50610e558160600151610e47610e08610df287604001516111f6565b610dfa6113ed565b61117590919063ffffffff16565b610e39610e268860c001518c6020015161117590919063ffffffff16565b8b600001516111b090919063ffffffff16565b6111b090919063ffffffff16565b6111b090919063ffffffff16565b8160000181905250610e99610e86610e7088608001516111f6565b610e7861128a565b61117590919063ffffffff16565b82600001516111b090919063ffffffff16565b8160000181905250610ed2610ebf8760600151836020015161117590919063ffffffff16565b82600001516111b090919063ffffffff16565b81600001819052506000809054906101000a900473ffffffffffffffffffffffffffffffffffffffff1673ffffffffffffffffffffffffffffffffffffffff166397fa72ae8260400151836020015184600001518a610120015186608001516040518663ffffffff167c0100000000000000000000000000000000000000000000000000000000028152600401610f6d959493929190611e2c565b60206040518083038186803b158015610f8557600080fd5b505afa158015610f99573d6000803e3d6000fd5b505050506040513d601f19601f82011682018060405250610fbd919081019061199f565b1515610ffe576040517f08c379a0000000000000000000000000000000000000000000000000000000008152600401610ff590611ec8565b60405180910390fd5b600194505050505092915050565b6000604051826020850101518152805191505092915050565b60007f30644e72e131a029b85045b68181585d2833e84879b9709143e1f593f00000018281151561105257fe5b069050919050565b60007f30644e72e131a029b85045b68181585d2833e84879b9709143e1f593f000000180151561108657fe5b828409905092915050565b60007f30644e72e131a029b85045b68181585d2833e84879b9709143e1f593f00000018015156110bd57fe5b828408905092915050565b6000807f30644e72e131a029b85045b68181585d2833e84879b9709143e1f593f0000001905060405160208152602080820152602060408201528460608201528360808201528160a082015260208160c08360055afa151561112957600080fd5b80519250505092915050565b6000818310156111695782827f30644e72e131a029b85045b68181585d2833e84879b9709143e1f593f0000001030161116d565b8183035b905092915050565b61117d61178f565b604051835181526020840151602082015282604082015260408260608360075afa15156111a957600080fd5b5092915050565b6111b861178f565b6040518351815260208401516020820152825160408201526020830151606082015260408260808360065afa15156111ef57600080fd5b5092915050565b6000817f30644e72e131a029b85045b68181585d2833e84879b9709143e1f593f0000001039050919050565b61122a61178f565b60408051908101604052807f077da99d806abd13c9f15ece5398525119d11e11e9836b2ee7d23f6159ad87d460010281526020017f01485efa927f2ad41bff567eec88f32fb0a0f706588b4e41a8d587d008b7f875600102815250905090565b61129261178f565b60408051908101604052807f01b7de3dcf359928dd19f643d54dc487478b68a5b2634f9f1903c9fb78331aef60010281526020017f2bda7d3ae6a557c716477c108be0d0f94abc6c4dc6b1bd93caccbcceaaa71d6b600102815250905090565b6112fa61178f565b6040805190810160405280836000015181526020018360200151600190047f30644e72e131a029b85045b68181585d97816a916871ca8d3c208c16d87cfd47036001028152509050919050565b61134f61178f565b6113af7f30644e72e131a029b85045b68181585d97816a916871ca8d3c208c16d87cfd478484604051602001611386929190611e04565b60405160208183030381529060405280519060200120600190048115156113a957fe5b06611455565b905092915050565b60006113e68260027f30644e72e131a029b85045b68181585d2833e84879b9709143e1f593f0000001036110c8565b9050919050565b6113f561178f565b60408051908101604052807f2257118d30fe5064dda298b2fac15cf96fd51f0e7e3df342d0aed40b8d7bb15160010281526020017f0d4250e7509c99370e6b15ebfe4f1aa5e65a691133357901aa4b0641f96c80a8600102815250905090565b61145d61178f565b60005b6001156114d857600060036114768560036114fb565b0190506114b281600460017f30644e72e131a029b85045b68181585d97816a916871ca8d3c208c16d87cfd47018115156114ac57fe5b046114fb565b9150806114c08360026114fb565b14156114cc57506114d8565b60018401935050611460565b604080519081016040528084600102815260200182600102815250915050919050565b6000807f30644e72e131a029b85045b68181585d97816a916871ca8d3c208c16d87cfd47905060405160208152602080820152602060408201528460608201528360808201528160a082015260208160c08360055afa151561155c57600080fd5b80519250505092915050565b6101606040519081016040528061157d61166a565b815260200161158a61166a565b815260200161159761166a565b81526020016000815260200160008152602001600073ffffffffffffffffffffffffffffffffffffffff1681526020016115cf61166a565b81525090565b610240604051908101604052806115ea61166a565b81526020016115f761166a565b81526020016116046117af565b815260200160008152602001600081526020016000815260200160008152602001600081526020016000815260200161163b6117dd565b81525090565b608060405190810160405280606081526020016060815260200160008152602001600081525090565b604080519081016040528060008019168152602001600080191681525090565b61092060405190810160405280600081526020016116a6611806565b8152602001600081526020016116ba61182a565b8152602001600081526020016116ce611806565b81526020016000815260200160008152602001600081526020016116f061166a565b81525090565b610160604051908101604052806000815260200161171261166a565b815260200161171f61166a565b815260200161172c61166a565b815260200161173961166a565b815260200161174661166a565b81525090565b6101006040519081016040528061176161166a565b815260200161176e61166a565b81526020016060815260200161178261166a565b8152602001600081525090565b604080519081016040528060008019168152602001600080191681525090565b6080604051908101604052806002905b6117c761166a565b8152602001906001900390816117bf5790505090565b608060405190810160405280606081526020016060815260200160008152602001600081525090565b61040060405190810160405280602090602082028038833980820191505090505090565b602060405190810160405280600190602082028038833980820191505090505090565b60006118598235612160565b905092915050565b600061186d8251612172565b905092915050565b6000611881823561217e565b905092915050565b6000611895825161217e565b905092915050565b600082601f83011215156118b057600080fd5b81356118c36118be82612047565b61201a565b915080825260208301602083018583830111156118df57600080fd5b6118ea8382846121b2565b50505092915050565b60006040828403121561190557600080fd5b61190f604061201a565b9050600061191f84828501611875565b600083015250602061193384828501611875565b60208301525092915050565b60006040828403121561195157600080fd5b61195b604061201a565b9050600061196b84828501611889565b600083015250602061197f84828501611889565b60208301525092915050565b600061199782356121a8565b905092915050565b6000602082840312156119b157600080fd5b60006119bf84828501611861565b91505092915050565b6000604082840312156119da57600080fd5b60006119e88482850161193f565b91505092915050565b600080600080600080600080610180898b031215611a0e57600080fd5b6000611a1c8b828c016118f3565b9850506040611a2d8b828c016118f3565b9750506080611a3e8b828c016118f3565b96505060c0611a4f8b828c0161198b565b95505060e0611a608b828c0161198b565b945050610100611a728b828c016118f3565b935050610140611a848b828c0161184d565b92505061016089013567ffffffffffffffff811115611aa257600080fd5b611aae8b828c0161189d565b9150509295985092959890939650565b6000611aca8383611d07565b60408301905092915050565b611adf8161210e565b82525050565b611aee8161208a565b611af881846120c5565b9250611b0382612073565b60005b82811015611b3157611b19858351611abe565b9450611b24826120ab565b9150600181019050611b06565b5050505050565b6000611b4382612095565b611b4d81856120d0565b9350611b588361207d565b60005b82811015611b8657611b6e868351611abe565b9550611b79826120b8565b9150600181019050611b5b565b50849250505092915050565b6000611b9d82612095565b611ba781856120e1565b9350611bb28361207d565b60005b82811015611be057611bc8868351611abe565b9550611bd3826120b8565b9150600181019050611bb5565b50849250505092915050565b611bf581612120565b82525050565b611c048161212c565b82525050565b6000611c15826120a0565b611c1f8185612103565b9350611c2f8185602086016121c1565b80840191505092915050565b6000611c48602a836120f2565b91507f5369676d612070726f746f636f6c206368616c6c656e676520657175616c697460008301527f79206661696c7572652e000000000000000000000000000000000000000000006020830152604082019050919050565b6000611cae6028836120f2565b91507f496e6e65722070726f647563742070726f6f6620766572696669636174696f6e60008301527f206661696c65642e0000000000000000000000000000000000000000000000006020830152604082019050919050565b604082016000820151611d1d6000850182611bfb565b506020820151611d306020850182611bfb565b50505050565b604082016000820151611d4c6000850182611bfb565b506020820151611d5f6020850182611bfb565b50505050565b60006080830160008301518482036000860152611d828282611b38565b91505060208301518482036020860152611d9c8282611b38565b9150506040830151611db16040860182611dcf565b506060830151611dc46060860182611dcf565b508091505092915050565b611dd881612156565b82525050565b611de781612156565b82525050565b611dfe611df982612156565b6121f4565b82525050565b6000611e108285611c0a565b9150611e1c8284611ded565b6020820191508190509392505050565b600060e0820190508181036000830152611e468188611b92565b9050611e556020830187611d36565b611e626060830186611d36565b81810360a0830152611e748185611d65565b9050611e8360c0830184611dde565b9695505050505050565b6000602082019050611ea26000830184611bec565b92915050565b60006020820190508181036000830152611ec181611c3b565b9050919050565b60006020820190508181036000830152611ee181611ca1565b9050919050565b600061012082019050611efe6000830189611d36565b611f0b6040830188611d36565b611f186080830187611d36565b611f2560c0830186611dde565b611f3260e0830185611dde565b611f40610100830184611ad6565b979650505050505050565b6000602082019050611f606000830184611dde565b92915050565b600060a082019050611f7b6000830185611dde565b611f886020830184611ae5565b9392505050565b600060a082019050611fa46000830186611dde565b611fb16020830185611d36565b611fbe6060830184611d36565b949350505050565b600061012082019050611fdc6000830188611dde565b611fe96020830187611d36565b611ff66060830186611d36565b61200360a0830185611d36565b61201060e0830184611d36565b9695505050505050565b6000604051905081810181811067ffffffffffffffff8211171561203d57600080fd5b8060405250919050565b600067ffffffffffffffff82111561205e57600080fd5b601f19601f8301169050602081019050919050565b6000819050919050565b6000602082019050919050565b600060029050919050565b600081519050919050565b600081519050919050565b6000602082019050919050565b6000602082019050919050565b600081905092915050565b600082825260208201905092915050565b600082825260208201905092915050565b600082825260208201905092915050565b600081905092915050565b600061211982612136565b9050919050565b60008115159050919050565b6000819050919050565b600073ffffffffffffffffffffffffffffffffffffffff82169050919050565b6000819050919050565b600061216b82612188565b9050919050565b60008115159050919050565b6000819050919050565b600073ffffffffffffffffffffffffffffffffffffffff82169050919050565b6000819050919050565b82818337600083830152505050565b60005b838110156121df5780820151818401526020810190506121c4565b838111156121ee576000848401525b50505050565b600081905091905056fea265627a7a7230582073646e0ca0e50756dc50131a688a7f12b2bb304c6951c6264e0b526ddb7e37a26c6578706572696d656e74616cf50037",
  "source": "pragma solidity 0.5.4;\npragma experimental ABIEncoderV2;\n\nimport \"./Utils.sol\";\nimport \"./InnerProductVerifier.sol\";\n\ncontract BurnVerifier {\n    using Utils for uint256;\n    using Utils for Utils.G1Point;\n\n    InnerProductVerifier ip;\n\n    struct BurnStatement {\n        Utils.G1Point CLn;\n        Utils.G1Point CRn;\n        Utils.G1Point y;\n        uint256 bTransfer;\n        uint256 epoch; // or uint8?\n        address sender;\n        Utils.G1Point u;\n    }\n\n    struct BurnProof {\n        Utils.G1Point BA;\n        Utils.G1Point BS;\n\n        Utils.G1Point[2] tCommits;\n        uint256 tHat;\n        uint256 mu;\n\n        uint256 c;\n        uint256 s_sk;\n        uint256 s_b;\n        uint256 s_tau;\n\n        InnerProductVerifier.InnerProductProof ipProof;\n    }\n\n    constructor(address _ip) public {\n        ip = InnerProductVerifier(_ip);\n    }\n\n    function verifyBurn(Utils.G1Point memory CLn, Utils.G1Point memory CRn, Utils.G1Point memory y, uint256 bTransfer, uint256 epoch, Utils.G1Point memory u, address sender, bytes memory proof) public view returns (bool) {\n        BurnStatement memory statement; // WARNING: if this is called directly in the console,\n        // and your strings are less than 64 characters, they will be padded on the right, not the left. should hopefully not be an issue,\n        // as this will typically be called simply by the other contract. still though, beware\n        statement.CLn = CLn;\n        statement.CRn = CRn;\n        statement.y = y;\n        statement.bTransfer = bTransfer;\n        statement.epoch = epoch;\n        statement.u = u;\n        statement.sender = sender;\n        BurnProof memory burnProof = unserialize(proof);\n        return verify(statement, burnProof);\n    }\n\n    struct BurnAuxiliaries {\n        uint256 y;\n        uint256[32] ys;\n        uint256 z;\n        uint256[1] zs; // silly. just to match zether.\n        uint256 zSum;\n        uint256[32] twoTimesZSquared;\n        uint256 x;\n        uint256 t;\n        uint256 k;\n        Utils.G1Point tEval;\n    }\n\n    struct SigmaAuxiliaries {\n        uint256 c;\n        Utils.G1Point A_y;\n        Utils.G1Point A_b;\n        Utils.G1Point A_t;\n        Utils.G1Point gEpoch;\n        Utils.G1Point A_u;\n    }\n\n    struct IPAuxiliaries {\n        Utils.G1Point P;\n        Utils.G1Point u_x;\n        Utils.G1Point[] hPrimes;\n        Utils.G1Point hPrimeSum;\n        uint256 o;\n    }\n\n    function gSum() internal pure returns (Utils.G1Point memory) {\n        return Utils.G1Point(0x2257118d30fe5064dda298b2fac15cf96fd51f0e7e3df342d0aed40b8d7bb151, 0x0d4250e7509c99370e6b15ebfe4f1aa5e65a691133357901aa4b0641f96c80a8);\n    }\n\n    function verify(BurnStatement memory statement, BurnProof memory proof) internal view returns (bool) {\n        uint256 statementHash = uint256(keccak256(abi.encode(statement.CLn, statement.CRn, statement.y, statement.bTransfer, statement.epoch, statement.sender))).mod(); // stacktoodeep?\n\n        BurnAuxiliaries memory burnAuxiliaries;\n        burnAuxiliaries.y = uint256(keccak256(abi.encode(statementHash, proof.BA, proof.BS))).mod();\n        burnAuxiliaries.ys[0] = 1;\n        burnAuxiliaries.k = 1;\n        for (uint256 i = 1; i < 32; i++) {\n            burnAuxiliaries.ys[i] = burnAuxiliaries.ys[i - 1].mul(burnAuxiliaries.y);\n            burnAuxiliaries.k = burnAuxiliaries.k.add(burnAuxiliaries.ys[i]);\n        }\n        burnAuxiliaries.z = uint256(keccak256(abi.encode(burnAuxiliaries.y))).mod();\n        burnAuxiliaries.zs = [burnAuxiliaries.z.exp(2)];\n        burnAuxiliaries.zSum = burnAuxiliaries.zs[0].mul(burnAuxiliaries.z); // trivial sum\n        burnAuxiliaries.k = burnAuxiliaries.k.mul(burnAuxiliaries.z.sub(burnAuxiliaries.zs[0])).sub(burnAuxiliaries.zSum.mul(2 ** 32).sub(burnAuxiliaries.zSum));\n        burnAuxiliaries.t = proof.tHat.sub(burnAuxiliaries.k);\n        for (uint256 i = 0; i < 32; i++) {\n            burnAuxiliaries.twoTimesZSquared[i] = burnAuxiliaries.zs[0].mul(2 ** i);\n        }\n\n        burnAuxiliaries.x = uint256(keccak256(abi.encode(burnAuxiliaries.z, proof.tCommits))).mod();\n        burnAuxiliaries.tEval = proof.tCommits[0].mul(burnAuxiliaries.x).add(proof.tCommits[1].mul(burnAuxiliaries.x.mul(burnAuxiliaries.x))); // replace with \"commit\"?\n\n        SigmaAuxiliaries memory sigmaAuxiliaries;\n        sigmaAuxiliaries.A_y = Utils.g().mul(proof.s_sk).add(statement.y.mul(proof.c.neg()));\n        sigmaAuxiliaries.A_b = Utils.g().mul(proof.s_b).add(statement.CRn.mul(proof.s_sk).add(statement.CLn.mul(proof.c.neg())).mul(burnAuxiliaries.zs[0]));\n        sigmaAuxiliaries.A_t = Utils.g().mul(burnAuxiliaries.t).add(burnAuxiliaries.tEval.neg()).mul(proof.c).add(Utils.h().mul(proof.s_tau)).add(Utils.g().mul(proof.s_b.neg()));\n        sigmaAuxiliaries.gEpoch = Utils.mapInto(\"Zether\", statement.epoch);\n        sigmaAuxiliaries.A_u = sigmaAuxiliaries.gEpoch.mul(proof.s_sk).add(statement.u.mul(proof.c.neg()));\n\n        sigmaAuxiliaries.c = uint256(keccak256(abi.encode(burnAuxiliaries.x, sigmaAuxiliaries.A_y, sigmaAuxiliaries.A_b, sigmaAuxiliaries.A_t, sigmaAuxiliaries.A_u))).mod();\n        require(sigmaAuxiliaries.c == proof.c, \"Sigma protocol challenge equality failure.\");\n\n        IPAuxiliaries memory ipAuxiliaries;\n        ipAuxiliaries.o = uint256(keccak256(abi.encode(sigmaAuxiliaries.c))).mod();\n        ipAuxiliaries.u_x = Utils.g().mul(ipAuxiliaries.o);\n        ipAuxiliaries.hPrimes = new Utils.G1Point[](32);\n        for (uint256 i = 0; i < 32; i++) {\n            ipAuxiliaries.hPrimes[i] = ip.hs(i).mul(burnAuxiliaries.ys[i].inv());\n            ipAuxiliaries.hPrimeSum = ipAuxiliaries.hPrimeSum.add(ipAuxiliaries.hPrimes[i].mul(burnAuxiliaries.ys[i].mul(burnAuxiliaries.z).add(burnAuxiliaries.twoTimesZSquared[i])));\n        }\n        ipAuxiliaries.P = proof.BA.add(proof.BS.mul(burnAuxiliaries.x)).add(gSum().mul(burnAuxiliaries.z.neg())).add(ipAuxiliaries.hPrimeSum);\n        ipAuxiliaries.P = ipAuxiliaries.P.add(Utils.h().mul(proof.mu.neg()));\n        ipAuxiliaries.P = ipAuxiliaries.P.add(ipAuxiliaries.u_x.mul(proof.tHat));\n        require(ip.verifyInnerProduct(ipAuxiliaries.hPrimes, ipAuxiliaries.u_x, ipAuxiliaries.P, proof.ipProof, ipAuxiliaries.o), \"Inner product proof verification failed.\");\n\n        return true;\n    }\n\n    function unserialize(bytes memory arr) internal pure returns (BurnProof memory proof) {\n        proof.BA = Utils.G1Point(Utils.slice(arr, 0), Utils.slice(arr, 32));\n        proof.BS = Utils.G1Point(Utils.slice(arr, 64), Utils.slice(arr, 96));\n\n        proof.tCommits = [Utils.G1Point(Utils.slice(arr, 128), Utils.slice(arr, 160)), Utils.G1Point(Utils.slice(arr, 192), Utils.slice(arr, 224))];\n        proof.tHat = uint256(Utils.slice(arr, 256));\n        proof.mu = uint256(Utils.slice(arr, 288));\n\n        proof.c = uint256(Utils.slice(arr, 320));\n        proof.s_sk = uint256(Utils.slice(arr, 352));\n        proof.s_b = uint256(Utils.slice(arr, 384));\n        proof.s_tau = uint256(Utils.slice(arr, 416));\n\n        InnerProductVerifier.InnerProductProof memory ipProof;\n        ipProof.ls = new Utils.G1Point[](5);\n        ipProof.rs = new Utils.G1Point[](5);\n        for (uint256 i = 0; i < 5; i++) { // 2^5 = 32.\n            ipProof.ls[i] = Utils.G1Point(Utils.slice(arr, 448 + i * 64), Utils.slice(arr, 480 + i * 64));\n            ipProof.rs[i] = Utils.G1Point(Utils.slice(arr, 448 + (5 + i) * 64), Utils.slice(arr, 480 + (5 + i) * 64));\n        }\n        ipProof.a = uint256(Utils.slice(arr, 448 + 5 * 128));\n        ipProof.b = uint256(Utils.slice(arr, 480 + 5 * 128));\n        proof.ipProof = ipProof;\n\n        return proof;\n    }\n}\n",
  "sourcePath": "/Users/benediamond/anonymous-zether/packages/protocol/contracts/BurnVerifier.sol",
  "compiler": {
    "name": "solc",
    "version": "0.5.4+commit.9549d8ff.Emscripten.clang"
  },
  "schemaVersion": "3.0.19",
  "updatedAt": "2020-01-21T17:03:24.407Z",
  "devdoc": {
    "methods": {}
  },
  "userdoc": {
    "methods": {}
  }
}