{
  "contractName": "Utils",
  "abi": [
    {
      "constant": true,
      "inputs": [],
      "name": "GROUP_ORDER",
      "outputs": [
        {
          "name": "",
          "type": "uint256"
        }
      ],
      "payable": false,
      "stateMutability": "view",
      "type": "function"
    }
  ],
  "bytecode": "0x60fd61002f600b82828239805160001a6073146000811461001f57610021565bfe5b5030600052607381538281f3fe73000000000000000000000000000000000000000030146080604052600436106050576000357c0100000000000000000000000000000000000000000000000000000000900480638e692fa1146055575b600080fd5b605b606f565b6040516066919060a0565b60405180910390f35b7f30644e72e131a029b85045b68181585d2833e84879b9709143e1f593f000000181565b609a8160b9565b82525050565b600060208201905060b360008301846093565b92915050565b600081905091905056fea265627a7a72305820269a33f4224b1f3f2ed1f25ce99c505c978cf80cbeb972f9b899d12db6bf28816c6578706572696d656e74616cf50037",
  "source": "pragma solidity 0.5.4;\npragma experimental ABIEncoderV2;\n\nlibrary Utils {\n\n    uint256 public constant GROUP_ORDER = 21888242871839275222246405745257275088548364400416034343698204186575808495617;\n    uint256 constant UNITY = 9334303377689037989442018753807510978357674015322511348041267794643984346845; // primitive 2^28th root of unity modulo GROUP_ORDER (not field!)\n\n    function add(uint256 x, uint256 y) internal pure returns (uint256) {\n        return addmod(x, y, GROUP_ORDER);\n    }\n\n    function mul(uint256 x, uint256 y) internal pure returns (uint256) {\n        return mulmod(x, y, GROUP_ORDER);\n    }\n\n    function inv(uint256 x) internal view returns (uint256) {\n        return exp(x, GROUP_ORDER - 2);\n    }\n\n    function mod(uint256 x) internal pure returns (uint256) {\n        return x % GROUP_ORDER;\n    }\n\n    function sub(uint256 x, uint256 y) internal pure returns (uint256) {\n        return x >= y ? x - y : GROUP_ORDER - y + x;\n    }\n\n    function neg(uint256 x) internal pure returns (uint256) {\n        return GROUP_ORDER - x;\n    }\n\n    function exp(uint256 base, uint256 exponent) internal view returns (uint256 output) {\n        uint256 order = GROUP_ORDER;\n        assembly {\n            let m := mload(0x40)\n            mstore(m, 0x20)\n            mstore(add(m, 0x20), 0x20)\n            mstore(add(m, 0x40), 0x20)\n            mstore(add(m, 0x60), base)\n            mstore(add(m, 0x80), exponent)\n            mstore(add(m, 0xa0), order)\n            if iszero(staticcall(gas, 0x05, m, 0xc0, m, 0x20)) { // staticcall or call?\n                revert(0, 0)\n            }\n            output := mload(m)\n        }\n    }\n}\n",
  "sourcePath": "/Users/benediamond/anonymous-zether/packages/protocol/contracts/Utils.sol",
  "compiler": {
    "name": "solc",
    "version": "0.5.4+commit.9549d8ff.Emscripten.clang"
  },
  "schemaVersion": "3.0.9",
  "updatedAt": "2019-08-05T16:43:41.430Z",
  "devdoc": {
    "methods": {}
  },
  "userdoc": {
    "methods": {}
  }
}