{
  "contractName": "ZetherVerifier",
  "abi": [
    {
      "inputs": [],
      "payable": false,
      "stateMutability": "nonpayable",
      "type": "constructor"
    },
    {
      "constant": true,
      "inputs": [
        {
          "name": "CLn",
          "type": "bytes32[2][]"
        },
        {
          "name": "CRn",
          "type": "bytes32[2][]"
        },
        {
          "name": "L",
          "type": "bytes32[2][]"
        },
        {
          "name": "R",
          "type": "bytes32[2]"
        },
        {
          "name": "y",
          "type": "bytes32[2][]"
        },
        {
          "name": "epoch",
          "type": "uint256"
        },
        {
          "name": "u",
          "type": "bytes32[2]"
        },
        {
          "name": "proof",
          "type": "bytes"
        }
      ],
      "name": "baseSize",
      "outputs": [
        {
          "name": "size",
          "type": "uint256"
        }
      ],
      "payable": false,
      "stateMutability": "view",
      "type": "function"
    },
    {
      "constant": false,
      "inputs": [
        {
          "name": "size",
          "type": "uint256"
        },
        {
          "name": "CRn",
          "type": "bytes32[2][]"
        },
        {
          "name": "L",
          "type": "bytes32[2][]"
        },
        {
          "name": "R",
          "type": "bytes32[2]"
        },
        {
          "name": "y",
          "type": "bytes32[2][]"
        },
        {
          "name": "epoch",
          "type": "uint256"
        },
        {
          "name": "u",
          "type": "bytes32[2]"
        },
        {
          "name": "proof",
          "type": "bytes"
        }
      ],
      "name": "extendBase",
      "outputs": [
        {
          "name": "",
          "type": "bool"
        }
      ],
      "payable": true,
      "stateMutability": "payable",
      "type": "function"
    },
    {
      "constant": true,
      "inputs": [
        {
          "name": "CLn",
          "type": "bytes32[2][]"
        },
        {
          "name": "CRn",
          "type": "bytes32[2][]"
        },
        {
          "name": "L",
          "type": "bytes32[2][]"
        },
        {
          "name": "R",
          "type": "bytes32[2]"
        },
        {
          "name": "y",
          "type": "bytes32[2][]"
        },
        {
          "name": "epoch",
          "type": "uint256"
        },
        {
          "name": "u",
          "type": "bytes32[2]"
        },
        {
          "name": "proof",
          "type": "bytes"
        }
      ],
      "name": "verifyTransfer",
      "outputs": [
        {
          "name": "",
          "type": "bool"
        }
      ],
      "payable": false,
      "stateMutability": "view",
      "type": "function"
    }
  ],
  "bytecode": "0x60806040526200001f60026200025d640100000000026401000000009004565b6006906040620000319291906200059b565b503480156200003f57600080fd5b506200008f6040805190810160405280600181526020017f470000000000000000000000000000000000000000000000000000000000000081525062000312640100000000026401000000009004565b60026000820151816000015560208201518160010155905050620000f76040805190810160405280600181526020017f560000000000000000000000000000000000000000000000000000000000000081525062000312640100000000026401000000009004565b6004600082015181600001556020820151816001015590505060008090505b604081101562000256576000620001726040805190810160405280600181526020017f47000000000000000000000000000000000000000000000000000000000000008152508362000395640100000000026401000000009004565b9080600181540180825580915050906001820390600052602060002090600202016000909192909190915060008201518160000155602082015181600101555050506001620002066040805190810160405280600181526020017f48000000000000000000000000000000000000000000000000000000000000008152508362000395640100000000026401000000009004565b908060018154018082558091505090600182039060005260206000209060020201600090919290919091506000820151816000015560208201518160010155505050808060010191505062000116565b506200073d565b62000267620005e0565b60018160006040811015156200027957fe5b602002018181525050818160016040811015156200029357fe5b6020020181815250506000600290505b60408110156200030c57620002e6838360018403604081101515620002c457fe5b60200201516200041b64010000000002620035f1179091906401000000009004565b8282604081101515620002f557fe5b6020020181815250508080600101915050620002a3565b50919050565b6200031c62000604565b6200038e7f30644e72e131a029b85045b68181585d97816a916871ca8d3c208c16d87cfd478360405160200162000354919062000698565b60405160208183030381529060405280519060200120600190048115156200037857fe5b0662000453640100000000026401000000009004565b9050919050565b6200039f62000604565b620004137f30644e72e131a029b85045b68181585d97816a916871ca8d3c208c16d87cfd478484604051602001620003d9929190620006b1565b6040516020818303038152906040528051906020012060019004811515620003fd57fe5b0662000453640100000000026401000000009004565b905092915050565b60007f30644e72e131a029b85045b68181585d2833e84879b9709143e1f593f00000018015156200044857fe5b828409905092915050565b6200045d62000604565b60005b600115620005105760006003620004888560036200052d640100000000026401000000009004565b019050620004d681600460017f30644e72e131a029b85045b68181585d97816a916871ca8d3c208c16d87cfd4701811515620004c057fe5b046200052d640100000000026401000000009004565b915080620004f58360026200052d640100000000026401000000009004565b141562000503575062000510565b6001840193505062000460565b604080519081016040528084815260200182815250915050919050565b6000807f30644e72e131a029b85045b68181585d97816a916871ca8d3c208c16d87cfd47905060405160208152602080820152602060408201528460608201528360808201528160a082015260208160c08360055afa15156200058f57600080fd5b80519250505092915050565b8260408101928215620005cd579160200282015b82811115620005cc578251825591602001919060010190620005af565b5b509050620005dc91906200061e565b5090565b61080060405190810160405280604090602082028038833980820191505090505090565b604080519081016040528060008152602001600081525090565b6200064391905b808211156200063f57600081600090555060010162000625565b5090565b90565b60006200065382620006dd565b6200065f8185620006e8565b935062000671818560208601620006fd565b80840191505092915050565b620006926200068c82620006f3565b62000733565b82525050565b6000620006a6828462000646565b915081905092915050565b6000620006bf828562000646565b9150620006cd82846200067d565b6020820191508190509392505050565b600081519050919050565b600081905092915050565b6000819050919050565b60005b838110156200071d57808201518184015260208101905062000700565b838111156200072d576000848401525b50505050565b6000819050919050565b615a3b806200074d6000396000f3fe608060405260043610610051576000357c0100000000000000000000000000000000000000000000000000000000900480631659e67d146100565780634e8ee0e214610093578063a00547ab146100be575b600080fd5b34801561006257600080fd5b5061007d60048036036100789190810190614d60565b6100da565b60405161008a9190615487565b60405180910390f35b34801561009f57600080fd5b506100a861056a565b6040516100b59190615582565b60405180910390f35b6100d860048036036100d39190810190614e8b565b610576565b005b60006100e4614493565b6000865190508060008054905010151515610134576040517f08c379a000000000000000000000000000000000000000000000000000000000815260040161012b906154e2565b60405180910390fd5b8060405190808252806020026020018201604052801561016e57816020015b61015b6144de565b8152602001906001900390816101535790505b508260000181905250806040519080825280602002602001820160405280156101b157816020015b61019e6144de565b8152602001906001900390816101965790505b508260200181905250806040519080825280602002602001820160405280156101f457816020015b6101e16144de565b8152602001906001900390816101d95790505b5082604001819052508060405190808252806020026020018201604052801561023757816020015b6102246144de565b81526020019060019003908161021c5790505b50826080018190525060008090505b8181101561049b5760408051908101604052808d8381518110151561026757fe5b90602001906020020151600060028110151561027f57fe5b60200201516001900481526020018d8381518110151561029b57fe5b9060200190602002015160016002811015156102b357fe5b6020020151600190048152508360000151828151811015156102d157fe5b9060200190602002018190525060408051908101604052808c838151811015156102f757fe5b90602001906020020151600060028110151561030f57fe5b60200201516001900481526020018c8381518110151561032b57fe5b90602001906020020151600160028110151561034357fe5b60200201516001900481525083602001518281518110151561036157fe5b9060200190602002018190525060408051908101604052808b8381518110151561038757fe5b90602001906020020151600060028110151561039f57fe5b60200201516001900481526020018b838151811015156103bb57fe5b9060200190602002015160016002811015156103d357fe5b6020020151600190048152508360400151828151811015156103f157fe5b906020019060200201819052506040805190810160405280898381518110151561041757fe5b90602001906020020151600060028110151561042f57fe5b6020020151600190048152602001898381518110151561044b57fe5b90602001906020020151600160028110151561046357fe5b60200201516001900481525083608001518281518110151561048157fe5b906020019060200201819052508080600101915050610246565b5060408051908101604052808960006002811015156104b657fe5b60200201516001900481526020018960016002811015156104d357fe5b6020020151600190048152508260600181905250858260a0018181525050604080519081016040528086600060028110151561050b57fe5b602002015160019004815260200186600160028110151561052857fe5b6020020151600190048152508260c001819052506105446144f8565b61054d8561069f565b90506105598382610f86565b935050505098975050505050505050565b60008080549050905090565b6000808054905090505b8181101561069b5760006105c96040805190810160405280600181526020017f470000000000000000000000000000000000000000000000000000000000000081525083613496565b908060018154018082558091505090600182039060005260206000209060020201600090919290919091506000820151816000015560208201518160010155505050600161064c6040805190810160405280600181526020017f480000000000000000000000000000000000000000000000000000000000000081525083613496565b9080600181540180825580915050906001820390600052602060002090600202016000909192909190915060008201518160000155602082015181600101555050508080600101915050610580565b5050565b6106a76144f8565b60408051908101604052806106bd846000613506565b81526020016106cd846020613506565b815250816020018190525060408051908101604052806106ee846040613506565b81526020016106fe846060613506565b8152508160400181905250604080519081016040528061071f846080613506565b815260200161072f8460a0613506565b815250816060018190525060408051908101604052806107508460c0613506565b81526020016107608460e0613506565b81525081608001819052506040805190810160405280604080519081016040528061078d86610100613506565b815260200161079e86610120613506565b815250815260200160408051908101604052806107bd86610140613506565b81526020016107ce86610160613506565b8152508152508160a001819052506107e882610180613506565b816101000181815250506107fe826101a0613506565b8160c0018181525050610813826101c0613506565b8160e001818152505061082461458a565b610830836101e0613506565b81600001818152505061084583610200613506565b81602001818152505061085a83610220613506565b816040018181525050808261014001819052506108756145ac565b60008090505b60068110156109355760408051908101604052806108a0876040850261024001613506565b81526020016108b6876040850261026001613506565b8152508260000151826006811015156108cb57fe5b602002018190525060408051908101604052806108f2876040856006010261024001613506565b815260200161090b876040856006010261026001613506565b81525082602001518260068110151561092057fe5b6020020181905250808060010191505061087b565b5061094884608060060261024001613506565b81604001818152505061096384608060060261026001613506565b8160600181815250508083610160018190525061097e6145e2565b600060c06102a06105808851030381151561099557fe5b04905060408051908101604052806109af88610580613506565b81526020016109c0886105a0613506565b815250826000018190525060408051908101604052806109e2886105c0613506565b81526020016109f3886105e0613506565b81525082602001819052506040805190810160405280610a1588610600613506565b8152602001610a2688610620613506565b81525082604001819052506040805190810160405280610a4888610640613506565b8152602001610a5988610660613506565b81525082606001819052506040805190810160405280610a7b88610680613506565b8152602001610a8c886106a0613506565b8152508260a001819052506040805190810160405280610aae886106c0613506565b8152602001610abf886106e0613506565b8152508260c001819052506040805190810160405280610ae188610700613506565b8152602001610af288610720613506565b8152508260e001819052506040805190810160405280610b1488610740613506565b8152602001610b2588610760613506565b8152508261010001819052506040805190810160405280610b4888610780613506565b8152602001610b59886107a0613506565b8152508261014001819052506040805190810160405280610b7c886107c0613506565b8152602001610b8d886107e0613506565b81525082610160018190525060018103604051908082528060200260200182016040528015610bd657816020015b610bc361469c565b815260200190600190039081610bbb5790505b5082610180018190525060008090505b60018203811015610c8d57610c02878260200261080001613506565b83610180015182815181101515610c1557fe5b906020019060200201516000600281101515610c2d57fe5b602002018181525050610c4c8760208360018603010261080001613506565b83610180015182815181101515610c5f57fe5b906020019060200201516001600281101515610c7757fe5b6020020181815250508080600101915050610be6565b50600281811515610c9a57fe5b04604051908082528060200260200182016040528015610cd457816020015b610cc16146be565b815260200190600190039081610cb95790505b508260800181905250600281811515610ce957fe5b04604051908082528060200260200182016040528015610d2357816020015b610d106146be565b815260200190600190039081610d085790505b5082610120018190525060008090505b600282811515610d3f57fe5b04811015610f14576040805190810160405280610d65896040858701026107c001613506565b8152602001610d7d896040858701026107e001613506565b815250836080015182815181101515610d9257fe5b906020019060200201516000600281101515610daa57fe5b60200201819052506040805190810160405280610dd38960408502606087026107c00101613506565b8152602001610dee8960408502606087026107e00101613506565b815250836080015182815181101515610e0357fe5b906020019060200201516001600281101515610e1b57fe5b60200201819052506040805190810160405280610e448960408502608087026107c00101613506565b8152602001610e5f8960408502608087026107e00101613506565b81525083610120015182815181101515610e7557fe5b906020019060200201516000600281101515610e8d57fe5b60200201819052506040805190810160405280610eb6896040850260a087026107c00101613506565b8152602001610ed1896040850260a087026107e00101613506565b81525083610120015182815181101515610ee757fe5b906020019060200201516001600281101515610eff57fe5b60200201819052508080600101915050610d33565b5080856000018181525050610f308660c083026107c001613506565b826101a0018181525050610f4b8660c083026107e001613506565b826101c0018181525050610f668660c0830261080001613506565b826101e00181815250508185610120018190525084945050505050919050565b6000610f906146ec565b61102f610fe8856000015186602001518760400151886060015189608001518a60a00151604051602001610fc99695949392919061540a565b604051602081830303815290604052805190602001206001900461351f565b84602001518560400151866060015187608001516040516020016110109594939291906156c7565b604051602081830303815290604052805190602001206001900461351f565b8160000181815250506110458160000151613554565b816020018190525061108481600001516040516020016110659190615582565b604051602081830303815290604052805190602001206001900461351f565b8160400181815250506110a8816040015182604001516135f190919063ffffffff16565b816060015160006003811015156110bb57fe5b6020020181815250506000600190505b600381101561112c5761110482604001518360600151600184036003811015156110f157fe5b60200201516135f190919063ffffffff16565b82606001518260038110151561111657fe5b60200201818152505080806001019150506110cb565b5060008090505b6002604081151561114057fe5b048110156111f4576111758160020a8360600151600060038110151561116257fe5b60200201516135f190919063ffffffff16565b82608001518260408110151561118757fe5b6020020181815250506111bd8160020a836060015160016003811015156111aa57fe5b60200201516135f190919063ffffffff16565b8260800151600260408115156111cf57fe5b0483016040811015156111de57fe5b6020020181815250508080600101915050611133565b5061123281604001518460a00151604051602001611213929190615667565b604051602081830303815290604052805190602001206001900461351f565b8161012001818152505061129381604001516112858360600151600160038110151561125a57fe5b60200201518460600151600060038110151561127257fe5b602002015161362890919063ffffffff16565b6135f190919063ffffffff16565b8160a00181815250506113366112dc8260a001516112ce600260408115156112b757fe5b0460020a8560a001516135f190919063ffffffff16565b61365f90919063ffffffff16565b61132861130d846060015160006003811015156112f557fe5b6020020151856040015161365f90919063ffffffff16565b61131a856020015161369f565b6135f190919063ffffffff16565b61365f90919063ffffffff16565b8160c00181815250506113aa6113688460a00151600060028110151561135857fe5b60200201518361012001516136ea565b6113a58560a00151600160028110151561137e57fe5b60200201516113a08561012001518661012001516135f190919063ffffffff16565b6136ea565b613725565b8160e001819052506113ce8160c0015184610100015161365f90919063ffffffff16565b816101000181815250506113e06145e2565b83610120015190506113f0614758565b6113f86147d0565b604080519081016040528084610140015181526020018461016001518152509050611491846101200151846080015185610120015186600001518760200151886040015189606001518a60a001518b60c001518c60e001518d61010001518c6040516020016114729c9b9a9998979695949392919061559d565b604051602081830303815290604052805190602001206001900461351f565b82600001818152505085600001516040519080825280602002602001820160405280156114d857816020015b6114c561469c565b8152602001906001900390816114bd5790505b5082602001819052508160000151826020015160008151811015156114f957fe5b90602001906020020151600060028110151561151157fe5b60200201818152505081600001518260200151600081518110151561153257fe5b90602001906020020151600160028110151561154a57fe5b6020020181815250506000600190505b8660000151811015611787578361018001516001820381518110151561157c57fe5b90602001906020020151600060028110151561159457fe5b60200201518360200151828151811015156115ab57fe5b9060200190602002015160006002811015156115c357fe5b602002018181525050836101800151600182038151811015156115e257fe5b9060200190602002015160016002811015156115fa57fe5b602002015183602001518281518110151561161157fe5b90602001906020020151600160028110151561162957fe5b6020020181815250506116a283602001518281518110151561164757fe5b90602001906020020151600060028110151561165f57fe5b60200201518460200151600081518110151561167757fe5b90602001906020020151600060028110151561168f57fe5b602002015161365f90919063ffffffff16565b836020015160008151811015156116b557fe5b9060200190602002015160006002811015156116cd57fe5b6020020181815250506117468360200151828151811015156116eb57fe5b90602001906020020151600160028110151561170357fe5b60200201518460200151600081518110151561171b57fe5b90602001906020020151600160028110151561173357fe5b602002015161365f90919063ffffffff16565b8360200151600081518110151561175957fe5b90602001906020020151600160028110151561177157fe5b602002018181525050808060010191505061155a565b506117906147fe565b60008090505b87600001518110156118ab5761181e826118196000848154811015156117b857fe5b9060005260206000209060020201604080519081016040529081600082015481526020016001820154815250508760200151858151811015156117f757fe5b90602001906020020151600060028110151561180f57fe5b60200201516136ea565b613725565b915061189c8261189760018481548110151561183657fe5b90600052602060002090600202016040805190810160405290816000820154815260200160018201548152505087602001518581518110151561187557fe5b90602001906020020151600160028110151561188d57fe5b60200201516136ea565b613725565b91508080600101915050611796565b5061190b6118ce6118c4866020015186600001516136ea565b8660000151613725565b61190683611901600460408051908101604052908160008201548152602001600182015481525050896101a001516136ea565b613725565b61376b565b151561194c576040517f08c379a000000000000000000000000000000000000000000000000000000000815260040161194390615502565b60405180910390fd5b60008090505b8760000151811015611adb576119e36119a685602001518381518110151561197657fe5b90602001906020020151600060028110151561198e57fe5b6020020151866000015161365f90919063ffffffff16565b8560200151838151811015156119b857fe5b9060200190602002015160006002811015156119d057fe5b60200201516135f190919063ffffffff16565b8460200151828151811015156119f557fe5b906020019060200201516000600281101515611a0d57fe5b602002018181525050611a9b611a5e856020015183815181101515611a2e57fe5b906020019060200201516001600281101515611a4657fe5b6020020151866000015161365f90919063ffffffff16565b856020015183815181101515611a7057fe5b906020019060200201516001600281101515611a8857fe5b60200201516135f190919063ffffffff16565b846020015182815181101515611aad57fe5b906020019060200201516001600281101515611ac557fe5b6020020181815250508080600101915050611952565b506040805190810160405280600081526020016000815250905060008090505b8760000151811015611c1057611b8382611b7e600084815481101515611b1d57fe5b906000526020600020906002020160408051908101604052908160008201548152602001600182015481525050876020015185815181101515611b5c57fe5b906020019060200201516000600281101515611b7457fe5b60200201516136ea565b613725565b9150611c0182611bfc600184815481101515611b9b57fe5b906000526020600020906002020160408051908101604052908160008201548152602001600182015481525050876020015185815181101515611bda57fe5b906020019060200201516001600281101515611bf257fe5b60200201516136ea565b613725565b91508080600101915050611afb565b50611c70611c33611c29866040015186600001516136ea565b8660600151613725565b611c6b83611c66600460408051908101604052908160008201548152602001600182015481525050896101c001516136ea565b613725565b61376b565b1515611cb1576040517f08c379a0000000000000000000000000000000000000000000000000000000008152600401611ca890615542565b60405180910390fd5b826000015183602001516000815181101515611cc957fe5b906020019060200201516000600281101515611ce157fe5b602002018181525050826000015183602001516000815181101515611d0257fe5b906020019060200201516001600281101515611d1a57fe5b6020020181815250506000600190505b8760000151811015611f575784610180015160018203815181101515611d4c57fe5b906020019060200201516000600281101515611d6457fe5b6020020151846020015182815181101515611d7b57fe5b906020019060200201516000600281101515611d9357fe5b60200201818152505084610180015160018203815181101515611db257fe5b906020019060200201516001600281101515611dca57fe5b6020020151846020015182815181101515611de157fe5b906020019060200201516001600281101515611df957fe5b602002018181525050611e72846020015182815181101515611e1757fe5b906020019060200201516000600281101515611e2f57fe5b602002015185602001516000815181101515611e4757fe5b906020019060200201516000600281101515611e5f57fe5b602002015161365f90919063ffffffff16565b84602001516000815181101515611e8557fe5b906020019060200201516000600281101515611e9d57fe5b602002018181525050611f16846020015182815181101515611ebb57fe5b906020019060200201516001600281101515611ed357fe5b602002015185602001516000815181101515611eeb57fe5b906020019060200201516001600281101515611f0357fe5b602002015161365f90919063ffffffff16565b84602001516000815181101515611f2957fe5b906020019060200201516001600281101515611f4157fe5b6020020181815250508080600101915050611d2a565b50611f7f611f6d896060015185600001516136ea565b611f7a8660a00151613793565b613725565b8360400181905250611f998360200151896040015161380c565b8360c00181905250611fb38360200151896080015161380c565b8360e0018190525060008090505b60028860000151811515611fd157fe5b048110156121f55760008090505b60028110156121e75760008090505b600281101561209e57612064866020015182856002020181518110151561201157fe5b906020019060200201518360028110151561202857fe5b60200201518760a001518360028110151561203f57fe5b60200201518460028110151561205157fe5b602002015161362890919063ffffffff16565b8660a001518260028110151561207657fe5b60200201518360028110151561208857fe5b6020020181815250508080600101915050611fee565b5061210b8560c00151838151811015156120b457fe5b90602001906020020151826002811015156120cb57fe5b60200201516121068860800151858151811015156120e557fe5b90602001906020020151846002811015156120fc57fe5b6020020151613793565b613725565b8560c001518381518110151561211d57fe5b906020019060200201518260028110151561213457fe5b60200201819052506121a98560e001518381518110151561215157fe5b906020019060200201518260028110151561216857fe5b60200201516121a48861012001518581518110151561218357fe5b906020019060200201518460028110151561219a57fe5b6020020151613793565b613725565b8560e00151838151811015156121bb57fe5b90602001906020020151826002811015156121d257fe5b60200201819052508080600101915050611fdf565b508080600101915050611fc1565b5061225d8360a00151600060028110151561220c57fe5b6020020151600160028110151561221f57fe5b60200201518460a00151600060028110151561223757fe5b6020020151600060028110151561224a57fe5b60200201516135f190919063ffffffff16565b8360a00151600060028110151561227057fe5b6020020151600060028110151561228357fe5b6020020181815250506122f38360a0015160016002811015156122a257fe5b602002015160016002811015156122b557fe5b60200201518460a0015160016002811015156122cd57fe5b602002015160006002811015156122e057fe5b60200201516135f190919063ffffffff16565b8360a00151600160028110151561230657fe5b6020020151600060028110151561231957fe5b602002018181525050612440612354600460408051908101604052908160008201548152602001600182015481525050866101e001516136ea565b61243b6123c660008081548110151561236957fe5b9060005260206000209060020201604080519081016040529081600082015481526020016001820154815250508760a0015160006002811015156123a957fe5b602002015160006002811015156123bc57fe5b60200201516136ea565b612436600160008154811015156123d957fe5b9060005260206000209060020201604080519081016040529081600082015481526020016001820154815250508860a00151600160028110151561241957fe5b6020020151600060028110151561242c57fe5b60200201516136ea565b613725565b613725565b83610100018190525061247883610100015161247361246887610160015187600001516136ea565b876101400151613725565b61376b565b15156124b9576040517f08c379a00000000000000000000000000000000000000000000000000000000081526004016124b090615522565b60405180910390fd5b60008090505b87600001518110156125a85761252b84606001516125268b60000151848151811015156124e857fe5b9060200190602002015187602001518581518110151561250457fe5b90602001906020020151600060028110151561251c57fe5b60200201516136ea565b613725565b8460600181905250612593846080015161258e8b602001518481518110151561255057fe5b9060200190602002015187602001518581518110151561256c57fe5b90602001906020020151600060028110151561258457fe5b60200201516136ea565b613725565b846080018190525080806001019150506124bf565b506125c383606001516125be8660e00151613793565b613725565b83606001819052506125e683608001516125e1866101000151613793565b613725565b836080018190525061263161261f60026040805190810160405290816000820154815260200160018201548152505085600001516136ea565b61262c8660c00151613793565b613725565b83610120018190525061264261458a565b8761014001519050612652614818565b61265f8260000151613ac5565b816000018181525050600160028a6000015181151561267a57fe5b04036040519080825280602002602001820160405280156126b557816020015b6126a26146be565b81526020019060019003908161269a5790505b5081602001819052506000600190505b60028a600001518115156126d557fe5b048110156128545761275d61271c8760e00151838151811015156126f557fe5b90602001906020020151600060028110151561270d57fe5b602002015185604001516136ea565b6127588860c001518481518110151561273157fe5b90602001906020020151600060028110151561274957fe5b602002015185600001516136ea565b613725565b82602001516001830381518110151561277257fe5b90602001906020020151600060028110151561278a57fe5b60200201819052506128126127d18760e00151838151811015156127aa57fe5b9060200190602002015160016002811015156127c257fe5b602002015185604001516136ea565b61280d8860c00151848151811015156127e657fe5b9060200190602002015160016002811015156127fe57fe5b602002015185600001516136ea565b613725565b82602001516001830381518110151561282757fe5b90602001906020020151600160028110151561283f57fe5b602002018190525080806001019150506126c5565b5061288261286b86610120015184604001516136ea565b61287d876040015184600001516136ea565b613725565b81606001819052506128e26128a086610120015184602001516136ea565b6128dd8760e0015160008151811015156128b657fe5b9060200190602002015160006002811015156128ce57fe5b602002015184600001516136ea565b613725565b816040018190525061292d6040805190810160405280600681526020017f5a657468657200000000000000000000000000000000000000000000000000008152508b60a00151613496565b816080018190525061296161294a826080015184602001516136ea565b61295c8c60c0015184600001516136ea565b613725565b8160a00181905250612a5b6129e16129d78760e00151600081518110151561298557fe5b90602001906020020151600060028110151561299d57fe5b60200201518860e0015160008151811015156129b557fe5b9060200190602002015160016002811015156129cd57fe5b6020020151613725565b84604001516136ea565b612a56612a4c8860c0015160008151811015156129fa57fe5b906020019060200201516000600281101515612a1257fe5b60200201518960c001516000815181101515612a2a57fe5b906020019060200201516001600281101515612a4257fe5b6020020151613725565b84600001516136ea565b613725565b8160c00181905250612bb0612b41612ae8612acb612ab48960c001516000815181101515612a8557fe5b906020019060200201516000600281101515612a9d57fe5b6020020151612aaf8860000151613ac5565b6136ea565b612ac68a6040015188602001516136ea565b613725565b8a606001516000600381101515612ade57fe5b60200201516136ea565b612b3c612b1f612b008a6060015188600001516136ea565b612b1a8b60800151612b158a60200151613ac5565b6136ea565b613725565b8b606001516001600381101515612b3257fe5b60200201516136ea565b613725565b612bab612b78612b598d6060015187600001516136ea565b612b738e60800151612b6e8960200151613ac5565b6136ea565b613725565b612ba689600001518c606001516002600381101515612b9357fe5b60200201516135f190919063ffffffff16565b6136ea565b613725565b8160e00181905250612c6a612bc88260e00151613793565b612c65612c45612c12612c006002604080519081016040529081600082015481526020016001820154815250508d61010001516136ea565b612c0d8d60e00151613793565b613725565b612c406004604080519081016040529081600082015481526020016001820154815250508f60c001516136ea565b613725565b612c60896000015187600001516135f190919063ffffffff16565b6136ea565b613725565b8161010001819052506000612cd18660000151836040015184606001518560a001518660c001518761010001518860200151604051602001612cb2979695949392919061571b565b604051602081830303815290604052805190602001206001900461351f565b90508961014001516000015181141515612d20576040517f08c379a0000000000000000000000000000000000000000000000000000000008152600401612d17906154c2565b60405180910390fd5b612d2861488f565b612d7284600001518c61010001518d60c001518e60e00151604051602001612d539493929190615794565b604051602081830303815290604052805190602001206001900461351f565b816080018181525050612da960026040805190810160405290816000820154815260200160018201548152505082608001516136ea565b8160000181905250612e2a6001805480602002602001604051908101604052809291908181526020016000905b82821015612e1c57838290600052602060002090600202016040805190810160405290816000820154815260200160018201548152505081526020019060010190612dd6565b505050508a60200151613af1565b8160200181905250612e51612e478a602001518b60400151613b6d565b8a60800151613bd4565b8160400181905250612f0a612e7c8c60200151612e778e604001518d61012001516136ea565b613725565b612f05612ef36000805480602002602001604051908101604052809291908181526020016000905b82821015612eea57838290600052602060002090600202016040805190810160405290816000820154815260200160018201548152505081526020019060010190612ea4565b50505050613c4d565b612f008d60400151613ac5565b6136ea565b613725565b8160600181905250612f6f612f4b612f466004604080519081016040529081600082015481526020016001820154815250508e60e001516136ea565b613793565b612f6a8360600151612f6585602001518660400151613c9a565b613725565b613725565b8160600181905250612f978160600151612f9283600001518e61010001516136ea565b613725565b8160600181905250612fa76145ac565b8b6101600151905060008090505b60068110156130f4576130258360800151836000015183600681101515612fd857fe5b6020020151846020015184600681101515612fef57fe5b602002015160405160200161300693929190615690565b604051602081830303815290604052805190602001206001900461351f565b83608001818152505082608001518360a001518260068110151561304557fe5b602002018181525050600061305d8460800151613cfe565b90506130de61309984600001518460068110151561307757fe5b602002015161309460028860800151613d3490919063ffffffff16565b6136ea565b6130d96130cf8660200151866006811015156130b157fe5b60200201516130ca600287613d3490919063ffffffff16565b6136ea565b8760600151613725565b613725565b8460600181905250508080600101915050612fb5565b5060018260c00151600060408110151561310a57fe5b60200201818152505060008090505b600681101561318b576131628360a001518260068110151561313757fe5b60200201518460c00151600060408110151561314f57fe5b60200201516135f190919063ffffffff16565b8360c00151600060408110151561317557fe5b6020020181815250508080600101915050613119565b506131946148f2565b6131b48360c0015160006040811015156131aa57fe5b6020020151613cfe565b8360c0015160006040811015156131c757fe5b60200201818152505060008090505b600260408115156131e357fe5b048110156132f65760008090505b6040828260019060020a020110156132ea5760008160019060020a0283019050838160408110151561321f57fe5b602002015115156132de5760006132778760a001518460016006030360068110151561324757fe5b60200201518860a001518560016006030360068110151561326457fe5b60200201516135f190919063ffffffff16565b90506132a2818860c001518660408110151561328f57fe5b60200201516135f190919063ffffffff16565b8760c00151836040811015156132b457fe5b602002018181525050600185836040811015156132cd57fe5b602002019015159081151581525050505b508060010190506131f1565b508060010190506131d6565b506132ff6147fe565b6133076147fe565b60008090505b60408110156133d05761337a8361337560008481548110151561332c57fe5b9060005260206000209060020201604080519081016040529081600082015481526020016001820154815250508960c001518560408110151561336b57fe5b60200201516136ea565b613725565b92506133c1826133bc88602001518460408110151561339557fe5b60200201518960c00151856001604003036040811015156133b257fe5b60200201516136ea565b613725565b9150808060010191505061330d565b506133d96147fe565b61342d6134006133ed8588604001516136ea565b6133fb8589606001516136ea565b613725565b613428886000015161342389606001518a604001516135f190919063ffffffff16565b6136ea565b613725565b905061343d86606001518261376b565b151561347e576040517f08c379a000000000000000000000000000000000000000000000000000000000815260040161347590615562565b60405180910390fd5b60019e50505050505050505050505050505092915050565b61349e6147fe565b6134fe7f30644e72e131a029b85045b68181585d97816a916871ca8d3c208c16d87cfd4784846040516020016134d59291906153e2565b60405160208183030381529060405280519060200120600190048115156134f857fe5b06613da1565b905092915050565b6000604051826020850101518152805191505092915050565b60007f30644e72e131a029b85045b68181585d2833e84879b9709143e1f593f00000018281151561354c57fe5b069050919050565b61355c614916565b600181600060408110151561356d57fe5b6020020181815250508181600160408110151561358657fe5b6020020181815250506000600290505b60408110156135eb576135c78383600184036040811015156135b457fe5b60200201516135f190919063ffffffff16565b82826040811015156135d557fe5b6020020181815250508080600101915050613596565b50919050565b60007f30644e72e131a029b85045b68181585d2833e84879b9709143e1f593f000000180151561361d57fe5b828409905092915050565b60007f30644e72e131a029b85045b68181585d2833e84879b9709143e1f593f000000180151561365457fe5b828408905092915050565b6000818310156136935782827f30644e72e131a029b85045b68181585d2833e84879b9709143e1f593f00000010301613697565b8183035b905092915050565b600080600090505b60408110156136e4576136d583826040811015156136c157fe5b60200201518361362890919063ffffffff16565b915080806001019150506136a7565b50919050565b6136f26147fe565b604051835181526020840151602082015282604082015260408260608360075afa151561371e57600080fd5b5092915050565b61372d6147fe565b6040518351815260208401516020820152825160408201526020830151606082015260408260808360065afa151561376457600080fd5b5092915050565b60008160000151836000015114801561378b575081602001518360200151145b905092915050565b61379b6147fe565b6040805190810160405280836000015181526020017f30644e72e131a029b85045b68181585d97816a916871ca8d3c208c16d87cfd4784602001518115156137df57fe5b067f30644e72e131a029b85045b68181585d97816a916871ca8d3c208c16d87cfd47038152509050919050565b6060600083519050600060028281151561382257fe5b0490508060405190808252806020026020018201604052801561385f57816020015b61384c6146be565b8152602001906001900390816138445790505b509250606061386f856000613e41565b90506060836040519080825280602002602001820160405280156138a25781602001602082028038833980820191505090505b50905060008090505b6002811015613ab75760008090505b858110156139225788868288038115156138d057fe5b068151811015156138dd57fe5b90602001906020020151826002811015156138f457fe5b6020020151838281518110151561390757fe5b906020019060200201818152505080806001019150506138ba565b5061392c826140a2565b915060608460405190808252806020026020018201604052801561396a57816020015b6139576144de565b81526020019060019003908161394f5790505b50905060006002905061397c81613cfe565b905060008090505b86811015613a3957613a11613a0b6139ca88848151811015156139a357fe5b9060200190602002015188858151811015156139bb57fe5b906020019060200201516136ea565b613a06898b86018151811015156139dd57fe5b90602001906020020151898c87018151811015156139f757fe5b906020019060200201516136ea565b613725565b836136ea565b8382815181101515613a1f57fe5b906020019060200201819052508080600101915050613984565b50613a45826001613e41565b915060008090505b86811015613aa7578281815181101515613a6357fe5b906020019060200201518982815181101515613a7b57fe5b9060200190602002015185600281101515613a9257fe5b60200201819052508080600101915050613a4d565b50505080806001019150506138ab565b508494505050505092915050565b6000817f30644e72e131a029b85045b68181585d2833e84879b9709143e1f593f0000001039050919050565b613af961493a565b60008090505b6040811015613b6657613b438482815181101515613b1957fe5b90602001906020020151613b3e8584604081101515613b3457fe5b6020020151613cfe565b6136ea565b8282604081101515613b5157fe5b60200201819052508080600101915050613aff565b5092915050565b613b75614916565b60008090505b6040811015613bcd57613ba9838583604081101515613b9657fe5b60200201516135f190919063ffffffff16565b8282604081101515613bb757fe5b6020020181815250508080600101915050613b7b565b5092915050565b613bdc614916565b60008090505b6040811015613c4657613c228382604081101515613bfc57fe5b60200201518583604081101515613c0f57fe5b602002015161362890919063ffffffff16565b8282604081101515613c3057fe5b6020020181815250508080600101915050613be2565b5092915050565b613c556147fe565b60008090505b6040811015613c9457613c85828483815181101515613c7657fe5b90602001906020020151613725565b91508080600101915050613c5b565b50919050565b613ca26147fe565b60008090505b6040811015613cf757613ce882613ce38684604081101515613cc657fe5b60200201518685604081101515613cd957fe5b60200201516136ea565b613725565b91508080600101915050613ca8565b5092915050565b6000613d2d8260027f30644e72e131a029b85045b68181585d2833e84879b9709143e1f593f000000103613d34565b9050919050565b6000807f30644e72e131a029b85045b68181585d2833e84879b9709143e1f593f0000001905060405160208152602080820152602060408201528460608201528360808201528160a082015260208160c08360055afa1515613d9557600080fd5b80519250505092915050565b613da96147fe565b60005b600115613e245760006003613dc28560036142ca565b019050613dfe81600460017f30644e72e131a029b85045b68181585d97816a916871ca8d3c208c16d87cfd4701811515613df857fe5b046142ca565b915080613e0c8360026142ca565b1415613e185750613e24565b60018401935050613dac565b604080519081016040528084815260200182815250915050919050565b60606000835190506001811415613e5b578391505061409c565b6000600282811515613e6957fe5b06141515613eac576040517f08c379a0000000000000000000000000000000000000000000000000000000008152600401613ea3906154a2565b60405180910390fd5b6000613ef0826310000000811515613ec057fe5b047f14a3074b02521e3b1ed9852e5028452693e87be4e910500c7ba9bbddb2f46edd613d3490919063ffffffff16565b90506000600190508415613f0e57613f0782613cfe565b9150600290505b613f1781613cfe565b90506060613f2f613f29886000614337565b87613e41565b90506060613f47613f41896001614337565b88613e41565b905060006001905085604051908082528060200260200182016040528015613f8957816020015b613f766144de565b815260200190600190039081613f6e5790505b50965060008090505b600287811515613f9e57fe5b0481101561409457613fae6147fe565b613fcf8483815181101515613fbf57fe5b90602001906020020151846136ea565b9050613ffb613ff58684815181101515613fe557fe5b9060200190602002015183613725565b876136ea565b898381518110151561400957fe5b90602001906020020181905250614048614042868481518110151561402a57fe5b9060200190602002015161403d84613793565b613725565b876136ea565b8960028a81151561405557fe5b04840181518110151561406457fe5b9060200190602002018190525061408487846135f190919063ffffffff16565b9250508080600101915050613f92565b505050505050505b92915050565b606060008251905060018114156140bc57829150506142c5565b60006002828115156140ca57fe5b0614151561410d576040517f08c379a0000000000000000000000000000000000000000000000000000000008152600401614104906154a2565b60405180910390fd5b600061415182631000000081151561412157fe5b047f14a3074b02521e3b1ed9852e5028452693e87be4e910500c7ba9bbddb2f46edd613d3490919063ffffffff16565b905060606141686141638660006143ea565b6140a2565b9050606061417f61417a8760016143ea565b6140a2565b9050600060019050846040519080825280602002602001820160405280156141b65781602001602082028038833980820191505090505b50955060008090505b6002868115156141cb57fe5b048110156142be5760006141ff8385848151811015156141e757fe5b906020019060200201516135f190919063ffffffff16565b905061422b81868481518110151561421357fe5b9060200190602002015161362890919063ffffffff16565b888381518110151561423957fe5b906020019060200201818152505061427181868481518110151561425957fe5b9060200190602002015161365f90919063ffffffff16565b8860028981151561427e57fe5b04840181518110151561428d57fe5b90602001906020020181815250506142ae86846135f190919063ffffffff16565b92505080806001019150506141bf565b5050505050505b919050565b6000807f30644e72e131a029b85045b68181585d97816a916871ca8d3c208c16d87cfd47905060405160208152602080820152602060408201528460608201528360808201528160a082015260208160c08360055afa151561432b57600080fd5b80519250505092915050565b60606002835181151561434657fe5b0460405190808252806020026020018201604052801561438057816020015b61436d6144de565b8152602001906001900390816143655790505b50905060008090505b6002845181151561439657fe5b048110156143e357838382600202018151811015156143b157fe5b9060200190602002015182828151811015156143c957fe5b906020019060200201819052508080600101915050614389565b5092915050565b6060600283518115156143f957fe5b046040519080825280602002602001820160405280156144285781602001602082028038833980820191505090505b50905060008090505b6002845181151561443e57fe5b0481101561448c578383826002020181518110151561445957fe5b90602001906020020151828281518110151561447157fe5b90602001906020020181815250508080600101915050614431565b5092915050565b610120604051908101604052806060815260200160608152602001606081526020016144bd6144de565b815260200160608152602001600081526020016144d86144de565b81525090565b604080519081016040528060008152602001600081525090565b6108e060405190810160405280600081526020016145146144de565b81526020016145216144de565b815260200161452e6144de565b815260200161453b6144de565b81526020016145486146be565b815260200160008152602001600081526020016000815260200161456a614969565b8152602001614577614a23565b8152602001614584614a45565b81525090565b6060604051908101604052806000815260200160008152602001600081525090565b610340604051908101604052806145c1614a7b565b81526020016145ce614a7b565b815260200160008152602001600081525090565b610340604051908101604052806145f76144de565b81526020016146046144de565b81526020016146116144de565b815260200161461e6144de565b8152602001606081526020016146326144de565b815260200161463f6144de565b815260200161464c6144de565b81526020016146596144de565b81526020016060815260200161466d6144de565b815260200161467a6144de565b8152602001606081526020016000815260200160008152602001600081525090565b6040805190810160405280600290602082028038833980820191505090505090565b6080604051908101604052806002905b6146d66144de565b8152602001906001900390816146ce5790505090565b6111606040519081016040528060008152602001614708614aaa565b81526020016000815260200161471c614ace565b8152602001614729614aaa565b815260200160008152602001600081526020016147446144de565b815260200160008152602001600081525090565b61024060405190810160405280600081526020016060815260200161477b6144de565b81526020016147886144de565b81526020016147956144de565b81526020016147a2614af1565b815260200160608152602001606081526020016147bd6144de565b81526020016147ca6144de565b81525090565b6080604051908101604052806002905b6147e86144de565b8152602001906001900390816147e05790505090565b604080519081016040528060008152602001600081525090565b61020060405190810160405280600081526020016060815260200161483b6144de565b81526020016148486144de565b81526020016148556144de565b81526020016148626144de565b815260200161486f6144de565b815260200161487c6144de565b81526020016148896144de565b81525090565b612160604051908101604052806148a46144de565b81526020016148b1614b1f565b81526020016148be614aaa565b81526020016148cb6144de565b8152602001600081526020016148df614b4e565b81526020016148ec614aaa565b81525090565b61080060405190810160405280604090602082028038833980820191505090505090565b61080060405190810160405280604090602082028038833980820191505090505090565b611000604051908101604052806040905b6149536144de565b81526020019060019003908161494b5790505090565b6103406040519081016040528061497e6144de565b815260200161498b6144de565b81526020016149986144de565b81526020016149a56144de565b8152602001606081526020016149b96144de565b81526020016149c66144de565b81526020016149d36144de565b81526020016149e06144de565b8152602001606081526020016149f46144de565b8152602001614a016144de565b8152602001606081526020016000815260200160008152602001600081525090565b6060604051908101604052806000815260200160008152602001600081525090565b61034060405190810160405280614a5a614a7b565b8152602001614a67614a7b565b815260200160008152602001600081525090565b610180604051908101604052806006905b614a946144de565b815260200190600190039081614a8c5790505090565b61080060405190810160405280604090602082028038833980820191505090505090565b606060405190810160405280600390602082028038833980820191505090505090565b6080604051908101604052806002905b614b0961469c565b815260200190600190039081614b015790505090565b611000604051908101604052806040905b614b386144de565b815260200190600190039081614b305790505090565b60c060405190810160405280600690602082028038833980820191505090505090565b600082601f8301121515614b8457600080fd5b8135614b97614b9282615806565b6157d9565b91508181835260208401935060208101905083856040840282011115614bbc57600080fd5b60005b83811015614bec5781614bd28882614bf6565b845260208401935060408301925050600181019050614bbf565b5050505092915050565b600082601f8301121515614c0957600080fd5b6002614c1c614c178261582e565b6157d9565b91508183856020840282011115614c3257600080fd5b60005b83811015614c625781614c488882614ce2565b845260208401935060208301925050600181019050614c35565b5050505092915050565b600082601f8301121515614c7f57600080fd5b6002614c92614c8d82615850565b6157d9565b91508183856020840282011115614ca857600080fd5b60005b83811015614cd85781614cbe8882614ce2565b845260208401935060208301925050600181019050614cab565b5050505092915050565b6000614cee82356159a1565b905092915050565b600082601f8301121515614d0957600080fd5b8135614d1c614d1782615872565b6157d9565b91508082526020830160208301858383011115614d3857600080fd5b614d438382846159b5565b50505092915050565b6000614d5882356159ab565b905092915050565b600080600080600080600080610140898b031215614d7d57600080fd5b600089013567ffffffffffffffff811115614d9757600080fd5b614da38b828c01614b71565b985050602089013567ffffffffffffffff811115614dc057600080fd5b614dcc8b828c01614b71565b975050604089013567ffffffffffffffff811115614de957600080fd5b614df58b828c01614b71565b9650506060614e068b828c01614c6c565b95505060a089013567ffffffffffffffff811115614e2357600080fd5b614e2f8b828c01614b71565b94505060c0614e408b828c01614d4c565b93505060e0614e518b828c01614c6c565b92505061012089013567ffffffffffffffff811115614e6f57600080fd5b614e7b8b828c01614cf6565b9150509295985092959890939650565b600060208284031215614e9d57600080fd5b6000614eab84828501614d4c565b91505092915050565b6000614ec08383614f91565b60808301905092915050565b6000614ed8838361534f565b60408301905092915050565b6000614eef826158cc565b614ef98185615937565b9350614f048361589e565b60005b82811015614f3257614f1a868351614eb4565b9550614f2582615903565b9150600181019050614f07565b50849250505092915050565b614f47816158e2565b614f518184615953565b9250614f5c826158b5565b60005b82811015614f8a57614f72858351614ecc565b9450614f7d8261591d565b9150600181019050614f5f565b5050505050565b614f9a816158d7565b614fa48184615948565b9250614faf826158ab565b60005b82811015614fdd57614fc5858351614ecc565b9450614fd082615910565b9150600181019050614fb2565b5050505050565b614fed816158d7565b614ff78184615953565b9250615002826158ab565b60005b8281101561503057615018858351614ecc565b945061502382615910565b9150600181019050615005565b5050505050565b6000615042826158ed565b61504c818561595e565b9350615057836158bf565b60005b828110156150855761506d868351614ecc565b95506150788261592a565b915060018101905061505a565b50849250505092915050565b61509a8161598b565b82525050565b60006150ab826158f8565b6150b58185615980565b93506150c58185602086016159c4565b80840191505092915050565b60006150de601f8361596f565b91507f496e7075742073697a65206973206e6f74206120706f776572206f66203221006000830152602082019050919050565b600061511e602a8361596f565b91507f5369676d612070726f746f636f6c206368616c6c656e676520657175616c697460008301527f79206661696c7572652e000000000000000000000000000000000000000000006020830152604082019050919050565b600061518460428361596f565b91507f496e61646571756174652073746f72656420766563746f72206261736521204360008301527f616c6c20657874656e644261736520616e64207468656e20747279206167616960208301527f6e2e0000000000000000000000000000000000000000000000000000000000006040830152606082019050919050565b6000615210601d8361596f565b91507f5265636f76657279206661696c75726520666f7220425e78202a20412e0000006000830152602082019050919050565b600061525060218361596f565b91507f496e646578206f70706f736974652070617269747920636865636b206661696c60008301527f2e000000000000000000000000000000000000000000000000000000000000006020830152604082019050919050565b60006152b6601d8361596f565b91507f5265636f76657279206661696c75726520666f7220435e78202a20442e0000006000830152602082019050919050565b60006152f660258361596f565b91507f496e6e65722070726f6475637420657175616c69747920636865636b2066616960008301527f6c7572652e0000000000000000000000000000000000000000000000000000006020830152604082019050919050565b60408201600082015161536560008501826153ad565b50602082015161537860208501826153ad565b50505050565b60408201600082015161539460008501826153ad565b5060208201516153a760208501826153ad565b50505050565b6153b681615997565b82525050565b6153c581615997565b82525050565b6153dc6153d782615997565b6159f7565b82525050565b60006153ee82856150a0565b91506153fa82846153cb565b6020820191508190509392505050565b600060e08201905081810360008301526154248189615037565b905081810360208301526154388188615037565b9050818103604083015261544c8187615037565b905061545b606083018661537e565b81810360a083015261546d8185615037565b905061547c60c08301846153bc565b979650505050505050565b600060208201905061549c6000830184615091565b92915050565b600060208201905081810360008301526154bb816150d1565b9050919050565b600060208201905081810360008301526154db81615111565b9050919050565b600060208201905081810360008301526154fb81615177565b9050919050565b6000602082019050818103600083015261551b81615203565b9050919050565b6000602082019050818103600083015261553b81615243565b9050919050565b6000602082019050818103600083015261555b816152a9565b9050919050565b6000602082019050818103600083015261557b816152e9565b9050919050565b600060208201905061559760008301846153bc565b92915050565b60006102e0820190506155b3600083018f6153bc565b81810360208301526155c5818e614ee4565b905081810360408301526155d9818d614ee4565b90506155e8606083018c61537e565b6155f560a083018b61537e565b61560260e083018a61537e565b61561061012083018961537e565b61561e61016083018861537e565b61562c6101a083018761537e565b61563a6101e083018661537e565b61564861022083018561537e565b615656610260830184614f3e565b9d9c50505050505050505050505050565b600060a08201905061567c60008301856153bc565b6156896020830184614fe4565b9392505050565b600060a0820190506156a560008301866153bc565b6156b2602083018561537e565b6156bf606083018461537e565b949350505050565b6000610120820190506156dd60008301886153bc565b6156ea602083018761537e565b6156f7606083018661537e565b61570460a083018561537e565b61571160e083018461537e565b9695505050505050565b600061018082019050615731600083018a6153bc565b61573e602083018961537e565b61574b606083018861537e565b61575860a083018761537e565b61576560e083018661537e565b61577361012083018561537e565b8181036101608301526157868184614ee4565b905098975050505050505050565b60006080820190506157a960008301876153bc565b6157b660208301866153bc565b6157c360408301856153bc565b6157d060608301846153bc565b95945050505050565b6000604051905081810181811067ffffffffffffffff821117156157fc57600080fd5b8060405250919050565b600067ffffffffffffffff82111561581d57600080fd5b602082029050602081019050919050565b600067ffffffffffffffff82111561584557600080fd5b602082029050919050565b600067ffffffffffffffff82111561586757600080fd5b602082029050919050565b600067ffffffffffffffff82111561588957600080fd5b601f19601f8301169050602081019050919050565b6000602082019050919050565b6000819050919050565b6000819050919050565b6000602082019050919050565b600081519050919050565b600060029050919050565b600060029050919050565b600081519050919050565b600081519050919050565b6000602082019050919050565b6000602082019050919050565b6000602082019050919050565b6000602082019050919050565b600082825260208201905092915050565b600081905092915050565b600081905092915050565b600082825260208201905092915050565b600082825260208201905092915050565b600081905092915050565b60008115159050919050565b6000819050919050565b6000819050919050565b6000819050919050565b82818337600083830152505050565b60005b838110156159e25780820151818401526020810190506159c7565b838111156159f1576000848401525b50505050565b600081905091905056fea265627a7a723058203111d611686066d13b6a2e6d42e7b3239805111c2185b1b48efed48e7eef2c566c6578706572696d656e74616cf50037",
  "source": "pragma solidity 0.5.4;\npragma experimental ABIEncoderV2;\n\nimport \"./Utils.sol\";\n\ncontract ZetherVerifier {\n    using Utils for uint256;\n\n    uint256 constant m = 64;\n    uint256 constant n = 6;\n    uint256 constant FIELD_ORDER = 21888242871839275222246405745257275088696311157297823662689037894645226208583;\n    uint256 constant UNITY = 9334303377689037989442018753807510978357674015322511348041267794643984346845; // primitive 2^28th root of unity modulo GROUP_ORDER (not field!)\n\n    G1Point[] gs; // warning: this and the below are not statically sized anymore\n    G1Point[] hs; // need to push to these if large anonsets are used.\n    G1Point g;\n    G1Point h;\n\n    uint256[m] twos = powers(2);\n\n    struct ZetherStatement {\n        G1Point[] CLn;\n        G1Point[] CRn;\n        G1Point[] L;\n        G1Point R;\n        G1Point[] y;\n        uint256 epoch; // or uint8?\n        G1Point u;\n    }\n\n    struct ZetherProof {\n        uint256 size; // not strictly necessary, but...?\n        G1Point A;\n        G1Point S;\n        G1Point XL;\n        G1Point XR;\n        G1Point[2] commits;\n        uint256 tauX;\n        uint256 mu;\n        uint256 t;\n        AnonProof anonProof;\n        SigmaProof sigmaProof;\n        InnerProductProof ipProof;\n    }\n\n    struct AnonProof {\n        G1Point A;\n        G1Point B;\n        G1Point C;\n        G1Point D;\n        G1Point[2][] LG; // flipping the indexing order on this, 'cause...\n        G1Point inOutRG;\n        G1Point gG;\n        G1Point balanceCommitNewLG;\n        G1Point balanceCommitNewRG;\n        G1Point[2][] yG; // assuming this one has the same size..., N / 2 by 2,\n        G1Point E;\n        G1Point F;\n        uint256[2][] f; // and that this has size N - 1 by 2.\n        uint256 zA;\n        uint256 zC;\n        uint256 zE;\n    }\n\n    struct SigmaProof {\n        uint256 c;\n        uint256 sX;\n        uint256 sR;\n    }\n\n    struct InnerProductProof {\n        G1Point[n] ls;\n        G1Point[n] rs;\n        uint256 a;\n        uint256 b;\n    }\n\n    constructor() public {\n        g = mapInto(\"G\");\n        h = mapInto(\"V\");\n        for (uint256 i = 0; i < m; i++) {\n            gs.push(mapInto(\"G\", i));\n            hs.push(mapInto(\"H\", i));\n        }\n    }\n\n    function baseSize() external view returns (uint256 size) {\n        return gs.length;\n    }\n\n    function extendBase(uint256 size) external payable {\n        // unfortunate, but necessary. essentially, we need vector bases of arbitrary (linear) length for large anonsets...\n        // could mitigate this by using the logarithmic tricks of Groth and Kohlweiss; see also BCC+15\n        // but this would cause problems elsewhere: N log N-sized proofs and N log^2(N) prove / verify time.\n        // the increase in proof size is paradoxical: while _f_ will become smaller (log N), you'll need more correction terms\n        // thus a linear persistent space overhead is not so bad in the grand scheme, and we deem this acceptable.\n        for (uint256 i = gs.length; i < size; i++) {\n            gs.push(mapInto(\"G\", i));\n            hs.push(mapInto(\"H\", i));\n        }\n    }\n\n    function verifyTransfer(bytes32[2][] memory CLn, bytes32[2][] memory CRn, bytes32[2][] memory L, bytes32[2] memory R, bytes32[2][] memory y, uint256 epoch, bytes32[2] memory u, bytes memory proof) view public returns (bool) {\n        ZetherStatement memory statement;\n        uint256 size = y.length;\n        require(gs.length >= size, \"Inadequate stored vector base! Call extendBase and then try again.\");\n\n        statement.CLn = new G1Point[](size);\n        statement.CRn = new G1Point[](size);\n        statement.L = new G1Point[](size);\n        statement.y = new G1Point[](size);\n        for (uint256 i = 0; i < size; i++) {\n            statement.CLn[i] = G1Point(uint256(CLn[i][0]), uint256(CLn[i][1]));\n            statement.CRn[i] = G1Point(uint256(CRn[i][0]), uint256(CRn[i][1]));\n            statement.L[i] = G1Point(uint256(L[i][0]), uint256(L[i][1]));\n            statement.y[i] = G1Point(uint256(y[i][0]), uint256(y[i][1]));\n        }\n        statement.R = G1Point(uint256(R[0]), uint256(R[1]));\n        statement.epoch = epoch;\n        statement.u = G1Point(uint256(u[0]), uint256(u[1]));\n        ZetherProof memory zetherProof = unserialize(proof);\n        return verify(statement, zetherProof);\n    }\n\n    struct ZetherAuxiliaries {\n        uint256 y;\n        uint256[m] ys;\n        uint256 z;\n        uint256[3] zs; // [z^2, z^3, z^4]\n        uint256[m] twoTimesZSquared;\n        uint256 zSum;\n        uint256 k;\n        G1Point tEval;\n        uint256 t;\n        uint256 x;\n    }\n\n    struct SigmaAuxiliaries {\n        uint256 minusC;\n        G1Point[2][] AL;\n        G1Point Ay;\n        G1Point AD;\n        G1Point gEpoch;\n        G1Point Au;\n        G1Point ADiff;\n        G1Point cCommit;\n        G1Point At;\n    }\n\n    struct AnonAuxiliaries {\n        uint256 x;\n        uint256[2][] f;\n        G1Point inOutR2;\n        G1Point balanceCommitNewL2;\n        G1Point balanceCommitNewR2;\n        uint256[2][2] cycler; // should need no inline declaration / initialization. should be pre-allocated\n        G1Point[2][] L2;\n        G1Point[2][] y2;\n        G1Point parity;\n        G1Point gPrime;\n    }\n\n    struct IPAuxiliaries {\n        G1Point u;\n        G1Point[m] hPrimes;\n        uint256[m] hExp;\n        G1Point P;\n        uint256 uChallenge;\n        uint256[n] challenges;\n        uint256[m] otherExponents;\n    }\n\n    function verify(ZetherStatement memory statement, ZetherProof memory proof) view internal returns (bool) {\n        ZetherAuxiliaries memory zetherAuxiliaries;\n        zetherAuxiliaries.y = uint256(keccak256(abi.encode(uint256(keccak256(abi.encode(statement.CLn, statement.CRn, statement.L, statement.R, statement.y, statement.epoch))).mod(), proof.A, proof.S, proof.XL, proof.XR))).mod(); // break this out?\n        zetherAuxiliaries.ys = powers(zetherAuxiliaries.y);\n        zetherAuxiliaries.z = uint256(keccak256(abi.encode(zetherAuxiliaries.y))).mod();\n        zetherAuxiliaries.zs[0] = zetherAuxiliaries.z.mul(zetherAuxiliaries.z);\n        for (uint256 i = 1; i < 3; i++) {\n            zetherAuxiliaries.zs[i] = zetherAuxiliaries.zs[i - 1].mul(zetherAuxiliaries.z);\n        }\n        // zetherAuxiliaries.twoTimesZSquared = times(twos, zetherAuxiliaries.zSquared);\n        for (uint256 i = 0; i < m / 2; i++) {\n            zetherAuxiliaries.twoTimesZSquared[i] = zetherAuxiliaries.zs[0].mul(2 ** i);\n            zetherAuxiliaries.twoTimesZSquared[i + m / 2] = zetherAuxiliaries.zs[1].mul(2 ** i);\n        }\n        zetherAuxiliaries.x = uint256(keccak256(abi.encode(zetherAuxiliaries.z, proof.commits))).mod();\n\n        zetherAuxiliaries.zSum = zetherAuxiliaries.zs[0].add(zetherAuxiliaries.zs[1]).mul(zetherAuxiliaries.z);\n        zetherAuxiliaries.k = sumScalars(zetherAuxiliaries.ys).mul(zetherAuxiliaries.z.sub(zetherAuxiliaries.zs[0])).sub(zetherAuxiliaries.zSum.mul(2 ** (m / 2)).sub(zetherAuxiliaries.zSum));\n        zetherAuxiliaries.tEval = add(mul(proof.commits[0], zetherAuxiliaries.x), mul(proof.commits[1], zetherAuxiliaries.x.mul(zetherAuxiliaries.x))); // replace with \"commit\"?\n        zetherAuxiliaries.t = proof.t.sub(zetherAuxiliaries.k);\n\n        // begin anon proof.\n        // length equality checks for anonProof members? or during deserialization?\n        AnonProof memory anonProof = proof.anonProof;\n        AnonAuxiliaries memory anonAuxiliaries;\n        G1Point[2] memory parity = [anonProof.E, anonProof.F]; // breaking this out to avoid stacktoodeep. won't affect encoding\n        anonAuxiliaries.x = uint256(keccak256(abi.encode(zetherAuxiliaries.x, anonProof.LG, anonProof.yG, anonProof.A, anonProof.B, anonProof.C, anonProof.D, anonProof.inOutRG, anonProof.gG, anonProof.balanceCommitNewLG, anonProof.balanceCommitNewRG, parity))).mod();\n        anonAuxiliaries.f = new uint256[2][](proof.size);\n        anonAuxiliaries.f[0][0] = anonAuxiliaries.x;\n        anonAuxiliaries.f[0][1] = anonAuxiliaries.x;\n        for (uint i = 1; i < proof.size; i++) {\n            anonAuxiliaries.f[i][0] = anonProof.f[i - 1][0];\n            anonAuxiliaries.f[i][1] = anonProof.f[i - 1][1];\n            anonAuxiliaries.f[0][0] = anonAuxiliaries.f[0][0].sub(anonAuxiliaries.f[i][0]);\n            anonAuxiliaries.f[0][1] = anonAuxiliaries.f[0][1].sub(anonAuxiliaries.f[i][1]);\n        }\n        G1Point memory temp;\n        for (uint256 i = 0; i < proof.size; i++) {\n            temp = add(temp, mul(gs[i], anonAuxiliaries.f[i][0]));\n            temp = add(temp, mul(hs[i], anonAuxiliaries.f[i][1])); // commutative\n        }\n\n        require(eq(add(mul(anonProof.B, anonAuxiliaries.x), anonProof.A), add(temp, mul(h, anonProof.zA))), \"Recovery failure for B^x * A.\");\n        for (uint i = 0; i < proof.size; i++) {\n            anonAuxiliaries.f[i][0] = anonAuxiliaries.f[i][0].mul(anonAuxiliaries.x.sub(anonAuxiliaries.f[i][0]));\n            anonAuxiliaries.f[i][1] = anonAuxiliaries.f[i][1].mul(anonAuxiliaries.x.sub(anonAuxiliaries.f[i][1]));\n        }\n        temp = G1Point(0, 0);\n        for (uint256 i = 0; i < proof.size; i++) { // danger... gs and hs need to be big enough.\n            temp = add(temp, mul(gs[i], anonAuxiliaries.f[i][0]));\n            temp = add(temp, mul(hs[i], anonAuxiliaries.f[i][1])); // commutative\n        }\n        require(eq(add(mul(anonProof.C, anonAuxiliaries.x), anonProof.D), add(temp, mul(h, anonProof.zC))), \"Recovery failure for C^x * D.\");\n\n        anonAuxiliaries.f[0][0] = anonAuxiliaries.x;\n        anonAuxiliaries.f[0][1] = anonAuxiliaries.x;\n        for (uint i = 1; i < proof.size; i++) { // need to recompute these. contract too large if use another variable\n            anonAuxiliaries.f[i][0] = anonProof.f[i - 1][0];\n            anonAuxiliaries.f[i][1] = anonProof.f[i - 1][1];\n            anonAuxiliaries.f[0][0] = anonAuxiliaries.f[0][0].sub(anonAuxiliaries.f[i][0]);\n            anonAuxiliaries.f[0][1] = anonAuxiliaries.f[0][1].sub(anonAuxiliaries.f[i][1]);\n        }\n\n        anonAuxiliaries.inOutR2 = add(mul(statement.R, anonAuxiliaries.x), neg(anonProof.inOutRG));\n        anonAuxiliaries.L2 = assembleConvolutions(anonAuxiliaries.f, statement.L); // will internally include _two_ fourier transforms, and split even / odd, etc.\n        anonAuxiliaries.y2 = assembleConvolutions(anonAuxiliaries.f, statement.y);\n        for (uint256 i = 0; i < proof.size / 2; i++) { // order of loops can be switched...\n            // could use _two_ further nested loops inside this, but...\n            for (uint256 j = 0; j < 2; j++) {\n                for (uint256 k = 0; k < 2; k++) {\n                    anonAuxiliaries.cycler[k][j] = anonAuxiliaries.cycler[k][j].add(anonAuxiliaries.f[2 * i + k][j]);\n                }\n                anonAuxiliaries.L2[i][j] = add(anonAuxiliaries.L2[i][j], neg(anonProof.LG[i][j]));\n                anonAuxiliaries.y2[i][j] = add(anonAuxiliaries.y2[i][j], neg(anonProof.yG[i][j]));\n            }\n        }\n        // replace the leftmost column with the Hadamard of the left and right columns. just do the multiplication once...\n        anonAuxiliaries.cycler[0][0] = anonAuxiliaries.cycler[0][0].mul(anonAuxiliaries.cycler[0][1]);\n        anonAuxiliaries.cycler[1][0] = anonAuxiliaries.cycler[1][0].mul(anonAuxiliaries.cycler[1][1]);\n        anonAuxiliaries.parity = add(mul(h, anonProof.zE), add(mul(gs[0], anonAuxiliaries.cycler[0][0]), mul(hs[0], anonAuxiliaries.cycler[1][0])));\n\n        require(eq(anonAuxiliaries.parity, add(mul(anonProof.F, anonAuxiliaries.x), anonProof.E)), \"Index opposite parity check fail.\");\n\n        for (uint256 i = 0; i < proof.size; i++) {\n            anonAuxiliaries.balanceCommitNewL2 = add(anonAuxiliaries.balanceCommitNewL2, mul(statement.CLn[i], anonAuxiliaries.f[i][0]));\n            anonAuxiliaries.balanceCommitNewR2 = add(anonAuxiliaries.balanceCommitNewR2, mul(statement.CRn[i], anonAuxiliaries.f[i][0]));\n        }\n        anonAuxiliaries.balanceCommitNewL2 = add(anonAuxiliaries.balanceCommitNewL2, neg(anonProof.balanceCommitNewLG));\n        anonAuxiliaries.balanceCommitNewR2 = add(anonAuxiliaries.balanceCommitNewR2, neg(anonProof.balanceCommitNewRG));\n\n        anonAuxiliaries.gPrime = add(mul(g, anonAuxiliaries.x), neg(anonProof.gG));\n\n        SigmaProof memory sigmaProof = proof.sigmaProof;\n        SigmaAuxiliaries memory sigmaAuxiliaries;\n        sigmaAuxiliaries.minusC = sigmaProof.c.neg();\n        sigmaAuxiliaries.AL = new G1Point[2][](proof.size / 2 - 1);\n        for (uint256 i = 1; i < proof.size / 2; i++) {\n            sigmaAuxiliaries.AL[i - 1][0] = add(mul(anonAuxiliaries.y2[i][0], sigmaProof.sR), mul(anonAuxiliaries.L2[i][0], sigmaAuxiliaries.minusC));\n            sigmaAuxiliaries.AL[i - 1][1] = add(mul(anonAuxiliaries.y2[i][1], sigmaProof.sR), mul(anonAuxiliaries.L2[i][1], sigmaAuxiliaries.minusC));\n        }\n        sigmaAuxiliaries.AD = add(mul(anonAuxiliaries.gPrime, sigmaProof.sR), mul(anonAuxiliaries.inOutR2, sigmaAuxiliaries.minusC));\n        sigmaAuxiliaries.Ay = add(mul(anonAuxiliaries.gPrime, sigmaProof.sX), mul(anonAuxiliaries.y2[0][0], sigmaAuxiliaries.minusC));\n        sigmaAuxiliaries.gEpoch = mapInto(\"Zether\", statement.epoch);\n        sigmaAuxiliaries.Au = add(mul(sigmaAuxiliaries.gEpoch, sigmaProof.sX), mul(statement.u, sigmaAuxiliaries.minusC));\n        sigmaAuxiliaries.ADiff = add(mul(add(anonAuxiliaries.y2[0][0], anonAuxiliaries.y2[0][1]), sigmaProof.sR), mul(add(anonAuxiliaries.L2[0][0], anonAuxiliaries.L2[0][1]), sigmaAuxiliaries.minusC));\n        sigmaAuxiliaries.cCommit = add(add(mul(add(mul(anonAuxiliaries.L2[0][0], sigmaProof.c.neg()), mul(anonAuxiliaries.inOutR2, sigmaProof.sX)), zetherAuxiliaries.zs[0]), mul(add(mul(anonAuxiliaries.balanceCommitNewL2, sigmaProof.c), mul(anonAuxiliaries.balanceCommitNewR2, sigmaProof.sX.neg())), zetherAuxiliaries.zs[1])), mul(add(mul(proof.XL, sigmaProof.c), mul(proof.XR, sigmaProof.sX.neg())), zetherAuxiliaries.zs[2].mul(anonAuxiliaries.x)));\n        sigmaAuxiliaries.At = add(neg(sigmaAuxiliaries.cCommit), mul(add(add(mul(g, zetherAuxiliaries.t), neg(zetherAuxiliaries.tEval)), mul(h, proof.tauX)), sigmaProof.c.mul(anonAuxiliaries.x)));\n\n        uint256 challenge = uint256(keccak256(abi.encode(anonAuxiliaries.x, sigmaAuxiliaries.Ay, sigmaAuxiliaries.AD, sigmaAuxiliaries.Au, sigmaAuxiliaries.ADiff, sigmaAuxiliaries.At, sigmaAuxiliaries.AL))).mod();\n        require(challenge == proof.sigmaProof.c, \"Sigma protocol challenge equality failure.\");\n\n        IPAuxiliaries memory ipAuxiliaries;\n        ipAuxiliaries.uChallenge = uint256(keccak256(abi.encode(sigmaProof.c, proof.t, proof.tauX, proof.mu))).mod(); // uChallenge\n        ipAuxiliaries.u = mul(g, ipAuxiliaries.uChallenge);\n        ipAuxiliaries.hPrimes = hadamard_inv(hs, zetherAuxiliaries.ys);\n        ipAuxiliaries.hExp = addVectors(times(zetherAuxiliaries.ys, zetherAuxiliaries.z), zetherAuxiliaries.twoTimesZSquared);\n\n        ipAuxiliaries.P = add(add(proof.A, mul(proof.S, zetherAuxiliaries.x)), mul(sumPoints(gs), zetherAuxiliaries.z.neg()));\n        ipAuxiliaries.P = add(neg(mul(h, proof.mu)), add(ipAuxiliaries.P, commit(ipAuxiliaries.hPrimes, ipAuxiliaries.hExp)));\n        ipAuxiliaries.P = add(ipAuxiliaries.P, mul(ipAuxiliaries.u, proof.t));\n\n        // begin inner product verification\n        InnerProductProof memory ipProof = proof.ipProof;\n        for (uint256 i = 0; i < n; i++) {\n            ipAuxiliaries.uChallenge = uint256(keccak256(abi.encode(ipAuxiliaries.uChallenge, ipProof.ls[i], ipProof.rs[i]))).mod();\n            ipAuxiliaries.challenges[i] = ipAuxiliaries.uChallenge; // overwrites value\n            uint256 xInv = ipAuxiliaries.uChallenge.inv();\n            ipAuxiliaries.P = add(mul(ipProof.ls[i], ipAuxiliaries.uChallenge.exp(2)), add(mul(ipProof.rs[i], xInv.exp(2)), ipAuxiliaries.P));\n        }\n\n        ipAuxiliaries.otherExponents[0] = 1;\n        for (uint256 i = 0; i < n; i++) {\n            ipAuxiliaries.otherExponents[0] = ipAuxiliaries.otherExponents[0].mul(ipAuxiliaries.challenges[i]);\n        }\n        bool[m] memory bitSet;\n        ipAuxiliaries.otherExponents[0] = ipAuxiliaries.otherExponents[0].inv();\n        for (uint256 i = 0; i < m/2; ++i) {\n            for (uint256 j = 0; (1 << j) + i < m; ++j) {\n                uint256 i1 = i + (1 << j);\n                if (!bitSet[i1]) {\n                    uint256 temp = ipAuxiliaries.challenges[n - 1 - j].mul(ipAuxiliaries.challenges[n - 1 - j]);\n                    ipAuxiliaries.otherExponents[i1] = ipAuxiliaries.otherExponents[i].mul(temp);\n                    bitSet[i1] = true;\n                }\n            }\n        }\n\n        G1Point memory gTemp;\n        G1Point memory hTemp;\n        for (uint256 i = 0; i < m; i++) {\n            gTemp = add(gTemp, mul(gs[i], ipAuxiliaries.otherExponents[i]));\n            hTemp = add(hTemp, mul(ipAuxiliaries.hPrimes[i], ipAuxiliaries.otherExponents[m - 1 - i]));\n        }\n        G1Point memory cProof = add(add(mul(gTemp, ipProof.a), mul(hTemp, ipProof.b)), mul(ipAuxiliaries.u, ipProof.a.mul(ipProof.b)));\n        require(eq(ipAuxiliaries.P, cProof), \"Inner product equality check failure.\");\n\n        return true;\n    }\n\n    function assembleConvolutions(uint256[2][] memory exponent, G1Point[] memory base) internal view returns (G1Point[2][] memory result) {\n        // exponent is two \"rows\" (actually columns).\n        // will return two rows, each of half the length of the exponents;\n        // namely, we will return the Hadamards of \"base\" by the even circular shifts of \"exponent\"'s rows.\n        uint256 size = exponent.length;\n        uint256 half = size / 2;\n        result = new G1Point[2][](half); // assuming that this is necessary even when return is declared up top\n\n        G1Point[] memory base_fft = fft(base, false);\n\n        uint256[] memory exponent_fft = new uint256[](size);\n        for (uint256 i = 0; i < 2; i++) {\n            for (uint256 j = 0; j < size; j++) {\n                exponent_fft[j] = exponent[(size - j) % size][i]; // convolutional flip plus copy\n            }\n\n            exponent_fft = fft(exponent_fft);\n            G1Point[] memory inverse_fft = new G1Point[](half);\n            uint256 compensation = 2;\n            compensation = compensation.inv();\n            for (uint256 j = 0; j < half; j++) { // Hadamard\n                inverse_fft[j] = mul(add(mul(base_fft[j], exponent_fft[j]), mul(base_fft[j + half], exponent_fft[j + half])), compensation);\n            }\n\n            inverse_fft = fft(inverse_fft, true);\n            for (uint256 j = 0; j < half; j++) {\n                result[j][i] = inverse_fft[j];\n            }\n        }\n        return result;\n    }\n\n    function fft(G1Point[] memory input, bool inverse) internal view returns (G1Point[] memory result) {\n        uint256 size = input.length;\n        if (size == 1) {\n            return input;\n        }\n        require(size % 2 == 0, \"Input size is not a power of 2!\");\n\n        uint256 omega = UNITY.exp(2**28 / size);\n        uint256 compensation = 1;\n        if (inverse) {\n            omega = omega.inv();\n            compensation = 2;\n        }\n        compensation = compensation.inv();\n        G1Point[] memory even = fft(extract(input, 0), inverse);\n        G1Point[] memory odd = fft(extract(input, 1), inverse);\n        uint256 omega_run = 1;\n        result = new G1Point[](size);\n        for (uint256 i = 0; i < size / 2; i++) {\n            G1Point memory temp = mul(odd[i], omega_run);\n            result[i] = mul(add(even[i], temp), compensation);\n            result[i + size / 2] = mul(add(even[i], neg(temp)), compensation);\n            omega_run = omega_run.mul(omega);\n        }\n    }\n\n    function extract(G1Point[] memory input, uint256 parity) internal pure returns (G1Point[] memory result) {\n        result = new G1Point[](input.length / 2);\n        for (uint256 i = 0; i < input.length / 2; i++) {\n            result[i] = input[2 * i + parity];\n        }\n    }\n\n    function fft(uint256[] memory input) internal view returns (uint256[] memory result) {\n        uint256 size = input.length;\n        if (size == 1) {\n            return input;\n        }\n        require(size % 2 == 0, \"Input size is not a power of 2!\");\n\n        uint256 omega = UNITY.exp(2**28 / size);\n        uint256[] memory even = fft(extract(input, 0));\n        uint256[] memory odd = fft(extract(input, 1));\n        uint256 omega_run = 1;\n        result = new uint256[](size);\n        for (uint256 i = 0; i < size / 2; i++) {\n            uint256 temp = odd[i].mul(omega_run);\n            result[i] = even[i].add(temp);\n            result[i + size / 2] = even[i].sub(temp);\n            omega_run = omega_run.mul(omega);\n        }\n    }\n\n    function extract(uint256[] memory input, uint256 parity) internal pure returns (uint256[] memory result) {\n        result = new uint256[](input.length / 2);\n        for (uint256 i = 0; i < input.length / 2; i++) {\n            result[i] = input[2 * i + parity];\n        }\n    }\n\n    function unserialize(bytes memory arr) internal pure returns (ZetherProof memory proof) {\n        proof.A = G1Point(slice(arr, 0), slice(arr, 32));\n        proof.S = G1Point(slice(arr, 64), slice(arr, 96));\n        proof.XL = G1Point(slice(arr, 128), slice(arr, 160));\n        proof.XR = G1Point(slice(arr, 192), slice(arr, 224));\n        proof.commits = [G1Point(slice(arr, 256), slice(arr, 288)), G1Point(slice(arr, 320), slice(arr, 352))];\n        proof.t = slice(arr, 384);\n        proof.tauX = slice(arr, 416);\n        proof.mu = slice(arr, 448);\n\n        SigmaProof memory sigmaProof;\n        sigmaProof.c = slice(arr, 480);\n        sigmaProof.sX = slice(arr, 512);\n        sigmaProof.sR = slice(arr, 544);\n        proof.sigmaProof = sigmaProof;\n\n        InnerProductProof memory ipProof;\n        for (uint256 i = 0; i < n; i++) {\n            ipProof.ls[i] = G1Point(slice(arr, 576 + i * 64), slice(arr, 608 + i * 64));\n            ipProof.rs[i] = G1Point(slice(arr, 576 + (n + i) * 64), slice(arr, 608 + (n + i) * 64));\n        }\n        ipProof.a = slice(arr, 576 + n * 128);\n        ipProof.b = slice(arr, 608 + n * 128);\n        proof.ipProof = ipProof;\n\n        AnonProof memory anonProof;\n        uint256 size = (arr.length - 1408 - 672) / 192;  // warning: this and the below assume that n = 6!!!\n        anonProof.A = G1Point(slice(arr, 1408), slice(arr, 1440));\n        anonProof.B = G1Point(slice(arr, 1472), slice(arr, 1504));\n        anonProof.C = G1Point(slice(arr, 1536), slice(arr, 1568));\n        anonProof.D = G1Point(slice(arr, 1600), slice(arr, 1632));\n        anonProof.inOutRG = G1Point(slice(arr, 1664), slice(arr, 1696));\n        anonProof.gG = G1Point(slice(arr, 1728), slice(arr, 1760));\n        anonProof.balanceCommitNewLG = G1Point(slice(arr, 1792), slice(arr, 1824));\n        anonProof.balanceCommitNewRG = G1Point(slice(arr, 1856), slice(arr, 1888));\n        anonProof.E = G1Point(slice(arr, 1920), slice(arr, 1952));\n        anonProof.F = G1Point(slice(arr, 1984), slice(arr, 2016));\n\n        anonProof.f = new uint256[2][](size - 1);\n        for (uint256 i = 0; i < size - 1; i++) {\n            anonProof.f[i][0] = slice(arr, 2048 + 32 * i);\n            anonProof.f[i][1] = slice(arr, 2048 + (size - 1 + i) * 32);\n        }\n\n        anonProof.LG = new G1Point[2][](size / 2);\n        anonProof.yG = new G1Point[2][](size / 2);\n        for (uint256 i = 0; i < size / 2; i++) {\n            anonProof.LG[i][0] = G1Point(slice(arr, 1984 + (size + i) * 64), slice(arr, 2016 + (size + i) * 64));\n            anonProof.LG[i][1] = G1Point(slice(arr, 1984 + size * 96 + i * 64), slice(arr, 2016 + size * 96 + i * 64));\n            anonProof.yG[i][0] = G1Point(slice(arr, 1984 + size * 128 + i * 64), slice(arr, 2016 + size * 128 + i * 64));\n            anonProof.yG[i][1] = G1Point(slice(arr, 1984 + size * 160 + i * 64), slice(arr, 2016 + size * 160 + i * 64));\n            // these are tricky, and can maybe be optimized further?\n        }\n        proof.size = size;\n\n        anonProof.zA = slice(arr, 1984 + size * 192);\n        anonProof.zC = slice(arr, 2016 + size * 192);\n        anonProof.zE = slice(arr, 2048 + size * 192);\n\n        proof.anonProof = anonProof;\n        return proof;\n    }\n\n    function addVectors(uint256[m] memory a, uint256[m] memory b) internal pure returns (uint256[m] memory result) {\n        for (uint256 i = 0; i < m; i++) {\n            result[i] = a[i].add(b[i]);\n        }\n    }\n\n    function hadamard_inv(G1Point[] memory ps, uint256[m] memory ss) internal view returns (G1Point[m] memory result) {\n        for (uint256 i = 0; i < m; i++) {\n            result[i] = mul(ps[i], ss[i].inv());\n        }\n    }\n\n    function sumScalars(uint256[m] memory ys) internal pure returns (uint256 result) {\n        for (uint256 i = 0; i < m; i++) {\n            result = result.add(ys[i]);\n        }\n    }\n\n    function sumPoints(G1Point[] memory ps) internal view returns (G1Point memory sum) {\n        for (uint256 i = 0; i < m; i++) {\n            sum = add(sum, ps[i]);\n        }\n    }\n\n    function commit(G1Point[m] memory ps, uint256[m] memory ss) internal view returns (G1Point memory result) {\n        for (uint256 i = 0; i < m; i++) { // killed a silly initialization with the 0th indexes. [0x00, 0x00] will be treated as the zero point anyway\n            result = add(result, mul(ps[i], ss[i]));\n        }\n    }\n\n    function powers(uint256 base) internal pure returns (uint256[m] memory powers) {\n        powers[0] = 1;\n        powers[1] = base;\n        for (uint256 i = 2; i < m; i++) {\n            powers[i] = powers[i - 1].mul(base);\n        }\n    }\n\n    function times(uint256[m] memory v, uint256 x) internal pure returns (uint256[m] memory result) {\n        for (uint256 i = 0; i < m; i++) {\n            result[i] = v[i].mul(x);\n        }\n    }\n\n    function slice(bytes memory input, uint256 start) internal pure returns (uint256 result) { // extracts exactly 32 bytes\n        assembly {\n            let m := mload(0x40)\n            mstore(m, mload(add(add(input, 0x20), start))) // why only 0x20?\n            result := mload(m)\n        }\n    }\n\n    struct G1Point {\n        uint256 x;\n        uint256 y;\n    }\n\n    function add(G1Point memory p1, G1Point memory p2) internal view returns (G1Point memory r) {\n        assembly {\n            let m := mload(0x40)\n            mstore(m, mload(p1))\n            mstore(add(m, 0x20), mload(add(p1, 0x20)))\n            mstore(add(m, 0x40), mload(p2))\n            mstore(add(m, 0x60), mload(add(p2, 0x20)))\n            if iszero(staticcall(gas, 0x06, m, 0x80, r, 0x40)) {\n                revert(0, 0)\n            }\n        }\n    }\n\n    function mul(G1Point memory p, uint256 s) internal view returns (G1Point memory r) {\n        assembly {\n            let m := mload(0x40)\n            mstore(m, mload(p))\n            mstore(add(m, 0x20), mload(add(p, 0x20)))\n            mstore(add(m, 0x40), s)\n            if iszero(staticcall(gas, 0x07, m, 0x60, r, 0x40)) {\n                revert(0, 0)\n            }\n        }\n    }\n\n    function neg(G1Point memory p) internal pure returns (G1Point memory) {\n        return G1Point(p.x, FIELD_ORDER - (p.y % FIELD_ORDER)); // p.y should already be reduced mod P?\n    }\n\n    function eq(G1Point memory p1, G1Point memory p2) internal pure returns (bool) {\n        return p1.x == p2.x && p1.y == p2.y;\n    }\n\n    function fieldExp(uint256 base, uint256 exponent) internal view returns (uint256 output) { // warning: mod p, not q\n        uint256 order = FIELD_ORDER;\n        assembly {\n            let m := mload(0x40)\n            mstore(m, 0x20)\n            mstore(add(m, 0x20), 0x20)\n            mstore(add(m, 0x40), 0x20)\n            mstore(add(m, 0x60), base)\n            mstore(add(m, 0x80), exponent)\n            mstore(add(m, 0xa0), order)\n            if iszero(staticcall(gas, 0x05, m, 0xc0, m, 0x20)) { // staticcall or call?\n                revert(0, 0)\n            }\n            output := mload(m)\n        }\n    }\n\n    function mapInto(uint256 seed) internal view returns (G1Point memory) { // warning: function totally untested!\n        uint256 y;\n        while (true) {\n            uint256 ySquared = fieldExp(seed, 3) + 3; // addmod instead of add: waste of gas, plus function overhead cost\n            y = fieldExp(ySquared, (FIELD_ORDER + 1) / 4);\n            if (fieldExp(y, 2) == ySquared) {\n                break;\n            }\n            seed += 1;\n        }\n        return G1Point(seed, y);\n    }\n\n    function mapInto(string memory input) internal view returns (G1Point memory) { // warning: function totally untested!\n        return mapInto(uint256(keccak256(abi.encodePacked(input))) % FIELD_ORDER);\n    }\n\n    function mapInto(string memory input, uint256 i) internal view returns (G1Point memory) { // warning: function totally untested!\n        return mapInto(uint256(keccak256(abi.encodePacked(input, i))) % FIELD_ORDER);\n        // ^^^ important: i haven't tested this, i.e. whether it agrees with ProofUtils.paddedHash(input, i) (cf. also the go version)\n    }\n}\n",
  "sourcePath": "/Users/benediamond/anonymous-zether/packages/protocol/contracts/ZetherVerifier.sol",
  "compiler": {
    "name": "solc",
    "version": "0.5.4+commit.9549d8ff.Emscripten.clang"
  },
  "schemaVersion": "3.0.9",
  "updatedAt": "2019-10-26T17:01:12.996Z",
  "devdoc": {
    "methods": {}
  },
  "userdoc": {
    "methods": {}
  }
}