{
  "contractName": "ZetherVerifier",
  "abi": [
    {
      "inputs": [
        {
          "name": "_ip",
          "type": "address"
        }
      ],
      "payable": false,
      "stateMutability": "nonpayable",
      "type": "constructor"
    },
    {
      "constant": true,
      "inputs": [
        {
          "name": "CLn",
          "type": "bytes32[2][]"
        },
        {
          "name": "CRn",
          "type": "bytes32[2][]"
        },
        {
          "name": "C",
          "type": "bytes32[2][]"
        },
        {
          "name": "D",
          "type": "bytes32[2]"
        },
        {
          "name": "y",
          "type": "bytes32[2][]"
        },
        {
          "name": "epoch",
          "type": "uint256"
        },
        {
          "name": "u",
          "type": "bytes32[2]"
        },
        {
          "name": "proof",
          "type": "bytes"
        }
      ],
      "name": "verifyTransfer",
      "outputs": [
        {
          "name": "",
          "type": "bool"
        }
      ],
      "payable": false,
      "stateMutability": "view",
      "type": "function"
    }
  ],
  "bytecode": "0x60806040523480156200001157600080fd5b50604051602080620060a5833981018060405262000033919081019062000090565b806000806101000a81548173ffffffffffffffffffffffffffffffffffffffff021916908373ffffffffffffffffffffffffffffffffffffffff16021790555050620000f0565b6000620000888251620000bc565b905092915050565b600060208284031215620000a357600080fd5b6000620000b3848285016200007a565b91505092915050565b6000620000c982620000d0565b9050919050565b600073ffffffffffffffffffffffffffffffffffffffff82169050919050565b615fa580620001006000396000f3fe608060405234801561001057600080fd5b5060043610610048576000357c0100000000000000000000000000000000000000000000000000000000900480631659e67d1461004d575b600080fd5b610067600480360361006291908101906152ff565b61007d565b60405161007491906159c8565b60405180910390f35b6000610087614bea565b600086519050806040519080825280602002602001820160405280156100c757816020015b6100b4614c35565b8152602001906001900390816100ac5790505b5082600001819052508060405190808252806020026020018201604052801561010a57816020015b6100f7614c35565b8152602001906001900390816100ef5790505b5082602001819052508060405190808252806020026020018201604052801561014d57816020015b61013a614c35565b8152602001906001900390816101325790505b5082604001819052508060405190808252806020026020018201604052801561019057816020015b61017d614c35565b8152602001906001900390816101755790505b50826080018190525060008090505b818110156103f45760408051908101604052808d838151811015156101c057fe5b9060200190602002015160006002811015156101d857fe5b60200201516001900481526020018d838151811015156101f457fe5b90602001906020020151600160028110151561020c57fe5b60200201516001900481525083600001518281518110151561022a57fe5b9060200190602002018190525060408051908101604052808c8381518110151561025057fe5b90602001906020020151600060028110151561026857fe5b60200201516001900481526020018c8381518110151561028457fe5b90602001906020020151600160028110151561029c57fe5b6020020151600190048152508360200151828151811015156102ba57fe5b9060200190602002018190525060408051908101604052808b838151811015156102e057fe5b9060200190602002015160006002811015156102f857fe5b60200201516001900481526020018b8381518110151561031457fe5b90602001906020020151600160028110151561032c57fe5b60200201516001900481525083604001518281518110151561034a57fe5b906020019060200201819052506040805190810160405280898381518110151561037057fe5b90602001906020020151600060028110151561038857fe5b602002015160019004815260200189838151811015156103a457fe5b9060200190602002015160016002811015156103bc57fe5b6020020151600190048152508360800151828151811015156103da57fe5b90602001906020020181905250808060010191505061019f565b50604080519081016040528089600060028110151561040f57fe5b602002015160019004815260200189600160028110151561042c57fe5b6020020151600190048152508260600181905250858260a0018181525050604080519081016040528086600060028110151561046457fe5b602002015160019004815260200186600160028110151561048157fe5b6020020151600190048152508260c0018190525061049d614c4f565b6104a6856104c3565b90506104b28382611095565b935050505098975050505050505050565b6104cb614c4f565b60408051908101604052806104e1846000613b86565b81526020016104f1846020613b86565b81525081600001819052506040805190810160405280610512846040613b86565b8152602001610522846060613b86565b81525081602001819052506040805190810160405280610543846080613b86565b81526020016105538460a0613b86565b815250816040018190525060408051908101604052806105748460c0613b86565b81526020016105848460e0613b86565b815250816060018190525060408051908101604052806105a684610100613b86565b81526020016105b784610120613b86565b815250816080018190525060408051908101604052806105d984610140613b86565b81526020016105ea84610160613b86565b8152508160a00181905250604080519081016040528061060c84610180613b86565b815260200161061d846101a0613b86565b8152508160c00181905250604080519081016040528061063f846101c0613b86565b8152602001610650846101e0613b86565b8152508160e00181905250600061024061086084510381151561066f57fe5b049050806040519080825280602002602001820160405280156106ac57816020015b610699614c35565b8152602001906001900390816106915790505b50826101000181905250806040519080825280602002602001820160405280156106f057816020015b6106dd614c35565b8152602001906001900390816106d55790505b508261012001819052508060405190808252806020026020018201604052801561073457816020015b610721614c35565b8152602001906001900390816107195790505b508261014001819052508060405190808252806020026020018201604052801561077857816020015b610765614c35565b81526020019060019003908161075d5790505b50826101600181905250806040519080825280602002602001820160405280156107bc57816020015b6107a9614c35565b8152602001906001900390816107a15790505b508261018001819052508060405190808252806020026020018201604052801561080057816020015b6107ed614c35565b8152602001906001900390816107e55790505b50826101a001819052508060405190808252806020026020018201604052801561084457816020015b610831614c35565b8152602001906001900390816108295790505b50826101c001819052508060405190808252806020026020018201604052801561088857816020015b610875614c35565b81526020019060019003908161086d5790505b50826101e00181905250806002026040519080825280602002602001820160405280156108c45781602001602082028038833980820191505090505b5082610200018190525060008090505b81811015610c4b5760408051908101604052806108f8866040850261020001613b86565b815260200161090e866040850261022001613b86565b8152508361010001518281518110151561092457fe5b90602001906020020181905250604080519081016040528061094f8660408587010261020001613b86565b81526020016109678660408587010261022001613b86565b8152508361012001518281518110151561097d57fe5b9060200190602002018190525060408051908101604052806109ab8660408502608087026102000101613b86565b81526020016109c68660408502608087026102200101613b86565b815250836101400151828151811015156109dc57fe5b906020019060200201819052506040805190810160405280610a0a866040850260c087026102000101613b86565b8152602001610a25866040850260c087026102200101613b86565b81525083610160015182815181101515610a3b57fe5b906020019060200201819052506040805190810160405280610a6a866040850261010087026102000101613b86565b8152602001610a86866040850261010087026102200101613b86565b81525083610180015182815181101515610a9c57fe5b906020019060200201819052506040805190810160405280610acb866040850261014087026102000101613b86565b8152602001610ae7866040850261014087026102200101613b86565b815250836101a0015182815181101515610afd57fe5b906020019060200201819052506040805190810160405280610b2c866040850261018087026102000101613b86565b8152602001610b48866040850261018087026102200101613b86565b815250836101c0015182815181101515610b5e57fe5b906020019060200201819052506040805190810160405280610b8d86604085026101c087026102000101613b86565b8152602001610ba986604085026101c087026102200101613b86565b815250836101e0015182815181101515610bbf57fe5b90602001906020020181905250610be3846020830261020085026102000101613b86565b83610200015182815181101515610bf657fe5b9060200190602002018181525050610c1b846020830261022085026102000101613b86565b836102000151838301815181101515610c3057fe5b906020019060200201818152505080806001019150506108d4565b50600061024082029050610c63848261020001613b86565b83610220018181525050610c7b848261022001613b86565b83610240018181525050610c93848261024001613b86565b836102600181815250506040805190810160405280610cb6868461026001613b86565b8152602001610cc9868461028001613b86565b8152508361028001819052506040805190810160405280610cee86846102a001613b86565b8152602001610d0186846102c001613b86565b815250836102a001819052506040805190810160405280610d2686846102e001613b86565b8152602001610d39868461030001613b86565b815250836102c001819052506040805190810160405280610d5e868461032001613b86565b8152602001610d71868461034001613b86565b815250836102e0018190525060408051908101604052806040805190810160405280610da1888661036001613b86565b8152602001610db4888661038001613b86565b81525081526020016040805190810160405280610dd588866103a001613b86565b8152602001610de888866103c001613b86565b815250815250836103000181905250610e0584826103e001613b86565b83610320018181525050610e1d848261040001613b86565b83610340018181525050610e35848261042001613b86565b83610360018181525050610e4d848261044001613b86565b83610380018181525050610e65848261046001613b86565b836103a0018181525050610e7d848261048001613b86565b836103c0018181525050610e9584826104a001613b86565b836103e0018181525050610ead84826104c001613b86565b83610400018181525050610ec584826104e001613b86565b83610420018181525050610edd848261050001613b86565b83610440018181525050610eef614dad565b6006604051908082528060200260200182016040528015610f2a57816020015b610f17614c35565b815260200190600190039081610f0f5790505b5081600001819052506006604051908082528060200260200182016040528015610f6e57816020015b610f5b614c35565b815260200190600190039081610f535790505b50816020018190525060008090505b6006811015611049576040805190810160405280610fa48860408502876105200101613b86565b8152602001610fbc8860408502876105400101613b86565b815250826000015182815181101515610fd157fe5b906020019060200201819052506040805190810160405280610fff8860408560060102876105200101613b86565b815260200161101a8860408560060102876105400101613b86565b81525082602001518281518110151561102f57fe5b906020019060200201819052508080600101915050610f7d565b5061105c85610300846105200101613b86565b81604001818152505061107785610300846105400101613b86565b81606001818152505080846104600181905250839350505050919050565b6000806110ed846000015185602001518660400151876060015188608001518960a001516040516020016110ce969594939291906158ea565b6040516020818303038152906040528051906020012060019004613b9f565b90506110f7614dd6565b61115a82856000015186602001518760400151886060015189608001518a60a001518b60c001518c60e0015160405160200161113b99989796959493929190615c36565b6040516020818303038152906040528051906020012060019004613b9f565b8160400181815250506111d281604001518561010001518661012001518761014001518861016001518961018001518a6101a001518b6101c001518c6101e001516040516020016111b399989796959493929190615b1d565b6040516020818303038152906040528051906020012060019004613b9f565b8160600181815250506002846102000151518115156111ed57fe5b04816000018181525050806000015160020a816020018181525050806000015160020260405190808252806020026020018201604052801561124957816020015b611236614e85565b81526020019060019003908161122e5790505b508160c0018190525060008090505b816000015160020281101561132a578461020001518181518110151561127a57fe5b906020019060200201518260c001518281518110151561129657fe5b9060200190602002015160016002811015156112ae57fe5b6020020181815250506112ea856102000151828151811015156112cd57fe5b906020019060200201518360600151613bd490919063ffffffff16565b8260c00151828151811015156112fc57fe5b90602001906020020151600060028110151561131457fe5b6020020181815250508080600101915050611258565b5060008090505b81600001516002028110156114725761145c6114488360c001518381518110151561135857fe5b90602001906020020151600160028110151561137057fe5b60200201516000809054906101000a900473ffffffffffffffffffffffffffffffffffffffff1673ffffffffffffffffffffffffffffffffffffffff166383ec1a49856040518263ffffffff167c01000000000000000000000000000000000000000000000000000000000281526004016113eb9190615ad9565b604080518083038186803b15801561140257600080fd5b505afa158015611416573d6000803e3d6000fd5b505050506040513d601f19601f8201168201806040525061143a9190810190615453565b613c1490919063ffffffff16565b836101000151613c4f90919063ffffffff16565b8261010001819052508080600101915050611331565b5061159d61155e61154a8661022001516000809054906101000a900473ffffffffffffffffffffffffffffffffffffffff1673ffffffffffffffffffffffffffffffffffffffff1663b8c9d3656040518163ffffffff167c0100000000000000000000000000000000000000000000000000000000028152600401604080518083038186803b15801561150457600080fd5b505afa158015611518573d6000803e3d6000fd5b505050506040513d601f19601f8201168201806040525061153c9190810190615453565b613c1490919063ffffffff16565b836101000151613c4f90919063ffffffff16565b61158f866040015161158185606001518960600151613c1490919063ffffffff16565b613c4f90919063ffffffff16565b613c9590919063ffffffff16565b15156115de576040517f08c379a00000000000000000000000000000000000000000000000000000000081526004016115d590615ab9565b60405180910390fd5b604080519081016040528060008152602001600081525081610100018190525060008090505b816000015160020281101561179b5761178561177161169e6116618560c001518581518110151561163157fe5b90602001906020020151600160028110151561164957fe5b60200201518660600151613bd490919063ffffffff16565b8560c001518581518110151561167357fe5b90602001906020020151600160028110151561168b57fe5b6020020151613cbd90919063ffffffff16565b6000809054906101000a900473ffffffffffffffffffffffffffffffffffffffff1673ffffffffffffffffffffffffffffffffffffffff166383ec1a49856040518263ffffffff167c01000000000000000000000000000000000000000000000000000000000281526004016117149190615ad9565b604080518083038186803b15801561172b57600080fd5b505afa15801561173f573d6000803e3d6000fd5b505050506040513d601f19601f820116820180604052506117639190810190615453565b613c1490919063ffffffff16565b836101000151613c4f90919063ffffffff16565b8261010001819052508080600101915050611604565b506118c66118876118738661024001516000809054906101000a900473ffffffffffffffffffffffffffffffffffffffff1673ffffffffffffffffffffffffffffffffffffffff1663b8c9d3656040518163ffffffff167c0100000000000000000000000000000000000000000000000000000000028152600401604080518083038186803b15801561182d57600080fd5b505afa158015611841573d6000803e3d6000fd5b505050506040513d601f19601f820116820180604052506118659190810190615453565b613c1490919063ffffffff16565b836101000151613c4f90919063ffffffff16565b6118b88660a001516118aa85606001518960800151613c1490919063ffffffff16565b613c4f90919063ffffffff16565b613c9590919063ffffffff16565b1515611907576040517f08c379a00000000000000000000000000000000000000000000000000000000081526004016118fe90615a99565b60405180910390fd5b611bae611a556119818360c00151846000015181518110151561192657fe5b90602001906020020151600060028110151561193e57fe5b60200201518460c00151600081518110151561195657fe5b90602001906020020151600060028110151561196e57fe5b6020020151613cbd90919063ffffffff16565b6000809054906101000a900473ffffffffffffffffffffffffffffffffffffffff1673ffffffffffffffffffffffffffffffffffffffff166383ec1a4960016040518263ffffffff167c01000000000000000000000000000000000000000000000000000000000281526004016119f891906159fe565b604080518083038186803b158015611a0f57600080fd5b505afa158015611a23573d6000803e3d6000fd5b505050506040513d601f19601f82011682018060405250611a479190810190615453565b613c1490919063ffffffff16565b611ba0611acc8460c001518560000151815181101515611a7157fe5b906020019060200201516001600281101515611a8957fe5b60200201518560c001516000815181101515611aa157fe5b906020019060200201516001600281101515611ab957fe5b6020020151613cbd90919063ffffffff16565b6000809054906101000a900473ffffffffffffffffffffffffffffffffffffffff1673ffffffffffffffffffffffffffffffffffffffff166383ec1a4960006040518263ffffffff167c0100000000000000000000000000000000000000000000000000000000028152600401611b4391906159e3565b604080518083038186803b158015611b5a57600080fd5b505afa158015611b6e573d6000803e3d6000fd5b505050506040513d601f19601f82011682018060405250611b929190810190615453565b613c1490919063ffffffff16565b613c4f90919063ffffffff16565b816101000181905250611ce1611ca2611c8e8661026001516000809054906101000a900473ffffffffffffffffffffffffffffffffffffffff1673ffffffffffffffffffffffffffffffffffffffff1663b8c9d3656040518163ffffffff167c0100000000000000000000000000000000000000000000000000000000028152600401604080518083038186803b158015611c4857600080fd5b505afa158015611c5c573d6000803e3d6000fd5b505050506040513d601f19601f82011682018060405250611c809190810190615453565b613c1490919063ffffffff16565b836101000151613c4f90919063ffffffff16565b611cd38660c00151611cc585606001518960e00151613c1490919063ffffffff16565b613c4f90919063ffffffff16565b613c9590919063ffffffff16565b1515611d22576040517f08c379a0000000000000000000000000000000000000000000000000000000008152600401611d1990615a59565b60405180910390fd5b611d2f8160c00151613cf4565b8160e00181905250611d498160e001518660400151613dec565b816101600181905250611d648160e001518660800151613dec565b81610180018190525060008090505b8160200151811015611e8457611df2611dde8360e0015183815181101515611d9757fe5b906020019060200201516000600281101515611daf57fe5b6020020151886000015184815181101515611dc657fe5b90602001906020020151613c1490919063ffffffff16565b836101200151613c4f90919063ffffffff16565b826101200181905250611e6e611e5a8360e0015183815181101515611e1357fe5b906020019060200201516000600281101515611e2b57fe5b6020020151886020015184815181101515611e4257fe5b90602001906020020151613c1490919063ffffffff16565b836101400151613c4f90919063ffffffff16565b8261014001819052508080600101915050611d73565b50600181608001818152505060008090505b8160200151811015611fd757611f16611f028360800151846101600151600285811515611ebf57fe5b04815181101515611ecc57fe5b90602001906020020151600285811515611ee257fe5b06600281101515611eef57fe5b6020020151613c1490919063ffffffff16565b836101a00151613c4f90919063ffffffff16565b826101a00181905250611f93611f7f8360800151846101800151600285811515611f3c57fe5b04815181101515611f4957fe5b90602001906020020151600285811515611f5f57fe5b06600281101515611f6c57fe5b6020020151613c1490919063ffffffff16565b836101c00151613c4f90919063ffffffff16565b826101c001819052506000811115611fca57611fc082604001518360800151613cbd90919063ffffffff16565b8260800181815250505b8080600101915050611e96565b5060018160a001818152505060008090505b81600001518110156123aa576120476120336120088460a001516140c6565b8761010001518481518110151561201b57fe5b90602001906020020151613c1490919063ffffffff16565b836101200151613c4f90919063ffffffff16565b8261012001819052506120a261208e6120638460a001516140c6565b8761012001518481518110151561207657fe5b90602001906020020151613c1490919063ffffffff16565b836101400151613c4f90919063ffffffff16565b8261014001819052506121286120e96120be8460a001516140c6565b876101400151848151811015156120d157fe5b90602001906020020151613c1490919063ffffffff16565b83610160015160008151811015156120fd57fe5b90602001906020020151600060028110151561211557fe5b6020020151613c4f90919063ffffffff16565b826101600151600081518110151561213c57fe5b90602001906020020151600060028110151561215457fe5b60200201819052506121ae61219a61216f8460a001516140c6565b8761016001518481518110151561218257fe5b90602001906020020151613c1490919063ffffffff16565b836102000151613c4f90919063ffffffff16565b8261020001819052506122346121f56121ca8460a001516140c6565b876101800151848151811015156121dd57fe5b90602001906020020151613c1490919063ffffffff16565b836101800151600081518110151561220957fe5b90602001906020020151600060028110151561222157fe5b6020020151613c4f90919063ffffffff16565b826101800151600081518110151561224857fe5b90602001906020020151600060028110151561226057fe5b60200201819052506122ba6122a661227b8460a001516140c6565b876101a001518481518110151561228e57fe5b90602001906020020151613c1490919063ffffffff16565b836101e00151613c4f90919063ffffffff16565b826101e001819052506123156123016122d68460a001516140c6565b876101c00151848151811015156122e957fe5b90602001906020020151613c1490919063ffffffff16565b836101a00151613c4f90919063ffffffff16565b826101a0018190525061237061235c6123318460a001516140c6565b876101e001518481518110151561234457fe5b90602001906020020151613c1490919063ffffffff16565b836101c00151613c4f90919063ffffffff16565b826101c0018190525061239482606001518360a00151613cbd90919063ffffffff16565b8260a00181815250508080600101915050611fe9565b506123dd6123c98260a001518760600151613c1490919063ffffffff16565b826102000151613c4f90919063ffffffff16565b8161020001819052506124cd6124b98260a001516000809054906101000a900473ffffffffffffffffffffffffffffffffffffffff1673ffffffffffffffffffffffffffffffffffffffff1663e2179b8e6040518163ffffffff167c0100000000000000000000000000000000000000000000000000000000028152600401604080518083038186803b15801561247357600080fd5b505afa158015612487573d6000803e3d6000fd5b505050506040513d601f19601f820116820180604052506124ab9190810190615453565b613c1490919063ffffffff16565b826101e00151613c4f90919063ffffffff16565b816101e001819052506124de614ea7565b6125318260600151866102800151876102a00151886102c00151896102e00151604051602001612512959493929190615be2565b6040516020818303038152906040528051906020012060019004613b9f565b81600001818152505060018160200151600060408110151561254f57fe5b6020020181815250506001816101000181815250506000600190505b6040811015612604576125a4826000015183602001516001840360408110151561259157fe5b6020020151613cbd90919063ffffffff16565b8260200151826040811015156125b657fe5b6020020181815250506125ed8260200151826040811015156125d457fe5b60200201518361010001516140f290919063ffffffff16565b82610100018181525050808060010191505061256b565b5061263c816000015160405160200161261d9190615ad9565b6040516020818303038152906040528051906020012060019004613b9f565b81604001818152505060408051908101604052806126686002846040015161412990919063ffffffff16565b81526020016126856003846040015161412990919063ffffffff16565b81525081606001819052506126e781604001516126d9836060015160016002811015156126ae57fe5b6020020151846060015160006002811015156126c657fe5b60200201516140f290919063ffffffff16565b613cbd90919063ffffffff16565b8160a00181815250506127786127258260a001516127176401000000008560a00151613cbd90919063ffffffff16565b613bd490919063ffffffff16565b61276a6127568460600151600060028110151561273e57fe5b60200201518560400151613bd490919063ffffffff16565b846101000151613cbd90919063ffffffff16565b613bd490919063ffffffff16565b8161010001818152505061279f816101000151866103200151613bd490919063ffffffff16565b8160e001818152505060008090505b6020811015612857576127e48160020a836060015160006002811015156127d157fe5b6020020151613cbd90919063ffffffff16565b8260800151826040811015156127f657fe5b60200201818152505061282c8160020a8360600151600160028110151561281957fe5b6020020151613cbd90919063ffffffff16565b82608001516020830160408110151561284157fe5b60200201818152505080806001019150506127ae565b506128968160400151866103000151604051602001612877929190615af4565b6040516020818303038152906040528051906020012060019004613b9f565b8160c00181815250506129246128e76128c08360c001518460c00151613cbd90919063ffffffff16565b87610300015160016002811015156128d457fe5b6020020151613c1490919063ffffffff16565b6129168360c00151886103000151600060028110151561290357fe5b6020020151613c1490919063ffffffff16565b613c4f90919063ffffffff16565b816101200181905250612935614f13565b6129b36129886129498861038001516140c6565b856101800151600081518110151561295d57fe5b90602001906020020151600060028110151561297557fe5b6020020151613c1490919063ffffffff16565b6129a5886103a00151866101e00151613c1490919063ffffffff16565b613c4f90919063ffffffff16565b8160200181905250612ac16129e26129cf8861038001516140c6565b8960600151613c1490919063ffffffff16565b612ab3886103c001516000809054906101000a900473ffffffffffffffffffffffffffffffffffffffff1673ffffffffffffffffffffffffffffffffffffffff1663e2179b8e6040518163ffffffff167c0100000000000000000000000000000000000000000000000000000000028152600401604080518083038186803b158015612a6d57600080fd5b505afa158015612a81573d6000803e3d6000fd5b505050506040513d601f19601f82011682018060405250612aa59190810190615453565b613c1490919063ffffffff16565b613c4f90919063ffffffff16565b8160400181905250612b0c6040805190810160405280600681526020017f5a657468657200000000000000000000000000000000000000000000000000008152508860a00151614196565b8160600181905250612b65612b3b612b288861038001516140c6565b8960c00151613c1490919063ffffffff16565b612b57886103a001518460600151613c1490919063ffffffff16565b613c4f90919063ffffffff16565b8160800181905250612bc0612b95612b818861038001516140c6565b856101a00151613c1490919063ffffffff16565b612bb2886103c00151866101c00151613c1490919063ffffffff16565b613c4f90919063ffffffff16565b8160c00181905250612d58612c7583606001516001600281101515612be157fe5b6020020151612c67612c25612bfa8b61038001516140c6565b612c178c6102c001518a6101200151613c4f90919063ffffffff16565b613c1490919063ffffffff16565b612c598b6103a00151612c4b8d6102e001518b6101400151613c4f90919063ffffffff16565b613c1490919063ffffffff16565b613c4f90919063ffffffff16565b613c1490919063ffffffff16565b612d4a84606001516000600281101515612c8b57fe5b6020020151612d3c612cfa612ca48c61038001516140c6565b612cec8d61028001518b61016001516000815181101515612cc157fe5b906020019060200201516000600281101515612cd957fe5b6020020151613c4f90919063ffffffff16565b613c1490919063ffffffff16565b612d2e8c6103a00151612d208e6102a001518c6102000151613c4f90919063ffffffff16565b613c1490919063ffffffff16565b613c4f90919063ffffffff16565b613c1490919063ffffffff16565b613c4f90919063ffffffff16565b8160e00181905250612f748160e00151612f66612d878660a001518a6103800151613cbd90919063ffffffff16565b612f58612d98876101200151614206565b612f4a612e6c8d61034001516000809054906101000a900473ffffffffffffffffffffffffffffffffffffffff1673ffffffffffffffffffffffffffffffffffffffff1663b8c9d3656040518163ffffffff167c0100000000000000000000000000000000000000000000000000000000028152600401604080518083038186803b158015612e2657600080fd5b505afa158015612e3a573d6000803e3d6000fd5b505050506040513d601f19601f82011682018060405250612e5e9190810190615453565b613c1490919063ffffffff16565b612f3c8a60e001516000809054906101000a900473ffffffffffffffffffffffffffffffffffffffff1673ffffffffffffffffffffffffffffffffffffffff1663e2179b8e6040518163ffffffff167c0100000000000000000000000000000000000000000000000000000000028152600401604080518083038186803b158015612ef657600080fd5b505afa158015612f0a573d6000803e3d6000fd5b505050506040513d601f19601f82011682018060405250612f2e9190810190615453565b613c1490919063ffffffff16565b613c4f90919063ffffffff16565b613c4f90919063ffffffff16565b613c1490919063ffffffff16565b613c4f90919063ffffffff16565b8161010001819052506130dd612ffe612fd3612f948961038001516140c6565b8661016001516000815181101515612fa857fe5b906020019060200201516000600281101515612fc057fe5b6020020151613c1490919063ffffffff16565b612ff0896103a00151876102000151613c1490919063ffffffff16565b613c4f90919063ffffffff16565b6130cf886103e001516000809054906101000a900473ffffffffffffffffffffffffffffffffffffffff1673ffffffffffffffffffffffffffffffffffffffff1663e2179b8e6040518163ffffffff167c0100000000000000000000000000000000000000000000000000000000028152600401604080518083038186803b15801561308957600080fd5b505afa15801561309d573d6000803e3d6000fd5b505050506040513d601f19601f820116820180604052506130c19190810190615453565b613c1490919063ffffffff16565b613c4f90919063ffffffff16565b81610120018190525061321b61313c6131116130fd8961038001516140c6565b866101200151613c1490919063ffffffff16565b61312e896103a00151876101400151613c1490919063ffffffff16565b613c4f90919063ffffffff16565b61320d8861040001516000809054906101000a900473ffffffffffffffffffffffffffffffffffffffff1673ffffffffffffffffffffffffffffffffffffffff1663e2179b8e6040518163ffffffff167c0100000000000000000000000000000000000000000000000000000000028152600401604080518083038186803b1580156131c757600080fd5b505afa1580156131db573d6000803e3d6000fd5b505050506040513d601f19601f820116820180604052506131ff9190810190615453565b613c1490919063ffffffff16565b613c4f90919063ffffffff16565b81610140018190525061335961327a61324f61323b8961038001516140c6565b896102800151613c1490919063ffffffff16565b61326c896103a001518a6102a00151613c1490919063ffffffff16565b613c4f90919063ffffffff16565b61334b8861042001516000809054906101000a900473ffffffffffffffffffffffffffffffffffffffff1673ffffffffffffffffffffffffffffffffffffffff1663b8c9d3656040518163ffffffff167c0100000000000000000000000000000000000000000000000000000000028152600401604080518083038186803b15801561330557600080fd5b505afa158015613319573d6000803e3d6000fd5b505050506040513d601f19601f8201168201806040525061333d9190810190615453565b613c1490919063ffffffff16565b613c4f90919063ffffffff16565b8161016001819052506134976133b861338d6133798961038001516140c6565b896102c00151613c1490919063ffffffff16565b6133aa896103a001518a6102e00151613c1490919063ffffffff16565b613c4f90919063ffffffff16565b6134898861044001516000809054906101000a900473ffffffffffffffffffffffffffffffffffffffff1673ffffffffffffffffffffffffffffffffffffffff1663b8c9d3656040518163ffffffff167c0100000000000000000000000000000000000000000000000000000000028152600401604080518083038186803b15801561344357600080fd5b505afa158015613457573d6000803e3d6000fd5b505050506040513d601f19601f8201168201806040525061347b9190810190615453565b613c1490919063ffffffff16565b613c4f90919063ffffffff16565b8161018001819052506135128260c001518260200151836040015184608001518560c001518661010001518761012001518861014001518961016001518a61018001516040516020016134f39a99989796959493929190615cc6565b6040516020818303038152906040528051906020012060019004613b9f565b8160000181815250508561038001518160000151141515613568576040517f08c379a000000000000000000000000000000000000000000000000000000000815260040161355f90615a39565b60405180910390fd5b613570614fc4565b6135a782600001516040516020016135889190615ad9565b6040516020818303038152906040528051906020012060019004613b9f565b81608001818152505061368081608001516000809054906101000a900473ffffffffffffffffffffffffffffffffffffffff1673ffffffffffffffffffffffffffffffffffffffff1663e2179b8e6040518163ffffffff167c0100000000000000000000000000000000000000000000000000000000028152600401604080518083038186803b15801561363a57600080fd5b505afa15801561364e573d6000803e3d6000fd5b505050506040513d601f19601f820116820180604052506136729190810190615453565b613c1490919063ffffffff16565b8160200181905250604080519080825280602002602001820160405280156136c257816020015b6136af614c35565b8152602001906001900390816136a75790505b50816040018190525060008090505b604081101561389b576137cf6136fc8560200151836040811015156136f257fe5b602002015161427f565b6000809054906101000a900473ffffffffffffffffffffffffffffffffffffffff1673ffffffffffffffffffffffffffffffffffffffff16633844923b846040518263ffffffff167c01000000000000000000000000000000000000000000000000000000000281526004016137729190615ad9565b604080518083038186803b15801561378957600080fd5b505afa15801561379d573d6000803e3d6000fd5b505050506040513d601f19601f820116820180604052506137c19190810190615453565b613c1490919063ffffffff16565b8260400151828151811015156137e157fe5b9060200190602002018190525061388661387361384986608001518460408110151561380957fe5b602002015161383b886040015189602001518760408110151561382857fe5b6020020151613cbd90919063ffffffff16565b6140f290919063ffffffff16565b84604001518481518110151561385b57fe5b90602001906020020151613c1490919063ffffffff16565b8360600151613c4f90919063ffffffff16565b826060018190525080806001019150506136d1565b5061391a816060015161390c6138cd6138b787604001516140c6565b6138bf6142b5565b613c1490919063ffffffff16565b6138fe6138eb8860c001518d60200151613c1490919063ffffffff16565b8c60000151613c4f90919063ffffffff16565b613c4f90919063ffffffff16565b613c4f90919063ffffffff16565b8160000181905250613a116139fe6139368961036001516140c6565b6000809054906101000a900473ffffffffffffffffffffffffffffffffffffffff1673ffffffffffffffffffffffffffffffffffffffff1663b8c9d3656040518163ffffffff167c0100000000000000000000000000000000000000000000000000000000028152600401604080518083038186803b1580156139b857600080fd5b505afa1580156139cc573d6000803e3d6000fd5b505050506040513d601f19601f820116820180604052506139f09190810190615453565b613c1490919063ffffffff16565b8260000151613c4f90919063ffffffff16565b8160000181905250613a4b613a388861032001518360200151613c1490919063ffffffff16565b8260000151613c4f90919063ffffffff16565b81600001819052506000809054906101000a900473ffffffffffffffffffffffffffffffffffffffff1673ffffffffffffffffffffffffffffffffffffffff1663986ddfa98260400151836020015184600001518b610460015186608001516040518663ffffffff167c0100000000000000000000000000000000000000000000000000000000028152600401613ae6959493929190615967565b60206040518083038186803b158015613afe57600080fd5b505afa158015613b12573d6000803e3d6000fd5b505050506040513d601f19601f82011682018060405250613b36919081019061542a565b1515613b77576040517f08c379a0000000000000000000000000000000000000000000000000000000008152600401613b6e90615a79565b60405180910390fd5b60019550505050505092915050565b6000604051826020850101518152805191505092915050565b60007f30644e72e131a029b85045b68181585d2833e84879b9709143e1f593f000000182811515613bcc57fe5b069050919050565b600081831015613c085782827f30644e72e131a029b85045b68181585d2833e84879b9709143e1f593f00000010301613c0c565b8183035b905092915050565b613c1c615007565b604051835181526020840151602082015282604082015260408260608360075afa1515613c4857600080fd5b5092915050565b613c57615007565b6040518351815260208401516020820152825160408201526020830151606082015260408260808360065afa1515613c8e57600080fd5b5092915050565b600081600001518360000151148015613cb5575081602001518360200151145b905092915050565b60007f30644e72e131a029b85045b68181585d2833e84879b9709143e1f593f0000001801515613ce957fe5b828409905092915050565b6060600060028351811515613d0557fe5b04905060008160020a905080604051908082528060200260200182016040528015613d4a57816020015b613d37614e85565b815260200190600190039081613d2f5790505b50925060008090505b6002811015613de4576060613d72848302856001850102600189614316565b905060008090505b83811015613dd5578181815181101515613d9057fe5b906020019060200201518682815181101515613da857fe5b9060200190602002015184600281101515613dbf57fe5b6020020181815250508080600101915050613d7a565b50508080600101915050613d53565b505050919050565b60606000835190506000600282811515613e0257fe5b04905080604051908082528060200260200182016040528015613e3f57816020015b613e2c615021565b815260200190600190039081613e245790505b5092506060613e4f8560006144cb565b9050606083604051908082528060200260200182016040528015613e825781602001602082028038833980820191505090505b50905060008090505b60028110156140bb5760008090505b85811015613f02578886828803811515613eb057fe5b06815181101515613ebd57fe5b9060200190602002015182600281101515613ed457fe5b60200201518382815181101515613ee757fe5b90602001906020020181815250508080600101915050613e9a565b50613f0c82614759565b9150606084604051908082528060200260200182016040528015613f4a57816020015b613f37614c35565b815260200190600190039081613f2f5790505b509050600060029050613f5c8161427f565b905060008090505b8681101561403d5761401582614007613fb8888b8601815181101515613f8657fe5b906020019060200201518a8c8701815181101515613fa057fe5b90602001906020020151613c1490919063ffffffff16565b613ff98986815181101515613fc957fe5b906020019060200201518b87815181101515613fe157fe5b90602001906020020151613c1490919063ffffffff16565b613c4f90919063ffffffff16565b613c1490919063ffffffff16565b838281518110151561402357fe5b906020019060200201819052508080600101915050613f64565b506140498260016144cb565b915060008090505b868110156140ab57828181518110151561406757fe5b90602001906020020151898281518110151561407f57fe5b906020019060200201518560028110151561409657fe5b60200201819052508080600101915050614051565b5050508080600101915050613e8b565b505050505092915050565b6000817f30644e72e131a029b85045b68181585d2833e84879b9709143e1f593f0000001039050919050565b60007f30644e72e131a029b85045b68181585d2833e84879b9709143e1f593f000000180151561411e57fe5b828408905092915050565b6000807f30644e72e131a029b85045b68181585d2833e84879b9709143e1f593f0000001905060405160208152602080820152602060408201528460608201528360808201528160a082015260208160c08360055afa151561418a57600080fd5b80519250505092915050565b61419e615007565b6141fe7f30644e72e131a029b85045b68181585d97816a916871ca8d3c208c16d87cfd4784846040516020016141d59291906158c2565b60405160208183030381529060405280519060200120600190048115156141f857fe5b06614981565b905092915050565b61420e615007565b6040805190810160405280836000015181526020017f30644e72e131a029b85045b68181585d97816a916871ca8d3c208c16d87cfd47846020015181151561425257fe5b067f30644e72e131a029b85045b68181585d97816a916871ca8d3c208c16d87cfd47038152509050919050565b60006142ae8260027f30644e72e131a029b85045b68181585d2833e84879b9709143e1f593f000000103614129565b9050919050565b6142bd615007565b60408051908101604052807e715f13ea08d6b51bedcde3599d8e12163e090921309d5aafc9b5bfaadbcda081526020017f27aceab598af7bf3d16ca9d40fe186c489382c21bb9d22b19cb3af8b751b959f815250905090565b6060600085850360020a9050806040519080825280602002602001820160405280156143515781602001602082028038833980820191505090505b50915085851415614383578382600081518110151561436c57fe5b9060200190602002018181525050819150506144c3565b60018503945060606143d387876143cd878a8151811015156143a157fe5b9060200190602002015160006002811015156143b957fe5b602002015189613cbd90919063ffffffff16565b87614316565b9050606061441f8888614419888b8151811015156143ed57fe5b90602001906020020151600160028110151561440557fe5b60200201518a613cbd90919063ffffffff16565b88614316565b905060008090505b60028481151561443357fe5b048110156144be57828181518110151561444957fe5b90602001906020020151858281518110151561446157fe5b9060200190602002018181525050818181518110151561447d57fe5b906020019060200201518560028681151561449457fe5b0483018151811015156144a357fe5b90602001906020020181815250508080600101915050614427565b505050505b949350505050565b606060008351905060018114156144e55783915050614753565b60006002828115156144f357fe5b06141515614536576040517f08c379a000000000000000000000000000000000000000000000000000000000815260040161452d90615a19565b60405180910390fd5b600061457a82631000000081151561454a57fe5b047f14a3074b02521e3b1ed9852e5028452693e87be4e910500c7ba9bbddb2f46edd61412990919063ffffffff16565b90506000600190508415614598576145918261427f565b9150600290505b6145a18161427f565b905060606145b96145b3886000614a21565b876144cb565b905060606145d16145cb896001614a21565b886144cb565b90506000600190508560405190808252806020026020018201604052801561461357816020015b614600614c35565b8152602001906001900390816145f85790505b50965060008090505b60028781151561462857fe5b0481101561474b57614638615007565b61466283858481518110151561464a57fe5b90602001906020020151613c1490919063ffffffff16565b90506146a08661469283888681518110151561467a57fe5b90602001906020020151613c4f90919063ffffffff16565b613c1490919063ffffffff16565b89838151811015156146ae57fe5b906020019060200201819052506146ff866146f16146cb84614206565b88868151811015156146d957fe5b90602001906020020151613c4f90919063ffffffff16565b613c1490919063ffffffff16565b8960028a81151561470c57fe5b04840181518110151561471b57fe5b9060200190602002018190525061473b8784613cbd90919063ffffffff16565b925050808060010191505061461c565b505050505050505b92915050565b60606000825190506001811415614773578291505061497c565b600060028281151561478157fe5b061415156147c4576040517f08c379a00000000000000000000000000000000000000000000000000000000081526004016147bb90615a19565b60405180910390fd5b60006148088263100000008115156147d857fe5b047f14a3074b02521e3b1ed9852e5028452693e87be4e910500c7ba9bbddb2f46edd61412990919063ffffffff16565b9050606061481f61481a866000614ad4565b614759565b90506060614836614831876001614ad4565b614759565b90506000600190508460405190808252806020026020018201604052801561486d5781602001602082028038833980820191505090505b50955060008090505b60028681151561488257fe5b048110156149755760006148b683858481518110151561489e57fe5b90602001906020020151613cbd90919063ffffffff16565b90506148e28186848151811015156148ca57fe5b906020019060200201516140f290919063ffffffff16565b88838151811015156148f057fe5b906020019060200201818152505061492881868481518110151561491057fe5b90602001906020020151613bd490919063ffffffff16565b8860028981151561493557fe5b04840181518110151561494457fe5b90602001906020020181815250506149658684613cbd90919063ffffffff16565b9250508080600101915050614876565b5050505050505b919050565b614989615007565b60005b600115614a0457600060036149a2856003614b7d565b0190506149de81600460017f30644e72e131a029b85045b68181585d97816a916871ca8d3c208c16d87cfd47018115156149d857fe5b04614b7d565b9150806149ec836002614b7d565b14156149f85750614a04565b6001840193505061498c565b604080519081016040528084815260200182815250915050919050565b606060028351811515614a3057fe5b04604051908082528060200260200182016040528015614a6a57816020015b614a57614c35565b815260200190600190039081614a4f5790505b50905060008090505b60028451811515614a8057fe5b04811015614acd5783838260020201815181101515614a9b57fe5b906020019060200201518282815181101515614ab357fe5b906020019060200201819052508080600101915050614a73565b5092915050565b606060028351811515614ae357fe5b04604051908082528060200260200182016040528015614b125781602001602082028038833980820191505090505b50905060008090505b60028451811515614b2857fe5b04811015614b765783838260020201815181101515614b4357fe5b906020019060200201518282815181101515614b5b57fe5b90602001906020020181815250508080600101915050614b1b565b5092915050565b6000807f30644e72e131a029b85045b68181585d97816a916871ca8d3c208c16d87cfd47905060405160208152602080820152602060408201528460608201528360808201528160a082015260208160c08360055afa1515614bde57600080fd5b80519250505092915050565b61012060405190810160405280606081526020016060815260200160608152602001614c14614c35565b81526020016060815260200160008152602001614c2f614c35565b81525090565b604080519081016040528060008152602001600081525090565b6106c060405190810160405280614c64614c35565b8152602001614c71614c35565b8152602001614c7e614c35565b8152602001614c8b614c35565b8152602001614c98614c35565b8152602001614ca5614c35565b8152602001614cb2614c35565b8152602001614cbf614c35565b8152602001606081526020016060815260200160608152602001606081526020016060815260200160608152602001606081526020016060815260200160608152602001600081526020016000815260200160008152602001614d20614c35565b8152602001614d2d614c35565b8152602001614d3a614c35565b8152602001614d47614c35565b8152602001614d54615021565b815260200160008152602001600081526020016000815260200160008152602001600081526020016000815260200160008152602001600081526020016000815260200160008152602001614da761504f565b81525090565b608060405190810160405280606081526020016060815260200160008152602001600081525090565b610300604051908101604052806000815260200160008152602001600081526020016000815260200160008152602001600081526020016060815260200160608152602001614e23614c35565b8152602001614e30614c35565b8152602001614e3d614c35565b81526020016060815260200160608152602001614e58614c35565b8152602001614e65614c35565b8152602001614e72614c35565b8152602001614e7f614c35565b81525090565b6040805190810160405280600290602082028038833980820191505090505090565b6111406040519081016040528060008152602001614ec3615078565b815260200160008152602001614ed7614e85565b8152602001614ee4615078565b815260200160008152602001600081526020016000815260200160008152602001614f0d614c35565b81525090565b6103206040519081016040528060008152602001614f2f614c35565b8152602001614f3c614c35565b8152602001614f49614c35565b8152602001614f56614c35565b8152602001614f63614c35565b8152602001614f70614c35565b8152602001614f7d614c35565b8152602001614f8a614c35565b8152602001614f97614c35565b8152602001614fa4614c35565b8152602001614fb1614c35565b8152602001614fbe614c35565b81525090565b61010060405190810160405280614fd9614c35565b8152602001614fe6614c35565b815260200160608152602001614ffa614c35565b8152602001600081525090565b604080519081016040528060008152602001600081525090565b6080604051908101604052806002905b615039614c35565b8152602001906001900390816150315790505090565b608060405190810160405280606081526020016060815260200160008152602001600081525090565b61080060405190810160405280604090602082028038833980820191505090505090565b600082601f83011215156150af57600080fd5b81356150c26150bd82615d92565b615d65565b915081818352602084019350602081019050838560408402820111156150e757600080fd5b60005b8381101561511757816150fd8882615121565b8452602084019350604083019250506001810190506150ea565b5050505092915050565b600082601f830112151561513457600080fd5b600261514761514282615dba565b615d65565b9150818385602084028201111561515d57600080fd5b60005b8381101561518d57816151738882615221565b845260208401935060208301925050600181019050615160565b5050505092915050565b600082601f83011215156151aa57600080fd5b60026151bd6151b882615ddc565b615d65565b915081838560208402820111156151d357600080fd5b60005b8381101561520357816151e98882615221565b8452602084019350602083019250506001810190506151d6565b5050505092915050565b60006152198251615edb565b905092915050565b600061522d8235615ee7565b905092915050565b600082601f830112151561524857600080fd5b813561525b61525682615dfe565b615d65565b9150808252602083016020830185838301111561527757600080fd5b615282838284615f1f565b50505092915050565b60006040828403121561529d57600080fd5b6152a76040615d65565b905060006152b7848285016152eb565b60008301525060206152cb848285016152eb565b60208301525092915050565b60006152e38235615ef1565b905092915050565b60006152f78251615ef1565b905092915050565b600080600080600080600080610140898b03121561531c57600080fd5b600089013567ffffffffffffffff81111561533657600080fd5b6153428b828c0161509c565b985050602089013567ffffffffffffffff81111561535f57600080fd5b61536b8b828c0161509c565b975050604089013567ffffffffffffffff81111561538857600080fd5b6153948b828c0161509c565b96505060606153a58b828c01615197565b95505060a089013567ffffffffffffffff8111156153c257600080fd5b6153ce8b828c0161509c565b94505060c06153df8b828c016152d7565b93505060e06153f08b828c01615197565b92505061012089013567ffffffffffffffff81111561540e57600080fd5b61541a8b828c01615235565b9150509295985092959890939650565b60006020828403121561543c57600080fd5b600061544a8482850161520d565b91505092915050565b60006040828403121561546557600080fd5b60006154738482850161528b565b91505092915050565b600061548883836157c5565b60408301905092915050565b61549d81615e41565b6154a78184615e7c565b92506154b282615e2a565b60005b828110156154e0576154c885835161547c565b94506154d382615e62565b91506001810190506154b5565b5050505050565b60006154f282615e4c565b6154fc8185615e87565b935061550783615e34565b60005b828110156155355761551d86835161547c565b955061552882615e6f565b915060018101905061550a565b50849250505092915050565b600061554c82615e4c565b6155568185615e98565b935061556183615e34565b60005b8281101561558f5761557786835161547c565b955061558282615e6f565b9150600181019050615564565b50849250505092915050565b6155a481615ec5565b82525050565b6155b381615efb565b82525050565b6155c281615f0d565b82525050565b60006155d382615e57565b6155dd8185615eba565b93506155ed818560208601615f2e565b80840191505092915050565b6000615606601f83615ea9565b91507f496e7075742073697a65206973206e6f74206120706f776572206f66203221006000830152602082019050919050565b6000615646602a83615ea9565b91507f5369676d612070726f746f636f6c206368616c6c656e676520657175616c697460008301527f79206661696c7572652e000000000000000000000000000000000000000000006020830152604082019050919050565b60006156ac601d83615ea9565b91507f5265636f76657279206661696c75726520666f7220465e77202a20452e0000006000830152602082019050919050565b60006156ec602883615ea9565b91507f496e6e65722070726f647563742070726f6f6620766572696669636174696f6e60008301527f206661696c65642e0000000000000000000000000000000000000000000000006020830152604082019050919050565b6000615752601d83615ea9565b91507f5265636f76657279206661696c75726520666f7220435e77202a20442e0000006000830152602082019050919050565b6000615792601d83615ea9565b91507f5265636f76657279206661696c75726520666f7220425e77202a20412e0000006000830152602082019050919050565b6040820160008201516157db600085018261588d565b5060208201516157ee602085018261588d565b50505050565b60408201600082015161580a600085018261588d565b50602082015161581d602085018261588d565b50505050565b6000608083016000830151848203600086015261584082826154e7565b9150506020830151848203602086015261585a82826154e7565b915050604083015161586f604086018261588d565b506060830151615882606086018261588d565b508091505092915050565b61589681615ed1565b82525050565b6158a581615ed1565b82525050565b6158bc6158b782615ed1565b615f61565b82525050565b60006158ce82856155c8565b91506158da82846158ab565b6020820191508190509392505050565b600060e08201905081810360008301526159048189615541565b905081810360208301526159188188615541565b9050818103604083015261592c8187615541565b905061593b60608301866157f4565b81810360a083015261594d8185615541565b905061595c60c083018461589c565b979650505050505050565b600060e08201905081810360008301526159818188615541565b905061599060208301876157f4565b61599d60608301866157f4565b81810360a08301526159af8185615823565b90506159be60c083018461589c565b9695505050505050565b60006020820190506159dd600083018461559b565b92915050565b60006020820190506159f860008301846155aa565b92915050565b6000602082019050615a1360008301846155b9565b92915050565b60006020820190508181036000830152615a32816155f9565b9050919050565b60006020820190508181036000830152615a5281615639565b9050919050565b60006020820190508181036000830152615a728161569f565b9050919050565b60006020820190508181036000830152615a92816156df565b9050919050565b60006020820190508181036000830152615ab281615745565b9050919050565b60006020820190508181036000830152615ad281615785565b9050919050565b6000602082019050615aee600083018461589c565b92915050565b600060a082019050615b09600083018561589c565b615b166020830184615494565b9392505050565b600061012082019050615b33600083018c61589c565b8181036020830152615b45818b615541565b90508181036040830152615b59818a615541565b90508181036060830152615b6d8189615541565b90508181036080830152615b818188615541565b905081810360a0830152615b958187615541565b905081810360c0830152615ba98186615541565b905081810360e0830152615bbd8185615541565b9050818103610100830152615bd28184615541565b90509a9950505050505050505050565b600061012082019050615bf8600083018861589c565b615c0560208301876157f4565b615c1260608301866157f4565b615c1f60a08301856157f4565b615c2c60e08301846157f4565b9695505050505050565b600061022082019050615c4c600083018c61589c565b615c59602083018b6157f4565b615c66606083018a6157f4565b615c7360a08301896157f4565b615c8060e08301886157f4565b615c8e6101208301876157f4565b615c9c6101608301866157f4565b615caa6101a08301856157f4565b615cb86101e08301846157f4565b9a9950505050505050505050565b600061026082019050615cdc600083018d61589c565b615ce9602083018c6157f4565b615cf6606083018b6157f4565b615d0360a083018a6157f4565b615d1060e08301896157f4565b615d1e6101208301886157f4565b615d2c6101608301876157f4565b615d3a6101a08301866157f4565b615d486101e08301856157f4565b615d566102208301846157f4565b9b9a5050505050505050505050565b6000604051905081810181811067ffffffffffffffff82111715615d8857600080fd5b8060405250919050565b600067ffffffffffffffff821115615da957600080fd5b602082029050602081019050919050565b600067ffffffffffffffff821115615dd157600080fd5b602082029050919050565b600067ffffffffffffffff821115615df357600080fd5b602082029050919050565b600067ffffffffffffffff821115615e1557600080fd5b601f19601f8301169050602081019050919050565b6000819050919050565b6000602082019050919050565b600060029050919050565b600081519050919050565b600081519050919050565b6000602082019050919050565b6000602082019050919050565b600081905092915050565b600082825260208201905092915050565b600082825260208201905092915050565b600082825260208201905092915050565b600081905092915050565b60008115159050919050565b6000819050919050565b60008115159050919050565b6000819050919050565b6000819050919050565b6000615f0682615ed1565b9050919050565b6000615f1882615ed1565b9050919050565b82818337600083830152505050565b60005b83811015615f4c578082015181840152602081019050615f31565b83811115615f5b576000848401525b50505050565b600081905091905056fea265627a7a72305820ed34fa75ce5148225d7f339474dd4db3159f3bed542cc65d2aa472ac052fc2066c6578706572696d656e74616cf50037",
  "source": "pragma solidity 0.5.4;\npragma experimental ABIEncoderV2;\n\nimport \"./Utils.sol\";\nimport \"./InnerProductVerifier.sol\";\n\ncontract ZetherVerifier {\n    using Utils for uint256;\n    using Utils for Utils.G1Point;\n\n    uint256 constant FIELD_ORDER = 21888242871839275222246405745257275088696311157297823662689037894645226208583;\n    uint256 constant UNITY = 9334303377689037989442018753807510978357674015322511348041267794643984346845; // primitive 2^28th root of unity modulo GROUP_ORDER (not field!)\n\n    InnerProductVerifier ip;\n\n    struct ZetherStatement {\n        Utils.G1Point[] CLn;\n        Utils.G1Point[] CRn;\n        Utils.G1Point[] C;\n        Utils.G1Point D;\n        Utils.G1Point[] y;\n        uint256 epoch;\n        Utils.G1Point u;\n    }\n\n    struct ZetherProof {\n        Utils.G1Point BA;\n        Utils.G1Point BS;\n        Utils.G1Point A;\n        Utils.G1Point B;\n        Utils.G1Point C;\n        Utils.G1Point D;\n        Utils.G1Point E;\n        Utils.G1Point F;\n\n        Utils.G1Point[] CLnG;\n        Utils.G1Point[] CRnG;\n        Utils.G1Point[] C_0G;\n        Utils.G1Point[] DG;\n        Utils.G1Point[] y_0G;\n        Utils.G1Point[] gG;\n        Utils.G1Point[] C_XG;\n        Utils.G1Point[] y_XG;\n\n        uint256[] f;\n        uint256 z_A;\n        uint256 z_C;\n        uint256 z_E;\n\n        Utils.G1Point CPrime;\n        Utils.G1Point DPrime;\n        Utils.G1Point CLnPrime;\n        Utils.G1Point CRnPrime;\n\n        Utils.G1Point[2] tCommits;\n        uint256 tHat;\n        uint256 tauX;\n        uint256 mu;\n\n        uint256 c;\n        uint256 s_sk;\n        uint256 s_r;\n        uint256 s_vTransfer;\n        uint256 s_vDiff;\n        uint256 s_nuTransfer;\n        uint256 s_nuDiff;\n\n        InnerProductVerifier.InnerProductProof ipProof;\n    }\n\n    constructor(address _ip) public {\n        ip = InnerProductVerifier(_ip);\n    }\n\n    function verifyTransfer(bytes32[2][] memory CLn, bytes32[2][] memory CRn, bytes32[2][] memory C, bytes32[2] memory D, bytes32[2][] memory y, uint256 epoch, bytes32[2] memory u, bytes memory proof) public view returns (bool) {\n        ZetherStatement memory statement;\n        uint256 size = y.length;\n\n        statement.CLn = new Utils.G1Point[](size);\n        statement.CRn = new Utils.G1Point[](size);\n        statement.C = new Utils.G1Point[](size);\n        statement.y = new Utils.G1Point[](size);\n        for (uint256 i = 0; i < size; i++) {\n            statement.CLn[i] = Utils.G1Point(uint256(CLn[i][0]), uint256(CLn[i][1]));\n            statement.CRn[i] = Utils.G1Point(uint256(CRn[i][0]), uint256(CRn[i][1]));\n            statement.C[i] = Utils.G1Point(uint256(C[i][0]), uint256(C[i][1]));\n            statement.y[i] = Utils.G1Point(uint256(y[i][0]), uint256(y[i][1]));\n        }\n        statement.D = Utils.G1Point(uint256(D[0]), uint256(D[1]));\n        statement.epoch = epoch;\n        statement.u = Utils.G1Point(uint256(u[0]), uint256(u[1]));\n        ZetherProof memory zetherProof = unserialize(proof);\n        return verify(statement, zetherProof);\n    }\n\n    struct ZetherAuxiliaries {\n        uint256 y;\n        uint256[64] ys;\n        uint256 z;\n        uint256[2] zs; // [z^2, z^3]\n        uint256[64] twoTimesZSquared;\n        uint256 zSum;\n        uint256 x;\n        uint256 t;\n        uint256 k;\n        Utils.G1Point tEval;\n    }\n\n    struct SigmaAuxiliaries {\n        uint256 c;\n        Utils.G1Point A_y;\n        Utils.G1Point A_D;\n        Utils.G1Point gEpoch;\n        Utils.G1Point A_u;\n        Utils.G1Point A_B;\n        Utils.G1Point A_X;\n        Utils.G1Point c_commit;\n        Utils.G1Point A_t;\n        Utils.G1Point A_C0;\n        Utils.G1Point A_CLn;\n        Utils.G1Point A_CPrime;\n        Utils.G1Point A_CLnPrime;\n    }\n\n    struct AnonAuxiliaries {\n        uint256 m;\n        uint256 N;\n        uint256 v;\n        uint256 w;\n        uint256 vPow;\n        uint256 wPow;\n        uint256[2][] f; // could just allocate extra space in the proof?\n        uint256[2][] r; // each poly is an array of length N. evaluations of prods\n        Utils.G1Point temp;\n        Utils.G1Point CLnR;\n        Utils.G1Point CRnR;\n        Utils.G1Point[2][] CR;\n        Utils.G1Point[2][] yR;\n        Utils.G1Point C_XR;\n        Utils.G1Point y_XR;\n        Utils.G1Point gR;\n        Utils.G1Point DR;\n    }\n\n    struct IPAuxiliaries {\n        Utils.G1Point P;\n        Utils.G1Point u_x;\n        Utils.G1Point[] hPrimes;\n        Utils.G1Point hPrimeSum;\n        uint256 o;\n    }\n\n    function gSum() internal pure returns (Utils.G1Point memory) {\n        return Utils.G1Point(0x00715f13ea08d6b51bedcde3599d8e12163e090921309d5aafc9b5bfaadbcda0, 0x27aceab598af7bf3d16ca9d40fe186c489382c21bb9d22b19cb3af8b751b959f);\n    }\n\n    function verify(ZetherStatement memory statement, ZetherProof memory proof) internal view returns (bool) {\n        uint256 statementHash = uint256(keccak256(abi.encode(statement.CLn, statement.CRn, statement.C, statement.D, statement.y, statement.epoch))).mod();\n\n        AnonAuxiliaries memory anonAuxiliaries;\n        anonAuxiliaries.v = uint256(keccak256(abi.encode(statementHash, proof.BA, proof.BS, proof.A, proof.B, proof.C, proof.D, proof.E, proof.F))).mod();\n        anonAuxiliaries.w = uint256(keccak256(abi.encode(anonAuxiliaries.v, proof.CLnG, proof.CRnG, proof.C_0G, proof.DG, proof.y_0G, proof.gG, proof.C_XG, proof.y_XG))).mod();\n        anonAuxiliaries.m = proof.f.length / 2;\n        anonAuxiliaries.N = 2 ** anonAuxiliaries.m;\n        anonAuxiliaries.f = new uint256[2][](2 * anonAuxiliaries.m);\n        for (uint256 k = 0; k < 2 * anonAuxiliaries.m; k++) {\n            anonAuxiliaries.f[k][1] = proof.f[k];\n            anonAuxiliaries.f[k][0] = anonAuxiliaries.w.sub(proof.f[k]);\n        }\n\n        for (uint256 k = 0; k < 2 * anonAuxiliaries.m; k++) {\n            anonAuxiliaries.temp = anonAuxiliaries.temp.add(ip.gs(k).mul(anonAuxiliaries.f[k][1]));\n        }\n        require(proof.B.mul(anonAuxiliaries.w).add(proof.A).eq(anonAuxiliaries.temp.add(ip.h().mul(proof.z_A))), \"Recovery failure for B^w * A.\");\n\n        anonAuxiliaries.temp = Utils.G1Point(0, 0);\n        for (uint256 k = 0; k < 2 * anonAuxiliaries.m; k++) {\n            anonAuxiliaries.temp = anonAuxiliaries.temp.add(ip.gs(k).mul(anonAuxiliaries.f[k][1].mul(anonAuxiliaries.w.sub(anonAuxiliaries.f[k][1]))));\n        }\n        require(proof.C.mul(anonAuxiliaries.w).add(proof.D).eq(anonAuxiliaries.temp.add(ip.h().mul(proof.z_C))), \"Recovery failure for C^w * D.\");\n\n        anonAuxiliaries.temp = ip.gs(0).mul(anonAuxiliaries.f[0][1].mul(anonAuxiliaries.f[anonAuxiliaries.m][1])).add(ip.gs(1).mul(anonAuxiliaries.f[0][0].mul(anonAuxiliaries.f[anonAuxiliaries.m][0])));\n        require(proof.F.mul(anonAuxiliaries.w).add(proof.E).eq(anonAuxiliaries.temp.add(ip.h().mul(proof.z_E))), \"Recovery failure for F^w * E.\");\n\n        anonAuxiliaries.r = assemblePolynomials(anonAuxiliaries.f);\n\n        anonAuxiliaries.CR = assembleConvolutions(anonAuxiliaries.r, statement.C);\n        anonAuxiliaries.yR = assembleConvolutions(anonAuxiliaries.r, statement.y);\n        for (uint256 i = 0; i < anonAuxiliaries.N; i++) {\n            anonAuxiliaries.CLnR = anonAuxiliaries.CLnR.add(statement.CLn[i].mul(anonAuxiliaries.r[i][0]));\n            anonAuxiliaries.CRnR = anonAuxiliaries.CRnR.add(statement.CRn[i].mul(anonAuxiliaries.r[i][0]));\n        }\n        anonAuxiliaries.vPow = 1;\n        for (uint256 i = 0; i < anonAuxiliaries.N; i++) {\n            anonAuxiliaries.C_XR = anonAuxiliaries.C_XR.add(anonAuxiliaries.CR[i / 2][i % 2].mul(anonAuxiliaries.vPow));\n            anonAuxiliaries.y_XR = anonAuxiliaries.y_XR.add(anonAuxiliaries.yR[i / 2][i % 2].mul(anonAuxiliaries.vPow));\n            if (i > 0) {\n                anonAuxiliaries.vPow = anonAuxiliaries.vPow.mul(anonAuxiliaries.v);\n            }\n        }\n        anonAuxiliaries.wPow = 1;\n        for (uint256 k = 0; k < anonAuxiliaries.m; k++) {\n            anonAuxiliaries.CLnR = anonAuxiliaries.CLnR.add(proof.CLnG[k].mul(anonAuxiliaries.wPow.neg()));\n            anonAuxiliaries.CRnR = anonAuxiliaries.CRnR.add(proof.CRnG[k].mul(anonAuxiliaries.wPow.neg()));\n            anonAuxiliaries.CR[0][0] = anonAuxiliaries.CR[0][0].add(proof.C_0G[k].mul(anonAuxiliaries.wPow.neg()));\n            anonAuxiliaries.DR = anonAuxiliaries.DR.add(proof.DG[k].mul(anonAuxiliaries.wPow.neg()));\n            anonAuxiliaries.yR[0][0] = anonAuxiliaries.yR[0][0].add(proof.y_0G[k].mul(anonAuxiliaries.wPow.neg()));\n            anonAuxiliaries.gR = anonAuxiliaries.gR.add(proof.gG[k].mul(anonAuxiliaries.wPow.neg()));\n            anonAuxiliaries.C_XR = anonAuxiliaries.C_XR.add(proof.C_XG[k].mul(anonAuxiliaries.wPow.neg()));\n            anonAuxiliaries.y_XR = anonAuxiliaries.y_XR.add(proof.y_XG[k].mul(anonAuxiliaries.wPow.neg()));\n\n            anonAuxiliaries.wPow = anonAuxiliaries.wPow.mul(anonAuxiliaries.w);\n        }\n        anonAuxiliaries.DR = anonAuxiliaries.DR.add(statement.D.mul(anonAuxiliaries.wPow));\n        anonAuxiliaries.gR = anonAuxiliaries.gR.add(ip.g().mul(anonAuxiliaries.wPow));\n\n        ZetherAuxiliaries memory zetherAuxiliaries;\n        zetherAuxiliaries.y = uint256(keccak256(abi.encode(anonAuxiliaries.w, proof.CPrime, proof.DPrime, proof.CLnPrime, proof.CRnPrime))).mod();\n        zetherAuxiliaries.ys[0] = 1;\n        zetherAuxiliaries.k = 1;\n        for (uint256 i = 1; i < 64; i++) {\n            zetherAuxiliaries.ys[i] = zetherAuxiliaries.ys[i - 1].mul(zetherAuxiliaries.y);\n            zetherAuxiliaries.k = zetherAuxiliaries.k.add(zetherAuxiliaries.ys[i]);\n        }\n        zetherAuxiliaries.z = uint256(keccak256(abi.encode(zetherAuxiliaries.y))).mod();\n        zetherAuxiliaries.zs = [zetherAuxiliaries.z.exp(2), zetherAuxiliaries.z.exp(3)];        \n        zetherAuxiliaries.zSum = zetherAuxiliaries.zs[0].add(zetherAuxiliaries.zs[1]).mul(zetherAuxiliaries.z);\n        zetherAuxiliaries.k = zetherAuxiliaries.k.mul(zetherAuxiliaries.z.sub(zetherAuxiliaries.zs[0])).sub(zetherAuxiliaries.zSum.mul(2 ** 32).sub(zetherAuxiliaries.zSum));\n        zetherAuxiliaries.t = proof.tHat.sub(zetherAuxiliaries.k);\n        for (uint256 i = 0; i < 32; i++) {\n            zetherAuxiliaries.twoTimesZSquared[i] = zetherAuxiliaries.zs[0].mul(2 ** i);\n            zetherAuxiliaries.twoTimesZSquared[i + 32] = zetherAuxiliaries.zs[1].mul(2 ** i);\n        }\n\n        zetherAuxiliaries.x = uint256(keccak256(abi.encode(zetherAuxiliaries.z, proof.tCommits))).mod();\n        zetherAuxiliaries.tEval = proof.tCommits[0].mul(zetherAuxiliaries.x).add(proof.tCommits[1].mul(zetherAuxiliaries.x.mul(zetherAuxiliaries.x))); // replace with \"commit\"?\n\n        SigmaAuxiliaries memory sigmaAuxiliaries;\n        sigmaAuxiliaries.A_y = anonAuxiliaries.gR.mul(proof.s_sk).add(anonAuxiliaries.yR[0][0].mul(proof.c.neg()));\n        sigmaAuxiliaries.A_D = ip.g().mul(proof.s_r).add(statement.D.mul(proof.c.neg())); // add(mul(anonAuxiliaries.gR, proof.s_r), mul(anonAuxiliaries.DR, proof.c.neg()));\n        sigmaAuxiliaries.gEpoch = Utils.mapInto(\"Zether\", statement.epoch);\n        sigmaAuxiliaries.A_u = sigmaAuxiliaries.gEpoch.mul(proof.s_sk).add(statement.u.mul(proof.c.neg()));\n        sigmaAuxiliaries.A_X = anonAuxiliaries.y_XR.mul(proof.s_r).add(anonAuxiliaries.C_XR.mul(proof.c.neg()));\n        sigmaAuxiliaries.c_commit = anonAuxiliaries.DR.add(proof.DPrime).mul(proof.s_sk).add(anonAuxiliaries.CR[0][0].add(proof.CPrime).mul(proof.c.neg())).mul(zetherAuxiliaries.zs[0]).add(anonAuxiliaries.CRnR.add(proof.CRnPrime).mul(proof.s_sk).add(anonAuxiliaries.CLnR.add(proof.CLnPrime).mul(proof.c.neg())).mul(zetherAuxiliaries.zs[1]));\n        sigmaAuxiliaries.A_t = ip.g().mul(zetherAuxiliaries.t).add(ip.h().mul(proof.tauX)).add(zetherAuxiliaries.tEval.neg()).mul(proof.c.mul(anonAuxiliaries.wPow)).add(sigmaAuxiliaries.c_commit);\n        sigmaAuxiliaries.A_C0 = ip.g().mul(proof.s_vTransfer).add(anonAuxiliaries.DR.mul(proof.s_sk).add(anonAuxiliaries.CR[0][0].mul(proof.c.neg())));\n        sigmaAuxiliaries.A_CLn = ip.g().mul(proof.s_vDiff).add(anonAuxiliaries.CRnR.mul(proof.s_sk).add(anonAuxiliaries.CLnR.mul(proof.c.neg())));\n        sigmaAuxiliaries.A_CPrime = ip.h().mul(proof.s_nuTransfer).add(proof.DPrime.mul(proof.s_sk).add(proof.CPrime.mul(proof.c.neg())));\n        sigmaAuxiliaries.A_CLnPrime = ip.h().mul(proof.s_nuDiff).add(proof.CRnPrime.mul(proof.s_sk).add(proof.CLnPrime.mul(proof.c.neg())));\n\n        sigmaAuxiliaries.c = uint256(keccak256(abi.encode(zetherAuxiliaries.x, sigmaAuxiliaries.A_y, sigmaAuxiliaries.A_D, sigmaAuxiliaries.A_u, sigmaAuxiliaries.A_X, sigmaAuxiliaries.A_t, sigmaAuxiliaries.A_C0, sigmaAuxiliaries.A_CLn, sigmaAuxiliaries.A_CPrime, sigmaAuxiliaries.A_CLnPrime))).mod();\n        require(sigmaAuxiliaries.c == proof.c, \"Sigma protocol challenge equality failure.\");\n\n        IPAuxiliaries memory ipAuxiliaries;\n        ipAuxiliaries.o = uint256(keccak256(abi.encode(sigmaAuxiliaries.c))).mod();\n        ipAuxiliaries.u_x = ip.g().mul(ipAuxiliaries.o);\n        ipAuxiliaries.hPrimes = new Utils.G1Point[](64);\n        for (uint256 i = 0; i < 64; i++) {\n            ipAuxiliaries.hPrimes[i] = ip.hs(i).mul(zetherAuxiliaries.ys[i].inv());\n            ipAuxiliaries.hPrimeSum = ipAuxiliaries.hPrimeSum.add(ipAuxiliaries.hPrimes[i].mul(zetherAuxiliaries.ys[i].mul(zetherAuxiliaries.z).add(zetherAuxiliaries.twoTimesZSquared[i])));\n        }\n        ipAuxiliaries.P = proof.BA.add(proof.BS.mul(zetherAuxiliaries.x)).add(gSum().mul(zetherAuxiliaries.z.neg())).add(ipAuxiliaries.hPrimeSum);\n        ipAuxiliaries.P = ipAuxiliaries.P.add(ip.h().mul(proof.mu.neg()));\n        ipAuxiliaries.P = ipAuxiliaries.P.add(ipAuxiliaries.u_x.mul(proof.tHat));\n        require(ip.verifyInnerProduct(ipAuxiliaries.hPrimes, ipAuxiliaries.u_x, ipAuxiliaries.P, proof.ipProof, ipAuxiliaries.o), \"Inner product proof verification failed.\");\n\n        return true;\n    }\n\n    function assemblePolynomials(uint256[2][] memory f) internal view returns (uint256[2][] memory result) {\n        uint256 m = f.length / 2;\n        uint256 N = 2 ** m;\n        result = new uint256[2][](N);\n        for (uint256 i = 0; i < 2; i++) {\n            uint256[] memory half = recursivePolynomials(i * m, (i + 1) * m, 1, f);\n            for (uint256 j = 0; j < N; j++) {\n                result[j][i] = half[j];\n            }\n        }\n    }\n\n    function recursivePolynomials(uint256 baseline, uint256 current, uint256 accum, uint256[2][] memory f) internal view returns (uint256[] memory result) {\n        // have to do a bunch of re-allocating because solidity won't let me have something which is internal and also modifies (internal) state. (?)\n        uint256 size = 2 ** (current - baseline); // size is at least 2...\n        result = new uint256[](size);\n\n        if (current == baseline) {\n            result[0] = accum;\n            return result;\n        }\n        current = current - 1;\n\n        uint256[] memory left = recursivePolynomials(baseline, current, accum.mul(f[current][0]), f);\n        uint256[] memory right = recursivePolynomials(baseline, current, accum.mul(f[current][1]), f);\n        for (uint256 i = 0; i < size / 2; i++) {\n            result[i] = left[i];\n            result[i + size / 2] = right[i];\n        }\n    }\n\n    function assembleConvolutions(uint256[2][] memory exponent, Utils.G1Point[] memory base) internal view returns (Utils.G1Point[2][] memory result) {\n        // exponent is two \"rows\" (actually columns).\n        // will return two rows, each of half the length of the exponents;\n        // namely, we will return the Hadamards of \"base\" by the even circular shifts of \"exponent\"'s rows.\n        uint256 size = exponent.length;\n        uint256 half = size / 2;\n        result = new Utils.G1Point[2][](half); // assuming that this is necessary even when return is declared up top\n\n        Utils.G1Point[] memory base_fft = fft(base, false);\n\n        uint256[] memory exponent_fft = new uint256[](size);\n        for (uint256 i = 0; i < 2; i++) {\n            for (uint256 j = 0; j < size; j++) {\n                exponent_fft[j] = exponent[(size - j) % size][i]; // convolutional flip plus copy\n            }\n\n            exponent_fft = fft(exponent_fft);\n            Utils.G1Point[] memory inverse_fft = new Utils.G1Point[](half);\n            uint256 compensation = 2;\n            compensation = compensation.inv();\n            for (uint256 j = 0; j < half; j++) { // Hadamard\n                inverse_fft[j] = base_fft[j].mul(exponent_fft[j]).add(base_fft[j + half].mul(exponent_fft[j + half])).mul(compensation);\n            }\n\n            inverse_fft = fft(inverse_fft, true);\n            for (uint256 j = 0; j < half; j++) {\n                result[j][i] = inverse_fft[j];\n            }\n        }\n    }\n\n    function fft(Utils.G1Point[] memory input, bool inverse) internal view returns (Utils.G1Point[] memory result) {\n        uint256 size = input.length;\n        if (size == 1) {\n            return input;\n        }\n        require(size % 2 == 0, \"Input size is not a power of 2!\");\n\n        uint256 omega = UNITY.exp(2**28 / size);\n        uint256 compensation = 1;\n        if (inverse) {\n            omega = omega.inv();\n            compensation = 2;\n        }\n        compensation = compensation.inv();\n        Utils.G1Point[] memory even = fft(extract(input, 0), inverse);\n        Utils.G1Point[] memory odd = fft(extract(input, 1), inverse);\n        uint256 omega_run = 1;\n        result = new Utils.G1Point[](size);\n        for (uint256 i = 0; i < size / 2; i++) {\n            Utils.G1Point memory temp = odd[i].mul(omega_run);\n            result[i] = even[i].add(temp).mul(compensation);\n            result[i + size / 2] = even[i].add(temp.neg()).mul(compensation);\n            omega_run = omega_run.mul(omega);\n        }\n    }\n\n    function extract(Utils.G1Point[] memory input, uint256 parity) internal pure returns (Utils.G1Point[] memory result) {\n        result = new Utils.G1Point[](input.length / 2);\n        for (uint256 i = 0; i < input.length / 2; i++) {\n            result[i] = input[2 * i + parity];\n        }\n    }\n\n    function fft(uint256[] memory input) internal view returns (uint256[] memory result) {\n        uint256 size = input.length;\n        if (size == 1) {\n            return input;\n        }\n        require(size % 2 == 0, \"Input size is not a power of 2!\");\n\n        uint256 omega = UNITY.exp(2**28 / size);\n        uint256[] memory even = fft(extract(input, 0));\n        uint256[] memory odd = fft(extract(input, 1));\n        uint256 omega_run = 1;\n        result = new uint256[](size);\n        for (uint256 i = 0; i < size / 2; i++) {\n            uint256 temp = odd[i].mul(omega_run);\n            result[i] = even[i].add(temp);\n            result[i + size / 2] = even[i].sub(temp);\n            omega_run = omega_run.mul(omega);\n        }\n    }\n\n    function extract(uint256[] memory input, uint256 parity) internal pure returns (uint256[] memory result) {\n        result = new uint256[](input.length / 2);\n        for (uint256 i = 0; i < input.length / 2; i++) {\n            result[i] = input[2 * i + parity];\n        }\n    }\n\n    function unserialize(bytes memory arr) internal pure returns (ZetherProof memory proof) {\n        proof.BA = Utils.G1Point(Utils.slice(arr, 0), Utils.slice(arr, 32));\n        proof.BS = Utils.G1Point(Utils.slice(arr, 64), Utils.slice(arr, 96));\n        proof.A = Utils.G1Point(Utils.slice(arr, 128), Utils.slice(arr, 160));\n        proof.B = Utils.G1Point(Utils.slice(arr, 192), Utils.slice(arr, 224));\n        proof.C = Utils.G1Point(Utils.slice(arr, 256), Utils.slice(arr, 288));\n        proof.D = Utils.G1Point(Utils.slice(arr, 320), Utils.slice(arr, 352));\n        proof.E = Utils.G1Point(Utils.slice(arr, 384), Utils.slice(arr, 416));\n        proof.F = Utils.G1Point(Utils.slice(arr, 448), Utils.slice(arr, 480));\n\n        uint256 m = (arr.length - 2144) / 576;\n        proof.CLnG = new Utils.G1Point[](m);\n        proof.CRnG = new Utils.G1Point[](m);\n        proof.C_0G = new Utils.G1Point[](m);\n        proof.DG = new Utils.G1Point[](m);\n        proof.y_0G = new Utils.G1Point[](m);\n        proof.gG = new Utils.G1Point[](m);\n        proof.C_XG = new Utils.G1Point[](m);\n        proof.y_XG = new Utils.G1Point[](m);\n        proof.f = new uint256[](2 * m);\n        for (uint256 k = 0; k < m; k++) {\n            proof.CLnG[k] = Utils.G1Point(Utils.slice(arr, 512 + k * 64), Utils.slice(arr, 544 + k * 64));\n            proof.CRnG[k] = Utils.G1Point(Utils.slice(arr, 512 + (m + k) * 64), Utils.slice(arr, 544 + (m + k) * 64));\n            proof.C_0G[k] = Utils.G1Point(Utils.slice(arr, 512 + m * 128 + k * 64), Utils.slice(arr, 544 + m * 128 + k * 64));\n            proof.DG[k] = Utils.G1Point(Utils.slice(arr, 512 + m * 192 + k * 64), Utils.slice(arr, 544 + m * 192 + k * 64));\n            proof.y_0G[k] = Utils.G1Point(Utils.slice(arr, 512 + m * 256 + k * 64), Utils.slice(arr, 544 + m * 256 + k * 64));\n            proof.gG[k] = Utils.G1Point(Utils.slice(arr, 512 + m * 320 + k * 64), Utils.slice(arr, 544 + m * 320 + k * 64));\n            proof.C_XG[k] = Utils.G1Point(Utils.slice(arr, 512 + m * 384 + k * 64), Utils.slice(arr, 544 + m * 384 + k * 64));\n            proof.y_XG[k] = Utils.G1Point(Utils.slice(arr, 512 + m * 448 + k * 64), Utils.slice(arr, 544 + m * 448 + k * 64));\n            proof.f[k] = Utils.slice(arr, 512 + m * 512 + k * 32);\n            proof.f[k + m] = Utils.slice(arr, 512 + m * 544 + k * 32);\n        }\n        uint256 starting = m * 576;\n        proof.z_A = Utils.slice(arr, 512 + starting);\n        proof.z_C = Utils.slice(arr, 544 + starting);\n        proof.z_E = Utils.slice(arr, 576 + starting);\n\n        proof.CPrime = Utils.G1Point(Utils.slice(arr, 608 + starting), Utils.slice(arr, 640 + starting));\n        proof.DPrime = Utils.G1Point(Utils.slice(arr, 672 + starting), Utils.slice(arr, 704 + starting));\n        proof.CLnPrime = Utils.G1Point(Utils.slice(arr, 736 + starting), Utils.slice(arr, 768 + starting));\n        proof.CRnPrime = Utils.G1Point(Utils.slice(arr, 800 + starting), Utils.slice(arr, 832 + starting));\n\n        proof.tCommits = [Utils.G1Point(Utils.slice(arr, 864 + starting), Utils.slice(arr, 896 + starting)), Utils.G1Point(Utils.slice(arr, 928 + starting), Utils.slice(arr, 960 + starting))];\n        proof.tHat = Utils.slice(arr, 992 + starting);\n        proof.tauX = Utils.slice(arr, 1024 + starting);\n        proof.mu = Utils.slice(arr, 1056 + starting);\n\n        proof.c = Utils.slice(arr, 1088 + starting);\n        proof.s_sk = Utils.slice(arr, 1120 + starting);\n        proof.s_r = Utils.slice(arr, 1152 + starting);\n        proof.s_vTransfer = Utils.slice(arr, 1184 + starting);\n        proof.s_vDiff = Utils.slice(arr, 1216 + starting);\n        proof.s_nuTransfer = Utils.slice(arr, 1248 + starting);\n        proof.s_nuDiff = Utils.slice(arr, 1280 + starting);\n\n        InnerProductVerifier.InnerProductProof memory ipProof;\n        ipProof.ls = new Utils.G1Point[](6);\n        ipProof.rs = new Utils.G1Point[](6);\n        for (uint256 i = 0; i < 6; i++) { // 2^6 = 64.\n            ipProof.ls[i] = Utils.G1Point(Utils.slice(arr, 1312 + starting + i * 64), Utils.slice(arr, 1344 + starting + i * 64));\n            ipProof.rs[i] = Utils.G1Point(Utils.slice(arr, 1312 + starting + (6 + i) * 64), Utils.slice(arr, 1344 + starting + (6 + i) * 64));\n        }\n        ipProof.a = Utils.slice(arr, 1312 + starting + 6 * 128);\n        ipProof.b = Utils.slice(arr, 1344 + starting + 6 * 128);\n        proof.ipProof = ipProof;\n\n        return proof;\n    }\n}\n",
  "sourcePath": "/Users/benediamond/anonymous-zether/packages/protocol/contracts/ZetherVerifier.sol",
  "compiler": {
    "name": "solc",
    "version": "0.5.4+commit.9549d8ff.Emscripten.clang"
  },
  "schemaVersion": "3.0.19",
  "updatedAt": "2020-01-11T00:58:17.546Z",
  "devdoc": {
    "methods": {}
  },
  "userdoc": {
    "methods": {}
  }
}