{
  "contractName": "ZetherVerifier",
  "abi": [
    {
      "inputs": [],
      "payable": false,
      "stateMutability": "nonpayable",
      "type": "constructor"
    },
    {
      "constant": true,
      "inputs": [
        {
          "name": "CLn",
          "type": "bytes32[2][]"
        },
        {
          "name": "CRn",
          "type": "bytes32[2][]"
        },
        {
          "name": "L",
          "type": "bytes32[2][]"
        },
        {
          "name": "R",
          "type": "bytes32[2]"
        },
        {
          "name": "y",
          "type": "bytes32[2][]"
        },
        {
          "name": "epoch",
          "type": "uint256"
        },
        {
          "name": "u",
          "type": "bytes32[2]"
        },
        {
          "name": "proof",
          "type": "bytes"
        }
      ],
      "name": "baseSize",
      "outputs": [
        {
          "name": "size",
          "type": "uint256"
        }
      ],
      "payable": false,
      "stateMutability": "view",
      "type": "function"
    },
    {
      "constant": false,
      "inputs": [
        {
          "name": "size",
          "type": "uint256"
        },
        {
          "name": "CRn",
          "type": "bytes32[2][]"
        },
        {
          "name": "L",
          "type": "bytes32[2][]"
        },
        {
          "name": "R",
          "type": "bytes32[2]"
        },
        {
          "name": "y",
          "type": "bytes32[2][]"
        },
        {
          "name": "epoch",
          "type": "uint256"
        },
        {
          "name": "u",
          "type": "bytes32[2]"
        },
        {
          "name": "proof",
          "type": "bytes"
        }
      ],
      "name": "extendBase",
      "outputs": [
        {
          "name": "",
          "type": "bool"
        }
      ],
      "payable": true,
      "stateMutability": "payable",
      "type": "function"
    },
    {
      "constant": true,
      "inputs": [
        {
          "name": "CLn",
          "type": "bytes32[2][]"
        },
        {
          "name": "CRn",
          "type": "bytes32[2][]"
        },
        {
          "name": "C",
          "type": "bytes32[2][]"
        },
        {
          "name": "D",
          "type": "bytes32[2]"
        },
        {
          "name": "y",
          "type": "bytes32[2][]"
        },
        {
          "name": "epoch",
          "type": "uint256"
        },
        {
          "name": "u",
          "type": "bytes32[2]"
        },
        {
          "name": "proof",
          "type": "bytes"
        }
      ],
      "name": "verifyTransfer",
      "outputs": [
        {
          "name": "",
          "type": "bool"
        }
      ],
      "payable": false,
      "stateMutability": "view",
      "type": "function"
    }
  ],
  "bytecode": "0x60806040526200001f60026200025d640100000000026401000000009004565b6006906040620000319291906200059b565b503480156200003f57600080fd5b506200008f6040805190810160405280600181526020017f470000000000000000000000000000000000000000000000000000000000000081525062000312640100000000026401000000009004565b60026000820151816000015560208201518160010155905050620000f76040805190810160405280600181526020017f560000000000000000000000000000000000000000000000000000000000000081525062000312640100000000026401000000009004565b6004600082015181600001556020820151816001015590505060008090505b604081101562000256576000620001726040805190810160405280600181526020017f47000000000000000000000000000000000000000000000000000000000000008152508362000395640100000000026401000000009004565b9080600181540180825580915050906001820390600052602060002090600202016000909192909190915060008201518160000155602082015181600101555050506001620002066040805190810160405280600181526020017f48000000000000000000000000000000000000000000000000000000000000008152508362000395640100000000026401000000009004565b908060018154018082558091505090600182039060005260206000209060020201600090919290919091506000820151816000015560208201518160010155505050808060010191505062000116565b506200073d565b62000267620005e0565b60018160006040811015156200027957fe5b602002018181525050818160016040811015156200029357fe5b6020020181815250506000600290505b60408110156200030c57620002e6838360018403604081101515620002c457fe5b60200201516200041b6401000000000262003599179091906401000000009004565b8282604081101515620002f557fe5b6020020181815250508080600101915050620002a3565b50919050565b6200031c62000604565b6200038e7f30644e72e131a029b85045b68181585d97816a916871ca8d3c208c16d87cfd478360405160200162000354919062000698565b60405160208183030381529060405280519060200120600190048115156200037857fe5b0662000453640100000000026401000000009004565b9050919050565b6200039f62000604565b620004137f30644e72e131a029b85045b68181585d97816a916871ca8d3c208c16d87cfd478484604051602001620003d9929190620006b1565b6040516020818303038152906040528051906020012060019004811515620003fd57fe5b0662000453640100000000026401000000009004565b905092915050565b60007f30644e72e131a029b85045b68181585d2833e84879b9709143e1f593f00000018015156200044857fe5b828409905092915050565b6200045d62000604565b60005b600115620005105760006003620004888560036200052d640100000000026401000000009004565b019050620004d681600460017f30644e72e131a029b85045b68181585d97816a916871ca8d3c208c16d87cfd4701811515620004c057fe5b046200052d640100000000026401000000009004565b915080620004f58360026200052d640100000000026401000000009004565b141562000503575062000510565b6001840193505062000460565b604080519081016040528084815260200182815250915050919050565b6000807f30644e72e131a029b85045b68181585d97816a916871ca8d3c208c16d87cfd47905060405160208152602080820152602060408201528460608201528360808201528160a082015260208160c08360055afa15156200058f57600080fd5b80519250505092915050565b8260408101928215620005cd579160200282015b82811115620005cc578251825591602001919060010190620005af565b5b509050620005dc91906200061e565b5090565b61080060405190810160405280604090602082028038833980820191505090505090565b604080519081016040528060008152602001600081525090565b6200064391905b808211156200063f57600081600090555060010162000625565b5090565b90565b60006200065382620006dd565b6200065f8185620006e8565b935062000671818560208601620006fd565b80840191505092915050565b620006926200068c82620006f3565b62000733565b82525050565b6000620006a6828462000646565b915081905092915050565b6000620006bf828562000646565b9150620006cd82846200067d565b6020820191508190509392505050565b600081519050919050565b600081905092915050565b6000819050919050565b60005b838110156200071d57808201518184015260208101905062000700565b838111156200072d576000848401525b50505050565b6000819050919050565b61588e806200074d6000396000f3fe608060405260043610610051576000357c0100000000000000000000000000000000000000000000000000000000900480631659e67d146100565780634e8ee0e214610093578063a00547ab146100be575b600080fd5b34801561006257600080fd5b5061007d60048036036100789190810190614bf3565b6100da565b60405161008a91906152f4565b60405180910390f35b34801561009f57600080fd5b506100a861056a565b6040516100b591906153ef565b60405180910390f35b6100d860048036036100d39190810190614d1e565b610576565b005b60006100e46143ef565b6000865190508060008054905010151515610134576040517f08c379a000000000000000000000000000000000000000000000000000000000815260040161012b9061534f565b60405180910390fd5b8060405190808252806020026020018201604052801561016e57816020015b61015b61443a565b8152602001906001900390816101535790505b508260000181905250806040519080825280602002602001820160405280156101b157816020015b61019e61443a565b8152602001906001900390816101965790505b508260200181905250806040519080825280602002602001820160405280156101f457816020015b6101e161443a565b8152602001906001900390816101d95790505b5082604001819052508060405190808252806020026020018201604052801561023757816020015b61022461443a565b81526020019060019003908161021c5790505b50826080018190525060008090505b8181101561049b5760408051908101604052808d8381518110151561026757fe5b90602001906020020151600060028110151561027f57fe5b60200201516001900481526020018d8381518110151561029b57fe5b9060200190602002015160016002811015156102b357fe5b6020020151600190048152508360000151828151811015156102d157fe5b9060200190602002018190525060408051908101604052808c838151811015156102f757fe5b90602001906020020151600060028110151561030f57fe5b60200201516001900481526020018c8381518110151561032b57fe5b90602001906020020151600160028110151561034357fe5b60200201516001900481525083602001518281518110151561036157fe5b9060200190602002018190525060408051908101604052808b8381518110151561038757fe5b90602001906020020151600060028110151561039f57fe5b60200201516001900481526020018b838151811015156103bb57fe5b9060200190602002015160016002811015156103d357fe5b6020020151600190048152508360400151828151811015156103f157fe5b906020019060200201819052506040805190810160405280898381518110151561041757fe5b90602001906020020151600060028110151561042f57fe5b6020020151600190048152602001898381518110151561044b57fe5b90602001906020020151600160028110151561046357fe5b60200201516001900481525083608001518281518110151561048157fe5b906020019060200201819052508080600101915050610246565b5060408051908101604052808960006002811015156104b657fe5b60200201516001900481526020018960016002811015156104d357fe5b6020020151600190048152508260600181905250858260a0018181525050604080519081016040528086600060028110151561050b57fe5b602002015160019004815260200186600160028110151561052857fe5b6020020151600190048152508260c00181905250610544614454565b61054d8561069f565b9050610559838261106b565b935050505098975050505050505050565b60008080549050905090565b6000808054905090505b8181101561069b5760006105c96040805190810160405280600181526020017f4700000000000000000000000000000000000000000000000000000000000000815250836133f2565b908060018154018082558091505090600182039060005260206000209060020201600090919290919091506000820151816000015560208201518160010155505050600161064c6040805190810160405280600181526020017f4800000000000000000000000000000000000000000000000000000000000000815250836133f2565b9080600181540180825580915050906001820390600052602060002090600202016000909192909190915060008201518160000155602082015181600101555050508080600101915050610580565b5050565b6106a7614454565b60408051908101604052806106bd846000613462565b81526020016106cd846020613462565b815250816000018190525060408051908101604052806106ee846040613462565b81526020016106fe846060613462565b8152508160200181905250604080519081016040528061071f846080613462565b815260200161072f8460a0613462565b815250816040018190525060408051908101604052806107508460c0613462565b81526020016107608460e0613462565b8152508160600181905250604080519081016040528061078284610100613462565b815260200161079384610120613462565b815250816080018190525060408051908101604052806107b584610140613462565b81526020016107c684610160613462565b8152508160a0018190525060408051908101604052806107e884610180613462565b81526020016107f9846101a0613462565b8152508160c00181905250604080519081016040528061081b846101c0613462565b815260200161082c846101e0613462565b8152508160e00181905250604080519081016040528061084e84610200613462565b815260200161085f84610220613462565b815250816101000181905250604080519081016040528061088284610240613462565b815260200161089384610260613462565b815250816101200181905250600060c06109208451038115156108b257fe5b0490506002818115156108c157fe5b046040519080825280602002602001820160405280156108fb57816020015b6108e86145bc565b8152602001906001900390816108e05790505b5082610140018190525060028181151561091157fe5b0460405190808252806020026020018201604052801561094b57816020015b6109386145bc565b8152602001906001900390816109305790505b5082610160018190525060008090505b60028281151561096757fe5b04811015610b3a57604080519081016040528061098b866040850261028001613462565b81526020016109a186604085026102a001613462565b815250836101400151828151811015156109b757fe5b9060200190602002015160006002811015156109cf57fe5b602002018190525060408051908101604052806109f88660408502602087026102800101613462565b8152602001610a138660408502602087026102a00101613462565b81525083610140015182815181101515610a2957fe5b906020019060200201516001600281101515610a4157fe5b60200201819052506040805190810160405280610a6a8660408502604087026102800101613462565b8152602001610a858660408502604087026102a00101613462565b81525083610160015182815181101515610a9b57fe5b906020019060200201516000600281101515610ab357fe5b60200201819052506040805190810160405280610adc8660408502606087026102800101613462565b8152602001610af78660408502606087026102a00101613462565b81525083610160015182815181101515610b0d57fe5b906020019060200201516001600281101515610b2557fe5b6020020181905250808060010191505061095b565b506040805190810160405280610b57856080850261028001613462565b8152602001610b6d85608085026102a001613462565b8152508261018001819052506040805190810160405280610b9585608085026102c001613462565b8152602001610bab85608085026102e001613462565b815250826101a0018190525060018103604051908082528060200260200182016040528015610bf457816020015b610be16145ea565b815260200190600190039081610bd95790505b50826101c0018190525060008090505b60018203811015610cb057610c258460208302608085026103000101613462565b836101c0015182815181101515610c3857fe5b906020019060200201516000600281101515610c5057fe5b602002018181525050610c6f846020830260a085026102e00101613462565b836101c0015182815181101515610c8257fe5b906020019060200201516001600281101515610c9a57fe5b6020020181815250508080600101915050610c04565b50600060c082029050610cc784826102c001613462565b836101e0018181525050610cdf84826102e001613462565b83610200018181525050610cf7848261030001613462565b836102200181815250506040805190810160405280610d1a868461032001613462565b8152602001610d2d868461034001613462565b8152508361024001819052506040805190810160405280610d52868461036001613462565b8152602001610d65868461038001613462565b8152508361026001819052506040805190810160405280610d8a86846103a001613462565b8152602001610d9d86846103c001613462565b8152508361028001819052506040805190810160405280610dc286846103e001613462565b8152602001610dd5868461040001613462565b815250836102a0018190525060408051908101604052806040805190810160405280610e05888661042001613462565b8152602001610e18888661044001613462565b81525081526020016040805190810160405280610e39888661046001613462565b8152602001610e4c888661048001613462565b815250815250836102c00181905250610e6984826104a001613462565b836102e0018181525050610e8184826104c001613462565b83610300018181525050610e9984826104e001613462565b83610320018181525050610eb1848261050001613462565b83610340018181525050610ec9848261052001613462565b83610360018181525050610ee1848261054001613462565b83610380018181525050610ef9848261056001613462565b836103a0018181525050610f11848261058001613462565b836103c0018181525050610f2984826105a001613462565b836103e0018181525050610f4184826105c001613462565b83610400018181525050610f5361460c565b60008090505b600681101561101b576040805190810160405280610f808860408502876105e00101613462565b8152602001610f988860408502876106000101613462565b815250826000015182600681101515610fad57fe5b60200201819052506040805190810160405280610fd68860408560060102876105e00101613462565b8152602001610ff18860408560060102876106000101613462565b81525082602001518260068110151561100657fe5b60200201819052508080600101915050610f59565b50611030856080600602846105e00101613462565b81604001818152505061104d856080600602846106000101613462565b81606001818152505080846104200181905250839350505050919050565b6000806110c3846000015185602001518660400151876060015188608001518960a001516040516020016110a496959493929190615277565b604051602081830303815290604052805190602001206001900461347b565b90506110cd614642565b6110d56146c1565b60c0604051908101604052808660400151815260200186606001518152602001866080015181526020018660a0015181526020018660c0015181526020018660e0015181525090506111888386600001518760200151848961010001518a61012001518b61014001518c61016001518d61018001518e6101a001516040516020016111699a9998979695949392919061546a565b604051602081830303815290604052805190602001206001900461347b565b8260200181815250506001856101c00151510182600001818152505081600001516040519080825280602002602001820160405280156111e257816020015b6111cf6145ea565b8152602001906001900390816111c75790505b50826040018190525081602001518260400151600081518110151561120357fe5b90602001906020020151600060028110151561121b57fe5b60200201818152505081602001518260400151600081518110151561123c57fe5b90602001906020020151600160028110151561125457fe5b6020020181815250506000600190505b826000015181101561149157856101c001516001820381518110151561128657fe5b90602001906020020151600060028110151561129e57fe5b60200201518360400151828151811015156112b557fe5b9060200190602002015160006002811015156112cd57fe5b602002018181525050856101c00151600182038151811015156112ec57fe5b90602001906020020151600160028110151561130457fe5b602002015183604001518281518110151561131b57fe5b90602001906020020151600160028110151561133357fe5b6020020181815250506113ac83604001518281518110151561135157fe5b90602001906020020151600060028110151561136957fe5b60200201518460400151600081518110151561138157fe5b90602001906020020151600060028110151561139957fe5b60200201516134b090919063ffffffff16565b836040015160008151811015156113bf57fe5b9060200190602002015160006002811015156113d757fe5b6020020181815250506114508360400151828151811015156113f557fe5b90602001906020020151600160028110151561140d57fe5b60200201518460400151600081518110151561142557fe5b90602001906020020151600160028110151561143d57fe5b60200201516134b090919063ffffffff16565b8360400151600081518110151561146357fe5b90602001906020020151600160028110151561147b57fe5b6020020181815250508080600101915050611264565b5060008090505b82600001518110156115c157611524836060015161151f6000848154811015156114be57fe5b9060005260206000209060020201604080519081016040529081600082015481526020016001820154815250508660400151858151811015156114fd57fe5b90602001906020020151600060028110151561151557fe5b60200201516134f0565b61352b565b83606001819052506115ac83606001516115a760018481548110151561154657fe5b90600052602060002090600202016040805190810160405290816000820154815260200160018201548152505086604001518581518110151561158557fe5b90602001906020020151600160028110151561159d57fe5b60200201516134f0565b61352b565b83606001819052508080600101915050611498565b506116256115e46115da876060015185602001516134f0565b876040015161352b565b611620846060015161161b6004604080519081016040529081600082015481526020016001820154815250508a6101e001516134f0565b61352b565b613571565b1515611666576040517f08c379a000000000000000000000000000000000000000000000000000000000815260040161165d9061538f565b60405180910390fd5b6040805190810160405280600081526020016000815250826060018190525060008090505b82600001518110156118605761176d83606001516117686000848154811015156116b157fe5b9060005260206000209060020201604080519081016040529081600082015481526020016001820154815250506117636117268860400151878151811015156116f657fe5b90602001906020020151600060028110151561170e57fe5b602002015189602001516134b090919063ffffffff16565b88604001518781518110151561173857fe5b90602001906020020151600060028110151561175057fe5b602002015161359990919063ffffffff16565b6134f0565b61352b565b836060018190525061184b836060015161184660018481548110151561178f57fe5b9060005260206000209060020201604080519081016040529081600082015481526020016001820154815250506118416118048860400151878151811015156117d457fe5b9060200190602002015160016002811015156117ec57fe5b602002015189602001516134b090919063ffffffff16565b88604001518781518110151561181657fe5b90602001906020020151600160028110151561182e57fe5b602002015161359990919063ffffffff16565b6134f0565b61352b565b8360600181905250808060010191505061168b565b506118c4611883611879876080015185602001516134f0565b8760a0015161352b565b6118bf84606001516118ba6004604080519081016040529081600082015481526020016001820154815250508a61020001516134f0565b61352b565b613571565b1515611905576040517f08c379a00000000000000000000000000000000000000000000000000000000081526004016118fc9061536f565b60405180910390fd5b60008090505b82600001518110156119f4576119778360a0015161197289600001518481518110151561193457fe5b9060200190602002015186604001518581518110151561195057fe5b90602001906020020151600060028110151561196857fe5b60200201516134f0565b61352b565b8360a001819052506119df8360c001516119da89602001518481518110151561199c57fe5b906020019060200201518660400151858151811015156119b857fe5b9060200190602002015160006002811015156119d057fe5b60200201516134f0565b61352b565b8360c00181905250808060010191505061190b565b50611a108260a00151611a0b8761010001516135d0565b61352b565b8260a00181905250611a338260c00151611a2e8761012001516135d0565b61352b565b8260c00181905250611a4d82604001518760400151613649565b826101000181905250611a6882604001518760800151613649565b82610120018190525060008090505b60028360000151811515611a8757fe5b04811015611cb05760008090505b6002811015611ca25760008090505b6002811015611b5457611b1a8560400151828560020201815181101515611ac757fe5b9060200190602002015183600281101515611ade57fe5b60200201518660e0015183600281101515611af557fe5b602002015184600281101515611b0757fe5b602002015161390290919063ffffffff16565b8560e0015182600281101515611b2c57fe5b602002015183600281101515611b3e57fe5b6020020181815250508080600101915050611aa4565b50611bc384610100015183815181101515611b6b57fe5b9060200190602002015182600281101515611b8257fe5b6020020151611bbe89610140015185815181101515611b9d57fe5b9060200190602002015184600281101515611bb457fe5b60200201516135d0565b61352b565b84610100015183815181101515611bd657fe5b9060200190602002015182600281101515611bed57fe5b6020020181905250611c6384610120015183815181101515611c0b57fe5b9060200190602002015182600281101515611c2257fe5b6020020151611c5e89610160015185815181101515611c3d57fe5b9060200190602002015184600281101515611c5457fe5b60200201516135d0565b61352b565b84610120015183815181101515611c7657fe5b9060200190602002015182600281101515611c8d57fe5b60200201819052508080600101915050611a95565b508080600101915050611a77565b50611d188260e001516000600281101515611cc757fe5b60200201516001600281101515611cda57fe5b60200201518360e001516000600281101515611cf257fe5b60200201516000600281101515611d0557fe5b602002015161359990919063ffffffff16565b8260e001516000600281101515611d2b57fe5b60200201516000600281101515611d3e57fe5b602002018181525050611dae8260e001516001600281101515611d5d57fe5b60200201516001600281101515611d7057fe5b60200201518360e001516001600281101515611d8857fe5b60200201516000600281101515611d9b57fe5b602002015161359990919063ffffffff16565b8260e001516001600281101515611dc157fe5b60200201516000600281101515611dd457fe5b602002018181525050611ec4611e4f600080815481101515611df257fe5b9060005260206000209060020201604080519081016040529081600082015481526020016001820154815250508460e001516000600281101515611e3257fe5b60200201516000600281101515611e4557fe5b60200201516134f0565b611ebf60016000815481101515611e6257fe5b9060005260206000209060020201604080519081016040529081600082015481526020016001820154815250508560e001516001600281101515611ea257fe5b60200201516000600281101515611eb557fe5b60200201516134f0565b61352b565b8260600181905250611f2f611eee611ee48760e0015185602001516134f0565b8760c0015161352b565b611f2a8460600151611f256004604080519081016040529081600082015481526020016001820154815250508a61022001516134f0565b61352b565b613571565b1515611f70576040517f08c379a0000000000000000000000000000000000000000000000000000000008152600401611f67906153af565b60405180910390fd5b611f98611f85876060015184602001516134f0565b611f938761018001516135d0565b61352b565b8260800181905250611fe4611fd160026040805190810160405290816000820154815260200160018201548152505084602001516134f0565b611fdf876101a001516135d0565b61352b565b826101400181905250611ff56146f0565b61204883602001518761024001518861026001518961028001518a6102a00151604051602001612029959493929190615518565b604051602081830303815290604052805190602001206001900461347b565b81600001818152505061205e8160000151613939565b816020018190525061209d816000015160405160200161207e91906153ef565b604051602081830303815290604052805190602001206001900461347b565b81604001818152505060408051908101604052806120c9600284604001516139d690919063ffffffff16565b81526020016120e6600384604001516139d690919063ffffffff16565b8152508160600181905250612148816040015161213a8360600151600160028110151561210f57fe5b60200201518460600151600060028110151561212757fe5b602002015161390290919063ffffffff16565b61359990919063ffffffff16565b8160a00181815250506121eb6121918260a001516121836002604081151561216c57fe5b0460020a8560a0015161359990919063ffffffff16565b6134b090919063ffffffff16565b6121dd6121c2846060015160006002811015156121aa57fe5b602002015185604001516134b090919063ffffffff16565b6121cf8560200151613a43565b61359990919063ffffffff16565b6134b090919063ffffffff16565b81610100018181525050612212816101000151876102e001516134b090919063ffffffff16565b8160e001818152505060008090505b6002604081151561222e57fe5b048110156122e2576122638160020a8360600151600060028110151561225057fe5b602002015161359990919063ffffffff16565b82608001518260408110151561227557fe5b6020020181815250506122ab8160020a8360600151600160028110151561229857fe5b602002015161359990919063ffffffff16565b8260800151600260408115156122bd57fe5b0483016040811015156122cc57fe5b6020020181815250508080600101915050612221565b506123218160400151876102c0015160405160200161230292919061540a565b604051602081830303815290604052805190602001206001900461347b565b8160c0018181525050612394612353876102c00151600060028110151561234457fe5b60200201518360c001516134f0565b61238f886102c00151600160028110151561236a57fe5b602002015161238a8560c001518660c0015161359990919063ffffffff16565b6134f0565b61352b565b8161012001819052506123a561475c565b6124086123bc8561014001518961036001516134f0565b61240386610120015160008151811015156123d357fe5b9060200190602002015160006002811015156123eb57fe5b60200201516123fe8b6103400151613a8e565b6134f0565b61352b565b81602001819052506124476124278561014001518961038001516134f0565b612442866080015161243d8b6103400151613a8e565b6134f0565b61352b565b81604001819052506124926040805190810160405280600681526020017f5a657468657200000000000000000000000000000000000000000000000000008152508960a001516133f2565b81606001819052506124d06124b082606001518961036001516134f0565b6124cb8a60c001516124c68b6103400151613a8e565b6134f0565b61352b565b81608001819052506125d861255361254886610120015160008151811015156124f557fe5b90602001906020020151600060028110151561250d57fe5b6020020151876101200151600081518110151561252657fe5b90602001906020020151600160028110151561253e57fe5b602002015161352b565b8961038001516134f0565b6125d36125c0876101000151600081518110151561256d57fe5b90602001906020020151600060028110151561258557fe5b6020020151886101000151600081518110151561259e57fe5b9060200190602002015160016002811015156125b657fe5b602002015161352b565b6125ce8b6103400151613a8e565b6134f0565b61352b565b8160a001819052506001600285600001518115156125f257fe5b040360405190808252806020026020018201604052801561262d57816020015b61261a6145bc565b8152602001906001900390816126125790505b508161010001819052506000600190505b6002856000015181151561264e57fe5b048110156127e7576126e26126978661012001518381518110151561266f57fe5b90602001906020020151600060028110151561268757fe5b60200201518a61038001516134f0565b6126dd876101000151848151811015156126ad57fe5b9060200190602002015160006002811015156126c557fe5b60200201516126d88c6103400151613a8e565b6134f0565b61352b565b826101000151600183038151811015156126f857fe5b90602001906020020151600060028110151561271057fe5b60200201819052506127a46127598661012001518381518110151561273157fe5b90602001906020020151600160028110151561274957fe5b60200201518a61038001516134f0565b61279f8761010001518481518110151561276f57fe5b90602001906020020151600160028110151561278757fe5b602002015161279a8c6103400151613a8e565b6134f0565b61352b565b826101000151600183038151811015156127ba57fe5b9060200190602002015160016002811015156127d257fe5b6020020181905250808060010191505061263e565b5061290061288961286c61281261280788608001518c610260015161352b565b8b61036001516134f0565b612867612854896101000151600081518110151561282c57fe5b90602001906020020151600060028110151561284457fe5b60200201518d610240015161352b565b6128628d6103400151613a8e565b6134f0565b61352b565b8460600151600060028110151561287f57fe5b60200201516134f0565b6128fb6128de6128b06128a58960c001518d6102a0015161352b565b8c61036001516134f0565b6128d96128c68a60a001518e610280015161352b565b6128d48e6103400151613a8e565b6134f0565b61352b565b856060015160016002811015156128f157fe5b60200201516134f0565b61352b565b8160c001819052506129b46129aa6129896129766129426002604080519081016040529081600082015481526020016001820154815250508760e001516134f0565b6129716004604080519081016040529081600082015481526020016001820154815250508d61030001516134f0565b61352b565b6129848661012001516135d0565b61352b565b6129a587602001518b610340015161359990919063ffffffff16565b6134f0565b8260c0015161352b565b8160e00181905250612a556129ee600260408051908101604052908160008201548152602001600182015481525050896103a001516134f0565b612a50612a0487608001518b61036001516134f0565b612a4b8861010001516000815181101515612a1b57fe5b906020019060200201516000600281101515612a3357fe5b6020020151612a468d6103400151613a8e565b6134f0565b61352b565b61352b565b816101200181905250612acb612a90600260408051908101604052908160008201548152602001600182015481525050896103c001516134f0565b612ac6612aa68760c001518b61036001516134f0565b612ac18860a00151612abc8d6103400151613a8e565b6134f0565b61352b565b61352b565b816101400181905250612b43612b06600460408051908101604052908160008201548152602001600182015481525050896103e001516134f0565b612b3e612b1d8a61026001518b61036001516134f0565b612b398b6102400151612b348d6103400151613a8e565b6134f0565b61352b565b61352b565b816101600181905250612bbb612b7e6004604080519081016040529081600082015481526020016001820154815250508961040001516134f0565b612bb6612b958a6102a001518b61036001516134f0565b612bb18b6102800151612bac8d6103400151613a8e565b6134f0565b61352b565b61352b565b816101800181905250612c3c8260c001518260200151836040015184608001518560a001518661010001518760e001518861012001518961014001518a61016001518b6101800151604051602001612c1d9b9a9998979695949392919061556c565b604051602081830303815290604052805190602001206001900461347b565b8160000181815250508661034001518160000151141515612c92576040517f08c379a0000000000000000000000000000000000000000000000000000000008152600401612c899061532f565b60405180910390fd5b612c9a614807565b612cd18260000151604051602001612cb291906153ef565b604051602081830303815290604052805190602001206001900461347b565b816080018181525050612d0860026040805190810160405290816000820154815260200160018201548152505082608001516134f0565b8160000181905250612d896001805480602002602001604051908101604052809291908181526020016000905b82821015612d7b57838290600052602060002090600202016040805190810160405290816000820154815260200160018201548152505081526020019060010190612d35565b505050508460200151613aba565b8160200181905250612db0612da684602001518560400151613b36565b8460800151613b9d565b8160400181905250612e82612e6b612ddd8a60000151612dd88c602001518860c001516134f0565b61352b565b612e66612e546000805480602002602001604051908101604052809291908181526020016000905b82821015612e4b57838290600052602060002090600202016040805190810160405290816000820154815260200160018201548152505081526020019060010190612e05565b50505050613c16565b612e618860400151613a8e565b6134f0565b61352b565b612e7d83602001518460400151613c63565b61352b565b8160600181905250612ece8160600151612ec9600460408051908101604052908160008201548152602001600182015481525050612ec48c6103200151613a8e565b6134f0565b61352b565b8160600181905250612ef68160600151612ef183600001518b6102e001516134f0565b61352b565b8160600181905250612f0661460c565b886104200151905060008090505b600681101561305357612f848360800151836000015183600681101515612f3757fe5b6020020151846020015184600681101515612f4e57fe5b6020020151604051602001612f6593929190615433565b604051602081830303815290604052805190602001206001900461347b565b83608001818152505082608001518360a0015182600681101515612fa457fe5b6020020181815250506000612fbc8460800151613cc7565b905061303d8460600151613038613000866000015186600681101515612fde57fe5b6020020151612ffb60028a608001516139d690919063ffffffff16565b6134f0565b61303387602001518760068110151561301557fe5b602002015161302e6002886139d690919063ffffffff16565b6134f0565b61352b565b61352b565b8460600181905250508080600101915050612f14565b5060018260c00151600060408110151561306957fe5b60200201818152505060008090505b60068110156130ea576130c18360a001518260068110151561309657fe5b60200201518460c0015160006040811015156130ae57fe5b602002015161359990919063ffffffff16565b8360c0015160006040811015156130d457fe5b6020020181815250508080600101915050613078565b506130f361486a565b6131138360c00151600060408110151561310957fe5b6020020151613cc7565b8360c00151600060408110151561312657fe5b60200201818152505060008090505b6002604081151561314257fe5b048110156132555760008090505b6040828260019060020a020110156132495760008160019060020a0283019050838160408110151561317e57fe5b6020020151151561323d5760006131d68760a00151846001600603036006811015156131a657fe5b60200201518860a00151856001600603036006811015156131c357fe5b602002015161359990919063ffffffff16565b9050613201818860c00151866040811015156131ee57fe5b602002015161359990919063ffffffff16565b8760c001518360408110151561321357fe5b6020020181815250506001858360408110151561322c57fe5b602002019015159081151581525050505b50806001019050613150565b50806001019050613135565b5061325e61488e565b61326661488e565b60008090505b604081101561332f576132d9836132d460008481548110151561328b57fe5b9060005260206000209060020201604080519081016040529081600082015481526020016001820154815250508960c00151856040811015156132ca57fe5b60200201516134f0565b61352b565b92506133208261331b8860200151846040811015156132f457fe5b60200201518960c001518560016040030360408110151561331157fe5b60200201516134f0565b61352b565b9150808060010191505061326c565b5061333861488e565b61338c61335f61334c8588604001516134f0565b61335a8589606001516134f0565b61352b565b613387886000015161338289606001518a6040015161359990919063ffffffff16565b6134f0565b61352b565b905061339c866060015182613571565b15156133dd576040517f08c379a00000000000000000000000000000000000000000000000000000000081526004016133d4906153cf565b60405180910390fd5b60019b50505050505050505050505092915050565b6133fa61488e565b61345a7f30644e72e131a029b85045b68181585d97816a916871ca8d3c208c16d87cfd47848460405160200161343192919061524f565b604051602081830303815290604052805190602001206001900481151561345457fe5b06613cfd565b905092915050565b6000604051826020850101518152805191505092915050565b60007f30644e72e131a029b85045b68181585d2833e84879b9709143e1f593f0000001828115156134a857fe5b069050919050565b6000818310156134e45782827f30644e72e131a029b85045b68181585d2833e84879b9709143e1f593f000000103016134e8565b8183035b905092915050565b6134f861488e565b604051835181526020840151602082015282604082015260408260608360075afa151561352457600080fd5b5092915050565b61353361488e565b6040518351815260208401516020820152825160408201526020830151606082015260408260808360065afa151561356a57600080fd5b5092915050565b600081600001518360000151148015613591575081602001518360200151145b905092915050565b60007f30644e72e131a029b85045b68181585d2833e84879b9709143e1f593f00000018015156135c557fe5b828409905092915050565b6135d861488e565b6040805190810160405280836000015181526020017f30644e72e131a029b85045b68181585d97816a916871ca8d3c208c16d87cfd47846020015181151561361c57fe5b067f30644e72e131a029b85045b68181585d97816a916871ca8d3c208c16d87cfd47038152509050919050565b6060600083519050600060028281151561365f57fe5b0490508060405190808252806020026020018201604052801561369c57816020015b6136896145bc565b8152602001906001900390816136815790505b50925060606136ac856000613d9d565b90506060836040519080825280602002602001820160405280156136df5781602001602082028038833980820191505090505b50905060008090505b60028110156138f45760008090505b8581101561375f57888682880381151561370d57fe5b0681518110151561371a57fe5b906020019060200201518260028110151561373157fe5b6020020151838281518110151561374457fe5b906020019060200201818152505080806001019150506136f7565b5061376982613ffe565b91506060846040519080825280602002602001820160405280156137a757816020015b61379461443a565b81526020019060019003908161378c5790505b5090506000600290506137b981613cc7565b905060008090505b868110156138765761384e61384861380788848151811015156137e057fe5b9060200190602002015188858151811015156137f857fe5b906020019060200201516134f0565b613843898b860181518110151561381a57fe5b90602001906020020151898c870181518110151561383457fe5b906020019060200201516134f0565b61352b565b836134f0565b838281518110151561385c57fe5b9060200190602002018190525080806001019150506137c1565b50613882826001613d9d565b915060008090505b868110156138e45782818151811015156138a057fe5b9060200190602002015189828151811015156138b857fe5b90602001906020020151856002811015156138cf57fe5b6020020181905250808060010191505061388a565b50505080806001019150506136e8565b508494505050505092915050565b60007f30644e72e131a029b85045b68181585d2833e84879b9709143e1f593f000000180151561392e57fe5b828408905092915050565b6139416148a8565b600181600060408110151561395257fe5b6020020181815250508181600160408110151561396b57fe5b6020020181815250506000600290505b60408110156139d0576139ac83836001840360408110151561399957fe5b602002015161359990919063ffffffff16565b82826040811015156139ba57fe5b602002018181525050808060010191505061397b565b50919050565b6000807f30644e72e131a029b85045b68181585d2833e84879b9709143e1f593f0000001905060405160208152602080820152602060408201528460608201528360808201528160a082015260208160c08360055afa1515613a3757600080fd5b80519250505092915050565b600080600090505b6040811015613a8857613a798382604081101515613a6557fe5b60200201518361390290919063ffffffff16565b91508080600101915050613a4b565b50919050565b6000817f30644e72e131a029b85045b68181585d2833e84879b9709143e1f593f0000001039050919050565b613ac26148cc565b60008090505b6040811015613b2f57613b0c8482815181101515613ae257fe5b90602001906020020151613b078584604081101515613afd57fe5b6020020151613cc7565b6134f0565b8282604081101515613b1a57fe5b60200201819052508080600101915050613ac8565b5092915050565b613b3e6148a8565b60008090505b6040811015613b9657613b72838583604081101515613b5f57fe5b602002015161359990919063ffffffff16565b8282604081101515613b8057fe5b6020020181815250508080600101915050613b44565b5092915050565b613ba56148a8565b60008090505b6040811015613c0f57613beb8382604081101515613bc557fe5b60200201518583604081101515613bd857fe5b602002015161390290919063ffffffff16565b8282604081101515613bf957fe5b6020020181815250508080600101915050613bab565b5092915050565b613c1e61488e565b60008090505b6040811015613c5d57613c4e828483815181101515613c3f57fe5b9060200190602002015161352b565b91508080600101915050613c24565b50919050565b613c6b61488e565b60008090505b6040811015613cc057613cb182613cac8684604081101515613c8f57fe5b60200201518685604081101515613ca257fe5b60200201516134f0565b61352b565b91508080600101915050613c71565b5092915050565b6000613cf68260027f30644e72e131a029b85045b68181585d2833e84879b9709143e1f593f0000001036139d6565b9050919050565b613d0561488e565b60005b600115613d805760006003613d1e856003614226565b019050613d5a81600460017f30644e72e131a029b85045b68181585d97816a916871ca8d3c208c16d87cfd4701811515613d5457fe5b04614226565b915080613d68836002614226565b1415613d745750613d80565b60018401935050613d08565b604080519081016040528084815260200182815250915050919050565b60606000835190506001811415613db75783915050613ff8565b6000600282811515613dc557fe5b06141515613e08576040517f08c379a0000000000000000000000000000000000000000000000000000000008152600401613dff9061530f565b60405180910390fd5b6000613e4c826310000000811515613e1c57fe5b047f14a3074b02521e3b1ed9852e5028452693e87be4e910500c7ba9bbddb2f46edd6139d690919063ffffffff16565b90506000600190508415613e6a57613e6382613cc7565b9150600290505b613e7381613cc7565b90506060613e8b613e85886000614293565b87613d9d565b90506060613ea3613e9d896001614293565b88613d9d565b905060006001905085604051908082528060200260200182016040528015613ee557816020015b613ed261443a565b815260200190600190039081613eca5790505b50965060008090505b600287811515613efa57fe5b04811015613ff057613f0a61488e565b613f2b8483815181101515613f1b57fe5b90602001906020020151846134f0565b9050613f57613f518684815181101515613f4157fe5b906020019060200201518361352b565b876134f0565b8983815181101515613f6557fe5b90602001906020020181905250613fa4613f9e8684815181101515613f8657fe5b90602001906020020151613f99846135d0565b61352b565b876134f0565b8960028a811515613fb157fe5b048401815181101515613fc057fe5b90602001906020020181905250613fe0878461359990919063ffffffff16565b9250508080600101915050613eee565b505050505050505b92915050565b606060008251905060018114156140185782915050614221565b600060028281151561402657fe5b06141515614069576040517f08c379a00000000000000000000000000000000000000000000000000000000081526004016140609061530f565b60405180910390fd5b60006140ad82631000000081151561407d57fe5b047f14a3074b02521e3b1ed9852e5028452693e87be4e910500c7ba9bbddb2f46edd6139d690919063ffffffff16565b905060606140c46140bf866000614346565b613ffe565b905060606140db6140d6876001614346565b613ffe565b9050600060019050846040519080825280602002602001820160405280156141125781602001602082028038833980820191505090505b50955060008090505b60028681151561412757fe5b0481101561421a57600061415b83858481518110151561414357fe5b9060200190602002015161359990919063ffffffff16565b905061418781868481518110151561416f57fe5b9060200190602002015161390290919063ffffffff16565b888381518110151561419557fe5b90602001906020020181815250506141cd8186848151811015156141b557fe5b906020019060200201516134b090919063ffffffff16565b886002898115156141da57fe5b0484018151811015156141e957fe5b906020019060200201818152505061420a868461359990919063ffffffff16565b925050808060010191505061411b565b5050505050505b919050565b6000807f30644e72e131a029b85045b68181585d97816a916871ca8d3c208c16d87cfd47905060405160208152602080820152602060408201528460608201528360808201528160a082015260208160c08360055afa151561428757600080fd5b80519250505092915050565b6060600283518115156142a257fe5b046040519080825280602002602001820160405280156142dc57816020015b6142c961443a565b8152602001906001900390816142c15790505b50905060008090505b600284518115156142f257fe5b0481101561433f578383826002020181518110151561430d57fe5b90602001906020020151828281518110151561432557fe5b9060200190602002018190525080806001019150506142e5565b5092915050565b60606002835181151561435557fe5b046040519080825280602002602001820160405280156143845781602001602082028038833980820191505090505b50905060008090505b6002845181151561439a57fe5b048110156143e857838382600202018151811015156143b557fe5b9060200190602002015182828151811015156143cd57fe5b9060200190602002018181525050808060010191505061438d565b5092915050565b6101206040519081016040528060608152602001606081526020016060815260200161441961443a565b8152602001606081526020016000815260200161443461443a565b81525090565b604080519081016040528060008152602001600081525090565b6109c06040519081016040528061446961443a565b815260200161447661443a565b815260200161448361443a565b815260200161449061443a565b815260200161449d61443a565b81526020016144aa61443a565b81526020016144b761443a565b81526020016144c461443a565b81526020016144d161443a565b81526020016144de61443a565b815260200160608152602001606081526020016144f961443a565b815260200161450661443a565b81526020016060815260200160008152602001600081526020016000815260200161452f61443a565b815260200161453c61443a565b815260200161454961443a565b815260200161455661443a565b81526020016145636145bc565b8152602001600081526020016000815260200160008152602001600081526020016000815260200160008152602001600081526020016000815260200160008152602001600081526020016145b66148fb565b81525090565b6080604051908101604052806002905b6145d461443a565b8152602001906001900390816145cc5790505090565b6040805190810160405280600290602082028038833980820191505090505090565b61034060405190810160405280614621614931565b815260200161462e614931565b815260200160008152602001600081525090565b6102606040519081016040528060008152602001600081526020016060815260200161466c61443a565b815260200161467961443a565b815260200161468661443a565b815260200161469361443a565b81526020016146a0614960565b815260200160608152602001606081526020016146bb61443a565b81525090565b610180604051908101604052806006905b6146da61443a565b8152602001906001900390816146d25790505090565b611140604051908101604052806000815260200161470c61498e565b8152602001600081526020016147206145ea565b815260200161472d61498e565b81526020016000815260200160008152602001600081526020016000815260200161475661443a565b81525090565b610300604051908101604052806000815260200161477861443a565b815260200161478561443a565b815260200161479261443a565b815260200161479f61443a565b81526020016147ac61443a565b81526020016147b961443a565b81526020016147c661443a565b8152602001606081526020016147da61443a565b81526020016147e761443a565b81526020016147f461443a565b815260200161480161443a565b81525090565b6121606040519081016040528061481c61443a565b81526020016148296149b2565b815260200161483661498e565b815260200161484361443a565b8152602001600081526020016148576149e1565b815260200161486461498e565b81525090565b61080060405190810160405280604090602082028038833980820191505090505090565b604080519081016040528060008152602001600081525090565b61080060405190810160405280604090602082028038833980820191505090505090565b611000604051908101604052806040905b6148e561443a565b8152602001906001900390816148dd5790505090565b61034060405190810160405280614910614931565b815260200161491d614931565b815260200160008152602001600081525090565b610180604051908101604052806006905b61494a61443a565b8152602001906001900390816149425790505090565b6080604051908101604052806002905b6149786145ea565b8152602001906001900390816149705790505090565b61080060405190810160405280604090602082028038833980820191505090505090565b611000604051908101604052806040905b6149cb61443a565b8152602001906001900390816149c35790505090565b60c060405190810160405280600690602082028038833980820191505090505090565b600082601f8301121515614a1757600080fd5b8135614a2a614a258261564e565b615621565b91508181835260208401935060208101905083856040840282011115614a4f57600080fd5b60005b83811015614a7f5781614a658882614a89565b845260208401935060408301925050600181019050614a52565b5050505092915050565b600082601f8301121515614a9c57600080fd5b6002614aaf614aaa82615676565b615621565b91508183856020840282011115614ac557600080fd5b60005b83811015614af55781614adb8882614b75565b845260208401935060208301925050600181019050614ac8565b5050505092915050565b600082601f8301121515614b1257600080fd5b6002614b25614b2082615698565b615621565b91508183856020840282011115614b3b57600080fd5b60005b83811015614b6b5781614b518882614b75565b845260208401935060208301925050600181019050614b3e565b5050505092915050565b6000614b8182356157f4565b905092915050565b600082601f8301121515614b9c57600080fd5b8135614baf614baa826156ba565b615621565b91508082526020830160208301858383011115614bcb57600080fd5b614bd6838284615808565b50505092915050565b6000614beb82356157fe565b905092915050565b600080600080600080600080610140898b031215614c1057600080fd5b600089013567ffffffffffffffff811115614c2a57600080fd5b614c368b828c01614a04565b985050602089013567ffffffffffffffff811115614c5357600080fd5b614c5f8b828c01614a04565b975050604089013567ffffffffffffffff811115614c7c57600080fd5b614c888b828c01614a04565b9650506060614c998b828c01614aff565b95505060a089013567ffffffffffffffff811115614cb657600080fd5b614cc28b828c01614a04565b94505060c0614cd38b828c01614bdf565b93505060e0614ce48b828c01614aff565b92505061012089013567ffffffffffffffff811115614d0257600080fd5b614d0e8b828c01614b89565b9150509295985092959890939650565b600060208284031215614d3057600080fd5b6000614d3e84828501614bdf565b91505092915050565b6000614d538383614dd1565b60808301905092915050565b6000614d6b83836151bc565b60408301905092915050565b6000614d8282615714565b614d8c818561577f565b9350614d97836156e6565b60005b82811015614dc557614dad868351614d47565b9550614db88261574b565b9150600181019050614d9a565b50849250505092915050565b614dda8161571f565b614de48184615790565b9250614def826156f3565b60005b82811015614e1d57614e05858351614d5f565b9450614e1082615758565b9150600181019050614df2565b5050505050565b614e2d8161571f565b614e37818461579b565b9250614e42826156f3565b60005b82811015614e7057614e58858351614d5f565b9450614e6382615758565b9150600181019050614e45565b5050505050565b614e808161572a565b614e8a81846157a6565b9250614e95826156fd565b60005b82811015614ec357614eab858351614d5f565b9450614eb682615765565b9150600181019050614e98565b5050505050565b6000614ed582615735565b614edf81856157b1565b9350614eea83615707565b60005b82811015614f1857614f00868351614d5f565b9550614f0b82615772565b9150600181019050614eed565b50849250505092915050565b614f2d816157de565b82525050565b6000614f3e82615740565b614f4881856157d3565b9350614f58818560208601615817565b80840191505092915050565b6000614f71601f836157c2565b91507f496e7075742073697a65206973206e6f74206120706f776572206f66203221006000830152602082019050919050565b6000614fb1602a836157c2565b91507f5369676d612070726f746f636f6c206368616c6c656e676520657175616c697460008301527f79206661696c7572652e000000000000000000000000000000000000000000006020830152604082019050919050565b60006150176042836157c2565b91507f496e61646571756174652073746f72656420766563746f72206261736521204360008301527f616c6c20657874656e644261736520616e64207468656e20747279206167616960208301527f6e2e0000000000000000000000000000000000000000000000000000000000006040830152606082019050919050565b60006150a3601d836157c2565b91507f5265636f76657279206661696c75726520666f7220555e77202a20562e0000006000830152602082019050919050565b60006150e3601d836157c2565b91507f5265636f76657279206661696c75726520666f7220515e77202a20502e0000006000830152602082019050919050565b6000615123601d836157c2565b91507f5265636f76657279206661696c75726520666f7220595e77202a20582e0000006000830152602082019050919050565b60006151636025836157c2565b91507f496e6e65722070726f6475637420657175616c69747920636865636b2066616960008301527f6c7572652e0000000000000000000000000000000000000000000000000000006020830152604082019050919050565b6040820160008201516151d2600085018261521a565b5060208201516151e5602085018261521a565b50505050565b604082016000820151615201600085018261521a565b506020820151615214602085018261521a565b50505050565b615223816157ea565b82525050565b615232816157ea565b82525050565b615249615244826157ea565b61584a565b82525050565b600061525b8285614f33565b91506152678284615238565b6020820191508190509392505050565b600060e08201905081810360008301526152918189614eca565b905081810360208301526152a58188614eca565b905081810360408301526152b98187614eca565b90506152c860608301866151eb565b81810360a08301526152da8185614eca565b90506152e960c0830184615229565b979650505050505050565b60006020820190506153096000830184614f24565b92915050565b6000602082019050818103600083015261532881614f64565b9050919050565b6000602082019050818103600083015261534881614fa4565b9050919050565b600060208201905081810360008301526153688161500a565b9050919050565b6000602082019050818103600083015261538881615096565b9050919050565b600060208201905081810360008301526153a8816150d6565b9050919050565b600060208201905081810360008301526153c881615116565b9050919050565b600060208201905081810360008301526153e881615156565b9050919050565b60006020820190506154046000830184615229565b92915050565b600060a08201905061541f6000830185615229565b61542c6020830184614e24565b9392505050565b600060a0820190506154486000830186615229565b61545560208301856151eb565b61546260608301846151eb565b949350505050565b600061036082019050615480600083018d615229565b61548d602083018c6151eb565b61549a606083018b6151eb565b6154a760a083018a614e77565b6154b56102208301896151eb565b6154c36102608301886151eb565b8181036102a08301526154d68187614d77565b90508181036102c08301526154eb8186614d77565b90506154fb6102e08301856151eb565b6155096103208301846151eb565b9b9a5050505050505050505050565b60006101208201905061552e6000830188615229565b61553b60208301876151eb565b61554860608301866151eb565b61555560a08301856151eb565b61556260e08301846151eb565b9695505050505050565b600061028082019050615582600083018e615229565b61558f602083018d6151eb565b61559c606083018c6151eb565b6155a960a083018b6151eb565b6155b660e083018a6151eb565b8181036101208301526155c98189614d77565b90506155d96101408301886151eb565b6155e76101808301876151eb565b6155f56101c08301866151eb565b6156036102008301856151eb565b6156116102408301846151eb565b9c9b505050505050505050505050565b6000604051905081810181811067ffffffffffffffff8211171561564457600080fd5b8060405250919050565b600067ffffffffffffffff82111561566557600080fd5b602082029050602081019050919050565b600067ffffffffffffffff82111561568d57600080fd5b602082029050919050565b600067ffffffffffffffff8211156156af57600080fd5b602082029050919050565b600067ffffffffffffffff8211156156d157600080fd5b601f19601f8301169050602081019050919050565b6000602082019050919050565b6000819050919050565b6000819050919050565b6000602082019050919050565b600081519050919050565b600060029050919050565b600060069050919050565b600081519050919050565b600081519050919050565b6000602082019050919050565b6000602082019050919050565b6000602082019050919050565b6000602082019050919050565b600082825260208201905092915050565b600081905092915050565b600081905092915050565b600081905092915050565b600082825260208201905092915050565b600082825260208201905092915050565b600081905092915050565b60008115159050919050565b6000819050919050565b6000819050919050565b6000819050919050565b82818337600083830152505050565b60005b8381101561583557808201518184015260208101905061581a565b83811115615844576000848401525b50505050565b600081905091905056fea265627a7a723058204afd3b09557385e3a1fbfff66659849f42be0cc4dc93afab8702d2c3ac6595d06c6578706572696d656e74616cf50037",
  "source": "pragma solidity 0.5.4;\npragma experimental ABIEncoderV2;\n\nimport \"./Utils.sol\";\n\ncontract ZetherVerifier {\n    using Utils for uint256;\n\n    uint256 constant m = 64;\n    uint256 constant n = 6;\n    uint256 constant FIELD_ORDER = 21888242871839275222246405745257275088696311157297823662689037894645226208583;\n    uint256 constant UNITY = 9334303377689037989442018753807510978357674015322511348041267794643984346845; // primitive 2^28th root of unity modulo GROUP_ORDER (not field!)\n\n    G1Point[] gs; // warning: this and the below are not statically sized anymore\n    G1Point[] hs; // need to push to these if large anonsets are used.\n    G1Point g;\n    G1Point h;\n\n    uint256[m] twos = powers(2);\n\n    struct ZetherStatement {\n        G1Point[] CLn;\n        G1Point[] CRn;\n        G1Point[] C;\n        G1Point D;\n        G1Point[] y;\n        uint256 epoch; // or uint8?\n        G1Point u;\n    }\n\n    struct ZetherProof {\n        G1Point A;\n        G1Point S;\n\n        G1Point P;\n        G1Point Q;\n        G1Point U;\n        G1Point V;\n        G1Point X;\n        G1Point Y;\n        G1Point CLnG;\n        G1Point CRnG;\n        G1Point[2][] CG; // flipping the indexing order on this, 'cause...\n        G1Point[2][] yG; // assuming this one has the same size..., N / 2 by 2,\n        G1Point DG;\n        G1Point gG;\n        uint256[2][] f; // and that this has size N - 1 by 2.\n        uint256 z_P;\n        uint256 z_U;\n        uint256 z_X;\n\n        G1Point CPrime;\n        G1Point DPrime;\n        G1Point CLnPrime;\n        G1Point CRnPrime;\n\n        G1Point[2] tCommits;\n        uint256 tHat;\n        uint256 tauX;\n        uint256 mu;\n\n        uint256 c;\n        uint256 s_sk;\n        uint256 s_r;\n        uint256 s_vTransfer;\n        uint256 s_vDiff;\n        uint256 s_nuTransfer;\n        uint256 s_nuDiff;\n\n        InnerProductProof ipProof;\n    }\n\n    struct SigmaProof {\n        uint256 c;\n        uint256 sX;\n        uint256 sR;\n    }\n\n    struct InnerProductProof {\n        G1Point[n] ls;\n        G1Point[n] rs;\n        uint256 a;\n        uint256 b;\n    }\n\n    constructor() public {\n        g = mapInto(\"G\");\n        h = mapInto(\"V\");\n        for (uint256 i = 0; i < m; i++) {\n            gs.push(mapInto(\"G\", i));\n            hs.push(mapInto(\"H\", i));\n        }\n    }\n\n    function baseSize() external view returns (uint256 size) {\n        return gs.length;\n    }\n\n    function extendBase(uint256 size) external payable {\n        // unfortunate, but necessary. essentially, we need vector bases of arbitrary (linear) length for large anonsets...\n        // could mitigate this by using the logarithmic tricks of Groth and Kohlweiss; see also BCC+15\n        // but this would cause problems elsewhere: N log N-sized proofs and N log^2(N) prove / verify time.\n        // the increase in proof size is paradoxical: while _f_ will become smaller (log N), you'll need more correction terms\n        // thus a linear persistent space overhead is not so bad in the grand scheme, and we deem this acceptable.\n        for (uint256 i = gs.length; i < size; i++) {\n            gs.push(mapInto(\"G\", i));\n            hs.push(mapInto(\"H\", i));\n        }\n    }\n\n    function verifyTransfer(bytes32[2][] memory CLn, bytes32[2][] memory CRn, bytes32[2][] memory C, bytes32[2] memory D, bytes32[2][] memory y, uint256 epoch, bytes32[2] memory u, bytes memory proof) view public returns (bool) {\n        ZetherStatement memory statement;\n        uint256 size = y.length;\n        require(gs.length >= size, \"Inadequate stored vector base! Call extendBase and then try again.\");\n\n        statement.CLn = new G1Point[](size);\n        statement.CRn = new G1Point[](size);\n        statement.C = new G1Point[](size);\n        statement.y = new G1Point[](size);\n        for (uint256 i = 0; i < size; i++) {\n            statement.CLn[i] = G1Point(uint256(CLn[i][0]), uint256(CLn[i][1]));\n            statement.CRn[i] = G1Point(uint256(CRn[i][0]), uint256(CRn[i][1]));\n            statement.C[i] = G1Point(uint256(C[i][0]), uint256(C[i][1]));\n            statement.y[i] = G1Point(uint256(y[i][0]), uint256(y[i][1]));\n        }\n        statement.D = G1Point(uint256(D[0]), uint256(D[1]));\n        statement.epoch = epoch;\n        statement.u = G1Point(uint256(u[0]), uint256(u[1]));\n        ZetherProof memory zetherProof = unserialize(proof);\n        return verify(statement, zetherProof);\n    }\n\n    struct ZetherAuxiliaries {\n        uint256 y;\n        uint256[m] ys;\n        uint256 z;\n        uint256[2] zs; // [z^2, z^3]\n        uint256[m] twoTimesZSquared;\n        uint256 zSum;\n        uint256 x;\n        uint256 t;\n        uint256 k;\n        G1Point tEval;\n    }\n\n    struct SigmaAuxiliaries {\n        uint256 c;\n        G1Point A_y;\n        G1Point A_D;\n        G1Point gEpoch;\n        G1Point A_u;\n        G1Point A_B;\n        G1Point c_commit;\n        G1Point A_t;\n        G1Point[2][] A_C;\n        G1Point A_C00;\n        G1Point A_CLn;\n        G1Point A_CPrime;\n        G1Point A_CLnPrime;\n    }\n\n    struct AnonAuxiliaries {\n        uint256 size;\n        uint256 w;\n        uint256[2][] f;\n        G1Point temp;\n        G1Point D2;\n        G1Point CLn2;\n        G1Point CRn2;\n        uint256[2][2] cycler;\n        G1Point[2][] C2;\n        G1Point[2][] y2;\n        G1Point g2;\n    }\n\n    struct IPAuxiliaries {\n        G1Point u_x;\n        G1Point[m] hPrimes;\n        uint256[m] hExp;\n        G1Point P;\n        uint256 o;\n        uint256[n] challenges;\n        uint256[m] otherExponents;\n    }\n\n    function verify(ZetherStatement memory statement, ZetherProof memory proof) view internal returns (bool) {\n        uint256 statementHash = uint256(keccak256(abi.encode(statement.CLn, statement.CRn, statement.C, statement.D, statement.y, statement.epoch))).mod();\n\n        AnonAuxiliaries memory anonAuxiliaries;\n        G1Point[6] memory store = [proof.P, proof.Q, proof.U, proof.V, proof.X, proof.Y]; // for stacktoodeep\n        anonAuxiliaries.w = uint256(keccak256(abi.encode(statementHash, proof.A, proof.S, store, proof.CLnG, proof.CRnG, proof.CG, proof.yG, proof.DG, proof.gG))).mod();\n        anonAuxiliaries.size = proof.f.length + 1;\n        anonAuxiliaries.f = new uint256[2][](anonAuxiliaries.size);\n        anonAuxiliaries.f[0][0] = anonAuxiliaries.w;\n        anonAuxiliaries.f[0][1] = anonAuxiliaries.w;\n        for (uint256 i = 1; i < anonAuxiliaries.size; i++) {\n            anonAuxiliaries.f[i][0] = proof.f[i - 1][0];\n            anonAuxiliaries.f[i][1] = proof.f[i - 1][1];\n            anonAuxiliaries.f[0][0] = anonAuxiliaries.f[0][0].sub(anonAuxiliaries.f[i][0]);\n            anonAuxiliaries.f[0][1] = anonAuxiliaries.f[0][1].sub(anonAuxiliaries.f[i][1]);\n        }\n        for (uint256 i = 0; i < anonAuxiliaries.size; i++) {\n            anonAuxiliaries.temp = add(anonAuxiliaries.temp, mul(gs[i], anonAuxiliaries.f[i][0]));\n            anonAuxiliaries.temp = add(anonAuxiliaries.temp, mul(hs[i], anonAuxiliaries.f[i][1]));\n        }\n        require(eq(add(mul(proof.Q, anonAuxiliaries.w), proof.P), add(anonAuxiliaries.temp, mul(h, proof.z_P))), \"Recovery failure for Q^w * P.\");\n\n        anonAuxiliaries.temp = G1Point(0, 0);\n        for (uint256 i = 0; i < anonAuxiliaries.size; i++) { // danger... gs and hs need to be big enough.\n            anonAuxiliaries.temp = add(anonAuxiliaries.temp, mul(gs[i], anonAuxiliaries.f[i][0].mul(anonAuxiliaries.w.sub(anonAuxiliaries.f[i][0]))));\n            anonAuxiliaries.temp = add(anonAuxiliaries.temp, mul(hs[i], anonAuxiliaries.f[i][1].mul(anonAuxiliaries.w.sub(anonAuxiliaries.f[i][1])))); // commutative\n        }\n        require(eq(add(mul(proof.U, anonAuxiliaries.w), proof.V), add(anonAuxiliaries.temp, mul(h, proof.z_U))), \"Recovery failure for U^w * V.\");\n\n        for (uint256 i = 0; i < anonAuxiliaries.size; i++) {\n            anonAuxiliaries.CLn2 = add(anonAuxiliaries.CLn2, mul(statement.CLn[i], anonAuxiliaries.f[i][0]));\n            anonAuxiliaries.CRn2 = add(anonAuxiliaries.CRn2, mul(statement.CRn[i], anonAuxiliaries.f[i][0]));\n        }\n        anonAuxiliaries.CLn2 = add(anonAuxiliaries.CLn2, neg(proof.CLnG));\n        anonAuxiliaries.CRn2 = add(anonAuxiliaries.CRn2, neg(proof.CRnG));\n\n        anonAuxiliaries.C2 = assembleConvolutions(anonAuxiliaries.f, statement.C); // will internally include _two_ fourier transforms, and split even / odd, etc.\n        anonAuxiliaries.y2 = assembleConvolutions(anonAuxiliaries.f, statement.y);\n\n        for (uint256 i = 0; i < anonAuxiliaries.size / 2; i++) { // order of loops can be switched...\n            // could use _two_ further nested loops inside this, but...\n            for (uint256 j = 0; j < 2; j++) {\n                for (uint256 k = 0; k < 2; k++) {\n                    anonAuxiliaries.cycler[k][j] = anonAuxiliaries.cycler[k][j].add(anonAuxiliaries.f[2 * i + k][j]);\n                }\n                anonAuxiliaries.C2[i][j] = add(anonAuxiliaries.C2[i][j], neg(proof.CG[i][j]));\n                anonAuxiliaries.y2[i][j] = add(anonAuxiliaries.y2[i][j], neg(proof.yG[i][j]));\n            }\n        }\n        // replace the leftmost column with the Hadamard of the left and right columns. just do the multiplication once...\n        anonAuxiliaries.cycler[0][0] = anonAuxiliaries.cycler[0][0].mul(anonAuxiliaries.cycler[0][1]);\n        anonAuxiliaries.cycler[1][0] = anonAuxiliaries.cycler[1][0].mul(anonAuxiliaries.cycler[1][1]);\n        anonAuxiliaries.temp = add(mul(gs[0], anonAuxiliaries.cycler[0][0]), mul(hs[0], anonAuxiliaries.cycler[1][0]));\n\n        require(eq(add(mul(proof.Y, anonAuxiliaries.w), proof.X), add(anonAuxiliaries.temp, mul(h, proof.z_X))), \"Recovery failure for Y^w * X.\");\n\n        anonAuxiliaries.D2 = add(mul(statement.D, anonAuxiliaries.w), neg(proof.DG));\n        anonAuxiliaries.g2 = add(mul(g, anonAuxiliaries.w), neg(proof.gG));\n\n        ZetherAuxiliaries memory zetherAuxiliaries;\n        zetherAuxiliaries.y = uint256(keccak256(abi.encode(anonAuxiliaries.w, proof.CPrime, proof.DPrime, proof.CLnPrime, proof.CRnPrime))).mod();\n        zetherAuxiliaries.ys = powers(zetherAuxiliaries.y);\n        zetherAuxiliaries.z = uint256(keccak256(abi.encode(zetherAuxiliaries.y))).mod();\n        zetherAuxiliaries.zs = [zetherAuxiliaries.z.exp(2), zetherAuxiliaries.z.exp(3)];        \n        zetherAuxiliaries.zSum = zetherAuxiliaries.zs[0].add(zetherAuxiliaries.zs[1]).mul(zetherAuxiliaries.z);\n        zetherAuxiliaries.k = sumScalars(zetherAuxiliaries.ys).mul(zetherAuxiliaries.z.sub(zetherAuxiliaries.zs[0])).sub(zetherAuxiliaries.zSum.mul(2 ** (m / 2)).sub(zetherAuxiliaries.zSum));\n        zetherAuxiliaries.t = proof.tHat.sub(zetherAuxiliaries.k);\n        for (uint256 i = 0; i < m / 2; i++) {\n            zetherAuxiliaries.twoTimesZSquared[i] = zetherAuxiliaries.zs[0].mul(2 ** i);\n            zetherAuxiliaries.twoTimesZSquared[i + m / 2] = zetherAuxiliaries.zs[1].mul(2 ** i);\n        }\n\n        zetherAuxiliaries.x = uint256(keccak256(abi.encode(zetherAuxiliaries.z, proof.tCommits))).mod();\n        zetherAuxiliaries.tEval = add(mul(proof.tCommits[0], zetherAuxiliaries.x), mul(proof.tCommits[1], zetherAuxiliaries.x.mul(zetherAuxiliaries.x))); // replace with \"commit\"?\n\n        SigmaAuxiliaries memory sigmaAuxiliaries;\n        sigmaAuxiliaries.A_y = add(mul(anonAuxiliaries.g2, proof.s_sk), mul(anonAuxiliaries.y2[0][0], proof.c.neg()));\n        sigmaAuxiliaries.A_D = add(mul(anonAuxiliaries.g2, proof.s_r), mul(anonAuxiliaries.D2, proof.c.neg()));\n        sigmaAuxiliaries.gEpoch = mapInto(\"Zether\", statement.epoch);\n        sigmaAuxiliaries.A_u = add(mul(sigmaAuxiliaries.gEpoch, proof.s_sk), mul(statement.u, proof.c.neg()));\n        sigmaAuxiliaries.A_B = add(mul(add(anonAuxiliaries.y2[0][0], anonAuxiliaries.y2[0][1]), proof.s_r), mul(add(anonAuxiliaries.C2[0][0], anonAuxiliaries.C2[0][1]), proof.c.neg()));\n        sigmaAuxiliaries.A_C = new G1Point[2][](anonAuxiliaries.size / 2 - 1);\n        for (uint256 i = 1; i < anonAuxiliaries.size / 2; i++) {\n            sigmaAuxiliaries.A_C[i - 1][0] = add(mul(anonAuxiliaries.y2[i][0], proof.s_r), mul(anonAuxiliaries.C2[i][0], proof.c.neg()));\n            sigmaAuxiliaries.A_C[i - 1][1] = add(mul(anonAuxiliaries.y2[i][1], proof.s_r), mul(anonAuxiliaries.C2[i][1], proof.c.neg()));\n        }\n        sigmaAuxiliaries.c_commit = add(mul(add(mul(add(anonAuxiliaries.D2, proof.DPrime), proof.s_sk), mul(add(anonAuxiliaries.C2[0][0], proof.CPrime), proof.c.neg())), zetherAuxiliaries.zs[0]), mul(add(mul(add(anonAuxiliaries.CRn2, proof.CRnPrime), proof.s_sk), mul(add(anonAuxiliaries.CLn2, proof.CLnPrime), proof.c.neg())), zetherAuxiliaries.zs[1]));\n        sigmaAuxiliaries.A_t = add(mul(add(add(mul(g, zetherAuxiliaries.t), mul(h, proof.tauX)), neg(zetherAuxiliaries.tEval)), proof.c.mul(anonAuxiliaries.w)), sigmaAuxiliaries.c_commit);\n        sigmaAuxiliaries.A_C00 = add(mul(g, proof.s_vTransfer), add(mul(anonAuxiliaries.D2, proof.s_sk), mul(anonAuxiliaries.C2[0][0], proof.c.neg())));\n        sigmaAuxiliaries.A_CLn = add(mul(g, proof.s_vDiff), add(mul(anonAuxiliaries.CRn2, proof.s_sk), mul(anonAuxiliaries.CLn2, proof.c.neg())));\n        sigmaAuxiliaries.A_CPrime = add(mul(h, proof.s_nuTransfer), add(mul(proof.DPrime, proof.s_sk), mul(proof.CPrime, proof.c.neg())));\n        sigmaAuxiliaries.A_CLnPrime = add(mul(h, proof.s_nuDiff), add(mul(proof.CRnPrime, proof.s_sk), mul(proof.CLnPrime, proof.c.neg())));\n\n        sigmaAuxiliaries.c = uint256(keccak256(abi.encode(zetherAuxiliaries.x, sigmaAuxiliaries.A_y, sigmaAuxiliaries.A_D, sigmaAuxiliaries.A_u, sigmaAuxiliaries.A_B, sigmaAuxiliaries.A_C, sigmaAuxiliaries.A_t, sigmaAuxiliaries.A_C00, sigmaAuxiliaries.A_CLn, sigmaAuxiliaries.A_CPrime, sigmaAuxiliaries.A_CLnPrime))).mod();\n        require(sigmaAuxiliaries.c == proof.c, \"Sigma protocol challenge equality failure.\");\n\n        IPAuxiliaries memory ipAuxiliaries;\n        ipAuxiliaries.o = uint256(keccak256(abi.encode(sigmaAuxiliaries.c))).mod();\n        ipAuxiliaries.u_x = mul(g, ipAuxiliaries.o);\n        ipAuxiliaries.hPrimes = hadamardInv(hs, zetherAuxiliaries.ys);\n        ipAuxiliaries.hExp = addVectors(times(zetherAuxiliaries.ys, zetherAuxiliaries.z), zetherAuxiliaries.twoTimesZSquared);\n        ipAuxiliaries.P = add(add(add(proof.A, mul(proof.S, zetherAuxiliaries.x)), mul(sumPoints(gs), zetherAuxiliaries.z.neg())), commit(ipAuxiliaries.hPrimes, ipAuxiliaries.hExp));\n        ipAuxiliaries.P = add(ipAuxiliaries.P, mul(h, proof.mu.neg()));\n        ipAuxiliaries.P = add(ipAuxiliaries.P, mul(ipAuxiliaries.u_x, proof.tHat));\n\n        // begin inner product verification\n        InnerProductProof memory ipProof = proof.ipProof;\n        for (uint256 i = 0; i < n; i++) {\n            ipAuxiliaries.o = uint256(keccak256(abi.encode(ipAuxiliaries.o, ipProof.ls[i], ipProof.rs[i]))).mod();\n            ipAuxiliaries.challenges[i] = ipAuxiliaries.o; // overwrites value\n            uint256 xInv = ipAuxiliaries.o.inv();\n            ipAuxiliaries.P = add(ipAuxiliaries.P, add(mul(ipProof.ls[i], ipAuxiliaries.o.exp(2)), mul(ipProof.rs[i], xInv.exp(2))));\n        }\n\n        ipAuxiliaries.otherExponents[0] = 1;\n        for (uint256 i = 0; i < n; i++) {\n            ipAuxiliaries.otherExponents[0] = ipAuxiliaries.otherExponents[0].mul(ipAuxiliaries.challenges[i]);\n        }\n        bool[m] memory bitSet;\n        ipAuxiliaries.otherExponents[0] = ipAuxiliaries.otherExponents[0].inv();\n        for (uint256 i = 0; i < m/2; ++i) {\n            for (uint256 j = 0; (1 << j) + i < m; ++j) {\n                uint256 i1 = i + (1 << j);\n                if (!bitSet[i1]) {\n                    uint256 temp = ipAuxiliaries.challenges[n - 1 - j].mul(ipAuxiliaries.challenges[n - 1 - j]);\n                    ipAuxiliaries.otherExponents[i1] = ipAuxiliaries.otherExponents[i].mul(temp);\n                    bitSet[i1] = true;\n                }\n            }\n        }\n\n        G1Point memory gTemp;\n        G1Point memory hTemp;\n        for (uint256 i = 0; i < m; i++) {\n            gTemp = add(gTemp, mul(gs[i], ipAuxiliaries.otherExponents[i]));\n            hTemp = add(hTemp, mul(ipAuxiliaries.hPrimes[i], ipAuxiliaries.otherExponents[m - 1 - i]));\n        }\n        G1Point memory cProof = add(add(mul(gTemp, ipProof.a), mul(hTemp, ipProof.b)), mul(ipAuxiliaries.u_x, ipProof.a.mul(ipProof.b)));\n        require(eq(ipAuxiliaries.P, cProof), \"Inner product equality check failure.\");\n\n        return true;\n    }\n\n    function assembleConvolutions(uint256[2][] memory exponent, G1Point[] memory base) internal view returns (G1Point[2][] memory result) {\n        // exponent is two \"rows\" (actually columns).\n        // will return two rows, each of half the length of the exponents;\n        // namely, we will return the Hadamards of \"base\" by the even circular shifts of \"exponent\"'s rows.\n        uint256 size = exponent.length;\n        uint256 half = size / 2;\n        result = new G1Point[2][](half); // assuming that this is necessary even when return is declared up top\n\n        G1Point[] memory base_fft = fft(base, false);\n\n        uint256[] memory exponent_fft = new uint256[](size);\n        for (uint256 i = 0; i < 2; i++) {\n            for (uint256 j = 0; j < size; j++) {\n                exponent_fft[j] = exponent[(size - j) % size][i]; // convolutional flip plus copy\n            }\n\n            exponent_fft = fft(exponent_fft);\n            G1Point[] memory inverse_fft = new G1Point[](half);\n            uint256 compensation = 2;\n            compensation = compensation.inv();\n            for (uint256 j = 0; j < half; j++) { // Hadamard\n                inverse_fft[j] = mul(add(mul(base_fft[j], exponent_fft[j]), mul(base_fft[j + half], exponent_fft[j + half])), compensation);\n            }\n\n            inverse_fft = fft(inverse_fft, true);\n            for (uint256 j = 0; j < half; j++) {\n                result[j][i] = inverse_fft[j];\n            }\n        }\n        return result;\n    }\n\n    function fft(G1Point[] memory input, bool inverse) internal view returns (G1Point[] memory result) {\n        uint256 size = input.length;\n        if (size == 1) {\n            return input;\n        }\n        require(size % 2 == 0, \"Input size is not a power of 2!\");\n\n        uint256 omega = UNITY.exp(2**28 / size);\n        uint256 compensation = 1;\n        if (inverse) {\n            omega = omega.inv();\n            compensation = 2;\n        }\n        compensation = compensation.inv();\n        G1Point[] memory even = fft(extract(input, 0), inverse);\n        G1Point[] memory odd = fft(extract(input, 1), inverse);\n        uint256 omega_run = 1;\n        result = new G1Point[](size);\n        for (uint256 i = 0; i < size / 2; i++) {\n            G1Point memory temp = mul(odd[i], omega_run);\n            result[i] = mul(add(even[i], temp), compensation);\n            result[i + size / 2] = mul(add(even[i], neg(temp)), compensation);\n            omega_run = omega_run.mul(omega);\n        }\n    }\n\n    function extract(G1Point[] memory input, uint256 parity) internal pure returns (G1Point[] memory result) {\n        result = new G1Point[](input.length / 2);\n        for (uint256 i = 0; i < input.length / 2; i++) {\n            result[i] = input[2 * i + parity];\n        }\n    }\n\n    function fft(uint256[] memory input) internal view returns (uint256[] memory result) {\n        uint256 size = input.length;\n        if (size == 1) {\n            return input;\n        }\n        require(size % 2 == 0, \"Input size is not a power of 2!\");\n\n        uint256 omega = UNITY.exp(2**28 / size);\n        uint256[] memory even = fft(extract(input, 0));\n        uint256[] memory odd = fft(extract(input, 1));\n        uint256 omega_run = 1;\n        result = new uint256[](size);\n        for (uint256 i = 0; i < size / 2; i++) {\n            uint256 temp = odd[i].mul(omega_run);\n            result[i] = even[i].add(temp);\n            result[i + size / 2] = even[i].sub(temp);\n            omega_run = omega_run.mul(omega);\n        }\n    }\n\n    function extract(uint256[] memory input, uint256 parity) internal pure returns (uint256[] memory result) {\n        result = new uint256[](input.length / 2);\n        for (uint256 i = 0; i < input.length / 2; i++) {\n            result[i] = input[2 * i + parity];\n        }\n    }\n\n    function unserialize(bytes memory arr) internal pure returns (ZetherProof memory proof) {\n        proof.A = G1Point(slice(arr, 0), slice(arr, 32));\n        proof.S = G1Point(slice(arr, 64), slice(arr, 96));\n\n        proof.P = G1Point(slice(arr, 128), slice(arr, 160));\n        proof.Q = G1Point(slice(arr, 192), slice(arr, 224));\n        proof.U = G1Point(slice(arr, 256), slice(arr, 288));\n        proof.V = G1Point(slice(arr, 320), slice(arr, 352));\n        proof.X = G1Point(slice(arr, 384), slice(arr, 416));\n        proof.Y = G1Point(slice(arr, 448), slice(arr, 480));\n        proof.CLnG = G1Point(slice(arr, 512), slice(arr, 544));\n        proof.CRnG = G1Point(slice(arr, 576), slice(arr, 608));\n        uint256 size = (arr.length - 2336) / 192; // warning: this and the below assume that n = 6 (i.e. b* and b' are 32 bits).\n        proof.CG = new G1Point[2][](size / 2);\n        proof.yG = new G1Point[2][](size / 2);\n        for (uint256 i = 0; i < size / 2; i++) {\n            proof.CG[i][0] = G1Point(slice(arr, 640 + i * 64), slice(arr, 672 + i * 64));\n            proof.CG[i][1] = G1Point(slice(arr, 640 + size * 32 + i * 64), slice(arr, 672 + size * 32 + i * 64));\n            proof.yG[i][0] = G1Point(slice(arr, 640 + size * 64 + i * 64), slice(arr, 672 + size * 64 + i * 64));\n            proof.yG[i][1] = G1Point(slice(arr, 640 + size * 96 + i * 64), slice(arr, 672 + size * 96 + i * 64));\n        }\n        proof.DG = G1Point(slice(arr, 640 + size * 128), slice(arr, 672 + size * 128));\n        proof.gG = G1Point(slice(arr, 704 + size * 128), slice(arr, 736 + size * 128));\n\n        proof.f = new uint256[2][](size - 1);\n        for (uint256 i = 0; i < size - 1; i++) {\n            proof.f[i][0] = slice(arr, 768 + size * 128 + i * 32);\n            proof.f[i][1] = slice(arr, 736 + size * 160 + i * 32); // (size - 1) 32-byte elements above.\n        }\n\n        uint256 starting = size * 192;\n        proof.z_P = slice(arr, 704 + starting);\n        proof.z_U = slice(arr, 736 + starting);\n        proof.z_X = slice(arr, 768 + starting);\n\n        proof.CPrime = G1Point(slice(arr, 800 + starting), slice(arr, 832 + starting));\n        proof.DPrime = G1Point(slice(arr, 864 + starting), slice(arr, 896 + starting));\n        proof.CLnPrime = G1Point(slice(arr, 928 + starting), slice(arr, 960 + starting));\n        proof.CRnPrime = G1Point(slice(arr, 992 + starting), slice(arr, 1024 + starting));\n\n        proof.tCommits = [G1Point(slice(arr, 1056 + starting), slice(arr, 1088 + starting)), G1Point(slice(arr, 1120 + starting), slice(arr, 1152 + starting))];\n        proof.tHat = slice(arr, 1184 + starting);\n        proof.tauX = slice(arr, 1216 + starting);\n        proof.mu = slice(arr, 1248 + starting);\n\n        proof.c = slice(arr, 1280 + starting);\n        proof.s_sk = slice(arr, 1312 + starting);\n        proof.s_r = slice(arr, 1344 + starting);\n        proof.s_vTransfer = slice(arr, 1376 + starting);\n        proof.s_vDiff = slice(arr, 1408 + starting);\n        proof.s_nuTransfer = slice(arr, 1440 + starting);\n        proof.s_nuDiff = slice(arr, 1472 + starting);\n\n        InnerProductProof memory ipProof;\n        for (uint256 i = 0; i < n; i++) {\n            ipProof.ls[i] = G1Point(slice(arr, 1504 + starting + i * 64), slice(arr, 1536 + starting + i * 64));\n            ipProof.rs[i] = G1Point(slice(arr, 1504 + starting + (n + i) * 64), slice(arr, 1536 + starting + (n + i) * 64));\n        }\n        ipProof.a = slice(arr, 1504 + starting + n * 128);\n        ipProof.b = slice(arr, 1536 + starting + n * 128);\n        proof.ipProof = ipProof;\n\n        return proof;\n    }\n\n    function addVectors(uint256[m] memory a, uint256[m] memory b) internal pure returns (uint256[m] memory result) {\n        for (uint256 i = 0; i < m; i++) {\n            result[i] = a[i].add(b[i]);\n        }\n    }\n\n    function hadamardInv(G1Point[] memory ps, uint256[m] memory ss) internal view returns (G1Point[m] memory result) {\n        for (uint256 i = 0; i < m; i++) {\n            result[i] = mul(ps[i], ss[i].inv());\n        }\n    }\n\n    function sumScalars(uint256[m] memory ys) internal pure returns (uint256 result) {\n        for (uint256 i = 0; i < m; i++) {\n            result = result.add(ys[i]);\n        }\n    }\n\n    function sumPoints(G1Point[] memory ps) internal view returns (G1Point memory sum) {\n        for (uint256 i = 0; i < m; i++) {\n            sum = add(sum, ps[i]);\n        }\n    }\n\n    function commit(G1Point[m] memory ps, uint256[m] memory ss) internal view returns (G1Point memory result) {\n        for (uint256 i = 0; i < m; i++) { // killed a silly initialization with the 0th indexes. [0x00, 0x00] will be treated as the zero point anyway\n            result = add(result, mul(ps[i], ss[i]));\n        }\n    }\n\n    function powers(uint256 base) internal pure returns (uint256[m] memory powers) {\n        powers[0] = 1;\n        powers[1] = base;\n        for (uint256 i = 2; i < m; i++) {\n            powers[i] = powers[i - 1].mul(base);\n        }\n    }\n\n    function times(uint256[m] memory v, uint256 x) internal pure returns (uint256[m] memory result) {\n        for (uint256 i = 0; i < m; i++) {\n            result[i] = v[i].mul(x);\n        }\n    }\n\n    function slice(bytes memory input, uint256 start) internal pure returns (uint256 result) { // extracts exactly 32 bytes\n        assembly {\n            let m := mload(0x40)\n            mstore(m, mload(add(add(input, 0x20), start))) // why only 0x20?\n            result := mload(m)\n        }\n    }\n\n    struct G1Point {\n        uint256 x;\n        uint256 y;\n    }\n\n    function add(G1Point memory p1, G1Point memory p2) internal view returns (G1Point memory r) {\n        assembly {\n            let m := mload(0x40)\n            mstore(m, mload(p1))\n            mstore(add(m, 0x20), mload(add(p1, 0x20)))\n            mstore(add(m, 0x40), mload(p2))\n            mstore(add(m, 0x60), mload(add(p2, 0x20)))\n            if iszero(staticcall(gas, 0x06, m, 0x80, r, 0x40)) {\n                revert(0, 0)\n            }\n        }\n    }\n\n    function mul(G1Point memory p, uint256 s) internal view returns (G1Point memory r) {\n        assembly {\n            let m := mload(0x40)\n            mstore(m, mload(p))\n            mstore(add(m, 0x20), mload(add(p, 0x20)))\n            mstore(add(m, 0x40), s)\n            if iszero(staticcall(gas, 0x07, m, 0x60, r, 0x40)) {\n                revert(0, 0)\n            }\n        }\n    }\n\n    function neg(G1Point memory p) internal pure returns (G1Point memory) {\n        return G1Point(p.x, FIELD_ORDER - (p.y % FIELD_ORDER)); // p.y should already be reduced mod P?\n    }\n\n    function eq(G1Point memory p1, G1Point memory p2) internal pure returns (bool) {\n        return p1.x == p2.x && p1.y == p2.y;\n    }\n\n    function fieldExp(uint256 base, uint256 exponent) internal view returns (uint256 output) { // warning: mod p, not q\n        uint256 order = FIELD_ORDER;\n        assembly {\n            let m := mload(0x40)\n            mstore(m, 0x20)\n            mstore(add(m, 0x20), 0x20)\n            mstore(add(m, 0x40), 0x20)\n            mstore(add(m, 0x60), base)\n            mstore(add(m, 0x80), exponent)\n            mstore(add(m, 0xa0), order)\n            if iszero(staticcall(gas, 0x05, m, 0xc0, m, 0x20)) { // staticcall or call?\n                revert(0, 0)\n            }\n            output := mload(m)\n        }\n    }\n\n    function mapInto(uint256 seed) internal view returns (G1Point memory) {\n        uint256 y;\n        while (true) {\n            uint256 ySquared = fieldExp(seed, 3) + 3; // addmod instead of add: waste of gas, plus function overhead cost\n            y = fieldExp(ySquared, (FIELD_ORDER + 1) / 4);\n            if (fieldExp(y, 2) == ySquared) {\n                break;\n            }\n            seed += 1;\n        }\n        return G1Point(seed, y);\n    }\n\n    function mapInto(string memory input) internal view returns (G1Point memory) {\n        return mapInto(uint256(keccak256(abi.encodePacked(input))) % FIELD_ORDER);\n    }\n\n    function mapInto(string memory input, uint256 i) internal view returns (G1Point memory) {\n        return mapInto(uint256(keccak256(abi.encodePacked(input, i))) % FIELD_ORDER);\n    }\n}\n",
  "sourcePath": "/Users/benediamond/anonymous-zether/packages/protocol/contracts/ZetherVerifier.sol",
  "compiler": {
    "name": "solc",
    "version": "0.5.4+commit.9549d8ff.Emscripten.clang"
  },
  "schemaVersion": "3.0.9",
  "updatedAt": "2019-11-06T19:30:47.870Z",
  "devdoc": {
    "methods": {}
  },
  "userdoc": {
    "methods": {}
  }
}