{
  "contractName": "ZetherVerifier",
  "abi": [
    {
      "inputs": [
        {
          "name": "_ip",
          "type": "address"
        }
      ],
      "payable": false,
      "stateMutability": "nonpayable",
      "type": "constructor"
    },
    {
      "constant": true,
      "inputs": [
        {
          "components": [
            {
              "name": "x",
              "type": "bytes32"
            },
            {
              "name": "y",
              "type": "bytes32"
            }
          ],
          "name": "CLn",
          "type": "tuple[]"
        },
        {
          "components": [
            {
              "name": "x",
              "type": "bytes32"
            },
            {
              "name": "y",
              "type": "bytes32"
            }
          ],
          "name": "CRn",
          "type": "tuple[]"
        },
        {
          "components": [
            {
              "name": "x",
              "type": "bytes32"
            },
            {
              "name": "y",
              "type": "bytes32"
            }
          ],
          "name": "C",
          "type": "tuple[]"
        },
        {
          "components": [
            {
              "name": "x",
              "type": "bytes32"
            },
            {
              "name": "y",
              "type": "bytes32"
            }
          ],
          "name": "D",
          "type": "tuple"
        },
        {
          "components": [
            {
              "name": "x",
              "type": "bytes32"
            },
            {
              "name": "y",
              "type": "bytes32"
            }
          ],
          "name": "y",
          "type": "tuple[]"
        },
        {
          "name": "epoch",
          "type": "uint256"
        },
        {
          "components": [
            {
              "name": "x",
              "type": "bytes32"
            },
            {
              "name": "y",
              "type": "bytes32"
            }
          ],
          "name": "u",
          "type": "tuple"
        },
        {
          "name": "proof",
          "type": "bytes"
        }
      ],
      "name": "verifyTransfer",
      "outputs": [
        {
          "name": "",
          "type": "bool"
        }
      ],
      "payable": false,
      "stateMutability": "view",
      "type": "function"
    }
  ],
  "bytecode": "0x60806040523480156200001157600080fd5b5060405160208062004faf833981018060405262000033919081019062000090565b806000806101000a81548173ffffffffffffffffffffffffffffffffffffffff021916908373ffffffffffffffffffffffffffffffffffffffff16021790555050620000f0565b6000620000888251620000bc565b905092915050565b600060208284031215620000a357600080fd5b6000620000b3848285016200007a565b91505092915050565b6000620000c982620000d0565b9050919050565b600073ffffffffffffffffffffffffffffffffffffffff82169050919050565b614eaf80620001006000396000f3fe608060405234801561001057600080fd5b5060043610610048576000357c010000000000000000000000000000000000000000000000000000000090048063d2d5e70a1461004d575b600080fd5b610067600480360361006291908101906142b5565b61007d565b604051610074919061498d565b60405180910390f35b6000610087613c72565b898160000181905250888160200181905250878160400181905250868160600181905250858160800181905250848160a0018181525050838160c001819052506100cf613cbd565b6100d8846100f4565b90506100e48282610bd6565b9250505098975050505050505050565b6100fc613cbd565b6040805190810160405280610112846000612b56565b8152602001610122846020612b56565b81525081600001819052506040805190810160405280610143846040612b56565b8152602001610153846060612b56565b81525081602001819052506040805190810160405280610174846080612b56565b81526020016101848460a0612b56565b815250816040018190525060408051908101604052806101a58460c0612b56565b81526020016101b58460e0612b56565b815250816060018190525060408051908101604052806101d784610100612b56565b81526020016101e884610120612b56565b8152508160800181905250604080519081016040528061020a84610140612b56565b815260200161021b84610160612b56565b8152508160a00181905250604080519081016040528061023d84610180612b56565b815260200161024e846101a0612b56565b8152508160c001819052506040805190810160405280610270846101c0612b56565b8152602001610281846101e0612b56565b8152508160e0018190525060006102406107008451038115156102a057fe5b049050806040519080825280602002602001820160405280156102dd57816020015b6102ca613dd2565b8152602001906001900390816102c25790505b508261010001819052508060405190808252806020026020018201604052801561032157816020015b61030e613dd2565b8152602001906001900390816103065790505b508261012001819052508060405190808252806020026020018201604052801561036557816020015b610352613dd2565b81526020019060019003908161034a5790505b50826101400181905250806040519080825280602002602001820160405280156103a957816020015b610396613dd2565b81526020019060019003908161038e5790505b50826101600181905250806040519080825280602002602001820160405280156103ed57816020015b6103da613dd2565b8152602001906001900390816103d25790505b508261018001819052508060405190808252806020026020018201604052801561043157816020015b61041e613dd2565b8152602001906001900390816104165790505b50826101a001819052508060405190808252806020026020018201604052801561047557816020015b610462613dd2565b81526020019060019003908161045a5790505b50826101c00181905250806040519080825280602002602001820160405280156104b957816020015b6104a6613dd2565b81526020019060019003908161049e5790505b50826101e00181905250806002026040519080825280602002602001820160405280156104f55781602001602082028038833980820191505090505b5082610200018190525060008090505b81811015610884576040805190810160405280610529866040850261020001612b56565b815260200161053f866040850261022001612b56565b8152508361010001518281518110151561055557fe5b9060200190602002018190525060408051908101604052806105808660408587010261020001612b56565b81526020016105988660408587010261022001612b56565b815250836101200151828151811015156105ae57fe5b9060200190602002018190525060408051908101604052806105dc8660408502608087026102000101612b56565b81526020016105f78660408502608087026102200101612b56565b8152508361014001518281518110151561060d57fe5b90602001906020020181905250604080519081016040528061063b866040850260c087026102000101612b56565b8152602001610656866040850260c087026102200101612b56565b8152508361016001518281518110151561066c57fe5b90602001906020020181905250604080519081016040528061069b866040850261010087026102000101612b56565b81526020016106b7866040850261010087026102200101612b56565b815250836101800151828151811015156106cd57fe5b9060200190602002018190525060408051908101604052806106fc866040850261014087026102000101612b56565b8152602001610718866040850261014087026102200101612b56565b815250836101a001518281518110151561072e57fe5b90602001906020020181905250604080519081016040528061075d866040850261018087026102000101612b56565b8152602001610779866040850261018087026102200101612b56565b815250836101c001518281518110151561078f57fe5b9060200190602002018190525060408051908101604052806107be86604085026101c087026102000101612b56565b81526020016107da86604085026101c087026102200101612b56565b815250836101e00151828151811015156107f057fe5b90602001906020020181905250610814846020830261020085026102000101612b56565b600190048361020001518281518110151561082b57fe5b9060200190602002018181525050610850846020830261022085026102000101612b56565b6001900483610200015183830181518110151561086957fe5b90602001906020020181815250508080600101915050610505565b5060006102408202905061089c848261020001612b56565b60019004836102200181815250506108b8848261022001612b56565b60019004836102400181815250506108d4848261024001612b56565b600190048361026001818152505060408051908101604052806040805190810160405280610906888661026001612b56565b8152602001610919888661028001612b56565b8152508152602001604080519081016040528061093a88866102a001612b56565b815260200161094d88866102c001612b56565b81525081525083610280018190525061096a84826102e001612b56565b60019004836102a0018181525050610986848261030001612b56565b60019004836102c00181815250506109a2848261032001612b56565b60019004836102e00181815250506109be848261034001612b56565b60019004836103000181815250506109da848261036001612b56565b60019004836103200181815250506109f6848261038001612b56565b6001900483610340018181525050610a1284826103a001612b56565b6001900483610360018181525050610a28613df2565b6006604051908082528060200260200182016040528015610a6357816020015b610a50613dd2565b815260200190600190039081610a485790505b5081600001819052506006604051908082528060200260200182016040528015610aa757816020015b610a94613dd2565b815260200190600190039081610a8c5790505b50816020018190525060008090505b6006811015610b82576040805190810160405280610add8860408502876103c00101612b56565b8152602001610af58860408502876103e00101612b56565b815250826000015182815181101515610b0a57fe5b906020019060200201819052506040805190810160405280610b388860408560060102876103c00101612b56565b8152602001610b538860408560060102876103e00101612b56565b815250826020015182815181101515610b6857fe5b906020019060200201819052508080600101915050610ab6565b50610b9585610300846103c00101612b56565b60019004816040018181525050610bb485610300846103e00101612b56565b6001900481606001818152505080846103800181905250839350505050919050565b600080610c2e846000015185602001518660400151876060015188608001518960a00151604051602001610c0f969594939291906148af565b6040516020818303038152906040528051906020012060019004612b6f565b9050610c38613e1b565b610c9b82856000015186602001518760400151886060015189608001518a60a001518b60c001518c60e00151604051602001610c7c99989796959493929190614c19565b6040516020818303038152906040528051906020012060019004612b6f565b816040018181525050610d1381604001518561010001518661012001518761014001518861016001518961018001518a6101a001518b6101c001518c6101e00151604051602001610cf499989796959493929190614ae2565b6040516020818303038152906040528051906020012060019004612b6f565b816060018181525050600284610200015151811515610d2e57fe5b04816000018181525050806000015160020a8160200181815250508060000151600202604051908082528060200260200182016040528015610d8a57816020015b610d77613eca565b815260200190600190039081610d6f5790505b508160c0018190525060008090505b8160000151600202811015610e6b5784610200015181815181101515610dbb57fe5b906020019060200201518260c0015182815181101515610dd757fe5b906020019060200201516001600281101515610def57fe5b602002018181525050610e2b85610200015182815181101515610e0e57fe5b906020019060200201518360600151612ba490919063ffffffff16565b8260c0015182815181101515610e3d57fe5b906020019060200201516000600281101515610e5557fe5b6020020181815250508080600101915050610d99565b5060008090505b8160000151600202811015610fb357610f9d610f898360c0015183815181101515610e9957fe5b906020019060200201516001600281101515610eb157fe5b60200201516000809054906101000a900473ffffffffffffffffffffffffffffffffffffffff1673ffffffffffffffffffffffffffffffffffffffff166383ec1a49856040518263ffffffff167c0100000000000000000000000000000000000000000000000000000000028152600401610f2c9190614a9e565b604080518083038186803b158015610f4357600080fd5b505afa158015610f57573d6000803e3d6000fd5b505050506040513d601f19601f82011682018060405250610f7b9190810190614409565b612be490919063ffffffff16565b836101000151612c1f90919063ffffffff16565b8261010001819052508080600101915050610e72565b5061102c610fed610fd9866102200151610fcb612c65565b612be490919063ffffffff16565b836101000151612c1f90919063ffffffff16565b61101e866040015161101085606001518960600151612be490919063ffffffff16565b612c1f90919063ffffffff16565b612ccd90919063ffffffff16565b151561106d576040517f08c379a000000000000000000000000000000000000000000000000000000000815260040161106490614a7e565b60405180910390fd5b604080519081016040528060006001028152602001600060010281525081610100018190525060008090505b81600001516002028110156112305761121a6112066111336110f68560c00151858151811015156110c657fe5b9060200190602002015160016002811015156110de57fe5b60200201518660600151612ba490919063ffffffff16565b8560c001518581518110151561110857fe5b90602001906020020151600160028110151561112057fe5b6020020151612cf590919063ffffffff16565b6000809054906101000a900473ffffffffffffffffffffffffffffffffffffffff1673ffffffffffffffffffffffffffffffffffffffff166383ec1a49856040518263ffffffff167c01000000000000000000000000000000000000000000000000000000000281526004016111a99190614a9e565b604080518083038186803b1580156111c057600080fd5b505afa1580156111d4573d6000803e3d6000fd5b505050506040513d601f19601f820116820180604052506111f89190810190614409565b612be490919063ffffffff16565b836101000151612c1f90919063ffffffff16565b8261010001819052508080600101915050611099565b506112a961126a611256866102400151611248612c65565b612be490919063ffffffff16565b836101000151612c1f90919063ffffffff16565b61129b8660a0015161128d85606001518960800151612be490919063ffffffff16565b612c1f90919063ffffffff16565b612ccd90919063ffffffff16565b15156112ea576040517f08c379a00000000000000000000000000000000000000000000000000000000081526004016112e190614a5e565b60405180910390fd5b6115916114386113648360c00151846000015181518110151561130957fe5b90602001906020020151600060028110151561132157fe5b60200201518460c00151600081518110151561133957fe5b90602001906020020151600060028110151561135157fe5b6020020151612cf590919063ffffffff16565b6000809054906101000a900473ffffffffffffffffffffffffffffffffffffffff1673ffffffffffffffffffffffffffffffffffffffff166383ec1a4960016040518263ffffffff167c01000000000000000000000000000000000000000000000000000000000281526004016113db91906149c3565b604080518083038186803b1580156113f257600080fd5b505afa158015611406573d6000803e3d6000fd5b505050506040513d601f19601f8201168201806040525061142a9190810190614409565b612be490919063ffffffff16565b6115836114af8460c00151856000015181518110151561145457fe5b90602001906020020151600160028110151561146c57fe5b60200201518560c00151600081518110151561148457fe5b90602001906020020151600160028110151561149c57fe5b6020020151612cf590919063ffffffff16565b6000809054906101000a900473ffffffffffffffffffffffffffffffffffffffff1673ffffffffffffffffffffffffffffffffffffffff166383ec1a4960006040518263ffffffff167c010000000000000000000000000000000000000000000000000000000002815260040161152691906149a8565b604080518083038186803b15801561153d57600080fd5b505afa158015611551573d6000803e3d6000fd5b505050506040513d601f19601f820116820180604052506115759190810190614409565b612be490919063ffffffff16565b612c1f90919063ffffffff16565b8161010001819052506116126115d36115bf8661026001516115b1612c65565b612be490919063ffffffff16565b836101000151612c1f90919063ffffffff16565b6116048660c001516115f685606001518960e00151612be490919063ffffffff16565b612c1f90919063ffffffff16565b612ccd90919063ffffffff16565b1515611653576040517f08c379a000000000000000000000000000000000000000000000000000000000815260040161164a90614a1e565b60405180910390fd5b6116608160c00151612d2c565b8160e0018190525061167a8160e001518660400151612e24565b8161016001819052506116958160e001518660800151612e24565b81610180018190525060008090505b81602001518110156117b55761172361170f8360e00151838151811015156116c857fe5b9060200190602002015160006002811015156116e057fe5b60200201518860000151848151811015156116f757fe5b90602001906020020151612be490919063ffffffff16565b836101200151612c1f90919063ffffffff16565b82610120018190525061179f61178b8360e001518381518110151561174457fe5b90602001906020020151600060028110151561175c57fe5b602002015188602001518481518110151561177357fe5b90602001906020020151612be490919063ffffffff16565b836101400151612c1f90919063ffffffff16565b82610140018190525080806001019150506116a4565b50600181608001818152505060008090505b81602001518110156119085761184761183383608001518461016001516002858115156117f057fe5b048151811015156117fd57fe5b9060200190602002015160028581151561181357fe5b0660028110151561182057fe5b6020020151612be490919063ffffffff16565b836101a00151612c1f90919063ffffffff16565b826101a001819052506118c46118b0836080015184610180015160028581151561186d57fe5b0481518110151561187a57fe5b9060200190602002015160028581151561189057fe5b0660028110151561189d57fe5b6020020151612be490919063ffffffff16565b836101c00151612c1f90919063ffffffff16565b826101c0018190525060008111156118fb576118f182604001518360800151612cf590919063ffffffff16565b8260800181815250505b80806001019150506117c7565b5060018160a001818152505060008090505b8160000151811015611cdb576119786119646119398460a001516130fe565b8761010001518481518110151561194c57fe5b90602001906020020151612be490919063ffffffff16565b836101200151612c1f90919063ffffffff16565b8261012001819052506119d36119bf6119948460a001516130fe565b876101200151848151811015156119a757fe5b90602001906020020151612be490919063ffffffff16565b836101400151612c1f90919063ffffffff16565b826101400181905250611a59611a1a6119ef8460a001516130fe565b87610140015184815181101515611a0257fe5b90602001906020020151612be490919063ffffffff16565b8361016001516000815181101515611a2e57fe5b906020019060200201516000600281101515611a4657fe5b6020020151612c1f90919063ffffffff16565b8261016001516000815181101515611a6d57fe5b906020019060200201516000600281101515611a8557fe5b6020020181905250611adf611acb611aa08460a001516130fe565b87610160015184815181101515611ab357fe5b90602001906020020151612be490919063ffffffff16565b836102000151612c1f90919063ffffffff16565b826102000181905250611b65611b26611afb8460a001516130fe565b87610180015184815181101515611b0e57fe5b90602001906020020151612be490919063ffffffff16565b8361018001516000815181101515611b3a57fe5b906020019060200201516000600281101515611b5257fe5b6020020151612c1f90919063ffffffff16565b8261018001516000815181101515611b7957fe5b906020019060200201516000600281101515611b9157fe5b6020020181905250611beb611bd7611bac8460a001516130fe565b876101a0015184815181101515611bbf57fe5b90602001906020020151612be490919063ffffffff16565b836101e00151612c1f90919063ffffffff16565b826101e00181905250611c46611c32611c078460a001516130fe565b876101c0015184815181101515611c1a57fe5b90602001906020020151612be490919063ffffffff16565b836101a00151612c1f90919063ffffffff16565b826101a00181905250611ca1611c8d611c628460a001516130fe565b876101e0015184815181101515611c7557fe5b90602001906020020151612be490919063ffffffff16565b836101c00151612c1f90919063ffffffff16565b826101c00181905250611cc582606001518360a00151612cf590919063ffffffff16565b8260a0018181525050808060010191505061191a565b50611d0e611cfa8260a001518760600151612be490919063ffffffff16565b826102000151612c1f90919063ffffffff16565b816102000181905250611d4c611d388260a00151611d2a61312a565b612be490919063ffffffff16565b826101e00151612c1f90919063ffffffff16565b816101e00181905250611d5d613eec565b611d948260600151604051602001611d759190614a9e565b6040516020818303038152906040528051906020012060019004612b6f565b816000018181525050600181602001516000604081101515611db257fe5b6020020181815250506001816101000181815250506000600190505b6040811015611e6757611e078260000151836020015160018403604081101515611df457fe5b6020020151612cf590919063ffffffff16565b826020015182604081101515611e1957fe5b602002018181525050611e50826020015182604081101515611e3757fe5b602002015183610100015161319290919063ffffffff16565b826101000181815250508080600101915050611dce565b50611e9f8160000151604051602001611e809190614a9e565b6040516020818303038152906040528051906020012060019004612b6f565b8160400181815250506040805190810160405280611ecb600284604001516131c990919063ffffffff16565b8152602001611ee8600384604001516131c990919063ffffffff16565b8152508160600181905250611f4a8160400151611f3c83606001516001600281101515611f1157fe5b602002015184606001516000600281101515611f2957fe5b602002015161319290919063ffffffff16565b612cf590919063ffffffff16565b8160a0018181525050611fdb611f888260a00151611f7a6401000000008560a00151612cf590919063ffffffff16565b612ba490919063ffffffff16565b611fcd611fb984606001516000600281101515611fa157fe5b60200201518560400151612ba490919063ffffffff16565b846101000151612cf590919063ffffffff16565b612ba490919063ffffffff16565b81610100018181525050612002816101000151866102a00151612ba490919063ffffffff16565b8160e001818152505060008090505b60208110156120ba576120478160020a8360600151600060028110151561203457fe5b6020020151612cf590919063ffffffff16565b82608001518260408110151561205957fe5b60200201818152505061208f8160020a8360600151600160028110151561207c57fe5b6020020151612cf590919063ffffffff16565b8260800151602083016040811015156120a457fe5b6020020181815250508080600101915050612011565b506120f981604001518661028001516040516020016120da929190614ab9565b6040516020818303038152906040528051906020012060019004612b6f565b8160c001818152505061218761214a6121238360c001518460c00151612cf590919063ffffffff16565b876102800151600160028110151561213757fe5b6020020151612be490919063ffffffff16565b6121798360c00151886102800151600060028110151561216657fe5b6020020151612be490919063ffffffff16565b612c1f90919063ffffffff16565b816101200181905250612198613f58565b6122166121eb6121ac886102e001516130fe565b85610180015160008151811015156121c057fe5b9060200190602002015160006002811015156121d857fe5b6020020151612be490919063ffffffff16565b612208886103000151866101e00151612be490919063ffffffff16565b612c1f90919063ffffffff16565b8160200181905250612272612245612232886102e001516130fe565b8960600151612be490919063ffffffff16565b61226488610320015161225661312a565b612be490919063ffffffff16565b612c1f90919063ffffffff16565b816040018190525061240a6123dd612341612291896102e001516130fe565b6123336122c3876060015160016002811015156122aa57fe5b6020020151896101200151612be490919063ffffffff16565b6123256122e6896060015160006002811015156122dc57fe5b60200201516130fe565b8a610160015160008151811015156122fa57fe5b90602001906020020151600060028110151561231257fe5b6020020151612be490919063ffffffff16565b612c1f90919063ffffffff16565b612be490919063ffffffff16565b6123cf8961030001516123c161237c8860600151600160028110151561236357fe5b60200201518a6101400151612be490919063ffffffff16565b6123b361239f8a60600151600060028110151561239557fe5b60200201516130fe565b8b6102000151612be490919063ffffffff16565b612c1f90919063ffffffff16565b612be490919063ffffffff16565b612c1f90919063ffffffff16565b6123fc8861034001516123ee61312a565b612be490919063ffffffff16565b612c1f90919063ffffffff16565b816060018190525061246561243a612426886102e001516130fe565b856101a00151612be490919063ffffffff16565b612457886103200151866101c00151612be490919063ffffffff16565b612c1f90919063ffffffff16565b816080018190525061253f6124976124818861034001516130fe565b61248961312a565b612be490919063ffffffff16565b6125316124b98961036001516124ab612c65565b612be490919063ffffffff16565b6125236124d88860a001518c6102e00151612cf590919063ffffffff16565b6125156124e9896101200151613236565b6125078a60e001516124f961312a565b612be490919063ffffffff16565b612c1f90919063ffffffff16565b612be490919063ffffffff16565b612c1f90919063ffffffff16565b612c1f90919063ffffffff16565b8160a0018190525061258a6040805190810160405280600681526020017f5a657468657200000000000000000000000000000000000000000000000000008152508860a0015161328b565b8160c001819052506125e36125b96125a6886102e001516130fe565b8960c00151612be490919063ffffffff16565b6125d58861030001518460c00151612be490919063ffffffff16565b612c1f90919063ffffffff16565b8160e001819052506126468260c0015182602001518360400151846060015185608001518660a001518760e001516040516020016126279796959493929190614ba7565b6040516020818303038152906040528051906020012060019004612b6f565b816000018181525050856102e00151816000015114151561269c576040517f08c379a0000000000000000000000000000000000000000000000000000000008152600401612693906149fe565b60405180910390fd5b6126a4613fc8565b6126db82600001516040516020016126bc9190614a9e565b6040516020818303038152906040528051906020012060019004612b6f565b81608001818152505061270281608001516126f461312a565b612be490919063ffffffff16565b81602001819052506040805190808252806020026020018201604052801561274457816020015b612731613dd2565b8152602001906001900390816127295790505b50816040018190525060008090505b604081101561291d5761285161277e85602001518360408110151561277457fe5b60200201516132fb565b6000809054906101000a900473ffffffffffffffffffffffffffffffffffffffff1673ffffffffffffffffffffffffffffffffffffffff16633844923b846040518263ffffffff167c01000000000000000000000000000000000000000000000000000000000281526004016127f49190614a9e565b604080518083038186803b15801561280b57600080fd5b505afa15801561281f573d6000803e3d6000fd5b505050506040513d601f19601f820116820180604052506128439190810190614409565b612be490919063ffffffff16565b82604001518281518110151561286357fe5b906020019060200201819052506129086128f56128cb86608001518460408110151561288b57fe5b60200201516128bd88604001518960200151876040811015156128aa57fe5b6020020151612cf590919063ffffffff16565b61319290919063ffffffff16565b8460400151848151811015156128dd57fe5b90602001906020020151612be490919063ffffffff16565b8360600151612c1f90919063ffffffff16565b82606001819052508080600101915050612753565b5061299c816060015161298e61294f61293987604001516130fe565b612941613331565b612be490919063ffffffff16565b61298061296d8860c001518d60200151612be490919063ffffffff16565b8c60000151612c1f90919063ffffffff16565b612c1f90919063ffffffff16565b612c1f90919063ffffffff16565b81600001819052506129e16129ce6129b8896102c001516130fe565b6129c0612c65565b612be490919063ffffffff16565b8260000151612c1f90919063ffffffff16565b8160000181905250612a1b612a08886102a001518360200151612be490919063ffffffff16565b8260000151612c1f90919063ffffffff16565b81600001819052506000809054906101000a900473ffffffffffffffffffffffffffffffffffffffff1673ffffffffffffffffffffffffffffffffffffffff166397fa72ae8260400151836020015184600001518b610380015186608001516040518663ffffffff167c0100000000000000000000000000000000000000000000000000000000028152600401612ab695949392919061492c565b60206040518083038186803b158015612ace57600080fd5b505afa158015612ae2573d6000803e3d6000fd5b505050506040513d601f19601f82011682018060405250612b0691908101906143e0565b1515612b47576040517f08c379a0000000000000000000000000000000000000000000000000000000008152600401612b3e90614a3e565b60405180910390fd5b60019550505050505092915050565b6000604051826020850101518152805191505092915050565b60007f30644e72e131a029b85045b68181585d2833e84879b9709143e1f593f000000182811515612b9c57fe5b069050919050565b600081831015612bd85782827f30644e72e131a029b85045b68181585d2833e84879b9709143e1f593f00000010301612bdc565b8183035b905092915050565b612bec61400b565b604051835181526020840151602082015282604082015260408260608360075afa1515612c1857600080fd5b5092915050565b612c2761400b565b6040518351815260208401516020820152825160408201526020830151606082015260408260808360065afa1515612c5e57600080fd5b5092915050565b612c6d61400b565b60408051908101604052807f01b7de3dcf359928dd19f643d54dc487478b68a5b2634f9f1903c9fb78331aef60010281526020017f2bda7d3ae6a557c716477c108be0d0f94abc6c4dc6b1bd93caccbcceaaa71d6b600102815250905090565b600081600001518360000151148015612ced575081602001518360200151145b905092915050565b60007f30644e72e131a029b85045b68181585d2833e84879b9709143e1f593f0000001801515612d2157fe5b828409905092915050565b6060600060028351811515612d3d57fe5b04905060008160020a905080604051908082528060200260200182016040528015612d8257816020015b612d6f613eca565b815260200190600190039081612d675790505b50925060008090505b6002811015612e1c576060612daa848302856001850102600189613398565b905060008090505b83811015612e0d578181815181101515612dc857fe5b906020019060200201518682815181101515612de057fe5b9060200190602002015184600281101515612df757fe5b6020020181815250508080600101915050612db2565b50508080600101915050612d8b565b505050919050565b60606000835190506000600282811515612e3a57fe5b04905080604051908082528060200260200182016040528015612e7757816020015b612e6461402b565b815260200190600190039081612e5c5790505b5092506060612e8785600061354d565b9050606083604051908082528060200260200182016040528015612eba5781602001602082028038833980820191505090505b50905060008090505b60028110156130f35760008090505b85811015612f3a578886828803811515612ee857fe5b06815181101515612ef557fe5b9060200190602002015182600281101515612f0c57fe5b60200201518382815181101515612f1f57fe5b90602001906020020181815250508080600101915050612ed2565b50612f44826137db565b9150606084604051908082528060200260200182016040528015612f8257816020015b612f6f613dd2565b815260200190600190039081612f675790505b509050600060029050612f94816132fb565b905060008090505b868110156130755761304d8261303f612ff0888b8601815181101515612fbe57fe5b906020019060200201518a8c8701815181101515612fd857fe5b90602001906020020151612be490919063ffffffff16565b613031898681518110151561300157fe5b906020019060200201518b8781518110151561301957fe5b90602001906020020151612be490919063ffffffff16565b612c1f90919063ffffffff16565b612be490919063ffffffff16565b838281518110151561305b57fe5b906020019060200201819052508080600101915050612f9c565b5061308182600161354d565b915060008090505b868110156130e357828181518110151561309f57fe5b9060200190602002015189828151811015156130b757fe5b90602001906020020151856002811015156130ce57fe5b60200201819052508080600101915050613089565b5050508080600101915050612ec3565b505050505092915050565b6000817f30644e72e131a029b85045b68181585d2833e84879b9709143e1f593f0000001039050919050565b61313261400b565b60408051908101604052807f077da99d806abd13c9f15ece5398525119d11e11e9836b2ee7d23f6159ad87d460010281526020017f01485efa927f2ad41bff567eec88f32fb0a0f706588b4e41a8d587d008b7f875600102815250905090565b60007f30644e72e131a029b85045b68181585d2833e84879b9709143e1f593f00000018015156131be57fe5b828408905092915050565b6000807f30644e72e131a029b85045b68181585d2833e84879b9709143e1f593f0000001905060405160208152602080820152602060408201528460608201528360808201528160a082015260208160c08360055afa151561322a57600080fd5b80519250505092915050565b61323e61400b565b6040805190810160405280836000015181526020018360200151600190047f30644e72e131a029b85045b68181585d97816a916871ca8d3c208c16d87cfd47036001028152509050919050565b61329361400b565b6132f37f30644e72e131a029b85045b68181585d97816a916871ca8d3c208c16d87cfd4784846040516020016132ca929190614887565b60405160208183030381529060405280519060200120600190048115156132ed57fe5b06613a03565b905092915050565b600061332a8260027f30644e72e131a029b85045b68181585d2833e84879b9709143e1f593f0000001036131c9565b9050919050565b61333961400b565b60408051908101604052807e715f13ea08d6b51bedcde3599d8e12163e090921309d5aafc9b5bfaadbcda060010281526020017f27aceab598af7bf3d16ca9d40fe186c489382c21bb9d22b19cb3af8b751b959f600102815250905090565b6060600085850360020a9050806040519080825280602002602001820160405280156133d35781602001602082028038833980820191505090505b5091508585141561340557838260008151811015156133ee57fe5b906020019060200201818152505081915050613545565b6001850394506060613455878761344f878a81518110151561342357fe5b90602001906020020151600060028110151561343b57fe5b602002015189612cf590919063ffffffff16565b87613398565b905060606134a1888861349b888b81518110151561346f57fe5b90602001906020020151600160028110151561348757fe5b60200201518a612cf590919063ffffffff16565b88613398565b905060008090505b6002848115156134b557fe5b048110156135405782818151811015156134cb57fe5b9060200190602002015185828151811015156134e357fe5b906020019060200201818152505081818151811015156134ff57fe5b906020019060200201518560028681151561351657fe5b04830181518110151561352557fe5b906020019060200201818152505080806001019150506134a9565b505050505b949350505050565b6060600083519050600181141561356757839150506137d5565b600060028281151561357557fe5b061415156135b8576040517f08c379a00000000000000000000000000000000000000000000000000000000081526004016135af906149de565b60405180910390fd5b60006135fc8263100000008115156135cc57fe5b047f14a3074b02521e3b1ed9852e5028452693e87be4e910500c7ba9bbddb2f46edd6131c990919063ffffffff16565b9050600060019050841561361a57613613826132fb565b9150600290505b613623816132fb565b9050606061363b613635886000613aa9565b8761354d565b9050606061365361364d896001613aa9565b8861354d565b90506000600190508560405190808252806020026020018201604052801561369557816020015b613682613dd2565b81526020019060019003908161367a5790505b50965060008090505b6002878115156136aa57fe5b048110156137cd576136ba61400b565b6136e48385848151811015156136cc57fe5b90602001906020020151612be490919063ffffffff16565b9050613722866137148388868151811015156136fc57fe5b90602001906020020151612c1f90919063ffffffff16565b612be490919063ffffffff16565b898381518110151561373057fe5b906020019060200201819052506137818661377361374d84613236565b888681518110151561375b57fe5b90602001906020020151612c1f90919063ffffffff16565b612be490919063ffffffff16565b8960028a81151561378e57fe5b04840181518110151561379d57fe5b906020019060200201819052506137bd8784612cf590919063ffffffff16565b925050808060010191505061369e565b505050505050505b92915050565b606060008251905060018114156137f557829150506139fe565b600060028281151561380357fe5b06141515613846576040517f08c379a000000000000000000000000000000000000000000000000000000000815260040161383d906149de565b60405180910390fd5b600061388a82631000000081151561385a57fe5b047f14a3074b02521e3b1ed9852e5028452693e87be4e910500c7ba9bbddb2f46edd6131c990919063ffffffff16565b905060606138a161389c866000613b5c565b6137db565b905060606138b86138b3876001613b5c565b6137db565b9050600060019050846040519080825280602002602001820160405280156138ef5781602001602082028038833980820191505090505b50955060008090505b60028681151561390457fe5b048110156139f757600061393883858481518110151561392057fe5b90602001906020020151612cf590919063ffffffff16565b905061396481868481518110151561394c57fe5b9060200190602002015161319290919063ffffffff16565b888381518110151561397257fe5b90602001906020020181815250506139aa81868481518110151561399257fe5b90602001906020020151612ba490919063ffffffff16565b886002898115156139b757fe5b0484018151811015156139c657fe5b90602001906020020181815250506139e78684612cf590919063ffffffff16565b92505080806001019150506138f8565b5050505050505b919050565b613a0b61400b565b60005b600115613a865760006003613a24856003613c05565b019050613a6081600460017f30644e72e131a029b85045b68181585d97816a916871ca8d3c208c16d87cfd4701811515613a5a57fe5b04613c05565b915080613a6e836002613c05565b1415613a7a5750613a86565b60018401935050613a0e565b604080519081016040528084600102815260200182600102815250915050919050565b606060028351811515613ab857fe5b04604051908082528060200260200182016040528015613af257816020015b613adf613dd2565b815260200190600190039081613ad75790505b50905060008090505b60028451811515613b0857fe5b04811015613b555783838260020201815181101515613b2357fe5b906020019060200201518282815181101515613b3b57fe5b906020019060200201819052508080600101915050613afb565b5092915050565b606060028351811515613b6b57fe5b04604051908082528060200260200182016040528015613b9a5781602001602082028038833980820191505090505b50905060008090505b60028451811515613bb057fe5b04811015613bfe5783838260020201815181101515613bcb57fe5b906020019060200201518282815181101515613be357fe5b90602001906020020181815250508080600101915050613ba3565b5092915050565b6000807f30644e72e131a029b85045b68181585d97816a916871ca8d3c208c16d87cfd47905060405160208152602080820152602060408201528460608201528360808201528160a082015260208160c08360055afa1515613c6657600080fd5b80519250505092915050565b61012060405190810160405280606081526020016060815260200160608152602001613c9c613dd2565b81526020016060815260200160008152602001613cb7613dd2565b81525090565b61056060405190810160405280613cd2613dd2565b8152602001613cdf613dd2565b8152602001613cec613dd2565b8152602001613cf9613dd2565b8152602001613d06613dd2565b8152602001613d13613dd2565b8152602001613d20613dd2565b8152602001613d2d613dd2565b8152602001606081526020016060815260200160608152602001606081526020016060815260200160608152602001606081526020016060815260200160608152602001600081526020016000815260200160008152602001613d8e61402b565b815260200160008152602001600081526020016000815260200160008152602001600081526020016000815260200160008152602001613dcc614059565b81525090565b604080519081016040528060008019168152602001600080191681525090565b608060405190810160405280606081526020016060815260200160008152602001600081525090565b610300604051908101604052806000815260200160008152602001600081526020016000815260200160008152602001600081526020016060815260200160608152602001613e68613dd2565b8152602001613e75613dd2565b8152602001613e82613dd2565b81526020016060815260200160608152602001613e9d613dd2565b8152602001613eaa613dd2565b8152602001613eb7613dd2565b8152602001613ec4613dd2565b81525090565b6040805190810160405280600290602082028038833980820191505090505090565b6111406040519081016040528060008152602001613f08614082565b815260200160008152602001613f1c613eca565b8152602001613f29614082565b815260200160008152602001600081526020016000815260200160008152602001613f52613dd2565b81525090565b6101e06040519081016040528060008152602001613f74613dd2565b8152602001613f81613dd2565b8152602001613f8e613dd2565b8152602001613f9b613dd2565b8152602001613fa8613dd2565b8152602001613fb5613dd2565b8152602001613fc2613dd2565b81525090565b61010060405190810160405280613fdd613dd2565b8152602001613fea613dd2565b815260200160608152602001613ffe613dd2565b8152602001600081525090565b604080519081016040528060008019168152602001600080191681525090565b6080604051908101604052806002905b614043613dd2565b81526020019060019003908161403b5790505090565b608060405190810160405280606081526020016060815260200160008152602001600081525090565b61080060405190810160405280604090602082028038833980820191505090505090565b600082601f83011215156140b957600080fd5b81356140cc6140c782614cd6565b614ca9565b915081818352602084019350602081019050838560408402820111156140f157600080fd5b60005b83811015614121578161410788826141bd565b8452602084019350604083019250506001810190506140f4565b5050505092915050565b60006141378251614de5565b905092915050565b600061414b8235614df1565b905092915050565b600061415f8251614df1565b905092915050565b600082601f830112151561417a57600080fd5b813561418d61418882614cfe565b614ca9565b915080825260208301602083018583830111156141a957600080fd5b6141b4838284614e29565b50505092915050565b6000604082840312156141cf57600080fd5b6141d96040614ca9565b905060006141e98482850161413f565b60008301525060206141fd8482850161413f565b60208301525092915050565b60006040828403121561421b57600080fd5b6142256040614ca9565b905060006142358482850161413f565b60008301525060206142498482850161413f565b60208301525092915050565b60006040828403121561426757600080fd5b6142716040614ca9565b9050600061428184828501614153565b600083015250602061429584828501614153565b60208301525092915050565b60006142ad8235614dfb565b905092915050565b600080600080600080600080610140898b0312156142d257600080fd5b600089013567ffffffffffffffff8111156142ec57600080fd5b6142f88b828c016140a6565b985050602089013567ffffffffffffffff81111561431557600080fd5b6143218b828c016140a6565b975050604089013567ffffffffffffffff81111561433e57600080fd5b61434a8b828c016140a6565b965050606061435b8b828c01614209565b95505060a089013567ffffffffffffffff81111561437857600080fd5b6143848b828c016140a6565b94505060c06143958b828c016142a1565b93505060e06143a68b828c01614209565b92505061012089013567ffffffffffffffff8111156143c457600080fd5b6143d08b828c01614167565b9150509295985092959890939650565b6000602082840312156143f257600080fd5b60006144008482850161412b565b91505092915050565b60006040828403121561441b57600080fd5b600061442984828501614255565b91505092915050565b600061443e838361478a565b60408301905092915050565b61445381614d41565b61445d8184614d7c565b925061446882614d2a565b60005b828110156144965761447e858351614432565b945061448982614d62565b915060018101905061446b565b5050505050565b60006144a882614d4c565b6144b28185614d87565b93506144bd83614d34565b60005b828110156144eb576144d3868351614432565b95506144de82614d6f565b91506001810190506144c0565b50849250505092915050565b600061450282614d4c565b61450c8185614d98565b935061451783614d34565b60005b828110156145455761452d868351614432565b955061453882614d6f565b915060018101905061451a565b50849250505092915050565b61455a81614dc5565b82525050565b61456981614dd1565b82525050565b61457881614e05565b82525050565b61458781614e17565b82525050565b600061459882614d57565b6145a28185614dba565b93506145b2818560208601614e38565b80840191505092915050565b60006145cb601f83614da9565b91507f496e7075742073697a65206973206e6f74206120706f776572206f66203221006000830152602082019050919050565b600061460b602a83614da9565b91507f5369676d612070726f746f636f6c206368616c6c656e676520657175616c697460008301527f79206661696c7572652e000000000000000000000000000000000000000000006020830152604082019050919050565b6000614671601d83614da9565b91507f5265636f76657279206661696c75726520666f7220465e77202a20452e0000006000830152602082019050919050565b60006146b1602883614da9565b91507f496e6e65722070726f647563742070726f6f6620766572696669636174696f6e60008301527f206661696c65642e0000000000000000000000000000000000000000000000006020830152604082019050919050565b6000614717601d83614da9565b91507f5265636f76657279206661696c75726520666f7220435e77202a20442e0000006000830152602082019050919050565b6000614757601d83614da9565b91507f5265636f76657279206661696c75726520666f7220425e77202a20412e0000006000830152602082019050919050565b6040820160008201516147a06000850182614560565b5060208201516147b36020850182614560565b50505050565b6040820160008201516147cf6000850182614560565b5060208201516147e26020850182614560565b50505050565b60006080830160008301518482036000860152614805828261449d565b9150506020830151848203602086015261481f828261449d565b91505060408301516148346040860182614852565b5060608301516148476060860182614852565b508091505092915050565b61485b81614ddb565b82525050565b61486a81614ddb565b82525050565b61488161487c82614ddb565b614e6b565b82525050565b6000614893828561458d565b915061489f8284614870565b6020820191508190509392505050565b600060e08201905081810360008301526148c981896144f7565b905081810360208301526148dd81886144f7565b905081810360408301526148f181876144f7565b905061490060608301866147b9565b81810360a083015261491281856144f7565b905061492160c0830184614861565b979650505050505050565b600060e082019050818103600083015261494681886144f7565b905061495560208301876147b9565b61496260608301866147b9565b81810360a083015261497481856147e8565b905061498360c0830184614861565b9695505050505050565b60006020820190506149a26000830184614551565b92915050565b60006020820190506149bd600083018461456f565b92915050565b60006020820190506149d8600083018461457e565b92915050565b600060208201905081810360008301526149f7816145be565b9050919050565b60006020820190508181036000830152614a17816145fe565b9050919050565b60006020820190508181036000830152614a3781614664565b9050919050565b60006020820190508181036000830152614a57816146a4565b9050919050565b60006020820190508181036000830152614a778161470a565b9050919050565b60006020820190508181036000830152614a978161474a565b9050919050565b6000602082019050614ab36000830184614861565b92915050565b600060a082019050614ace6000830185614861565b614adb602083018461444a565b9392505050565b600061012082019050614af8600083018c614861565b8181036020830152614b0a818b6144f7565b90508181036040830152614b1e818a6144f7565b90508181036060830152614b3281896144f7565b90508181036080830152614b4681886144f7565b905081810360a0830152614b5a81876144f7565b905081810360c0830152614b6e81866144f7565b905081810360e0830152614b8281856144f7565b9050818103610100830152614b9781846144f7565b90509a9950505050505050505050565b60006101a082019050614bbd600083018a614861565b614bca60208301896147b9565b614bd760608301886147b9565b614be460a08301876147b9565b614bf160e08301866147b9565b614bff6101208301856147b9565b614c0d6101608301846147b9565b98975050505050505050565b600061022082019050614c2f600083018c614861565b614c3c602083018b6147b9565b614c49606083018a6147b9565b614c5660a08301896147b9565b614c6360e08301886147b9565b614c716101208301876147b9565b614c7f6101608301866147b9565b614c8d6101a08301856147b9565b614c9b6101e08301846147b9565b9a9950505050505050505050565b6000604051905081810181811067ffffffffffffffff82111715614ccc57600080fd5b8060405250919050565b600067ffffffffffffffff821115614ced57600080fd5b602082029050602081019050919050565b600067ffffffffffffffff821115614d1557600080fd5b601f19601f8301169050602081019050919050565b6000819050919050565b6000602082019050919050565b600060029050919050565b600081519050919050565b600081519050919050565b6000602082019050919050565b6000602082019050919050565b600081905092915050565b600082825260208201905092915050565b600082825260208201905092915050565b600082825260208201905092915050565b600081905092915050565b60008115159050919050565b6000819050919050565b6000819050919050565b60008115159050919050565b6000819050919050565b6000819050919050565b6000614e1082614ddb565b9050919050565b6000614e2282614ddb565b9050919050565b82818337600083830152505050565b60005b83811015614e56578082015181840152602081019050614e3b565b83811115614e65576000848401525b50505050565b600081905091905056fea265627a7a72305820b6dc039ce96b6010880a4f733e031e1852b3f3b1bfe61a14e83b8e5b0671ca086c6578706572696d656e74616cf50037",
  "source": "pragma solidity 0.5.4;\npragma experimental ABIEncoderV2;\n\nimport \"./Utils.sol\";\nimport \"./InnerProductVerifier.sol\";\n\ncontract ZetherVerifier {\n    using Utils for uint256;\n    using Utils for Utils.G1Point;\n\n    uint256 constant UNITY = 0x14a3074b02521e3b1ed9852e5028452693e87be4e910500c7ba9bbddb2f46edd; // primitive 2^28th root of unity modulo q.\n\n    InnerProductVerifier ip;\n\n    struct ZetherStatement {\n        Utils.G1Point[] CLn;\n        Utils.G1Point[] CRn;\n        Utils.G1Point[] C;\n        Utils.G1Point D;\n        Utils.G1Point[] y;\n        uint256 epoch;\n        Utils.G1Point u;\n    }\n\n    struct ZetherProof {\n        Utils.G1Point BA;\n        Utils.G1Point BS;\n        Utils.G1Point A;\n        Utils.G1Point B;\n        Utils.G1Point C;\n        Utils.G1Point D;\n        Utils.G1Point E;\n        Utils.G1Point F;\n\n        Utils.G1Point[] CLnG;\n        Utils.G1Point[] CRnG;\n        Utils.G1Point[] C_0G;\n        Utils.G1Point[] DG;\n        Utils.G1Point[] y_0G;\n        Utils.G1Point[] gG;\n        Utils.G1Point[] C_XG;\n        Utils.G1Point[] y_XG;\n\n        uint256[] f;\n        uint256 z_A;\n        uint256 z_C;\n        uint256 z_E;\n\n        Utils.G1Point[2] tCommits;\n        uint256 tHat;\n        uint256 mu;\n\n        uint256 c;\n        uint256 s_sk;\n        uint256 s_r;\n        uint256 s_b;\n        uint256 s_tau;\n\n        InnerProductVerifier.InnerProductProof ipProof;\n    }\n\n    constructor(address _ip) public {\n        ip = InnerProductVerifier(_ip);\n    }\n\n    function verifyTransfer(Utils.G1Point[] memory CLn, Utils.G1Point[] memory CRn, Utils.G1Point[] memory C, Utils.G1Point memory D, Utils.G1Point[] memory y, uint256 epoch, Utils.G1Point memory u, bytes memory proof) public view returns (bool) {\n        ZetherStatement memory statement;\n        statement.CLn = CLn; // do i need to allocate / set size?!\n        statement.CRn = CRn;\n        statement.C = C;\n        statement.D = D;\n        statement.y = y;\n        statement.epoch = epoch;\n        statement.u = u;\n        ZetherProof memory zetherProof = unserialize(proof);\n        return verify(statement, zetherProof);\n    }\n\n    struct ZetherAuxiliaries {\n        uint256 y;\n        uint256[64] ys;\n        uint256 z;\n        uint256[2] zs; // [z^2, z^3]\n        uint256[64] twoTimesZSquared;\n        uint256 zSum;\n        uint256 x;\n        uint256 t;\n        uint256 k;\n        Utils.G1Point tEval;\n    }\n\n    struct SigmaAuxiliaries {\n        uint256 c;\n        Utils.G1Point A_y;\n        Utils.G1Point A_D;\n        Utils.G1Point A_b;\n        Utils.G1Point A_X;\n        Utils.G1Point A_t;\n        Utils.G1Point gEpoch;\n        Utils.G1Point A_u;\n    }\n\n    struct AnonAuxiliaries {\n        uint256 m;\n        uint256 N;\n        uint256 v;\n        uint256 w;\n        uint256 vPow;\n        uint256 wPow;\n        uint256[2][] f; // could just allocate extra space in the proof?\n        uint256[2][] r; // each poly is an array of length N. evaluations of prods\n        Utils.G1Point temp;\n        Utils.G1Point CLnR;\n        Utils.G1Point CRnR;\n        Utils.G1Point[2][] CR;\n        Utils.G1Point[2][] yR;\n        Utils.G1Point C_XR;\n        Utils.G1Point y_XR;\n        Utils.G1Point gR;\n        Utils.G1Point DR;\n    }\n\n    struct IPAuxiliaries {\n        Utils.G1Point P;\n        Utils.G1Point u_x;\n        Utils.G1Point[] hPrimes;\n        Utils.G1Point hPrimeSum;\n        uint256 o;\n    }\n\n    function gSum() internal pure returns (Utils.G1Point memory) {\n        return Utils.G1Point(0x00715f13ea08d6b51bedcde3599d8e12163e090921309d5aafc9b5bfaadbcda0, 0x27aceab598af7bf3d16ca9d40fe186c489382c21bb9d22b19cb3af8b751b959f);\n    }\n\n    function verify(ZetherStatement memory statement, ZetherProof memory proof) internal view returns (bool) {\n        uint256 statementHash = uint256(keccak256(abi.encode(statement.CLn, statement.CRn, statement.C, statement.D, statement.y, statement.epoch))).mod();\n\n        AnonAuxiliaries memory anonAuxiliaries;\n        anonAuxiliaries.v = uint256(keccak256(abi.encode(statementHash, proof.BA, proof.BS, proof.A, proof.B, proof.C, proof.D, proof.E, proof.F))).mod();\n        anonAuxiliaries.w = uint256(keccak256(abi.encode(anonAuxiliaries.v, proof.CLnG, proof.CRnG, proof.C_0G, proof.DG, proof.y_0G, proof.gG, proof.C_XG, proof.y_XG))).mod();\n        anonAuxiliaries.m = proof.f.length / 2;\n        anonAuxiliaries.N = 2 ** anonAuxiliaries.m;\n        anonAuxiliaries.f = new uint256[2][](2 * anonAuxiliaries.m);\n        for (uint256 k = 0; k < 2 * anonAuxiliaries.m; k++) {\n            anonAuxiliaries.f[k][1] = proof.f[k];\n            anonAuxiliaries.f[k][0] = anonAuxiliaries.w.sub(proof.f[k]);\n        }\n\n        for (uint256 k = 0; k < 2 * anonAuxiliaries.m; k++) {\n            anonAuxiliaries.temp = anonAuxiliaries.temp.add(ip.gs(k).mul(anonAuxiliaries.f[k][1]));\n        }\n        require(proof.B.mul(anonAuxiliaries.w).add(proof.A).eq(anonAuxiliaries.temp.add(Utils.h().mul(proof.z_A))), \"Recovery failure for B^w * A.\");\n\n        anonAuxiliaries.temp = Utils.G1Point(0, 0);\n        for (uint256 k = 0; k < 2 * anonAuxiliaries.m; k++) {\n            anonAuxiliaries.temp = anonAuxiliaries.temp.add(ip.gs(k).mul(anonAuxiliaries.f[k][1].mul(anonAuxiliaries.w.sub(anonAuxiliaries.f[k][1]))));\n        }\n        require(proof.C.mul(anonAuxiliaries.w).add(proof.D).eq(anonAuxiliaries.temp.add(Utils.h().mul(proof.z_C))), \"Recovery failure for C^w * D.\");\n\n        anonAuxiliaries.temp = ip.gs(0).mul(anonAuxiliaries.f[0][1].mul(anonAuxiliaries.f[anonAuxiliaries.m][1])).add(ip.gs(1).mul(anonAuxiliaries.f[0][0].mul(anonAuxiliaries.f[anonAuxiliaries.m][0])));\n        require(proof.F.mul(anonAuxiliaries.w).add(proof.E).eq(anonAuxiliaries.temp.add(Utils.h().mul(proof.z_E))), \"Recovery failure for F^w * E.\");\n\n        anonAuxiliaries.r = assemblePolynomials(anonAuxiliaries.f);\n\n        anonAuxiliaries.CR = assembleConvolutions(anonAuxiliaries.r, statement.C);\n        anonAuxiliaries.yR = assembleConvolutions(anonAuxiliaries.r, statement.y);\n        for (uint256 i = 0; i < anonAuxiliaries.N; i++) {\n            anonAuxiliaries.CLnR = anonAuxiliaries.CLnR.add(statement.CLn[i].mul(anonAuxiliaries.r[i][0]));\n            anonAuxiliaries.CRnR = anonAuxiliaries.CRnR.add(statement.CRn[i].mul(anonAuxiliaries.r[i][0]));\n        }\n        anonAuxiliaries.vPow = 1;\n        for (uint256 i = 0; i < anonAuxiliaries.N; i++) {\n            anonAuxiliaries.C_XR = anonAuxiliaries.C_XR.add(anonAuxiliaries.CR[i / 2][i % 2].mul(anonAuxiliaries.vPow));\n            anonAuxiliaries.y_XR = anonAuxiliaries.y_XR.add(anonAuxiliaries.yR[i / 2][i % 2].mul(anonAuxiliaries.vPow));\n            if (i > 0) {\n                anonAuxiliaries.vPow = anonAuxiliaries.vPow.mul(anonAuxiliaries.v);\n            }\n        }\n        anonAuxiliaries.wPow = 1;\n        for (uint256 k = 0; k < anonAuxiliaries.m; k++) {\n            anonAuxiliaries.CLnR = anonAuxiliaries.CLnR.add(proof.CLnG[k].mul(anonAuxiliaries.wPow.neg()));\n            anonAuxiliaries.CRnR = anonAuxiliaries.CRnR.add(proof.CRnG[k].mul(anonAuxiliaries.wPow.neg()));\n            anonAuxiliaries.CR[0][0] = anonAuxiliaries.CR[0][0].add(proof.C_0G[k].mul(anonAuxiliaries.wPow.neg()));\n            anonAuxiliaries.DR = anonAuxiliaries.DR.add(proof.DG[k].mul(anonAuxiliaries.wPow.neg()));\n            anonAuxiliaries.yR[0][0] = anonAuxiliaries.yR[0][0].add(proof.y_0G[k].mul(anonAuxiliaries.wPow.neg()));\n            anonAuxiliaries.gR = anonAuxiliaries.gR.add(proof.gG[k].mul(anonAuxiliaries.wPow.neg()));\n            anonAuxiliaries.C_XR = anonAuxiliaries.C_XR.add(proof.C_XG[k].mul(anonAuxiliaries.wPow.neg()));\n            anonAuxiliaries.y_XR = anonAuxiliaries.y_XR.add(proof.y_XG[k].mul(anonAuxiliaries.wPow.neg()));\n\n            anonAuxiliaries.wPow = anonAuxiliaries.wPow.mul(anonAuxiliaries.w);\n        }\n        anonAuxiliaries.DR = anonAuxiliaries.DR.add(statement.D.mul(anonAuxiliaries.wPow));\n        anonAuxiliaries.gR = anonAuxiliaries.gR.add(Utils.g().mul(anonAuxiliaries.wPow));\n\n        ZetherAuxiliaries memory zetherAuxiliaries;\n        zetherAuxiliaries.y = uint256(keccak256(abi.encode(anonAuxiliaries.w))).mod();\n        zetherAuxiliaries.ys[0] = 1;\n        zetherAuxiliaries.k = 1;\n        for (uint256 i = 1; i < 64; i++) {\n            zetherAuxiliaries.ys[i] = zetherAuxiliaries.ys[i - 1].mul(zetherAuxiliaries.y);\n            zetherAuxiliaries.k = zetherAuxiliaries.k.add(zetherAuxiliaries.ys[i]);\n        }\n        zetherAuxiliaries.z = uint256(keccak256(abi.encode(zetherAuxiliaries.y))).mod();\n        zetherAuxiliaries.zs = [zetherAuxiliaries.z.exp(2), zetherAuxiliaries.z.exp(3)];        \n        zetherAuxiliaries.zSum = zetherAuxiliaries.zs[0].add(zetherAuxiliaries.zs[1]).mul(zetherAuxiliaries.z);\n        zetherAuxiliaries.k = zetherAuxiliaries.k.mul(zetherAuxiliaries.z.sub(zetherAuxiliaries.zs[0])).sub(zetherAuxiliaries.zSum.mul(2 ** 32).sub(zetherAuxiliaries.zSum));\n        zetherAuxiliaries.t = proof.tHat.sub(zetherAuxiliaries.k); // t = tHat - delta(y, z)\n        for (uint256 i = 0; i < 32; i++) {\n            zetherAuxiliaries.twoTimesZSquared[i] = zetherAuxiliaries.zs[0].mul(2 ** i);\n            zetherAuxiliaries.twoTimesZSquared[i + 32] = zetherAuxiliaries.zs[1].mul(2 ** i);\n        }\n\n        zetherAuxiliaries.x = uint256(keccak256(abi.encode(zetherAuxiliaries.z, proof.tCommits))).mod();\n        zetherAuxiliaries.tEval = proof.tCommits[0].mul(zetherAuxiliaries.x).add(proof.tCommits[1].mul(zetherAuxiliaries.x.mul(zetherAuxiliaries.x))); // replace with \"commit\"?\n\n        SigmaAuxiliaries memory sigmaAuxiliaries;\n        sigmaAuxiliaries.A_y = anonAuxiliaries.gR.mul(proof.s_sk).add(anonAuxiliaries.yR[0][0].mul(proof.c.neg()));\n        sigmaAuxiliaries.A_D = Utils.g().mul(proof.s_r).add(statement.D.mul(proof.c.neg())); // add(mul(anonAuxiliaries.gR, proof.s_r), mul(anonAuxiliaries.DR, proof.c.neg()));\n        sigmaAuxiliaries.A_b = Utils.g().mul(proof.s_b).add(anonAuxiliaries.DR.mul(zetherAuxiliaries.zs[0].neg()).add(anonAuxiliaries.CRnR.mul(zetherAuxiliaries.zs[1])).mul(proof.s_sk).add(anonAuxiliaries.CR[0][0].mul(zetherAuxiliaries.zs[0].neg()).add(anonAuxiliaries.CLnR.mul(zetherAuxiliaries.zs[1])).mul(proof.c.neg())));\n        sigmaAuxiliaries.A_X = anonAuxiliaries.y_XR.mul(proof.s_r).add(anonAuxiliaries.C_XR.mul(proof.c.neg()));\n        sigmaAuxiliaries.A_t = Utils.g().mul(zetherAuxiliaries.t).add(zetherAuxiliaries.tEval.neg()).mul(proof.c.mul(anonAuxiliaries.wPow)).add(Utils.h().mul(proof.s_tau)).add(Utils.g().mul(proof.s_b.neg()));\n        sigmaAuxiliaries.gEpoch = Utils.mapInto(\"Zether\", statement.epoch);\n        sigmaAuxiliaries.A_u = sigmaAuxiliaries.gEpoch.mul(proof.s_sk).add(statement.u.mul(proof.c.neg()));\n\n        sigmaAuxiliaries.c = uint256(keccak256(abi.encode(zetherAuxiliaries.x, sigmaAuxiliaries.A_y, sigmaAuxiliaries.A_D, sigmaAuxiliaries.A_b, sigmaAuxiliaries.A_X, sigmaAuxiliaries.A_t, sigmaAuxiliaries.A_u))).mod();\n        require(sigmaAuxiliaries.c == proof.c, \"Sigma protocol challenge equality failure.\");\n\n        IPAuxiliaries memory ipAuxiliaries;\n        ipAuxiliaries.o = uint256(keccak256(abi.encode(sigmaAuxiliaries.c))).mod();\n        ipAuxiliaries.u_x = Utils.g().mul(ipAuxiliaries.o);\n        ipAuxiliaries.hPrimes = new Utils.G1Point[](64);\n        for (uint256 i = 0; i < 64; i++) {\n            ipAuxiliaries.hPrimes[i] = ip.hs(i).mul(zetherAuxiliaries.ys[i].inv());\n            ipAuxiliaries.hPrimeSum = ipAuxiliaries.hPrimeSum.add(ipAuxiliaries.hPrimes[i].mul(zetherAuxiliaries.ys[i].mul(zetherAuxiliaries.z).add(zetherAuxiliaries.twoTimesZSquared[i])));\n        }\n        ipAuxiliaries.P = proof.BA.add(proof.BS.mul(zetherAuxiliaries.x)).add(gSum().mul(zetherAuxiliaries.z.neg())).add(ipAuxiliaries.hPrimeSum);\n        ipAuxiliaries.P = ipAuxiliaries.P.add(Utils.h().mul(proof.mu.neg()));\n        ipAuxiliaries.P = ipAuxiliaries.P.add(ipAuxiliaries.u_x.mul(proof.tHat));\n        require(ip.verifyInnerProduct(ipAuxiliaries.hPrimes, ipAuxiliaries.u_x, ipAuxiliaries.P, proof.ipProof, ipAuxiliaries.o), \"Inner product proof verification failed.\");\n\n        return true;\n    }\n\n    function assemblePolynomials(uint256[2][] memory f) internal view returns (uint256[2][] memory result) {\n        uint256 m = f.length / 2;\n        uint256 N = 2 ** m;\n        result = new uint256[2][](N);\n        for (uint256 i = 0; i < 2; i++) {\n            uint256[] memory half = recursivePolynomials(i * m, (i + 1) * m, 1, f);\n            for (uint256 j = 0; j < N; j++) {\n                result[j][i] = half[j];\n            }\n        }\n    }\n\n    function recursivePolynomials(uint256 baseline, uint256 current, uint256 accum, uint256[2][] memory f) internal view returns (uint256[] memory result) {\n        // have to do a bunch of re-allocating because solidity won't let me have something which is internal and also modifies (internal) state. (?)\n        uint256 size = 2 ** (current - baseline); // size is at least 2...\n        result = new uint256[](size);\n\n        if (current == baseline) {\n            result[0] = accum;\n            return result;\n        }\n        current = current - 1;\n\n        uint256[] memory left = recursivePolynomials(baseline, current, accum.mul(f[current][0]), f);\n        uint256[] memory right = recursivePolynomials(baseline, current, accum.mul(f[current][1]), f);\n        for (uint256 i = 0; i < size / 2; i++) {\n            result[i] = left[i];\n            result[i + size / 2] = right[i];\n        }\n    }\n\n    function assembleConvolutions(uint256[2][] memory exponent, Utils.G1Point[] memory base) internal view returns (Utils.G1Point[2][] memory result) {\n        // exponent is two \"rows\" (actually columns).\n        // will return two rows, each of half the length of the exponents;\n        // namely, we will return the Hadamards of \"base\" by the even circular shifts of \"exponent\"'s rows.\n        uint256 size = exponent.length;\n        uint256 half = size / 2;\n        result = new Utils.G1Point[2][](half); // assuming that this is necessary even when return is declared up top\n\n        Utils.G1Point[] memory base_fft = fft(base, false);\n\n        uint256[] memory exponent_fft = new uint256[](size);\n        for (uint256 i = 0; i < 2; i++) {\n            for (uint256 j = 0; j < size; j++) {\n                exponent_fft[j] = exponent[(size - j) % size][i]; // convolutional flip plus copy\n            }\n\n            exponent_fft = fft(exponent_fft);\n            Utils.G1Point[] memory inverse_fft = new Utils.G1Point[](half);\n            uint256 compensation = 2;\n            compensation = compensation.inv();\n            for (uint256 j = 0; j < half; j++) { // Hadamard\n                inverse_fft[j] = base_fft[j].mul(exponent_fft[j]).add(base_fft[j + half].mul(exponent_fft[j + half])).mul(compensation);\n            }\n\n            inverse_fft = fft(inverse_fft, true);\n            for (uint256 j = 0; j < half; j++) {\n                result[j][i] = inverse_fft[j];\n            }\n        }\n    }\n\n    function fft(Utils.G1Point[] memory input, bool inverse) internal view returns (Utils.G1Point[] memory result) {\n        uint256 size = input.length;\n        if (size == 1) {\n            return input;\n        }\n        require(size % 2 == 0, \"Input size is not a power of 2!\");\n\n        uint256 omega = UNITY.exp(2**28 / size);\n        uint256 compensation = 1;\n        if (inverse) {\n            omega = omega.inv();\n            compensation = 2;\n        }\n        compensation = compensation.inv();\n        Utils.G1Point[] memory even = fft(extract(input, 0), inverse);\n        Utils.G1Point[] memory odd = fft(extract(input, 1), inverse);\n        uint256 omega_run = 1;\n        result = new Utils.G1Point[](size);\n        for (uint256 i = 0; i < size / 2; i++) {\n            Utils.G1Point memory temp = odd[i].mul(omega_run);\n            result[i] = even[i].add(temp).mul(compensation);\n            result[i + size / 2] = even[i].add(temp.neg()).mul(compensation);\n            omega_run = omega_run.mul(omega);\n        }\n    }\n\n    function extract(Utils.G1Point[] memory input, uint256 parity) internal pure returns (Utils.G1Point[] memory result) {\n        result = new Utils.G1Point[](input.length / 2);\n        for (uint256 i = 0; i < input.length / 2; i++) {\n            result[i] = input[2 * i + parity];\n        }\n    }\n\n    function fft(uint256[] memory input) internal view returns (uint256[] memory result) {\n        uint256 size = input.length;\n        if (size == 1) {\n            return input;\n        }\n        require(size % 2 == 0, \"Input size is not a power of 2!\");\n\n        uint256 omega = UNITY.exp(2**28 / size);\n        uint256[] memory even = fft(extract(input, 0));\n        uint256[] memory odd = fft(extract(input, 1));\n        uint256 omega_run = 1;\n        result = new uint256[](size);\n        for (uint256 i = 0; i < size / 2; i++) {\n            uint256 temp = odd[i].mul(omega_run);\n            result[i] = even[i].add(temp);\n            result[i + size / 2] = even[i].sub(temp);\n            omega_run = omega_run.mul(omega);\n        }\n    }\n\n    function extract(uint256[] memory input, uint256 parity) internal pure returns (uint256[] memory result) {\n        result = new uint256[](input.length / 2);\n        for (uint256 i = 0; i < input.length / 2; i++) {\n            result[i] = input[2 * i + parity];\n        }\n    }\n\n    function unserialize(bytes memory arr) internal pure returns (ZetherProof memory proof) {\n        proof.BA = Utils.G1Point(Utils.slice(arr, 0), Utils.slice(arr, 32));\n        proof.BS = Utils.G1Point(Utils.slice(arr, 64), Utils.slice(arr, 96));\n        proof.A = Utils.G1Point(Utils.slice(arr, 128), Utils.slice(arr, 160));\n        proof.B = Utils.G1Point(Utils.slice(arr, 192), Utils.slice(arr, 224));\n        proof.C = Utils.G1Point(Utils.slice(arr, 256), Utils.slice(arr, 288));\n        proof.D = Utils.G1Point(Utils.slice(arr, 320), Utils.slice(arr, 352));\n        proof.E = Utils.G1Point(Utils.slice(arr, 384), Utils.slice(arr, 416));\n        proof.F = Utils.G1Point(Utils.slice(arr, 448), Utils.slice(arr, 480));\n\n        uint256 m = (arr.length - 1792) / 576;\n        proof.CLnG = new Utils.G1Point[](m);\n        proof.CRnG = new Utils.G1Point[](m);\n        proof.C_0G = new Utils.G1Point[](m);\n        proof.DG = new Utils.G1Point[](m);\n        proof.y_0G = new Utils.G1Point[](m);\n        proof.gG = new Utils.G1Point[](m);\n        proof.C_XG = new Utils.G1Point[](m);\n        proof.y_XG = new Utils.G1Point[](m);\n        proof.f = new uint256[](2 * m);\n        for (uint256 k = 0; k < m; k++) {\n            proof.CLnG[k] = Utils.G1Point(Utils.slice(arr, 512 + k * 64), Utils.slice(arr, 544 + k * 64));\n            proof.CRnG[k] = Utils.G1Point(Utils.slice(arr, 512 + (m + k) * 64), Utils.slice(arr, 544 + (m + k) * 64));\n            proof.C_0G[k] = Utils.G1Point(Utils.slice(arr, 512 + m * 128 + k * 64), Utils.slice(arr, 544 + m * 128 + k * 64));\n            proof.DG[k] = Utils.G1Point(Utils.slice(arr, 512 + m * 192 + k * 64), Utils.slice(arr, 544 + m * 192 + k * 64));\n            proof.y_0G[k] = Utils.G1Point(Utils.slice(arr, 512 + m * 256 + k * 64), Utils.slice(arr, 544 + m * 256 + k * 64));\n            proof.gG[k] = Utils.G1Point(Utils.slice(arr, 512 + m * 320 + k * 64), Utils.slice(arr, 544 + m * 320 + k * 64));\n            proof.C_XG[k] = Utils.G1Point(Utils.slice(arr, 512 + m * 384 + k * 64), Utils.slice(arr, 544 + m * 384 + k * 64));\n            proof.y_XG[k] = Utils.G1Point(Utils.slice(arr, 512 + m * 448 + k * 64), Utils.slice(arr, 544 + m * 448 + k * 64));\n            proof.f[k] = uint256(Utils.slice(arr, 512 + m * 512 + k * 32));\n            proof.f[k + m] = uint256(Utils.slice(arr, 512 + m * 544 + k * 32));\n        }\n        uint256 starting = m * 576;\n        proof.z_A = uint256(Utils.slice(arr, 512 + starting));\n        proof.z_C = uint256(Utils.slice(arr, 544 + starting));\n        proof.z_E = uint256(Utils.slice(arr, 576 + starting));\n\n        proof.tCommits = [Utils.G1Point(Utils.slice(arr, 608 + starting), Utils.slice(arr, 640 + starting)), Utils.G1Point(Utils.slice(arr, 672 + starting), Utils.slice(arr, 704 + starting))];\n        proof.tHat = uint256(Utils.slice(arr, 736 + starting));\n        proof.mu = uint256(Utils.slice(arr, 768 + starting));\n\n        proof.c = uint256(Utils.slice(arr, 800 + starting));\n        proof.s_sk = uint256(Utils.slice(arr, 832 + starting));\n        proof.s_r = uint256(Utils.slice(arr, 864 + starting));\n        proof.s_b = uint256(Utils.slice(arr, 896 + starting));\n        proof.s_tau = uint256(Utils.slice(arr, 928 + starting));\n\n        InnerProductVerifier.InnerProductProof memory ipProof;\n        ipProof.ls = new Utils.G1Point[](6);\n        ipProof.rs = new Utils.G1Point[](6);\n        for (uint256 i = 0; i < 6; i++) { // 2^6 = 64.\n            ipProof.ls[i] = Utils.G1Point(Utils.slice(arr, 960 + starting + i * 64), Utils.slice(arr, 992 + starting + i * 64));\n            ipProof.rs[i] = Utils.G1Point(Utils.slice(arr, 960 + starting + (6 + i) * 64), Utils.slice(arr, 992 + starting + (6 + i) * 64));\n        }\n        ipProof.a = uint256(Utils.slice(arr, 960 + starting + 6 * 128));\n        ipProof.b = uint256(Utils.slice(arr, 992 + starting + 6 * 128));\n        proof.ipProof = ipProof;\n\n        return proof;\n    }\n}\n",
  "sourcePath": "/Users/benediamond/anonymous-zether/packages/protocol/contracts/ZetherVerifier.sol",
  "compiler": {
    "name": "solc",
    "version": "0.5.4+commit.9549d8ff.Emscripten.clang"
  },
  "schemaVersion": "3.0.19",
  "updatedAt": "2020-01-21T17:03:24.485Z",
  "devdoc": {
    "methods": {}
  },
  "userdoc": {
    "methods": {}
  }
}