{
  "contractName": "ZetherVerifier",
  "abi": [
    {
      "inputs": [],
      "payable": false,
      "stateMutability": "nonpayable",
      "type": "constructor"
    },
    {
      "constant": true,
      "inputs": [
        {
          "name": "CLn",
          "type": "bytes32[2][]"
        },
        {
          "name": "CRn",
          "type": "bytes32[2][]"
        },
        {
          "name": "C",
          "type": "bytes32[2][]"
        },
        {
          "name": "D",
          "type": "bytes32[2]"
        },
        {
          "name": "y",
          "type": "bytes32[2][]"
        },
        {
          "name": "epoch",
          "type": "uint256"
        },
        {
          "name": "u",
          "type": "bytes32[2]"
        },
        {
          "name": "proof",
          "type": "bytes"
        }
      ],
      "name": "verifyTransfer",
      "outputs": [
        {
          "name": "",
          "type": "bool"
        }
      ],
      "payable": false,
      "stateMutability": "view",
      "type": "function"
    }
  ],
  "bytecode": "0x60806040523480156200001157600080fd5b50620000616040805190810160405280600181526020017f47000000000000000000000000000000000000000000000000000000000000008152506200022f640100000000026401000000009004565b60026000820151816000015560208201518160010155905050620000c96040805190810160405280600181526020017f56000000000000000000000000000000000000000000000000000000000000008152506200022f640100000000026401000000009004565b6004600082015181600001556020820151816001015590505060008090505b604081101562000228576000620001446040805190810160405280600181526020017f470000000000000000000000000000000000000000000000000000000000000081525083620002b2640100000000026401000000009004565b9080600181540180825580915050906001820390600052602060002090600202016000909192909190915060008201518160000155602082015181600101555050506001620001d86040805190810160405280600181526020017f480000000000000000000000000000000000000000000000000000000000000081525083620002b2640100000000026401000000009004565b9080600181540180825580915050906001820390600052602060002090600202016000909192909190915060008201518160000155602082015181600101555050508080600101915050620000e8565b5062000591565b6200023962000480565b620002ab7f30644e72e131a029b85045b68181585d97816a916871ca8d3c208c16d87cfd4783604051602001620002719190620004ec565b60405160208183030381529060405280519060200120600190048115156200029557fe5b0662000338640100000000026401000000009004565b9050919050565b620002bc62000480565b620003307f30644e72e131a029b85045b68181585d97816a916871ca8d3c208c16d87cfd478484604051602001620002f692919062000505565b60405160208183030381529060405280519060200120600190048115156200031a57fe5b0662000338640100000000026401000000009004565b905092915050565b6200034262000480565b60005b600115620003f557600060036200036d85600362000412640100000000026401000000009004565b019050620003bb81600460017f30644e72e131a029b85045b68181585d97816a916871ca8d3c208c16d87cfd4701811515620003a557fe5b0462000412640100000000026401000000009004565b915080620003da83600262000412640100000000026401000000009004565b1415620003e85750620003f5565b6001840193505062000345565b604080519081016040528084815260200182815250915050919050565b6000807f30644e72e131a029b85045b68181585d97816a916871ca8d3c208c16d87cfd47905060405160208152602080820152602060408201528460608201528360808201528160a082015260208160c08360055afa15156200047457600080fd5b80519250505092915050565b604080519081016040528060008152602001600081525090565b6000620004a78262000531565b620004b381856200053c565b9350620004c581856020860162000551565b80840191505092915050565b620004e6620004e08262000547565b62000587565b82525050565b6000620004fa82846200049a565b915081905092915050565b60006200051382856200049a565b9150620005218284620004d1565b6020820191508190509392505050565b600081519050919050565b600081905092915050565b6000819050919050565b60005b838110156200057157808201518184015260208101905062000554565b8381111562000581576000848401525b50505050565b6000819050919050565b61549880620005a16000396000f3fe608060405234801561001057600080fd5b5060043610610048576000357c0100000000000000000000000000000000000000000000000000000000900480631659e67d1461004d575b600080fd5b610067600480360361006291908101906149c7565b61007d565b6040516100749190614efb565b60405180910390f35b60006100876141f4565b600086519050806040519080825280602002602001820160405280156100c757816020015b6100b461423f565b8152602001906001900390816100ac5790505b5082600001819052508060405190808252806020026020018201604052801561010a57816020015b6100f761423f565b8152602001906001900390816100ef5790505b5082602001819052508060405190808252806020026020018201604052801561014d57816020015b61013a61423f565b8152602001906001900390816101325790505b5082604001819052508060405190808252806020026020018201604052801561019057816020015b61017d61423f565b8152602001906001900390816101755790505b50826080018190525060008090505b818110156103f45760408051908101604052808d838151811015156101c057fe5b9060200190602002015160006002811015156101d857fe5b60200201516001900481526020018d838151811015156101f457fe5b90602001906020020151600160028110151561020c57fe5b60200201516001900481525083600001518281518110151561022a57fe5b9060200190602002018190525060408051908101604052808c8381518110151561025057fe5b90602001906020020151600060028110151561026857fe5b60200201516001900481526020018c8381518110151561028457fe5b90602001906020020151600160028110151561029c57fe5b6020020151600190048152508360200151828151811015156102ba57fe5b9060200190602002018190525060408051908101604052808b838151811015156102e057fe5b9060200190602002015160006002811015156102f857fe5b60200201516001900481526020018b8381518110151561031457fe5b90602001906020020151600160028110151561032c57fe5b60200201516001900481525083604001518281518110151561034a57fe5b906020019060200201819052506040805190810160405280898381518110151561037057fe5b90602001906020020151600060028110151561038857fe5b602002015160019004815260200189838151811015156103a457fe5b9060200190602002015160016002811015156103bc57fe5b6020020151600190048152508360800151828151811015156103da57fe5b90602001906020020181905250808060010191505061019f565b50604080519081016040528089600060028110151561040f57fe5b602002015160019004815260200189600160028110151561042c57fe5b6020020151600190048152508260600181905250858260a0018181525050604080519081016040528086600060028110151561046457fe5b602002015160019004815260200186600160028110151561048157fe5b6020020151600190048152508260c0018190525061049d614259565b6104a6856104c3565b90506104b28382611007565b935050505098975050505050505050565b6104cb614259565b60408051908101604052806104e1846000612f4d565b81526020016104f1846020612f4d565b81525081600001819052506040805190810160405280610512846040612f4d565b8152602001610522846060612f4d565b81525081602001819052506040805190810160405280610543846080612f4d565b81526020016105538460a0612f4d565b815250816040018190525060408051908101604052806105748460c0612f4d565b81526020016105848460e0612f4d565b815250816060018190525060408051908101604052806105a684610100612f4d565b81526020016105b784610120612f4d565b815250816080018190525060408051908101604052806105d984610140612f4d565b81526020016105ea84610160612f4d565b8152508160a00181905250604080519081016040528061060c84610180612f4d565b815260200161061d846101a0612f4d565b8152508160c00181905250604080519081016040528061063f846101c0612f4d565b8152602001610650846101e0612f4d565b8152508160e00181905250600061024061086084510381151561066f57fe5b049050806040519080825280602002602001820160405280156106ac57816020015b61069961423f565b8152602001906001900390816106915790505b50826101000181905250806040519080825280602002602001820160405280156106f057816020015b6106dd61423f565b8152602001906001900390816106d55790505b508261012001819052508060405190808252806020026020018201604052801561073457816020015b61072161423f565b8152602001906001900390816107195790505b508261014001819052508060405190808252806020026020018201604052801561077857816020015b61076561423f565b81526020019060019003908161075d5790505b50826101600181905250806040519080825280602002602001820160405280156107bc57816020015b6107a961423f565b8152602001906001900390816107a15790505b508261018001819052508060405190808252806020026020018201604052801561080057816020015b6107ed61423f565b8152602001906001900390816107e55790505b50826101a001819052508060405190808252806020026020018201604052801561084457816020015b61083161423f565b8152602001906001900390816108295790505b50826101c001819052508060405190808252806020026020018201604052801561088857816020015b61087561423f565b81526020019060019003908161086d5790505b50826101e00181905250806002026040519080825280602002602001820160405280156108c45781602001602082028038833980820191505090505b5082610200018190525060008090505b81811015610c4b5760408051908101604052806108f8866040850261020001612f4d565b815260200161090e866040850261022001612f4d565b8152508361010001518281518110151561092457fe5b90602001906020020181905250604080519081016040528061094f8660408587010261020001612f4d565b81526020016109678660408587010261022001612f4d565b8152508361012001518281518110151561097d57fe5b9060200190602002018190525060408051908101604052806109ab8660408502608087026102000101612f4d565b81526020016109c68660408502608087026102200101612f4d565b815250836101400151828151811015156109dc57fe5b906020019060200201819052506040805190810160405280610a0a866040850260c087026102000101612f4d565b8152602001610a25866040850260c087026102200101612f4d565b81525083610160015182815181101515610a3b57fe5b906020019060200201819052506040805190810160405280610a6a866040850261010087026102000101612f4d565b8152602001610a86866040850261010087026102200101612f4d565b81525083610180015182815181101515610a9c57fe5b906020019060200201819052506040805190810160405280610acb866040850261014087026102000101612f4d565b8152602001610ae7866040850261014087026102200101612f4d565b815250836101a0015182815181101515610afd57fe5b906020019060200201819052506040805190810160405280610b2c866040850261018087026102000101612f4d565b8152602001610b48866040850261018087026102200101612f4d565b815250836101c0015182815181101515610b5e57fe5b906020019060200201819052506040805190810160405280610b8d86604085026101c087026102000101612f4d565b8152602001610ba986604085026101c087026102200101612f4d565b815250836101e0015182815181101515610bbf57fe5b90602001906020020181905250610be3846020830261020085026102000101612f4d565b83610200015182815181101515610bf657fe5b9060200190602002018181525050610c1b846020830261022085026102000101612f4d565b836102000151838301815181101515610c3057fe5b906020019060200201818152505080806001019150506108d4565b50600061024082029050610c63848261020001612f4d565b83610220018181525050610c7b848261022001612f4d565b83610240018181525050610c93848261024001612f4d565b836102600181815250506040805190810160405280610cb6868461026001612f4d565b8152602001610cc9868461028001612f4d565b8152508361028001819052506040805190810160405280610cee86846102a001612f4d565b8152602001610d0186846102c001612f4d565b815250836102a001819052506040805190810160405280610d2686846102e001612f4d565b8152602001610d39868461030001612f4d565b815250836102c001819052506040805190810160405280610d5e868461032001612f4d565b8152602001610d71868461034001612f4d565b815250836102e0018190525060408051908101604052806040805190810160405280610da1888661036001612f4d565b8152602001610db4888661038001612f4d565b81525081526020016040805190810160405280610dd588866103a001612f4d565b8152602001610de888866103c001612f4d565b815250815250836103000181905250610e0584826103e001612f4d565b83610320018181525050610e1d848261040001612f4d565b83610340018181525050610e35848261042001612f4d565b83610360018181525050610e4d848261044001612f4d565b83610380018181525050610e65848261046001612f4d565b836103a0018181525050610e7d848261048001612f4d565b836103c0018181525050610e9584826104a001612f4d565b836103e0018181525050610ead84826104c001612f4d565b83610400018181525050610ec584826104e001612f4d565b83610420018181525050610edd848261050001612f4d565b83610440018181525050610eef6143b7565b60008090505b6006811015610fb7576040805190810160405280610f1c8860408502876105200101612f4d565b8152602001610f348860408502876105400101612f4d565b815250826000015182600681101515610f4957fe5b60200201819052506040805190810160405280610f728860408560060102876105200101612f4d565b8152602001610f8d8860408560060102876105400101612f4d565b815250826020015182600681101515610fa257fe5b60200201819052508080600101915050610ef5565b50610fcc856080600602846105200101612f4d565b816040018181525050610fe9856080600602846105400101612f4d565b81606001818152505080846104600181905250839350505050919050565b60008061105f846000015185602001518660400151876060015188608001518960a0015160405160200161104096959493929190614e7e565b6040516020818303038152906040528051906020012060019004612f66565b90506110696143ed565b6110cc82856000015186602001518760400151886060015189608001518a60a001518b60c001518c60e001516040516020016110ad9998979695949392919061516a565b6040516020818303038152906040528051906020012060019004612f66565b81604001818152505061114481604001518561010001518661012001518761014001518861016001518961018001518a6101a001518b6101c001518c6101e001516040516020016111259998979695949392919061501a565b6040516020818303038152906040528051906020012060019004612f66565b81606001818152505060028461020001515181151561115f57fe5b04816000018181525050806000015160020a81602001818152505080600001516002026040519080825280602002602001820160405280156111bb57816020015b6111a861449c565b8152602001906001900390816111a05790505b508160c0018190525060008090505b816000015160020281101561129c57846102000151818151811015156111ec57fe5b906020019060200201518260c001518281518110151561120857fe5b90602001906020020151600160028110151561122057fe5b60200201818152505061125c8561020001518281518110151561123f57fe5b906020019060200201518360600151612f9b90919063ffffffff16565b8260c001518281518110151561126e57fe5b90602001906020020151600060028110151561128657fe5b60200201818152505080806001019150506111ca565b5060008090505b81600001516002028110156113495761133382610100015161132e6000848154811015156112cd57fe5b9060005260206000209060020201604080519081016040529081600082015481526020016001820154815250508560c001518581518110151561130c57fe5b90602001906020020151600160028110151561132457fe5b6020020151612fdb565b613016565b82610100018190525080806001019150506112a3565b506113ae61136c61136286606001518460600151612fdb565b8660400151613016565b6113a98361010001516113a4600460408051908101604052908160008201548152602001600182015481525050896102200151612fdb565b613016565b61305c565b15156113ef576040517f08c379a00000000000000000000000000000000000000000000000000000000081526004016113e690614f96565b60405180910390fd5b604080519081016040528060008152602001600081525081610100018190525060008090505b8160000151600202811015611511576114fb8261010001516114f660008481548110151561143f57fe5b9060005260206000209060020201604080519081016040529081600082015481526020016001820154815250506114f16114b48760c001518781518110151561148457fe5b90602001906020020151600160028110151561149c57fe5b60200201518860600151612f9b90919063ffffffff16565b8760c00151878151811015156114c657fe5b9060200190602002015160016002811015156114de57fe5b602002015161308490919063ffffffff16565b612fdb565b613016565b8261010001819052508080600101915050611415565b5061157661153461152a86608001518460600151612fdb565b8660a00151613016565b61157183610100015161156c600460408051908101604052908160008201548152602001600182015481525050896102400151612fdb565b613016565b61305c565b15156115b7576040517f08c379a00000000000000000000000000000000000000000000000000000000081526004016115ae90614f76565b60405180910390fd5b6117306116726000808154811015156115cc57fe5b90600052602060002090600202016040805190810160405290816000820154815260200160018201548152505061166d8460c00151856000015181518110151561161257fe5b90602001906020020151600160028110151561162a57fe5b60200201518560c00151600081518110151561164257fe5b90602001906020020151600160028110151561165a57fe5b602002015161308490919063ffffffff16565b612fdb565b61172b6000600181548110151561168557fe5b9060005260206000209060020201604080519081016040529081600082015481526020016001820154815250506117268560c0015186600001518151811015156116cb57fe5b9060200190602002015160006002811015156116e357fe5b60200201518660c0015160008151811015156116fb57fe5b90602001906020020151600060028110151561171357fe5b602002015161308490919063ffffffff16565b612fdb565b613016565b81610100018190525061179d61175b6117518660e001518460600151612fdb565b8660c00151613016565b611798836101000151611793600460408051908101604052908160008201548152602001600182015481525050896102600151612fdb565b613016565b61305c565b15156117de576040517f08c379a00000000000000000000000000000000000000000000000000000000081526004016117d590614f56565b60405180910390fd5b6117eb8160c001516130bb565b8160e001819052506118058160e0015186604001516131b3565b8161016001819052506118208160e0015186608001516131b3565b81610180018190525060008090505b816020015181101561191c5761189c82610120015161189788600001518481518110151561185957fe5b906020019060200201518560e001518581518110151561187557fe5b90602001906020020151600060028110151561188d57fe5b6020020151612fdb565b613016565b8261012001819052506119068261014001516119018860200151848151811015156118c357fe5b906020019060200201518560e00151858151811015156118df57fe5b9060200190602002015160006002811015156118f757fe5b6020020151612fdb565b613016565b826101400181905250808060010191505061182f565b50600181608001818152505060008090505b8160200151811015611a4b5761199c826101a0015161199784610160015160028581151561195857fe5b0481518110151561196557fe5b9060200190602002015160028581151561197b57fe5b0660028110151561198857fe5b60200201518560800151612fdb565b613016565b826101a00181905250611a07826101c00151611a028461018001516002858115156119c357fe5b048151811015156119d057fe5b906020019060200201516002858115156119e657fe5b066002811015156119f357fe5b60200201518560800151612fdb565b613016565b826101c001819052506000811115611a3e57611a348260400151836080015161308490919063ffffffff16565b8260800181815250505b808060010191505061192e565b5060018160a001818152505060008090505b8160000151811015611d8e57611aa9826101200151611aa487610100015184815181101515611a8857fe5b90602001906020020151611a9f8660a00151613469565b612fdb565b613016565b826101200181905250611af2826101400151611aed87610120015184815181101515611ad157fe5b90602001906020020151611ae88660a00151613469565b612fdb565b613016565b826101400181905250611b668261016001516000815181101515611b1257fe5b906020019060200201516000600281101515611b2a57fe5b6020020151611b6187610140015184815181101515611b4557fe5b90602001906020020151611b5c8660a00151613469565b612fdb565b613016565b8261016001516000815181101515611b7a57fe5b906020019060200201516000600281101515611b9257fe5b6020020181905250611bda826102000151611bd587610160015184815181101515611bb957fe5b90602001906020020151611bd08660a00151613469565b612fdb565b613016565b826102000181905250611c4e8261018001516000815181101515611bfa57fe5b906020019060200201516000600281101515611c1257fe5b6020020151611c4987610180015184815181101515611c2d57fe5b90602001906020020151611c448660a00151613469565b612fdb565b613016565b8261018001516000815181101515611c6257fe5b906020019060200201516000600281101515611c7a57fe5b6020020181905250611cc2826101e00151611cbd876101a0015184815181101515611ca157fe5b90602001906020020151611cb88660a00151613469565b612fdb565b613016565b826101e00181905250611d0b826101a00151611d06876101c0015184815181101515611cea57fe5b90602001906020020151611d018660a00151613469565b612fdb565b613016565b826101a00181905250611d54826101c00151611d4f876101e0015184815181101515611d3357fe5b90602001906020020151611d4a8660a00151613469565b612fdb565b613016565b826101c00181905250611d7882606001518360a0015161308490919063ffffffff16565b8260a00181815250508080600101915050611a5d565b50611daf816102000151611daa87606001518460a00151612fdb565b613016565b816102000181905250611df4816101e00151611def6002604080519081016040529081600082015481526020016001820154815250508460a00151612fdb565b613016565b816101e00181905250611e056144be565b611e588260600151866102800151876102a00151886102c00151896102e00151604051602001611e39959493929190615116565b6040516020818303038152906040528051906020012060019004612f66565b816000018181525050611e6e8160000151613495565b8160200181905250611ead8160000151604051602001611e8e9190614fd6565b6040516020818303038152906040528051906020012060019004612f66565b8160400181815250506040805190810160405280611ed96002846040015161353290919063ffffffff16565b8152602001611ef66003846040015161353290919063ffffffff16565b8152508160600181905250611f588160400151611f4a83606001516001600281101515611f1f57fe5b602002015184606001516000600281101515611f3757fe5b602002015161359f90919063ffffffff16565b61308490919063ffffffff16565b8160a0018181525050611ffb611fa18260a00151611f9360026040811515611f7c57fe5b0460020a8560a0015161308490919063ffffffff16565b612f9b90919063ffffffff16565b611fed611fd284606001516000600281101515611fba57fe5b60200201518560400151612f9b90919063ffffffff16565b611fdf85602001516135d6565b61308490919063ffffffff16565b612f9b90919063ffffffff16565b81610100018181525050612022816101000151866103200151612f9b90919063ffffffff16565b8160e001818152505060008090505b6002604081151561203e57fe5b048110156120f2576120738160020a8360600151600060028110151561206057fe5b602002015161308490919063ffffffff16565b82608001518260408110151561208557fe5b6020020181815250506120bb8160020a836060015160016002811015156120a857fe5b602002015161308490919063ffffffff16565b8260800151600260408115156120cd57fe5b0483016040811015156120dc57fe5b6020020181815250508080600101915050612031565b506121318160400151866103000151604051602001612112929190614ff1565b6040516020818303038152906040528051906020012060019004612f66565b8160c00181815250506121a4612163866103000151600060028110151561215457fe5b60200201518360c00151612fdb565b61219f876103000151600160028110151561217a57fe5b602002015161219a8560c001518660c0015161308490919063ffffffff16565b612fdb565b613016565b8161012001819052506121b561452a565b6122186121cc846101e00151886103a00151612fdb565b61221385610180015160008151811015156121e357fe5b9060200190602002015160006002811015156121fb57fe5b602002015161220e8a6103800151613469565b612fdb565b613016565b8160200181905250612272612252600260408051908101604052908160008201548152602001600182015481525050886103c00151612fdb565b61226d89606001516122688a6103800151613469565b612fdb565b613016565b81604001819052506122bd6040805190810160405280600681526020017f5a657468657200000000000000000000000000000000000000000000000000008152508860a00151613621565b81606001819052506122fb6122db8260600151886103a00151612fdb565b6122f68960c001516122f18a6103800151613469565b612fdb565b613016565b816080018190525061233b61231a846101c00151886103c00151612fdb565b612336856101a001516123318a6103800151613469565b612fdb565b613016565b8160c0018190525061245e6123e56123c861236e6123638761020001518b6102a00151613016565b8a6103a00151612fdb565b6123c36123b0886101600151600081518110151561238857fe5b9060200190602002015160006002811015156123a057fe5b60200201518c6102800151613016565b6123be8c6103800151613469565b612fdb565b613016565b846060015160006002811015156123db57fe5b6020020151612fdb565b61245961243c61240d6124028861014001518c6102e00151613016565b8b6103a00151612fdb565b6124376124248961012001518d6102c00151613016565b6124328d6103800151613469565b612fdb565b613016565b8560600151600160028110151561244f57fe5b6020020151612fdb565b613016565b8160e001819052506125126125086124e76124d46124a06002604080519081016040529081600082015481526020016001820154815250508760e00151612fdb565b6124cf6004604080519081016040529081600082015481526020016001820154815250508c6103400151612fdb565b613016565b6124e2866101200151613691565b613016565b6125038660a001518a610380015161308490919063ffffffff16565b612fdb565b8260e00151613016565b8161010001819052506125b561254d600260408051908101604052908160008201548152602001600182015481525050886103e00151612fdb565b6125b06125648661020001518a6103a00151612fdb565b6125ab876101600151600081518110151561257b57fe5b90602001906020020151600060028110151561259357fe5b60200201516125a68c6103800151613469565b612fdb565b613016565b613016565b81610120018190525061262d6125f0600260408051908101604052908160008201548152602001600182015481525050886104000151612fdb565b6126286126078661014001518a6103a00151612fdb565b61262387610120015161261e8c6103800151613469565b612fdb565b613016565b613016565b8161014001819052506126a5612668600460408051908101604052908160008201548152602001600182015481525050886104200151612fdb565b6126a061267f896102a001518a6103a00151612fdb565b61269b8a61028001516126968c6103800151613469565b612fdb565b613016565b613016565b81610160018190525061271d6126e0600460408051908101604052908160008201548152602001600182015481525050886104400151612fdb565b6127186126f7896102e001518a6103a00151612fdb565b6127138a6102c0015161270e8c6103800151613469565b612fdb565b613016565b613016565b8161018001819052506127988260c001518260200151836040015184608001518560c001518661010001518761012001518861014001518961016001518a61018001516040516020016127799a999897969594939291906151fa565b6040516020818303038152906040528051906020012060019004612f66565b81600001818152505085610380015181600001511415156127ee576040517f08c379a00000000000000000000000000000000000000000000000000000000081526004016127e590614f36565b60405180910390fd5b6127f66145db565b61282d826000015160405160200161280e9190614fd6565b6040516020818303038152906040528051906020012060019004612f66565b8160800181815250506128646002604080519081016040529081600082015481526020016001820154815250508260800151612fdb565b81600001819052506128e56001805480602002602001604051908101604052809291908181526020016000905b828210156128d757838290600052602060002090600202016040805190810160405290816000820154815260200160018201548152505081526020019060010190612891565b50505050846020015161370a565b816020018190525061290c61290284602001518560400151613786565b84608001516137ed565b81604001819052506129de6129c761293989600001516129348b602001518860c00151612fdb565b613016565b6129c26129b06000805480602002602001604051908101604052809291908181526020016000905b828210156129a757838290600052602060002090600202016040805190810160405290816000820154815260200160018201548152505081526020019060010190612961565b50505050613866565b6129bd8860400151613469565b612fdb565b613016565b6129d9836020015184604001516138b3565b613016565b8160600181905250612a2a8160600151612a25600460408051908101604052908160008201548152602001600182015481525050612a208b6103600151613469565b612fdb565b613016565b8160600181905250612a528160600151612a4d83600001518a6103200151612fdb565b613016565b8160600181905250612a626143b7565b876104600151905060008090505b6006811015612baf57612ae08360800151836000015183600681101515612a9357fe5b6020020151846020015184600681101515612aaa57fe5b6020020151604051602001612ac1939291906150df565b6040516020818303038152906040528051906020012060019004612f66565b83608001818152505082608001518360a0015182600681101515612b0057fe5b6020020181815250506000612b188460800151613917565b9050612b998460600151612b94612b5c866000015186600681101515612b3a57fe5b6020020151612b5760028a6080015161353290919063ffffffff16565b612fdb565b612b8f876020015187600681101515612b7157fe5b6020020151612b8a60028861353290919063ffffffff16565b612fdb565b613016565b613016565b8460600181905250508080600101915050612a70565b5060018260c001516000604081101515612bc557fe5b60200201818152505060008090505b6006811015612c4657612c1d8360a0015182600681101515612bf257fe5b60200201518460c001516000604081101515612c0a57fe5b602002015161308490919063ffffffff16565b8360c001516000604081101515612c3057fe5b6020020181815250508080600101915050612bd4565b50612c4f61463e565b612c6f8360c001516000604081101515612c6557fe5b6020020151613917565b8360c001516000604081101515612c8257fe5b60200201818152505060008090505b60026040811515612c9e57fe5b04811015612db15760008090505b6040828260019060020a02011015612da55760008160019060020a02830190508381604081101515612cda57fe5b60200201511515612d99576000612d328760a0015184600160060303600681101515612d0257fe5b60200201518860a0015185600160060303600681101515612d1f57fe5b602002015161308490919063ffffffff16565b9050612d5d818860c0015186604081101515612d4a57fe5b602002015161308490919063ffffffff16565b8760c0015183604081101515612d6f57fe5b60200201818152505060018583604081101515612d8857fe5b602002019015159081151581525050505b50806001019050612cac565b50806001019050612c91565b50612dba614662565b612dc2614662565b60008090505b6040811015612e8b57612e3583612e30600084815481101515612de757fe5b9060005260206000209060020201604080519081016040529081600082015481526020016001820154815250508960c0015185604081101515612e2657fe5b6020020151612fdb565b613016565b9250612e7c82612e77886020015184604081101515612e5057fe5b60200201518960c0015185600160400303604081101515612e6d57fe5b6020020151612fdb565b613016565b91508080600101915050612dc8565b50612e94614662565b612ee8612ebb612ea8858860400151612fdb565b612eb6858960600151612fdb565b613016565b612ee38860000151612ede89606001518a6040015161308490919063ffffffff16565b612fdb565b613016565b9050612ef886606001518261305c565b1515612f39576040517f08c379a0000000000000000000000000000000000000000000000000000000008152600401612f3090614fb6565b60405180910390fd5b60019a505050505050505050505092915050565b6000604051826020850101518152805191505092915050565b60007f30644e72e131a029b85045b68181585d2833e84879b9709143e1f593f000000182811515612f9357fe5b069050919050565b600081831015612fcf5782827f30644e72e131a029b85045b68181585d2833e84879b9709143e1f593f00000010301612fd3565b8183035b905092915050565b612fe3614662565b604051835181526020840151602082015282604082015260408260608360075afa151561300f57600080fd5b5092915050565b61301e614662565b6040518351815260208401516020820152825160408201526020830151606082015260408260808360065afa151561305557600080fd5b5092915050565b60008160000151836000015114801561307c575081602001518360200151145b905092915050565b60007f30644e72e131a029b85045b68181585d2833e84879b9709143e1f593f00000018015156130b057fe5b828409905092915050565b60606000600283518115156130cc57fe5b04905060008160020a90508060405190808252806020026020018201604052801561311157816020015b6130fe61449c565b8152602001906001900390816130f65790505b50925060008090505b60028110156131ab57606061313984830285600185010260018961394d565b905060008090505b8381101561319c57818181518110151561315757fe5b90602001906020020151868281518110151561316f57fe5b906020019060200201518460028110151561318657fe5b6020020181815250508080600101915050613141565b5050808060010191505061311a565b505050919050565b606060008351905060006002828115156131c957fe5b0490508060405190808252806020026020018201604052801561320657816020015b6131f361467c565b8152602001906001900390816131eb5790505b5092506060613216856000613b02565b90506060836040519080825280602002602001820160405280156132495781602001602082028038833980820191505090505b50905060008090505b600281101561345e5760008090505b858110156132c957888682880381151561327757fe5b0681518110151561328457fe5b906020019060200201518260028110151561329b57fe5b602002015183828151811015156132ae57fe5b90602001906020020181815250508080600101915050613261565b506132d382613d63565b915060608460405190808252806020026020018201604052801561331157816020015b6132fe61423f565b8152602001906001900390816132f65790505b50905060006002905061332381613917565b905060008090505b868110156133e0576133b86133b2613371888481518110151561334a57fe5b90602001906020020151888581518110151561336257fe5b90602001906020020151612fdb565b6133ad898b860181518110151561338457fe5b90602001906020020151898c870181518110151561339e57fe5b90602001906020020151612fdb565b613016565b83612fdb565b83828151811015156133c657fe5b90602001906020020181905250808060010191505061332b565b506133ec826001613b02565b915060008090505b8681101561344e57828181518110151561340a57fe5b90602001906020020151898281518110151561342257fe5b906020019060200201518560028110151561343957fe5b602002018190525080806001019150506133f4565b5050508080600101915050613252565b505050505092915050565b6000817f30644e72e131a029b85045b68181585d2833e84879b9709143e1f593f0000001039050919050565b61349d6146aa565b60018160006040811015156134ae57fe5b602002018181525050818160016040811015156134c757fe5b6020020181815250506000600290505b604081101561352c576135088383600184036040811015156134f557fe5b602002015161308490919063ffffffff16565b828260408110151561351657fe5b60200201818152505080806001019150506134d7565b50919050565b6000807f30644e72e131a029b85045b68181585d2833e84879b9709143e1f593f0000001905060405160208152602080820152602060408201528460608201528360808201528160a082015260208160c08360055afa151561359357600080fd5b80519250505092915050565b60007f30644e72e131a029b85045b68181585d2833e84879b9709143e1f593f00000018015156135cb57fe5b828408905092915050565b600080600090505b604081101561361b5761360c83826040811015156135f857fe5b60200201518361359f90919063ffffffff16565b915080806001019150506135de565b50919050565b613629614662565b6136897f30644e72e131a029b85045b68181585d97816a916871ca8d3c208c16d87cfd478484604051602001613660929190614e56565b604051602081830303815290604052805190602001206001900481151561368357fe5b06613f8b565b905092915050565b613699614662565b6040805190810160405280836000015181526020017f30644e72e131a029b85045b68181585d97816a916871ca8d3c208c16d87cfd4784602001518115156136dd57fe5b067f30644e72e131a029b85045b68181585d97816a916871ca8d3c208c16d87cfd47038152509050919050565b6137126146ce565b60008090505b604081101561377f5761375c848281518110151561373257fe5b90602001906020020151613757858460408110151561374d57fe5b6020020151613917565b612fdb565b828260408110151561376a57fe5b60200201819052508080600101915050613718565b5092915050565b61378e6146aa565b60008090505b60408110156137e6576137c28385836040811015156137af57fe5b602002015161308490919063ffffffff16565b82826040811015156137d057fe5b6020020181815250508080600101915050613794565b5092915050565b6137f56146aa565b60008090505b604081101561385f5761383b838260408110151561381557fe5b6020020151858360408110151561382857fe5b602002015161359f90919063ffffffff16565b828260408110151561384957fe5b60200201818152505080806001019150506137fb565b5092915050565b61386e614662565b60008090505b60408110156138ad5761389e82848381518110151561388f57fe5b90602001906020020151613016565b91508080600101915050613874565b50919050565b6138bb614662565b60008090505b604081101561391057613901826138fc86846040811015156138df57fe5b602002015186856040811015156138f257fe5b6020020151612fdb565b613016565b915080806001019150506138c1565b5092915050565b60006139468260027f30644e72e131a029b85045b68181585d2833e84879b9709143e1f593f000000103613532565b9050919050565b6060600085850360020a9050806040519080825280602002602001820160405280156139885781602001602082028038833980820191505090505b509150858514156139ba57838260008151811015156139a357fe5b906020019060200201818152505081915050613afa565b6001850394506060613a0a8787613a04878a8151811015156139d857fe5b9060200190602002015160006002811015156139f057fe5b60200201518961308490919063ffffffff16565b8761394d565b90506060613a568888613a50888b815181101515613a2457fe5b906020019060200201516001600281101515613a3c57fe5b60200201518a61308490919063ffffffff16565b8861394d565b905060008090505b600284811515613a6a57fe5b04811015613af5578281815181101515613a8057fe5b906020019060200201518582815181101515613a9857fe5b90602001906020020181815250508181815181101515613ab457fe5b9060200190602002015185600286811515613acb57fe5b048301815181101515613ada57fe5b90602001906020020181815250508080600101915050613a5e565b505050505b949350505050565b60606000835190506001811415613b1c5783915050613d5d565b6000600282811515613b2a57fe5b06141515613b6d576040517f08c379a0000000000000000000000000000000000000000000000000000000008152600401613b6490614f16565b60405180910390fd5b6000613bb1826310000000811515613b8157fe5b047f14a3074b02521e3b1ed9852e5028452693e87be4e910500c7ba9bbddb2f46edd61353290919063ffffffff16565b90506000600190508415613bcf57613bc882613917565b9150600290505b613bd881613917565b90506060613bf0613bea88600061402b565b87613b02565b90506060613c08613c0289600161402b565b88613b02565b905060006001905085604051908082528060200260200182016040528015613c4a57816020015b613c3761423f565b815260200190600190039081613c2f5790505b50965060008090505b600287811515613c5f57fe5b04811015613d5557613c6f614662565b613c908483815181101515613c8057fe5b9060200190602002015184612fdb565b9050613cbc613cb68684815181101515613ca657fe5b9060200190602002015183613016565b87612fdb565b8983815181101515613cca57fe5b90602001906020020181905250613d09613d038684815181101515613ceb57fe5b90602001906020020151613cfe84613691565b613016565b87612fdb565b8960028a811515613d1657fe5b048401815181101515613d2557fe5b90602001906020020181905250613d45878461308490919063ffffffff16565b9250508080600101915050613c53565b505050505050505b92915050565b60606000825190506001811415613d7d5782915050613f86565b6000600282811515613d8b57fe5b06141515613dce576040517f08c379a0000000000000000000000000000000000000000000000000000000008152600401613dc590614f16565b60405180910390fd5b6000613e12826310000000811515613de257fe5b047f14a3074b02521e3b1ed9852e5028452693e87be4e910500c7ba9bbddb2f46edd61353290919063ffffffff16565b90506060613e29613e248660006140de565b613d63565b90506060613e40613e3b8760016140de565b613d63565b905060006001905084604051908082528060200260200182016040528015613e775781602001602082028038833980820191505090505b50955060008090505b600286811515613e8c57fe5b04811015613f7f576000613ec0838584815181101515613ea857fe5b9060200190602002015161308490919063ffffffff16565b9050613eec818684815181101515613ed457fe5b9060200190602002015161359f90919063ffffffff16565b8883815181101515613efa57fe5b9060200190602002018181525050613f32818684815181101515613f1a57fe5b90602001906020020151612f9b90919063ffffffff16565b88600289811515613f3f57fe5b048401815181101515613f4e57fe5b9060200190602002018181525050613f6f868461308490919063ffffffff16565b9250508080600101915050613e80565b5050505050505b919050565b613f93614662565b60005b60011561400e5760006003613fac856003614187565b019050613fe881600460017f30644e72e131a029b85045b68181585d97816a916871ca8d3c208c16d87cfd4701811515613fe257fe5b04614187565b915080613ff6836002614187565b1415614002575061400e565b60018401935050613f96565b604080519081016040528084815260200182815250915050919050565b60606002835181151561403a57fe5b0460405190808252806020026020018201604052801561407457816020015b61406161423f565b8152602001906001900390816140595790505b50905060008090505b6002845181151561408a57fe5b048110156140d757838382600202018151811015156140a557fe5b9060200190602002015182828151811015156140bd57fe5b90602001906020020181905250808060010191505061407d565b5092915050565b6060600283518115156140ed57fe5b0460405190808252806020026020018201604052801561411c5781602001602082028038833980820191505090505b50905060008090505b6002845181151561413257fe5b04811015614180578383826002020181518110151561414d57fe5b90602001906020020151828281518110151561416557fe5b90602001906020020181815250508080600101915050614125565b5092915050565b6000807f30644e72e131a029b85045b68181585d97816a916871ca8d3c208c16d87cfd47905060405160208152602080820152602060408201528460608201528360808201528160a082015260208160c08360055afa15156141e857600080fd5b80519250505092915050565b6101206040519081016040528060608152602001606081526020016060815260200161421e61423f565b8152602001606081526020016000815260200161423961423f565b81525090565b604080519081016040528060008152602001600081525090565b6109806040519081016040528061426e61423f565b815260200161427b61423f565b815260200161428861423f565b815260200161429561423f565b81526020016142a261423f565b81526020016142af61423f565b81526020016142bc61423f565b81526020016142c961423f565b815260200160608152602001606081526020016060815260200160608152602001606081526020016060815260200160608152602001606081526020016060815260200160008152602001600081526020016000815260200161432a61423f565b815260200161433761423f565b815260200161434461423f565b815260200161435161423f565b815260200161435e61467c565b8152602001600081526020016000815260200160008152602001600081526020016000815260200160008152602001600081526020016000815260200160008152602001600081526020016143b16146fd565b81525090565b610340604051908101604052806143cc614733565b81526020016143d9614733565b815260200160008152602001600081525090565b61030060405190810160405280600081526020016000815260200160008152602001600081526020016000815260200160008152602001606081526020016060815260200161443a61423f565b815260200161444761423f565b815260200161445461423f565b8152602001606081526020016060815260200161446f61423f565b815260200161447c61423f565b815260200161448961423f565b815260200161449661423f565b81525090565b6040805190810160405280600290602082028038833980820191505090505090565b61114060405190810160405280600081526020016144da614762565b8152602001600081526020016144ee61449c565b81526020016144fb614762565b81526020016000815260200160008152602001600081526020016000815260200161452461423f565b81525090565b610320604051908101604052806000815260200161454661423f565b815260200161455361423f565b815260200161456061423f565b815260200161456d61423f565b815260200161457a61423f565b815260200161458761423f565b815260200161459461423f565b81526020016145a161423f565b81526020016145ae61423f565b81526020016145bb61423f565b81526020016145c861423f565b81526020016145d561423f565b81525090565b612160604051908101604052806145f061423f565b81526020016145fd614786565b815260200161460a614762565b815260200161461761423f565b81526020016000815260200161462b6147b5565b8152602001614638614762565b81525090565b61080060405190810160405280604090602082028038833980820191505090505090565b604080519081016040528060008152602001600081525090565b6080604051908101604052806002905b61469461423f565b81526020019060019003908161468c5790505090565b61080060405190810160405280604090602082028038833980820191505090505090565b611000604051908101604052806040905b6146e761423f565b8152602001906001900390816146df5790505090565b61034060405190810160405280614712614733565b815260200161471f614733565b815260200160008152602001600081525090565b610180604051908101604052806006905b61474c61423f565b8152602001906001900390816147445790505090565b61080060405190810160405280604090602082028038833980820191505090505090565b611000604051908101604052806040905b61479f61423f565b8152602001906001900390816147975790505090565b60c060405190810160405280600690602082028038833980820191505090505090565b600082601f83011215156147eb57600080fd5b81356147fe6147f9826152c6565b615299565b9150818183526020840193506020810190508385604084028201111561482357600080fd5b60005b838110156148535781614839888261485d565b845260208401935060408301925050600181019050614826565b5050505092915050565b600082601f830112151561487057600080fd5b600261488361487e826152ee565b615299565b9150818385602084028201111561489957600080fd5b60005b838110156148c957816148af8882614949565b84526020840193506020830192505060018101905061489c565b5050505092915050565b600082601f83011215156148e657600080fd5b60026148f96148f482615310565b615299565b9150818385602084028201111561490f57600080fd5b60005b8381101561493f57816149258882614949565b845260208401935060208301925050600181019050614912565b5050505092915050565b600061495582356153fe565b905092915050565b600082601f830112151561497057600080fd5b813561498361497e82615332565b615299565b9150808252602083016020830185838301111561499f57600080fd5b6149aa838284615412565b50505092915050565b60006149bf8235615408565b905092915050565b600080600080600080600080610140898b0312156149e457600080fd5b600089013567ffffffffffffffff8111156149fe57600080fd5b614a0a8b828c016147d8565b985050602089013567ffffffffffffffff811115614a2757600080fd5b614a338b828c016147d8565b975050604089013567ffffffffffffffff811115614a5057600080fd5b614a5c8b828c016147d8565b9650506060614a6d8b828c016148d3565b95505060a089013567ffffffffffffffff811115614a8a57600080fd5b614a968b828c016147d8565b94505060c0614aa78b828c016149b3565b93505060e0614ab88b828c016148d3565b92505061012089013567ffffffffffffffff811115614ad657600080fd5b614ae28b828c0161495d565b9150509295985092959890939650565b6000614afe8383614dc3565b60408301905092915050565b614b1381615375565b614b1d81846153b0565b9250614b288261535e565b60005b82811015614b5657614b3e858351614af2565b9450614b4982615396565b9150600181019050614b2b565b5050505050565b6000614b6882615380565b614b7281856153bb565b9350614b7d83615368565b60005b82811015614bab57614b93868351614af2565b9550614b9e826153a3565b9150600181019050614b80565b50849250505092915050565b614bc0816153e8565b82525050565b6000614bd18261538b565b614bdb81856153dd565b9350614beb818560208601615421565b80840191505092915050565b6000614c04601f836153cc565b91507f496e7075742073697a65206973206e6f74206120706f776572206f66203221006000830152602082019050919050565b6000614c44602a836153cc565b91507f5369676d612070726f746f636f6c206368616c6c656e676520657175616c697460008301527f79206661696c7572652e000000000000000000000000000000000000000000006020830152604082019050919050565b6000614caa601d836153cc565b91507f5265636f76657279206661696c75726520666f7220465e77202a20452e0000006000830152602082019050919050565b6000614cea601d836153cc565b91507f5265636f76657279206661696c75726520666f7220435e77202a20442e0000006000830152602082019050919050565b6000614d2a601d836153cc565b91507f5265636f76657279206661696c75726520666f7220425e77202a20412e0000006000830152602082019050919050565b6000614d6a6025836153cc565b91507f496e6e65722070726f6475637420657175616c69747920636865636b2066616960008301527f6c7572652e0000000000000000000000000000000000000000000000000000006020830152604082019050919050565b604082016000820151614dd96000850182614e21565b506020820151614dec6020850182614e21565b50505050565b604082016000820151614e086000850182614e21565b506020820151614e1b6020850182614e21565b50505050565b614e2a816153f4565b82525050565b614e39816153f4565b82525050565b614e50614e4b826153f4565b615454565b82525050565b6000614e628285614bc6565b9150614e6e8284614e3f565b6020820191508190509392505050565b600060e0820190508181036000830152614e988189614b5d565b90508181036020830152614eac8188614b5d565b90508181036040830152614ec08187614b5d565b9050614ecf6060830186614df2565b81810360a0830152614ee18185614b5d565b9050614ef060c0830184614e30565b979650505050505050565b6000602082019050614f106000830184614bb7565b92915050565b60006020820190508181036000830152614f2f81614bf7565b9050919050565b60006020820190508181036000830152614f4f81614c37565b9050919050565b60006020820190508181036000830152614f6f81614c9d565b9050919050565b60006020820190508181036000830152614f8f81614cdd565b9050919050565b60006020820190508181036000830152614faf81614d1d565b9050919050565b60006020820190508181036000830152614fcf81614d5d565b9050919050565b6000602082019050614feb6000830184614e30565b92915050565b600060a0820190506150066000830185614e30565b6150136020830184614b0a565b9392505050565b600061012082019050615030600083018c614e30565b8181036020830152615042818b614b5d565b90508181036040830152615056818a614b5d565b9050818103606083015261506a8189614b5d565b9050818103608083015261507e8188614b5d565b905081810360a08301526150928187614b5d565b905081810360c08301526150a68186614b5d565b905081810360e08301526150ba8185614b5d565b90508181036101008301526150cf8184614b5d565b90509a9950505050505050505050565b600060a0820190506150f46000830186614e30565b6151016020830185614df2565b61510e6060830184614df2565b949350505050565b60006101208201905061512c6000830188614e30565b6151396020830187614df2565b6151466060830186614df2565b61515360a0830185614df2565b61516060e0830184614df2565b9695505050505050565b600061022082019050615180600083018c614e30565b61518d602083018b614df2565b61519a606083018a614df2565b6151a760a0830189614df2565b6151b460e0830188614df2565b6151c2610120830187614df2565b6151d0610160830186614df2565b6151de6101a0830185614df2565b6151ec6101e0830184614df2565b9a9950505050505050505050565b600061026082019050615210600083018d614e30565b61521d602083018c614df2565b61522a606083018b614df2565b61523760a083018a614df2565b61524460e0830189614df2565b615252610120830188614df2565b615260610160830187614df2565b61526e6101a0830186614df2565b61527c6101e0830185614df2565b61528a610220830184614df2565b9b9a5050505050505050505050565b6000604051905081810181811067ffffffffffffffff821117156152bc57600080fd5b8060405250919050565b600067ffffffffffffffff8211156152dd57600080fd5b602082029050602081019050919050565b600067ffffffffffffffff82111561530557600080fd5b602082029050919050565b600067ffffffffffffffff82111561532757600080fd5b602082029050919050565b600067ffffffffffffffff82111561534957600080fd5b601f19601f8301169050602081019050919050565b6000819050919050565b6000602082019050919050565b600060029050919050565b600081519050919050565b600081519050919050565b6000602082019050919050565b6000602082019050919050565b600081905092915050565b600082825260208201905092915050565b600082825260208201905092915050565b600081905092915050565b60008115159050919050565b6000819050919050565b6000819050919050565b6000819050919050565b82818337600083830152505050565b60005b8381101561543f578082015181840152602081019050615424565b8381111561544e576000848401525b50505050565b600081905091905056fea265627a7a72305820c3f09a7f54eabf5ef0d4984f25fe6de9c1028704e8cbe6f284e9cef4274abf2d6c6578706572696d656e74616cf50037",
  "source": "pragma solidity 0.5.4;\npragma experimental ABIEncoderV2;\n\nimport \"./Utils.sol\";\n\ncontract ZetherVerifier {\n    using Utils for uint256;\n\n    uint256 constant m = 64;\n    uint256 constant n = 6;\n    uint256 constant FIELD_ORDER = 21888242871839275222246405745257275088696311157297823662689037894645226208583;\n    uint256 constant UNITY = 9334303377689037989442018753807510978357674015322511348041267794643984346845; // primitive 2^28th root of unity modulo GROUP_ORDER (not field!)\n\n    G1Point[] gs;\n    G1Point[] hs;\n    G1Point g;\n    G1Point h;\n\n    struct ZetherStatement {\n        G1Point[] CLn;\n        G1Point[] CRn;\n        G1Point[] C;\n        G1Point D;\n        G1Point[] y;\n        uint256 epoch;\n        G1Point u;\n    }\n\n    struct ZetherProof {\n        G1Point BA;\n        G1Point BS;\n        G1Point A;\n        G1Point B;\n        G1Point C;\n        G1Point D;\n        G1Point E;\n        G1Point F;\n\n        G1Point[] CLnG;\n        G1Point[] CRnG;\n        G1Point[] C_0G;\n        G1Point[] DG;\n        G1Point[] y_0G;\n        G1Point[] gG;\n        G1Point[] C_XG;\n        G1Point[] y_XG;\n\n        uint256[] f;\n        uint256 z_A;\n        uint256 z_C;\n        uint256 z_E;\n\n        G1Point CPrime;\n        G1Point DPrime;\n        G1Point CLnPrime;\n        G1Point CRnPrime;\n\n        G1Point[2] tCommits;\n        uint256 tHat;\n        uint256 tauX;\n        uint256 mu;\n\n        uint256 c;\n        uint256 s_sk;\n        uint256 s_r;\n        uint256 s_vTransfer;\n        uint256 s_vDiff;\n        uint256 s_nuTransfer;\n        uint256 s_nuDiff;\n\n        InnerProductProof ipProof;\n    }\n\n    struct InnerProductProof {\n        G1Point[n] ls;\n        G1Point[n] rs;\n        uint256 a;\n        uint256 b;\n    }\n\n    constructor() public {\n        g = mapInto(\"G\");\n        h = mapInto(\"V\");\n        for (uint256 i = 0; i < m; i++) {\n            gs.push(mapInto(\"G\", i));\n            hs.push(mapInto(\"H\", i));\n        }\n    }\n\n    function verifyTransfer(bytes32[2][] memory CLn, bytes32[2][] memory CRn, bytes32[2][] memory C, bytes32[2] memory D, bytes32[2][] memory y, uint256 epoch, bytes32[2] memory u, bytes memory proof) view public returns (bool) {\n        ZetherStatement memory statement;\n        uint256 size = y.length;\n\n        statement.CLn = new G1Point[](size);\n        statement.CRn = new G1Point[](size);\n        statement.C = new G1Point[](size);\n        statement.y = new G1Point[](size);\n        for (uint256 i = 0; i < size; i++) {\n            statement.CLn[i] = G1Point(uint256(CLn[i][0]), uint256(CLn[i][1]));\n            statement.CRn[i] = G1Point(uint256(CRn[i][0]), uint256(CRn[i][1]));\n            statement.C[i] = G1Point(uint256(C[i][0]), uint256(C[i][1]));\n            statement.y[i] = G1Point(uint256(y[i][0]), uint256(y[i][1]));\n        }\n        statement.D = G1Point(uint256(D[0]), uint256(D[1]));\n        statement.epoch = epoch;\n        statement.u = G1Point(uint256(u[0]), uint256(u[1]));\n        ZetherProof memory zetherProof = unserialize(proof);\n        return verify(statement, zetherProof);\n    }\n\n    struct ZetherAuxiliaries {\n        uint256 y;\n        uint256[m] ys;\n        uint256 z;\n        uint256[2] zs; // [z^2, z^3]\n        uint256[m] twoTimesZSquared;\n        uint256 zSum;\n        uint256 x;\n        uint256 t;\n        uint256 k;\n        G1Point tEval;\n    }\n\n    struct SigmaAuxiliaries {\n        uint256 c;\n        G1Point A_y;\n        G1Point A_D;\n        G1Point gEpoch;\n        G1Point A_u;\n        G1Point A_B;\n        G1Point A_X;\n        G1Point c_commit;\n        G1Point A_t;\n        G1Point A_C0;\n        G1Point A_CLn;\n        G1Point A_CPrime;\n        G1Point A_CLnPrime;\n    }\n\n    struct AnonAuxiliaries {\n        uint256 m;\n        uint256 N;\n        uint256 v;\n        uint256 w;\n        uint256 vPow;\n        uint256 wPow;\n        uint256[2][] f; // could just allocate extra space in the proof?\n        uint256[2][] r; // each poly is an array of length N. evaluations of prods\n        G1Point temp;\n        G1Point CLnR;\n        G1Point CRnR;\n        G1Point[2][] CR;\n        G1Point[2][] yR;\n        G1Point C_XR;\n        G1Point y_XR;\n        G1Point gR;\n        G1Point DR;\n    }\n\n    struct IPAuxiliaries {\n        G1Point u_x;\n        G1Point[m] hPrimes;\n        uint256[m] hExp;\n        G1Point P;\n        uint256 o;\n        uint256[n] challenges;\n        uint256[m] otherExponents;\n    }\n\n    function verify(ZetherStatement memory statement, ZetherProof memory proof) view internal returns (bool) {\n        uint256 statementHash = uint256(keccak256(abi.encode(statement.CLn, statement.CRn, statement.C, statement.D, statement.y, statement.epoch))).mod();\n\n        AnonAuxiliaries memory anonAuxiliaries;\n        anonAuxiliaries.v = uint256(keccak256(abi.encode(statementHash, proof.BA, proof.BS, proof.A, proof.B, proof.C, proof.D, proof.E, proof.F))).mod();\n        anonAuxiliaries.w = uint256(keccak256(abi.encode(anonAuxiliaries.v, proof.CLnG, proof.CRnG, proof.C_0G, proof.DG, proof.y_0G, proof.gG, proof.C_XG, proof.y_XG))).mod();\n        anonAuxiliaries.m = proof.f.length / 2;\n        anonAuxiliaries.N = 2 ** anonAuxiliaries.m;\n        anonAuxiliaries.f = new uint256[2][](2 * anonAuxiliaries.m);\n        for (uint256 k = 0; k < 2 * anonAuxiliaries.m; k++) {\n            anonAuxiliaries.f[k][1] = proof.f[k];\n            anonAuxiliaries.f[k][0] = anonAuxiliaries.w.sub(proof.f[k]);\n        }\n\n        for (uint256 k = 0; k < 2 * anonAuxiliaries.m; k++) {\n            anonAuxiliaries.temp = add(anonAuxiliaries.temp, mul(gs[k], anonAuxiliaries.f[k][1]));\n        }\n        require(eq(add(mul(proof.B, anonAuxiliaries.w), proof.A), add(anonAuxiliaries.temp, mul(h, proof.z_A))), \"Recovery failure for B^w * A.\");\n\n        anonAuxiliaries.temp = G1Point(0, 0);\n        for (uint256 k = 0; k < 2 * anonAuxiliaries.m; k++) { // danger... gs and hs need to be big enough.\n            anonAuxiliaries.temp = add(anonAuxiliaries.temp, mul(gs[k], anonAuxiliaries.f[k][1].mul(anonAuxiliaries.w.sub(anonAuxiliaries.f[k][1]))));\n        }\n        require(eq(add(mul(proof.C, anonAuxiliaries.w), proof.D), add(anonAuxiliaries.temp, mul(h, proof.z_C))), \"Recovery failure for C^w * D.\");\n\n        anonAuxiliaries.temp = add(mul(gs[0], anonAuxiliaries.f[0][1].mul(anonAuxiliaries.f[anonAuxiliaries.m][1])), mul(gs[1], anonAuxiliaries.f[0][0].mul(anonAuxiliaries.f[anonAuxiliaries.m][0])));\n        require(eq(add(mul(proof.F, anonAuxiliaries.w), proof.E), add(anonAuxiliaries.temp, mul(h, proof.z_E))), \"Recovery failure for F^w * E.\");\n\n        anonAuxiliaries.r = assemblePolynomials(anonAuxiliaries.f);\n\n        anonAuxiliaries.CR = assembleConvolutions(anonAuxiliaries.r, statement.C);\n        anonAuxiliaries.yR = assembleConvolutions(anonAuxiliaries.r, statement.y);\n        for (uint256 i = 0; i < anonAuxiliaries.N; i++) {\n            anonAuxiliaries.CLnR = add(anonAuxiliaries.CLnR, mul(statement.CLn[i], anonAuxiliaries.r[i][0]));\n            anonAuxiliaries.CRnR = add(anonAuxiliaries.CRnR, mul(statement.CRn[i], anonAuxiliaries.r[i][0]));\n        }\n        anonAuxiliaries.vPow = 1;\n        for (uint256 i = 0; i < anonAuxiliaries.N; i++) {\n            anonAuxiliaries.C_XR = add(anonAuxiliaries.C_XR, mul(anonAuxiliaries.CR[i / 2][i % 2], anonAuxiliaries.vPow));\n            anonAuxiliaries.y_XR = add(anonAuxiliaries.y_XR, mul(anonAuxiliaries.yR[i / 2][i % 2], anonAuxiliaries.vPow));\n            if (i > 0) {\n                anonAuxiliaries.vPow = anonAuxiliaries.vPow.mul(anonAuxiliaries.v);\n            }\n        }\n        anonAuxiliaries.wPow = 1;\n        for (uint256 k = 0; k < anonAuxiliaries.m; k++) {\n            anonAuxiliaries.CLnR = add(anonAuxiliaries.CLnR, mul(proof.CLnG[k], anonAuxiliaries.wPow.neg()));\n            anonAuxiliaries.CRnR = add(anonAuxiliaries.CRnR, mul(proof.CRnG[k], anonAuxiliaries.wPow.neg()));\n            anonAuxiliaries.CR[0][0] = add(anonAuxiliaries.CR[0][0], mul(proof.C_0G[k], anonAuxiliaries.wPow.neg()));\n            anonAuxiliaries.DR = add(anonAuxiliaries.DR, mul(proof.DG[k], anonAuxiliaries.wPow.neg()));\n            anonAuxiliaries.yR[0][0] = add(anonAuxiliaries.yR[0][0], mul(proof.y_0G[k], anonAuxiliaries.wPow.neg()));\n            anonAuxiliaries.gR = add(anonAuxiliaries.gR, mul(proof.gG[k], anonAuxiliaries.wPow.neg()));\n            anonAuxiliaries.C_XR = add(anonAuxiliaries.C_XR, mul(proof.C_XG[k], anonAuxiliaries.wPow.neg()));\n            anonAuxiliaries.y_XR = add(anonAuxiliaries.y_XR, mul(proof.y_XG[k], anonAuxiliaries.wPow.neg()));\n\n            anonAuxiliaries.wPow = anonAuxiliaries.wPow.mul(anonAuxiliaries.w);\n        }\n        anonAuxiliaries.DR = add(anonAuxiliaries.DR, mul(statement.D, anonAuxiliaries.wPow));\n        anonAuxiliaries.gR = add(anonAuxiliaries.gR, mul(g, anonAuxiliaries.wPow));\n\n        ZetherAuxiliaries memory zetherAuxiliaries;\n        zetherAuxiliaries.y = uint256(keccak256(abi.encode(anonAuxiliaries.w, proof.CPrime, proof.DPrime, proof.CLnPrime, proof.CRnPrime))).mod();\n        zetherAuxiliaries.ys = powers(zetherAuxiliaries.y);\n        zetherAuxiliaries.z = uint256(keccak256(abi.encode(zetherAuxiliaries.y))).mod();\n        zetherAuxiliaries.zs = [zetherAuxiliaries.z.exp(2), zetherAuxiliaries.z.exp(3)];        \n        zetherAuxiliaries.zSum = zetherAuxiliaries.zs[0].add(zetherAuxiliaries.zs[1]).mul(zetherAuxiliaries.z);\n        zetherAuxiliaries.k = sumScalars(zetherAuxiliaries.ys).mul(zetherAuxiliaries.z.sub(zetherAuxiliaries.zs[0])).sub(zetherAuxiliaries.zSum.mul(2 ** (m / 2)).sub(zetherAuxiliaries.zSum));\n        zetherAuxiliaries.t = proof.tHat.sub(zetherAuxiliaries.k);\n        for (uint256 i = 0; i < m / 2; i++) {\n            zetherAuxiliaries.twoTimesZSquared[i] = zetherAuxiliaries.zs[0].mul(2 ** i);\n            zetherAuxiliaries.twoTimesZSquared[i + m / 2] = zetherAuxiliaries.zs[1].mul(2 ** i);\n        }\n\n        zetherAuxiliaries.x = uint256(keccak256(abi.encode(zetherAuxiliaries.z, proof.tCommits))).mod();\n        zetherAuxiliaries.tEval = add(mul(proof.tCommits[0], zetherAuxiliaries.x), mul(proof.tCommits[1], zetherAuxiliaries.x.mul(zetherAuxiliaries.x))); // replace with \"commit\"?\n\n        SigmaAuxiliaries memory sigmaAuxiliaries;\n        sigmaAuxiliaries.A_y = add(mul(anonAuxiliaries.gR, proof.s_sk), mul(anonAuxiliaries.yR[0][0], proof.c.neg()));\n        sigmaAuxiliaries.A_D = add(mul(g, proof.s_r), mul(statement.D, proof.c.neg())); // add(mul(anonAuxiliaries.gR, proof.s_r), mul(anonAuxiliaries.DR, proof.c.neg()));\n        sigmaAuxiliaries.gEpoch = mapInto(\"Zether\", statement.epoch);\n        sigmaAuxiliaries.A_u = add(mul(sigmaAuxiliaries.gEpoch, proof.s_sk), mul(statement.u, proof.c.neg()));\n        sigmaAuxiliaries.A_X = add(mul(anonAuxiliaries.y_XR, proof.s_r), mul(anonAuxiliaries.C_XR, proof.c.neg()));\n        sigmaAuxiliaries.c_commit = add(mul(add(mul(add(anonAuxiliaries.DR, proof.DPrime), proof.s_sk), mul(add(anonAuxiliaries.CR[0][0], proof.CPrime), proof.c.neg())), zetherAuxiliaries.zs[0]), mul(add(mul(add(anonAuxiliaries.CRnR, proof.CRnPrime), proof.s_sk), mul(add(anonAuxiliaries.CLnR, proof.CLnPrime), proof.c.neg())), zetherAuxiliaries.zs[1]));\n        sigmaAuxiliaries.A_t = add(mul(add(add(mul(g, zetherAuxiliaries.t), mul(h, proof.tauX)), neg(zetherAuxiliaries.tEval)), proof.c.mul(anonAuxiliaries.wPow)), sigmaAuxiliaries.c_commit);\n        sigmaAuxiliaries.A_C0 = add(mul(g, proof.s_vTransfer), add(mul(anonAuxiliaries.DR, proof.s_sk), mul(anonAuxiliaries.CR[0][0], proof.c.neg())));\n        sigmaAuxiliaries.A_CLn = add(mul(g, proof.s_vDiff), add(mul(anonAuxiliaries.CRnR, proof.s_sk), mul(anonAuxiliaries.CLnR, proof.c.neg())));\n        sigmaAuxiliaries.A_CPrime = add(mul(h, proof.s_nuTransfer), add(mul(proof.DPrime, proof.s_sk), mul(proof.CPrime, proof.c.neg())));\n        sigmaAuxiliaries.A_CLnPrime = add(mul(h, proof.s_nuDiff), add(mul(proof.CRnPrime, proof.s_sk), mul(proof.CLnPrime, proof.c.neg())));\n\n        sigmaAuxiliaries.c = uint256(keccak256(abi.encode(zetherAuxiliaries.x, sigmaAuxiliaries.A_y, sigmaAuxiliaries.A_D, sigmaAuxiliaries.A_u, sigmaAuxiliaries.A_X, sigmaAuxiliaries.A_t, sigmaAuxiliaries.A_C0, sigmaAuxiliaries.A_CLn, sigmaAuxiliaries.A_CPrime, sigmaAuxiliaries.A_CLnPrime))).mod();\n        require(sigmaAuxiliaries.c == proof.c, \"Sigma protocol challenge equality failure.\");\n\n        IPAuxiliaries memory ipAuxiliaries;\n        ipAuxiliaries.o = uint256(keccak256(abi.encode(sigmaAuxiliaries.c))).mod();\n        ipAuxiliaries.u_x = mul(g, ipAuxiliaries.o);\n        ipAuxiliaries.hPrimes = hadamardInv(hs, zetherAuxiliaries.ys);\n        ipAuxiliaries.hExp = addVectors(times(zetherAuxiliaries.ys, zetherAuxiliaries.z), zetherAuxiliaries.twoTimesZSquared);\n        ipAuxiliaries.P = add(add(add(proof.BA, mul(proof.BS, zetherAuxiliaries.x)), mul(sumPoints(gs), zetherAuxiliaries.z.neg())), commit(ipAuxiliaries.hPrimes, ipAuxiliaries.hExp));\n        ipAuxiliaries.P = add(ipAuxiliaries.P, mul(h, proof.mu.neg()));\n        ipAuxiliaries.P = add(ipAuxiliaries.P, mul(ipAuxiliaries.u_x, proof.tHat));\n\n        // begin inner product verification\n        InnerProductProof memory ipProof = proof.ipProof;\n        for (uint256 i = 0; i < n; i++) {\n            ipAuxiliaries.o = uint256(keccak256(abi.encode(ipAuxiliaries.o, ipProof.ls[i], ipProof.rs[i]))).mod();\n            ipAuxiliaries.challenges[i] = ipAuxiliaries.o; // overwrites value\n            uint256 xInv = ipAuxiliaries.o.inv();\n            ipAuxiliaries.P = add(ipAuxiliaries.P, add(mul(ipProof.ls[i], ipAuxiliaries.o.exp(2)), mul(ipProof.rs[i], xInv.exp(2))));\n        }\n\n        ipAuxiliaries.otherExponents[0] = 1;\n        for (uint256 i = 0; i < n; i++) {\n            ipAuxiliaries.otherExponents[0] = ipAuxiliaries.otherExponents[0].mul(ipAuxiliaries.challenges[i]);\n        }\n        bool[m] memory bitSet;\n        ipAuxiliaries.otherExponents[0] = ipAuxiliaries.otherExponents[0].inv();\n        for (uint256 i = 0; i < m/2; ++i) {\n            for (uint256 j = 0; (1 << j) + i < m; ++j) {\n                uint256 i1 = i + (1 << j);\n                if (!bitSet[i1]) {\n                    uint256 temp = ipAuxiliaries.challenges[n - 1 - j].mul(ipAuxiliaries.challenges[n - 1 - j]);\n                    ipAuxiliaries.otherExponents[i1] = ipAuxiliaries.otherExponents[i].mul(temp);\n                    bitSet[i1] = true;\n                }\n            }\n        }\n\n        G1Point memory gTemp;\n        G1Point memory hTemp;\n        for (uint256 i = 0; i < m; i++) {\n            gTemp = add(gTemp, mul(gs[i], ipAuxiliaries.otherExponents[i]));\n            hTemp = add(hTemp, mul(ipAuxiliaries.hPrimes[i], ipAuxiliaries.otherExponents[m - 1 - i]));\n        }\n        G1Point memory cProof = add(add(mul(gTemp, ipProof.a), mul(hTemp, ipProof.b)), mul(ipAuxiliaries.u_x, ipProof.a.mul(ipProof.b)));\n        require(eq(ipAuxiliaries.P, cProof), \"Inner product equality check failure.\");\n\n        return true;\n    }\n\n    function assemblePolynomials(uint256[2][] memory f) internal view returns (uint256[2][] memory result) {\n        uint256 m = f.length / 2;\n        uint256 N = 2 ** m;\n        result = new uint256[2][](N);\n        for (uint256 i = 0; i < 2; i++) {\n            uint256[] memory half = recursivePolynomials(i * m, (i + 1) * m, 1, f);\n            for (uint256 j = 0; j < N; j++) {\n                result[j][i] = half[j];\n            }\n        }\n    }\n\n    function recursivePolynomials(uint256 baseline, uint256 current, uint256 accum, uint256[2][] memory f) internal view returns (uint256[] memory result) {\n        // have to do a bunch of re-allocating because solidity won't let me have something which is internal and also modifies (internal) state. (?)\n        uint256 size = 2 ** (current - baseline); // size is at least 2...\n        result = new uint256[](size);\n\n        if (current == baseline) {\n            result[0] = accum;\n            return result;\n        }\n        current = current - 1;\n\n        uint256[] memory left = recursivePolynomials(baseline, current, accum.mul(f[current][0]), f);\n        uint256[] memory right = recursivePolynomials(baseline, current, accum.mul(f[current][1]), f);\n        for (uint256 i = 0; i < size / 2; i++) {\n            result[i] = left[i];\n            result[i + size / 2] = right[i];\n        }\n    }\n\n    function assembleConvolutions(uint256[2][] memory exponent, G1Point[] memory base) internal view returns (G1Point[2][] memory result) {\n        // exponent is two \"rows\" (actually columns).\n        // will return two rows, each of half the length of the exponents;\n        // namely, we will return the Hadamards of \"base\" by the even circular shifts of \"exponent\"'s rows.\n        uint256 size = exponent.length;\n        uint256 half = size / 2;\n        result = new G1Point[2][](half); // assuming that this is necessary even when return is declared up top\n\n        G1Point[] memory base_fft = fft(base, false);\n\n        uint256[] memory exponent_fft = new uint256[](size);\n        for (uint256 i = 0; i < 2; i++) {\n            for (uint256 j = 0; j < size; j++) {\n                exponent_fft[j] = exponent[(size - j) % size][i]; // convolutional flip plus copy\n            }\n\n            exponent_fft = fft(exponent_fft);\n            G1Point[] memory inverse_fft = new G1Point[](half);\n            uint256 compensation = 2;\n            compensation = compensation.inv();\n            for (uint256 j = 0; j < half; j++) { // Hadamard\n                inverse_fft[j] = mul(add(mul(base_fft[j], exponent_fft[j]), mul(base_fft[j + half], exponent_fft[j + half])), compensation);\n            }\n\n            inverse_fft = fft(inverse_fft, true);\n            for (uint256 j = 0; j < half; j++) {\n                result[j][i] = inverse_fft[j];\n            }\n        }\n    }\n\n    function fft(G1Point[] memory input, bool inverse) internal view returns (G1Point[] memory result) {\n        uint256 size = input.length;\n        if (size == 1) {\n            return input;\n        }\n        require(size % 2 == 0, \"Input size is not a power of 2!\");\n\n        uint256 omega = UNITY.exp(2**28 / size);\n        uint256 compensation = 1;\n        if (inverse) {\n            omega = omega.inv();\n            compensation = 2;\n        }\n        compensation = compensation.inv();\n        G1Point[] memory even = fft(extract(input, 0), inverse);\n        G1Point[] memory odd = fft(extract(input, 1), inverse);\n        uint256 omega_run = 1;\n        result = new G1Point[](size);\n        for (uint256 i = 0; i < size / 2; i++) {\n            G1Point memory temp = mul(odd[i], omega_run);\n            result[i] = mul(add(even[i], temp), compensation);\n            result[i + size / 2] = mul(add(even[i], neg(temp)), compensation);\n            omega_run = omega_run.mul(omega);\n        }\n    }\n\n    function extract(G1Point[] memory input, uint256 parity) internal pure returns (G1Point[] memory result) {\n        result = new G1Point[](input.length / 2);\n        for (uint256 i = 0; i < input.length / 2; i++) {\n            result[i] = input[2 * i + parity];\n        }\n    }\n\n    function fft(uint256[] memory input) internal view returns (uint256[] memory result) {\n        uint256 size = input.length;\n        if (size == 1) {\n            return input;\n        }\n        require(size % 2 == 0, \"Input size is not a power of 2!\");\n\n        uint256 omega = UNITY.exp(2**28 / size);\n        uint256[] memory even = fft(extract(input, 0));\n        uint256[] memory odd = fft(extract(input, 1));\n        uint256 omega_run = 1;\n        result = new uint256[](size);\n        for (uint256 i = 0; i < size / 2; i++) {\n            uint256 temp = odd[i].mul(omega_run);\n            result[i] = even[i].add(temp);\n            result[i + size / 2] = even[i].sub(temp);\n            omega_run = omega_run.mul(omega);\n        }\n    }\n\n    function extract(uint256[] memory input, uint256 parity) internal pure returns (uint256[] memory result) {\n        result = new uint256[](input.length / 2);\n        for (uint256 i = 0; i < input.length / 2; i++) {\n            result[i] = input[2 * i + parity];\n        }\n    }\n\n    function unserialize(bytes memory arr) internal pure returns (ZetherProof memory proof) {\n        proof.BA = G1Point(slice(arr, 0), slice(arr, 32));\n        proof.BS = G1Point(slice(arr, 64), slice(arr, 96));\n        proof.A = G1Point(slice(arr, 128), slice(arr, 160));\n        proof.B = G1Point(slice(arr, 192), slice(arr, 224));\n        proof.C = G1Point(slice(arr, 256), slice(arr, 288));\n        proof.D = G1Point(slice(arr, 320), slice(arr, 352));\n        proof.E = G1Point(slice(arr, 384), slice(arr, 416));\n        proof.F = G1Point(slice(arr, 448), slice(arr, 480));\n\n        uint256 m = (arr.length - 2144) / 576;\n        proof.CLnG = new G1Point[](m);\n        proof.CRnG = new G1Point[](m);\n        proof.C_0G = new G1Point[](m);\n        proof.DG = new G1Point[](m);\n        proof.y_0G = new G1Point[](m);\n        proof.gG = new G1Point[](m);\n        proof.C_XG = new G1Point[](m);\n        proof.y_XG = new G1Point[](m);\n        proof.f = new uint256[](2 * m);\n        for (uint256 k = 0; k < m; k++) {\n            proof.CLnG[k] = G1Point(slice(arr, 512 + k * 64), slice(arr, 544 + k * 64));\n            proof.CRnG[k] = G1Point(slice(arr, 512 + (m + k) * 64), slice(arr, 544 + (m + k) * 64));\n            proof.C_0G[k] = G1Point(slice(arr, 512 + m * 128 + k * 64), slice(arr, 544 + m * 128 + k * 64));\n            proof.DG[k] = G1Point(slice(arr, 512 + m * 192 + k * 64), slice(arr, 544 + m * 192 + k * 64));\n            proof.y_0G[k] = G1Point(slice(arr, 512 + m * 256 + k * 64), slice(arr, 544 + m * 256 + k * 64));\n            proof.gG[k] = G1Point(slice(arr, 512 + m * 320 + k * 64), slice(arr, 544 + m * 320 + k * 64));\n            proof.C_XG[k] = G1Point(slice(arr, 512 + m * 384 + k * 64), slice(arr, 544 + m * 384 + k * 64));\n            proof.y_XG[k] = G1Point(slice(arr, 512 + m * 448 + k * 64), slice(arr, 544 + m * 448 + k * 64));\n            proof.f[k] = slice(arr, 512 + m * 512 + k * 32);\n            proof.f[k + m] = slice(arr, 512 + m * 544 + k * 32);\n        }\n        uint256 starting = m * 576;\n        proof.z_A = slice(arr, 512 + starting);\n        proof.z_C = slice(arr, 544 + starting);\n        proof.z_E = slice(arr, 576 + starting);\n\n        proof.CPrime = G1Point(slice(arr, 608 + starting), slice(arr, 640 + starting));\n        proof.DPrime = G1Point(slice(arr, 672 + starting), slice(arr, 704 + starting));\n        proof.CLnPrime = G1Point(slice(arr, 736 + starting), slice(arr, 768 + starting));\n        proof.CRnPrime = G1Point(slice(arr, 800 + starting), slice(arr, 832 + starting));\n\n        proof.tCommits = [G1Point(slice(arr, 864 + starting), slice(arr, 896 + starting)), G1Point(slice(arr, 928 + starting), slice(arr, 960 + starting))];\n        proof.tHat = slice(arr, 992 + starting);\n        proof.tauX = slice(arr, 1024 + starting);\n        proof.mu = slice(arr, 1056 + starting);\n\n        proof.c = slice(arr, 1088 + starting);\n        proof.s_sk = slice(arr, 1120 + starting);\n        proof.s_r = slice(arr, 1152 + starting);\n        proof.s_vTransfer = slice(arr, 1184 + starting);\n        proof.s_vDiff = slice(arr, 1216 + starting);\n        proof.s_nuTransfer = slice(arr, 1248 + starting);\n        proof.s_nuDiff = slice(arr, 1280 + starting);\n\n        InnerProductProof memory ipProof;\n        for (uint256 i = 0; i < n; i++) {\n            ipProof.ls[i] = G1Point(slice(arr, 1312 + starting + i * 64), slice(arr, 1344 + starting + i * 64));\n            ipProof.rs[i] = G1Point(slice(arr, 1312 + starting + (n + i) * 64), slice(arr, 1344 + starting + (n + i) * 64));\n        }\n        ipProof.a = slice(arr, 1312 + starting + n * 128);\n        ipProof.b = slice(arr, 1344 + starting + n * 128);\n        proof.ipProof = ipProof;\n\n        return proof;\n    }\n\n    function addVectors(uint256[m] memory a, uint256[m] memory b) internal pure returns (uint256[m] memory result) {\n        for (uint256 i = 0; i < m; i++) {\n            result[i] = a[i].add(b[i]);\n        }\n    }\n\n    function hadamardInv(G1Point[] memory ps, uint256[m] memory ss) internal view returns (G1Point[m] memory result) {\n        for (uint256 i = 0; i < m; i++) {\n            result[i] = mul(ps[i], ss[i].inv());\n        }\n    }\n\n    function sumScalars(uint256[m] memory ys) internal pure returns (uint256 result) {\n        for (uint256 i = 0; i < m; i++) {\n            result = result.add(ys[i]);\n        }\n    }\n\n    function sumPoints(G1Point[] memory ps) internal view returns (G1Point memory sum) {\n        for (uint256 i = 0; i < m; i++) {\n            sum = add(sum, ps[i]);\n        }\n    }\n\n    function commit(G1Point[m] memory ps, uint256[m] memory ss) internal view returns (G1Point memory result) {\n        for (uint256 i = 0; i < m; i++) {\n            result = add(result, mul(ps[i], ss[i]));\n        }\n    }\n\n    function powers(uint256 base) internal pure returns (uint256[m] memory powers) {\n        powers[0] = 1;\n        powers[1] = base;\n        for (uint256 i = 2; i < m; i++) {\n            powers[i] = powers[i - 1].mul(base);\n        }\n    }\n\n    function times(uint256[m] memory v, uint256 x) internal pure returns (uint256[m] memory result) {\n        for (uint256 i = 0; i < m; i++) {\n            result[i] = v[i].mul(x);\n        }\n    }\n\n    function slice(bytes memory input, uint256 start) internal pure returns (uint256 result) { // extracts exactly 32 bytes\n        assembly {\n            let m := mload(0x40)\n            mstore(m, mload(add(add(input, 0x20), start))) // why only 0x20?\n            result := mload(m)\n        }\n    }\n\n    struct G1Point {\n        uint256 x;\n        uint256 y;\n    }\n\n    function add(G1Point memory p1, G1Point memory p2) internal view returns (G1Point memory r) {\n        assembly {\n            let m := mload(0x40)\n            mstore(m, mload(p1))\n            mstore(add(m, 0x20), mload(add(p1, 0x20)))\n            mstore(add(m, 0x40), mload(p2))\n            mstore(add(m, 0x60), mload(add(p2, 0x20)))\n            if iszero(staticcall(gas, 0x06, m, 0x80, r, 0x40)) {\n                revert(0, 0)\n            }\n        }\n    }\n\n    function mul(G1Point memory p, uint256 s) internal view returns (G1Point memory r) {\n        assembly {\n            let m := mload(0x40)\n            mstore(m, mload(p))\n            mstore(add(m, 0x20), mload(add(p, 0x20)))\n            mstore(add(m, 0x40), s)\n            if iszero(staticcall(gas, 0x07, m, 0x60, r, 0x40)) {\n                revert(0, 0)\n            }\n        }\n    }\n\n    function neg(G1Point memory p) internal pure returns (G1Point memory) {\n        return G1Point(p.x, FIELD_ORDER - (p.y % FIELD_ORDER)); // p.y should already be reduced mod P?\n    }\n\n    function eq(G1Point memory p1, G1Point memory p2) internal pure returns (bool) {\n        return p1.x == p2.x && p1.y == p2.y;\n    }\n\n    function fieldExp(uint256 base, uint256 exponent) internal view returns (uint256 output) { // warning: mod p, not q\n        uint256 order = FIELD_ORDER;\n        assembly {\n            let m := mload(0x40)\n            mstore(m, 0x20)\n            mstore(add(m, 0x20), 0x20)\n            mstore(add(m, 0x40), 0x20)\n            mstore(add(m, 0x60), base)\n            mstore(add(m, 0x80), exponent)\n            mstore(add(m, 0xa0), order)\n            if iszero(staticcall(gas, 0x05, m, 0xc0, m, 0x20)) { // staticcall or call?\n                revert(0, 0)\n            }\n            output := mload(m)\n        }\n    }\n\n    function mapInto(uint256 seed) internal view returns (G1Point memory) {\n        uint256 y;\n        while (true) {\n            uint256 ySquared = fieldExp(seed, 3) + 3; // addmod instead of add: waste of gas, plus function overhead cost\n            y = fieldExp(ySquared, (FIELD_ORDER + 1) / 4);\n            if (fieldExp(y, 2) == ySquared) {\n                break;\n            }\n            seed += 1;\n        }\n        return G1Point(seed, y);\n    }\n\n    function mapInto(string memory input) internal view returns (G1Point memory) {\n        return mapInto(uint256(keccak256(abi.encodePacked(input))) % FIELD_ORDER);\n    }\n\n    function mapInto(string memory input, uint256 i) internal view returns (G1Point memory) {\n        return mapInto(uint256(keccak256(abi.encodePacked(input, i))) % FIELD_ORDER);\n    }\n}\n",
  "sourcePath": "/Users/benediamond/anonymous-zether/packages/protocol/contracts/ZetherVerifier.sol",
  "compiler": {
    "name": "solc",
    "version": "0.5.4+commit.9549d8ff.Emscripten.clang"
  },
  "schemaVersion": "3.0.19",
  "updatedAt": "2019-12-26T18:28:14.461Z",
  "devdoc": {
    "methods": {}
  },
  "userdoc": {
    "methods": {}
  }
}