{
  "contractName": "ZetherVerifier",
  "abi": [
    {
      "inputs": [
        {
          "name": "_ip",
          "type": "address"
        }
      ],
      "payable": false,
      "stateMutability": "nonpayable",
      "type": "constructor"
    },
    {
      "constant": true,
      "inputs": [
        {
          "components": [
            {
              "name": "x",
              "type": "bytes32"
            },
            {
              "name": "y",
              "type": "bytes32"
            }
          ],
          "name": "CLn",
          "type": "tuple[]"
        },
        {
          "components": [
            {
              "name": "x",
              "type": "bytes32"
            },
            {
              "name": "y",
              "type": "bytes32"
            }
          ],
          "name": "CRn",
          "type": "tuple[]"
        },
        {
          "components": [
            {
              "name": "x",
              "type": "bytes32"
            },
            {
              "name": "y",
              "type": "bytes32"
            }
          ],
          "name": "C",
          "type": "tuple[]"
        },
        {
          "components": [
            {
              "name": "x",
              "type": "bytes32"
            },
            {
              "name": "y",
              "type": "bytes32"
            }
          ],
          "name": "D",
          "type": "tuple"
        },
        {
          "components": [
            {
              "name": "x",
              "type": "bytes32"
            },
            {
              "name": "y",
              "type": "bytes32"
            }
          ],
          "name": "y",
          "type": "tuple[]"
        },
        {
          "name": "epoch",
          "type": "uint256"
        },
        {
          "components": [
            {
              "name": "x",
              "type": "bytes32"
            },
            {
              "name": "y",
              "type": "bytes32"
            }
          ],
          "name": "u",
          "type": "tuple"
        },
        {
          "name": "proof",
          "type": "bytes"
        }
      ],
      "name": "verifyTransfer",
      "outputs": [
        {
          "name": "",
          "type": "bool"
        }
      ],
      "payable": false,
      "stateMutability": "view",
      "type": "function"
    }
  ],
  "bytecode": "0x60806040523480156200001157600080fd5b5060405160208062004b10833981018060405262000033919081019062000090565b806000806101000a81548173ffffffffffffffffffffffffffffffffffffffff021916908373ffffffffffffffffffffffffffffffffffffffff16021790555050620000f0565b6000620000888251620000bc565b905092915050565b600060208284031215620000a357600080fd5b6000620000b3848285016200007a565b91505092915050565b6000620000c982620000d0565b9050919050565b600073ffffffffffffffffffffffffffffffffffffffff82169050919050565b614a1080620001006000396000f3fe608060405234801561001057600080fd5b5060043610610048576000357c010000000000000000000000000000000000000000000000000000000090048063d2d5e70a1461004d575b600080fd5b61006760048036036100629190810190613f8a565b61007d565b60405161007491906145c4565b60405180910390f35b600061008761397b565b898160000181905250888160200181905250878160400181905250868160600181905250858160800181905250848160a0018181525050838160c001819052506100cf6139c6565b6100d8846100f4565b90506100e48282610aca565b9250505098975050505050505050565b6100fc6139c6565b604080519081016040528061011284600061285f565b815260200161012284602061285f565b8152508160000181905250604080519081016040528061014384604061285f565b815260200161015384606061285f565b8152508160200181905250604080519081016040528061017484608061285f565b81526020016101848460a061285f565b815250816040018190525060408051908101604052806101a58460c061285f565b81526020016101b58460e061285f565b815250816060018190525060006102406105c08451038115156101d457fe5b0490508060405190808252806020026020018201604052801561021157816020015b6101fe613aa7565b8152602001906001900390816101f65790505b5082608001819052508060405190808252806020026020018201604052801561025457816020015b610241613aa7565b8152602001906001900390816102395790505b508260a001819052508060405190808252806020026020018201604052801561029757816020015b610284613aa7565b81526020019060019003908161027c5790505b508260c00181905250806040519080825280602002602001820160405280156102da57816020015b6102c7613aa7565b8152602001906001900390816102bf5790505b508260e001819052508060405190808252806020026020018201604052801561031d57816020015b61030a613aa7565b8152602001906001900390816103025790505b508261010001819052508060405190808252806020026020018201604052801561036157816020015b61034e613aa7565b8152602001906001900390816103465790505b50826101200181905250806040519080825280602002602001820160405280156103a557816020015b610392613aa7565b81526020019060019003908161038a5790505b50826101400181905250806040519080825280602002602001820160405280156103e957816020015b6103d6613aa7565b8152602001906001900390816103ce5790505b50826101600181905250806002026040519080825280602002602001820160405280156104255781602001602082028038833980820191505090505b5082610180018190525060008090505b818110156107b057604080519081016040528061045986604085026101000161285f565b815260200161046f86604085026101200161285f565b81525083608001518281518110151561048457fe5b9060200190602002018190525060408051908101604052806104af866040858701026101000161285f565b81526020016104c7866040858701026101200161285f565b8152508360a00151828151811015156104dc57fe5b90602001906020020181905250604080519081016040528061050a866040850260808702610100010161285f565b8152602001610525866040850260808702610120010161285f565b8152508360c001518281518110151561053a57fe5b906020019060200201819052506040805190810160405280610568866040850260c08702610100010161285f565b8152602001610583866040850260c08702610120010161285f565b8152508360e001518281518110151561059857fe5b9060200190602002018190525060408051908101604052806105c786604085026101008702610100010161285f565b81526020016105e386604085026101008702610120010161285f565b815250836101000151828151811015156105f957fe5b90602001906020020181905250604080519081016040528061062886604085026101408702610100010161285f565b815260200161064486604085026101408702610120010161285f565b8152508361012001518281518110151561065a57fe5b90602001906020020181905250604080519081016040528061068986604085026101808702610100010161285f565b81526020016106a586604085026101808702610120010161285f565b815250836101400151828151811015156106bb57fe5b9060200190602002018190525060408051908101604052806106ea86604085026101c08702610100010161285f565b815260200161070686604085026101c08702610120010161285f565b8152508361016001518281518110151561071c57fe5b9060200190602002018190525061074084602083026102008502610100010161285f565b600190048361018001518281518110151561075757fe5b906020019060200201818152505061077c84602083026102208502610100010161285f565b6001900483610180015183830181518110151561079557fe5b90602001906020020181815250508080600101915050610435565b506000610240820290506107c884826101000161285f565b60019004836101a0018181525050604080519081016040528060408051908101604052806107fa88866101200161285f565b815260200161080d88866101400161285f565b8152508152602001604080519081016040528061082e88866101600161285f565b815260200161084188866101800161285f565b81525081525083610200018190525061085e84826101a00161285f565b600190048361022001818152505061087a84826101c00161285f565b600190048361024001818152505061089684826101e00161285f565b60019004836102600181815250506108b284826102000161285f565b60019004836102800181815250506108ce84826102200161285f565b60019004836102a00181815250506108ea84826102400161285f565b60019004836102c001818152505061090684826102600161285f565b60019004836102e001818152505061091c613ac7565b600660405190808252806020026020018201604052801561095757816020015b610944613aa7565b81526020019060019003908161093c5790505b508160000181905250600660405190808252806020026020018201604052801561099b57816020015b610988613aa7565b8152602001906001900390816109805790505b50816020018190525060008090505b6006811015610a765760408051908101604052806109d1886040850287610280010161285f565b81526020016109e98860408502876102a0010161285f565b8152508260000151828151811015156109fe57fe5b906020019060200201819052506040805190810160405280610a2c886040856006010287610280010161285f565b8152602001610a478860408560060102876102a0010161285f565b815250826020015182815181101515610a5c57fe5b9060200190602002018190525080806001019150506109aa565b50610a898561030084610280010161285f565b60019004816040018181525050610aa885610300846102a0010161285f565b6001900481606001818152505080846103000181905250839350505050919050565b600080610b22846000015185602001518660400151876060015188608001518960a00151604051602001610b03969594939291906144e6565b6040516020818303038152906040528051906020012060019004612878565b9050610b2c613af0565b610b77828560000151866020015187604001518860600151604051602001610b58959493929190614768565b6040516020818303038152906040528051906020012060019004612878565b816040018181525050610beb816040015185608001518660a001518760c001518860e001518961010001518a61012001518b61014001518c6101600151604051602001610bcc999897969594939291906146a3565b6040516020818303038152906040528051906020012060019004612878565b816060018181525050600284610180015151811515610c0657fe5b04816000018181525050806000015160020a8160200181815250508060000151600202604051908082528060200260200182016040528015610c6257816020015b610c4f613b9f565b815260200190600190039081610c475790505b508160c0018190525060008090505b8160000151600202811015610d435784610180015181815181101515610c9357fe5b906020019060200201518260c0015182815181101515610caf57fe5b906020019060200201516001600281101515610cc757fe5b602002018181525050610d0385610180015182815181101515610ce657fe5b9060200190602002015183606001516128ad90919063ffffffff16565b8260c0015182815181101515610d1557fe5b906020019060200201516000600281101515610d2d57fe5b6020020181815250508080600101915050610c71565b5060008090505b8160000151600202811015610ff057610e75610e618360c0015183815181101515610d7157fe5b906020019060200201516001600281101515610d8957fe5b60200201516000809054906101000a900473ffffffffffffffffffffffffffffffffffffffff1673ffffffffffffffffffffffffffffffffffffffff166383ec1a49856040518263ffffffff167c0100000000000000000000000000000000000000000000000000000000028152600401610e04919061465f565b604080518083038186803b158015610e1b57600080fd5b505afa158015610e2f573d6000803e3d6000fd5b505050506040513d601f19601f82011682018060405250610e5391908101906140de565b6128ed90919063ffffffff16565b83610100015161292890919063ffffffff16565b826101000181905250610fda610fc6610ef38460c0015184815181101515610e9957fe5b906020019060200201516000600281101515610eb157fe5b60200201518560c0015185815181101515610ec857fe5b906020019060200201516001600281101515610ee057fe5b602002015161296e90919063ffffffff16565b6000809054906101000a900473ffffffffffffffffffffffffffffffffffffffff1673ffffffffffffffffffffffffffffffffffffffff16633844923b856040518263ffffffff167c0100000000000000000000000000000000000000000000000000000000028152600401610f69919061465f565b604080518083038186803b158015610f8057600080fd5b505afa158015610f94573d6000803e3d6000fd5b505050506040513d601f19601f82011682018060405250610fb891908101906140de565b6128ed90919063ffffffff16565b83610100015161292890919063ffffffff16565b8261010001819052508080600101915050610d4a565b506112be6112aa61114b61106e8460c00151856000015181518110151561101357fe5b90602001906020020151600060028110151561102b57fe5b60200201518560c00151600081518110151561104357fe5b90602001906020020151600060028110151561105b57fe5b602002015161296e90919063ffffffff16565b6000809054906101000a900473ffffffffffffffffffffffffffffffffffffffff1673ffffffffffffffffffffffffffffffffffffffff16633844923b60018760000151600202016040518263ffffffff167c01000000000000000000000000000000000000000000000000000000000281526004016110ee919061465f565b604080518083038186803b15801561110557600080fd5b505afa158015611119573d6000803e3d6000fd5b505050506040513d601f19601f8201168201806040525061113d91908101906140de565b6128ed90919063ffffffff16565b61129c6111c28560c00151866000015181518110151561116757fe5b90602001906020020151600160028110151561117f57fe5b60200201518660c00151600081518110151561119757fe5b9060200190602002015160016002811015156111af57fe5b602002015161296e90919063ffffffff16565b6000809054906101000a900473ffffffffffffffffffffffffffffffffffffffff1673ffffffffffffffffffffffffffffffffffffffff16633844923b87600001516002026040518263ffffffff167c010000000000000000000000000000000000000000000000000000000002815260040161123f919061465f565b604080518083038186803b15801561125657600080fd5b505afa15801561126a573d6000803e3d6000fd5b505050506040513d601f19601f8201168201806040525061128e91908101906140de565b6128ed90919063ffffffff16565b61292890919063ffffffff16565b82610100015161292890919063ffffffff16565b81610100018190525061133f6113006112ec866101a001516112de6129a5565b6128ed90919063ffffffff16565b83610100015161292890919063ffffffff16565b6113318660400151611323856060015189606001516128ed90919063ffffffff16565b61292890919063ffffffff16565b612a0d90919063ffffffff16565b1515611380576040517f08c379a00000000000000000000000000000000000000000000000000000000081526004016113779061463f565b60405180910390fd5b61138d8160c00151612a35565b8160e001819052506113a78160e001518660400151612b2d565b8161016001819052506113c28160e001518660800151612b2d565b816101800181905250600181608001818152505060008090505b81602001518110156116155761145b6114478360e001518381518110151561140057fe5b90602001906020020151600060028110151561141857fe5b602002015188600001518481518110151561142f57fe5b906020019060200201516128ed90919063ffffffff16565b83610120015161292890919063ffffffff16565b8261012001819052506114d76114c38360e001518381518110151561147c57fe5b90602001906020020151600060028110151561149457fe5b60200201518860200151848151811015156114ab57fe5b906020019060200201516128ed90919063ffffffff16565b83610140015161292890919063ffffffff16565b82610140018190525061155461154083608001518461016001516002858115156114fd57fe5b0481518110151561150a57fe5b9060200190602002015160028581151561152057fe5b0660028110151561152d57fe5b60200201516128ed90919063ffffffff16565b836101a0015161292890919063ffffffff16565b826101a001819052506115d16115bd836080015184610180015160028581151561157a57fe5b0481518110151561158757fe5b9060200190602002015160028581151561159d57fe5b066002811015156115aa57fe5b60200201516128ed90919063ffffffff16565b836101c0015161292890919063ffffffff16565b826101c001819052506000811115611608576115fe8260400151836080015161296e90919063ffffffff16565b8260800181815250505b80806001019150506113dc565b5060018160a001818152505060008090505b81600001518110156119e4576116846116706116468460a00151612e07565b87608001518481518110151561165857fe5b906020019060200201516128ed90919063ffffffff16565b83610120015161292890919063ffffffff16565b8261012001819052506116de6116ca6116a08460a00151612e07565b8760a00151848151811015156116b257fe5b906020019060200201516128ed90919063ffffffff16565b83610140015161292890919063ffffffff16565b8261014001819052506117636117246116fa8460a00151612e07565b8760c001518481518110151561170c57fe5b906020019060200201516128ed90919063ffffffff16565b836101600151600081518110151561173857fe5b90602001906020020151600060028110151561175057fe5b602002015161292890919063ffffffff16565b826101600151600081518110151561177757fe5b90602001906020020151600060028110151561178f57fe5b60200201819052506117e86117d46117aa8460a00151612e07565b8760e00151848151811015156117bc57fe5b906020019060200201516128ed90919063ffffffff16565b83610200015161292890919063ffffffff16565b82610200018190525061186e61182f6118048460a00151612e07565b8761010001518481518110151561181757fe5b906020019060200201516128ed90919063ffffffff16565b836101800151600081518110151561184357fe5b90602001906020020151600060028110151561185b57fe5b602002015161292890919063ffffffff16565b826101800151600081518110151561188257fe5b90602001906020020151600060028110151561189a57fe5b60200201819052506118f46118e06118b58460a00151612e07565b876101200151848151811015156118c857fe5b906020019060200201516128ed90919063ffffffff16565b836101e0015161292890919063ffffffff16565b826101e0018190525061194f61193b6119108460a00151612e07565b8761014001518481518110151561192357fe5b906020019060200201516128ed90919063ffffffff16565b836101a0015161292890919063ffffffff16565b826101a001819052506119aa61199661196b8460a00151612e07565b8761016001518481518110151561197e57fe5b906020019060200201516128ed90919063ffffffff16565b836101c0015161292890919063ffffffff16565b826101c001819052506119ce82606001518360a0015161296e90919063ffffffff16565b8260a00181815250508080600101915050611627565b50611a17611a038260a0015187606001516128ed90919063ffffffff16565b82610200015161292890919063ffffffff16565b816102000181905250611a55611a418260a00151611a33612e33565b6128ed90919063ffffffff16565b826101e0015161292890919063ffffffff16565b816101e00181905250611a66613bc1565b611a9d8260600151604051602001611a7e919061465f565b6040516020818303038152906040528051906020012060019004612878565b816000018181525050600181602001516000604081101515611abb57fe5b6020020181815250506001816101000181815250506000600190505b6040811015611b7057611b108260000151836020015160018403604081101515611afd57fe5b602002015161296e90919063ffffffff16565b826020015182604081101515611b2257fe5b602002018181525050611b59826020015182604081101515611b4057fe5b6020020151836101000151612e9b90919063ffffffff16565b826101000181815250508080600101915050611ad7565b50611ba88160000151604051602001611b89919061465f565b6040516020818303038152906040528051906020012060019004612878565b8160400181815250506040805190810160405280611bd460028460400151612ed290919063ffffffff16565b8152602001611bf160038460400151612ed290919063ffffffff16565b8152508160600181905250611c538160400151611c4583606001516001600281101515611c1a57fe5b602002015184606001516000600281101515611c3257fe5b6020020151612e9b90919063ffffffff16565b61296e90919063ffffffff16565b8160a0018181525050611ce4611c918260a00151611c836401000000008560a0015161296e90919063ffffffff16565b6128ad90919063ffffffff16565b611cd6611cc284606001516000600281101515611caa57fe5b602002015185604001516128ad90919063ffffffff16565b84610100015161296e90919063ffffffff16565b6128ad90919063ffffffff16565b81610100018181525050611d0b8161010001518661022001516128ad90919063ffffffff16565b8160e001818152505060008090505b6020811015611dc357611d508160020a83606001516000600281101515611d3d57fe5b602002015161296e90919063ffffffff16565b826080015182604081101515611d6257fe5b602002018181525050611d988160020a83606001516001600281101515611d8557fe5b602002015161296e90919063ffffffff16565b826080015160208301604081101515611dad57fe5b6020020181815250508080600101915050611d1a565b50611e028160400151866102000151604051602001611de392919061467a565b6040516020818303038152906040528051906020012060019004612878565b8160c0018181525050611e90611e53611e2c8360c001518460c0015161296e90919063ffffffff16565b8761020001516001600281101515611e4057fe5b60200201516128ed90919063ffffffff16565b611e828360c001518861020001516000600281101515611e6f57fe5b60200201516128ed90919063ffffffff16565b61292890919063ffffffff16565b816101200181905250611ea1613c2d565b611f1f611ef4611eb5886102600151612e07565b8561018001516000815181101515611ec957fe5b906020019060200201516000600281101515611ee157fe5b60200201516128ed90919063ffffffff16565b611f11886102800151866101e001516128ed90919063ffffffff16565b61292890919063ffffffff16565b8160200181905250611f7b611f4e611f3b886102600151612e07565b89606001516128ed90919063ffffffff16565b611f6d886102a00151611f5f612e33565b6128ed90919063ffffffff16565b61292890919063ffffffff16565b81604001819052506121136120e661204a611f9a896102600151612e07565b61203c611fcc87606001516001600281101515611fb357fe5b60200201518961012001516128ed90919063ffffffff16565b61202e611fef89606001516000600281101515611fe557fe5b6020020151612e07565b8a6101600151600081518110151561200357fe5b90602001906020020151600060028110151561201b57fe5b60200201516128ed90919063ffffffff16565b61292890919063ffffffff16565b6128ed90919063ffffffff16565b6120d88961028001516120ca6120858860600151600160028110151561206c57fe5b60200201518a61014001516128ed90919063ffffffff16565b6120bc6120a88a60600151600060028110151561209e57fe5b6020020151612e07565b8b61020001516128ed90919063ffffffff16565b61292890919063ffffffff16565b6128ed90919063ffffffff16565b61292890919063ffffffff16565b612105886102c001516120f7612e33565b6128ed90919063ffffffff16565b61292890919063ffffffff16565b816060018190525061216e61214361212f886102600151612e07565b856101a001516128ed90919063ffffffff16565b612160886102a00151866101c001516128ed90919063ffffffff16565b61292890919063ffffffff16565b81608001819052506122486121a061218a886102c00151612e07565b612192612e33565b6128ed90919063ffffffff16565b61223a6121c2896102e001516121b46129a5565b6128ed90919063ffffffff16565b61222c6121e18860a001518c610260015161296e90919063ffffffff16565b61221e6121f2896101200151612f3f565b6122108a60e00151612202612e33565b6128ed90919063ffffffff16565b61292890919063ffffffff16565b6128ed90919063ffffffff16565b61292890919063ffffffff16565b61292890919063ffffffff16565b8160a001819052506122936040805190810160405280600681526020017f5a657468657200000000000000000000000000000000000000000000000000008152508860a00151612f94565b8160c001819052506122ec6122c26122af886102600151612e07565b8960c001516128ed90919063ffffffff16565b6122de8861028001518460c001516128ed90919063ffffffff16565b61292890919063ffffffff16565b8160e0018190525061234f8260c0015182602001518360400151846060015185608001518660a001518760e0015160405160200161233097969594939291906147bc565b6040516020818303038152906040528051906020012060019004612878565b81600001818152505085610260015181600001511415156123a5576040517f08c379a000000000000000000000000000000000000000000000000000000000815260040161239c906145ff565b60405180910390fd5b6123ad613c9d565b6123e482600001516040516020016123c5919061465f565b6040516020818303038152906040528051906020012060019004612878565b81608001818152505061240b81608001516123fd6129a5565b6128ed90919063ffffffff16565b81602001819052506040805190808252806020026020018201604052801561244d57816020015b61243a613aa7565b8152602001906001900390816124325790505b50816040018190525060008090505b60408110156126265761255a61248785602001518360408110151561247d57fe5b6020020151613004565b6000809054906101000a900473ffffffffffffffffffffffffffffffffffffffff1673ffffffffffffffffffffffffffffffffffffffff16633844923b846040518263ffffffff167c01000000000000000000000000000000000000000000000000000000000281526004016124fd919061465f565b604080518083038186803b15801561251457600080fd5b505afa158015612528573d6000803e3d6000fd5b505050506040513d601f19601f8201168201806040525061254c91908101906140de565b6128ed90919063ffffffff16565b82604001518281518110151561256c57fe5b906020019060200201819052506126116125fe6125d486608001518460408110151561259457fe5b60200201516125c688604001518960200151876040811015156125b357fe5b602002015161296e90919063ffffffff16565b612e9b90919063ffffffff16565b8460400151848151811015156125e657fe5b906020019060200201516128ed90919063ffffffff16565b836060015161292890919063ffffffff16565b8260600181905250808060010191505061245c565b506126a581606001516126976126586126428760400151612e07565b61264a61303a565b6128ed90919063ffffffff16565b6126896126768860c001518d602001516128ed90919063ffffffff16565b8c6000015161292890919063ffffffff16565b61292890919063ffffffff16565b61292890919063ffffffff16565b81600001819052506126ea6126d76126c1896102400151612e07565b6126c96129a5565b6128ed90919063ffffffff16565b826000015161292890919063ffffffff16565b816000018190525061272461271188610220015183602001516128ed90919063ffffffff16565b826000015161292890919063ffffffff16565b81600001819052506000809054906101000a900473ffffffffffffffffffffffffffffffffffffffff1673ffffffffffffffffffffffffffffffffffffffff166397fa72ae8260400151836020015184600001518b610300015186608001516040518663ffffffff167c01000000000000000000000000000000000000000000000000000000000281526004016127bf959493929190614563565b60206040518083038186803b1580156127d757600080fd5b505afa1580156127eb573d6000803e3d6000fd5b505050506040513d601f19601f8201168201806040525061280f91908101906140b5565b1515612850576040517f08c379a00000000000000000000000000000000000000000000000000000000081526004016128479061461f565b60405180910390fd5b60019550505050505092915050565b6000604051826020850101518152805191505092915050565b60007f30644e72e131a029b85045b68181585d2833e84879b9709143e1f593f0000001828115156128a557fe5b069050919050565b6000818310156128e15782827f30644e72e131a029b85045b68181585d2833e84879b9709143e1f593f000000103016128e5565b8183035b905092915050565b6128f5613ce0565b604051835181526020840151602082015282604082015260408260608360075afa151561292157600080fd5b5092915050565b612930613ce0565b6040518351815260208401516020820152825160408201526020830151606082015260408260808360065afa151561296757600080fd5b5092915050565b60007f30644e72e131a029b85045b68181585d2833e84879b9709143e1f593f000000180151561299a57fe5b828409905092915050565b6129ad613ce0565b60408051908101604052807f01b7de3dcf359928dd19f643d54dc487478b68a5b2634f9f1903c9fb78331aef60010281526020017f2bda7d3ae6a557c716477c108be0d0f94abc6c4dc6b1bd93caccbcceaaa71d6b600102815250905090565b600081600001518360000151148015612a2d575081602001518360200151145b905092915050565b6060600060028351811515612a4657fe5b04905060008160020a905080604051908082528060200260200182016040528015612a8b57816020015b612a78613b9f565b815260200190600190039081612a705790505b50925060008090505b6002811015612b25576060612ab38483028560018501026001896130a1565b905060008090505b83811015612b16578181815181101515612ad157fe5b906020019060200201518682815181101515612ae957fe5b9060200190602002015184600281101515612b0057fe5b6020020181815250508080600101915050612abb565b50508080600101915050612a94565b505050919050565b60606000835190506000600282811515612b4357fe5b04905080604051908082528060200260200182016040528015612b8057816020015b612b6d613d00565b815260200190600190039081612b655790505b5092506060612b90856000613256565b9050606083604051908082528060200260200182016040528015612bc35781602001602082028038833980820191505090505b50905060008090505b6002811015612dfc5760008090505b85811015612c43578886828803811515612bf157fe5b06815181101515612bfe57fe5b9060200190602002015182600281101515612c1557fe5b60200201518382815181101515612c2857fe5b90602001906020020181815250508080600101915050612bdb565b50612c4d826134e4565b9150606084604051908082528060200260200182016040528015612c8b57816020015b612c78613aa7565b815260200190600190039081612c705790505b509050600060029050612c9d81613004565b905060008090505b86811015612d7e57612d5682612d48612cf9888b8601815181101515612cc757fe5b906020019060200201518a8c8701815181101515612ce157fe5b906020019060200201516128ed90919063ffffffff16565b612d3a8986815181101515612d0a57fe5b906020019060200201518b87815181101515612d2257fe5b906020019060200201516128ed90919063ffffffff16565b61292890919063ffffffff16565b6128ed90919063ffffffff16565b8382815181101515612d6457fe5b906020019060200201819052508080600101915050612ca5565b50612d8a826001613256565b915060008090505b86811015612dec578281815181101515612da857fe5b906020019060200201518982815181101515612dc057fe5b9060200190602002015185600281101515612dd757fe5b60200201819052508080600101915050612d92565b5050508080600101915050612bcc565b505050505092915050565b6000817f30644e72e131a029b85045b68181585d2833e84879b9709143e1f593f0000001039050919050565b612e3b613ce0565b60408051908101604052807f077da99d806abd13c9f15ece5398525119d11e11e9836b2ee7d23f6159ad87d460010281526020017f01485efa927f2ad41bff567eec88f32fb0a0f706588b4e41a8d587d008b7f875600102815250905090565b60007f30644e72e131a029b85045b68181585d2833e84879b9709143e1f593f0000001801515612ec757fe5b828408905092915050565b6000807f30644e72e131a029b85045b68181585d2833e84879b9709143e1f593f0000001905060405160208152602080820152602060408201528460608201528360808201528160a082015260208160c08360055afa1515612f3357600080fd5b80519250505092915050565b612f47613ce0565b6040805190810160405280836000015181526020018360200151600190047f30644e72e131a029b85045b68181585d97816a916871ca8d3c208c16d87cfd47036001028152509050919050565b612f9c613ce0565b612ffc7f30644e72e131a029b85045b68181585d97816a916871ca8d3c208c16d87cfd478484604051602001612fd39291906144be565b6040516020818303038152906040528051906020012060019004811515612ff657fe5b0661370c565b905092915050565b60006130338260027f30644e72e131a029b85045b68181585d2833e84879b9709143e1f593f000000103612ed2565b9050919050565b613042613ce0565b60408051908101604052807e715f13ea08d6b51bedcde3599d8e12163e090921309d5aafc9b5bfaadbcda060010281526020017f27aceab598af7bf3d16ca9d40fe186c489382c21bb9d22b19cb3af8b751b959f600102815250905090565b6060600085850360020a9050806040519080825280602002602001820160405280156130dc5781602001602082028038833980820191505090505b5091508585141561310e57838260008151811015156130f757fe5b90602001906020020181815250508191505061324e565b600185039450606061315e8787613158878a81518110151561312c57fe5b90602001906020020151600060028110151561314457fe5b60200201518961296e90919063ffffffff16565b876130a1565b905060606131aa88886131a4888b81518110151561317857fe5b90602001906020020151600160028110151561319057fe5b60200201518a61296e90919063ffffffff16565b886130a1565b905060008090505b6002848115156131be57fe5b048110156132495782818151811015156131d457fe5b9060200190602002015185828151811015156131ec57fe5b9060200190602002018181525050818181518110151561320857fe5b906020019060200201518560028681151561321f57fe5b04830181518110151561322e57fe5b906020019060200201818152505080806001019150506131b2565b505050505b949350505050565b6060600083519050600181141561327057839150506134de565b600060028281151561327e57fe5b061415156132c1576040517f08c379a00000000000000000000000000000000000000000000000000000000081526004016132b8906145df565b60405180910390fd5b60006133058263100000008115156132d557fe5b047f14a3074b02521e3b1ed9852e5028452693e87be4e910500c7ba9bbddb2f46edd612ed290919063ffffffff16565b905060006001905084156133235761331c82613004565b9150600290505b61332c81613004565b9050606061334461333e8860006137b2565b87613256565b9050606061335c6133568960016137b2565b88613256565b90506000600190508560405190808252806020026020018201604052801561339e57816020015b61338b613aa7565b8152602001906001900390816133835790505b50965060008090505b6002878115156133b357fe5b048110156134d6576133c3613ce0565b6133ed8385848151811015156133d557fe5b906020019060200201516128ed90919063ffffffff16565b905061342b8661341d83888681518110151561340557fe5b9060200190602002015161292890919063ffffffff16565b6128ed90919063ffffffff16565b898381518110151561343957fe5b9060200190602002018190525061348a8661347c61345684612f3f565b888681518110151561346457fe5b9060200190602002015161292890919063ffffffff16565b6128ed90919063ffffffff16565b8960028a81151561349757fe5b0484018151811015156134a657fe5b906020019060200201819052506134c6878461296e90919063ffffffff16565b92505080806001019150506133a7565b505050505050505b92915050565b606060008251905060018114156134fe5782915050613707565b600060028281151561350c57fe5b0614151561354f576040517f08c379a0000000000000000000000000000000000000000000000000000000008152600401613546906145df565b60405180910390fd5b600061359382631000000081151561356357fe5b047f14a3074b02521e3b1ed9852e5028452693e87be4e910500c7ba9bbddb2f46edd612ed290919063ffffffff16565b905060606135aa6135a5866000613865565b6134e4565b905060606135c16135bc876001613865565b6134e4565b9050600060019050846040519080825280602002602001820160405280156135f85781602001602082028038833980820191505090505b50955060008090505b60028681151561360d57fe5b0481101561370057600061364183858481518110151561362957fe5b9060200190602002015161296e90919063ffffffff16565b905061366d81868481518110151561365557fe5b90602001906020020151612e9b90919063ffffffff16565b888381518110151561367b57fe5b90602001906020020181815250506136b381868481518110151561369b57fe5b906020019060200201516128ad90919063ffffffff16565b886002898115156136c057fe5b0484018151811015156136cf57fe5b90602001906020020181815250506136f0868461296e90919063ffffffff16565b9250508080600101915050613601565b5050505050505b919050565b613714613ce0565b60005b60011561378f576000600361372d85600361390e565b01905061376981600460017f30644e72e131a029b85045b68181585d97816a916871ca8d3c208c16d87cfd470181151561376357fe5b0461390e565b91508061377783600261390e565b1415613783575061378f565b60018401935050613717565b604080519081016040528084600102815260200182600102815250915050919050565b6060600283518115156137c157fe5b046040519080825280602002602001820160405280156137fb57816020015b6137e8613aa7565b8152602001906001900390816137e05790505b50905060008090505b6002845181151561381157fe5b0481101561385e578383826002020181518110151561382c57fe5b90602001906020020151828281518110151561384457fe5b906020019060200201819052508080600101915050613804565b5092915050565b60606002835181151561387457fe5b046040519080825280602002602001820160405280156138a35781602001602082028038833980820191505090505b50905060008090505b600284518115156138b957fe5b0481101561390757838382600202018151811015156138d457fe5b9060200190602002015182828151811015156138ec57fe5b906020019060200201818152505080806001019150506138ac565b5092915050565b6000807f30644e72e131a029b85045b68181585d97816a916871ca8d3c208c16d87cfd47905060405160208152602080820152602060408201528460608201528360808201528160a082015260208160c08360055afa151561396f57600080fd5b80519250505092915050565b610120604051908101604052806060815260200160608152602001606081526020016139a5613aa7565b815260200160608152602001600081526020016139c0613aa7565b81525090565b610460604051908101604052806139db613aa7565b81526020016139e8613aa7565b81526020016139f5613aa7565b8152602001613a02613aa7565b8152602001606081526020016060815260200160608152602001606081526020016060815260200160608152602001606081526020016060815260200160608152602001600081526020016000815260200160008152602001613a63613d00565b815260200160008152602001600081526020016000815260200160008152602001600081526020016000815260200160008152602001613aa1613d2e565b81525090565b604080519081016040528060008019168152602001600080191681525090565b608060405190810160405280606081526020016060815260200160008152602001600081525090565b610300604051908101604052806000815260200160008152602001600081526020016000815260200160008152602001600081526020016060815260200160608152602001613b3d613aa7565b8152602001613b4a613aa7565b8152602001613b57613aa7565b81526020016060815260200160608152602001613b72613aa7565b8152602001613b7f613aa7565b8152602001613b8c613aa7565b8152602001613b99613aa7565b81525090565b6040805190810160405280600290602082028038833980820191505090505090565b6111406040519081016040528060008152602001613bdd613d57565b815260200160008152602001613bf1613b9f565b8152602001613bfe613d57565b815260200160008152602001600081526020016000815260200160008152602001613c27613aa7565b81525090565b6101e06040519081016040528060008152602001613c49613aa7565b8152602001613c56613aa7565b8152602001613c63613aa7565b8152602001613c70613aa7565b8152602001613c7d613aa7565b8152602001613c8a613aa7565b8152602001613c97613aa7565b81525090565b61010060405190810160405280613cb2613aa7565b8152602001613cbf613aa7565b815260200160608152602001613cd3613aa7565b8152602001600081525090565b604080519081016040528060008019168152602001600080191681525090565b6080604051908101604052806002905b613d18613aa7565b815260200190600190039081613d105790505090565b608060405190810160405280606081526020016060815260200160008152602001600081525090565b61080060405190810160405280604090602082028038833980820191505090505090565b600082601f8301121515613d8e57600080fd5b8135613da1613d9c8261485b565b61482e565b91508181835260208401935060208101905083856040840282011115613dc657600080fd5b60005b83811015613df65781613ddc8882613e92565b845260208401935060408301925050600181019050613dc9565b5050505092915050565b6000613e0c825161496a565b905092915050565b6000613e208235614976565b905092915050565b6000613e348251614976565b905092915050565b600082601f8301121515613e4f57600080fd5b8135613e62613e5d82614883565b61482e565b91508082526020830160208301858383011115613e7e57600080fd5b613e8983828461498a565b50505092915050565b600060408284031215613ea457600080fd5b613eae604061482e565b90506000613ebe84828501613e14565b6000830152506020613ed284828501613e14565b60208301525092915050565b600060408284031215613ef057600080fd5b613efa604061482e565b90506000613f0a84828501613e14565b6000830152506020613f1e84828501613e14565b60208301525092915050565b600060408284031215613f3c57600080fd5b613f46604061482e565b90506000613f5684828501613e28565b6000830152506020613f6a84828501613e28565b60208301525092915050565b6000613f828235614980565b905092915050565b600080600080600080600080610140898b031215613fa757600080fd5b600089013567ffffffffffffffff811115613fc157600080fd5b613fcd8b828c01613d7b565b985050602089013567ffffffffffffffff811115613fea57600080fd5b613ff68b828c01613d7b565b975050604089013567ffffffffffffffff81111561401357600080fd5b61401f8b828c01613d7b565b96505060606140308b828c01613ede565b95505060a089013567ffffffffffffffff81111561404d57600080fd5b6140598b828c01613d7b565b94505060c061406a8b828c01613f76565b93505060e061407b8b828c01613ede565b92505061012089013567ffffffffffffffff81111561409957600080fd5b6140a58b828c01613e3c565b9150509295985092959890939650565b6000602082840312156140c757600080fd5b60006140d584828501613e00565b91505092915050565b6000604082840312156140f057600080fd5b60006140fe84828501613f2a565b91505092915050565b600061411383836143c1565b60408301905092915050565b614128816148c6565b6141328184614901565b925061413d826148af565b60005b8281101561416b57614153858351614107565b945061415e826148e7565b9150600181019050614140565b5050505050565b600061417d826148d1565b614187818561490c565b9350614192836148b9565b60005b828110156141c0576141a8868351614107565b95506141b3826148f4565b9150600181019050614195565b50849250505092915050565b60006141d7826148d1565b6141e1818561491d565b93506141ec836148b9565b60005b8281101561421a57614202868351614107565b955061420d826148f4565b91506001810190506141ef565b50849250505092915050565b61422f8161494a565b82525050565b61423e81614956565b82525050565b600061424f826148dc565b614259818561493f565b9350614269818560208601614999565b80840191505092915050565b6000614282601f8361492e565b91507f496e7075742073697a65206973206e6f74206120706f776572206f66203221006000830152602082019050919050565b60006142c2602a8361492e565b91507f5369676d612070726f746f636f6c206368616c6c656e676520657175616c697460008301527f79206661696c7572652e000000000000000000000000000000000000000000006020830152604082019050919050565b600061432860288361492e565b91507f496e6e65722070726f647563742070726f6f6620766572696669636174696f6e60008301527f206661696c65642e0000000000000000000000000000000000000000000000006020830152604082019050919050565b600061438e601d8361492e565b91507f5265636f76657279206661696c75726520666f7220425e77202a20412e0000006000830152602082019050919050565b6040820160008201516143d76000850182614235565b5060208201516143ea6020850182614235565b50505050565b6040820160008201516144066000850182614235565b5060208201516144196020850182614235565b50505050565b6000608083016000830151848203600086015261443c8282614172565b915050602083015184820360208601526144568282614172565b915050604083015161446b6040860182614489565b50606083015161447e6060860182614489565b508091505092915050565b61449281614960565b82525050565b6144a181614960565b82525050565b6144b86144b382614960565b6149cc565b82525050565b60006144ca8285614244565b91506144d682846144a7565b6020820191508190509392505050565b600060e082019050818103600083015261450081896141cc565b9050818103602083015261451481886141cc565b9050818103604083015261452881876141cc565b905061453760608301866143f0565b81810360a083015261454981856141cc565b905061455860c0830184614498565b979650505050505050565b600060e082019050818103600083015261457d81886141cc565b905061458c60208301876143f0565b61459960608301866143f0565b81810360a08301526145ab818561441f565b90506145ba60c0830184614498565b9695505050505050565b60006020820190506145d96000830184614226565b92915050565b600060208201905081810360008301526145f881614275565b9050919050565b60006020820190508181036000830152614618816142b5565b9050919050565b600060208201905081810360008301526146388161431b565b9050919050565b6000602082019050818103600083015261465881614381565b9050919050565b60006020820190506146746000830184614498565b92915050565b600060a08201905061468f6000830185614498565b61469c602083018461411f565b9392505050565b6000610120820190506146b9600083018c614498565b81810360208301526146cb818b6141cc565b905081810360408301526146df818a6141cc565b905081810360608301526146f381896141cc565b9050818103608083015261470781886141cc565b905081810360a083015261471b81876141cc565b905081810360c083015261472f81866141cc565b905081810360e083015261474381856141cc565b905081810361010083015261475881846141cc565b90509a9950505050505050505050565b60006101208201905061477e6000830188614498565b61478b60208301876143f0565b61479860608301866143f0565b6147a560a08301856143f0565b6147b260e08301846143f0565b9695505050505050565b60006101a0820190506147d2600083018a614498565b6147df60208301896143f0565b6147ec60608301886143f0565b6147f960a08301876143f0565b61480660e08301866143f0565b6148146101208301856143f0565b6148226101608301846143f0565b98975050505050505050565b6000604051905081810181811067ffffffffffffffff8211171561485157600080fd5b8060405250919050565b600067ffffffffffffffff82111561487257600080fd5b602082029050602081019050919050565b600067ffffffffffffffff82111561489a57600080fd5b601f19601f8301169050602081019050919050565b6000819050919050565b6000602082019050919050565b600060029050919050565b600081519050919050565b600081519050919050565b6000602082019050919050565b6000602082019050919050565b600081905092915050565b600082825260208201905092915050565b600082825260208201905092915050565b600082825260208201905092915050565b600081905092915050565b60008115159050919050565b6000819050919050565b6000819050919050565b60008115159050919050565b6000819050919050565b6000819050919050565b82818337600083830152505050565b60005b838110156149b757808201518184015260208101905061499c565b838111156149c6576000848401525b50505050565b600081905091905056fea265627a7a723058209a07f736f25bbaaf7b362199e61850075fbfd34f4ad7e30a9780c56dace6b7056c6578706572696d656e74616cf50037",
  "source": "pragma solidity 0.5.4;\npragma experimental ABIEncoderV2;\n\nimport \"./Utils.sol\";\nimport \"./InnerProductVerifier.sol\";\n\ncontract ZetherVerifier {\n    using Utils for uint256;\n    using Utils for Utils.G1Point;\n\n    uint256 constant UNITY = 0x14a3074b02521e3b1ed9852e5028452693e87be4e910500c7ba9bbddb2f46edd; // primitive 2^28th root of unity modulo q.\n\n    InnerProductVerifier ip;\n\n    struct ZetherStatement {\n        Utils.G1Point[] CLn;\n        Utils.G1Point[] CRn;\n        Utils.G1Point[] C;\n        Utils.G1Point D;\n        Utils.G1Point[] y;\n        uint256 epoch;\n        Utils.G1Point u;\n    }\n\n    struct ZetherProof {\n        Utils.G1Point BA;\n        Utils.G1Point BS;\n        Utils.G1Point A;\n        Utils.G1Point B;\n\n        Utils.G1Point[] CLnG;\n        Utils.G1Point[] CRnG;\n        Utils.G1Point[] C_0G;\n        Utils.G1Point[] DG;\n        Utils.G1Point[] y_0G;\n        Utils.G1Point[] gG;\n        Utils.G1Point[] C_XG;\n        Utils.G1Point[] y_XG;\n\n        uint256[] f;\n        uint256 z_A;\n        uint256 z_C;\n        uint256 z_E;\n\n        Utils.G1Point[2] tCommits;\n        uint256 tHat;\n        uint256 mu;\n\n        uint256 c;\n        uint256 s_sk;\n        uint256 s_r;\n        uint256 s_b;\n        uint256 s_tau;\n\n        InnerProductVerifier.InnerProductProof ipProof;\n    }\n\n    constructor(address _ip) public {\n        ip = InnerProductVerifier(_ip);\n    }\n\n    function verifyTransfer(Utils.G1Point[] memory CLn, Utils.G1Point[] memory CRn, Utils.G1Point[] memory C, Utils.G1Point memory D, Utils.G1Point[] memory y, uint256 epoch, Utils.G1Point memory u, bytes memory proof) public view returns (bool) {\n        ZetherStatement memory statement;\n        statement.CLn = CLn; // do i need to allocate / set size?!\n        statement.CRn = CRn;\n        statement.C = C;\n        statement.D = D;\n        statement.y = y;\n        statement.epoch = epoch;\n        statement.u = u;\n        ZetherProof memory zetherProof = unserialize(proof);\n        return verify(statement, zetherProof);\n    }\n\n    struct ZetherAuxiliaries {\n        uint256 y;\n        uint256[64] ys;\n        uint256 z;\n        uint256[2] zs; // [z^2, z^3]\n        uint256[64] twoTimesZSquared;\n        uint256 zSum;\n        uint256 x;\n        uint256 t;\n        uint256 k;\n        Utils.G1Point tEval;\n    }\n\n    struct SigmaAuxiliaries {\n        uint256 c;\n        Utils.G1Point A_y;\n        Utils.G1Point A_D;\n        Utils.G1Point A_b;\n        Utils.G1Point A_X;\n        Utils.G1Point A_t;\n        Utils.G1Point gEpoch;\n        Utils.G1Point A_u;\n    }\n\n    struct AnonAuxiliaries {\n        uint256 m;\n        uint256 N;\n        uint256 v;\n        uint256 w;\n        uint256 vPow;\n        uint256 wPow;\n        uint256[2][] f; // could just allocate extra space in the proof?\n        uint256[2][] r; // each poly is an array of length N. evaluations of prods\n        Utils.G1Point temp;\n        Utils.G1Point CLnR;\n        Utils.G1Point CRnR;\n        Utils.G1Point[2][] CR;\n        Utils.G1Point[2][] yR;\n        Utils.G1Point C_XR;\n        Utils.G1Point y_XR;\n        Utils.G1Point gR;\n        Utils.G1Point DR;\n    }\n\n    struct IPAuxiliaries {\n        Utils.G1Point P;\n        Utils.G1Point u_x;\n        Utils.G1Point[] hPrimes;\n        Utils.G1Point hPrimeSum;\n        uint256 o;\n    }\n\n    function gSum() internal pure returns (Utils.G1Point memory) {\n        return Utils.G1Point(0x00715f13ea08d6b51bedcde3599d8e12163e090921309d5aafc9b5bfaadbcda0, 0x27aceab598af7bf3d16ca9d40fe186c489382c21bb9d22b19cb3af8b751b959f);\n    }\n\n    function verify(ZetherStatement memory statement, ZetherProof memory proof) internal view returns (bool) {\n        uint256 statementHash = uint256(keccak256(abi.encode(statement.CLn, statement.CRn, statement.C, statement.D, statement.y, statement.epoch))).mod();\n\n        AnonAuxiliaries memory anonAuxiliaries;\n        anonAuxiliaries.v = uint256(keccak256(abi.encode(statementHash, proof.BA, proof.BS, proof.A, proof.B))).mod();\n        anonAuxiliaries.w = uint256(keccak256(abi.encode(anonAuxiliaries.v, proof.CLnG, proof.CRnG, proof.C_0G, proof.DG, proof.y_0G, proof.gG, proof.C_XG, proof.y_XG))).mod();\n        anonAuxiliaries.m = proof.f.length / 2;\n        anonAuxiliaries.N = 2 ** anonAuxiliaries.m;\n        anonAuxiliaries.f = new uint256[2][](2 * anonAuxiliaries.m);\n        for (uint256 k = 0; k < 2 * anonAuxiliaries.m; k++) {\n            anonAuxiliaries.f[k][1] = proof.f[k];\n            anonAuxiliaries.f[k][0] = anonAuxiliaries.w.sub(proof.f[k]); // is it wasteful to store / keep all these in memory?\n        }\n\n        for (uint256 k = 0; k < 2 * anonAuxiliaries.m; k++) {\n            anonAuxiliaries.temp = anonAuxiliaries.temp.add(ip.gs(k).mul(anonAuxiliaries.f[k][1]));\n            anonAuxiliaries.temp = anonAuxiliaries.temp.add(ip.hs(k).mul(anonAuxiliaries.f[k][1].mul(anonAuxiliaries.f[k][0])));\n        }\n        anonAuxiliaries.temp = anonAuxiliaries.temp.add(ip.hs(2 * anonAuxiliaries.m).mul(anonAuxiliaries.f[0][1].mul(anonAuxiliaries.f[anonAuxiliaries.m][1])).add(ip.hs(2 * anonAuxiliaries.m + 1).mul(anonAuxiliaries.f[0][0].mul(anonAuxiliaries.f[anonAuxiliaries.m][0]))));\n        require(proof.B.mul(anonAuxiliaries.w).add(proof.A).eq(anonAuxiliaries.temp.add(Utils.h().mul(proof.z_A))), \"Recovery failure for B^w * A.\");\n\n        anonAuxiliaries.r = assemblePolynomials(anonAuxiliaries.f);\n\n        anonAuxiliaries.CR = assembleConvolutions(anonAuxiliaries.r, statement.C);\n        anonAuxiliaries.yR = assembleConvolutions(anonAuxiliaries.r, statement.y);\n        anonAuxiliaries.vPow = 1;\n        for (uint256 i = 0; i < anonAuxiliaries.N; i++) {\n            anonAuxiliaries.CLnR = anonAuxiliaries.CLnR.add(statement.CLn[i].mul(anonAuxiliaries.r[i][0]));\n            anonAuxiliaries.CRnR = anonAuxiliaries.CRnR.add(statement.CRn[i].mul(anonAuxiliaries.r[i][0]));\n            anonAuxiliaries.C_XR = anonAuxiliaries.C_XR.add(anonAuxiliaries.CR[i / 2][i % 2].mul(anonAuxiliaries.vPow));\n            anonAuxiliaries.y_XR = anonAuxiliaries.y_XR.add(anonAuxiliaries.yR[i / 2][i % 2].mul(anonAuxiliaries.vPow));\n            if (i > 0) {\n                anonAuxiliaries.vPow = anonAuxiliaries.vPow.mul(anonAuxiliaries.v);\n            }\n        }\n        anonAuxiliaries.wPow = 1;\n        for (uint256 k = 0; k < anonAuxiliaries.m; k++) {\n            anonAuxiliaries.CLnR = anonAuxiliaries.CLnR.add(proof.CLnG[k].mul(anonAuxiliaries.wPow.neg()));\n            anonAuxiliaries.CRnR = anonAuxiliaries.CRnR.add(proof.CRnG[k].mul(anonAuxiliaries.wPow.neg()));\n            anonAuxiliaries.CR[0][0] = anonAuxiliaries.CR[0][0].add(proof.C_0G[k].mul(anonAuxiliaries.wPow.neg()));\n            anonAuxiliaries.DR = anonAuxiliaries.DR.add(proof.DG[k].mul(anonAuxiliaries.wPow.neg()));\n            anonAuxiliaries.yR[0][0] = anonAuxiliaries.yR[0][0].add(proof.y_0G[k].mul(anonAuxiliaries.wPow.neg()));\n            anonAuxiliaries.gR = anonAuxiliaries.gR.add(proof.gG[k].mul(anonAuxiliaries.wPow.neg()));\n            anonAuxiliaries.C_XR = anonAuxiliaries.C_XR.add(proof.C_XG[k].mul(anonAuxiliaries.wPow.neg()));\n            anonAuxiliaries.y_XR = anonAuxiliaries.y_XR.add(proof.y_XG[k].mul(anonAuxiliaries.wPow.neg()));\n\n            anonAuxiliaries.wPow = anonAuxiliaries.wPow.mul(anonAuxiliaries.w);\n        }\n        anonAuxiliaries.DR = anonAuxiliaries.DR.add(statement.D.mul(anonAuxiliaries.wPow));\n        anonAuxiliaries.gR = anonAuxiliaries.gR.add(Utils.g().mul(anonAuxiliaries.wPow));\n\n        ZetherAuxiliaries memory zetherAuxiliaries;\n        zetherAuxiliaries.y = uint256(keccak256(abi.encode(anonAuxiliaries.w))).mod();\n        zetherAuxiliaries.ys[0] = 1;\n        zetherAuxiliaries.k = 1;\n        for (uint256 i = 1; i < 64; i++) {\n            zetherAuxiliaries.ys[i] = zetherAuxiliaries.ys[i - 1].mul(zetherAuxiliaries.y);\n            zetherAuxiliaries.k = zetherAuxiliaries.k.add(zetherAuxiliaries.ys[i]);\n        }\n        zetherAuxiliaries.z = uint256(keccak256(abi.encode(zetherAuxiliaries.y))).mod();\n        zetherAuxiliaries.zs = [zetherAuxiliaries.z.exp(2), zetherAuxiliaries.z.exp(3)];\n        zetherAuxiliaries.zSum = zetherAuxiliaries.zs[0].add(zetherAuxiliaries.zs[1]).mul(zetherAuxiliaries.z);\n        zetherAuxiliaries.k = zetherAuxiliaries.k.mul(zetherAuxiliaries.z.sub(zetherAuxiliaries.zs[0])).sub(zetherAuxiliaries.zSum.mul(2 ** 32).sub(zetherAuxiliaries.zSum));\n        zetherAuxiliaries.t = proof.tHat.sub(zetherAuxiliaries.k); // t = tHat - delta(y, z)\n        for (uint256 i = 0; i < 32; i++) {\n            zetherAuxiliaries.twoTimesZSquared[i] = zetherAuxiliaries.zs[0].mul(2 ** i);\n            zetherAuxiliaries.twoTimesZSquared[i + 32] = zetherAuxiliaries.zs[1].mul(2 ** i);\n        }\n\n        zetherAuxiliaries.x = uint256(keccak256(abi.encode(zetherAuxiliaries.z, proof.tCommits))).mod();\n        zetherAuxiliaries.tEval = proof.tCommits[0].mul(zetherAuxiliaries.x).add(proof.tCommits[1].mul(zetherAuxiliaries.x.mul(zetherAuxiliaries.x))); // replace with \"commit\"?\n\n        SigmaAuxiliaries memory sigmaAuxiliaries;\n        sigmaAuxiliaries.A_y = anonAuxiliaries.gR.mul(proof.s_sk).add(anonAuxiliaries.yR[0][0].mul(proof.c.neg()));\n        sigmaAuxiliaries.A_D = Utils.g().mul(proof.s_r).add(statement.D.mul(proof.c.neg())); // add(mul(anonAuxiliaries.gR, proof.s_r), mul(anonAuxiliaries.DR, proof.c.neg()));\n        sigmaAuxiliaries.A_b = Utils.g().mul(proof.s_b).add(anonAuxiliaries.DR.mul(zetherAuxiliaries.zs[0].neg()).add(anonAuxiliaries.CRnR.mul(zetherAuxiliaries.zs[1])).mul(proof.s_sk).add(anonAuxiliaries.CR[0][0].mul(zetherAuxiliaries.zs[0].neg()).add(anonAuxiliaries.CLnR.mul(zetherAuxiliaries.zs[1])).mul(proof.c.neg())));\n        sigmaAuxiliaries.A_X = anonAuxiliaries.y_XR.mul(proof.s_r).add(anonAuxiliaries.C_XR.mul(proof.c.neg()));\n        sigmaAuxiliaries.A_t = Utils.g().mul(zetherAuxiliaries.t).add(zetherAuxiliaries.tEval.neg()).mul(proof.c.mul(anonAuxiliaries.wPow)).add(Utils.h().mul(proof.s_tau)).add(Utils.g().mul(proof.s_b.neg()));\n        sigmaAuxiliaries.gEpoch = Utils.mapInto(\"Zether\", statement.epoch);\n        sigmaAuxiliaries.A_u = sigmaAuxiliaries.gEpoch.mul(proof.s_sk).add(statement.u.mul(proof.c.neg()));\n\n        sigmaAuxiliaries.c = uint256(keccak256(abi.encode(zetherAuxiliaries.x, sigmaAuxiliaries.A_y, sigmaAuxiliaries.A_D, sigmaAuxiliaries.A_b, sigmaAuxiliaries.A_X, sigmaAuxiliaries.A_t, sigmaAuxiliaries.A_u))).mod();\n        require(sigmaAuxiliaries.c == proof.c, \"Sigma protocol challenge equality failure.\");\n\n        IPAuxiliaries memory ipAuxiliaries;\n        ipAuxiliaries.o = uint256(keccak256(abi.encode(sigmaAuxiliaries.c))).mod();\n        ipAuxiliaries.u_x = Utils.h().mul(ipAuxiliaries.o);\n        ipAuxiliaries.hPrimes = new Utils.G1Point[](64);\n        for (uint256 i = 0; i < 64; i++) {\n            ipAuxiliaries.hPrimes[i] = ip.hs(i).mul(zetherAuxiliaries.ys[i].inv());\n            ipAuxiliaries.hPrimeSum = ipAuxiliaries.hPrimeSum.add(ipAuxiliaries.hPrimes[i].mul(zetherAuxiliaries.ys[i].mul(zetherAuxiliaries.z).add(zetherAuxiliaries.twoTimesZSquared[i])));\n        }\n        ipAuxiliaries.P = proof.BA.add(proof.BS.mul(zetherAuxiliaries.x)).add(gSum().mul(zetherAuxiliaries.z.neg())).add(ipAuxiliaries.hPrimeSum);\n        ipAuxiliaries.P = ipAuxiliaries.P.add(Utils.h().mul(proof.mu.neg()));\n        ipAuxiliaries.P = ipAuxiliaries.P.add(ipAuxiliaries.u_x.mul(proof.tHat));\n        require(ip.verifyInnerProduct(ipAuxiliaries.hPrimes, ipAuxiliaries.u_x, ipAuxiliaries.P, proof.ipProof, ipAuxiliaries.o), \"Inner product proof verification failed.\");\n\n        return true;\n    }\n\n    function assemblePolynomials(uint256[2][] memory f) internal view returns (uint256[2][] memory result) {\n        uint256 m = f.length / 2;\n        uint256 N = 2 ** m;\n        result = new uint256[2][](N);\n        for (uint256 i = 0; i < 2; i++) {\n            uint256[] memory half = recursivePolynomials(i * m, (i + 1) * m, 1, f);\n            for (uint256 j = 0; j < N; j++) {\n                result[j][i] = half[j];\n            }\n        }\n    }\n\n    function recursivePolynomials(uint256 baseline, uint256 current, uint256 accum, uint256[2][] memory f) internal view returns (uint256[] memory result) {\n        // have to do a bunch of re-allocating because solidity won't let me have something which is internal and also modifies (internal) state. (?)\n        uint256 size = 2 ** (current - baseline); // size is at least 2...\n        result = new uint256[](size);\n\n        if (current == baseline) {\n            result[0] = accum;\n            return result;\n        }\n        current = current - 1;\n\n        uint256[] memory left = recursivePolynomials(baseline, current, accum.mul(f[current][0]), f);\n        uint256[] memory right = recursivePolynomials(baseline, current, accum.mul(f[current][1]), f);\n        for (uint256 i = 0; i < size / 2; i++) {\n            result[i] = left[i];\n            result[i + size / 2] = right[i];\n        }\n    }\n\n    function assembleConvolutions(uint256[2][] memory exponent, Utils.G1Point[] memory base) internal view returns (Utils.G1Point[2][] memory result) {\n        // exponent is two \"rows\" (actually columns).\n        // will return two rows, each of half the length of the exponents;\n        // namely, we will return the Hadamards of \"base\" by the even circular shifts of \"exponent\"'s rows.\n        uint256 size = exponent.length;\n        uint256 half = size / 2;\n        result = new Utils.G1Point[2][](half); // assuming that this is necessary even when return is declared up top\n\n        Utils.G1Point[] memory base_fft = fft(base, false);\n\n        uint256[] memory exponent_fft = new uint256[](size);\n        for (uint256 i = 0; i < 2; i++) {\n            for (uint256 j = 0; j < size; j++) {\n                exponent_fft[j] = exponent[(size - j) % size][i]; // convolutional flip plus copy\n            }\n\n            exponent_fft = fft(exponent_fft);\n            Utils.G1Point[] memory inverse_fft = new Utils.G1Point[](half);\n            uint256 compensation = 2;\n            compensation = compensation.inv();\n            for (uint256 j = 0; j < half; j++) { // Hadamard\n                inverse_fft[j] = base_fft[j].mul(exponent_fft[j]).add(base_fft[j + half].mul(exponent_fft[j + half])).mul(compensation);\n            }\n\n            inverse_fft = fft(inverse_fft, true);\n            for (uint256 j = 0; j < half; j++) {\n                result[j][i] = inverse_fft[j];\n            }\n        }\n    }\n\n    function fft(Utils.G1Point[] memory input, bool inverse) internal view returns (Utils.G1Point[] memory result) {\n        uint256 size = input.length;\n        if (size == 1) {\n            return input;\n        }\n        require(size % 2 == 0, \"Input size is not a power of 2!\");\n\n        uint256 omega = UNITY.exp(2**28 / size);\n        uint256 compensation = 1;\n        if (inverse) {\n            omega = omega.inv();\n            compensation = 2;\n        }\n        compensation = compensation.inv();\n        Utils.G1Point[] memory even = fft(extract(input, 0), inverse);\n        Utils.G1Point[] memory odd = fft(extract(input, 1), inverse);\n        uint256 omega_run = 1;\n        result = new Utils.G1Point[](size);\n        for (uint256 i = 0; i < size / 2; i++) {\n            Utils.G1Point memory temp = odd[i].mul(omega_run);\n            result[i] = even[i].add(temp).mul(compensation);\n            result[i + size / 2] = even[i].add(temp.neg()).mul(compensation);\n            omega_run = omega_run.mul(omega);\n        }\n    }\n\n    function extract(Utils.G1Point[] memory input, uint256 parity) internal pure returns (Utils.G1Point[] memory result) {\n        result = new Utils.G1Point[](input.length / 2);\n        for (uint256 i = 0; i < input.length / 2; i++) {\n            result[i] = input[2 * i + parity];\n        }\n    }\n\n    function fft(uint256[] memory input) internal view returns (uint256[] memory result) {\n        uint256 size = input.length;\n        if (size == 1) {\n            return input;\n        }\n        require(size % 2 == 0, \"Input size is not a power of 2!\");\n\n        uint256 omega = UNITY.exp(2**28 / size);\n        uint256[] memory even = fft(extract(input, 0));\n        uint256[] memory odd = fft(extract(input, 1));\n        uint256 omega_run = 1;\n        result = new uint256[](size);\n        for (uint256 i = 0; i < size / 2; i++) {\n            uint256 temp = odd[i].mul(omega_run);\n            result[i] = even[i].add(temp);\n            result[i + size / 2] = even[i].sub(temp);\n            omega_run = omega_run.mul(omega);\n        }\n    }\n\n    function extract(uint256[] memory input, uint256 parity) internal pure returns (uint256[] memory result) {\n        result = new uint256[](input.length / 2);\n        for (uint256 i = 0; i < input.length / 2; i++) {\n            result[i] = input[2 * i + parity];\n        }\n    }\n\n    function unserialize(bytes memory arr) internal pure returns (ZetherProof memory proof) {\n        proof.BA = Utils.G1Point(Utils.slice(arr, 0), Utils.slice(arr, 32));\n        proof.BS = Utils.G1Point(Utils.slice(arr, 64), Utils.slice(arr, 96));\n        proof.A = Utils.G1Point(Utils.slice(arr, 128), Utils.slice(arr, 160));\n        proof.B = Utils.G1Point(Utils.slice(arr, 192), Utils.slice(arr, 224));\n\n        uint256 m = (arr.length - 1472) / 576;\n        proof.CLnG = new Utils.G1Point[](m);\n        proof.CRnG = new Utils.G1Point[](m);\n        proof.C_0G = new Utils.G1Point[](m);\n        proof.DG = new Utils.G1Point[](m);\n        proof.y_0G = new Utils.G1Point[](m);\n        proof.gG = new Utils.G1Point[](m);\n        proof.C_XG = new Utils.G1Point[](m);\n        proof.y_XG = new Utils.G1Point[](m);\n        proof.f = new uint256[](2 * m);\n        for (uint256 k = 0; k < m; k++) {\n            proof.CLnG[k] = Utils.G1Point(Utils.slice(arr, 256 + k * 64), Utils.slice(arr, 288 + k * 64));\n            proof.CRnG[k] = Utils.G1Point(Utils.slice(arr, 256 + (m + k) * 64), Utils.slice(arr, 288 + (m + k) * 64));\n            proof.C_0G[k] = Utils.G1Point(Utils.slice(arr, 256 + m * 128 + k * 64), Utils.slice(arr, 288 + m * 128 + k * 64));\n            proof.DG[k] = Utils.G1Point(Utils.slice(arr, 256 + m * 192 + k * 64), Utils.slice(arr, 288 + m * 192 + k * 64));\n            proof.y_0G[k] = Utils.G1Point(Utils.slice(arr, 256 + m * 256 + k * 64), Utils.slice(arr, 288 + m * 256 + k * 64));\n            proof.gG[k] = Utils.G1Point(Utils.slice(arr, 256 + m * 320 + k * 64), Utils.slice(arr, 288 + m * 320 + k * 64));\n            proof.C_XG[k] = Utils.G1Point(Utils.slice(arr, 256 + m * 384 + k * 64), Utils.slice(arr, 288 + m * 384 + k * 64));\n            proof.y_XG[k] = Utils.G1Point(Utils.slice(arr, 256 + m * 448 + k * 64), Utils.slice(arr, 288 + m * 448 + k * 64));\n            proof.f[k] = uint256(Utils.slice(arr, 256 + m * 512 + k * 32));\n            proof.f[k + m] = uint256(Utils.slice(arr, 256 + m * 544 + k * 32));\n        }\n        uint256 starting = m * 576;\n        proof.z_A = uint256(Utils.slice(arr, 256 + starting));\n\n        proof.tCommits = [Utils.G1Point(Utils.slice(arr, 288 + starting), Utils.slice(arr, 320 + starting)), Utils.G1Point(Utils.slice(arr, 352 + starting), Utils.slice(arr, 384 + starting))];\n        proof.tHat = uint256(Utils.slice(arr, 416 + starting));\n        proof.mu = uint256(Utils.slice(arr, 448 + starting));\n\n        proof.c = uint256(Utils.slice(arr, 480 + starting));\n        proof.s_sk = uint256(Utils.slice(arr, 512 + starting));\n        proof.s_r = uint256(Utils.slice(arr, 544 + starting));\n        proof.s_b = uint256(Utils.slice(arr, 576 + starting));\n        proof.s_tau = uint256(Utils.slice(arr, 608 + starting));\n\n        InnerProductVerifier.InnerProductProof memory ipProof;\n        ipProof.ls = new Utils.G1Point[](6);\n        ipProof.rs = new Utils.G1Point[](6);\n        for (uint256 i = 0; i < 6; i++) { // 2^6 = 64.\n            ipProof.ls[i] = Utils.G1Point(Utils.slice(arr, 640 + starting + i * 64), Utils.slice(arr, 672 + starting + i * 64));\n            ipProof.rs[i] = Utils.G1Point(Utils.slice(arr, 640 + starting + (6 + i) * 64), Utils.slice(arr, 672 + starting + (6 + i) * 64));\n        }\n        ipProof.a = uint256(Utils.slice(arr, 640 + starting + 6 * 128));\n        ipProof.b = uint256(Utils.slice(arr, 672 + starting + 6 * 128));\n        proof.ipProof = ipProof;\n\n        return proof;\n    }\n}\n",
  "sourcePath": "/Users/benediamond/anonymous-zether/packages/protocol/contracts/ZetherVerifier.sol",
  "compiler": {
    "name": "solc",
    "version": "0.5.4+commit.9549d8ff.Emscripten.clang"
  },
  "schemaVersion": "3.2.3",
  "updatedAt": "2020-08-28T00:57:52.327Z",
  "devdoc": {
    "methods": {}
  },
  "userdoc": {
    "methods": {}
  }
}