{
  "contractName": "ZSC",
  "abi": [
    {
      "constant": true,
      "inputs": [],
      "name": "epochLength",
      "outputs": [
        {
          "name": "",
          "type": "uint256"
        }
      ],
      "payable": false,
      "stateMutability": "view",
      "type": "function"
    },
    {
      "inputs": [
        {
          "name": "_coin",
          "type": "address"
        },
        {
          "name": "_zether",
          "type": "address"
        },
        {
          "name": "_burn",
          "type": "address"
        },
        {
          "name": "_epochLength",
          "type": "uint256"
        }
      ],
      "payable": false,
      "stateMutability": "nonpayable",
      "type": "constructor"
    },
    {
      "anonymous": false,
      "inputs": [
        {
          "indexed": false,
          "name": "parties",
          "type": "bytes32[2][]"
        }
      ],
      "name": "TransferOccurred",
      "type": "event"
    },
    {
      "constant": true,
      "inputs": [
        {
          "name": "y",
          "type": "bytes32[2][]"
        },
        {
          "name": "epoch",
          "type": "uint256"
        }
      ],
      "name": "simulateAccounts",
      "outputs": [
        {
          "name": "accounts",
          "type": "bytes32[2][2][]"
        }
      ],
      "payable": false,
      "stateMutability": "view",
      "type": "function"
    },
    {
      "constant": false,
      "inputs": [
        {
          "name": "y",
          "type": "bytes32[2]"
        },
        {
          "name": "c",
          "type": "uint256"
        },
        {
          "name": "s",
          "type": "uint256"
        }
      ],
      "name": "register",
      "outputs": [],
      "payable": false,
      "stateMutability": "nonpayable",
      "type": "function"
    },
    {
      "constant": false,
      "inputs": [
        {
          "name": "y",
          "type": "bytes32[2]"
        },
        {
          "name": "bTransfer",
          "type": "uint256"
        }
      ],
      "name": "fund",
      "outputs": [],
      "payable": false,
      "stateMutability": "nonpayable",
      "type": "function"
    },
    {
      "constant": false,
      "inputs": [
        {
          "name": "C",
          "type": "bytes32[2][]"
        },
        {
          "name": "D",
          "type": "bytes32[2]"
        },
        {
          "name": "y",
          "type": "bytes32[2][]"
        },
        {
          "name": "u",
          "type": "bytes32[2]"
        },
        {
          "name": "proof",
          "type": "bytes"
        }
      ],
      "name": "transfer",
      "outputs": [],
      "payable": false,
      "stateMutability": "nonpayable",
      "type": "function"
    },
    {
      "constant": false,
      "inputs": [
        {
          "name": "y",
          "type": "bytes32[2]"
        },
        {
          "name": "bTransfer",
          "type": "uint256"
        },
        {
          "name": "u",
          "type": "bytes32[2]"
        },
        {
          "name": "proof",
          "type": "bytes"
        }
      ],
      "name": "burn",
      "outputs": [],
      "payable": false,
      "stateMutability": "nonpayable",
      "type": "function"
    }
  ],
  "bytecode": "0x6080604052600060085534801561001557600080fd5b50604051608080612f168339810180604052608081101561003557600080fd5b8101908080519060200190929190805190602001909291908051906020019092919080519060200190929190505050836000806101000a81548173ffffffffffffffffffffffffffffffffffffffff021916908373ffffffffffffffffffffffffffffffffffffffff16021790555082600160006101000a81548173ffffffffffffffffffffffffffffffffffffffff021916908373ffffffffffffffffffffffffffffffffffffffff16021790555081600260006101000a81548173ffffffffffffffffffffffffffffffffffffffff021916908373ffffffffffffffffffffffffffffffffffffffff1602179055508060038190555050505050612dd6806101406000396000f3fe608060405234801561001057600080fd5b506004361061007f576000357c010000000000000000000000000000000000000000000000000000000090048063242e8387146100845780635464befb146100c657806357d775f8146100fe5780635ec7ccfd1461011c57806373663b5f146103f95780637ea9712f14610540575b600080fd5b6100c46004803603608081101561009a57600080fd5b8101908080604001909192919290803590602001909291908035906020019092919050505061065e565b005b6100fc600480360360608110156100dc57600080fd5b8101908080604001909192919290803590602001909291905050506109cc565b005b610106610f48565b6040518082815260200191505060405180910390f35b6103f7600480360360e081101561013257600080fd5b810190808035906020019064010000000081111561014f57600080fd5b82018360208201111561016157600080fd5b8035906020019184604083028401116401000000008311171561018357600080fd5b9190808060200260200160405190810160405280939291908181526020016000905b828210156101fc578484839050604002016002806020026040519081016040528092919082600260200280828437600081840152601f19601f820116905080830192505050505050815260200190600101906101a5565b5050505050919291929080604001906002806020026040519081016040528092919082600260200280828437600081840152601f19601f82011690508083019250505050505091929192908035906020019064010000000081111561026057600080fd5b82018360208201111561027257600080fd5b8035906020019184604083028401116401000000008311171561029457600080fd5b9190808060200260200160405190810160405280939291908181526020016000905b8282101561030d578484839050604002016002806020026040519081016040528092919082600260200280828437600081840152601f19601f820116905080830192505050505050815260200190600101906102b6565b5050505050919291929080604001906002806020026040519081016040528092919082600260200280828437600081840152601f19601f82011690508083019250505050505091929192908035906020019064010000000081111561037157600080fd5b82018360208201111561038357600080fd5b803590602001918460018302840111640100000000831117156103a557600080fd5b91908080601f016020809104026020016040519081016040528093929190818152602001838380828437600081840152601f19601f820116905080830192505050505050509192919290505050610f4e565b005b61053e600480360360c081101561040f57600080fd5b8101908080604001906002806020026040519081016040528092919082600260200280828437600081840152601f19601f82011690508083019250505050505091929192908035906020019092919080604001906002806020026040519081016040528092919082600260200280828437600081840152601f19601f8201169050808301925050505050509192919290803590602001906401000000008111156104b857600080fd5b8201836020820111156104ca57600080fd5b803590602001918460018302840111640100000000831117156104ec57600080fd5b91908080601f016020809104026020016040519081016040528093929190818152602001838380828437600081840152601f19601f8201169050808301925050505050505091929192905050506119ce565b005b6105c16004803603604081101561055657600080fd5b810190808035906020019064010000000081111561057357600080fd5b82018360208201111561058557600080fd5b803590602001918460408302840111640100000000831117156105a757600080fd5b909192939192939080359060200190929190505050612353565b60405180806020018281038252838181518152602001915080516000925b8184101561064d5782849060200190602002015160026000925b8184101561063f5782846020020151600260200280838360005b8381101561062e578082015181840152602081019050610613565b5050505090500192600101926105f9565b9250505092600101926105df565b925050509250505060405180910390f35b610666612b0b565b60016040517f077da99d806abd13c9f15ece5398525119d11e11e9836b2ee7d23f6159ad87d481527f01485efa927f2ad41bff567eec88f32fb0a0f706588b4e41a8d587d008b7f875602082015283604082015260408160608360075afa82169150604060046040830137847f30644e72e131a029b85045b68181585d2833e84879b9709143e1f593f0000001036080820152604080820160606040840160075afa821691506040835160808360065afa8216915081151561072757600080fd5b50506000308583600060028110151561073c57fe5b6020020151604051602001808473ffffffffffffffffffffffffffffffffffffffff1673ffffffffffffffffffffffffffffffffffffffff16815260200183600260200280828437600081840152601f19601f82011690508083019250505082600260200280838360005b838110156107c25780820151818401526020810190506107a7565b505050509050019350505050604051602081830303815290604052805190602001206001900490507f30644e72e131a029b85045b68181585d2833e84879b9709143e1f593f0000001810690508381141515610886576040517f08c379a000000000000000000000000000000000000000000000000000000000815260040180806020018281038252601f8152602001807f496e76616c696420726567697374726174696f6e207369676e6174757265210081525060200191505060405180910390fd5b6000856040516020018082600260200280828437600081840152601f19601f8201169050808301925050509150506040516020818303038152906040528051906020012090506108d58161261f565b15151561094a576040517f08c379a000000000000000000000000000000000000000000000000000000000815260040180806020018281038252601b8152602001807f4163636f756e7420616c7265616479207265676973746572656421000000000081525060200191505060405180910390fd5b604060048451377f077da99d806abd13c9f15ece5398525119d11e11e9836b2ee7d23f6159ad87d46020840151527f01485efa927f2ad41bff567eec88f32fb0a0f706588b4e41a8d587d008b7f875602080850151015282600560008381526020019081526020016000209060026109c3929190612b39565b50505050505050565b6000826040516020018082600260200280828437600081840152601f19601f820116905080830192505050915050604051602081830303815290604052805190602001209050610a1b8161261f565b1515610a8f576040517f08c379a000000000000000000000000000000000000000000000000000000000815260040180806020018281038252601b8152602001807f4163636f756e74206e6f742079657420726567697374657265642e000000000081525060200191505060405180910390fd5b610a9881612838565b63ffffffff8211151515610b14576040517f08c379a000000000000000000000000000000000000000000000000000000000815260040180806020018281038252601c8152602001807f4465706f73697420616d6f756e74206f7574206f662072616e67652e0000000081525060200191505060405180910390fd5b610b1c612b89565b600560008381526020019081526020016000206000600281101515610b3d57fe5b60020201600280602002604051908101604052809291908260028015610b78576020028201915b815481526020019060010190808311610b64575b50505050509050600160405182518152602083015160208201527f077da99d806abd13c9f15ece5398525119d11e11e9836b2ee7d23f6159ad87d460408201527f01485efa927f2ad41bff567eec88f32fb0a0f706588b4e41a8d587d008b7f8756060820152846080820152604080820160606040840160075afa8216915060408360808360065afa82169150811515610c1157600080fd5b505080600560008481526020019081526020016000206000600281101515610c3557fe5b60020201906002610c47929190612bab565b506000809054906101000a900473ffffffffffffffffffffffffffffffffffffffff1673ffffffffffffffffffffffffffffffffffffffff166323b872dd3330866040518463ffffffff167c0100000000000000000000000000000000000000000000000000000000028152600401808473ffffffffffffffffffffffffffffffffffffffff1673ffffffffffffffffffffffffffffffffffffffff1681526020018373ffffffffffffffffffffffffffffffffffffffff1673ffffffffffffffffffffffffffffffffffffffff1681526020018281526020019350505050602060405180830381600087803b158015610d4057600080fd5b505af1158015610d54573d6000803e3d6000fd5b505050506040513d6020811015610d6a57600080fd5b81019080805190602001909291905050501515610def576040517f08c379a000000000000000000000000000000000000000000000000000000000815260040180806020018281038252601c8152602001807f5472616e736665722066726f6d2073656e646572206661696c65642e0000000081525060200191505060405180910390fd5b63ffffffff6000809054906101000a900473ffffffffffffffffffffffffffffffffffffffff1673ffffffffffffffffffffffffffffffffffffffff166370a08231306040518263ffffffff167c0100000000000000000000000000000000000000000000000000000000028152600401808273ffffffffffffffffffffffffffffffffffffffff1673ffffffffffffffffffffffffffffffffffffffff16815260200191505060206040518083038186803b158015610eae57600080fd5b505afa158015610ec2573d6000803e3d6000fd5b505050506040513d6020811015610ed857600080fd5b810190808051906020019092919050505011151515610f42576040517f08c379a0000000000000000000000000000000000000000000000000000000008152600401808060200182810382526028815260200180612d2b6028913960400191505060405180910390fd5b50505050565b60035481565b600083519050606081604051908082528060200260200182016040528015610f9057816020015b610f7d612beb565b815260200190600190039081610f755790505b509050606082604051908082528060200260200182016040528015610fcf57816020015b610fbc612beb565b815260200190600190039081610fb45790505b50905082885114151561104a576040517f08c379a000000000000000000000000000000000000000000000000000000000815260040180806020018281038252601c8152602001807f496e707574206172726179206c656e677468206d69736d61746368210000000081525060200191505060405180910390fd5b60008090505b83811015611441576000878281518110151561106857fe5b906020019060200201516040516020018082600260200280838360005b838110156110a0578082015181840152602081019050611085565b505050509050019150506040516020818303038152906040528051906020012090506110cb8161261f565b151561113f576040517f08c379a000000000000000000000000000000000000000000000000000000000815260040180806020018281038252601b8152602001807f4163636f756e74206e6f742079657420726567697374657265642e000000000081525060200191505060405180910390fd5b61114881612838565b611150612b0b565b60056000838152602001908152602001600020600280602002604051908101604052809291906000905b828210156111d3578382600202016002806020026040519081016040528092919082600280156111bf576020028201915b8154815260200190600101908083116111ab575b50505050508152602001906001019061117a565b5050505090506001604051825151815260208351015160208201526020850260208e010151516040820152602080860260208f01015101517f30644e72e131a029b85045b68181585d97816a916871ca8d3c208c16d87cfd470360608201526040835160808360065afa821691506020830151518152602080840151015160208201528b51604082015260208c01517f30644e72e131a029b85045b68181585d97816a916871ca8d3c208c16d87cfd470360608201526040602084015160808360065afa821691508115156112a757600080fd5b505080600560008481526020019081526020016000209060026112cb929190612b39565b5060046000838152602001908152602001600020600280602002604051908101604052809291906000905b8282101561134f5783826002020160028060200260405190810160405280929190826002801561133b576020028201915b815481526020019060010190808311611327575b5050505050815260200190600101906112f6565b5050505090506001604051825151815260208351015160208201526020850260208e010151516040820152602080860260208f01015101517f30644e72e131a029b85045b68181585d97816a916871ca8d3c208c16d87cfd4703606082015260406020860260208901015160808360065afa821691506020830151518152602080840151015160208201528b51604082015260208c01517f30644e72e131a029b85045b68181585d97816a916871ca8d3c208c16d87cfd4703606082015260406020860260208801015160808360065afa8216915081151561143057600080fd5b505050508080600101915050611050565b5060008090506000866040516020018082600260200280838360005b8381101561147857808201518184015260208101905061145d565b5050505090500191505060405160208183030381529060405280519060200120905060008090505b6007805490508110156114e457816007828154811015156114bd57fe5b906000526020600020015414156114d757600192506114e4565b80806001019150506114a0565b508115151561155b576040517f08c379a00000000000000000000000000000000000000000000000000000000081526004018080602001828103825260138152602001807f4e6f6e636520616c7265616479207365656e210000000000000000000000000081525060200191505060405180910390fd5b600160009054906101000a900473ffffffffffffffffffffffffffffffffffffffff1673ffffffffffffffffffffffffffffffffffffffff16631659e67d85858d8d8d6008548e8e6040518963ffffffff167c01000000000000000000000000000000000000000000000000000000000281526004018080602001806020018060200189600260200280838360005b838110156116055780820151818401526020810190506115ea565b505050509050018060200188815260200187600260200280838360005b8381101561163d578082015181840152602081019050611622565b505050509050018060200186810386528e8181518152602001915080516000925b818410156116a957828490602001906020020151600260200280838360005b8381101561169857808201518184015260208101905061167d565b50505050905001926001019261165e565b9250505086810385528d8181518152602001915080516000925b8184101561170e57828490602001906020020151600260200280838360005b838110156116fd5780820151818401526020810190506116e2565b5050505090500192600101926116c3565b9250505086810384528c8181518152602001915080516000925b8184101561177357828490602001906020020151600260200280838360005b83811015611762578082015181840152602081019050611747565b505050509050019260010192611728565b9250505086810383528a8181518152602001915080516000925b818410156117d857828490602001906020020151600260200280838360005b838110156117c75780820151818401526020810190506117ac565b50505050905001926001019261178d565b92505050868103825287818151815260200191508051906020019080838360005b838110156118145780820151818401526020810190506117f9565b50505050905090810190601f1680156118415780820380516001836020036101000a031916815260200191505b509d505050505050505050505050505060206040518083038186803b15801561186957600080fd5b505afa15801561187d573d6000803e3d6000fd5b505050506040513d602081101561189357600080fd5b810190808051906020019092919050505015156118fb576040517f08c379a0000000000000000000000000000000000000000000000000000000008152600401808060200182810382526023815260200180612d536023913960400191505060405180910390fd5b60078190806001815401808255809150509060018203906000526020600020016000909192909190915055507f4ef6ed22b1551aeadeb80e67bb3a38788491e81527cc70a85bff611e9e51e18a8860405180806020018281038252838181518152602001915080516000925b818410156119b257828490602001906020020151600260200280838360005b838110156119a1578082015181840152602081019050611986565b505050509050019260010192611967565b925050509250505060405180910390a150505050505050505050565b6000846040516020018082600260200280838360005b838110156119ff5780820151818401526020810190506119e4565b50505050905001915050604051602081830303815290604052805190602001209050611a2a8161261f565b1515611a9e576040517f08c379a000000000000000000000000000000000000000000000000000000000815260040180806020018281038252601b8152602001807f4163636f756e74206e6f742079657420726567697374657265642e000000000081525060200191505060405180910390fd5b611aa781612838565b83600011158015611abc575063ffffffff8411155b1515611b30576040517f08c379a000000000000000000000000000000000000000000000000000000000815260040180806020018281038252601d8152602001807f5472616e7366657220616d6f756e74206f7574206f662072616e67652e00000081525060200191505060405180910390fd5b611b38612b0b565b60056000838152602001908152602001600020600280602002604051908101604052809291906000905b82821015611bbb57838260020201600280602002604051908101604052809291908260028015611ba7576020028201915b815481526020019060010190808311611b93575b505050505081526020019060010190611b62565b5050505090506001604051825151815260208351015160208201527f077da99d806abd13c9f15ece5398525119d11e11e9836b2ee7d23f6159ad87d460408201527f01485efa927f2ad41bff567eec88f32fb0a0f706588b4e41a8d587d008b7f8756060820152867f30644e72e131a029b85045b68181585d2833e84879b9709143e1f593f0000001036080820152604080820160606040840160075afa821691506040835160808360065afa82169150811515611c7857600080fd5b50508060056000848152602001908152602001600020906002611c9c929190612b39565b5060046000838152602001908152602001600020600280602002604051908101604052809291906000905b82821015611d2057838260020201600280602002604051908101604052809291908260028015611d0c576020028201915b815481526020019060010190808311611cf8575b505050505081526020019060010190611cc7565b5050505090506001604051825151815260208351015160208201527f077da99d806abd13c9f15ece5398525119d11e11e9836b2ee7d23f6159ad87d460408201527f01485efa927f2ad41bff567eec88f32fb0a0f706588b4e41a8d587d008b7f8756060820152867f30644e72e131a029b85045b68181585d2833e84879b9709143e1f593f0000001036080820152604080820160606040840160075afa821691506040835160808360065afa82169150811515611ddd57600080fd5b505060008090506000856040516020018082600260200280838360005b83811015611e15578082015181840152602081019050611dfa565b5050505090500191505060405160208183030381529060405280519060200120905060008090505b600780549050811015611e815781600782815481101515611e5a57fe5b90600052602060002001541415611e745760019250611e81565b8080600101915050611e3d565b5081151515611ef8576040517f08c379a00000000000000000000000000000000000000000000000000000000081526004018080602001828103825260138152602001807f4e6f6e636520616c7265616479207365656e210000000000000000000000000081525060200191505060405180910390fd5b600260009054906101000a900473ffffffffffffffffffffffffffffffffffffffff1673ffffffffffffffffffffffffffffffffffffffff16636e1a999e846000600281101515611f4557fe5b6020020151856001600281101515611f5957fe5b60200201518b8b6008548c338d6040518963ffffffff167c01000000000000000000000000000000000000000000000000000000000281526004018089600260200280838360005b83811015611fbc578082015181840152602081019050611fa1565b5050505090500188600260200280838360005b83811015611fea578082015181840152602081019050611fcf565b5050505090500187600260200280838360005b83811015612018578082015181840152602081019050611ffd565b5050505090500186815260200185815260200184600260200280838360005b83811015612052578082015181840152602081019050612037565b505050509050018373ffffffffffffffffffffffffffffffffffffffff1673ffffffffffffffffffffffffffffffffffffffff16815260200180602001828103825283818151815260200191508051906020019080838360005b838110156120c75780820151818401526020810190506120ac565b50505050905090810190601f1680156120f45780820380516001836020036101000a031916815260200191505b50995050505050505050505060206040518083038186803b15801561211857600080fd5b505afa15801561212c573d6000803e3d6000fd5b505050506040513d602081101561214257600080fd5b810190808051906020019092919050505015156121c7576040517f08c379a000000000000000000000000000000000000000000000000000000000815260040180806020018281038252601f8152602001807f4275726e2070726f6f6620766572696669636174696f6e206661696c6564210081525060200191505060405180910390fd5b6000809054906101000a900473ffffffffffffffffffffffffffffffffffffffff1673ffffffffffffffffffffffffffffffffffffffff1663a9059cbb33896040518363ffffffff167c0100000000000000000000000000000000000000000000000000000000028152600401808373ffffffffffffffffffffffffffffffffffffffff1673ffffffffffffffffffffffffffffffffffffffff16815260200182815260200192505050602060405180830381600087803b15801561228b57600080fd5b505af115801561229f573d6000803e3d6000fd5b505050506040513d60208110156122b557600080fd5b8101908080519060200190929190505050151561231d576040517f08c379a0000000000000000000000000000000000000000000000000000000008152600401808060200182810382526035815260200180612d766035913960400191505060405180910390fd5b60078190806001815401808255809150509060018203906000526020600020016000909192909190915055505050505050505050565b606060008484905090508060405190808252806020026020018201604052801561239757816020015b612384612c0d565b81526020019060019003908161237c5790505b50915060008090505b8181101561261657600086868381811015156123b857fe5b9050604002016040516020018082600260200280828437600081840152601f19601f82011690508083019250505091505060405160208183030381529060405280519060200120905060046000828152602001908152602001600020600280602002604051908101604052809291906000905b8282101561248457838260020201600280602002604051908101604052809291908260028015612470576020028201915b81548152602001906001019080831161245c575b50505050508152602001906001019061242b565b50505050848381518110151561249657fe5b906020019060200201819052508460066000838152602001908152602001600020541015612608576124c6612b0b565b60056000838152602001908152602001600020600280602002604051908101604052809291906000905b8282101561254957838260020201600280602002604051908101604052809291908260028015612535576020028201915b815481526020019060010190808311612521575b5050505050815260200190600101906124f0565b5050505090506001604051825151815260208351015160208201526020850260208801015151516040820152602080860260208901015151015160608201526040602086026020890101515160808360065afa82169150602083015151815260208084015101516020820152602080860260208901015101515160408201526020806020870260208a0101510151015160608201526040602080870260208a010151015160808360065afa8216915081151561260457600080fd5b5050505b5080806001019150506123a0565b50509392505050565b60008060010260046000848152602001908152602001600020600060028110151561264657fe5b60020201600060028110151561265857fe5b015414158061269f5750600060010260046000848152602001908152602001600020600060028110151561268857fe5b60020201600160028110151561269a57fe5b015414155b806126e2575060006001026004600084815260200190815260200160002060016002811015156126cb57fe5b6002020160006002811015156126dd57fe5b015414155b806127255750600060010260046000848152602001908152602001600020600160028110151561270e57fe5b60020201600160028110151561272057fe5b015414155b806127685750600060010260056000848152602001908152602001600020600060028110151561275157fe5b60020201600060028110151561276357fe5b015414155b806127ab5750600060010260056000848152602001908152602001600020600060028110151561279457fe5b6002020160016002811015156127a657fe5b015414155b806127ee575060006001026005600084815260200190815260200160002060016002811015156127d757fe5b6002020160006002811015156127e957fe5b015414155b806128315750600060010260056000848152602001908152602001600020600160028110151561281a57fe5b60020201600160028110151561282c57fe5b015414155b9050919050565b60006003544281151561284757fe5b0490508060066000848152602001908152602001600020541015612ae75761286d612c3b565b604080519081016040528060046000868152602001908152602001600020600280602002604051908101604052809291906000905b828210156128fb578382600202016002806020026040519081016040528092919082600280156128e7576020028201915b8154815260200190600101908083116128d3575b5050505050815260200190600101906128a2565b50505050815260200160056000868152602001908152602001600020600280602002604051908101604052809291906000905b8282101561298757838260020201600280602002604051908101604052809291908260028015612973576020028201915b81548152602001906001019080831161295f575b50505050508152602001906001019061292e565b50505050815250905060016040518251515181526020835151015160208201526020830151515160408201526020808401515101516060820152604083515160808360065afa82169150602083510151518152602080845101510151602082015260208084015101515160408201526020806020850151015101516060820152604060208451015160808360065afa82169150811515612a2657600080fd5b5050806000600281101515612a3757fe5b602002015160046000858152602001908152602001600020906002612a5d929190612b39565b50604080519081016040528060408051908101604052806000600102815260200160006001028152508152602001604080519081016040528060006001028152602001600060010281525081525060056000858152602001908152602001600020906002612acc929190612b39565b50816006600085815260200190815260200160002081905550505b806008541015612b07578060088190555060076000612b069190612c6a565b5b5050565b6080604051908101604052806002905b612b23612beb565b815260200190600190039081612b1b5790505090565b82600280028101928215612b78579160200282015b82811115612b7757825182906002612b67929190612c8b565b5091602001919060020190612b4e565b5b509050612b859190612ccb565b5090565b6040805190810160405280600290602082028038833980820191505090505090565b8260028101928215612bda579160200282015b82811115612bd9578251825591602001919060010190612bbe565b5b509050612be79190612cf7565b5090565b6040805190810160405280600290602082028038833980820191505090505090565b6080604051908101604052806002905b612c25612beb565b815260200190600190039081612c1d5790505090565b610100604051908101604052806002905b612c54612c0d565b815260200190600190039081612c4c5790505090565b5080546000825590600052602060002090810190612c889190612cf7565b50565b8260028101928215612cba579160200282015b82811115612cb9578251825591602001919060010190612c9e565b5b509050612cc79190612cf7565b5090565b612cf491905b80821115612cf05760008181612ce79190612d1c565b50600201612cd1565b5090565b90565b612d1991905b80821115612d15576000816000905550600101612cfd565b5090565b90565b50600081556001016000905556fe46756e642070757368657320636f6e74726163742070617374206d6178696d756d2076616c75652e5472616e736665722070726f6f6620766572696669636174696f6e206661696c656421546869732073686f756c646e2774206661696c2e2e2e20536f6d657468696e672077656e74207365766572656c792077726f6e672ea165627a7a72305820078599fc3ea89d68ba6335b2d234075f0b8a35574107f4a101829388602e8fb40029",
  "source": "pragma solidity 0.5.4;\n\nimport './ZetherVerifier.sol';\nimport './BurnVerifier.sol';\nimport './CashToken.sol';\n\ncontract ZSC {\n    CashToken coin;\n    ZetherVerifier zetherverifier;\n    BurnVerifier burnverifier;\n    uint256 public epochLength; // now in milliseconds.\n\n    uint256 constant MAX = 4294967295; // 2^32 - 1 // no sload for constants...!\n    mapping(bytes32 => bytes32[2][2]) acc; // main account mapping\n    mapping(bytes32 => bytes32[2][2]) pTransfers; // storage for pending transfers\n    mapping(bytes32 => uint256) lastRollOver;\n    bytes32[] nonceSet; // would be more natural to use a mapping, but they can't be deleted / reset!\n    uint256 lastGlobalUpdate = 0; // will be also used as a proxy for \"current epoch\", seeing as rollovers will be anticipated\n    // not implementing account locking for now...revisit\n\n    event TransferOccurred(bytes32[2][] parties); // all parties will be notified, client can determine whether it was real or not.\n    // arg is still necessary for transfers---not even so much to know when you received a transfer, as to know when you got rolled over.\n\n    constructor(address _coin, address _zether, address _burn, uint256 _epochLength) public {\n        // epoch length, like block.time, is in _seconds_. 4 is the minimum!!! (To allow a withdrawal to go through.)\n        coin = CashToken(_coin);\n        zetherverifier = ZetherVerifier(_zether);\n        burnverifier = BurnVerifier(_burn);\n        epochLength = _epochLength;\n    }\n\n    function simulateAccounts(bytes32[2][] calldata y, uint256 epoch) view external returns (bytes32[2][2][] memory accounts) {\n        // all of this could be assembled locally by querying `acc` and `pTransfers` (and `lastRollOver`) and assembling things by hand\n        // turns out this is extremely _slow_ though, because of the ~ 4 * N queries which must be made. turns out it's much faster\n        // to simply move the entire process into a contract method, and in fact this allows us to make the above 3 private\n        uint256 size = y.length;\n        accounts = new bytes32[2][2][](size);\n        for (uint256 i = 0; i < size; i++) {\n            bytes32 yHash = keccak256(abi.encode(y[i]));\n            accounts[i] = acc[yHash];\n            if (lastRollOver[yHash] < epoch) {\n                bytes32[2][2] memory scratch = pTransfers[yHash];\n                assembly {\n                    let result := 1\n                    let m := mload(0x40)\n                    mstore(m, mload(mload(scratch)))\n                    mstore(add(m, 0x20), mload(add(mload(scratch), 0x20)))\n                    mstore(add(m, 0x40), mload(mload(mload(add(add(accounts, 0x20), mul(i, 0x20))))))\n                    mstore(add(m, 0x60), mload(add(mload(mload(add(add(accounts, 0x20), mul(i, 0x20)))), 0x20)))\n                    result := and(result, staticcall(gas, 0x06, m, 0x80, mload(mload(add(add(accounts, 0x20), mul(i, 0x20)))), 0x40))\n                    mstore(m, mload(mload(add(scratch, 0x20))))\n                    mstore(add(m, 0x20), mload(add(mload(add(scratch, 0x20)), 0x20)))\n                    mstore(add(m, 0x40), mload(mload(add(mload(add(add(accounts, 0x20), mul(i, 0x20))), 0x20))))\n                    mstore(add(m, 0x60), mload(add(mload(add(mload(add(add(accounts, 0x20), mul(i, 0x20))), 0x20)), 0x20)))\n                    result := and(result, staticcall(gas, 0x06, m, 0x80, mload(add(mload(add(add(accounts, 0x20), mul(i, 0x20))), 0x20)), 0x40))\n                    if iszero(result) {\n                        revert(0, 0)\n                    }\n                }\n            }\n        }\n    }\n\n    function rollOver(bytes32 yHash) internal {\n        uint256 e = block.timestamp / epochLength;\n        if (lastRollOver[yHash] < e) {\n            bytes32[2][2][2] memory scratch = [acc[yHash], pTransfers[yHash]];\n            assembly {\n                let result := 1\n                let m := mload(0x40)\n                mstore(m, mload(mload(mload(scratch))))\n                mstore(add(m, 0x20), mload(add(mload(mload(scratch)), 0x20)))\n                mstore(add(m, 0x40), mload(mload(mload(add(scratch, 0x20)))))\n                mstore(add(m, 0x60), mload(add(mload(mload(add(scratch, 0x20))), 0x20)))\n                result := and(result, staticcall(gas, 0x06, m, 0x80, mload(mload(scratch)), 0x40))\n                mstore(m, mload(mload(add(mload(scratch), 0x20))))\n                mstore(add(m, 0x20), mload(add(mload(add(mload(scratch), 0x20)), 0x20)))\n                mstore(add(m, 0x40), mload(mload(add(mload(add(scratch, 0x20)), 0x20))))\n                mstore(add(m, 0x60), mload(add(mload(add(mload(add(scratch, 0x20)), 0x20)), 0x20)))\n                result := and(result, staticcall(gas, 0x06, m, 0x80, mload(add(mload(scratch), 0x20)), 0x40))\n                if iszero(result) {\n                    revert(0, 0)\n                }\n            }\n            acc[yHash] = scratch[0];\n            pTransfers[yHash] = [[bytes32(0), bytes32(0)], [bytes32(0), bytes32(0)]];\n            lastRollOver[yHash] = e;\n        }\n        if (lastGlobalUpdate < e) {\n            lastGlobalUpdate = e;\n            delete nonceSet;\n        }\n    }\n\n    function registered(bytes32 yHash) internal returns (bool) {\n        return acc[yHash][0][0] != 0 || acc[yHash][0][1] != 0 || acc[yHash][1][0] != 0 || acc[yHash][1][1] != 0 || pTransfers[yHash][0][0] != 0 || pTransfers[yHash][0][1] != 0 || pTransfers[yHash][1][0] != 0 || pTransfers[yHash][1][1] != 0;\n    }\n\n    function register(bytes32[2] calldata y, uint256 c, uint256 s) external {\n        // allows y to participate. c, s should be a Schnorr signature on \"this\"\n        bytes32[2][2] memory scratch;\n        assembly {\n            let result := 1\n            let m := mload(0x40)\n            mstore(m, 0x077da99d806abd13c9f15ece5398525119d11e11e9836b2ee7d23f6159ad87d4)\n            mstore(add(m, 0x20), 0x01485efa927f2ad41bff567eec88f32fb0a0f706588b4e41a8d587d008b7f875)\n            mstore(add(m, 0x40), s)\n            result := and(result, staticcall(gas, 0x07, m, 0x60, m, 0x40)) // m := g^s\n            calldatacopy(add(m, 0x40), 0x04, 0x40)\n            mstore(add(m, 0x80), sub(0x30644e72e131a029b85045b68181585d2833e84879b9709143e1f593f0000001, c)) // negate c in F_q\n            result := and(result, staticcall(gas, 0x07, add(m, 0x40), 0x60, add(m, 0x40), 0x40)) // m := g^s\n            result := and(result, staticcall(gas, 0x06, m, 0x80, mload(scratch), 0x40)) // K := g^s * y^-c\n            if iszero(result) {\n                revert(0, 0)\n            }\n        }\n        uint256 challenge = uint256(keccak256(abi.encode(address(this), y, scratch[0])));\n        assembly {\n            challenge := mod(challenge, 0x30644e72e131a029b85045b68181585d2833e84879b9709143e1f593f0000001) // better way...?\n        }\n        require(challenge == c, \"Invalid registration signature!\");\n        bytes32 yHash = keccak256(abi.encode(y));\n        require(!registered(yHash), \"Account already registered!\");\n        assembly {\n            calldatacopy(mload(scratch), 0x04, 0x40) // scratch[0] = y\n            mstore(mload(add(scratch, 0x20)), 0x077da99d806abd13c9f15ece5398525119d11e11e9836b2ee7d23f6159ad87d4)\n            mstore(add(mload(add(scratch, 0x20)), 0x20), 0x01485efa927f2ad41bff567eec88f32fb0a0f706588b4e41a8d587d008b7f875)\n        }\n        pTransfers[yHash] = scratch; // register y. pTransfers[y] = [y, g]\n    }\n\n    function fund(bytes32[2] calldata y, uint256 bTransfer) external {\n        bytes32 yHash = keccak256(abi.encode(y));\n        require(registered(yHash), \"Account not yet registered.\");\n        rollOver(yHash);\n\n        require(bTransfer <= MAX, \"Deposit amount out of range.\"); // uint, so other way not necessary?\n\n        bytes32[2] memory scratch = pTransfers[yHash][0];\n        assembly {\n            let result := 1\n            let m := mload(0x40)\n            mstore(m, mload(scratch))\n            mstore(add(m, 0x20), mload(add(scratch, 0x20)))\n            mstore(add(m, 0x40), 0x077da99d806abd13c9f15ece5398525119d11e11e9836b2ee7d23f6159ad87d4)\n            mstore(add(m, 0x60), 0x01485efa927f2ad41bff567eec88f32fb0a0f706588b4e41a8d587d008b7f875)\n            mstore(add(m, 0x80), bTransfer) // b will hopefully be a primitive / literal and not a pointer / address?\n            result := and(result, staticcall(gas, 0x07, add(m, 0x40), 0x60, add(m, 0x40), 0x40))\n            result := and(result, staticcall(gas, 0x06, m, 0x80, scratch, 0x40))\n            if iszero(result) {\n                revert(0, 0)\n            }\n        }\n        pTransfers[yHash][0] = scratch;\n        require(coin.transferFrom(msg.sender, address(this), bTransfer), \"Transfer from sender failed.\");\n        require(coin.balanceOf(address(this)) <= MAX, \"Fund pushes contract past maximum value.\");\n    }\n\n    function transfer(bytes32[2][] memory C, bytes32[2] memory D, bytes32[2][] memory y, bytes32[2] memory u, bytes memory proof) public {\n        uint256 size = y.length;\n        bytes32[2][] memory CLn = new bytes32[2][](size);\n        bytes32[2][] memory CRn = new bytes32[2][](size);\n        require(C.length == size, \"Input array length mismatch!\");\n\n        for (uint256 i = 0; i < size; i++) {\n            bytes32 yHash = keccak256(abi.encode(y[i]));\n            require(registered(yHash), \"Account not yet registered.\");\n            rollOver(yHash);\n            bytes32[2][2] memory scratch = pTransfers[yHash];\n            assembly {\n                let result := 1\n                let m := mload(0x40)\n                mstore(m, mload(mload(scratch)))\n                mstore(add(m, 0x20), mload(add(mload(scratch), 0x20)))\n                // calldatacopy(add(m, 0x40), add(0x104, mul(i, 0x40)), 0x40) // copy C[i] onto running block\n                // having to change external --> public to avoid stacktoodeep\n                // as a result, have to use the below two lines instead of the above single line.\n                mstore(add(m, 0x40), mload(mload(add(add(C, 0x20), mul(i, 0x20)))))\n                mstore(add(m, 0x60), sub(0x30644e72e131a029b85045b68181585d97816a916871ca8d3c208c16d87cfd47, mload(add(mload(add(add(C, 0x20), mul(i, 0x20))), 0x20))))\n                result := and(result, staticcall(gas, 0x06, m, 0x80, mload(scratch), 0x40))\n                mstore(m, mload(mload(add(scratch, 0x20))))\n                mstore(add(m, 0x20), mload(add(mload(add(scratch, 0x20)), 0x20)))\n                // calldatacopy(add(m, 0x40), 0x24, 0x40) // copy R onto running block\n                mstore(add(m, 0x40), mload(D))\n                mstore(add(m, 0x60), sub(0x30644e72e131a029b85045b68181585d97816a916871ca8d3c208c16d87cfd47, mload(add(D, 0x20)))) // invert!\n                result := and(result, staticcall(gas, 0x06, m, 0x80, mload(add(scratch, 0x20)), 0x40))\n                if iszero(result) {\n                    revert(0, 0)\n                }\n            }\n            pTransfers[yHash] = scratch; // credit / debit / neither y's account.\n            scratch = acc[yHash];\n            assembly {\n                let result := 1\n                let m := mload(0x40)\n                mstore(m, mload(mload(scratch)))\n                mstore(add(m, 0x20), mload(add(mload(scratch), 0x20)))\n                mstore(add(m, 0x40), mload(mload(add(add(C, 0x20), mul(i, 0x20)))))\n                mstore(add(m, 0x60), sub(0x30644e72e131a029b85045b68181585d97816a916871ca8d3c208c16d87cfd47, mload(add(mload(add(add(C, 0x20), mul(i, 0x20))), 0x20))))\n                result := and(result, staticcall(gas, 0x06, m, 0x80, mload(add(add(CLn, 0x20), mul(i, 0x20))), 0x40))\n                mstore(m, mload(mload(add(scratch, 0x20))))\n                mstore(add(m, 0x20), mload(add(mload(add(scratch, 0x20)), 0x20)))\n                mstore(add(m, 0x40), mload(D))\n                mstore(add(m, 0x60), sub(0x30644e72e131a029b85045b68181585d97816a916871ca8d3c208c16d87cfd47, mload(add(D, 0x20))))\n                result := and(result, staticcall(gas, 0x06, m, 0x80, mload(add(add(CRn, 0x20), mul(i, 0x20))), 0x40))\n                if iszero(result) {\n                    revert(0, 0)\n                }\n            }\n        }\n\n        bool seen = false;\n        bytes32 uHash = keccak256(abi.encode(u));\n        for (uint256 i = 0; i < nonceSet.length; i++) {\n            if (nonceSet[i] == uHash) {\n                seen = true;\n                break;\n            }\n        }\n        require(!seen, \"Nonce already seen!\");\n        require(zetherverifier.verifyTransfer(CLn, CRn, C, D, y, lastGlobalUpdate, u, proof), \"Transfer proof verification failed!\");\n\n        nonceSet.push(uHash);\n        emit TransferOccurred(y);\n    }\n\n    function burn(bytes32[2] memory y, uint256 bTransfer, bytes32[2] memory u, bytes memory proof) public {\n        bytes32 yHash = keccak256(abi.encode(y));\n        require(registered(yHash), \"Account not yet registered.\");\n        rollOver(yHash);\n\n        require(0 <= bTransfer && bTransfer <= MAX, \"Transfer amount out of range.\");\n        bytes32[2][2] memory scratch = pTransfers[yHash]; // could technically use sload, but... let's not go there.\n        assembly {\n            let result := 1\n            let m := mload(0x40)\n            mstore(m, mload(mload(scratch)))\n            mstore(add(m, 0x20), mload(add(mload(scratch), 0x20)))\n            // load bulletproof generator here\n            mstore(add(m, 0x40), 0x077da99d806abd13c9f15ece5398525119d11e11e9836b2ee7d23f6159ad87d4) // g_x\n            mstore(add(m, 0x60), 0x01485efa927f2ad41bff567eec88f32fb0a0f706588b4e41a8d587d008b7f875) // g_y\n            mstore(add(m, 0x80), sub(0x30644e72e131a029b85045b68181585d2833e84879b9709143e1f593f0000001, bTransfer))\n            result := and(result, staticcall(gas, 0x07, add(m, 0x40), 0x60, add(m, 0x40), 0x40))\n            result := and(result, staticcall(gas, 0x06, m, 0x80, mload(scratch), 0x40)) // scratch[0] = acc[yHash][0] * g ^ -b, scratch[1] doesn't change\n            if iszero(result) {\n                revert(0, 0)\n            }\n        }\n        pTransfers[yHash] = scratch; // debit y's balance\n        scratch = acc[yHash]; // simulate debit of acc---just for use in verification, won't be applied\n        assembly {\n            let result := 1\n            let m := mload(0x40)\n            mstore(m, mload(mload(scratch)))\n            mstore(add(m, 0x20), mload(add(mload(scratch), 0x20)))\n            mstore(add(m, 0x40), 0x077da99d806abd13c9f15ece5398525119d11e11e9836b2ee7d23f6159ad87d4) // g_x\n            mstore(add(m, 0x60), 0x01485efa927f2ad41bff567eec88f32fb0a0f706588b4e41a8d587d008b7f875) // g_y\n            mstore(add(m, 0x80), sub(0x30644e72e131a029b85045b68181585d2833e84879b9709143e1f593f0000001, bTransfer))\n            result := and(result, staticcall(gas, 0x07, add(m, 0x40), 0x60, add(m, 0x40), 0x40))\n            result := and(result, staticcall(gas, 0x06, m, 0x80, mload(scratch), 0x40)) // scratch[0] = acc[yHash][0] * g ^ -b, scratch[1] doesn't change\n            if iszero(result) {\n                revert(0, 0)\n            }\n        }\n        bool seen = false;\n        bytes32 uHash = keccak256(abi.encode(u));\n        for (uint256 i = 0; i < nonceSet.length; i++) {\n            if (nonceSet[i] == uHash) { // does this have to repeat the sload for each iteration?!? revisit\n                seen = true;\n                break;\n            }\n        }\n        require(!seen, \"Nonce already seen!\");\n        require(burnverifier.verifyBurn(scratch[0], scratch[1], y, bTransfer, lastGlobalUpdate, u, msg.sender, proof), \"Burn proof verification failed!\");\n        require(coin.transfer(msg.sender, bTransfer), \"This shouldn't fail... Something went severely wrong.\");\n        nonceSet.push(uHash);\n    }\n}\n",
  "sourcePath": "/Users/benediamond/anonymous-zether/packages/protocol/contracts/ZSC.sol",
  "compiler": {
    "name": "solc",
    "version": "0.5.4+commit.9549d8ff.Emscripten.clang"
  },
  "schemaVersion": "3.0.19",
  "updatedAt": "2020-01-11T00:58:17.539Z",
  "devdoc": {
    "methods": {}
  },
  "userdoc": {
    "methods": {}
  }
}