{
  "contractName": "ZSC",
  "abi": [
    {
      "constant": true,
      "inputs": [],
      "name": "epochLength",
      "outputs": [
        {
          "name": "",
          "type": "uint256"
        }
      ],
      "payable": false,
      "stateMutability": "view",
      "type": "function"
    },
    {
      "inputs": [
        {
          "name": "_coin",
          "type": "address"
        },
        {
          "name": "_zether",
          "type": "address"
        },
        {
          "name": "_burn",
          "type": "address"
        },
        {
          "name": "_epochLength",
          "type": "uint256"
        }
      ],
      "payable": false,
      "stateMutability": "nonpayable",
      "type": "constructor"
    },
    {
      "anonymous": false,
      "inputs": [
        {
          "indexed": false,
          "name": "parties",
          "type": "bytes32[2][]"
        }
      ],
      "name": "TransferOccurred",
      "type": "event"
    },
    {
      "constant": true,
      "inputs": [
        {
          "name": "y",
          "type": "bytes32[2][]"
        },
        {
          "name": "epoch",
          "type": "uint256"
        }
      ],
      "name": "simulateAccounts",
      "outputs": [
        {
          "name": "accounts",
          "type": "bytes32[2][2][]"
        }
      ],
      "payable": false,
      "stateMutability": "view",
      "type": "function"
    },
    {
      "constant": false,
      "inputs": [
        {
          "name": "y",
          "type": "bytes32[2]"
        },
        {
          "name": "bTransfer",
          "type": "uint256"
        }
      ],
      "name": "fund",
      "outputs": [],
      "payable": false,
      "stateMutability": "nonpayable",
      "type": "function"
    },
    {
      "constant": false,
      "inputs": [
        {
          "name": "C",
          "type": "bytes32[2][]"
        },
        {
          "name": "D",
          "type": "bytes32[2]"
        },
        {
          "name": "y",
          "type": "bytes32[2][]"
        },
        {
          "name": "u",
          "type": "bytes32[2]"
        },
        {
          "name": "proof",
          "type": "bytes"
        }
      ],
      "name": "transfer",
      "outputs": [],
      "payable": false,
      "stateMutability": "nonpayable",
      "type": "function"
    },
    {
      "constant": false,
      "inputs": [
        {
          "name": "y",
          "type": "bytes32[2]"
        },
        {
          "name": "bTransfer",
          "type": "uint256"
        },
        {
          "name": "u",
          "type": "bytes32[2]"
        },
        {
          "name": "proof",
          "type": "bytes"
        }
      ],
      "name": "burn",
      "outputs": [],
      "payable": false,
      "stateMutability": "nonpayable",
      "type": "function"
    }
  ],
  "bytecode": "0x6080604052600060085534801561001557600080fd5b506040516080806127cb8339810180604052608081101561003557600080fd5b8101908080519060200190929190805190602001909291908051906020019092919080519060200190929190505050836000806101000a81548173ffffffffffffffffffffffffffffffffffffffff021916908373ffffffffffffffffffffffffffffffffffffffff16021790555082600160006101000a81548173ffffffffffffffffffffffffffffffffffffffff021916908373ffffffffffffffffffffffffffffffffffffffff16021790555081600260006101000a81548173ffffffffffffffffffffffffffffffffffffffff021916908373ffffffffffffffffffffffffffffffffffffffff160217905550806003819055505050505061268b806101406000396000f3fe608060405234801561001057600080fd5b5060043610610074576000357c0100000000000000000000000000000000000000000000000000000000900480635464befb1461007957806357d775f8146100b15780635ec7ccfd146100cf57806373663b5f146103ac5780637ea9712f146104f3575b600080fd5b6100af6004803603606081101561008f57600080fd5b810190808060400190919291929080359060200190929190505050610611565b005b6100b9610b10565b6040518082815260200191505060405180910390f35b6103aa600480360360e08110156100e557600080fd5b810190808035906020019064010000000081111561010257600080fd5b82018360208201111561011457600080fd5b8035906020019184604083028401116401000000008311171561013657600080fd5b9190808060200260200160405190810160405280939291908181526020016000905b828210156101af578484839050604002016002806020026040519081016040528092919082600260200280828437600081840152601f19601f82011690508083019250505050505081526020019060010190610158565b5050505050919291929080604001906002806020026040519081016040528092919082600260200280828437600081840152601f19601f82011690508083019250505050505091929192908035906020019064010000000081111561021357600080fd5b82018360208201111561022557600080fd5b8035906020019184604083028401116401000000008311171561024757600080fd5b9190808060200260200160405190810160405280939291908181526020016000905b828210156102c0578484839050604002016002806020026040519081016040528092919082600260200280828437600081840152601f19601f82011690508083019250505050505081526020019060010190610269565b5050505050919291929080604001906002806020026040519081016040528092919082600260200280828437600081840152601f19601f82011690508083019250505050505091929192908035906020019064010000000081111561032457600080fd5b82018360208201111561033657600080fd5b8035906020019184600183028401116401000000008311171561035857600080fd5b91908080601f016020809104026020016040519081016040528093929190818152602001838380828437600081840152601f19601f820116905080830192505050505050509192919290505050610b16565b005b6104f1600480360360c08110156103c257600080fd5b8101908080604001906002806020026040519081016040528092919082600260200280828437600081840152601f19601f82011690508083019250505050505091929192908035906020019092919080604001906002806020026040519081016040528092919082600260200280828437600081840152601f19601f82011690508083019250505050505091929192908035906020019064010000000081111561046b57600080fd5b82018360208201111561047d57600080fd5b8035906020019184600183028401116401000000008311171561049f57600080fd5b91908080601f016020809104026020016040519081016040528093929190818152602001838380828437600081840152601f19601f820116905080830192505050505050509192919290505050611519565b005b6105746004803603604081101561050957600080fd5b810190808035906020019064010000000081111561052657600080fd5b82018360208201111561053857600080fd5b8035906020019184604083028401116401000000008311171561055a57600080fd5b909192939192939080359060200190929190505050611e21565b60405180806020018281038252838181518152602001915080516000925b818410156106005782849060200190602002015160026000925b818410156105f25782846020020151600260200280838360005b838110156105e15780820151818401526020810190506105c6565b5050505090500192600101926105ac565b925050509260010192610592565b925050509250505060405180910390f35b6000826040516020018082600260200280828437600081840152601f19601f820116905080830192505050915050604051602081830303815290604052805190602001209050610660816120ed565b63ffffffff82111515156106dc576040517f08c379a000000000000000000000000000000000000000000000000000000000815260040180806020018281038252601c8152602001807f4465706f73697420616d6f756e74206f7574206f662072616e67652e0000000081525060200191505060405180910390fd5b6106e46123c0565b60056000838152602001908152602001600020600060028110151561070557fe5b60020201600280602002604051908101604052809291908260028015610740576020028201915b81548152602001906001019080831161072c575b50505050509050600160405182518152602083015160208201527f077da99d806abd13c9f15ece5398525119d11e11e9836b2ee7d23f6159ad87d460408201527f01485efa927f2ad41bff567eec88f32fb0a0f706588b4e41a8d587d008b7f8756060820152846080820152604080820160606040840160075afa8216915060408360808360065afa821691508115156107d957600080fd5b5050806005600084815260200190815260200160002060006002811015156107fd57fe5b6002020190600261080f9291906123e2565b506000809054906101000a900473ffffffffffffffffffffffffffffffffffffffff1673ffffffffffffffffffffffffffffffffffffffff166323b872dd3330866040518463ffffffff167c0100000000000000000000000000000000000000000000000000000000028152600401808473ffffffffffffffffffffffffffffffffffffffff1673ffffffffffffffffffffffffffffffffffffffff1681526020018373ffffffffffffffffffffffffffffffffffffffff1673ffffffffffffffffffffffffffffffffffffffff1681526020018281526020019350505050602060405180830381600087803b15801561090857600080fd5b505af115801561091c573d6000803e3d6000fd5b505050506040513d602081101561093257600080fd5b810190808051906020019092919050505015156109b7576040517f08c379a000000000000000000000000000000000000000000000000000000000815260040180806020018281038252601c8152602001807f5472616e736665722066726f6d2073656e646572206661696c65642e0000000081525060200191505060405180910390fd5b63ffffffff6000809054906101000a900473ffffffffffffffffffffffffffffffffffffffff1673ffffffffffffffffffffffffffffffffffffffff166370a08231306040518263ffffffff167c0100000000000000000000000000000000000000000000000000000000028152600401808273ffffffffffffffffffffffffffffffffffffffff1673ffffffffffffffffffffffffffffffffffffffff16815260200191505060206040518083038186803b158015610a7657600080fd5b505afa158015610a8a573d6000803e3d6000fd5b505050506040513d6020811015610aa057600080fd5b810190808051906020019092919050505011151515610b0a576040517f08c379a00000000000000000000000000000000000000000000000000000000081526004018080602001828103825260288152602001806125e06028913960400191505060405180910390fd5b50505050565b60035481565b600083519050606081604051908082528060200260200182016040528015610b5857816020015b610b45612422565b815260200190600190039081610b3d5790505b509050606082604051908082528060200260200182016040528015610b9757816020015b610b84612422565b815260200190600190039081610b7c5790505b509050828851141515610c12576040517f08c379a000000000000000000000000000000000000000000000000000000000815260040180806020018281038252601c8152602001807f496e707574206172726179206c656e677468206d69736d61746368210000000081525060200191505060405180910390fd5b60008090505b83811015610f8c5760008782815181101515610c3057fe5b906020019060200201516040516020018082600260200280838360005b83811015610c68578082015181840152602081019050610c4d565b50505050905001915050604051602081830303815290604052805190602001209050610c93816120ed565b610c9b612444565b60056000838152602001908152602001600020600280602002604051908101604052809291906000905b82821015610d1e57838260020201600280602002604051908101604052809291908260028015610d0a576020028201915b815481526020019060010190808311610cf6575b505050505081526020019060010190610cc5565b5050505090506001604051825151815260208351015160208201526020850260208e010151516040820152602080860260208f01015101517f30644e72e131a029b85045b68181585d97816a916871ca8d3c208c16d87cfd470360608201526040835160808360065afa821691506020830151518152602080840151015160208201528b51604082015260208c01517f30644e72e131a029b85045b68181585d97816a916871ca8d3c208c16d87cfd470360608201526040602084015160808360065afa82169150811515610df257600080fd5b50508060056000848152602001908152602001600020906002610e16929190612472565b5060046000838152602001908152602001600020600280602002604051908101604052809291906000905b82821015610e9a57838260020201600280602002604051908101604052809291908260028015610e86576020028201915b815481526020019060010190808311610e72575b505050505081526020019060010190610e41565b5050505090506001604051825151815260208351015160208201526020850260208e010151516040820152602080860260208f01015101517f30644e72e131a029b85045b68181585d97816a916871ca8d3c208c16d87cfd4703606082015260406020860260208901015160808360065afa821691506020830151518152602080840151015160208201528b51604082015260208c01517f30644e72e131a029b85045b68181585d97816a916871ca8d3c208c16d87cfd4703606082015260406020860260208801015160808360065afa82169150811515610f7b57600080fd5b505050508080600101915050610c18565b5060008090506000866040516020018082600260200280838360005b83811015610fc3578082015181840152602081019050610fa8565b5050505090500191505060405160208183030381529060405280519060200120905060008090505b60078054905081101561102f578160078281548110151561100857fe5b90600052602060002001541415611022576001925061102f565b8080600101915050610feb565b50811515156110a6576040517f08c379a00000000000000000000000000000000000000000000000000000000081526004018080602001828103825260138152602001807f4e6f6e636520616c7265616479207365656e210000000000000000000000000081525060200191505060405180910390fd5b600160009054906101000a900473ffffffffffffffffffffffffffffffffffffffff1673ffffffffffffffffffffffffffffffffffffffff16631659e67d85858d8d8d6008548e8e6040518963ffffffff167c01000000000000000000000000000000000000000000000000000000000281526004018080602001806020018060200189600260200280838360005b83811015611150578082015181840152602081019050611135565b505050509050018060200188815260200187600260200280838360005b8381101561118857808201518184015260208101905061116d565b505050509050018060200186810386528e8181518152602001915080516000925b818410156111f457828490602001906020020151600260200280838360005b838110156111e35780820151818401526020810190506111c8565b5050505090500192600101926111a9565b9250505086810385528d8181518152602001915080516000925b8184101561125957828490602001906020020151600260200280838360005b8381101561124857808201518184015260208101905061122d565b50505050905001926001019261120e565b9250505086810384528c8181518152602001915080516000925b818410156112be57828490602001906020020151600260200280838360005b838110156112ad578082015181840152602081019050611292565b505050509050019260010192611273565b9250505086810383528a8181518152602001915080516000925b8184101561132357828490602001906020020151600260200280838360005b838110156113125780820151818401526020810190506112f7565b5050505090500192600101926112d8565b92505050868103825287818151815260200191508051906020019080838360005b8381101561135f578082015181840152602081019050611344565b50505050905090810190601f16801561138c5780820380516001836020036101000a031916815260200191505b509d505050505050505050505050505060206040518083038186803b1580156113b457600080fd5b505afa1580156113c8573d6000803e3d6000fd5b505050506040513d60208110156113de57600080fd5b81019080805190602001909291905050501515611446576040517f08c379a00000000000000000000000000000000000000000000000000000000081526004018080602001828103825260238152602001806126086023913960400191505060405180910390fd5b60078190806001815401808255809150509060018203906000526020600020016000909192909190915055507f4ef6ed22b1551aeadeb80e67bb3a38788491e81527cc70a85bff611e9e51e18a8860405180806020018281038252838181518152602001915080516000925b818410156114fd57828490602001906020020151600260200280838360005b838110156114ec5780820151818401526020810190506114d1565b5050505090500192600101926114b2565b925050509250505060405180910390a150505050505050505050565b6000846040516020018082600260200280838360005b8381101561154a57808201518184015260208101905061152f565b50505050905001915050604051602081830303815290604052805190602001209050611575816120ed565b8360001115801561158a575063ffffffff8411155b15156115fe576040517f08c379a000000000000000000000000000000000000000000000000000000000815260040180806020018281038252601d8152602001807f5472616e7366657220616d6f756e74206f7574206f662072616e67652e00000081525060200191505060405180910390fd5b611606612444565b60056000838152602001908152602001600020600280602002604051908101604052809291906000905b8282101561168957838260020201600280602002604051908101604052809291908260028015611675576020028201915b815481526020019060010190808311611661575b505050505081526020019060010190611630565b5050505090506001604051825151815260208351015160208201527f077da99d806abd13c9f15ece5398525119d11e11e9836b2ee7d23f6159ad87d460408201527f01485efa927f2ad41bff567eec88f32fb0a0f706588b4e41a8d587d008b7f8756060820152867f30644e72e131a029b85045b68181585d2833e84879b9709143e1f593f0000001036080820152604080820160606040840160075afa821691506040835160808360065afa8216915081151561174657600080fd5b5050806005600084815260200190815260200160002090600261176a929190612472565b5060046000838152602001908152602001600020600280602002604051908101604052809291906000905b828210156117ee578382600202016002806020026040519081016040528092919082600280156117da576020028201915b8154815260200190600101908083116117c6575b505050505081526020019060010190611795565b5050505090506001604051825151815260208351015160208201527f077da99d806abd13c9f15ece5398525119d11e11e9836b2ee7d23f6159ad87d460408201527f01485efa927f2ad41bff567eec88f32fb0a0f706588b4e41a8d587d008b7f8756060820152867f30644e72e131a029b85045b68181585d2833e84879b9709143e1f593f0000001036080820152604080820160606040840160075afa821691506040835160808360065afa821691508115156118ab57600080fd5b505060008090506000856040516020018082600260200280838360005b838110156118e35780820151818401526020810190506118c8565b5050505090500191505060405160208183030381529060405280519060200120905060008090505b60078054905081101561194f578160078281548110151561192857fe5b90600052602060002001541415611942576001925061194f565b808060010191505061190b565b50811515156119c6576040517f08c379a00000000000000000000000000000000000000000000000000000000081526004018080602001828103825260138152602001807f4e6f6e636520616c7265616479207365656e210000000000000000000000000081525060200191505060405180910390fd5b600260009054906101000a900473ffffffffffffffffffffffffffffffffffffffff1673ffffffffffffffffffffffffffffffffffffffff16636e1a999e846000600281101515611a1357fe5b6020020151856001600281101515611a2757fe5b60200201518b8b6008548c338d6040518963ffffffff167c01000000000000000000000000000000000000000000000000000000000281526004018089600260200280838360005b83811015611a8a578082015181840152602081019050611a6f565b5050505090500188600260200280838360005b83811015611ab8578082015181840152602081019050611a9d565b5050505090500187600260200280838360005b83811015611ae6578082015181840152602081019050611acb565b5050505090500186815260200185815260200184600260200280838360005b83811015611b20578082015181840152602081019050611b05565b505050509050018373ffffffffffffffffffffffffffffffffffffffff1673ffffffffffffffffffffffffffffffffffffffff16815260200180602001828103825283818151815260200191508051906020019080838360005b83811015611b95578082015181840152602081019050611b7a565b50505050905090810190601f168015611bc25780820380516001836020036101000a031916815260200191505b50995050505050505050505060206040518083038186803b158015611be657600080fd5b505afa158015611bfa573d6000803e3d6000fd5b505050506040513d6020811015611c1057600080fd5b81019080805190602001909291905050501515611c95576040517f08c379a000000000000000000000000000000000000000000000000000000000815260040180806020018281038252601f8152602001807f4275726e2070726f6f6620766572696669636174696f6e206661696c6564210081525060200191505060405180910390fd5b6000809054906101000a900473ffffffffffffffffffffffffffffffffffffffff1673ffffffffffffffffffffffffffffffffffffffff1663a9059cbb33896040518363ffffffff167c0100000000000000000000000000000000000000000000000000000000028152600401808373ffffffffffffffffffffffffffffffffffffffff1673ffffffffffffffffffffffffffffffffffffffff16815260200182815260200192505050602060405180830381600087803b158015611d5957600080fd5b505af1158015611d6d573d6000803e3d6000fd5b505050506040513d6020811015611d8357600080fd5b81019080805190602001909291905050501515611deb576040517f08c379a000000000000000000000000000000000000000000000000000000000815260040180806020018281038252603581526020018061262b6035913960400191505060405180910390fd5b60078190806001815401808255809150509060018203906000526020600020016000909192909190915055505050505050505050565b6060600084849050905080604051908082528060200260200182016040528015611e6557816020015b611e526124c2565b815260200190600190039081611e4a5790505b50915060008090505b818110156120e45760008686838181101515611e8657fe5b9050604002016040516020018082600260200280828437600081840152601f19601f82011690508083019250505091505060405160208183030381529060405280519060200120905060046000828152602001908152602001600020600280602002604051908101604052809291906000905b82821015611f5257838260020201600280602002604051908101604052809291908260028015611f3e576020028201915b815481526020019060010190808311611f2a575b505050505081526020019060010190611ef9565b505050508483815181101515611f6457fe5b9060200190602002018190525084600660008381526020019081526020016000205410156120d657611f94612444565b60056000838152602001908152602001600020600280602002604051908101604052809291906000905b8282101561201757838260020201600280602002604051908101604052809291908260028015612003576020028201915b815481526020019060010190808311611fef575b505050505081526020019060010190611fbe565b5050505090506001604051825151815260208351015160208201526020850260208801015151516040820152602080860260208901015151015160608201526040602086026020890101515160808360065afa82169150602083015151815260208084015101516020820152602080860260208901015101515160408201526020806020870260208a0101510151015160608201526040602080870260208a010151015160808360065afa821691508115156120d257600080fd5b5050505b508080600101915050611e6e565b50509392505050565b6000600354428115156120fc57fe5b049050806006600084815260200190815260200160002054101561239c576121226124f0565b604080519081016040528060046000868152602001908152602001600020600280602002604051908101604052809291906000905b828210156121b05783826002020160028060200260405190810160405280929190826002801561219c576020028201915b815481526020019060010190808311612188575b505050505081526020019060010190612157565b50505050815260200160056000868152602001908152602001600020600280602002604051908101604052809291906000905b8282101561223c57838260020201600280602002604051908101604052809291908260028015612228576020028201915b815481526020019060010190808311612214575b5050505050815260200190600101906121e3565b50505050815250905060016040518251515181526020835151015160208201526020830151515160408201526020808401515101516060820152604083515160808360065afa82169150602083510151518152602080845101510151602082015260208084015101515160408201526020806020850151015101516060820152604060208451015160808360065afa821691508115156122db57600080fd5b50508060006002811015156122ec57fe5b602002015160046000858152602001908152602001600020906002612312929190612472565b50604080519081016040528060408051908101604052806000600102815260200160006001028152508152602001604080519081016040528060006001028152602001600060010281525081525060056000858152602001908152602001600020906002612381929190612472565b50816006600085815260200190815260200160002081905550505b8060085410156123bc5780600881905550600760006123bb919061251f565b5b5050565b6040805190810160405280600290602082028038833980820191505090505090565b8260028101928215612411579160200282015b828111156124105782518255916020019190600101906123f5565b5b50905061241e9190612540565b5090565b6040805190810160405280600290602082028038833980820191505090505090565b6080604051908101604052806002905b61245c612422565b8152602001906001900390816124545790505090565b826002800281019282156124b1579160200282015b828111156124b0578251829060026124a0929190612565565b5091602001919060020190612487565b5b5090506124be91906125a5565b5090565b6080604051908101604052806002905b6124da612422565b8152602001906001900390816124d25790505090565b610100604051908101604052806002905b6125096124c2565b8152602001906001900390816125015790505090565b508054600082559060005260206000209081019061253d9190612540565b50565b61256291905b8082111561255e576000816000905550600101612546565b5090565b90565b8260028101928215612594579160200282015b82811115612593578251825591602001919060010190612578565b5b5090506125a19190612540565b5090565b6125ce91905b808211156125ca57600081816125c191906125d1565b506002016125ab565b5090565b90565b50600081556001016000905556fe46756e642070757368657320636f6e74726163742070617374206d6178696d756d2076616c75652e5472616e736665722070726f6f6620766572696669636174696f6e206661696c656421546869732073686f756c646e2774206661696c2e2e2e20536f6d657468696e672077656e74207365766572656c792077726f6e672ea165627a7a72305820b8038f6d1c02aae2edc32051e1d35e588bfbaa0ed520c3f3bbb69a0065db295f0029",
  "source": "pragma solidity 0.5.4;\n\nimport './ZetherVerifier.sol';\nimport './BurnVerifier.sol';\nimport './CashToken.sol';\n\ncontract ZSC {\n    CashToken coin;\n    ZetherVerifier zetherverifier;\n    BurnVerifier burnverifier;\n    uint256 public epochLength; // now in milliseconds.\n\n    uint256 constant MAX = 4294967295; // 2^32 - 1 // no sload for constants...!\n    mapping(bytes32 => bytes32[2][2]) acc; // main account mapping\n    mapping(bytes32 => bytes32[2][2]) pTransfers; // storage for pending transfers\n    mapping(bytes32 => uint256) lastRollOver;\n    bytes32[] nonceSet; // would be more natural to use a mapping, but they can't be deleted / reset!\n    uint256 lastGlobalUpdate = 0; // will be also used as a proxy for \"current epoch\", seeing as rollovers will be anticipated\n    // not implementing account locking for now...revisit\n\n    event TransferOccurred(bytes32[2][] parties); // all parties will be notified, client can determine whether it was real or not.\n    // arg is still necessary for transfers---not even so much to know when you received a transfer, as to know when you got rolled over.\n\n    constructor(address _coin, address _zether, address _burn, uint256 _epochLength) public {\n        // epoch length, like block.time, is in _seconds_. 4 is the minimum!!! (To allow a withdrawal to go through.)\n        coin = CashToken(_coin);\n        zetherverifier = ZetherVerifier(_zether);\n        burnverifier = BurnVerifier(_burn);\n        epochLength = _epochLength;\n    }\n\n    function simulateAccounts(bytes32[2][] calldata y, uint256 epoch) view external returns (bytes32[2][2][] memory accounts) {\n        // all of this could be assembled locally by querying `acc` and `pTransfers` (and `lastRollOver`) and assembling things by hand\n        // turns out this is extremely _slow_ though, because of the ~ 4 * N queries which must be made. turns out it's much faster\n        // to simply move the entire process into a contract method, and in fact this allows us to make the above 3 private\n        uint256 size = y.length;\n        accounts = new bytes32[2][2][](size);\n        for (uint256 i = 0; i < size; i++) {\n            bytes32 yHash = keccak256(abi.encode(y[i]));\n            accounts[i] = acc[yHash];\n            if (lastRollOver[yHash] < epoch) {\n                bytes32[2][2] memory scratch = pTransfers[yHash];\n                assembly {\n                    let result := 1\n                    let m := mload(0x40)\n                    mstore(m, mload(mload(scratch)))\n                    mstore(add(m, 0x20), mload(add(mload(scratch), 0x20)))\n                    mstore(add(m, 0x40), mload(mload(mload(add(add(accounts, 0x20), mul(i, 0x20))))))\n                    mstore(add(m, 0x60), mload(add(mload(mload(add(add(accounts, 0x20), mul(i, 0x20)))), 0x20)))\n                    result := and(result, staticcall(gas, 0x06, m, 0x80, mload(mload(add(add(accounts, 0x20), mul(i, 0x20)))), 0x40))\n                    mstore(m, mload(mload(add(scratch, 0x20))))\n                    mstore(add(m, 0x20), mload(add(mload(add(scratch, 0x20)), 0x20)))\n                    mstore(add(m, 0x40), mload(mload(add(mload(add(add(accounts, 0x20), mul(i, 0x20))), 0x20))))\n                    mstore(add(m, 0x60), mload(add(mload(add(mload(add(add(accounts, 0x20), mul(i, 0x20))), 0x20)), 0x20)))\n                    result := and(result, staticcall(gas, 0x06, m, 0x80, mload(add(mload(add(add(accounts, 0x20), mul(i, 0x20))), 0x20)), 0x40))\n                    if iszero(result) {\n                        revert(0, 0)\n                    }\n                }\n            }\n        }\n    }\n\n    function rollOver(bytes32 yHash) internal {\n        uint256 e = block.timestamp / epochLength;\n        if (lastRollOver[yHash] < e) {\n            bytes32[2][2][2] memory scratch = [acc[yHash], pTransfers[yHash]];\n            assembly {\n                let result := 1\n                let m := mload(0x40)\n                mstore(m, mload(mload(mload(scratch))))\n                mstore(add(m, 0x20), mload(add(mload(mload(scratch)), 0x20)))\n                mstore(add(m, 0x40), mload(mload(mload(add(scratch, 0x20)))))\n                mstore(add(m, 0x60), mload(add(mload(mload(add(scratch, 0x20))), 0x20)))\n                result := and(result, staticcall(gas, 0x06, m, 0x80, mload(mload(scratch)), 0x40))\n                mstore(m, mload(mload(add(mload(scratch), 0x20))))\n                mstore(add(m, 0x20), mload(add(mload(add(mload(scratch), 0x20)), 0x20)))\n                mstore(add(m, 0x40), mload(mload(add(mload(add(scratch, 0x20)), 0x20))))\n                mstore(add(m, 0x60), mload(add(mload(add(mload(add(scratch, 0x20)), 0x20)), 0x20)))\n                result := and(result, staticcall(gas, 0x06, m, 0x80, mload(add(mload(scratch), 0x20)), 0x40))\n                if iszero(result) {\n                    revert(0, 0)\n                }\n            }\n            acc[yHash] = scratch[0];\n            pTransfers[yHash] = [[bytes32(0), bytes32(0)], [bytes32(0), bytes32(0)]];\n            lastRollOver[yHash] = e;\n        }\n        if (lastGlobalUpdate < e) {\n            lastGlobalUpdate = e;\n            delete nonceSet;\n        }\n    }\n\n    function fund(bytes32[2] calldata y, uint256 bTransfer) external {\n        bytes32 yHash = keccak256(abi.encode(y));\n        rollOver(yHash);\n\n        require(bTransfer <= MAX, \"Deposit amount out of range.\"); // uint, so other way not necessary?\n\n        bytes32[2] memory scratch = pTransfers[yHash][0];\n        assembly {\n            let result := 1\n            let m := mload(0x40)\n            mstore(m, mload(scratch))\n            mstore(add(m, 0x20), mload(add(scratch, 0x20)))\n            mstore(add(m, 0x40), 0x077da99d806abd13c9f15ece5398525119d11e11e9836b2ee7d23f6159ad87d4)\n            mstore(add(m, 0x60), 0x01485efa927f2ad41bff567eec88f32fb0a0f706588b4e41a8d587d008b7f875)\n            mstore(add(m, 0x80), bTransfer) // b will hopefully be a primitive / literal and not a pointer / address?\n            result := and(result, staticcall(gas, 0x07, add(m, 0x40), 0x60, add(m, 0x40), 0x40))\n            result := and(result, staticcall(gas, 0x06, m, 0x80, scratch, 0x40))\n            if iszero(result) {\n                revert(0, 0)\n            }\n        }\n        pTransfers[yHash][0] = scratch;\n        require(coin.transferFrom(msg.sender, address(this), bTransfer), \"Transfer from sender failed.\");\n        require(coin.balanceOf(address(this)) <= MAX, \"Fund pushes contract past maximum value.\");\n    }\n\n    function transfer(bytes32[2][] memory C, bytes32[2] memory D, bytes32[2][] memory y, bytes32[2] memory u, bytes memory proof) public {\n        uint256 size = y.length;\n        bytes32[2][] memory CLn = new bytes32[2][](size);\n        bytes32[2][] memory CRn = new bytes32[2][](size);\n        require(C.length == size, \"Input array length mismatch!\");\n\n        for (uint256 i = 0; i < size; i++) {\n            bytes32 yHash = keccak256(abi.encode(y[i]));\n            rollOver(yHash);\n            bytes32[2][2] memory scratch = pTransfers[yHash];\n            assembly {\n                let result := 1\n                let m := mload(0x40)\n                mstore(m, mload(mload(scratch)))\n                mstore(add(m, 0x20), mload(add(mload(scratch), 0x20)))\n                // calldatacopy(add(m, 0x40), add(0x104, mul(i, 0x40)), 0x40) // copy C[i] onto running block\n                // having to change external --> public to avoid stacktoodeep\n                // as a result, have to use the below two lines instead of the above single line.\n                mstore(add(m, 0x40), mload(mload(add(add(C, 0x20), mul(i, 0x20)))))\n                mstore(add(m, 0x60), sub(0x30644e72e131a029b85045b68181585d97816a916871ca8d3c208c16d87cfd47, mload(add(mload(add(add(C, 0x20), mul(i, 0x20))), 0x20))))\n                result := and(result, staticcall(gas, 0x06, m, 0x80, mload(scratch), 0x40))\n                mstore(m, mload(mload(add(scratch, 0x20))))\n                mstore(add(m, 0x20), mload(add(mload(add(scratch, 0x20)), 0x20)))\n                // calldatacopy(add(m, 0x40), 0x24, 0x40) // copy R onto running block\n                mstore(add(m, 0x40), mload(D))\n                mstore(add(m, 0x60), sub(0x30644e72e131a029b85045b68181585d97816a916871ca8d3c208c16d87cfd47, mload(add(D, 0x20)))) // invert!\n                result := and(result, staticcall(gas, 0x06, m, 0x80, mload(add(scratch, 0x20)), 0x40))\n                if iszero(result) {\n                    revert(0, 0)\n                }\n            }\n            pTransfers[yHash] = scratch; // credit / debit / neither y's account.\n            scratch = acc[yHash];\n            assembly {\n                let result := 1\n                let m := mload(0x40)\n                mstore(m, mload(mload(scratch)))\n                mstore(add(m, 0x20), mload(add(mload(scratch), 0x20)))\n                mstore(add(m, 0x40), mload(mload(add(add(C, 0x20), mul(i, 0x20)))))\n                mstore(add(m, 0x60), sub(0x30644e72e131a029b85045b68181585d97816a916871ca8d3c208c16d87cfd47, mload(add(mload(add(add(C, 0x20), mul(i, 0x20))), 0x20))))\n                result := and(result, staticcall(gas, 0x06, m, 0x80, mload(add(add(CLn, 0x20), mul(i, 0x20))), 0x40))\n                mstore(m, mload(mload(add(scratch, 0x20))))\n                mstore(add(m, 0x20), mload(add(mload(add(scratch, 0x20)), 0x20)))\n                mstore(add(m, 0x40), mload(D))\n                mstore(add(m, 0x60), sub(0x30644e72e131a029b85045b68181585d97816a916871ca8d3c208c16d87cfd47, mload(add(D, 0x20))))\n                result := and(result, staticcall(gas, 0x06, m, 0x80, mload(add(add(CRn, 0x20), mul(i, 0x20))), 0x40))\n                if iszero(result) {\n                    revert(0, 0)\n                }\n            }\n        }\n\n        bool seen = false;\n        bytes32 uHash = keccak256(abi.encode(u));\n        for (uint256 i = 0; i < nonceSet.length; i++) {\n            if (nonceSet[i] == uHash) {\n                seen = true;\n                break;\n            }\n        }\n        require(!seen, \"Nonce already seen!\");\n        require(zetherverifier.verifyTransfer(CLn, CRn, C, D, y, lastGlobalUpdate, u, proof), \"Transfer proof verification failed!\");\n\n        nonceSet.push(uHash);\n        emit TransferOccurred(y);\n    }\n\n    function burn(bytes32[2] memory y, uint256 bTransfer, bytes32[2] memory u, bytes memory proof) public {\n        bytes32 yHash = keccak256(abi.encode(y));\n        rollOver(yHash);\n\n        require(0 <= bTransfer && bTransfer <= MAX, \"Transfer amount out of range.\");\n        bytes32[2][2] memory scratch = pTransfers[yHash]; // could technically use sload, but... let's not go there.\n        assembly {\n            let result := 1\n            let m := mload(0x40)\n            mstore(m, mload(mload(scratch)))\n            mstore(add(m, 0x20), mload(add(mload(scratch), 0x20)))\n            // load bulletproof generator here\n            mstore(add(m, 0x40), 0x077da99d806abd13c9f15ece5398525119d11e11e9836b2ee7d23f6159ad87d4) // g_x\n            mstore(add(m, 0x60), 0x01485efa927f2ad41bff567eec88f32fb0a0f706588b4e41a8d587d008b7f875) // g_y\n            mstore(add(m, 0x80), sub(0x30644e72e131a029b85045b68181585d2833e84879b9709143e1f593f0000001, bTransfer))\n            result := and(result, staticcall(gas, 0x07, add(m, 0x40), 0x60, add(m, 0x40), 0x40))\n            result := and(result, staticcall(gas, 0x06, m, 0x80, mload(scratch), 0x40)) // scratch[0] = acc[yHash][0] * g ^ -b, scratch[1] doesn't change\n            if iszero(result) {\n                revert(0, 0)\n            }\n        }\n        pTransfers[yHash] = scratch; // debit y's balance\n        scratch = acc[yHash]; // simulate debit of acc---just for use in verification, won't be applied\n        assembly {\n            let result := 1\n            let m := mload(0x40)\n            mstore(m, mload(mload(scratch)))\n            mstore(add(m, 0x20), mload(add(mload(scratch), 0x20)))\n            mstore(add(m, 0x40), 0x077da99d806abd13c9f15ece5398525119d11e11e9836b2ee7d23f6159ad87d4) // g_x\n            mstore(add(m, 0x60), 0x01485efa927f2ad41bff567eec88f32fb0a0f706588b4e41a8d587d008b7f875) // g_y\n            mstore(add(m, 0x80), sub(0x30644e72e131a029b85045b68181585d2833e84879b9709143e1f593f0000001, bTransfer))\n            result := and(result, staticcall(gas, 0x07, add(m, 0x40), 0x60, add(m, 0x40), 0x40))\n            result := and(result, staticcall(gas, 0x06, m, 0x80, mload(scratch), 0x40)) // scratch[0] = acc[yHash][0] * g ^ -b, scratch[1] doesn't change\n            if iszero(result) {\n                revert(0, 0)\n            }\n        }\n        bool seen = false;\n        bytes32 uHash = keccak256(abi.encode(u));\n        for (uint256 i = 0; i < nonceSet.length; i++) {\n            if (nonceSet[i] == uHash) { // does this have to repeat the sload for each iteration?!? revisit\n                seen = true;\n                break;\n            }\n        }\n        require(!seen, \"Nonce already seen!\");\n        require(burnverifier.verifyBurn(scratch[0], scratch[1], y, bTransfer, lastGlobalUpdate, u, msg.sender, proof), \"Burn proof verification failed!\");\n        require(coin.transfer(msg.sender, bTransfer), \"This shouldn't fail... Something went severely wrong.\");\n        nonceSet.push(uHash);\n    }\n}\n",
  "sourcePath": "/Users/benediamond/anonymous-zether/packages/protocol/contracts/ZSC.sol",
  "compiler": {
    "name": "solc",
    "version": "0.5.4+commit.9549d8ff.Emscripten.clang"
  },
  "schemaVersion": "3.0.19",
  "updatedAt": "2019-12-29T16:08:40.007Z",
  "networkType": "quorum",
  "devdoc": {
    "methods": {}
  },
  "userdoc": {
    "methods": {}
  }
}