{
  "contractName": "ZSC",
  "abi": [
    {
      "constant": true,
      "inputs": [],
      "name": "epochLength",
      "outputs": [
        {
          "name": "",
          "type": "uint256"
        }
      ],
      "payable": false,
      "stateMutability": "view",
      "type": "function"
    },
    {
      "inputs": [
        {
          "name": "_coin",
          "type": "address"
        },
        {
          "name": "_zether",
          "type": "address"
        },
        {
          "name": "_burn",
          "type": "address"
        },
        {
          "name": "_epochLength",
          "type": "uint256"
        }
      ],
      "payable": false,
      "stateMutability": "nonpayable",
      "type": "constructor"
    },
    {
      "anonymous": false,
      "inputs": [
        {
          "components": [
            {
              "name": "x",
              "type": "bytes32"
            },
            {
              "name": "y",
              "type": "bytes32"
            }
          ],
          "indexed": false,
          "name": "parties",
          "type": "tuple[]"
        }
      ],
      "name": "TransferOccurred",
      "type": "event"
    },
    {
      "constant": true,
      "inputs": [
        {
          "components": [
            {
              "name": "x",
              "type": "bytes32"
            },
            {
              "name": "y",
              "type": "bytes32"
            }
          ],
          "name": "y",
          "type": "tuple[]"
        },
        {
          "name": "epoch",
          "type": "uint256"
        }
      ],
      "name": "simulateAccounts",
      "outputs": [
        {
          "components": [
            {
              "name": "x",
              "type": "bytes32"
            },
            {
              "name": "y",
              "type": "bytes32"
            }
          ],
          "name": "accounts",
          "type": "tuple[2][]"
        }
      ],
      "payable": false,
      "stateMutability": "view",
      "type": "function"
    },
    {
      "constant": false,
      "inputs": [
        {
          "components": [
            {
              "name": "x",
              "type": "bytes32"
            },
            {
              "name": "y",
              "type": "bytes32"
            }
          ],
          "name": "y",
          "type": "tuple"
        },
        {
          "name": "c",
          "type": "uint256"
        },
        {
          "name": "s",
          "type": "uint256"
        }
      ],
      "name": "register",
      "outputs": [],
      "payable": false,
      "stateMutability": "nonpayable",
      "type": "function"
    },
    {
      "constant": false,
      "inputs": [
        {
          "components": [
            {
              "name": "x",
              "type": "bytes32"
            },
            {
              "name": "y",
              "type": "bytes32"
            }
          ],
          "name": "y",
          "type": "tuple"
        },
        {
          "name": "bTransfer",
          "type": "uint256"
        }
      ],
      "name": "fund",
      "outputs": [],
      "payable": false,
      "stateMutability": "nonpayable",
      "type": "function"
    },
    {
      "constant": false,
      "inputs": [
        {
          "components": [
            {
              "name": "x",
              "type": "bytes32"
            },
            {
              "name": "y",
              "type": "bytes32"
            }
          ],
          "name": "C",
          "type": "tuple[]"
        },
        {
          "components": [
            {
              "name": "x",
              "type": "bytes32"
            },
            {
              "name": "y",
              "type": "bytes32"
            }
          ],
          "name": "D",
          "type": "tuple"
        },
        {
          "components": [
            {
              "name": "x",
              "type": "bytes32"
            },
            {
              "name": "y",
              "type": "bytes32"
            }
          ],
          "name": "y",
          "type": "tuple[]"
        },
        {
          "components": [
            {
              "name": "x",
              "type": "bytes32"
            },
            {
              "name": "y",
              "type": "bytes32"
            }
          ],
          "name": "u",
          "type": "tuple"
        },
        {
          "name": "proof",
          "type": "bytes"
        }
      ],
      "name": "transfer",
      "outputs": [],
      "payable": false,
      "stateMutability": "nonpayable",
      "type": "function"
    },
    {
      "constant": false,
      "inputs": [
        {
          "components": [
            {
              "name": "x",
              "type": "bytes32"
            },
            {
              "name": "y",
              "type": "bytes32"
            }
          ],
          "name": "y",
          "type": "tuple"
        },
        {
          "name": "bTransfer",
          "type": "uint256"
        },
        {
          "components": [
            {
              "name": "x",
              "type": "bytes32"
            },
            {
              "name": "y",
              "type": "bytes32"
            }
          ],
          "name": "u",
          "type": "tuple"
        },
        {
          "name": "proof",
          "type": "bytes"
        }
      ],
      "name": "burn",
      "outputs": [],
      "payable": false,
      "stateMutability": "nonpayable",
      "type": "function"
    }
  ],
  "bytecode": "0x608060405260006008553480156200001657600080fd5b5060405160808062002eca833981018060405262000038919081019062000137565b836000806101000a81548173ffffffffffffffffffffffffffffffffffffffff021916908373ffffffffffffffffffffffffffffffffffffffff16021790555082600160006101000a81548173ffffffffffffffffffffffffffffffffffffffff021916908373ffffffffffffffffffffffffffffffffffffffff16021790555081600260006101000a81548173ffffffffffffffffffffffffffffffffffffffff021916908373ffffffffffffffffffffffffffffffffffffffff1602179055508060038190555050505050620001e1565b6000620001198251620001a3565b905092915050565b60006200012f8251620001d7565b905092915050565b600080600080608085870312156200014e57600080fd5b60006200015e878288016200010b565b945050602062000171878288016200010b565b935050604062000184878288016200010b565b9250506060620001978782880162000121565b91505092959194509250565b6000620001b082620001b7565b9050919050565b600073ffffffffffffffffffffffffffffffffffffffff82169050919050565b6000819050919050565b612cd980620001f16000396000f3fe608060405234801561001057600080fd5b506004361061007f576000357c010000000000000000000000000000000000000000000000000000000090048063312a526c1461008457806357d775f8146100a0578063599c1a93146100be57806379e543d0146100da5780639b0d85d31461010a578063eff4d17814610126575b600080fd5b61009e60048036036100999190810190611fe9565b610142565b005b6100a86106fd565b6040516100b59190612a4e565b60405180910390f35b6100d860048036036100d39190810190611fad565b610703565b005b6100f460048036036100ef9190810190611f30565b610aa4565b6040516101019190612739565b60405180910390f35b610124600480360361011f9190810190612064565b610d61565b005b610140600480360361013b9190810190611e71565b610f2f565b005b60008460405160200161015591906129ba565b6040516020818303038152906040528051906020012090506101768161152f565b15156101b7576040517f08c379a00000000000000000000000000000000000000000000000000000000081526004016101ae9061295f565b60405180910390fd5b6101c08161174f565b836000111580156101d5575063ffffffff8411155b1515610216576040517f08c379a000000000000000000000000000000000000000000000000000000000815260040161020d906128bf565b60405180910390fd5b61021e611b72565b60056000838152602001908152602001600020600280602002604051908101604052809291906000905b82821015610284578382600202016040805190810160405290816000820154815260200160018201548152505081526020019060010190610248565b5050505090506102d16102af61029987611a00565b6102a1611a2c565b611a9490919063ffffffff16565b8260006002811015156102be57fe5b6020020151611acf90919063ffffffff16565b6005600084815260200190815260200160002060006002811015156102f257fe5b60020201600082015181600001556020820151816001015590505060046000838152602001908152602001600020600280602002604051908101604052809291906000905b82821015610373578382600202016040805190810160405290816000820154815260200160018201548152505081526020019060010190610337565b5050505090506103c061039e61038887611a00565b610390611a2c565b611a9490919063ffffffff16565b8260006002811015156103ad57fe5b6020020151611acf90919063ffffffff16565b8160006002811015156103cf57fe5b60200201819052506000846040516020016103ea91906129ba565b60405160208183030381529060405280519060200120905060008090505b600780549050811015610480578160078281548110151561042557fe5b906000526020600020015414151515610473576040517f08c379a000000000000000000000000000000000000000000000000000000000815260040161046a9061285f565b60405180910390fd5b8080600101915050610408565b506007819080600181540180825580915050906001820390600052602060002001600090919290919091505550600260009054906101000a900473ffffffffffffffffffffffffffffffffffffffff1673ffffffffffffffffffffffffffffffffffffffff166391d16ac88360006002811015156104fa57fe5b602002015184600160028110151561050e57fe5b60200201518a6008548a338b6040518863ffffffff167c010000000000000000000000000000000000000000000000000000000002815260040161055897969594939291906129d5565b60206040518083038186803b15801561057057600080fd5b505afa158015610584573d6000803e3d6000fd5b505050506040513d601f19601f820116820180604052506105a89190810190611f84565b15156105e9576040517f08c379a00000000000000000000000000000000000000000000000000000000081526004016105e09061297f565b60405180910390fd5b6000809054906101000a900473ffffffffffffffffffffffffffffffffffffffff1673ffffffffffffffffffffffffffffffffffffffff1663a9059cbb33886040518363ffffffff167c01000000000000000000000000000000000000000000000000000000000281526004016106619291906126d9565b602060405180830381600087803b15801561067b57600080fd5b505af115801561068f573d6000803e3d6000fd5b505050506040513d601f19601f820116820180604052506106b39190810190611f84565b15156106f4576040517f08c379a00000000000000000000000000000000000000000000000000000000081526004016106eb9061293f565b60405180910390fd5b50505050505050565b60035481565b60008260405160200161071691906129ba565b6040516020818303038152906040528051906020012090506107378161152f565b1515610778576040517f08c379a000000000000000000000000000000000000000000000000000000000815260040161076f9061295f565b60405180910390fd5b6107818161174f565b63ffffffff82111515156107ca576040517f08c379a00000000000000000000000000000000000000000000000000000000081526004016107c19061287f565b60405180910390fd5b6107d2611ba0565b6005600083815260200190815260200160002060006002811015156107f357fe5b6002020160408051908101604052908160008201548152602001600182015481525050905061084461083584610827611a2c565b611a9490919063ffffffff16565b82611acf90919063ffffffff16565b90508060056000848152602001908152602001600020600060028110151561086857fe5b6002020160008201518160000155602082015181600101559050506000809054906101000a900473ffffffffffffffffffffffffffffffffffffffff1673ffffffffffffffffffffffffffffffffffffffff166323b872dd3330866040518463ffffffff167c01000000000000000000000000000000000000000000000000000000000281526004016108fd939291906126a2565b602060405180830381600087803b15801561091757600080fd5b505af115801561092b573d6000803e3d6000fd5b505050506040513d601f19601f8201168201806040525061094f9190810190611f84565b1515610990576040517f08c379a0000000000000000000000000000000000000000000000000000000008152600401610987906128ff565b60405180910390fd5b63ffffffff6000809054906101000a900473ffffffffffffffffffffffffffffffffffffffff1673ffffffffffffffffffffffffffffffffffffffff166370a08231306040518263ffffffff167c0100000000000000000000000000000000000000000000000000000000028152600401610a0b9190612687565b60206040518083038186803b158015610a2357600080fd5b505afa158015610a37573d6000803e3d6000fd5b505050506040513d601f19601f82011682018060405250610a5b91908101906120b3565b11151515610a9e576040517f08c379a0000000000000000000000000000000000000000000000000000000008152600401610a959061289f565b60405180910390fd5b50505050565b606060008351905080604051908082528060200260200182016040528015610ae657816020015b610ad3611bc0565b815260200190600190039081610acb5790505b50915060008090505b81811015610d595760008582815181101515610b0757fe5b90602001906020020151604051602001610b21919061299f565b60405160208183030381529060405280519060200120905060046000828152602001908152602001600020600280602002604051908101604052809291906000905b82821015610b9f578382600202016040805190810160405290816000820154815260200160018201548152505081526020019060010190610b63565b505050508483815181101515610bb157fe5b906020019060200201819052508460066000838152602001908152602001600020541015610d4b57610be1611b72565b60056000838152602001908152602001600020600280602002604051908101604052809291906000905b82821015610c47578382600202016040805190810160405290816000820154815260200160018201548152505081526020019060010190610c0b565b505050509050610c9d816000600281101515610c5f57fe5b60200201518685815181101515610c7257fe5b906020019060200201516000600281101515610c8a57fe5b6020020151611acf90919063ffffffff16565b8584815181101515610cab57fe5b906020019060200201516000600281101515610cc357fe5b6020020181905250610d1b816001600281101515610cdd57fe5b60200201518685815181101515610cf057fe5b906020019060200201516001600281101515610d0857fe5b6020020151611acf90919063ffffffff16565b8584815181101515610d2957fe5b906020019060200201516001600281101515610d4157fe5b6020020181905250505b508080600101915050610aef565b505092915050565b610d69611ba0565b610daf610d87610d7885611a00565b86611a9490919063ffffffff16565b610da184610d93611a2c565b611a9490919063ffffffff16565b611acf90919063ffffffff16565b90506000610dea308684604051602001610dcb93929190612702565b6040516020818303038152906040528051906020012060019004611b15565b90508381141515610e30576040517f08c379a0000000000000000000000000000000000000000000000000000000008152600401610e27906128df565b60405180910390fd5b600085604051602001610e4391906129ba565b604051602081830303815290604052805190602001209050610e648161152f565b151515610ea6576040517f08c379a0000000000000000000000000000000000000000000000000000000008152600401610e9d9061283f565b60405180910390fd5b85600560008381526020019081526020016000206000600281101515610ec857fe5b600202016000820151816000015560208201518160010155905050610eeb611a2c565b600560008381526020019081526020016000206001600281101515610f0c57fe5b600202016000820151816000015560208201518160010155905050505050505050565b600083519050606081604051908082528060200260200182016040528015610f7157816020015b610f5e611bee565b815260200190600190039081610f565790505b509050606082604051908082528060200260200182016040528015610fb057816020015b610f9d611bee565b815260200190600190039081610f955790505b509050828851141515610ff8576040517f08c379a0000000000000000000000000000000000000000000000000000000008152600401610fef9061281f565b60405180910390fd5b60008090505b838110156112fe576000878281518110151561101657fe5b90602001906020020151604051602001611030919061299f565b6040516020818303038152906040528051906020012090506110518161152f565b1515611092576040517f08c379a00000000000000000000000000000000000000000000000000000000081526004016110899061295f565b60405180910390fd5b61109b8161174f565b6110a3611b72565b60056000838152602001908152602001600020600280602002604051908101604052809291906000905b828210156111095783826002020160408051908101604052908160008201548152602001600182015481525050815260200190600101906110cd565b50505050905061114c8b8481518110151561112057fe5b9060200190602002015182600060028110151561113957fe5b6020020151611acf90919063ffffffff16565b60056000848152602001908152602001600020600060028110151561116d57fe5b6002020160008201518160000155602082015181600101559050506111ae8a82600160028110151561119b57fe5b6020020151611acf90919063ffffffff16565b6005600084815260200190815260200160002060016002811015156111cf57fe5b60020201600082015181600001556020820151816001015590505060046000838152602001908152602001600020600280602002604051908101604052809291906000905b82821015611250578382600202016040805190810160405290816000820154815260200160018201548152505081526020019060010190611214565b5050505090506112938b8481518110151561126757fe5b9060200190602002015182600060028110151561128057fe5b6020020151611acf90919063ffffffff16565b85848151811015156112a157fe5b906020019060200201819052506112d48a8260016002811015156112c157fe5b6020020151611acf90919063ffffffff16565b84848151811015156112e257fe5b9060200190602002018190525050508080600101915050610ffe565b5060008560405160200161131291906129ba565b60405160208183030381529060405280519060200120905060008090505b6007805490508110156113a8578160078281548110151561134d57fe5b90600052602060002001541415151561139b576040517f08c379a00000000000000000000000000000000000000000000000000000000081526004016113929061285f565b60405180910390fd5b8080600101915050611330565b506007819080600181540180825580915050906001820390600052602060002001600090919290919091505550600160009054906101000a900473ffffffffffffffffffffffffffffffffffffffff1673ffffffffffffffffffffffffffffffffffffffff1663d2d5e70a84848c8c8c6008548d8d6040518963ffffffff167c010000000000000000000000000000000000000000000000000000000002815260040161145c98979695949392919061277d565b60206040518083038186803b15801561147457600080fd5b505afa158015611488573d6000803e3d6000fd5b505050506040513d601f19601f820116820180604052506114ac9190810190611f84565b15156114ed576040517f08c379a00000000000000000000000000000000000000000000000000000000081526004016114e49061291f565b60405180910390fd5b7f9b814ae8a45a4c40d4c60ffa92e0c4b76dec41407cb28b43df9daffa3685f9ac8760405161151c919061275b565b60405180910390a1505050505050505050565b6000611539611ba0565b60408051908101604052806000600102815260200160006001028152509050611560611c0e565b604080519081016040528060046000878152602001908152602001600020600280602002604051908101604052809291906000905b828210156115d1578382600202016040805190810160405290816000820154815260200160018201548152505081526020019060010190611595565b50505050815260200160056000878152602001908152602001600020600280602002604051908101604052809291906000905b82821015611640578382600202016040805190810160405290816000820154815260200160018201548152505081526020019060010190611604565b5050505081525090506116828282600060028110151561165c57fe5b6020020151600060028110151561166f57fe5b6020020151611b4a90919063ffffffff16565b80156116c357506116c28282600060028110151561169c57fe5b602002015160016002811015156116af57fe5b6020020151611b4a90919063ffffffff16565b5b80156117045750611703828260016002811015156116dd57fe5b602002015160006002811015156116f057fe5b6020020151611b4a90919063ffffffff16565b5b801561174557506117448282600160028110151561171e57fe5b6020020151600160028110151561173157fe5b6020020151611b4a90919063ffffffff16565b5b1592505050919050565b60006003544281151561175e57fe5b04905080600660008481526020019081526020016000205410156119dc57611784611c0e565b604080519081016040528060046000868152602001908152602001600020600280602002604051908101604052809291906000905b828210156117f55783826002020160408051908101604052908160008201548152602001600182015481525050815260200190600101906117b9565b50505050815260200160056000868152602001908152602001600020600280602002604051908101604052809291906000905b82821015611864578382600202016040805190810160405290816000820154815260200160018201548152505081526020019060010190611828565b5050505081525090506118cc81600160028110151561187f57fe5b6020020151600060028110151561189257fe5b60200201518260006002811015156118a657fe5b602002015160006002811015156118b957fe5b6020020151611acf90919063ffffffff16565b6004600085815260200190815260200160002060006002811015156118ed57fe5b60020201600082015181600001556020820151816001015590505061196781600160028110151561191a57fe5b6020020151600160028110151561192d57fe5b602002015182600060028110151561194157fe5b6020020151600160028110151561195457fe5b6020020151611acf90919063ffffffff16565b60046000858152602001908152602001600020600160028110151561198857fe5b6002020160008201518160000155602082015181600101559050506005600084815260200190815260200160002060006119c29190611c3d565b816006600085815260200190815260200160002081905550505b8060085410156119fc5780600881905550600760006119fb9190611c68565b5b5050565b6000817f30644e72e131a029b85045b68181585d2833e84879b9709143e1f593f0000001039050919050565b611a34611ba0565b60408051908101604052807f077da99d806abd13c9f15ece5398525119d11e11e9836b2ee7d23f6159ad87d460010281526020017f01485efa927f2ad41bff567eec88f32fb0a0f706588b4e41a8d587d008b7f875600102815250905090565b611a9c611ba0565b604051835181526020840151602082015282604082015260408260608360075afa1515611ac857600080fd5b5092915050565b611ad7611ba0565b6040518351815260208401516020820152825160408201526020830151606082015260408260808360065afa1515611b0e57600080fd5b5092915050565b60007f30644e72e131a029b85045b68181585d2833e84879b9709143e1f593f000000182811515611b4257fe5b069050919050565b600081600001518360000151148015611b6a575081602001518360200151145b905092915050565b6080604051908101604052806002905b611b8a611bee565b815260200190600190039081611b825790505090565b604080519081016040528060008019168152602001600080191681525090565b6080604051908101604052806002905b611bd8611bee565b815260200190600190039081611bd05790505090565b604080519081016040528060008019168152602001600080191681525090565b610100604051908101604052806002905b611c27611bc0565b815260200190600190039081611c1f5790505090565b5060008082016000905560018201600090555060020160008082016000905560018201600090555050565b5080546000825590600052602060002090810190611c869190611c89565b50565b611cab91905b80821115611ca7576000816000905550600101611c8f565b5090565b90565b600082601f8301121515611cc157600080fd5b8135611cd4611ccf82612a96565b612a69565b91508181835260208401935060208101905083856040840282011115611cf957600080fd5b60005b83811015611d295781611d0f8882611db1565b845260208401935060408301925050600181019050611cfc565b5050505092915050565b6000611d3f8251612bf6565b905092915050565b6000611d538235612c02565b905092915050565b600082601f8301121515611d6e57600080fd5b8135611d81611d7c82612abe565b612a69565b91508082526020830160208301858383011115611d9d57600080fd5b611da8838284612c4c565b50505092915050565b600060408284031215611dc357600080fd5b611dcd6040612a69565b90506000611ddd84828501611d47565b6000830152506020611df184828501611d47565b60208301525092915050565b600060408284031215611e0f57600080fd5b611e196040612a69565b90506000611e2984828501611d47565b6000830152506020611e3d84828501611d47565b60208301525092915050565b6000611e558235612c0c565b905092915050565b6000611e698251612c0c565b905092915050565b600080600080600060e08688031215611e8957600080fd5b600086013567ffffffffffffffff811115611ea357600080fd5b611eaf88828901611cae565b9550506020611ec088828901611dfd565b945050606086013567ffffffffffffffff811115611edd57600080fd5b611ee988828901611cae565b9350506080611efa88828901611dfd565b92505060c086013567ffffffffffffffff811115611f1757600080fd5b611f2388828901611d5b565b9150509295509295909350565b60008060408385031215611f4357600080fd5b600083013567ffffffffffffffff811115611f5d57600080fd5b611f6985828601611cae565b9250506020611f7a85828601611e49565b9150509250929050565b600060208284031215611f9657600080fd5b6000611fa484828501611d33565b91505092915050565b60008060608385031215611fc057600080fd5b6000611fce85828601611dfd565b9250506040611fdf85828601611e49565b9150509250929050565b60008060008060c08587031215611fff57600080fd5b600061200d87828801611dfd565b945050604061201e87828801611e49565b935050606061202f87828801611dfd565b92505060a085013567ffffffffffffffff81111561204c57600080fd5b61205887828801611d5b565b91505092959194509250565b60008060006080848603121561207957600080fd5b600061208786828701611dfd565b935050604061209886828701611e49565b92505060606120a986828701611e49565b9150509250925092565b6000602082840312156120c557600080fd5b60006120d384828501611e5d565b91505092915050565b60006120e88383612184565b60808301905092915050565b6000612100838361261a565b60408301905092915050565b61211581612c16565b82525050565b61212481612bb0565b82525050565b600061213582612b0e565b61213f8185612b61565b935061214a83612aea565b60005b82811015612178576121608683516120dc565b955061216b82612b3a565b915060018101905061214d565b50849250505092915050565b61218d81612b19565b6121978184612b72565b92506121a282612af7565b60005b828110156121d0576121b88583516120f4565b94506121c382612b47565b91506001810190506121a5565b5050505050565b60006121e282612b24565b6121ec8185612b7d565b93506121f783612b01565b60005b828110156122255761220d8683516120f4565b955061221882612b54565b91506001810190506121fa565b50849250505092915050565b61223a81612bc2565b82525050565b600061224b82612b2f565b6122558185612b8e565b9350612265818560208601612c5b565b61226e81612c8e565b840191505092915050565b6000612286601c83612b9f565b91507f496e707574206172726179206c656e677468206d69736d6174636821000000006000830152602082019050919050565b60006122c6601b83612b9f565b91507f4163636f756e7420616c726561647920726567697374657265642100000000006000830152602082019050919050565b6000612306601383612b9f565b91507f4e6f6e636520616c7265616479207365656e21000000000000000000000000006000830152602082019050919050565b6000612346601c83612b9f565b91507f4465706f73697420616d6f756e74206f7574206f662072616e67652e000000006000830152602082019050919050565b6000612386602883612b9f565b91507f46756e642070757368657320636f6e74726163742070617374206d6178696d7560008301527f6d2076616c75652e0000000000000000000000000000000000000000000000006020830152604082019050919050565b60006123ec601d83612b9f565b91507f5472616e7366657220616d6f756e74206f7574206f662072616e67652e0000006000830152602082019050919050565b600061242c601f83612b9f565b91507f496e76616c696420726567697374726174696f6e207369676e617475726521006000830152602082019050919050565b600061246c601c83612b9f565b91507f5472616e736665722066726f6d2073656e646572206661696c65642e000000006000830152602082019050919050565b60006124ac602383612b9f565b91507f5472616e736665722070726f6f6620766572696669636174696f6e206661696c60008301527f65642100000000000000000000000000000000000000000000000000000000006020830152604082019050919050565b6000612512603583612b9f565b91507f546869732073686f756c646e2774206661696c2e2e2e20536f6d657468696e6760008301527f2077656e74207365766572656c792077726f6e672e00000000000000000000006020830152604082019050919050565b6000612578601b83612b9f565b91507f4163636f756e74206e6f742079657420726567697374657265642e00000000006000830152602082019050919050565b60006125b8601f83612b9f565b91507f4275726e2070726f6f6620766572696669636174696f6e206661696c656421006000830152602082019050919050565b6040820160008201516126016000850182612231565b5060208201516126146020850182612231565b50505050565b6040820160008201516126306000850182612231565b5060208201516126436020850182612231565b50505050565b60408201600082015161265f6000850182612231565b5060208201516126726020850182612231565b50505050565b61268181612bec565b82525050565b600060208201905061269c600083018461211b565b92915050565b60006060820190506126b7600083018661210c565b6126c4602083018561211b565b6126d16040830184612678565b949350505050565b60006040820190506126ee600083018561210c565b6126fb6020830184612678565b9392505050565b600060a082019050612717600083018661211b565b61272460208301856125eb565b61273160608301846125eb565b949350505050565b60006020820190508181036000830152612753818461212a565b905092915050565b6000602082019050818103600083015261277581846121d7565b905092915050565b6000610140820190508181036000830152612798818b6121d7565b905081810360208301526127ac818a6121d7565b905081810360408301526127c081896121d7565b90506127cf60608301886125eb565b81810360a08301526127e181876121d7565b90506127f060c0830186612678565b6127fd60e08301856125eb565b8181036101208301526128108184612240565b90509998505050505050505050565b6000602082019050818103600083015261283881612279565b9050919050565b60006020820190508181036000830152612858816122b9565b9050919050565b60006020820190508181036000830152612878816122f9565b9050919050565b6000602082019050818103600083015261289881612339565b9050919050565b600060208201905081810360008301526128b881612379565b9050919050565b600060208201905081810360008301526128d8816123df565b9050919050565b600060208201905081810360008301526128f88161241f565b9050919050565b600060208201905081810360008301526129188161245f565b9050919050565b600060208201905081810360008301526129388161249f565b9050919050565b6000602082019050818103600083015261295881612505565b9050919050565b600060208201905081810360008301526129788161256b565b9050919050565b60006020820190508181036000830152612998816125ab565b9050919050565b60006040820190506129b46000830184612649565b92915050565b60006040820190506129cf60008301846125eb565b92915050565b6000610160820190506129eb600083018a612649565b6129f86040830189612649565b612a0560808301886125eb565b612a1260c0830187612678565b612a1f60e08301866125eb565b612a2d61012083018561210c565b818103610140830152612a408184612240565b905098975050505050505050565b6000602082019050612a636000830184612678565b92915050565b6000604051905081810181811067ffffffffffffffff82111715612a8c57600080fd5b8060405250919050565b600067ffffffffffffffff821115612aad57600080fd5b602082029050602081019050919050565b600067ffffffffffffffff821115612ad557600080fd5b601f19601f8301169050602081019050919050565b6000602082019050919050565b6000819050919050565b6000602082019050919050565b600081519050919050565b600060029050919050565b600081519050919050565b600081519050919050565b6000602082019050919050565b6000602082019050919050565b6000602082019050919050565b600082825260208201905092915050565b600081905092915050565b600082825260208201905092915050565b600082825260208201905092915050565b600082825260208201905092915050565b6000612bbb82612bcc565b9050919050565b6000819050919050565b600073ffffffffffffffffffffffffffffffffffffffff82169050919050565b6000819050919050565b60008115159050919050565b6000819050919050565b6000819050919050565b6000612c2182612c28565b9050919050565b6000612c3382612c3a565b9050919050565b6000612c4582612bcc565b9050919050565b82818337600083830152505050565b60005b83811015612c79578082015181840152602081019050612c5e565b83811115612c88576000848401525b50505050565b6000601f19601f830116905091905056fea265627a7a72305820904503913c375e7fabeedab2b0c28c92f6abb42c4249aad830d5883b7c19854d6c6578706572696d656e74616cf50037",
  "source": "pragma solidity 0.5.4;\npragma experimental ABIEncoderV2;\n\nimport './CashToken.sol';\nimport './Utils.sol';\nimport \"./InnerProductVerifier.sol\";\nimport './ZetherVerifier.sol';\nimport './BurnVerifier.sol';\n\ncontract ZSC {\n    using Utils for uint256;\n    using Utils for Utils.G1Point;\n\n    CashToken coin;\n    ZetherVerifier zetherverifier;\n    BurnVerifier burnverifier;\n    uint256 public epochLength; // now in milliseconds.\n\n    uint256 constant MAX = 4294967295; // 2^32 - 1 // no sload for constants...!\n    mapping(bytes32 => Utils.G1Point[2]) acc; // main account mapping\n    mapping(bytes32 => Utils.G1Point[2]) pending; // storage for pending transfers\n    mapping(bytes32 => uint256) lastRollOver;\n    bytes32[] nonceSet; // would be more natural to use a mapping, but they can't be deleted / reset!\n    uint256 lastGlobalUpdate = 0; // will be also used as a proxy for \"current epoch\", seeing as rollovers will be anticipated\n    // not implementing account locking for now...revisit\n\n    event TransferOccurred(Utils.G1Point[] parties); // all parties will be notified, client can determine whether it was real or not.\n    // arg is still necessary for transfers---not even so much to know when you received a transfer, as to know when you got rolled over.\n\n    constructor(address _coin, address _zether, address _burn, uint256 _epochLength) public {\n        // epoch length, like block.time, is in _seconds_. 4 is the minimum!!! (To allow a withdrawal to go through.)\n        coin = CashToken(_coin);\n        zetherverifier = ZetherVerifier(_zether);\n        burnverifier = BurnVerifier(_burn);\n        epochLength = _epochLength;\n    }\n\n    function simulateAccounts(Utils.G1Point[] memory y, uint256 epoch) view public returns (Utils.G1Point[2][] memory accounts) {\n        // in this function and others, i have to use public + memory (and hence, a superfluous copy from calldata)\n        // only because calldata structs aren't yet supported by solidity. revisit this in the future.\n        uint256 size = y.length;\n        accounts = new Utils.G1Point[2][](size);\n        for (uint256 i = 0; i < size; i++) {\n            bytes32 yHash = keccak256(abi.encode(y[i]));\n            accounts[i] = acc[yHash];\n            if (lastRollOver[yHash] < epoch) {\n                Utils.G1Point[2] memory scratch = pending[yHash];\n                accounts[i][0] = accounts[i][0].add(scratch[0]);\n                accounts[i][1] = accounts[i][1].add(scratch[1]);\n            }\n        }\n    }\n\n    function rollOver(bytes32 yHash) internal {\n        uint256 e = block.timestamp / epochLength;\n        if (lastRollOver[yHash] < e) {\n            Utils.G1Point[2][2] memory scratch = [acc[yHash], pending[yHash]];\n            acc[yHash][0] = scratch[0][0].add(scratch[1][0]);\n            acc[yHash][1] = scratch[0][1].add(scratch[1][1]);\n            // acc[yHash] = scratch[0]; // can't do this---have to do the above instead (and spend 2 sloads / stores)---because \"not supported\". revisit\n            delete pending[yHash]; // pending[yHash] = [Utils.G1Point(0, 0), Utils.G1Point(0, 0)];\n            lastRollOver[yHash] = e;\n        }\n        if (lastGlobalUpdate < e) {\n            lastGlobalUpdate = e;\n            delete nonceSet;\n        }\n    }\n\n    function registered(bytes32 yHash) internal view returns (bool) {\n        Utils.G1Point memory zero = Utils.G1Point(0, 0);\n        Utils.G1Point[2][2] memory scratch = [acc[yHash], pending[yHash]];\n        return !(scratch[0][0].eq(zero) && scratch[0][1].eq(zero) && scratch[1][0].eq(zero) && scratch[1][1].eq(zero));\n    }\n\n    function register(Utils.G1Point memory y, uint256 c, uint256 s) public {\n        // allows y to participate. c, s should be a Schnorr signature on \"this\"\n        Utils.G1Point memory K = Utils.g().mul(s).add(y.mul(c.neg()));\n        uint256 challenge = uint256(keccak256(abi.encode(address(this), y, K))).mod();\n        require(challenge == c, \"Invalid registration signature!\");\n        bytes32 yHash = keccak256(abi.encode(y));\n        require(!registered(yHash), \"Account already registered!\");\n        // pending[yHash] = [y, Utils.g()]; // \"not supported\" yet, have to do the below\n        pending[yHash][0] = y;\n        pending[yHash][1] = Utils.g();\n    }\n\n    function fund(Utils.G1Point memory y, uint256 bTransfer) public {\n        bytes32 yHash = keccak256(abi.encode(y));\n        require(registered(yHash), \"Account not yet registered.\");\n        rollOver(yHash);\n\n        require(bTransfer <= MAX, \"Deposit amount out of range.\"); // uint, so other way not necessary?\n\n        Utils.G1Point memory scratch = pending[yHash][0];\n        scratch = scratch.add(Utils.g().mul(bTransfer));\n        pending[yHash][0] = scratch;\n        require(coin.transferFrom(msg.sender, address(this), bTransfer), \"Transfer from sender failed.\");\n        require(coin.balanceOf(address(this)) <= MAX, \"Fund pushes contract past maximum value.\");\n    }\n\n    function transfer(Utils.G1Point[] memory C, Utils.G1Point memory D, Utils.G1Point[] memory y, Utils.G1Point memory u, bytes memory proof) public {\n        uint256 size = y.length;\n        Utils.G1Point[] memory CLn = new Utils.G1Point[](size);\n        Utils.G1Point[] memory CRn = new Utils.G1Point[](size);\n        require(C.length == size, \"Input array length mismatch!\");\n\n        for (uint256 i = 0; i < size; i++) {\n            bytes32 yHash = keccak256(abi.encode(y[i]));\n            require(registered(yHash), \"Account not yet registered.\");\n            rollOver(yHash);\n            Utils.G1Point[2] memory scratch = pending[yHash];\n            pending[yHash][0] = scratch[0].add(C[i]);\n            pending[yHash][1] = scratch[1].add(D);\n            // pending[yHash] = scratch; // can't do this, so have to use 2 sstores _anyway_ (as in above)\n\n            scratch = acc[yHash];\n            CLn[i] = scratch[0].add(C[i]);\n            CRn[i] = scratch[1].add(D);\n        }\n\n        bytes32 uHash = keccak256(abi.encode(u));\n        for (uint256 i = 0; i < nonceSet.length; i++) {\n            require(nonceSet[i] != uHash, \"Nonce already seen!\");\n        }\n        nonceSet.push(uHash);\n\n        require(zetherverifier.verifyTransfer(CLn, CRn, C, D, y, lastGlobalUpdate, u, proof), \"Transfer proof verification failed!\");\n\n        emit TransferOccurred(y);\n    }\n\n    function burn(Utils.G1Point memory y, uint256 bTransfer, Utils.G1Point memory u, bytes memory proof) public {\n        bytes32 yHash = keccak256(abi.encode(y));\n        require(registered(yHash), \"Account not yet registered.\");\n        rollOver(yHash);\n\n        require(0 <= bTransfer && bTransfer <= MAX, \"Transfer amount out of range.\");\n        Utils.G1Point[2] memory scratch = pending[yHash];\n        pending[yHash][0] = scratch[0].add(Utils.g().mul(bTransfer.neg()));\n\n        scratch = acc[yHash]; // simulate debit of acc---just for use in verification, won't be applied\n        scratch[0] = scratch[0].add(Utils.g().mul(bTransfer.neg()));\n        bytes32 uHash = keccak256(abi.encode(u));\n        for (uint256 i = 0; i < nonceSet.length; i++) {\n            require(nonceSet[i] != uHash, \"Nonce already seen!\");\n        }\n        nonceSet.push(uHash);\n\n        require(burnverifier.verifyBurn(scratch[0], scratch[1], y, lastGlobalUpdate, u, msg.sender, proof), \"Burn proof verification failed!\");\n        require(coin.transfer(msg.sender, bTransfer), \"This shouldn't fail... Something went severely wrong.\");\n    }\n}\n",
  "sourcePath": "/Users/benediamond/anonymous-zether/packages/protocol/contracts/ZSC.sol",
  "compiler": {
    "name": "solc",
    "version": "0.5.4+commit.9549d8ff.Emscripten.clang"
  },
  "schemaVersion": "3.0.19",
  "updatedAt": "2020-01-27T16:26:44.308Z",
  "devdoc": {
    "methods": {}
  },
  "userdoc": {
    "methods": {}
  }
}