{
  "contractName": "ZSC",
  "abi": [
    {
      "constant": true,
      "inputs": [],
      "name": "epochLength",
      "outputs": [
        {
          "name": "",
          "type": "uint256"
        }
      ],
      "payable": false,
      "stateMutability": "view",
      "type": "function"
    },
    {
      "inputs": [
        {
          "name": "_coin",
          "type": "address"
        },
        {
          "name": "_zether",
          "type": "address"
        },
        {
          "name": "_burn",
          "type": "address"
        },
        {
          "name": "_epochLength",
          "type": "uint256"
        }
      ],
      "payable": false,
      "stateMutability": "nonpayable",
      "type": "constructor"
    },
    {
      "anonymous": false,
      "inputs": [
        {
          "indexed": false,
          "name": "parties",
          "type": "bytes32[2][]"
        }
      ],
      "name": "TransferOccurred",
      "type": "event"
    },
    {
      "constant": true,
      "inputs": [
        {
          "name": "y",
          "type": "bytes32[2]"
        }
      ],
      "name": "getAcc",
      "outputs": [
        {
          "name": "",
          "type": "bytes32[2][2]"
        }
      ],
      "payable": false,
      "stateMutability": "view",
      "type": "function"
    },
    {
      "constant": true,
      "inputs": [
        {
          "name": "y",
          "type": "bytes32[2]"
        }
      ],
      "name": "getpTransfers",
      "outputs": [
        {
          "name": "",
          "type": "bytes32[2][2]"
        }
      ],
      "payable": false,
      "stateMutability": "view",
      "type": "function"
    },
    {
      "constant": true,
      "inputs": [
        {
          "name": "y",
          "type": "bytes32[2][]"
        },
        {
          "name": "epoch",
          "type": "uint256"
        }
      ],
      "name": "simulateAccounts",
      "outputs": [
        {
          "name": "accounts",
          "type": "bytes32[2][2][]"
        }
      ],
      "payable": false,
      "stateMutability": "view",
      "type": "function"
    },
    {
      "constant": false,
      "inputs": [
        {
          "name": "y",
          "type": "bytes32[2]"
        }
      ],
      "name": "register",
      "outputs": [],
      "payable": false,
      "stateMutability": "nonpayable",
      "type": "function"
    },
    {
      "constant": false,
      "inputs": [
        {
          "name": "y",
          "type": "bytes32[2]"
        },
        {
          "name": "bTransfer",
          "type": "uint256"
        }
      ],
      "name": "fund",
      "outputs": [],
      "payable": false,
      "stateMutability": "nonpayable",
      "type": "function"
    },
    {
      "constant": false,
      "inputs": [
        {
          "name": "L",
          "type": "bytes32[2][]"
        },
        {
          "name": "R",
          "type": "bytes32[2]"
        },
        {
          "name": "y",
          "type": "bytes32[2][]"
        },
        {
          "name": "u",
          "type": "bytes32[2]"
        },
        {
          "name": "proof",
          "type": "bytes"
        }
      ],
      "name": "transfer",
      "outputs": [],
      "payable": false,
      "stateMutability": "nonpayable",
      "type": "function"
    },
    {
      "constant": false,
      "inputs": [
        {
          "name": "y",
          "type": "bytes32[2]"
        },
        {
          "name": "bTransfer",
          "type": "uint256"
        },
        {
          "name": "u",
          "type": "bytes32[2]"
        },
        {
          "name": "proof",
          "type": "bytes"
        }
      ],
      "name": "burn",
      "outputs": [],
      "payable": false,
      "stateMutability": "nonpayable",
      "type": "function"
    }
  ],
  "bytecode": "0x608060405260006004556000600a5534801561001a57600080fd5b50604051608080612f0b8339810180604052608081101561003a57600080fd5b8101908080519060200190929190805190602001909291908051906020019092919080519060200190929190505050836000806101000a81548173ffffffffffffffffffffffffffffffffffffffff021916908373ffffffffffffffffffffffffffffffffffffffff16021790555082600160006101000a81548173ffffffffffffffffffffffffffffffffffffffff021916908373ffffffffffffffffffffffffffffffffffffffff16021790555081600260006101000a81548173ffffffffffffffffffffffffffffffffffffffff021916908373ffffffffffffffffffffffffffffffffffffffff1602179055508060038190555050505050612dc6806101456000396000f3fe608060405234801561001057600080fd5b50600436106100a5576000357c01000000000000000000000000000000000000000000000000000000009004806373663b5f1161007857806373663b5f1461040b5780637ea9712f14610552578063c8790d3a14610670578063f31d8e06146106fd576100a5565b806337f0d646146100aa5780635464befb146100d857806357d775f8146101105780635ec7ccfd1461012e575b600080fd5b6100d6600480360360408110156100c057600080fd5b810190808060400190919291929050505061078a565b005b61010e600480360360608110156100ee57600080fd5b810190808060400190919291929080359060200190929190505050610a3b565b005b610118610e7d565b6040518082815260200191505060405180910390f35b610409600480360360e081101561014457600080fd5b810190808035906020019064010000000081111561016157600080fd5b82018360208201111561017357600080fd5b8035906020019184604083028401116401000000008311171561019557600080fd5b9190808060200260200160405190810160405280939291908181526020016000905b8282101561020e578484839050604002016002806020026040519081016040528092919082600260200280828437600081840152601f19601f820116905080830192505050505050815260200190600101906101b7565b5050505050919291929080604001906002806020026040519081016040528092919082600260200280828437600081840152601f19601f82011690508083019250505050505091929192908035906020019064010000000081111561027257600080fd5b82018360208201111561028457600080fd5b803590602001918460408302840111640100000000831117156102a657600080fd5b9190808060200260200160405190810160405280939291908181526020016000905b8282101561031f578484839050604002016002806020026040519081016040528092919082600260200280828437600081840152601f19601f820116905080830192505050505050815260200190600101906102c8565b5050505050919291929080604001906002806020026040519081016040528092919082600260200280828437600081840152601f19601f82011690508083019250505050505091929192908035906020019064010000000081111561038357600080fd5b82018360208201111561039557600080fd5b803590602001918460018302840111640100000000831117156103b757600080fd5b91908080601f016020809104026020016040519081016040528093929190818152602001838380828437600081840152601f19601f820116905080830192505050505050509192919290505050610e83565b005b610550600480360360c081101561042157600080fd5b8101908080604001906002806020026040519081016040528092919082600260200280828437600081840152601f19601f82011690508083019250505050505091929192908035906020019092919080604001906002806020026040519081016040528092919082600260200280828437600081840152601f19601f8201169050808301925050505050509192919290803590602001906401000000008111156104ca57600080fd5b8201836020820111156104dc57600080fd5b803590602001918460018302840111640100000000831117156104fe57600080fd5b91908080601f016020809104026020016040519081016040528093929190818152602001838380828437600081840152601f19601f8201169050808301925050505050505091929192905050506119b3565b005b6105d36004803603604081101561056857600080fd5b810190808035906020019064010000000081111561058557600080fd5b82018360208201111561059757600080fd5b803590602001918460408302840111640100000000831117156105b957600080fd5b9091929391929390803590602001909291905050506123a2565b60405180806020018281038252838181518152602001915080516000925b8184101561065f5782849060200190602002015160026000925b818410156106515782846020020151600260200280838360005b83811015610640578082015181840152602081019050610625565b50505050905001926001019261060b565b9250505092600101926105f1565b925050509250505060405180910390f35b61069c6004803603604081101561068657600080fd5b810190808060400190919291929050505061265e565b604051808260026000925b818410156106ed5782846020020151600260200280838360005b838110156106dc5780820151818401526020810190506106c1565b5050505090500192600101926106a7565b9250505091505060405180910390f35b6107296004803603604081101561071357600080fd5b8101908080604001909192919290505050612725565b604051808260026000925b8184101561077a5782846020020151600260200280838360005b8381101561076957808201518184015260208101905061074e565b505050509050019260010192610734565b9250505091505060405180910390f35b6000816040516020018082600260200280828437808301925050509150506040516020818303038152906040528051906020012090506107c8612acd565b60056000838152602001908152602001600020600280602002604051908101604052809291906000905b8282101561084b57838260020201600280602002604051908101604052809291908260028015610837576020028201915b815481526020019060010190808311610823575b5050505050815260200190600101906107f2565b505050509050600060010281600160028110151561086557fe5b6020020151600160028110151561087857fe5b602002015182600160028110151561088c57fe5b6020020151600060028110151561089f57fe5b60200201518360006002811015156108b357fe5b602002015160016002811015156108c657fe5b60200201518460006002811015156108da57fe5b602002015160006002811015156108ed57fe5b602002015117171714151561096a576040517f08c379a000000000000000000000000000000000000000000000000000000000815260040180806020018281038252601b8152602001807f4163636f756e7420616c726561647920726567697374657265642e000000000081525060200191505060405180910390fd5b336007600084815260200190815260200160002060006101000a81548173ffffffffffffffffffffffffffffffffffffffff021916908373ffffffffffffffffffffffffffffffffffffffff160217905550604060048251377f077da99d806abd13c9f15ece5398525119d11e11e9836b2ee7d23f6159ad87d46020820151527f01485efa927f2ad41bff567eec88f32fb0a0f706588b4e41a8d587d008b7f87560208083015101528060056000848152602001908152602001600020906002610a35929190612afb565b50505050565b600082604051602001808260026020028082843780830192505050915050604051602081830303815290604052805190602001209050610a7a816127ec565b63ffffffff8211151515610af6576040517f08c379a000000000000000000000000000000000000000000000000000000000815260040180806020018281038252601c8152602001807f4465706f73697420616d6f756e74206f7574206f662072616e67652e0000000081525060200191505060405180910390fd5b63ffffffff600454830111151515610b59576040517f08c379a0000000000000000000000000000000000000000000000000000000008152600401808060200182810382526028815260200180612d1b6028913960400191505060405180910390fd5b610b61612b4b565b600660008381526020019081526020016000206000600281101515610b8257fe5b60020201600280602002604051908101604052809291908260028015610bbd576020028201915b815481526020019060010190808311610ba9575b50505050509050604051600182518252602083015160208301527f077da99d806abd13c9f15ece5398525119d11e11e9836b2ee7d23f6159ad87d460408301527f01485efa927f2ad41bff567eec88f32fb0a0f706588b4e41a8d587d008b7f8756060830152846080830152604080830160606040850160075afa8116905060408360808460065afa81169050801515610c5657600080fd5b505080600660008481526020019081526020016000206000600281101515610c7a57fe5b60020201906002610c8c929190612b6d565b506000809054906101000a900473ffffffffffffffffffffffffffffffffffffffff1673ffffffffffffffffffffffffffffffffffffffff166323b872dd6007600085815260200190815260200160002060009054906101000a900473ffffffffffffffffffffffffffffffffffffffff1630866040518463ffffffff167c0100000000000000000000000000000000000000000000000000000000028152600401808473ffffffffffffffffffffffffffffffffffffffff1673ffffffffffffffffffffffffffffffffffffffff1681526020018373ffffffffffffffffffffffffffffffffffffffff1673ffffffffffffffffffffffffffffffffffffffff1681526020018281526020019350505050602060405180830381600087803b158015610db857600080fd5b505af1158015610dcc573d6000803e3d6000fd5b505050506040513d6020811015610de257600080fd5b81019080805190602001909291905050501515610e67576040517f08c379a000000000000000000000000000000000000000000000000000000000815260040180806020018281038252601c8152602001807f5472616e736665722066726f6d2073656e646572206661696c65642e0000000081525060200191505060405180910390fd5b8260046000828254019250508190555050505050565b60035481565b600083519050606081604051908082528060200260200182016040528015610ec557816020015b610eb2612bad565b815260200190600190039081610eaa5790505b509050606082604051908082528060200260200182016040528015610f0457816020015b610ef1612bad565b815260200190600190039081610ee95790505b509050828851141515610f7f576040517f08c379a000000000000000000000000000000000000000000000000000000000815260040180806020018281038252601c8152602001807f496e707574206172726179206c656e677468206d69736d61746368210000000081525060200191505060405180910390fd5b60006001905060008090505b875181101561125a5760008882815181101515610fa457fe5b906020019060200201516040516020018082600260200280838360005b83811015610fdc578082015181840152602081019050610fc1565b50505050905001915050604051602081830303815290604052805190602001209050611007816127ec565b61100f612acd565b60066000838152602001908152602001600020600280602002604051908101604052809291906000905b828210156110925783826002020160028060200260405190810160405280929190826002801561107e576020028201915b81548152602001906001019080831161106a575b505050505081526020019060010190611039565b505050509050604051815151815260208251015160208201526020840260208e010151516040820152602080850260208f010151015160608201526040825160808360065afa851694506020820151518152602080830151015160208201528b51604082015260208c015160608201526040602083015160808360065afa85169450508060066000848152602001908152602001600020906002611137929190612afb565b5060056000838152602001908152602001600020600280602002604051908101604052809291906000905b828210156111bb578382600202016002806020026040519081016040528092919082600280156111a7576020028201915b815481526020019060010190808311611193575b505050505081526020019060010190611162565b505050509050604051815151815260208251015160208201526020840260208e010151516040820152602080850260208f0101510151606082015260406020850260208901015160808360065afa851694506020820151518152602080830151015160208201528b51604082015260208c0151606082015260406020850260208801015160808360065afa851694505050508080600101915050610f8b565b506001811415156112b6576040517f08c379a000000000000000000000000000000000000000000000000000000000815260040180806020018281038252602e815260200180612ced602e913960400191505060405180910390fd5b60008090506000876040516020018082600260200280838360005b838110156112ec5780820151818401526020810190506112d1565b5050505090500191505060405160208183030381529060405280519060200120905060008090505b600980549050811015611358578160098281548110151561133157fe5b9060005260206000200154141561134b5760019250611358565b8080600101915050611314565b50811515156113cf576040517f08c379a00000000000000000000000000000000000000000000000000000000081526004018080602001828103825260138152602001807f4e6f6e636520616c7265616479207365656e210000000000000000000000000081525060200191505060405180910390fd5b600160009054906101000a900473ffffffffffffffffffffffffffffffffffffffff1673ffffffffffffffffffffffffffffffffffffffff16634e8ee0e26040518163ffffffff167c010000000000000000000000000000000000000000000000000000000002815260040160206040518083038186803b15801561145357600080fd5b505afa158015611467573d6000803e3d6000fd5b505050506040513d602081101561147d57600080fd5b810190808051906020019092919050505086111561153f57600160009054906101000a900473ffffffffffffffffffffffffffffffffffffffff1673ffffffffffffffffffffffffffffffffffffffff1663a00547ab876040518263ffffffff167c010000000000000000000000000000000000000000000000000000000002815260040180828152602001915050600060405180830381600087803b15801561152657600080fd5b505af115801561153a573d6000803e3d6000fd5b505050505b600160009054906101000a900473ffffffffffffffffffffffffffffffffffffffff1673ffffffffffffffffffffffffffffffffffffffff16631659e67d86868e8e8e600a548f8f6040518963ffffffff167c01000000000000000000000000000000000000000000000000000000000281526004018080602001806020018060200189600260200280838360005b838110156115e95780820151818401526020810190506115ce565b505050509050018060200188815260200187600260200280838360005b83811015611621578082015181840152602081019050611606565b505050509050018060200186810386528e8181518152602001915080516000925b8184101561168d57828490602001906020020151600260200280838360005b8381101561167c578082015181840152602081019050611661565b505050509050019260010192611642565b9250505086810385528d8181518152602001915080516000925b818410156116f257828490602001906020020151600260200280838360005b838110156116e15780820151818401526020810190506116c6565b5050505090500192600101926116a7565b9250505086810384528c8181518152602001915080516000925b8184101561175757828490602001906020020151600260200280838360005b8381101561174657808201518184015260208101905061172b565b50505050905001926001019261170c565b9250505086810383528a8181518152602001915080516000925b818410156117bc57828490602001906020020151600260200280838360005b838110156117ab578082015181840152602081019050611790565b505050509050019260010192611771565b92505050868103825287818151815260200191508051906020019080838360005b838110156117f85780820151818401526020810190506117dd565b50505050905090810190601f1680156118255780820380516001836020036101000a031916815260200191505b509d505050505050505050505050505060206040518083038186803b15801561184d57600080fd5b505afa158015611861573d6000803e3d6000fd5b505050506040513d602081101561187757600080fd5b810190808051906020019092919050505015156118df576040517f08c379a0000000000000000000000000000000000000000000000000000000008152600401808060200182810382526023815260200180612d436023913960400191505060405180910390fd5b60098190806001815401808255809150509060018203906000526020600020016000909192909190915055507f4ef6ed22b1551aeadeb80e67bb3a38788491e81527cc70a85bff611e9e51e18a8960405180806020018281038252838181518152602001915080516000925b8184101561199657828490602001906020020151600260200280838360005b8381101561198557808201518184015260208101905061196a565b50505050905001926001019261194b565b925050509250505060405180910390a15050505050505050505050565b6000846040516020018082600260200280838360005b838110156119e45780820151818401526020810190506119c9565b50505050905001915050604051602081830303815290604052805190602001209050611a0f816127ec565b600073ffffffffffffffffffffffffffffffffffffffff166007600083815260200190815260200160002060009054906101000a900473ffffffffffffffffffffffffffffffffffffffff1673ffffffffffffffffffffffffffffffffffffffff1614151515611ae7576040517f08c379a00000000000000000000000000000000000000000000000000000000081526004018080602001828103825260158152602001807f556e72656769737465726564206163636f756e7421000000000000000000000081525060200191505060405180910390fd5b83600011158015611afc575063ffffffff8411155b1515611b70576040517f08c379a000000000000000000000000000000000000000000000000000000000815260040180806020018281038252601d8152602001807f5472616e7366657220616d6f756e74206f7574206f662072616e67652e00000081525060200191505060405180910390fd5b611b78612acd565b60066000838152602001908152602001600020600280602002604051908101604052809291906000905b82821015611bfb57838260020201600280602002604051908101604052809291908260028015611be7576020028201915b815481526020019060010190808311611bd3575b505050505081526020019060010190611ba2565b5050505090506001604051825151815260208351015160208201527f077da99d806abd13c9f15ece5398525119d11e11e9836b2ee7d23f6159ad87d460408201527f01485efa927f2ad41bff567eec88f32fb0a0f706588b4e41a8d587d008b7f8756060820152867f30644e72e131a029b85045b68181585d2833e84879b9709143e1f593f0000001036080820152604080820160606040840160075afa821691506040835160808360065afa82169150811515611cb857600080fd5b50508060066000848152602001908152602001600020906002611cdc929190612afb565b5060056000838152602001908152602001600020600280602002604051908101604052809291906000905b82821015611d6057838260020201600280602002604051908101604052809291908260028015611d4c576020028201915b815481526020019060010190808311611d38575b505050505081526020019060010190611d07565b5050505090506001604051825151815260208351015160208201527f077da99d806abd13c9f15ece5398525119d11e11e9836b2ee7d23f6159ad87d460408201527f01485efa927f2ad41bff567eec88f32fb0a0f706588b4e41a8d587d008b7f8756060820152867f30644e72e131a029b85045b68181585d2833e84879b9709143e1f593f0000001036080820152604080820160606040840160075afa821691506040835160808360065afa82169150811515611e1d57600080fd5b505060008090506000856040516020018082600260200280838360005b83811015611e55578082015181840152602081019050611e3a565b5050505090500191505060405160208183030381529060405280519060200120905060008090505b600980549050811015611ec15781600982815481101515611e9a57fe5b90600052602060002001541415611eb45760019250611ec1565b8080600101915050611e7d565b5081151515611f38576040517f08c379a00000000000000000000000000000000000000000000000000000000081526004018080602001828103825260138152602001807f4e6f6e636520616c7265616479207365656e210000000000000000000000000081525060200191505060405180910390fd5b600260009054906101000a900473ffffffffffffffffffffffffffffffffffffffff1673ffffffffffffffffffffffffffffffffffffffff1663d79e8413846000600281101515611f8557fe5b6020020151856001600281101515611f9957fe5b60200201518b8b600a548c8c6040518863ffffffff167c01000000000000000000000000000000000000000000000000000000000281526004018088600260200280838360005b83811015611ffb578082015181840152602081019050611fe0565b5050505090500187600260200280838360005b8381101561202957808201518184015260208101905061200e565b5050505090500186600260200280838360005b8381101561205757808201518184015260208101905061203c565b5050505090500185815260200184815260200183600260200280838360005b83811015612091578082015181840152602081019050612076565b5050505090500180602001828103825283818151815260200191508051906020019080838360005b838110156120d45780820151818401526020810190506120b9565b50505050905090810190601f1680156121015780820380516001836020036101000a031916815260200191505b509850505050505050505060206040518083038186803b15801561212457600080fd5b505afa158015612138573d6000803e3d6000fd5b505050506040513d602081101561214e57600080fd5b810190808051906020019092919050505015156121d3576040517f08c379a000000000000000000000000000000000000000000000000000000000815260040180806020018281038252601f8152602001807f4275726e2070726f6f6620766572696669636174696f6e206661696c6564210081525060200191505060405180910390fd5b6000809054906101000a900473ffffffffffffffffffffffffffffffffffffffff1673ffffffffffffffffffffffffffffffffffffffff1663a9059cbb6007600087815260200190815260200160002060009054906101000a900473ffffffffffffffffffffffffffffffffffffffff16896040518363ffffffff167c0100000000000000000000000000000000000000000000000000000000028152600401808373ffffffffffffffffffffffffffffffffffffffff1673ffffffffffffffffffffffffffffffffffffffff16815260200182815260200192505050602060405180830381600087803b1580156122ca57600080fd5b505af11580156122de573d6000803e3d6000fd5b505050506040513d60208110156122f457600080fd5b8101908080519060200190929190505050151561235c576040517f08c379a0000000000000000000000000000000000000000000000000000000008152600401808060200182810382526035815260200180612d666035913960400191505060405180910390fd5b8660046000828254039250508190555060098190806001815401808255809150509060018203906000526020600020016000909192909190915055505050505050505050565b60606000848490509050806040519080825280602002602001820160405280156123e657816020015b6123d3612bcf565b8152602001906001900390816123cb5790505b50915060008090505b81811015612655576000868683818110151561240757fe5b90506040020160405160200180826002602002808284378083019250505091505060405160208183030381529060405280519060200120905060056000828152602001908152602001600020600280602002604051908101604052809291906000905b828210156124c3578382600202016002806020026040519081016040528092919082600280156124af576020028201915b81548152602001906001019080831161249b575b50505050508152602001906001019061246a565b5050505084838151811015156124d557fe5b90602001906020020181905250846008600083815260200190815260200160002054101561264757612505612acd565b60066000838152602001908152602001600020600280602002604051908101604052809291906000905b8282101561258857838260020201600280602002604051908101604052809291908260028015612574576020028201915b815481526020019060010190808311612560575b50505050508152602001906001019061252f565b5050505090506001604051825151815260208351015160208201526020850260208801015151516040820152602080860260208901015151015160608201526040602086026020890101515160808360065afa82169150602083015151815260208084015101516020820152602080860260208901015101515160408201526020806020870260208a0101510151015160608201526040602080870260208a010151015160808360065afa8216915081151561264357600080fd5b5050505b5080806001019150506123ef565b50509392505050565b612666612acd565b6005600083604051602001808260026020028082843780830192505050915050604051602081830303815290604052805190602001208152602001908152602001600020600280602002604051908101604052809291906000905b8282101561271a57838260020201600280602002604051908101604052809291908260028015612706576020028201915b8154815260200190600101908083116126f2575b5050505050815260200190600101906126c1565b505050509050919050565b61272d612acd565b6006600083604051602001808260026020028082843780830192505050915050604051602081830303815290604052805190602001208152602001908152602001600020600280602002604051908101604052809291906000905b828210156127e1578382600202016002806020026040519081016040528092919082600280156127cd576020028201915b8154815260200190600101908083116127b9575b505050505081526020019060010190612788565b505050509050919050565b6000600354620f4240428115156127ff57fe5b0481151561280957fe5b0490508060086000848152602001908152602001600020541015612aa95761282f612bfd565b604080519081016040528060056000868152602001908152602001600020600280602002604051908101604052809291906000905b828210156128bd578382600202016002806020026040519081016040528092919082600280156128a9576020028201915b815481526020019060010190808311612895575b505050505081526020019060010190612864565b50505050815260200160066000868152602001908152602001600020600280602002604051908101604052809291906000905b8282101561294957838260020201600280602002604051908101604052809291908260028015612935576020028201915b815481526020019060010190808311612921575b5050505050815260200190600101906128f0565b50505050815250905060016040518251515181526020835151015160208201526020830151515160408201526020808401515101516060820152604083515160808360065afa82169150602083510151518152602080845101510151602082015260208084015101515160408201526020806020850151015101516060820152604060208451015160808360065afa821691508115156129e857600080fd5b50508060006002811015156129f957fe5b602002015160056000858152602001908152602001600020906002612a1f929190612afb565b50604080519081016040528060408051908101604052806000600102815260200160006001028152508152602001604080519081016040528060006001028152602001600060010281525081525060066000858152602001908152602001600020906002612a8e929190612afb565b50816008600085815260200190815260200160002081905550505b80600a541015612ac95780600a8190555060096000612ac89190612c2c565b5b5050565b6080604051908101604052806002905b612ae5612bad565b815260200190600190039081612add5790505090565b82600280028101928215612b3a579160200282015b82811115612b3957825182906002612b29929190612c4d565b5091602001919060020190612b10565b5b509050612b479190612c8d565b5090565b6040805190810160405280600290602082028038833980820191505090505090565b8260028101928215612b9c579160200282015b82811115612b9b578251825591602001919060010190612b80565b5b509050612ba99190612cb9565b5090565b6040805190810160405280600290602082028038833980820191505090505090565b6080604051908101604052806002905b612be7612bad565b815260200190600190039081612bdf5790505090565b610100604051908101604052806002905b612c16612bcf565b815260200190600190039081612c0e5790505090565b5080546000825590600052602060002090810190612c4a9190612cb9565b50565b8260028101928215612c7c579160200282015b82811115612c7b578251825591602001919060010190612c60565b5b509050612c899190612cb9565b5090565b612cb691905b80821115612cb25760008181612ca99190612cde565b50600201612c93565b5090565b90565b612cdb91905b80821115612cd7576000816000905550600101612cbf565b5090565b90565b50600081556001016000905556fe456c6c6970746963206375727665206f7065726174696f6e73206661696c7572652e2042616420706f696e74733f46756e642070757368657320636f6e74726163742070617374206d6178696d756d2076616c75652e5472616e736665722070726f6f6620766572696669636174696f6e206661696c656421546869732073686f756c646e2774206661696c2e2e2e20536f6d657468696e672077656e74207365766572656c792077726f6e672ea165627a7a72305820752c097586eb447be251dd0035303b3880c3e7cffd8978a660111f8ca6d1cc610029",
  "source": "pragma solidity 0.5.4;\n\nimport './ZetherVerifier.sol';\nimport './BurnVerifier.sol';\nimport './CashToken.sol';\n\ncontract ZSC {\n    CashToken coin;\n    ZetherVerifier zetherverifier;\n    BurnVerifier burnverifier;\n    uint256 public epochLength; // now in milliseconds.\n\n    uint256 bTotal = 0; // could use erc20.balanceOf(this), but (even pure / view) calls cost gas during EVM execution\n    uint256 constant MAX = 4294967295; // 2^32 - 1 // no sload for constants...!\n    mapping(bytes32 => bytes32[2][2]) acc; // main account mapping\n    mapping(bytes32 => bytes32[2][2]) pTransfers; // storage for pending transfers\n    mapping(bytes32 => address) ethAddrs;\n    mapping(bytes32 => uint256) lastRollOver;\n    bytes32[] nonceSet; // would be more natural to use a mapping, but they can't be deleted / reset!\n    uint256 lastGlobalUpdate = 0; // will be also used as a proxy for \"current epoch\", seeing as rollovers will be anticipated\n    // not implementing account locking for now...revisit\n\n    event TransferOccurred(bytes32[2][] parties); // all parties will be notified, client can determine whether it was real or not.\n    // arg is still necessary for transfers---not even so much to know when you received a transfer, as to know when you got rolled over.\n\n    constructor(address _coin, address _zether, address _burn, uint256 _epochLength) public {\n        coin = CashToken(_coin);\n        zetherverifier = ZetherVerifier(_zether);\n        burnverifier = BurnVerifier(_burn);\n        epochLength = _epochLength;\n    }\n\n    function getAcc(bytes32[2] calldata y) view external returns (bytes32[2][2] memory) {\n        return acc[keccak256(abi.encodePacked(y))];\n    }\n\n    function getpTransfers(bytes32[2] calldata y) view external returns (bytes32[2][2] memory) {\n        return pTransfers[keccak256(abi.encodePacked(y))];\n    }\n\n    function simulateAccounts(bytes32[2][] calldata y, uint256 epoch) view external returns (bytes32[2][2][] memory accounts) {\n        // all of this could be assembled locally by querying `acc` and `pTransfers` (and `lastRollOver`) and assembling things by hand\n        // turns out this is extremely _slow_ though, because of the ~ 4 * N queries which must be made. turns out it's much faster\n        // to simply move the entire process into a contract method, and in fact this allows us to make the above 3 private\n        uint256 size = y.length;\n        accounts = new bytes32[2][2][](size);\n        for (uint256 i = 0; i < size; i++) {\n            bytes32 yHash = keccak256(abi.encodePacked(y[i]));\n            accounts[i] = acc[yHash];\n            if (lastRollOver[yHash] < epoch) {\n                bytes32[2][2] memory scratch = pTransfers[yHash];\n                assembly {\n                    let result := 1\n                    let m := mload(0x40)\n                    mstore(m, mload(mload(scratch)))\n                    mstore(add(m, 0x20), mload(add(mload(scratch), 0x20)))\n                    mstore(add(m, 0x40), mload(mload(mload(add(add(accounts, 0x20), mul(i, 0x20))))))\n                    mstore(add(m, 0x60), mload(add(mload(mload(add(add(accounts, 0x20), mul(i, 0x20)))), 0x20)))\n                    result := and(result, staticcall(gas, 0x06, m, 0x80, mload(mload(add(add(accounts, 0x20), mul(i, 0x20)))), 0x40))\n                    mstore(m, mload(mload(add(scratch, 0x20))))\n                    mstore(add(m, 0x20), mload(add(mload(add(scratch, 0x20)), 0x20)))\n                    mstore(add(m, 0x40), mload(mload(add(mload(add(add(accounts, 0x20), mul(i, 0x20))), 0x20))))\n                    mstore(add(m, 0x60), mload(add(mload(add(mload(add(add(accounts, 0x20), mul(i, 0x20))), 0x20)), 0x20)))\n                    result := and(result, staticcall(gas, 0x06, m, 0x80, mload(add(mload(add(add(accounts, 0x20), mul(i, 0x20))), 0x20)), 0x40))\n                    if iszero(result) {\n                        revert(0, 0)\n                    }\n                }\n            }\n        }\n    }\n\n    function rollOver(bytes32 yHash) internal {\n        uint256 e = block.timestamp / 1000000 / epochLength; // can block.timestamp be \"gamed\"?\n        // https://github.com/ethereum/wiki/blob/c02254611f218f43cbb07517ca8e5d00fd6d6d75/Block-Protocol-2.0.md\n        // note that block.timestamp is technically in _nanoseconds_, although its trailing 3 digits are always 0 (so really micro)\n        if (lastRollOver[yHash] < e) {\n            bytes32[2][2][2] memory scratch = [acc[yHash], pTransfers[yHash]];\n            assembly {\n                let result := 1\n                let m := mload(0x40)\n                mstore(m, mload(mload(mload(scratch))))\n                mstore(add(m, 0x20), mload(add(mload(mload(scratch)), 0x20)))\n                mstore(add(m, 0x40), mload(mload(mload(add(scratch, 0x20)))))\n                mstore(add(m, 0x60), mload(add(mload(mload(add(scratch, 0x20))), 0x20)))\n                result := and(result, staticcall(gas, 0x06, m, 0x80, mload(mload(scratch)), 0x40))\n                mstore(m, mload(mload(add(mload(scratch), 0x20))))\n                mstore(add(m, 0x20), mload(add(mload(add(mload(scratch), 0x20)), 0x20)))\n                mstore(add(m, 0x40), mload(mload(add(mload(add(scratch, 0x20)), 0x20))))\n                mstore(add(m, 0x60), mload(add(mload(add(mload(add(scratch, 0x20)), 0x20)), 0x20)))\n                result := and(result, staticcall(gas, 0x06, m, 0x80, mload(add(mload(scratch), 0x20)), 0x40))\n                if iszero(result) {\n                    revert(0, 0)\n                }\n            }\n            acc[yHash] = scratch[0];\n            pTransfers[yHash] = [[bytes32(0), bytes32(0)], [bytes32(0), bytes32(0)]];\n            lastRollOver[yHash] = e;\n        }\n        if (lastGlobalUpdate < e) {\n            lastGlobalUpdate = e;\n            delete nonceSet;\n        }\n    }\n\n    function register(bytes32[2] calldata y) external { // keeping this as is\n        bytes32 yHash = keccak256(abi.encodePacked(y));\n        bytes32[2][2] memory scratch = acc[yHash];\n        require((scratch[0][0] | scratch[0][1] | scratch[1][0] | scratch[1][1]) == 0x00, \"Account already registered.\");\n        ethAddrs[yHash] = msg.sender; // eth address will be _permanently_ bound to y\n        // warning: front-running danger. client should verify that he was not front-run before depositing funds to y!\n        assembly {\n            calldatacopy(mload(scratch), 0x04, 0x40) // copy contents of y to first inner array of scratch\n            mstore(mload(add(scratch, 0x20)), 0x077da99d806abd13c9f15ece5398525119d11e11e9836b2ee7d23f6159ad87d4)\n            mstore(add(mload(add(scratch, 0x20)), 0x20), 0x01485efa927f2ad41bff567eec88f32fb0a0f706588b4e41a8d587d008b7f875)\n            // account of y is now [y, g] = ElG_y(e, 1). sentinel for having registered\n        }\n        acc[yHash] = scratch;\n    }\n\n    function fund(bytes32[2] calldata y, uint256 bTransfer) external {\n        bytes32 yHash = keccak256(abi.encodePacked(y));\n        rollOver(yHash);\n\n        // registration check here would be redundant, as any `transferFrom` the 0 address will necessarily fail. save an sload\n        require(bTransfer <= MAX, \"Deposit amount out of range.\"); // uint, so other way not necessary?\n        require(bTransfer + bTotal <= MAX, \"Fund pushes contract past maximum value.\");\n        // if pTransfers[yHash] == [0, 0, 0, 0] then an add and a write will be equivalent...\n        bytes32[2] memory scratch = pTransfers[yHash][0];\n        // won't let me assign this array using literals / casts\n        assembly {\n            let m := mload(0x40)\n            let result := 1\n            mstore(m, mload(scratch))\n            mstore(add(m, 0x20), mload(add(scratch, 0x20)))\n            mstore(add(m, 0x40), 0x077da99d806abd13c9f15ece5398525119d11e11e9836b2ee7d23f6159ad87d4)\n            mstore(add(m, 0x60), 0x01485efa927f2ad41bff567eec88f32fb0a0f706588b4e41a8d587d008b7f875)\n            mstore(add(m, 0x80), bTransfer) // b will hopefully be a primitive / literal and not a pointer / address?\n            result := and(result, staticcall(gas, 0x07, add(m, 0x40), 0x60, add(m, 0x40), 0x40))\n            result := and(result, staticcall(gas, 0x06, m, 0x80, scratch, 0x40))\n            if iszero(result) {\n                revert(0, 0)\n            }\n        }\n        pTransfers[yHash][0] = scratch;\n        require(coin.transferFrom(ethAddrs[yHash], address(this), bTransfer), \"Transfer from sender failed.\");\n        // front-running here would be disadvantageous, but still prevent it here by using ethAddrs[yHash] instead of msg.sender\n        // also adds flexibility: can later issue messages from arbitrary ethereum accounts.\n        bTotal += bTransfer;\n    }\n\n    function transfer(bytes32[2][] memory L, bytes32[2] memory R, bytes32[2][] memory y, bytes32[2] memory u, bytes memory proof) public {\n        uint256 size = y.length;\n        bytes32[2][] memory CLn = new bytes32[2][](size);\n        bytes32[2][] memory CRn = new bytes32[2][](size);\n        require(L.length == size, \"Input array length mismatch!\");\n        uint256 result = 1;\n        for (uint256 i = 0; i < y.length; i++) {\n            bytes32 yHash = keccak256(abi.encodePacked(y[i]));\n            rollOver(yHash);\n            bytes32[2][2] memory scratch = pTransfers[yHash];\n            assembly {\n                let m := mload(0x40)\n                mstore(m, mload(mload(scratch)))\n                mstore(add(m, 0x20), mload(add(mload(scratch), 0x20)))\n                // calldatacopy(add(m, 0x40), add(0x104, mul(i, 0x40)), 0x40) // copy L[i] onto running block\n                // having to change external --> public to avoid stacktoodeep\n                // as a result, have to use the below two lines instead of the above single line.\n                mstore(add(m, 0x40), mload(mload(add(add(L, 0x20), mul(i, 0x20)))))\n                mstore(add(m, 0x60), mload(add(mload(add(add(L, 0x20), mul(i, 0x20))), 0x20)))\n                result := and(result, staticcall(gas, 0x06, m, 0x80, mload(scratch), 0x40))\n                mstore(m, mload(mload(add(scratch, 0x20))))\n                mstore(add(m, 0x20), mload(add(mload(add(scratch, 0x20)), 0x20)))\n                // calldatacopy(add(m, 0x40), 0x24, 0x40) // copy R onto running block\n                mstore(add(m, 0x40), mload(R))\n                mstore(add(m, 0x60), mload(add(R, 0x20)))\n                result := and(result, staticcall(gas, 0x06, m, 0x80, mload(add(scratch, 0x20)), 0x40))\n            }\n            pTransfers[yHash] = scratch; // credit / debit / neither y's account.\n            scratch = acc[yHash];\n            assembly {\n                let m := mload(0x40)\n                mstore(m, mload(mload(scratch)))\n                mstore(add(m, 0x20), mload(add(mload(scratch), 0x20)))\n                mstore(add(m, 0x40), mload(mload(add(add(L, 0x20), mul(i, 0x20)))))\n                mstore(add(m, 0x60), mload(add(mload(add(add(L, 0x20), mul(i, 0x20))), 0x20)))\n                result := and(result, staticcall(gas, 0x06, m, 0x80, mload(add(add(CLn, 0x20), mul(i, 0x20))), 0x40))\n                mstore(m, mload(mload(add(scratch, 0x20))))\n                mstore(add(m, 0x20), mload(add(mload(add(scratch, 0x20)), 0x20)))\n                mstore(add(m, 0x40), mload(R))\n                mstore(add(m, 0x60), mload(add(R, 0x20)))\n                result := and(result, staticcall(gas, 0x06, m, 0x80, mload(add(add(CRn, 0x20), mul(i, 0x20))), 0x40))\n            }\n        }\n        require(result == 1, \"Elliptic curve operations failure. Bad points?\");\n\n        // warning: no check that recipients are registered accounts, i.e., that _every_ y has been registered to.\n        // make sure that you register your eth account to your pubkey before receiving funds (unless you're using a throwaway, see below).\n        // if you don't, your registration could be pre-empted by an adversary, necessitating that you further transfer before withdrawing\n        // if this pre-empt goes unnoticed, and the further transfer is _not_ taken prior to withdrawal, then you'll lose funds\n        // this is a design decision: could require everyone to be registered...? but this would dampen anonymity a bit. i.e., throwaways\n        // it would be more convenient to not have to register a (new, random) eth account to each throwaway you make.\n        // sure, an adversary could latch on to your throwaway, but you were going to transfer it back to your main account anyway, so who cares?\n        // thus the burden is thus now on you, the _recipient_, to make sure you (successfully) register before receiving funds,\n        // and if you don't and re pre-empted / front-run, to _notice_ and to transfer to a new account before withdrawing\n        // this won't be an issue in practice, as the client software will _force_ you to register right away when your public key is generated,\n        // and will notify you if the process is compromised.\n\n        bool seen = false;\n        bytes32 uHash = keccak256(abi.encodePacked(u));\n        for (uint256 i = 0; i < nonceSet.length; i++) {\n            if (nonceSet[i] == uHash) {\n                seen = true;\n                break;\n            }\n        }\n        require(!seen, \"Nonce already seen!\");\n        if (size > zetherverifier.baseSize()) {\n            zetherverifier.extendBase(size);\n        }\n        require(zetherverifier.verifyTransfer(CLn, CRn, L, R, y, lastGlobalUpdate, u, proof), \"Transfer proof verification failed!\");\n\n        nonceSet.push(uHash);\n        emit TransferOccurred(y);\n    }\n\n    function burn(bytes32[2] memory y, uint256 bTransfer, bytes32[2] memory u, bytes memory proof) public {\n        bytes32 yHash = keccak256(abi.encodePacked(y));\n        rollOver(yHash);\n\n        require(ethAddrs[yHash] != address(0), \"Unregistered account!\"); // not necessary for safety, but will prevent accidentally withdrawing to the 0 address\n        require(0 <= bTransfer && bTransfer <= MAX, \"Transfer amount out of range.\");\n        bytes32[2][2] memory scratch = pTransfers[yHash]; // could technically use sload, but... let's not go there.\n        assembly {\n            let result := 1\n            let m := mload(0x40)\n            mstore(m, mload(mload(scratch)))\n            mstore(add(m, 0x20), mload(add(mload(scratch), 0x20)))\n            // load bulletproof generator here\n            mstore(add(m, 0x40), 0x077da99d806abd13c9f15ece5398525119d11e11e9836b2ee7d23f6159ad87d4) // g_x\n            mstore(add(m, 0x60), 0x01485efa927f2ad41bff567eec88f32fb0a0f706588b4e41a8d587d008b7f875) // g_y\n            mstore(add(m, 0x80), sub(0x30644e72e131a029b85045b68181585d2833e84879b9709143e1f593f0000001, bTransfer))\n            result := and(result, staticcall(gas, 0x07, add(m, 0x40), 0x60, add(m, 0x40), 0x40))\n            result := and(result, staticcall(gas, 0x06, m, 0x80, mload(scratch), 0x40)) // scratch[0] = acc[yHash][0] * g ^ -b, scratch[1] doesn't change\n            if iszero(result) {\n                revert(0, 0)\n            }\n        }\n        pTransfers[yHash] = scratch; // debit y's balance\n        scratch = acc[yHash]; // simulate debit of acc---just for use in verification, won't be applied\n        assembly {\n            let result := 1\n            let m := mload(0x40)\n            mstore(m, mload(mload(scratch)))\n            mstore(add(m, 0x20), mload(add(mload(scratch), 0x20)))\n            mstore(add(m, 0x40), 0x077da99d806abd13c9f15ece5398525119d11e11e9836b2ee7d23f6159ad87d4) // g_x\n            mstore(add(m, 0x60), 0x01485efa927f2ad41bff567eec88f32fb0a0f706588b4e41a8d587d008b7f875) // g_y\n            mstore(add(m, 0x80), sub(0x30644e72e131a029b85045b68181585d2833e84879b9709143e1f593f0000001, bTransfer))\n            result := and(result, staticcall(gas, 0x07, add(m, 0x40), 0x60, add(m, 0x40), 0x40))\n            result := and(result, staticcall(gas, 0x06, m, 0x80, mload(scratch), 0x40)) // scratch[0] = acc[yHash][0] * g ^ -b, scratch[1] doesn't change\n            if iszero(result) {\n                revert(0, 0)\n            }\n        }\n        bool seen = false;\n        bytes32 uHash = keccak256(abi.encodePacked(u));\n        for (uint256 i = 0; i < nonceSet.length; i++) {\n            if (nonceSet[i] == uHash) { // does this have to repeat the sload for each iteration?!? revisit\n                seen = true;\n                break;\n            }\n        }\n        require(!seen, \"Nonce already seen!\");\n        require(burnverifier.verifyBurn(scratch[0], scratch[1], y, bTransfer, lastGlobalUpdate, u, proof), \"Burn proof verification failed!\");\n        require(coin.transfer(ethAddrs[yHash], bTransfer), \"This shouldn't fail... Something went severely wrong.\");\n        // note: change from Zether spec. should use bound address not msg.sender, to prevent \"front-running attack\".\n        bTotal -= bTransfer;\n        nonceSet.push(uHash);\n    }\n}\n",
  "sourcePath": "/Users/stuarthunter/jpmorgan/anonymous-zether/packages/protocol/contracts/ZSC.sol",
  "compiler": {
    "name": "solc",
    "version": "0.5.4+commit.9549d8ff.Emscripten.clang"
  },
  "schemaVersion": "3.0.6",
  "updatedAt": "2019-05-16T20:05:16.798Z",
  "devdoc": {
    "methods": {}
  },
  "userdoc": {
    "methods": {}
  }
}