{
  "contractName": "ZSC",
  "abi": [
    {
      "constant": true,
      "inputs": [],
      "name": "epochLength",
      "outputs": [
        {
          "name": "",
          "type": "uint256"
        }
      ],
      "payable": false,
      "stateMutability": "view",
      "type": "function"
    },
    {
      "inputs": [
        {
          "name": "_coin",
          "type": "address"
        },
        {
          "name": "_zether",
          "type": "address"
        },
        {
          "name": "_burn",
          "type": "address"
        },
        {
          "name": "_epochLength",
          "type": "uint256"
        }
      ],
      "payable": false,
      "stateMutability": "nonpayable",
      "type": "constructor"
    },
    {
      "anonymous": false,
      "inputs": [
        {
          "indexed": false,
          "name": "parties",
          "type": "bytes32[2][]"
        }
      ],
      "name": "TransferOccurred",
      "type": "event"
    },
    {
      "constant": true,
      "inputs": [
        {
          "name": "y",
          "type": "bytes32[2][]"
        },
        {
          "name": "epoch",
          "type": "uint256"
        }
      ],
      "name": "simulateAccounts",
      "outputs": [
        {
          "name": "accounts",
          "type": "bytes32[2][2][]"
        }
      ],
      "payable": false,
      "stateMutability": "view",
      "type": "function"
    },
    {
      "constant": false,
      "inputs": [
        {
          "name": "y",
          "type": "bytes32[2]"
        },
        {
          "name": "bTransfer",
          "type": "uint256"
        }
      ],
      "name": "fund",
      "outputs": [],
      "payable": false,
      "stateMutability": "nonpayable",
      "type": "function"
    },
    {
      "constant": false,
      "inputs": [
        {
          "name": "C",
          "type": "bytes32[2][]"
        },
        {
          "name": "D",
          "type": "bytes32[2]"
        },
        {
          "name": "y",
          "type": "bytes32[2][]"
        },
        {
          "name": "u",
          "type": "bytes32[2]"
        },
        {
          "name": "proof",
          "type": "bytes"
        }
      ],
      "name": "transfer",
      "outputs": [],
      "payable": false,
      "stateMutability": "nonpayable",
      "type": "function"
    },
    {
      "constant": false,
      "inputs": [
        {
          "name": "y",
          "type": "bytes32[2]"
        },
        {
          "name": "bTransfer",
          "type": "uint256"
        },
        {
          "name": "u",
          "type": "bytes32[2]"
        },
        {
          "name": "proof",
          "type": "bytes"
        }
      ],
      "name": "burn",
      "outputs": [],
      "payable": false,
      "stateMutability": "nonpayable",
      "type": "function"
    }
  ],
  "bytecode": "0x60806040526000600455600060095534801561001a57600080fd5b506040516080806127538339810180604052608081101561003a57600080fd5b8101908080519060200190929190805190602001909291908051906020019092919080519060200190929190505050836000806101000a81548173ffffffffffffffffffffffffffffffffffffffff021916908373ffffffffffffffffffffffffffffffffffffffff16021790555082600160006101000a81548173ffffffffffffffffffffffffffffffffffffffff021916908373ffffffffffffffffffffffffffffffffffffffff16021790555081600260006101000a81548173ffffffffffffffffffffffffffffffffffffffff021916908373ffffffffffffffffffffffffffffffffffffffff160217905550806003819055505050505061260e806101456000396000f3fe608060405234801561001057600080fd5b5060043610610074576000357c0100000000000000000000000000000000000000000000000000000000900480635464befb1461007957806357d775f8146100b15780635ec7ccfd146100cf57806373663b5f146103ac5780637ea9712f146104f3575b600080fd5b6100af6004803603606081101561008f57600080fd5b810190808060400190919291929080359060200190929190505050610611565b005b6100b9610a20565b6040518082815260200191505060405180910390f35b6103aa600480360360e08110156100e557600080fd5b810190808035906020019064010000000081111561010257600080fd5b82018360208201111561011457600080fd5b8035906020019184604083028401116401000000008311171561013657600080fd5b9190808060200260200160405190810160405280939291908181526020016000905b828210156101af578484839050604002016002806020026040519081016040528092919082600260200280828437600081840152601f19601f82011690508083019250505050505081526020019060010190610158565b5050505050919291929080604001906002806020026040519081016040528092919082600260200280828437600081840152601f19601f82011690508083019250505050505091929192908035906020019064010000000081111561021357600080fd5b82018360208201111561022557600080fd5b8035906020019184604083028401116401000000008311171561024757600080fd5b9190808060200260200160405190810160405280939291908181526020016000905b828210156102c0578484839050604002016002806020026040519081016040528092919082600260200280828437600081840152601f19601f82011690508083019250505050505081526020019060010190610269565b5050505050919291929080604001906002806020026040519081016040528092919082600260200280828437600081840152601f19601f82011690508083019250505050505091929192908035906020019064010000000081111561032457600080fd5b82018360208201111561033657600080fd5b8035906020019184600183028401116401000000008311171561035857600080fd5b91908080601f016020809104026020016040519081016040528093929190818152602001838380828437600081840152601f19601f820116905080830192505050505050509192919290505050610a26565b005b6104f1600480360360c08110156103c257600080fd5b8101908080604001906002806020026040519081016040528092919082600260200280828437600081840152601f19601f82011690508083019250505050505091929192908035906020019092919080604001906002806020026040519081016040528092919082600260200280828437600081840152601f19601f82011690508083019250505050505091929192908035906020019064010000000081111561046b57600080fd5b82018360208201111561047d57600080fd5b8035906020019184600183028401116401000000008311171561049f57600080fd5b91908080601f016020809104026020016040519081016040528093929190818152602001838380828437600081840152601f19601f82011690508083019250505050505050919291929050505061146e565b005b6105746004803603604081101561050957600080fd5b810190808035906020019064010000000081111561052657600080fd5b82018360208201111561053857600080fd5b8035906020019184604083028401116401000000008311171561055a57600080fd5b909192939192939080359060200190929190505050611d86565b60405180806020018281038252838181518152602001915080516000925b818410156106005782849060200190602002015160026000925b818410156105f25782846020020151600260200280838360005b838110156105e15780820151818401526020810190506105c6565b5050505090500192600101926105ac565b925050509260010192610592565b925050509250505060405180910390f35b60008260405160200180826002602002808284378083019250505091505060405160208183030381529060405280519060200120905061065081612042565b63ffffffff82111515156106cc576040517f08c379a000000000000000000000000000000000000000000000000000000000815260040180806020018281038252601c8152602001807f4465706f73697420616d6f756e74206f7574206f662072616e67652e0000000081525060200191505060405180910390fd5b63ffffffff60045483011115151561072f576040517f08c379a00000000000000000000000000000000000000000000000000000000081526004018080602001828103825260288152602001806125636028913960400191505060405180910390fd5b610737612315565b60066000838152602001908152602001600020600060028110151561075857fe5b60020201600280602002604051908101604052809291908260028015610793576020028201915b81548152602001906001019080831161077f575b50505050509050604051600182518252602083015160208301527f077da99d806abd13c9f15ece5398525119d11e11e9836b2ee7d23f6159ad87d460408301527f01485efa927f2ad41bff567eec88f32fb0a0f706588b4e41a8d587d008b7f8756060830152846080830152604080830160606040850160075afa8116905060408360808460065afa8116905080151561082c57600080fd5b50508060066000848152602001908152602001600020600060028110151561085057fe5b60020201906002610862929190612337565b506000809054906101000a900473ffffffffffffffffffffffffffffffffffffffff1673ffffffffffffffffffffffffffffffffffffffff166323b872dd3330866040518463ffffffff167c0100000000000000000000000000000000000000000000000000000000028152600401808473ffffffffffffffffffffffffffffffffffffffff1673ffffffffffffffffffffffffffffffffffffffff1681526020018373ffffffffffffffffffffffffffffffffffffffff1673ffffffffffffffffffffffffffffffffffffffff1681526020018281526020019350505050602060405180830381600087803b15801561095b57600080fd5b505af115801561096f573d6000803e3d6000fd5b505050506040513d602081101561098557600080fd5b81019080805190602001909291905050501515610a0a576040517f08c379a000000000000000000000000000000000000000000000000000000000815260040180806020018281038252601c8152602001807f5472616e736665722066726f6d2073656e646572206661696c65642e0000000081525060200191505060405180910390fd5b8260046000828254019250508190555050505050565b60035481565b600083519050606081604051908082528060200260200182016040528015610a6857816020015b610a55612377565b815260200190600190039081610a4d5790505b509050606082604051908082528060200260200182016040528015610aa757816020015b610a94612377565b815260200190600190039081610a8c5790505b509050828851141515610b22576040517f08c379a000000000000000000000000000000000000000000000000000000000815260040180806020018281038252601c8152602001807f496e707574206172726179206c656e677468206d69736d61746368210000000081525060200191505060405180910390fd5b60006001905060008090505b8751811015610e855760008882815181101515610b4757fe5b906020019060200201516040516020018082600260200280838360005b83811015610b7f578082015181840152602081019050610b64565b50505050905001915050604051602081830303815290604052805190602001209050610baa81612042565b610bb2612399565b60066000838152602001908152602001600020600280602002604051908101604052809291906000905b82821015610c3557838260020201600280602002604051908101604052809291908260028015610c21576020028201915b815481526020019060010190808311610c0d575b505050505081526020019060010190610bdc565b505050509050604051815151815260208251015160208201526020840260208e010151516040820152602080850260208f01015101517f30644e72e131a029b85045b68181585d97816a916871ca8d3c208c16d87cfd470360608201526040825160808360065afa851694506020820151518152602080830151015160208201528b51604082015260208c01517f30644e72e131a029b85045b68181585d97816a916871ca8d3c208c16d87cfd470360608201526040602083015160808360065afa85169450508060066000848152602001908152602001600020906002610d1e9291906123c7565b5060056000838152602001908152602001600020600280602002604051908101604052809291906000905b82821015610da257838260020201600280602002604051908101604052809291908260028015610d8e576020028201915b815481526020019060010190808311610d7a575b505050505081526020019060010190610d49565b505050509050604051815151815260208251015160208201526020840260208e010151516040820152602080850260208f01015101517f30644e72e131a029b85045b68181585d97816a916871ca8d3c208c16d87cfd4703606082015260406020850260208901015160808360065afa851694506020820151518152602080830151015160208201528b51604082015260208c01517f30644e72e131a029b85045b68181585d97816a916871ca8d3c208c16d87cfd4703606082015260406020850260208801015160808360065afa851694505050508080600101915050610b2e565b50600181141515610ee1576040517f08c379a000000000000000000000000000000000000000000000000000000000815260040180806020018281038252602e815260200180612535602e913960400191505060405180910390fd5b60008090506000876040516020018082600260200280838360005b83811015610f17578082015181840152602081019050610efc565b5050505090500191505060405160208183030381529060405280519060200120905060008090505b600880549050811015610f835781600882815481101515610f5c57fe5b90600052602060002001541415610f765760019250610f83565b8080600101915050610f3f565b5081151515610ffa576040517f08c379a00000000000000000000000000000000000000000000000000000000081526004018080602001828103825260138152602001807f4e6f6e636520616c7265616479207365656e210000000000000000000000000081525060200191505060405180910390fd5b600160009054906101000a900473ffffffffffffffffffffffffffffffffffffffff1673ffffffffffffffffffffffffffffffffffffffff16631659e67d86868e8e8e6009548f8f6040518963ffffffff167c01000000000000000000000000000000000000000000000000000000000281526004018080602001806020018060200189600260200280838360005b838110156110a4578082015181840152602081019050611089565b505050509050018060200188815260200187600260200280838360005b838110156110dc5780820151818401526020810190506110c1565b505050509050018060200186810386528e8181518152602001915080516000925b8184101561114857828490602001906020020151600260200280838360005b8381101561113757808201518184015260208101905061111c565b5050505090500192600101926110fd565b9250505086810385528d8181518152602001915080516000925b818410156111ad57828490602001906020020151600260200280838360005b8381101561119c578082015181840152602081019050611181565b505050509050019260010192611162565b9250505086810384528c8181518152602001915080516000925b8184101561121257828490602001906020020151600260200280838360005b838110156112015780820151818401526020810190506111e6565b5050505090500192600101926111c7565b9250505086810383528a8181518152602001915080516000925b8184101561127757828490602001906020020151600260200280838360005b8381101561126657808201518184015260208101905061124b565b50505050905001926001019261122c565b92505050868103825287818151815260200191508051906020019080838360005b838110156112b3578082015181840152602081019050611298565b50505050905090810190601f1680156112e05780820380516001836020036101000a031916815260200191505b509d505050505050505050505050505060206040518083038186803b15801561130857600080fd5b505afa15801561131c573d6000803e3d6000fd5b505050506040513d602081101561133257600080fd5b8101908080519060200190929190505050151561139a576040517f08c379a000000000000000000000000000000000000000000000000000000000815260040180806020018281038252602381526020018061258b6023913960400191505060405180910390fd5b60088190806001815401808255809150509060018203906000526020600020016000909192909190915055507f4ef6ed22b1551aeadeb80e67bb3a38788491e81527cc70a85bff611e9e51e18a8960405180806020018281038252838181518152602001915080516000925b8184101561145157828490602001906020020151600260200280838360005b83811015611440578082015181840152602081019050611425565b505050509050019260010192611406565b925050509250505060405180910390a15050505050505050505050565b6000846040516020018082600260200280838360005b8381101561149f578082015181840152602081019050611484565b505050509050019150506040516020818303038152906040528051906020012090506114ca81612042565b836000111580156114df575063ffffffff8411155b1515611553576040517f08c379a000000000000000000000000000000000000000000000000000000000815260040180806020018281038252601d8152602001807f5472616e7366657220616d6f756e74206f7574206f662072616e67652e00000081525060200191505060405180910390fd5b61155b612399565b60066000838152602001908152602001600020600280602002604051908101604052809291906000905b828210156115de578382600202016002806020026040519081016040528092919082600280156115ca576020028201915b8154815260200190600101908083116115b6575b505050505081526020019060010190611585565b5050505090506001604051825151815260208351015160208201527f077da99d806abd13c9f15ece5398525119d11e11e9836b2ee7d23f6159ad87d460408201527f01485efa927f2ad41bff567eec88f32fb0a0f706588b4e41a8d587d008b7f8756060820152867f30644e72e131a029b85045b68181585d2833e84879b9709143e1f593f0000001036080820152604080820160606040840160075afa821691506040835160808360065afa8216915081151561169b57600080fd5b505080600660008481526020019081526020016000209060026116bf9291906123c7565b5060056000838152602001908152602001600020600280602002604051908101604052809291906000905b828210156117435783826002020160028060200260405190810160405280929190826002801561172f576020028201915b81548152602001906001019080831161171b575b5050505050815260200190600101906116ea565b5050505090506001604051825151815260208351015160208201527f077da99d806abd13c9f15ece5398525119d11e11e9836b2ee7d23f6159ad87d460408201527f01485efa927f2ad41bff567eec88f32fb0a0f706588b4e41a8d587d008b7f8756060820152867f30644e72e131a029b85045b68181585d2833e84879b9709143e1f593f0000001036080820152604080820160606040840160075afa821691506040835160808360065afa8216915081151561180057600080fd5b505060008090506000856040516020018082600260200280838360005b8381101561183857808201518184015260208101905061181d565b5050505090500191505060405160208183030381529060405280519060200120905060008090505b6008805490508110156118a4578160088281548110151561187d57fe5b9060005260206000200154141561189757600192506118a4565b8080600101915050611860565b508115151561191b576040517f08c379a00000000000000000000000000000000000000000000000000000000081526004018080602001828103825260138152602001807f4e6f6e636520616c7265616479207365656e210000000000000000000000000081525060200191505060405180910390fd5b600260009054906101000a900473ffffffffffffffffffffffffffffffffffffffff1673ffffffffffffffffffffffffffffffffffffffff16636e1a999e84600060028110151561196857fe5b602002015185600160028110151561197c57fe5b60200201518b8b6009548c338d6040518963ffffffff167c01000000000000000000000000000000000000000000000000000000000281526004018089600260200280838360005b838110156119df5780820151818401526020810190506119c4565b5050505090500188600260200280838360005b83811015611a0d5780820151818401526020810190506119f2565b5050505090500187600260200280838360005b83811015611a3b578082015181840152602081019050611a20565b5050505090500186815260200185815260200184600260200280838360005b83811015611a75578082015181840152602081019050611a5a565b505050509050018373ffffffffffffffffffffffffffffffffffffffff1673ffffffffffffffffffffffffffffffffffffffff16815260200180602001828103825283818151815260200191508051906020019080838360005b83811015611aea578082015181840152602081019050611acf565b50505050905090810190601f168015611b175780820380516001836020036101000a031916815260200191505b50995050505050505050505060206040518083038186803b158015611b3b57600080fd5b505afa158015611b4f573d6000803e3d6000fd5b505050506040513d6020811015611b6557600080fd5b81019080805190602001909291905050501515611bea576040517f08c379a000000000000000000000000000000000000000000000000000000000815260040180806020018281038252601f8152602001807f4275726e2070726f6f6620766572696669636174696f6e206661696c6564210081525060200191505060405180910390fd5b6000809054906101000a900473ffffffffffffffffffffffffffffffffffffffff1673ffffffffffffffffffffffffffffffffffffffff1663a9059cbb33896040518363ffffffff167c0100000000000000000000000000000000000000000000000000000000028152600401808373ffffffffffffffffffffffffffffffffffffffff1673ffffffffffffffffffffffffffffffffffffffff16815260200182815260200192505050602060405180830381600087803b158015611cae57600080fd5b505af1158015611cc2573d6000803e3d6000fd5b505050506040513d6020811015611cd857600080fd5b81019080805190602001909291905050501515611d40576040517f08c379a00000000000000000000000000000000000000000000000000000000081526004018080602001828103825260358152602001806125ae6035913960400191505060405180910390fd5b8660046000828254039250508190555060088190806001815401808255809150509060018203906000526020600020016000909192909190915055505050505050505050565b6060600084849050905080604051908082528060200260200182016040528015611dca57816020015b611db7612417565b815260200190600190039081611daf5790505b50915060008090505b818110156120395760008686838181101515611deb57fe5b90506040020160405160200180826002602002808284378083019250505091505060405160208183030381529060405280519060200120905060056000828152602001908152602001600020600280602002604051908101604052809291906000905b82821015611ea757838260020201600280602002604051908101604052809291908260028015611e93576020028201915b815481526020019060010190808311611e7f575b505050505081526020019060010190611e4e565b505050508483815181101515611eb957fe5b90602001906020020181905250846007600083815260200190815260200160002054101561202b57611ee9612399565b60066000838152602001908152602001600020600280602002604051908101604052809291906000905b82821015611f6c57838260020201600280602002604051908101604052809291908260028015611f58576020028201915b815481526020019060010190808311611f44575b505050505081526020019060010190611f13565b5050505090506001604051825151815260208351015160208201526020850260208801015151516040820152602080860260208901015151015160608201526040602086026020890101515160808360065afa82169150602083015151815260208084015101516020820152602080860260208901015101515160408201526020806020870260208a0101510151015160608201526040602080870260208a010151015160808360065afa8216915081151561202757600080fd5b5050505b508080600101915050611dd3565b50509392505050565b60006003544281151561205157fe5b04905080600760008481526020019081526020016000205410156122f157612077612445565b604080519081016040528060056000868152602001908152602001600020600280602002604051908101604052809291906000905b82821015612105578382600202016002806020026040519081016040528092919082600280156120f1576020028201915b8154815260200190600101908083116120dd575b5050505050815260200190600101906120ac565b50505050815260200160066000868152602001908152602001600020600280602002604051908101604052809291906000905b828210156121915783826002020160028060200260405190810160405280929190826002801561217d576020028201915b815481526020019060010190808311612169575b505050505081526020019060010190612138565b50505050815250905060016040518251515181526020835151015160208201526020830151515160408201526020808401515101516060820152604083515160808360065afa82169150602083510151518152602080845101510151602082015260208084015101515160408201526020806020850151015101516060820152604060208451015160808360065afa8216915081151561223057600080fd5b505080600060028110151561224157fe5b6020020151600560008581526020019081526020016000209060026122679291906123c7565b506040805190810160405280604080519081016040528060006001028152602001600060010281525081526020016040805190810160405280600060010281526020016000600102815250815250600660008581526020019081526020016000209060026122d69291906123c7565b50816007600085815260200190815260200160002081905550505b8060095410156123115780600981905550600860006123109190612474565b5b5050565b6040805190810160405280600290602082028038833980820191505090505090565b8260028101928215612366579160200282015b8281111561236557825182559160200191906001019061234a565b5b5090506123739190612495565b5090565b6040805190810160405280600290602082028038833980820191505090505090565b6080604051908101604052806002905b6123b1612377565b8152602001906001900390816123a95790505090565b82600280028101928215612406579160200282015b82811115612405578251829060026123f59291906124ba565b50916020019190600201906123dc565b5b50905061241391906124fa565b5090565b6080604051908101604052806002905b61242f612377565b8152602001906001900390816124275790505090565b610100604051908101604052806002905b61245e612417565b8152602001906001900390816124565790505090565b50805460008255906000526020600020908101906124929190612495565b50565b6124b791905b808211156124b357600081600090555060010161249b565b5090565b90565b82600281019282156124e9579160200282015b828111156124e85782518255916020019190600101906124cd565b5b5090506124f69190612495565b5090565b61252391905b8082111561251f57600081816125169190612526565b50600201612500565b5090565b90565b50600081556001016000905556fe456c6c6970746963206375727665206f7065726174696f6e73206661696c7572652e2042616420706f696e74733f46756e642070757368657320636f6e74726163742070617374206d6178696d756d2076616c75652e5472616e736665722070726f6f6620766572696669636174696f6e206661696c656421546869732073686f756c646e2774206661696c2e2e2e20536f6d657468696e672077656e74207365766572656c792077726f6e672ea165627a7a72305820f2cfdaaf9ddb3ae85225389d9b63e2f23a9b0ab2b410ec5c7dc44c76de6ea66e0029",
  "source": "pragma solidity 0.5.4;\n\nimport './ZetherVerifier.sol';\nimport './BurnVerifier.sol';\nimport './CashToken.sol';\n\ncontract ZSC {\n    CashToken coin;\n    ZetherVerifier zetherverifier;\n    BurnVerifier burnverifier;\n    uint256 public epochLength; // now in milliseconds.\n\n    uint256 bTotal = 0; // could use erc20.balanceOf(this), but (even pure / view) calls cost gas during EVM execution\n    uint256 constant MAX = 4294967295; // 2^32 - 1 // no sload for constants...!\n    mapping(bytes32 => bytes32[2][2]) acc; // main account mapping\n    mapping(bytes32 => bytes32[2][2]) pTransfers; // storage for pending transfers\n    mapping(bytes32 => uint256) lastRollOver;\n    bytes32[] nonceSet; // would be more natural to use a mapping, but they can't be deleted / reset!\n    uint256 lastGlobalUpdate = 0; // will be also used as a proxy for \"current epoch\", seeing as rollovers will be anticipated\n    // not implementing account locking for now...revisit\n\n    event TransferOccurred(bytes32[2][] parties); // all parties will be notified, client can determine whether it was real or not.\n    // arg is still necessary for transfers---not even so much to know when you received a transfer, as to know when you got rolled over.\n\n    constructor(address _coin, address _zether, address _burn, uint256 _epochLength) public {\n        // epoch length, like block.time, is in _seconds_. 4 is the minimum!!! (To allow a withdrawal to go through.)\n        coin = CashToken(_coin);\n        zetherverifier = ZetherVerifier(_zether);\n        burnverifier = BurnVerifier(_burn);\n        epochLength = _epochLength;\n    }\n\n    function simulateAccounts(bytes32[2][] calldata y, uint256 epoch) view external returns (bytes32[2][2][] memory accounts) {\n        // all of this could be assembled locally by querying `acc` and `pTransfers` (and `lastRollOver`) and assembling things by hand\n        // turns out this is extremely _slow_ though, because of the ~ 4 * N queries which must be made. turns out it's much faster\n        // to simply move the entire process into a contract method, and in fact this allows us to make the above 3 private\n        uint256 size = y.length;\n        accounts = new bytes32[2][2][](size);\n        for (uint256 i = 0; i < size; i++) {\n            bytes32 yHash = keccak256(abi.encodePacked(y[i]));\n            accounts[i] = acc[yHash];\n            if (lastRollOver[yHash] < epoch) {\n                bytes32[2][2] memory scratch = pTransfers[yHash];\n                assembly {\n                    let result := 1\n                    let m := mload(0x40)\n                    mstore(m, mload(mload(scratch)))\n                    mstore(add(m, 0x20), mload(add(mload(scratch), 0x20)))\n                    mstore(add(m, 0x40), mload(mload(mload(add(add(accounts, 0x20), mul(i, 0x20))))))\n                    mstore(add(m, 0x60), mload(add(mload(mload(add(add(accounts, 0x20), mul(i, 0x20)))), 0x20)))\n                    result := and(result, staticcall(gas, 0x06, m, 0x80, mload(mload(add(add(accounts, 0x20), mul(i, 0x20)))), 0x40))\n                    mstore(m, mload(mload(add(scratch, 0x20))))\n                    mstore(add(m, 0x20), mload(add(mload(add(scratch, 0x20)), 0x20)))\n                    mstore(add(m, 0x40), mload(mload(add(mload(add(add(accounts, 0x20), mul(i, 0x20))), 0x20))))\n                    mstore(add(m, 0x60), mload(add(mload(add(mload(add(add(accounts, 0x20), mul(i, 0x20))), 0x20)), 0x20)))\n                    result := and(result, staticcall(gas, 0x06, m, 0x80, mload(add(mload(add(add(accounts, 0x20), mul(i, 0x20))), 0x20)), 0x40))\n                    if iszero(result) {\n                        revert(0, 0)\n                    }\n                }\n            }\n        }\n    }\n\n    function rollOver(bytes32 yHash) internal {\n        uint256 e = block.timestamp / epochLength;\n        if (lastRollOver[yHash] < e) {\n            bytes32[2][2][2] memory scratch = [acc[yHash], pTransfers[yHash]];\n            assembly {\n                let result := 1\n                let m := mload(0x40)\n                mstore(m, mload(mload(mload(scratch))))\n                mstore(add(m, 0x20), mload(add(mload(mload(scratch)), 0x20)))\n                mstore(add(m, 0x40), mload(mload(mload(add(scratch, 0x20)))))\n                mstore(add(m, 0x60), mload(add(mload(mload(add(scratch, 0x20))), 0x20)))\n                result := and(result, staticcall(gas, 0x06, m, 0x80, mload(mload(scratch)), 0x40))\n                mstore(m, mload(mload(add(mload(scratch), 0x20))))\n                mstore(add(m, 0x20), mload(add(mload(add(mload(scratch), 0x20)), 0x20)))\n                mstore(add(m, 0x40), mload(mload(add(mload(add(scratch, 0x20)), 0x20))))\n                mstore(add(m, 0x60), mload(add(mload(add(mload(add(scratch, 0x20)), 0x20)), 0x20)))\n                result := and(result, staticcall(gas, 0x06, m, 0x80, mload(add(mload(scratch), 0x20)), 0x40))\n                if iszero(result) {\n                    revert(0, 0)\n                }\n            }\n            acc[yHash] = scratch[0];\n            pTransfers[yHash] = [[bytes32(0), bytes32(0)], [bytes32(0), bytes32(0)]];\n            lastRollOver[yHash] = e;\n        }\n        if (lastGlobalUpdate < e) {\n            lastGlobalUpdate = e;\n            delete nonceSet;\n        }\n    }\n\n    function fund(bytes32[2] calldata y, uint256 bTransfer) external {\n        bytes32 yHash = keccak256(abi.encodePacked(y));\n        rollOver(yHash);\n\n        // registration check here would be redundant, as any `transferFrom` the 0 address will necessarily fail. save an sload\n        require(bTransfer <= MAX, \"Deposit amount out of range.\"); // uint, so other way not necessary?\n        require(bTransfer + bTotal <= MAX, \"Fund pushes contract past maximum value.\");\n        // if pTransfers[yHash] == [0, 0, 0, 0] then an add and a write will be equivalent...\n        bytes32[2] memory scratch = pTransfers[yHash][0];\n        // won't let me assign this array using literals / casts\n        assembly {\n            let m := mload(0x40)\n            let result := 1\n            mstore(m, mload(scratch))\n            mstore(add(m, 0x20), mload(add(scratch, 0x20)))\n            mstore(add(m, 0x40), 0x077da99d806abd13c9f15ece5398525119d11e11e9836b2ee7d23f6159ad87d4)\n            mstore(add(m, 0x60), 0x01485efa927f2ad41bff567eec88f32fb0a0f706588b4e41a8d587d008b7f875)\n            mstore(add(m, 0x80), bTransfer) // b will hopefully be a primitive / literal and not a pointer / address?\n            result := and(result, staticcall(gas, 0x07, add(m, 0x40), 0x60, add(m, 0x40), 0x40))\n            result := and(result, staticcall(gas, 0x06, m, 0x80, scratch, 0x40))\n            if iszero(result) {\n                revert(0, 0)\n            }\n        }\n        pTransfers[yHash][0] = scratch;\n        require(coin.transferFrom(msg.sender, address(this), bTransfer), \"Transfer from sender failed.\");\n        bTotal += bTransfer;\n    }\n\n    function transfer(bytes32[2][] memory C, bytes32[2] memory D, bytes32[2][] memory y, bytes32[2] memory u, bytes memory proof) public {\n        uint256 size = y.length;\n        bytes32[2][] memory CLn = new bytes32[2][](size);\n        bytes32[2][] memory CRn = new bytes32[2][](size);\n        require(C.length == size, \"Input array length mismatch!\");\n        uint256 result = 1;\n        for (uint256 i = 0; i < y.length; i++) {\n            bytes32 yHash = keccak256(abi.encodePacked(y[i]));\n            rollOver(yHash);\n            bytes32[2][2] memory scratch = pTransfers[yHash];\n            assembly {\n                let m := mload(0x40)\n                mstore(m, mload(mload(scratch)))\n                mstore(add(m, 0x20), mload(add(mload(scratch), 0x20)))\n                // calldatacopy(add(m, 0x40), add(0x104, mul(i, 0x40)), 0x40) // copy C[i] onto running block\n                // having to change external --> public to avoid stacktoodeep\n                // as a result, have to use the below two lines instead of the above single line.\n                mstore(add(m, 0x40), mload(mload(add(add(C, 0x20), mul(i, 0x20)))))\n                mstore(add(m, 0x60), sub(0x30644e72e131a029b85045b68181585d97816a916871ca8d3c208c16d87cfd47, mload(add(mload(add(add(C, 0x20), mul(i, 0x20))), 0x20))))\n                result := and(result, staticcall(gas, 0x06, m, 0x80, mload(scratch), 0x40))\n                mstore(m, mload(mload(add(scratch, 0x20))))\n                mstore(add(m, 0x20), mload(add(mload(add(scratch, 0x20)), 0x20)))\n                // calldatacopy(add(m, 0x40), 0x24, 0x40) // copy R onto running block\n                mstore(add(m, 0x40), mload(D))\n                mstore(add(m, 0x60), sub(0x30644e72e131a029b85045b68181585d97816a916871ca8d3c208c16d87cfd47, mload(add(D, 0x20)))) // invert!\n                result := and(result, staticcall(gas, 0x06, m, 0x80, mload(add(scratch, 0x20)), 0x40))\n            }\n            pTransfers[yHash] = scratch; // credit / debit / neither y's account.\n            scratch = acc[yHash];\n            assembly {\n                let m := mload(0x40)\n                mstore(m, mload(mload(scratch)))\n                mstore(add(m, 0x20), mload(add(mload(scratch), 0x20)))\n                mstore(add(m, 0x40), mload(mload(add(add(C, 0x20), mul(i, 0x20)))))\n                mstore(add(m, 0x60), sub(0x30644e72e131a029b85045b68181585d97816a916871ca8d3c208c16d87cfd47, mload(add(mload(add(add(C, 0x20), mul(i, 0x20))), 0x20))))\n                result := and(result, staticcall(gas, 0x06, m, 0x80, mload(add(add(CLn, 0x20), mul(i, 0x20))), 0x40))\n                mstore(m, mload(mload(add(scratch, 0x20))))\n                mstore(add(m, 0x20), mload(add(mload(add(scratch, 0x20)), 0x20)))\n                mstore(add(m, 0x40), mload(D))\n                mstore(add(m, 0x60), sub(0x30644e72e131a029b85045b68181585d97816a916871ca8d3c208c16d87cfd47, mload(add(D, 0x20))))\n                result := and(result, staticcall(gas, 0x06, m, 0x80, mload(add(add(CRn, 0x20), mul(i, 0x20))), 0x40))\n            }\n        }\n        require(result == 1, \"Elliptic curve operations failure. Bad points?\");\n\n        bool seen = false;\n        bytes32 uHash = keccak256(abi.encodePacked(u));\n        for (uint256 i = 0; i < nonceSet.length; i++) {\n            if (nonceSet[i] == uHash) {\n                seen = true;\n                break;\n            }\n        }\n        require(!seen, \"Nonce already seen!\");\n        require(zetherverifier.verifyTransfer(CLn, CRn, C, D, y, lastGlobalUpdate, u, proof), \"Transfer proof verification failed!\");\n\n        nonceSet.push(uHash);\n        emit TransferOccurred(y);\n    }\n\n    function burn(bytes32[2] memory y, uint256 bTransfer, bytes32[2] memory u, bytes memory proof) public {\n        bytes32 yHash = keccak256(abi.encodePacked(y));\n        rollOver(yHash);\n\n        require(0 <= bTransfer && bTransfer <= MAX, \"Transfer amount out of range.\");\n        bytes32[2][2] memory scratch = pTransfers[yHash]; // could technically use sload, but... let's not go there.\n        assembly {\n            let result := 1\n            let m := mload(0x40)\n            mstore(m, mload(mload(scratch)))\n            mstore(add(m, 0x20), mload(add(mload(scratch), 0x20)))\n            // load bulletproof generator here\n            mstore(add(m, 0x40), 0x077da99d806abd13c9f15ece5398525119d11e11e9836b2ee7d23f6159ad87d4) // g_x\n            mstore(add(m, 0x60), 0x01485efa927f2ad41bff567eec88f32fb0a0f706588b4e41a8d587d008b7f875) // g_y\n            mstore(add(m, 0x80), sub(0x30644e72e131a029b85045b68181585d2833e84879b9709143e1f593f0000001, bTransfer))\n            result := and(result, staticcall(gas, 0x07, add(m, 0x40), 0x60, add(m, 0x40), 0x40))\n            result := and(result, staticcall(gas, 0x06, m, 0x80, mload(scratch), 0x40)) // scratch[0] = acc[yHash][0] * g ^ -b, scratch[1] doesn't change\n            if iszero(result) {\n                revert(0, 0)\n            }\n        }\n        pTransfers[yHash] = scratch; // debit y's balance\n        scratch = acc[yHash]; // simulate debit of acc---just for use in verification, won't be applied\n        assembly {\n            let result := 1\n            let m := mload(0x40)\n            mstore(m, mload(mload(scratch)))\n            mstore(add(m, 0x20), mload(add(mload(scratch), 0x20)))\n            mstore(add(m, 0x40), 0x077da99d806abd13c9f15ece5398525119d11e11e9836b2ee7d23f6159ad87d4) // g_x\n            mstore(add(m, 0x60), 0x01485efa927f2ad41bff567eec88f32fb0a0f706588b4e41a8d587d008b7f875) // g_y\n            mstore(add(m, 0x80), sub(0x30644e72e131a029b85045b68181585d2833e84879b9709143e1f593f0000001, bTransfer))\n            result := and(result, staticcall(gas, 0x07, add(m, 0x40), 0x60, add(m, 0x40), 0x40))\n            result := and(result, staticcall(gas, 0x06, m, 0x80, mload(scratch), 0x40)) // scratch[0] = acc[yHash][0] * g ^ -b, scratch[1] doesn't change\n            if iszero(result) {\n                revert(0, 0)\n            }\n        }\n        bool seen = false;\n        bytes32 uHash = keccak256(abi.encodePacked(u));\n        for (uint256 i = 0; i < nonceSet.length; i++) {\n            if (nonceSet[i] == uHash) { // does this have to repeat the sload for each iteration?!? revisit\n                seen = true;\n                break;\n            }\n        }\n        require(!seen, \"Nonce already seen!\");\n        require(burnverifier.verifyBurn(scratch[0], scratch[1], y, bTransfer, lastGlobalUpdate, u, msg.sender, proof), \"Burn proof verification failed!\");\n        require(coin.transfer(msg.sender, bTransfer), \"This shouldn't fail... Something went severely wrong.\");\n        bTotal -= bTransfer;\n        nonceSet.push(uHash);\n    }\n}\n",
  "sourcePath": "/Users/benediamond/anonymous-zether/packages/protocol/contracts/ZSC.sol",
  "compiler": {
    "name": "solc",
    "version": "0.5.4+commit.9549d8ff.Emscripten.clang"
  },
  "schemaVersion": "3.0.9",
  "updatedAt": "2019-11-19T15:52:06.495Z",
  "devdoc": {
    "methods": {}
  },
  "userdoc": {
    "methods": {}
  }
}