{
  "contractName": "ZSC",
  "abi": [
    {
      "constant": true,
      "inputs": [],
      "name": "epochLength",
      "outputs": [
        {
          "name": "",
          "type": "uint256"
        }
      ],
      "payable": false,
      "stateMutability": "view",
      "type": "function"
    },
    {
      "inputs": [
        {
          "name": "_coin",
          "type": "address"
        },
        {
          "name": "_zether",
          "type": "address"
        },
        {
          "name": "_burn",
          "type": "address"
        },
        {
          "name": "_epochLength",
          "type": "uint256"
        }
      ],
      "payable": false,
      "stateMutability": "nonpayable",
      "type": "constructor"
    },
    {
      "anonymous": false,
      "inputs": [
        {
          "components": [
            {
              "name": "x",
              "type": "bytes32"
            },
            {
              "name": "y",
              "type": "bytes32"
            }
          ],
          "indexed": false,
          "name": "parties",
          "type": "tuple[]"
        }
      ],
      "name": "TransferOccurred",
      "type": "event"
    },
    {
      "constant": true,
      "inputs": [
        {
          "components": [
            {
              "name": "x",
              "type": "bytes32"
            },
            {
              "name": "y",
              "type": "bytes32"
            }
          ],
          "name": "y",
          "type": "tuple[]"
        },
        {
          "name": "epoch",
          "type": "uint256"
        }
      ],
      "name": "simulateAccounts",
      "outputs": [
        {
          "components": [
            {
              "name": "x",
              "type": "bytes32"
            },
            {
              "name": "y",
              "type": "bytes32"
            }
          ],
          "name": "accounts",
          "type": "tuple[2][]"
        }
      ],
      "payable": false,
      "stateMutability": "view",
      "type": "function"
    },
    {
      "constant": false,
      "inputs": [
        {
          "components": [
            {
              "name": "x",
              "type": "bytes32"
            },
            {
              "name": "y",
              "type": "bytes32"
            }
          ],
          "name": "y",
          "type": "tuple"
        },
        {
          "name": "c",
          "type": "uint256"
        },
        {
          "name": "s",
          "type": "uint256"
        }
      ],
      "name": "register",
      "outputs": [],
      "payable": false,
      "stateMutability": "nonpayable",
      "type": "function"
    },
    {
      "constant": false,
      "inputs": [
        {
          "components": [
            {
              "name": "x",
              "type": "bytes32"
            },
            {
              "name": "y",
              "type": "bytes32"
            }
          ],
          "name": "y",
          "type": "tuple"
        },
        {
          "name": "bTransfer",
          "type": "uint256"
        }
      ],
      "name": "fund",
      "outputs": [],
      "payable": false,
      "stateMutability": "nonpayable",
      "type": "function"
    },
    {
      "constant": false,
      "inputs": [
        {
          "components": [
            {
              "name": "x",
              "type": "bytes32"
            },
            {
              "name": "y",
              "type": "bytes32"
            }
          ],
          "name": "C",
          "type": "tuple[]"
        },
        {
          "components": [
            {
              "name": "x",
              "type": "bytes32"
            },
            {
              "name": "y",
              "type": "bytes32"
            }
          ],
          "name": "D",
          "type": "tuple"
        },
        {
          "components": [
            {
              "name": "x",
              "type": "bytes32"
            },
            {
              "name": "y",
              "type": "bytes32"
            }
          ],
          "name": "y",
          "type": "tuple[]"
        },
        {
          "components": [
            {
              "name": "x",
              "type": "bytes32"
            },
            {
              "name": "y",
              "type": "bytes32"
            }
          ],
          "name": "u",
          "type": "tuple"
        },
        {
          "name": "proof",
          "type": "bytes"
        }
      ],
      "name": "transfer",
      "outputs": [],
      "payable": false,
      "stateMutability": "nonpayable",
      "type": "function"
    },
    {
      "constant": false,
      "inputs": [
        {
          "components": [
            {
              "name": "x",
              "type": "bytes32"
            },
            {
              "name": "y",
              "type": "bytes32"
            }
          ],
          "name": "y",
          "type": "tuple"
        },
        {
          "name": "bTransfer",
          "type": "uint256"
        },
        {
          "components": [
            {
              "name": "x",
              "type": "bytes32"
            },
            {
              "name": "y",
              "type": "bytes32"
            }
          ],
          "name": "u",
          "type": "tuple"
        },
        {
          "name": "proof",
          "type": "bytes"
        }
      ],
      "name": "burn",
      "outputs": [],
      "payable": false,
      "stateMutability": "nonpayable",
      "type": "function"
    }
  ],
  "bytecode": "0x608060405260006008553480156200001657600080fd5b5060405160808062002edb833981018060405262000038919081019062000137565b836000806101000a81548173ffffffffffffffffffffffffffffffffffffffff021916908373ffffffffffffffffffffffffffffffffffffffff16021790555082600160006101000a81548173ffffffffffffffffffffffffffffffffffffffff021916908373ffffffffffffffffffffffffffffffffffffffff16021790555081600260006101000a81548173ffffffffffffffffffffffffffffffffffffffff021916908373ffffffffffffffffffffffffffffffffffffffff1602179055508060038190555050505050620001e1565b6000620001198251620001a3565b905092915050565b60006200012f8251620001d7565b905092915050565b600080600080608085870312156200014e57600080fd5b60006200015e878288016200010b565b945050602062000171878288016200010b565b935050604062000184878288016200010b565b9250506060620001978782880162000121565b91505092959194509250565b6000620001b082620001b7565b9050919050565b600073ffffffffffffffffffffffffffffffffffffffff82169050919050565b6000819050919050565b612cea80620001f16000396000f3fe608060405234801561001057600080fd5b506004361061007f576000357c010000000000000000000000000000000000000000000000000000000090048063312a526c1461008457806357d775f8146100a0578063599c1a93146100be57806379e543d0146100da5780639b0d85d31461010a578063eff4d17814610126575b600080fd5b61009e60048036036100999190810190611feb565b610142565b005b6100a86106ff565b6040516100b59190612a5f565b60405180910390f35b6100d860048036036100d39190810190611faf565b610705565b005b6100f460048036036100ef9190810190611f32565b610aa6565b604051610101919061273b565b60405180910390f35b610124600480360361011f9190810190612066565b610d63565b005b610140600480360361013b9190810190611e73565b610f31565b005b60008460405160200161015591906129bc565b60405160208183030381529060405280519060200120905061017681611531565b15156101b7576040517f08c379a00000000000000000000000000000000000000000000000000000000081526004016101ae90612961565b60405180910390fd5b6101c081611751565b836000111580156101d5575063ffffffff8411155b1515610216576040517f08c379a000000000000000000000000000000000000000000000000000000000815260040161020d906128c1565b60405180910390fd5b61021e611b74565b60056000838152602001908152602001600020600280602002604051908101604052809291906000905b82821015610284578382600202016040805190810160405290816000820154815260200160018201548152505081526020019060010190610248565b5050505090506102d16102af61029987611a02565b6102a1611a2e565b611a9690919063ffffffff16565b8260006002811015156102be57fe5b6020020151611ad190919063ffffffff16565b6005600084815260200190815260200160002060006002811015156102f257fe5b60020201600082015181600001556020820151816001015590505060046000838152602001908152602001600020600280602002604051908101604052809291906000905b82821015610373578382600202016040805190810160405290816000820154815260200160018201548152505081526020019060010190610337565b5050505090506103c061039e61038887611a02565b610390611a2e565b611a9690919063ffffffff16565b8260006002811015156103ad57fe5b6020020151611ad190919063ffffffff16565b8160006002811015156103cf57fe5b60200201819052506000846040516020016103ea91906129bc565b60405160208183030381529060405280519060200120905060008090505b600780549050811015610480578160078281548110151561042557fe5b906000526020600020015414151515610473576040517f08c379a000000000000000000000000000000000000000000000000000000000815260040161046a90612861565b60405180910390fd5b8080600101915050610408565b506007819080600181540180825580915050906001820390600052602060002001600090919290919091505550600260009054906101000a900473ffffffffffffffffffffffffffffffffffffffff1673ffffffffffffffffffffffffffffffffffffffff1663eb0fbcc08360006002811015156104fa57fe5b602002015184600160028110151561050e57fe5b60200201518a8a6008548b338c6040518963ffffffff167c010000000000000000000000000000000000000000000000000000000002815260040161055a9897969594939291906129d7565b60206040518083038186803b15801561057257600080fd5b505afa158015610586573d6000803e3d6000fd5b505050506040513d601f19601f820116820180604052506105aa9190810190611f86565b15156105eb576040517f08c379a00000000000000000000000000000000000000000000000000000000081526004016105e290612981565b60405180910390fd5b6000809054906101000a900473ffffffffffffffffffffffffffffffffffffffff1673ffffffffffffffffffffffffffffffffffffffff1663a9059cbb33886040518363ffffffff167c01000000000000000000000000000000000000000000000000000000000281526004016106639291906126db565b602060405180830381600087803b15801561067d57600080fd5b505af1158015610691573d6000803e3d6000fd5b505050506040513d601f19601f820116820180604052506106b59190810190611f86565b15156106f6576040517f08c379a00000000000000000000000000000000000000000000000000000000081526004016106ed90612941565b60405180910390fd5b50505050505050565b60035481565b60008260405160200161071891906129bc565b60405160208183030381529060405280519060200120905061073981611531565b151561077a576040517f08c379a000000000000000000000000000000000000000000000000000000000815260040161077190612961565b60405180910390fd5b61078381611751565b63ffffffff82111515156107cc576040517f08c379a00000000000000000000000000000000000000000000000000000000081526004016107c390612881565b60405180910390fd5b6107d4611ba2565b6005600083815260200190815260200160002060006002811015156107f557fe5b6002020160408051908101604052908160008201548152602001600182015481525050905061084661083784610829611a2e565b611a9690919063ffffffff16565b82611ad190919063ffffffff16565b90508060056000848152602001908152602001600020600060028110151561086a57fe5b6002020160008201518160000155602082015181600101559050506000809054906101000a900473ffffffffffffffffffffffffffffffffffffffff1673ffffffffffffffffffffffffffffffffffffffff166323b872dd3330866040518463ffffffff167c01000000000000000000000000000000000000000000000000000000000281526004016108ff939291906126a4565b602060405180830381600087803b15801561091957600080fd5b505af115801561092d573d6000803e3d6000fd5b505050506040513d601f19601f820116820180604052506109519190810190611f86565b1515610992576040517f08c379a000000000000000000000000000000000000000000000000000000000815260040161098990612901565b60405180910390fd5b63ffffffff6000809054906101000a900473ffffffffffffffffffffffffffffffffffffffff1673ffffffffffffffffffffffffffffffffffffffff166370a08231306040518263ffffffff167c0100000000000000000000000000000000000000000000000000000000028152600401610a0d9190612689565b60206040518083038186803b158015610a2557600080fd5b505afa158015610a39573d6000803e3d6000fd5b505050506040513d601f19601f82011682018060405250610a5d91908101906120b5565b11151515610aa0576040517f08c379a0000000000000000000000000000000000000000000000000000000008152600401610a97906128a1565b60405180910390fd5b50505050565b606060008351905080604051908082528060200260200182016040528015610ae857816020015b610ad5611bc2565b815260200190600190039081610acd5790505b50915060008090505b81811015610d5b5760008582815181101515610b0957fe5b90602001906020020151604051602001610b2391906129a1565b60405160208183030381529060405280519060200120905060046000828152602001908152602001600020600280602002604051908101604052809291906000905b82821015610ba1578382600202016040805190810160405290816000820154815260200160018201548152505081526020019060010190610b65565b505050508483815181101515610bb357fe5b906020019060200201819052508460066000838152602001908152602001600020541015610d4d57610be3611b74565b60056000838152602001908152602001600020600280602002604051908101604052809291906000905b82821015610c49578382600202016040805190810160405290816000820154815260200160018201548152505081526020019060010190610c0d565b505050509050610c9f816000600281101515610c6157fe5b60200201518685815181101515610c7457fe5b906020019060200201516000600281101515610c8c57fe5b6020020151611ad190919063ffffffff16565b8584815181101515610cad57fe5b906020019060200201516000600281101515610cc557fe5b6020020181905250610d1d816001600281101515610cdf57fe5b60200201518685815181101515610cf257fe5b906020019060200201516001600281101515610d0a57fe5b6020020151611ad190919063ffffffff16565b8584815181101515610d2b57fe5b906020019060200201516001600281101515610d4357fe5b6020020181905250505b508080600101915050610af1565b505092915050565b610d6b611ba2565b610db1610d89610d7a85611a02565b86611a9690919063ffffffff16565b610da384610d95611a2e565b611a9690919063ffffffff16565b611ad190919063ffffffff16565b90506000610dec308684604051602001610dcd93929190612704565b6040516020818303038152906040528051906020012060019004611b17565b90508381141515610e32576040517f08c379a0000000000000000000000000000000000000000000000000000000008152600401610e29906128e1565b60405180910390fd5b600085604051602001610e4591906129bc565b604051602081830303815290604052805190602001209050610e6681611531565b151515610ea8576040517f08c379a0000000000000000000000000000000000000000000000000000000008152600401610e9f90612841565b60405180910390fd5b85600560008381526020019081526020016000206000600281101515610eca57fe5b600202016000820151816000015560208201518160010155905050610eed611a2e565b600560008381526020019081526020016000206001600281101515610f0e57fe5b600202016000820151816000015560208201518160010155905050505050505050565b600083519050606081604051908082528060200260200182016040528015610f7357816020015b610f60611bf0565b815260200190600190039081610f585790505b509050606082604051908082528060200260200182016040528015610fb257816020015b610f9f611bf0565b815260200190600190039081610f975790505b509050828851141515610ffa576040517f08c379a0000000000000000000000000000000000000000000000000000000008152600401610ff190612821565b60405180910390fd5b60008090505b83811015611300576000878281518110151561101857fe5b9060200190602002015160405160200161103291906129a1565b60405160208183030381529060405280519060200120905061105381611531565b1515611094576040517f08c379a000000000000000000000000000000000000000000000000000000000815260040161108b90612961565b60405180910390fd5b61109d81611751565b6110a5611b74565b60056000838152602001908152602001600020600280602002604051908101604052809291906000905b8282101561110b5783826002020160408051908101604052908160008201548152602001600182015481525050815260200190600101906110cf565b50505050905061114e8b8481518110151561112257fe5b9060200190602002015182600060028110151561113b57fe5b6020020151611ad190919063ffffffff16565b60056000848152602001908152602001600020600060028110151561116f57fe5b6002020160008201518160000155602082015181600101559050506111b08a82600160028110151561119d57fe5b6020020151611ad190919063ffffffff16565b6005600084815260200190815260200160002060016002811015156111d157fe5b60020201600082015181600001556020820151816001015590505060046000838152602001908152602001600020600280602002604051908101604052809291906000905b82821015611252578382600202016040805190810160405290816000820154815260200160018201548152505081526020019060010190611216565b5050505090506112958b8481518110151561126957fe5b9060200190602002015182600060028110151561128257fe5b6020020151611ad190919063ffffffff16565b85848151811015156112a357fe5b906020019060200201819052506112d68a8260016002811015156112c357fe5b6020020151611ad190919063ffffffff16565b84848151811015156112e457fe5b9060200190602002018190525050508080600101915050611000565b5060008560405160200161131491906129bc565b60405160208183030381529060405280519060200120905060008090505b6007805490508110156113aa578160078281548110151561134f57fe5b90600052602060002001541415151561139d576040517f08c379a000000000000000000000000000000000000000000000000000000000815260040161139490612861565b60405180910390fd5b8080600101915050611332565b506007819080600181540180825580915050906001820390600052602060002001600090919290919091505550600160009054906101000a900473ffffffffffffffffffffffffffffffffffffffff1673ffffffffffffffffffffffffffffffffffffffff1663d2d5e70a84848c8c8c6008548d8d6040518963ffffffff167c010000000000000000000000000000000000000000000000000000000002815260040161145e98979695949392919061277f565b60206040518083038186803b15801561147657600080fd5b505afa15801561148a573d6000803e3d6000fd5b505050506040513d601f19601f820116820180604052506114ae9190810190611f86565b15156114ef576040517f08c379a00000000000000000000000000000000000000000000000000000000081526004016114e690612921565b60405180910390fd5b7f9b814ae8a45a4c40d4c60ffa92e0c4b76dec41407cb28b43df9daffa3685f9ac8760405161151e919061275d565b60405180910390a1505050505050505050565b600061153b611ba2565b60408051908101604052806000600102815260200160006001028152509050611562611c10565b604080519081016040528060046000878152602001908152602001600020600280602002604051908101604052809291906000905b828210156115d3578382600202016040805190810160405290816000820154815260200160018201548152505081526020019060010190611597565b50505050815260200160056000878152602001908152602001600020600280602002604051908101604052809291906000905b82821015611642578382600202016040805190810160405290816000820154815260200160018201548152505081526020019060010190611606565b5050505081525090506116848282600060028110151561165e57fe5b6020020151600060028110151561167157fe5b6020020151611b4c90919063ffffffff16565b80156116c557506116c48282600060028110151561169e57fe5b602002015160016002811015156116b157fe5b6020020151611b4c90919063ffffffff16565b5b80156117065750611705828260016002811015156116df57fe5b602002015160006002811015156116f257fe5b6020020151611b4c90919063ffffffff16565b5b801561174757506117468282600160028110151561172057fe5b6020020151600160028110151561173357fe5b6020020151611b4c90919063ffffffff16565b5b1592505050919050565b60006003544281151561176057fe5b04905080600660008481526020019081526020016000205410156119de57611786611c10565b604080519081016040528060046000868152602001908152602001600020600280602002604051908101604052809291906000905b828210156117f75783826002020160408051908101604052908160008201548152602001600182015481525050815260200190600101906117bb565b50505050815260200160056000868152602001908152602001600020600280602002604051908101604052809291906000905b8282101561186657838260020201604080519081016040529081600082015481526020016001820154815250508152602001906001019061182a565b5050505081525090506118ce81600160028110151561188157fe5b6020020151600060028110151561189457fe5b60200201518260006002811015156118a857fe5b602002015160006002811015156118bb57fe5b6020020151611ad190919063ffffffff16565b6004600085815260200190815260200160002060006002811015156118ef57fe5b60020201600082015181600001556020820151816001015590505061196981600160028110151561191c57fe5b6020020151600160028110151561192f57fe5b602002015182600060028110151561194357fe5b6020020151600160028110151561195657fe5b6020020151611ad190919063ffffffff16565b60046000858152602001908152602001600020600160028110151561198a57fe5b6002020160008201518160000155602082015181600101559050506005600084815260200190815260200160002060006119c49190611c3f565b816006600085815260200190815260200160002081905550505b8060085410156119fe5780600881905550600760006119fd9190611c6a565b5b5050565b6000817f30644e72e131a029b85045b68181585d2833e84879b9709143e1f593f0000001039050919050565b611a36611ba2565b60408051908101604052807f077da99d806abd13c9f15ece5398525119d11e11e9836b2ee7d23f6159ad87d460010281526020017f01485efa927f2ad41bff567eec88f32fb0a0f706588b4e41a8d587d008b7f875600102815250905090565b611a9e611ba2565b604051835181526020840151602082015282604082015260408260608360075afa1515611aca57600080fd5b5092915050565b611ad9611ba2565b6040518351815260208401516020820152825160408201526020830151606082015260408260808360065afa1515611b1057600080fd5b5092915050565b60007f30644e72e131a029b85045b68181585d2833e84879b9709143e1f593f000000182811515611b4457fe5b069050919050565b600081600001518360000151148015611b6c575081602001518360200151145b905092915050565b6080604051908101604052806002905b611b8c611bf0565b815260200190600190039081611b845790505090565b604080519081016040528060008019168152602001600080191681525090565b6080604051908101604052806002905b611bda611bf0565b815260200190600190039081611bd25790505090565b604080519081016040528060008019168152602001600080191681525090565b610100604051908101604052806002905b611c29611bc2565b815260200190600190039081611c215790505090565b5060008082016000905560018201600090555060020160008082016000905560018201600090555050565b5080546000825590600052602060002090810190611c889190611c8b565b50565b611cad91905b80821115611ca9576000816000905550600101611c91565b5090565b90565b600082601f8301121515611cc357600080fd5b8135611cd6611cd182612aa7565b612a7a565b91508181835260208401935060208101905083856040840282011115611cfb57600080fd5b60005b83811015611d2b5781611d118882611db3565b845260208401935060408301925050600181019050611cfe565b5050505092915050565b6000611d418251612c07565b905092915050565b6000611d558235612c13565b905092915050565b600082601f8301121515611d7057600080fd5b8135611d83611d7e82612acf565b612a7a565b91508082526020830160208301858383011115611d9f57600080fd5b611daa838284612c5d565b50505092915050565b600060408284031215611dc557600080fd5b611dcf6040612a7a565b90506000611ddf84828501611d49565b6000830152506020611df384828501611d49565b60208301525092915050565b600060408284031215611e1157600080fd5b611e1b6040612a7a565b90506000611e2b84828501611d49565b6000830152506020611e3f84828501611d49565b60208301525092915050565b6000611e578235612c1d565b905092915050565b6000611e6b8251612c1d565b905092915050565b600080600080600060e08688031215611e8b57600080fd5b600086013567ffffffffffffffff811115611ea557600080fd5b611eb188828901611cb0565b9550506020611ec288828901611dff565b945050606086013567ffffffffffffffff811115611edf57600080fd5b611eeb88828901611cb0565b9350506080611efc88828901611dff565b92505060c086013567ffffffffffffffff811115611f1957600080fd5b611f2588828901611d5d565b9150509295509295909350565b60008060408385031215611f4557600080fd5b600083013567ffffffffffffffff811115611f5f57600080fd5b611f6b85828601611cb0565b9250506020611f7c85828601611e4b565b9150509250929050565b600060208284031215611f9857600080fd5b6000611fa684828501611d35565b91505092915050565b60008060608385031215611fc257600080fd5b6000611fd085828601611dff565b9250506040611fe185828601611e4b565b9150509250929050565b60008060008060c0858703121561200157600080fd5b600061200f87828801611dff565b945050604061202087828801611e4b565b935050606061203187828801611dff565b92505060a085013567ffffffffffffffff81111561204e57600080fd5b61205a87828801611d5d565b91505092959194509250565b60008060006080848603121561207b57600080fd5b600061208986828701611dff565b935050604061209a86828701611e4b565b92505060606120ab86828701611e4b565b9150509250925092565b6000602082840312156120c757600080fd5b60006120d584828501611e5f565b91505092915050565b60006120ea8383612186565b60808301905092915050565b6000612102838361261c565b60408301905092915050565b61211781612c27565b82525050565b61212681612bc1565b82525050565b600061213782612b1f565b6121418185612b72565b935061214c83612afb565b60005b8281101561217a576121628683516120de565b955061216d82612b4b565b915060018101905061214f565b50849250505092915050565b61218f81612b2a565b6121998184612b83565b92506121a482612b08565b60005b828110156121d2576121ba8583516120f6565b94506121c582612b58565b91506001810190506121a7565b5050505050565b60006121e482612b35565b6121ee8185612b8e565b93506121f983612b12565b60005b828110156122275761220f8683516120f6565b955061221a82612b65565b91506001810190506121fc565b50849250505092915050565b61223c81612bd3565b82525050565b600061224d82612b40565b6122578185612b9f565b9350612267818560208601612c6c565b61227081612c9f565b840191505092915050565b6000612288601c83612bb0565b91507f496e707574206172726179206c656e677468206d69736d6174636821000000006000830152602082019050919050565b60006122c8601b83612bb0565b91507f4163636f756e7420616c726561647920726567697374657265642100000000006000830152602082019050919050565b6000612308601383612bb0565b91507f4e6f6e636520616c7265616479207365656e21000000000000000000000000006000830152602082019050919050565b6000612348601c83612bb0565b91507f4465706f73697420616d6f756e74206f7574206f662072616e67652e000000006000830152602082019050919050565b6000612388602883612bb0565b91507f46756e642070757368657320636f6e74726163742070617374206d6178696d7560008301527f6d2076616c75652e0000000000000000000000000000000000000000000000006020830152604082019050919050565b60006123ee601d83612bb0565b91507f5472616e7366657220616d6f756e74206f7574206f662072616e67652e0000006000830152602082019050919050565b600061242e601f83612bb0565b91507f496e76616c696420726567697374726174696f6e207369676e617475726521006000830152602082019050919050565b600061246e601c83612bb0565b91507f5472616e736665722066726f6d2073656e646572206661696c65642e000000006000830152602082019050919050565b60006124ae602383612bb0565b91507f5472616e736665722070726f6f6620766572696669636174696f6e206661696c60008301527f65642100000000000000000000000000000000000000000000000000000000006020830152604082019050919050565b6000612514603583612bb0565b91507f546869732073686f756c646e2774206661696c2e2e2e20536f6d657468696e6760008301527f2077656e74207365766572656c792077726f6e672e00000000000000000000006020830152604082019050919050565b600061257a601b83612bb0565b91507f4163636f756e74206e6f742079657420726567697374657265642e00000000006000830152602082019050919050565b60006125ba601f83612bb0565b91507f4275726e2070726f6f6620766572696669636174696f6e206661696c656421006000830152602082019050919050565b6040820160008201516126036000850182612233565b5060208201516126166020850182612233565b50505050565b6040820160008201516126326000850182612233565b5060208201516126456020850182612233565b50505050565b6040820160008201516126616000850182612233565b5060208201516126746020850182612233565b50505050565b61268381612bfd565b82525050565b600060208201905061269e600083018461211d565b92915050565b60006060820190506126b9600083018661210e565b6126c6602083018561211d565b6126d3604083018461267a565b949350505050565b60006040820190506126f0600083018561210e565b6126fd602083018461267a565b9392505050565b600060a082019050612719600083018661211d565b61272660208301856125ed565b61273360608301846125ed565b949350505050565b60006020820190508181036000830152612755818461212c565b905092915050565b6000602082019050818103600083015261277781846121d9565b905092915050565b600061014082019050818103600083015261279a818b6121d9565b905081810360208301526127ae818a6121d9565b905081810360408301526127c281896121d9565b90506127d160608301886125ed565b81810360a08301526127e381876121d9565b90506127f260c083018661267a565b6127ff60e08301856125ed565b8181036101208301526128128184612242565b90509998505050505050505050565b6000602082019050818103600083015261283a8161227b565b9050919050565b6000602082019050818103600083015261285a816122bb565b9050919050565b6000602082019050818103600083015261287a816122fb565b9050919050565b6000602082019050818103600083015261289a8161233b565b9050919050565b600060208201905081810360008301526128ba8161237b565b9050919050565b600060208201905081810360008301526128da816123e1565b9050919050565b600060208201905081810360008301526128fa81612421565b9050919050565b6000602082019050818103600083015261291a81612461565b9050919050565b6000602082019050818103600083015261293a816124a1565b9050919050565b6000602082019050818103600083015261295a81612507565b9050919050565b6000602082019050818103600083015261297a8161256d565b9050919050565b6000602082019050818103600083015261299a816125ad565b9050919050565b60006040820190506129b6600083018461264b565b92915050565b60006040820190506129d160008301846125ed565b92915050565b6000610180820190506129ed600083018b61264b565b6129fa604083018a61264b565b612a0760808301896125ed565b612a1460c083018861267a565b612a2160e083018761267a565b612a2f6101008301866125ed565b612a3d61014083018561210e565b818103610160830152612a508184612242565b90509998505050505050505050565b6000602082019050612a74600083018461267a565b92915050565b6000604051905081810181811067ffffffffffffffff82111715612a9d57600080fd5b8060405250919050565b600067ffffffffffffffff821115612abe57600080fd5b602082029050602081019050919050565b600067ffffffffffffffff821115612ae657600080fd5b601f19601f8301169050602081019050919050565b6000602082019050919050565b6000819050919050565b6000602082019050919050565b600081519050919050565b600060029050919050565b600081519050919050565b600081519050919050565b6000602082019050919050565b6000602082019050919050565b6000602082019050919050565b600082825260208201905092915050565b600081905092915050565b600082825260208201905092915050565b600082825260208201905092915050565b600082825260208201905092915050565b6000612bcc82612bdd565b9050919050565b6000819050919050565b600073ffffffffffffffffffffffffffffffffffffffff82169050919050565b6000819050919050565b60008115159050919050565b6000819050919050565b6000819050919050565b6000612c3282612c39565b9050919050565b6000612c4482612c4b565b9050919050565b6000612c5682612bdd565b9050919050565b82818337600083830152505050565b60005b83811015612c8a578082015181840152602081019050612c6f565b83811115612c99576000848401525b50505050565b6000601f19601f830116905091905056fea265627a7a7230582046d2e25809eb04833d5e07026159d3bd15287dc01c72dbc7f941505d4bb2e3a26c6578706572696d656e74616cf50037",
  "source": "pragma solidity 0.5.4;\npragma experimental ABIEncoderV2;\n\nimport './CashToken.sol';\nimport './Utils.sol';\nimport \"./InnerProductVerifier.sol\";\nimport './ZetherVerifier.sol';\nimport './BurnVerifier.sol';\n\ncontract ZSC {\n    using Utils for uint256;\n    using Utils for Utils.G1Point;\n\n    CashToken coin;\n    ZetherVerifier zetherverifier;\n    BurnVerifier burnverifier;\n    uint256 public epochLength; // now in milliseconds.\n\n    uint256 constant MAX = 4294967295; // 2^32 - 1 // no sload for constants...!\n    mapping(bytes32 => Utils.G1Point[2]) acc; // main account mapping\n    mapping(bytes32 => Utils.G1Point[2]) pending; // storage for pending transfers\n    mapping(bytes32 => uint256) lastRollOver;\n    bytes32[] nonceSet; // would be more natural to use a mapping, but they can't be deleted / reset!\n    uint256 lastGlobalUpdate = 0; // will be also used as a proxy for \"current epoch\", seeing as rollovers will be anticipated\n    // not implementing account locking for now...revisit\n\n    event TransferOccurred(Utils.G1Point[] parties); // all parties will be notified, client can determine whether it was real or not.\n    // arg is still necessary for transfers---not even so much to know when you received a transfer, as to know when you got rolled over.\n\n    constructor(address _coin, address _zether, address _burn, uint256 _epochLength) public {\n        // epoch length, like block.time, is in _seconds_. 4 is the minimum!!! (To allow a withdrawal to go through.)\n        coin = CashToken(_coin);\n        zetherverifier = ZetherVerifier(_zether);\n        burnverifier = BurnVerifier(_burn);\n        epochLength = _epochLength;\n    }\n\n    function simulateAccounts(Utils.G1Point[] memory y, uint256 epoch) view public returns (Utils.G1Point[2][] memory accounts) {\n        // in this function and others, i have to use public + memory (and hence, a superfluous copy from calldata)\n        // only because calldata structs aren't yet supported by solidity. revisit this in the future.\n        uint256 size = y.length;\n        accounts = new Utils.G1Point[2][](size);\n        for (uint256 i = 0; i < size; i++) {\n            bytes32 yHash = keccak256(abi.encode(y[i]));\n            accounts[i] = acc[yHash];\n            if (lastRollOver[yHash] < epoch) {\n                Utils.G1Point[2] memory scratch = pending[yHash];\n                accounts[i][0] = accounts[i][0].add(scratch[0]);\n                accounts[i][1] = accounts[i][1].add(scratch[1]);\n            }\n        }\n    }\n\n    function rollOver(bytes32 yHash) internal {\n        uint256 e = block.timestamp / epochLength;\n        if (lastRollOver[yHash] < e) {\n            Utils.G1Point[2][2] memory scratch = [acc[yHash], pending[yHash]];\n            acc[yHash][0] = scratch[0][0].add(scratch[1][0]);\n            acc[yHash][1] = scratch[0][1].add(scratch[1][1]);\n            // acc[yHash] = scratch[0]; // can't do this---have to do the above instead (and spend 2 sloads / stores)---because \"not supported\". revisit\n            delete pending[yHash]; // pending[yHash] = [Utils.G1Point(0, 0), Utils.G1Point(0, 0)];\n            lastRollOver[yHash] = e;\n        }\n        if (lastGlobalUpdate < e) {\n            lastGlobalUpdate = e;\n            delete nonceSet;\n        }\n    }\n\n    function registered(bytes32 yHash) internal view returns (bool) {\n        Utils.G1Point memory zero = Utils.G1Point(0, 0);\n        Utils.G1Point[2][2] memory scratch = [acc[yHash], pending[yHash]];\n        return !(scratch[0][0].eq(zero) && scratch[0][1].eq(zero) && scratch[1][0].eq(zero) && scratch[1][1].eq(zero));\n    }\n\n    function register(Utils.G1Point memory y, uint256 c, uint256 s) public {\n        // allows y to participate. c, s should be a Schnorr signature on \"this\"\n        Utils.G1Point memory K = Utils.g().mul(s).add(y.mul(c.neg()));\n        uint256 challenge = uint256(keccak256(abi.encode(address(this), y, K))).mod();\n        require(challenge == c, \"Invalid registration signature!\");\n        bytes32 yHash = keccak256(abi.encode(y));\n        require(!registered(yHash), \"Account already registered!\");\n        // pending[yHash] = [y, Utils.g()]; // \"not supported\" yet, have to do the below\n        pending[yHash][0] = y;\n        pending[yHash][1] = Utils.g();\n    }\n\n    function fund(Utils.G1Point memory y, uint256 bTransfer) public {\n        bytes32 yHash = keccak256(abi.encode(y));\n        require(registered(yHash), \"Account not yet registered.\");\n        rollOver(yHash);\n\n        require(bTransfer <= MAX, \"Deposit amount out of range.\"); // uint, so other way not necessary?\n\n        Utils.G1Point memory scratch = pending[yHash][0];\n        scratch = scratch.add(Utils.g().mul(bTransfer));\n        pending[yHash][0] = scratch;\n        require(coin.transferFrom(msg.sender, address(this), bTransfer), \"Transfer from sender failed.\");\n        require(coin.balanceOf(address(this)) <= MAX, \"Fund pushes contract past maximum value.\");\n    }\n\n    function transfer(Utils.G1Point[] memory C, Utils.G1Point memory D, Utils.G1Point[] memory y, Utils.G1Point memory u, bytes memory proof) public {\n        uint256 size = y.length;\n        Utils.G1Point[] memory CLn = new Utils.G1Point[](size);\n        Utils.G1Point[] memory CRn = new Utils.G1Point[](size);\n        require(C.length == size, \"Input array length mismatch!\");\n\n        for (uint256 i = 0; i < size; i++) {\n            bytes32 yHash = keccak256(abi.encode(y[i]));\n            require(registered(yHash), \"Account not yet registered.\");\n            rollOver(yHash);\n            Utils.G1Point[2] memory scratch = pending[yHash];\n            pending[yHash][0] = scratch[0].add(C[i]);\n            pending[yHash][1] = scratch[1].add(D);\n            // pending[yHash] = scratch; // can't do this, so have to use 2 sstores _anyway_ (as in above)\n\n            scratch = acc[yHash];\n            CLn[i] = scratch[0].add(C[i]);\n            CRn[i] = scratch[1].add(D);\n        }\n\n        bytes32 uHash = keccak256(abi.encode(u));\n        for (uint256 i = 0; i < nonceSet.length; i++) {\n            require(nonceSet[i] != uHash, \"Nonce already seen!\");\n        }\n        nonceSet.push(uHash);\n\n        require(zetherverifier.verifyTransfer(CLn, CRn, C, D, y, lastGlobalUpdate, u, proof), \"Transfer proof verification failed!\");\n\n        emit TransferOccurred(y);\n    }\n\n    function burn(Utils.G1Point memory y, uint256 bTransfer, Utils.G1Point memory u, bytes memory proof) public {\n        bytes32 yHash = keccak256(abi.encode(y));\n        require(registered(yHash), \"Account not yet registered.\");\n        rollOver(yHash);\n\n        require(0 <= bTransfer && bTransfer <= MAX, \"Transfer amount out of range.\");\n        Utils.G1Point[2] memory scratch = pending[yHash];\n        pending[yHash][0] = scratch[0].add(Utils.g().mul(bTransfer.neg()));\n\n        scratch = acc[yHash]; // simulate debit of acc---just for use in verification, won't be applied\n        scratch[0] = scratch[0].add(Utils.g().mul(bTransfer.neg()));\n        bytes32 uHash = keccak256(abi.encode(u));\n        for (uint256 i = 0; i < nonceSet.length; i++) {\n            require(nonceSet[i] != uHash, \"Nonce already seen!\");\n        }\n        nonceSet.push(uHash);\n\n        require(burnverifier.verifyBurn(scratch[0], scratch[1], y, bTransfer, lastGlobalUpdate, u, msg.sender, proof), \"Burn proof verification failed!\");\n        require(coin.transfer(msg.sender, bTransfer), \"This shouldn't fail... Something went severely wrong.\");\n    }\n}\n",
  "sourcePath": "/Users/benediamond/anonymous-zether/packages/protocol/contracts/ZSC.sol",
  "compiler": {
    "name": "solc",
    "version": "0.5.4+commit.9549d8ff.Emscripten.clang"
  },
  "schemaVersion": "3.0.19",
  "updatedAt": "2020-01-21T17:03:24.453Z",
  "devdoc": {
    "methods": {}
  },
  "userdoc": {
    "methods": {}
  }
}